:020000040800F2
:10000000705A0120F50200081F390008230A000871
:100010001D39000875080008B13E00080000000006
:100020000000000000000000000000003D02000889
:100030008D0800080000000091020008553B0008F0
:100040000F0300080F0300080F0300080F03000848
:100050000F0300080F0300080F0300080F03000838
:100060000F0300080F0300080F0300080F03000828
:100070000F0300080F0300080F0300080F03000818
:100080000F0300080F0300080F0300080F03000808
:100090000F0300080F0300080F0300080F030008F8
:1000A0000F0300080F0300080F0300080F030008E8
:1000B0000F030008C53B00080F0300080F030008EA
:1000C0000F0300080F0300080F0300080F030008C8
:1000D0000F030008153D00080F0300080F03000878
:1000E0000F0300080F0300080F0300080F030008A8
:1000F0000F0300080F0300080F0300080F03000898
:100100000F0300080F0300080F0300080F03000887
:100110000F0300080F0300080F0300080F03000877
:100120000F0300080F0300080F0300080F03000867
:100130000F0300080F0300080F0300080F03000857
:100140000F0300080F0300080F0300080F03000847
:100150000F0300080F0300080F0300080F03000837
:100160000F0300080F0300080F0300080F03000827
:100170000F0300080F0300080F0300080F03000817
:100180000F0300080F03000800F002F800F047F822
:100190000AA090E8000C82448344AAF10107DA45E2
:1001A00001D100F03CF8AFF2090EBAE80F0013F0ED
:1001B000010F18BFFB1A43F0010318473079000004
:1001C00050790000103A24BF78C878C1FAD8520795
:1001D00024BF30C830C144BF04680C6070470000C1
:1001E0000023002400250026103A28BF78C1FBD840
:1001F000520728BF30C148BF0B607047642900F028
:10020000E580782900F01E81732900F06A820020C1
:1002100070471FB506F054F81FBD10B510BD00F0B3
:10022000F6FA1146FFF7F5FF03F0A0FE00F014FB0D
:1002300003B4FFF7F2FF03BC03F03BFE2A4B19683F
:100240000868B0E8F04F80F30988BFF36F8F4FF074
:10025000000080F311887047000000000648006825
:10026000006880F3088862B661B6BFF34F8FBFF3B2
:100270006F8F00DF00BF00BF08ED00E0DFF80C006B
:10028000016841F470010160704700BF88ED00E033
:10029000EFF30980BFF36F8F134B1A681EF0100F36
:1002A00008BF20ED108A20E9F04F106008B44FF02D
:1002B000500080F31188BFF34F8FBFF36F8F05F0AD
:1002C0007BF84FF0000080F3118808BC19680868BB
:1002D000B0E8F04F1EF0100F08BFB0EC108A80F3AA
:1002E0000988BFF36F8F70476C000020EFF3058023
:1002F000704700000948804709480047FEE7FEE7CD
:10030000FEE7FEE7FEE7FEE7FEE7FEE7FEE7FEE7C5
:1003100004480549054A064B70470000693B000840
:100320008901000870540120705A01207056012084
:1003300070560120704700000FB4044910B503AA9D
:10034000029800F0D3F910BC5DF814FB34000020D3
:100350000FB41CB5074B06AA7B446946009005986C
:1003600000F095F90020694600F0A4F91CBC5DF886
:1003700014FB00005903000070B50C460546012A25
:1003800005D02878800600D5EA69002302E0012321
:1003900005E05B1C934202D2E05C0028F9D1A86919
:1003A000E618C01AA861286A184428622846AFF3E4
:1003B000008004E0D5E9012114F8010B9047B44214
:1003C000F8D32846AFF3008070BD00002DE9F0415E
:1003D0000646002410687529314616A510D0AFF3E3
:1003E0000080002802DA404213A507E031688A073E
:1003F00001D512A502E0490704D511A5012401E0A9
:10040000AFF3008000210A2206F1240709E0B0FBC7
:10041000F2FCB0FBF2F302FB1C00303078541846BB
:10042000491C0028F3D123462A463046BDE8F04156
:1004300000F0CFB8000000002D0000002B000000ED
:100440002000000070B504460D4621461068AFF349
:1004500000802188090502D50F4A7A4402E00E4A3D
:100460007A440E32002104F1240305E000F00F0667
:100470000009965D5E54491C0028F7D120780023BE
:10048000000704D5702D02D009B102231132204695
:10049000BDE8704000F09DB8527600002DE9F041B3
:1004A0000F4604460020DFF88480F844206220468E
:1004B000E168884790B3252806D0D4E90121904708
:1004C000206A401C2062F2E700252046E168884748
:1004D0002028064608DB312E06D208EB060010F86D
:1004E000200C08B10543F0E7A80701D525F0040565
:1004F000A6B1A6F14100192802D8203645F40065BE
:100500003A46314620462560FFF778FE48B101287B
:1005100005D0FF1D27F007070837C8E703E03F1D98
:10052000C5E73046C9E7206ABDE8F0812A760000B9
:10053000032A40F2308010F0030C00F0158011F80F
:10054000013BBCF1020F624498BF11F801CB00F8E7
:10055000013B38BF11F8013BA2F1040298BF00F83B
:1005600001CB38BF00F8013B11F0030300F0D0804D
:10057000083AC0F0088051F8043B083A51F804CB1F
:10058000A0E80810F5E7121D5CBF51F8043B40F8E5
:10059000043BAFF30080D20724BF11F8013B11F8F0
:1005A00001CB48BF11F8012B24BF00F8013B00F834
:1005B00001CB48BF00F8012B704702F0FF0343EA6C
:1005C000032242EA024200F0D7B8704770477047F2
:1005D00070472DE9F0470D4699469246044600F1D2
:1005E00024080168880604D5E06921F01001216023
:1005F00000E00120A84201DD471B00E00027A169BF
:100600007A1902EB0900081AA0612078C00602D40A
:100610002046AFF30080002608E0D4E901211AF853
:1006200006009047206A401C761C20624E45F4DB91
:100630002078C0060AD52046AFF3008006E0D4E952
:10064000012130209047206A401C2062381EA7F10B
:100650000107F4DC07E0D4E9012118F80500904710
:10066000206A401C2062281EA5F10105F3DC20460B
:10067000AFF300802078000602D50220BDE8F087A5
:100680000120FBE701694A1C02610878704700B548
:100690008FB0CDE901310021059105497944CDE9BB
:1006A000031011466846FFF7F9FE0FB000BD0000C9
:1006B000E5FFFFFF0A6802F8010B0A60704710B5FA
:1006C000436913B1AFF3008001E0FFF755FE01204D
:1006D00010BD127800F124010A7000224A70012234
:1006E000EDE711684FF0FF32E9E70000074B70B506
:1006F0000D467B44FFF7CBFF0446284600F05CF82C
:1007000010B14FF0FF3070BD204670BD633800005F
:1007100010B5203AC0F00B80B1E81850203AA0E89C
:100720001850B1E81850A0E81850BFF4F5AF5FEAD0
:10073000027C24BFB1E81850A0E8185044BF18C983
:1007400018C0BDE810405FEA827C24BF51F8043B2A
:1007500040F8043B08BF7047D20728BF31F8023B7E
:1007600048BF11F8012B28BF20F8023B48BF00F812
:10077000012B70474FF000020429C0F0128010F0E6
:10078000030C00F01F80CCF1040CBCF1020F18BF69
:1007900000F8012BA8BF20F8022BA1EB0C0100F000
:1007A00011B85FEAC17C24BF00F8012B00F8012BCF
:1007B00048BF00F8012B7047007B00F080007047B5
:1007C0004FF0000200B5134694469646203922BFEA
:1007D000A0E80C50A0E80C50B1F12001BFF4F7AF35
:1007E000090728BFA0E80C5048BF0CC05DF804EB17
:1007F000890028BF40F8042B08BF704748BF20F885
:10080000022B11F0804F18BF00F8012B704775467E
:1008100000F02CF8AE4605006946534620F007006C
:10082000854618B020B5FFF773FDBDE820404FF0B6
:1008300000064FF000074FF000084FF0000B21F0CA
:100840000701AC46ACE8C009ACE8C009ACE8C00997
:10085000ACE8C0098D46704710B50446AFF3008080
:100860002046BDE81040FFF7E3BC00000048704799
:100870000C540120FEE700000348002202604260A1
:100880005321312003F0B8B9200000207047000048
:100890008000A0F1C0400029016802D041F00101B0
:1008A00001E0024A1140016070470000FEFF0F00A6
:1008B00010B5D0E901121143D0E903231A431143C3
:1008C0004269114382691143C2691143026A1143AB
:1008D000426A1143826A1143C26A1143026B114397
:1008E00002689200A2F1C04211608168082907D114
:1008F00001688900A1F1C0410A6842F040020A6023
:10090000416BD1E9002342EA03128B688C891B02F8
:1009100043EA04431A430B8A42EA03520B7D896976
:1009200042EA03620A4301688900A1F1C0414A60BA
:10093000C16AB1F5804F08D000686FF07041800047
:10094000A0F1C040C0F8041110BD816BD1E90023B3
:1009500042EA03128B680C8A1B0243EA04531A43CF
:100960000B7D896942EA036200680A438000A0F1B6
:10097000C040C0F8042110BDF0B5002201274FF09F
:10098000030C0B6807FA02F52B40AB422CD106682A
:1009900053000CFA03F4A64306600E79D0F800E089
:1009A0009E4046EA0E0606600E79012E01D0022E08
:1009B00012D18668A64386604E79D0F808E09E4042
:1009C00046EA0E0686604668AE43466045688E7904
:1009D0009640B6B235434560C568A543C560CC793D
:1009E0009C40C3681C43C460521C102AC9D3F0BD8C
:1009F0004B07DB0E9A40C90810B500EB8100016A75
:100A00000F249C40A1430162016A1143016210BDA1
:100A10000246002012690A4200D00120704701837B
:100A20007047FEE71CB50121112002F0B5FF1C2024
:100A3000009000208DF8040003208DF805000124AB
:100A40008DF8074069460648FFF796FF02208DF8AB
:100A50000700009469460348FFF78EFF1CBD0000A5
:100A600000100240000002402DE9F0412E4C2F4FB3
:100A70002F4D012608B1267001E02078A0B1102189
:100A80002846FFF7C5FFB0B108212846FFF7C0FF91
:100A900088B104212846FFF7BBFF60B10121384629
:100AA000FFF7B6FF012806D010212846FFF7B0FF58
:100AB000012824D035E00A2003F018FA0020207025
:100AC00010212846FFF7A4FF80B108212846FFF730
:100AD0009FFF70B104212846FFF79AFF58B101210A
:100AE0003846FFF795FF012807D01AE00120BDE83E
:100AF000F0810220FBE70320F9E70420F7E7082153
:100B00002846FFF785FF01280BD104212846FFF76F
:100B10007FFF012805D101213846FFF779FF00B991
:100B200026700020E3E700002C00002000000240B7
:100B30000010024070B50A490646002408884D8816
:100B400021464543204602F055FD02F0B7FE4FF026
:100B5000D84002E0A0F88060641CAC42FAD370BDBB
:100B6000E80000202DE9F04F2B4B2C2719469871F7
:100B70002B2589884FF4305A4FF4285B4FF4487482
:100B800041F6631E2A264FF0F00845F210594FF443
:100B9000A07C4FF4F072C8B1A3F800C0A3F80280A3
:100BA000494533D1A3F808A0A3F80AB028029881D8
:100BB0001C805A80A1F5A640103802D11A80A3F8F3
:100BC00002C0BDE8F04F002002F044BCA3F8008052
:100BD000A3F802C0494507D1A3F808A0A3F80AB0BA
:100BE0004FF42C50988104E071451F8104D15D8140
:100BF0009E811A805C8001E05E819D81A1F5A64006
:100C00001038DED1A3F800C05A80DAE71F815E8178
:100C100071459D81CCD0CDE7E80000202DE9F04161
:100C2000314D90460C460246060AA9882846270AF6
:100C30004089A1F5AA43103B0FD0A1F5C853633BEF
:100C400024D002F02EFE304602F01FFED0B202F099
:100C50001CFEA88902F025FE36E002F022FE304696
:100C600002F013FE6889401C80B202F01AFED0B276
:100C700002F00BFEA88902F014FE384602F005FED1
:100C8000A889401C80B202F00CFE20E0A97919B9B5
:100C90002988891A491E8AB202F003FE160A3046D4
:100CA00002F0F3FDD0B202F0F0FD304602F0EDFDAF
:100CB000D0B202F0EAFDA88902F0F3FD384602F056
:100CC000E4FDE0B202F0E1FD384602F0DEFDE0B204
:100CD00002F0DBFD4FF0D840298920F87E1FA0F8F4
:100CE0000280BDE8F0810000E80000202DE9F04F0F
:100CF000A1B0002401217A201F9402F04DFE0121B1
:100D0000084602F055FE4FF400404FF0010B0090F2
:100D10008DF804B08DF8064002208DF805008DF89E
:100D200007B06946FE48FFF727FE4CF2337000908B
:100D300002208DF804008DF8064003258DF805503B
:100D400001208DF807006946F648FFF715FE4FF6BB
:100D50008070009002208DF804008DF806408DF818
:100D600005500120F04F8DF8070069463846FFF71F
:100D700003FE02208DF804008DF806408DF8055022
:100D80000120DFF8A883BE148DF80700009669469D
:100D90004046FFF7F1FD02208DF804008DF8064073
:100DA0008DF805500120E24D8DF807000096694648
:100DB0002846FFF7E1FD0C220021DA48FFF718FE74
:100DC0000C220121D748FFF713FE0C220421D5483D
:100DD000FFF70EFE0C220521D248FFF709FE0C2278
:100DE0000821D048FFF704FE0C220921CD48FFF767
:100DF000FFFD0C220A21CB48FFF7FAFD0C220E2141
:100E0000C848FFF7F5FD0C220F21C648FFF7F0FD9B
:100E10000C2207213846FFF7EBFD0C22082138464B
:100E2000FFF7E6FD0C2209213846FFF7E1FD0C2211
:100E30000A213846FFF7DCFD0C220B213846FFF76C
:100E4000D7FD0C2211463846FFF7D2FD0C220D21AA
:100E50003846FFF7CDFD0C220E213846FFF7C8FDBE
:100E60000C220F213846FFF7C3FD0C2211464046E5
:100E7000FFF7BEFD0C2211462846FFF7B9FD0F20F3
:100E8000CDE911043C20CDE91304159409201694F2
:100E9000CDE917400820CDE919401B941C94062089
:100EA000CDE902041D941E941020CDE9044008945D
:100EB000079480020694CDE90C40CDE90A460994D6
:100EC00011A8CDE90E4018A8109002A8FFF7F0FC79
:100ED00001210620FFF7DCFC322003F007F8D320C5
:100EE00002F0DFFC02F084FA924A908002F080FA6D
:100EF000908002F07DFA4FF6FF7A0AEA0020908097
:100F000002F076FA918849F241350843908047F221
:100F1000897645F2103745F2105441F66318A8421D
:100F200060D0042002F0BDFC02F062FA908002F072
:100F30005FFA908002F05CFA0AEA0020D1469080C5
:100F400002F056FA91880843A0F505419080523985
:100F50007ED0B04246D0D42002F0A3FC02F048FA82
:100F6000908002F045FA908002F042FA09EA0020EF
:100F7000908002F03DFA918808439080B84231D0C9
:100F80004FF45A4002F08DFC02F032FA90804FF498
:100F90005B4002F086FC02F02BFA09EA0020908008
:100FA0004FF45C4002F07DFC02F022FA9188084385
:100FB0009080B0F5004F7DD0A04213D0A12002F068
:100FC00070FC02F015FA908002F012FA09EA002093
:100FD000908002F00DFA91880843A0F5AE41908010
:100FE000613968D080B2A84205D0B84203D0A0428F
:100FF00001D0404519D14FF02040D0F81C1121F00C
:101000000F01C0F81C11D0F81C1121F47061C0F858
:101010001C11D0F81C1141F00301C0F81C11D0F8CC
:101020001C1141F40071C0F81C119146918842A036
:10103000FFF782F9B9F80400A8426FD1CF2002F07F
:1010400030FC002002F021FCC12002F01EFC00E078
:1010500022E1302002F019FCED2002F022FC642095
:1010600002F013FC032002F010FC122002F00DFC31
:10107000812002F00AFCE82002F013FC852002F037
:1010800004FC102002F001FC7A2002F0FEFBCB20D1
:1010900002F007FC392002F0F8FB2C2002F0F5FBEF
:1010A000002002F0F2FB342002F0EFFB022002F0FD
:1010B000ECFB01E0F5E0F1E0F72002F0F2FB20208C
:1010C00002F0E3FBEA2002F0ECFB002002F0DDFB83
:1010D000002002F0DAFBC02002F0E3FB1B2002F04C
:1010E000D4FBC12002F0DDFB012002F0CEFBC520C5
:1010F00002F0D7FB302002F0C8FB302002F0C5FB25
:10110000C72002F0CEFBB72002F0BFFB362002F072
:10111000C8FB482002F0B9FB3A2015E0C3E000000C
:1011200000040240000C0240001002400014024083
:1011300000180240E8000020204C43442049443A73
:1011400025780D0A0000000002F0ABFB552002F0EC
:101150009CFBB12002F0A5FB002002F096FB1A20B8
:1011600002F093FBB62002F09CFB0A2002F08DFBFC
:10117000A22002F08AFBF22002F093FB002002F092
:1011800084FB262002F08DFB012002F07EFBE02094
:1011900002F087FB0F2002F078FB2A2002F075FB9B
:1011A000282002F072FB082002F06FFB0E2002F0F4
:1011B0006CFB082002F069FB542002F066FBA920BA
:1011C00002F063FB432002F060FB0A2002F05DFBAB
:1011D0000F2002F05AFB002002F057FB002002F023
:1011E00054FB002002F051FB002002F04EFBE120F6
:1011F00002F057FB002002F048FB152002F045FBEF
:10120000172002F042FB072002F03FFB112002F002
:101210003CFB062002F039FB2B2002F036FB562067
:1012200002F033FB3C2002F030FB052002F02DFBE6
:10123000102002F02AFB0F2002F027FB3F2002F0D3
:1012400024FB3F2002F021FB0F2002F01EFB2B208D
:1012500002F027FB002002F018FB002002F015FB33
:10126000012002F012FB3F2002F00FFB2A2002F0C7
:1012700018FB002002F009FB002002F006FB002012
:1012800002F003FBEF2002F000FB112002F009FB4B
:10129000782002F02BFED9E09680C6E6A2F8048002
:1012A000A9E69480A7E6B0427ED1112002F0F9FAB7
:1012B000782002F01BFE362002F0F3FA002002F044
:1012C000E4FA3A2002F0EDFA052002F0DEFAB2204C
:1012D00002F0E7FA0C2002F0D8FA0C2002F0D5FA5E
:1012E000002002F0D2FA332002F0CFFA332002F0CD
:1012F000CCFAB72002F0D5FA352002F0C6FABB20AE
:1013000002F0CFFA322002F0C0FAC02002F0C9FA8F
:101310000C2002F0BAFAC22002F0C3FA012002F057
:10132000B4FAC32002F0BDFA102002F0AEFAC420D5
:1013300002F0B7FA202002F0A8FAC62002F0B1FAB3
:101340000F2002F0A2FAD02002F0ABFAA42002F0A3
:101350009CFAA12002F099FAE02002F0A2FAD02033
:1013600002F093FA002002F090FA022002F08DFAC7
:10137000072002F08AFA0A2002F087FA282002F0F9
:1013800084FA322002F081FA442002F07EFA4220F0
:1013900002F07BFA062002F078FA0E2002F075FACD
:1013A000122002F072FA00E053E0142002F06DFA0D
:1013B000172002F06AFAE12002F073FAD02002F05E
:1013C00064FA002002F061FA022002F05EFA0720BF
:1013D00002F05BFA0A2002F058FA282002F055FACF
:1013E000312002F052FA542002F04FFA472002F066
:1013F0004CFA0E2002F049FA1C2002F046FA17209F
:1014000002F043FA1B2002F040FA1E2002F03DFADF
:101410002A2002F046FA002002F037FA002002F0FB
:1014200034FA002002F031FAEF2002F02EFA2B20DD
:1014300002F037FA002002F028FA002002F025FA24
:10144000012002F022FA3F2002F01FFA292001F0C9
:10145000FBBEB8427ED1ED2002F023FA012002F05B
:1014600014FAFE2002F011FAEE2002F01AFADE2041
:1014700002F00BFA212002F008FAF12002F011FA32
:10148000012002F002FADF2002F00BFA102002F035
:10149000FCF9C42002F005FA8F2002F0F6F9C6200C
:1014A00002F0FFF9002002F0F0F9E22002F0EDF97D
:1014B000E22002F0EAF9E22002F0E7F9BF2002F0B0
:1014C000F0F9AA2002F0E1F9B02002F0EAF90D20CB
:1014D00002F0DBF9002002F0D8F90D2002F0D5F976
:1014E000002002F0D2F9112002F0CFF9002002F022
:1014F000CCF9192002F0C9F9002002F0C6F9212028
:1015000002F0C3F9002002F0C0F92D2002F0BDF96D
:10151000002002F0BAF93D2002F0B7F9002002F0F5
:10152000B4F95D2002F0B1F9002002F0AEF95D20BF
:1015300002F0ABF9002002F0A8F9B12002F0B1F9F5
:10154000802002F0A2F9002002F09FF98B2002F027
:101550009CF900E0FDE3002002F097F9962002F0EC
:1015600094F9002002F091F9B22002F09AF90020DB
:1015700002F08BF9002002F088F9022002F085F9D0
:10158000002002F082F9032002F07FF9002002F02F
:101590007CF9B32002F085F9002002F076F90020F2
:1015A00002F073F9002002F070F9002002F06DF9EA
:1015B000002002F06AF9002002F067F9002002F032
:1015C00064F9002002F061F9002002F05EF90020C9
:1015D00002F05BF9002002F058F9002002F055F902
:1015E000002002F052F9002002F04FF9002002F032
:1015F0004CF9002002F049F9002002F046F90020E1
:1016000002F043F9002002F040F9002002F03DF919
:10161000002002F03AF9002002F037F9002002F031
:1016200034F9002002F031F9B42002F03AF98B20AD
:1016300002F02BF9002002F028F9962002F025F99B
:10164000002002F022F9A12002F01FF9002002F090
:101650001CF9B52002F025F9022002F016F900204D
:1016600002F013F9032002F010F9002002F00DF946
:10167000042002F00AF9002002F007F9B62002F077
:1016800010F9002002F001F9002002F0FEF8B72066
:1016900002F007F9002002F0F8F8002002F0F5F857
:1016A0003F2002F0F2F8002002F0EFF85E2002F096
:1016B000ECF8002002F0E9F8642002F0E6F80020DF
:1016C00002F0E3F88C2002F0E0F8002002F0DDF8F0
:1016D000AC2002F0DAF8002002F0D7F8DC2002F0AB
:1016E000D4F8002002F0D1F8702002F0CEF80020EB
:1016F00002F0CBF8902002F0C8F8002002F0C5F804
:10170000EB2002F0C2F8002002F0BFF8DC2002F06B
:10171000BCF8002002F0B9F8B82002F0C2F80020AE
:1017200002F0B3F8002002F0B0F8002002F0ADF8AB
:10173000002002F0AAF8002002F0A7F8002002F032
:10174000A4F8002002F0A1F8002002F09EF8BA20D0
:1017500002F0A7F8242002F098F8002002F095F893
:10176000002002F092F8002002F08FF8C12002F071
:1017700098F8202002F089F8002002F086F8542022
:1017800002F083F8002002F080F8FF2002F07DF8DC
:10179000002002F07AF8C22002F083F80A2002F05A
:1017A00074F8002002F071F8042002F06EF80020B6
:1017B00002F06BF8C32002F074F83C2002F065F8E8
:1017C000002002F062F83A2002F05FF8002002F0F8
:1017D0005CF8392002F059F8002002F056F8372062
:1017E00002F053F8002002F050F83C2002F04DF8CF
:1017F000002002F04AF8362002F047F8002002F0FC
:1018000044F8322002F041F8002002F03EF82F2088
:1018100002F03BF8002002F038F82C2002F035F8F6
:10182000002002F032F8292002F02FF8002002F008
:101830002CF8262002F029F8002002F026F82420B7
:1018400002F023F8002002F020F8242002F01DF816
:10185000002002F01AF8232002F017F8002002F00E
:1018600014F83C2002F011F8002002F00EF83620A7
:1018700002F00BF8002002F008F8322002F005F820
:10188000002002F002F82F2001F0FFFF002001F0FD
:10189000FCFF2C2001F0F9FF002001F0F6FF2920C9
:1018A00001F0F3FF002001F0F0FF262001F0EDFF32
:1018B000002001F0EAFF242001F0E7FF002001F002
:1018C000E4FF242001F0E1FF002001F0DEFF2320EF
:1018D00001F0DBFF002001F0D8FFC42001F0E1FFA0
:1018E000622001F0D2FF002001F0CFFF052001F0BF
:1018F000CCFF002001F0C9FF842001F0C6FF0020CA
:1019000001F0C3FFF02001F0C0FF002001F0BDFF97
:10191000182001F0BAFF002001F0B7FFA42001F069
:10192000B4FF002001F0B1FF182001F0AEFF00204D
:1019300001F0ABFF502001F0A8FF002001F0A5FF4F
:101940000C2001F0A2FF002001F09FFF172001F002
:101950009CFF002001F099FF952001F096FF0020E8
:1019600001F093FFF32001F090FF002001F08DFFC4
:10197000E62001F08AFF002001F087FFC52001F07A
:1019800090FF322001F081FF002001F07EFF442013
:1019900001F07BFF002001F078FF652001F075FF6A
:1019A000002001F072FF762001F06FFF002001F0AF
:1019B0006CFF882001F069FF002001F066FFC6205F
:1019C00001F06FFF202001F060FF002001F05DFFBB
:1019D000172001F05AFF002001F057FF012001F00D
:1019E00054FF002001F051FFC72001F05AFF0020F2
:1019F00001F04BFF002001F048FF002001F045FFFF
:101A0000002001F042FFC82001F04BFF002001F050
:101A10003CFF002001F039FF002001F036FF0020DC
:101A200001F033FFC92001F03CFF002001F02DFF41
:101A3000002001F02AFF002001F027FF002001F024
:101A400024FF002001F021FF002001F01EFF0020F4
:101A500001F01BFF002001F018FF002001F015FF2E
:101A6000002001F012FF002001F00FFF002001F024
:101A70000CFF002001F009FF002001F006FF00200C
:101A800001F003FF002001F000FFE02001F009FF5A
:101A9000162001F0FAFE002001F0F7FE1C2001F0F4
:101AA000F4FE002001F0F1FE212001F0EEFE002006
:101AB00001F0EBFE362001F0E8FE002001F0E5FE2B
:101AC000462001F0E2FE002001F0DFFE522001F08E
:101AD000DCFE002001F0D9FE642001F0D6FE0020DB
:101AE00001F0D3FE7A2001F0D0FE002001F0CDFEFF
:101AF0008B2001F0CAFE002001F0C7FE992001F002
:101B0000C4FE002001F0C1FEA82001F0BEFE0020AE
:101B100001F0BBFEB92001F0B8FE002001F0B5FED7
:101B2000C42001F0B2FE002001F0AFFECA2001F097
:101B3000ACFE002001F0A9FED22001F0A6FE00209C
:101B400001F0A3FED92001F0A0FE002001F09DFECF
:101B5000E02001F09AFE002001F097FEF32001F052
:101B600094FE002001F091FEE12001F09AFE162083
:101B700001F08BFE002001F088FE1C2001F085FEA4
:101B8000002001F082FE222001F07FFE002001F003
:101B90007CFE362001F079FE002001F076FE452023
:101BA00001F073FE002001F070FE522001F06DFE86
:101BB000002001F06AFE642001F067FE002001F0C1
:101BC00064FE7A2001F061FE002001F05EFE8B20B1
:101BD00001F05BFE002001F058FE992001F055FE57
:101BE000002001F052FEA82001F04FFE002001F07D
:101BF0004CFEB92001F049FE002001F046FEC42051
:101C000001F043FE002001F040FECA2001F03DFE3D
:101C1000002001F03AFED22001F037FE002001F052
:101C200034FED82001F031FE002001F02EFEE0202D
:101C300001F02BFE002001F028FEF32001F025FE2C
:101C4000002001F022FEE22001F02BFE052001F031
:101C50001CFE002001F019FE0B2001F016FE0020F2
:101C600001F013FE1B2001F010FE002001F00DFE1C
:101C7000342001F00AFE002001F007FE442001F0AC
:101C800004FE002001F001FE4F2001F0FEFD0020C7
:101C900001F0FBFD612001F0F8FD002001F0F5FDF1
:101CA000792001F0F2FD002001F0EFFD882001F025
:101CB000ECFD002001F0E9FD972001F0E6FD002099
:101CC00001F0E3FDA62001F0E0FD002001F0DDFDC4
:101CD000B72001F0DAFD002001F0D7FDC22001F0AD
:101CE000D4FD002001F0D1FDC72001F0CEFD002081
:101CF00001F0CBFDD12001F0C8FD002001F0C5FDB1
:101D0000D62001F0C2FD002001F0BFFDDD2001F072
:101D1000BCFD002001F0B9FDF32001F0B6FD00206C
:101D200001F0B3FDE32001F0BCFD052001F0ADFDA5
:101D3000002001F0AAFD0A2001F0A7FD002001F01B
:101D4000A4FD1C2001F0A1FD002001F09EFD332028
:101D500000E0FAE201F099FD002001F096FD442038
:101D600001F093FD002001F090FD502001F08DFD69
:101D7000002001F08AFD622001F087FD002001F0C3
:101D800084FD782001F081FD002001F07EFD882097
:101D900001F07BFD002001F078FD972001F075FD3A
:101DA000002001F072FDA62001F06FFD002001F07F
:101DB0006CFDB72001F069FD002001F066FDC22036
:101DC00001F063FD002001F060FDC72001F05DFD22
:101DD000002001F05AFDD12001F057FD002001F054
:101DE00054FDD52001F051FD002001F04EFDDD2015
:101DF00001F04BFD002001F048FDF32001F045FD0E
:101E0000002001F042FDE42001F04BFD012001F033
:101E10003CFD002001F039FD012001F036FD0020DD
:101E200001F033FD022001F030FD002001F02DFD16
:101E30002A2001F02AFD002001F027FD3C2001F0BE
:101E400024FD002001F021FD4B2001F01EFD0020AB
:101E500001F01BFD5D2001F018FD002001F015FDD3
:101E6000742001F012FD002001F00FFD842001F02C
:101E70000CFD002001F009FD932001F006FD00207B
:101E800001F003FDA22001F000FD002001F0FDFCA7
:101E9000B32001F0FAFC002001F0F7FCBE2001F0B5
:101EA000F4FC002001F0F1FCC42001F0EEFC002065
:101EB00001F0EBFCCD2001F0E8FC002001F0E5FC96
:101EC000D32001F0E2FC002001F0DFFCDD2001F076
:101ED000DCFC002001F0D9FCF32001F0D6FC00204E
:101EE00001F0D3FCE52001F0DCFC002001F0CDFC8A
:101EF000002001F0CAFC002001F0C7FC002001F026
:101F0000C4FC022001F0C1FC002001F0BEFC29202D
:101F100001F0BBFC002001F0B8FC3C2001F0B5FC56
:101F2000002001F0B2FC4B2001F0AFFC002001F0DA
:101F3000ACFC5D2001F0A9FC002001F0A6FC74209F
:101F400001F0A3FC002001F0A0FC842001F09DFC26
:101F5000002001F09AFC932001F097FC002001F092
:101F600094FCA22001F091FC002001F08EFCB32033
:101F700001F08BFC002001F088FCBE2001F085FC04
:101F8000002001F082FCC42001F07FFC002001F061
:101F90007CFCCD2001F079FC002001F076FCD32000
:101FA00001F073FC002001F070FCDC2001F06DFCFE
:101FB000002001F06AFCF32001F067FC002001F032
:101FC00064FCE62001F06DFC112001F05EFC0020B5
:101FD00001F05BFC342001F058FC002001F055FCBE
:101FE000562001F052FC002001F04FFC762001F059
:101FF0004CFC002001F049FC772001F046FC002059
:1020000001F043FC662001F040FC002001F03DFCA3
:10201000882001F03AFC002001F037FC992001F003
:1020200034FC002001F031FCBB2001F02EFC00202C
:1020300001F02BFC992001F028FC002001F025FC88
:10204000662001F022FC002001F01FFC552001F069
:102050001CFC002001F019FC552001F016FC0020AA
:1020600001F013FC452001F010FC002001F00DFCF4
:10207000432001F00AFC002001F007FC442001F09D
:1020800004FC002001F001FCE72001F00AFC3220F2
:1020900001F0FBFB002001F0F8FB552001F0F5FBFF
:1020A000002001F0F2FB762001F0EFFB002001F0B0
:1020B000ECFB662001F0E9FB002001F0E6FB672065
:1020C00001F0E3FB002001F0E0FB672001F0DDFB05
:1020D000002001F0DAFB872001F0D7FB002001F09F
:1020E000D4FB992001F0D1FB002001F0CEFBBB20F6
:1020F00001F0CBFB002001F0C8FB992001F0C5FBEB
:10210000002001F0C2FB772001F0BFFB002001F0AE
:10211000BCFB442001F0B9FB002001F0B6FB5620C7
:1021200001F0B3FB002001F0B0FB232001F0ADFB78
:10213000002001F0AAFB332001F0A7FB002001F0F2
:10214000A4FB452001F0A1FB002001F09EFBE8204C
:1021500001F0A7FB002001F098FB002001F095FBA7
:10216000992001F092FB002001F08FFB872001F005
:102170008CFB002001F089FB882001F086FB002009
:1021800001F083FB772001F080FB002001F07DFB54
:10219000662001F07AFB002001F077FB882001F037
:1021A00074FB002001F071FBAA2001F06EFB0020FF
:1021B00001F06BFBBB2001F068FB002001F065FB28
:1021C000992001F062FB002001F05FFB662001F026
:1021D0005CFB002001F059FB552001F056FB00206C
:1021E00001F053FB552001F050FB002001F04DFBA6
:1021F000442001F04AFB002001F047FB442001F09D
:1022000044FB002001F041FB552001F03EFB002083
:1022100001F03BFBE92001F044FBAA2001F035FB73
:10222000002001F032FB002001F02FFB002001F024
:102230002CFB002001F035FBAA2001F026FBCF206B
:1022400001F02FFB002001F020FB002001F01DFB1E
:10225000002001F01AFB002001F017FB002001F024
:1022600014FB002001F011FB002001F00EFB002008
:1022700001F00BFB002001F008FB002001F005FB42
:10228000002001F002FB002001F0FFFA002001F025
:10229000FCFA002001F0F9FA002001F0F6FA002023
:1022A00001F0F3FA002001F0F0FAF02001F0F9FA61
:1022B000002001F0EAFA502001F0E7FA002001F0D6
:1022C000E4FA002001F0E1FA002001F0DEFAF32048
:1022D00001F0E7FA002001F0D8FAF92001F0E1FA64
:1022E000062001F0D2FA102001F0CFFA292001F0E7
:1022F000CCFA002001F0C9FA3A2001F0D2FA5520B8
:1023000001F0C3FA112001F0CCFA642001F0EEFDD7
:10231000292001F0C6FA352001F0C3FA002001F0AF
:10232000B4FA512001F0BDFAFF2001F0AEFA5320BB
:1023300001F0B7FA2C2001F0A8FA552001F0B1FA0B
:10234000822001F0A2FA2C20FDE3A0427DD14FF4BF
:1023500070435521184601F0BBFA4FF20104AA213F
:10236000204601F0B5FA651C5221284601F0B0FA6A
:10237000A61C0821304601F0ABFAE71C01213846C3
:1023800001F0A6FA0D214FF4304001F0A1FA0D2121
:102390004BF2010001F09CFA0D214BF2020001F01A
:1023A00097FA4FF436483421404601F091FA34212F
:1023B0004BF2016001F08CFA34214BF2026001F023
:1023C00087FA4FF431490D21484601F081FA0D2179
:1023D0004BF2011001F07CFA0D214BF2021001F0DA
:1023E00077FA34214FF4374001F072FA34214BF27E
:1023F000017001F06DFA34214BF2027001F068FABD
:1024000000214FF4324001F063FA00214BF2012029
:1024100001F05EFA00214BF2022001F059FA24216A
:102420004FF4384001F054FA24214BF6010001F03A
:102430004FFA24214BF6020001F04AFA01214FF431
:102440003F4001F045FA0F2100E0FDE34FF4334037
:1024500001F03EFA0F214BF2013001F039FA0F2161
:102460004BF2023001F034FA34214FF4394001F0DC
:102470002FFA34214BF6011001F02AFA34214BF6E1
:10248000021001F025FA08214FF4354001F020FA3E
:1024900008214BF2015001F01BFA08214BF20250C7
:1024A00001F016FA03214FF4424001F011FA242101
:1024B0004FF43A4001F00CFA24214BF6012001F0D0
:1024C00007FA24214BF6022001F002FA00214FF412
:1024D0003C4001F0FDF978214BF6014001F0F8F99C
:1024E00000214BF6024001F0F3F900214FF43D408A
:1024F00001F0EEF978214BF6015001F0E9F90021E5
:102500004BF6025001F0E4F900214FF43E4001F097
:10251000DFF964214BF6016001F0DAF900214FF494
:10252000514001F0D5F933214DF2011001F0D0F9FD
:1025300000214DF2021001F0CBF934214DF20310CD
:1025400001F0C6F900214DF2041001F0C1F93A2161
:102550004DF2051001F0BCF900214DF2061001F01A
:10256000B7F94A214DF2071001F0B2F900214DF2FE
:10257000081001F0ADF95C214DF2091001F0A8F945
:1025800000214DF20A1001F0A3F981214DF20B1048
:1025900001F09EF900214DF20C1001F099F9A621ED
:1025A0004DF20D1001F094F900214DF20E1001F0E2
:1025B0008FF9E5214DF20F1001F08AF901214DF25A
:1025C000101001F085F913214DF2111001F080F97E
:1025D00001214DF2121001F07BF954214DF213103C
:1025E00001F076F901214DF2141001F071F9822108
:1025F0004DF2151001F06CF901214DF2161001F0A9
:1026000067F9CA214DF2171001F062F902214DF26B
:10261000181001F05DF900214DF2191001F058F980
:1026200002214DF21A1001F053F901214DF21B1055
:1026300001F04EF902214DF21C1001F049F934214C
:102640004DF21D1001F044F902214DF21E1001F06F
:102650003FF967214DF21F1001F03AF902214DF2C6
:10266000201001F035F984214DF2211001F030F9EC
:1026700002214DF2221001F02BF9A4214DF223107A
:1026800001F026F902214DF2241001F021F9B721C1
:102690004DF2251001F01CF902214DF2261001F037
:1026A00017F9CF214DF2271001F012F902214DF256
:1026B000281001F00DF9DE214DF2291001F008F982
:1026C00002214DF22A1001F003F9F2214DF22B10F4
:1026D00001F0FEF802214DF22C1001F0F9F8FE2174
:1026E0004DF22D1001F0F4F803214DF22E1001F0FF
:1026F000EFF810214DF22F1001F0EAF803214DF20E
:10270000301001F0E5F833214DF2311001F0E0F81E
:1027100003214DF2321001F0DBF86D214DF2331040
:1027200001F0D6F800214FF4524001F0D1F83321E6
:102730004DF2012001F0CCF800214DF2022001F011
:10274000C7F834214DF2032001F0C2F800214DF208
:10275000042001F0BDF83A214DF2052001F0B8F84F
:1027600000214DF2062001F0B3F84A214DF2072076
:1027700001F0AEF800214DF2082001F0A9F85C212B
:102780004DF2092001F0A4F800214DF20A2001F0D9
:102790009FF881214DF20B2001F09AF800214DF2B3
:1027A0000C2001F095F8A6214DF20D2001F090F8D3
:1027B00000214DF20E2001F08BF8E5214DF20F20A3
:1027C00001F086F801214DF2102001F081F813216B
:1027D0004DF2112001F07CF801214DF2122001F0A0
:1027E00077F854214DF2132001F072F801214DF2D7
:1027F000142001F06DF882214DF2152001F068F8E7
:1028000001214DF2162001F063F8CA214DF2172084
:1028100001F05EF802214DF2182001F059F8002174
:102820004DF2192001F054F802214DF21A2001F066
:102830004FF801214DF21B2001F04AF802214DF220
:102840001C2001F045F834214DF21D2001F040F824
:1028500002214DF21E2001F03BF867214DF21F20AE
:1028600001F036F802214DF2202001F031F88421E8
:102870004DF2212001F02CF802214DF2222001F02E
:1028800027F8A4214DF2232001F022F802214DF275
:10289000242001F01DF8B7214DF2252001F018F891
:1028A00002214DF2262001F013F8CF214DF227200E
:1028B00001F00EF802214DF2282001F009F8DE2186
:1028C0004DF2292001F004F802214DF22A2000F0F7
:1028D000FFFFF2214DF22B2000F0FAFF02214DF212
:1028E0002C2000F0F5FFFE214DF22D2000F0F0FF2E
:1028F00003214DF22E2000F0EBFF10214DF22F208E
:1029000000F0E6FF03214DF2302000F0E1FF33211B
:102910004DF2312000F0DCFF03214DF2322000F0B7
:10292000D7FF6D214DF2332000F0D2FF00214FF48C
:10293000534000F0CDFF33214DF2013000F0C8FFCD
:1029400000214DF2023000F0C3FF34214DF203307C
:1029500000F0BEFF00214DF2043000F0B9FF3A2133
:102960004DF2053000F0B4FF00214DF2063000F0CA
:10297000AFFF4A214DF2073000F0AAFF00214DF2CF
:10298000083000F0A5FF5C214DF2093000F0A0FFF7
:1029900000214DF20A3000F09BFF81214DF20B30F7
:1029A00000F096FF00214DF20C3000F091FFA621BF
:1029B0004DF20D3000F08CFF00214DF20E3000F092
:1029C00087FFE5214DF20F3000F082FF01214DF22B
:1029D000103000F07DFF13214DF2113000F078FF30
:1029E00001214DF2123000F073FF54214DF21330EB
:1029F00000F06EFF01214DF2143000F069FF8221DA
:102A00004DF2153000F064FF01214DF2163000F058
:102A10005FFFCA214DF2173000F05AFF02214DF23C
:102A2000183000F055FF00214DF2193000F050FF32
:102A300002214DF21A3000F04BFF01214DF21B3004
:102A400000F046FF02214DF21C3000F041FF34211E
:102A50004DF21D3000F03CFF02214DF21E3000F01F
:102A600037FF67214DF21F3000F032FF02214DF297
:102A7000203000F02DFF84214DF2213000F028FF9E
:102A800002214DF2223000F023FFA4214DF2233029
:102A900000F01EFF02214DF2243000F019FFB72193
:102AA0004DF2253000F014FF02214DF2263000F0E7
:102AB0000FFFCF214DF2273000F00AFF02214DF227
:102AC000283000F005FFDE214DF2293000F000FF34
:102AD00002214DF22A3000F0FBFEF2214DF22B30A4
:102AE00000F0F6FE02214DF22C3000F0F1FEFE2146
:102AF0004DF22D3000F0ECFE03214DF22E3000F0AF
:102B0000E7FE10214DF22F3000F0E2FE03214DF2DE
:102B1000303000F0DDFE33214DF2313000F0D8FED0
:102B200003214DF2323000F0D3FE6D214DF23330EF
:102B300000F0CEFE00214FF4544000F0C9FE3321D6
:102B40004DF2014000E07FE300F0C2FE00214DF2B3
:102B5000024000F0BDFE34214DF2034000F0B8FE0B
:102B600000214DF2044000F0B3FE3A214DF2054041
:102B700000F0AEFE00214DF2064000F0A9FE4A2111
:102B80004DF2074000F0A4FE00214DF2084000F095
:102B90009FFE5C214DF2094000F09AFE00214DF2AB
:102BA0000A4000F095FE81214DF20B4000F090FEAE
:102BB00000214DF20C4000F08BFEA6214DF20D409D
:102BC00000F086FE00214DF20E4000F081FEE5216E
:102BD0004DF20F4000F07CFE01214DF2104000F05C
:102BE00077FE13214DF2114000F072FE01214DF2EB
:102BF000124000F06DFE54214DF2134000F068FECB
:102C000001214DF2144000F063FE82214DF2154087
:102C100000F05EFE01214DF2164000F059FECA217F
:102C20004DF2174000F054FE02214DF2184000F022
:102C30004FFE00214DF2194000F04AFE02214DF2F4
:102C40001A4000F045FE00E001E301214DF21B4077
:102C500000F03EFE02214DF21C4000F039FE34210E
:102C60004DF21D4000F034FE02214DF21E4000F0F6
:102C70002FFE67214DF21F4000F02AFE02214DF287
:102C8000204000F025FE84214DF2214000F020FE7E
:102C900002214DF2224000F01BFEA4214DF2234000
:102CA00000F016FE02214DF2244000F011FEB72183
:102CB0004DF2254000F00CFE02214DF2264000F0BE
:102CC00007FECF214DF2274000F002FE02214DF217
:102CD000284000F0FDFDDE214DF2294000F0F8FD16
:102CE00002214DF22A4000F0F3FDF2214DF22B407B
:102CF00000F0EEFD02214DF22C4000F0E9FDFE2136
:102D00004DF22D4000F0E4FD03214DF22E4000F085
:102D1000DFFD10214DF22F4000F0DAFD03214DF2CE
:102D2000304000F0D5FD33214DF2314000F0D0FDB0
:102D300003214DF2324000F0CBFD6D214DF23340C6
:102D400000F0C6FD00214FF4554000F0C1FD3321D5
:102D50004DF2015000F0BCFD00214DF2025000F098
:102D6000B7FD34214DF2035000F0B2FD00214DF2C9
:102D7000045000F0ADFD3A214DF2055000F0A8FDE1
:102D800000214DF2065000F0A3FD4A214DF20750FC
:102D900000F09EFD00214DF2085000F099FD5C21ED
:102DA0004DF2095000F094FD00214DF20A5000F060
:102DB0008FFD81214DF20B5000F08AFD00214DF274
:102DC0000C5000F085FDA6214DF20D5000F080FD65
:102DD00000214DF20E5000F07BFDE5214DF20F5029
:102DE00000F076FD01214DF2105000F071FD13212D
:102DF0004DF2115000F06CFD01214DF2125000F027
:102E000067FD54214DF2135000F062FD01214DF297
:102E1000145000F05DFD82214DF2155000F058FD78
:102E200001214DF2165000F053FDCA214DF217500A
:102E300000F04EFD02214DF2185000F049FD002136
:102E40004DF2195000F044FD02214DF21A5000F0ED
:102E50003FFD01214DF21B5000F03AFD02214DF2E1
:102E60001C5000F035FD34214DF21D5000F030FDB6
:102E700002214DF21E5000F02BFD67214DF21F5034
:102E800000F026FD02214DF2205000F021FD8421AA
:102E90004DF2215000F01CFD02214DF2225000F0B5
:102EA00017FDA4214DF2235000F012FD02214DF236
:102EB000245000F00DFDB7214DF2255000F008FD23
:102EC00002214DF2265000F003FDCF214DF2275094
:102ED00000F0FEFC02214DF2285000F0F9FCDE214A
:102EE0004DF2295000F0F4FC02214DF22A5000F07E
:102EF000EFFCF2214DF22B5000F0EAFC02214DF2E2
:102F00002C5000F0E5FCFE214DF22D5000F0E0FCCD
:102F100003214DF22E5000F0DBFC10214DF22F501A
:102F200000F0D6FC03214DF2305000F0D1FC3321EB
:102F30004DF2315000F0CCFC03214DF2325000F044
:102F4000C7FC6D214DF2335000F0C2FC00214FF45C
:102F5000564000F0BDFC33214DF2016000F0B8FC9A
:102F600000214DF2026000F0B3FC34214DF2036009
:102F700000F0AEFC00214DF2046000F0A9FC3A2103
:102F80004DF2056000F0A4FC00214DF2066000F057
:102F90009FFC4A214DF2076000F09AFC00214DF29F
:102FA000086000F095FC5C214DF2096000F090FC97
:102FB00000214DF20A6000F08BFC81214DF20B6084
:102FC00000F086FC00214DF20C6000F081FCA6218F
:102FD0004DF20D6000F07CFC00214DF20E6000F01F
:102FE00077FCE5214DF20F6000F072FC01214DF2FB
:102FF000106000F06DFC13214DF2116000F068FCD0
:1030000001214DF2126000F063FC54214DF2136077
:1030100000F05EFC01214DF2146000F059FC8221A9
:103020004DF2156000F054FC01214DF2166000F0E5
:103030004FFCCA214DF2176000F04AFC02214DF20C
:10304000186000F045FC00214DF2196000F040FCD2
:1030500002214DF21A6000F03BFC01214DF21B6091
:1030600000F036FC02214DF21C6000F031FC3421EE
:103070004DF21D6000F02CFC02214DF21E6000F0AC
:1030800027FC67214DF21F6000F022FC02214DF267
:10309000206000F01DFC84214DF2216000F018FC3E
:1030A00002214DF2226000F013FCA4214DF22360B6
:1030B00000F00EFC02214DF2246000F009FCB72163
:1030C0004DF2256000F004FC02214DF2266000F074
:1030D000FFFBCF214DF2276000F0FAFB02214DF2F9
:1030E000286000F0F5FBDE214DF2296000F0F0FBD6
:1030F00002214DF22A6000F0EBFBF2214DF22B6031
:1031000000F0E6FB02214DF22C6000F0E1FBFE2115
:103110004DF22D6000F0DCFB03214DF22E6000F03B
:10312000D7FB10214DF22F6000F0D2FB03214DF2AE
:10313000306000F0CDFB33214DF2316000F0C8FB70
:1031400003214DF2326000F0C3FB6D214DF233607C
:1031500000F0BEFB5521184600F0BAFBAA2120461C
:1031600000F0B6FB5221284600F0B2FB08213046A1
:1031700000F0AEFB0021384600F0AAFBCC21484607
:1031800000F0A6FB00214BF2011000F0A1FB05218D
:10319000404600F09DFB70214FF4374000F098FB53
:1031A00070214BF2017000F093FB01214FF4384085
:1031B00000F08EFB03214BF6010000F089FB032198
:1031C0004BF6020000F084FB03214BF6030000F0F5
:1031D0007FFB02214FF43C4000F07AFB00214BF6CC
:1031E000014000F075FB00214BF6024000F070FB3F
:1031F000D0214FF4494000F06BFB02214CF6011046
:1032000000F066FB50214CF6021000F061FB5021EB
:103210004CF6031000F05CFB50214CF6041000F05B
:1032200057FB00214FF4545000F052FB55214FF44E
:10323000685000F04DFB4FF4885000F032FB7820CE
:1032400000F070FE4FF4245000F02BFBB9E0404535
:10325000FCD1E22000F025FB1D2000F016FB02202F
:1032600000F013FB042000F010FB642000F05AFE75
:10327000E02000F016FB012000F007FB0A2000F020
:1032800035FEE02000F00DFB032000F0FEFA0C20DC
:1032900000F02CFE012000F004FB0A2000F026FEC6
:1032A000E62000F0FEFA2F2000F0EFFAFF2000F0F9
:1032B000ECFAFF2000F0E9FAB02000F0F2FA20204A
:1032C00000F0E3FA002000F0E0FA032000F0DDFA5D
:1032D00040F21F3000F0D9FA012000F0D6FA40F297
:1032E000DF1000F0D2FA002000F0CFFAB42000F096
:1032F000D8FA042000F0C9FA40F21F4000F0C5FAE5
:10330000002000F0C2FA2E2000F0BFFA002000F0EA
:10331000BCFA002000F0B9FA002000F0B6FA002054
:1033200000F0B3FAB62000F0BCFA022000F0ADFACB
:103330004FF4037000F0A9FA002000F0A6FA17205D
:1033400000F0A3FA152000F0A0FA002000F09DFA8A
:10335000002000F09AFAF02000F0A3FA032000F019
:1033600094FA292000F09DFAD02000F09AFA00206B
:1033700000F08BFABE2000F094FA052000F085FAE8
:10338000FE2000F082FA012000F07FFA002000F019
:103390007CFA002000F079FA002000F076FAB820DC
:1033A00000F07FFA032000F070FA012000F06DFABF
:1033B000BA2000F076FA012000F067FA642000F0ED
:1033C00021F80020FDF7CEFB0449C1F8BCB25046FD
:1033D000FDF7B0FB21B0BDE8F08F00000080404257
:1033E0000346012000E05843491EC9B2FBD2704792
:1033F00008B54FF0D840B0F88000ADF80000BDF837
:10340000000008BD10B50246BE2000F04AFA0520B3
:1034100000F03BFA104602F042FE9FED0C1B53EC0D
:10342000112B02F04FFE02F00DFE80B200F02DFADB
:10343000012000F02AFAFF2000F027FA002000F017
:1034400024FABDE81040002000F01FBA66666666E8
:103450006666044070B5664C00232146A2798988CF
:1034600041F66315012A01D01AB11BE0A94202D12D
:1034700018E0A94216D1082814D2DFE800F00406AB
:10348000080A0C0E101206200CE007200AE00420A7
:1034900008E0052006E0012004E0002002E003200F
:1034A00000E00220082812D2DFE800F0110406082C
:1034B0000A0C0E1080230AE0402308E0C02306E037
:1034C000202304E0602302E0A02300E0E02345F293
:1034D0001056B14202D14FF4585000E03620A1F509
:1034E0001342413A03D0A1F5EE42893A01D143F0AB
:1034F0000803194600F0ECF9A288AA420AD09806FF
:103500002088618802D5884202D303E0884201D92D
:10351000218060806089B24240D100F0C2F9002071
:1035200000F0B3F96089401C80B200F0BAF90020C5
:1035300000F0ABF96089801C80B200F0B2F92088FD
:10354000401EC0F30F2000F0A0F96089C01C80B2BB
:1035500000F0A7F92078401EC0B200F096F9A089CB
:1035600000F09FF9002000F090F9A089401C80B283
:1035700000F097F9002000F088F9A089801C80B243
:1035800000F08FF96088401EC0F30F2000F07DF935
:10359000A089C01C80B200F084F921E000F081F91C
:1035A000002000F072F9002000F06FF92088401E22
:1035B000C0F30F2000F069F92078401EC0B200F07F
:1035C00064F9A08900F06DF9002000F05EF9002098
:1035D00000F05BF96088401EC0F30F2000F055F941
:1035E000A078BDE87040401EC0B200F04EB90000A7
:1035F000E8000020F0B53A4D0C460246060AA988BC
:103600002846270A4089A1F5C853633B16D0A1F587
:10361000AA43103B4BD000F044F9304600F035F996
:10362000D0B200F032F9A88900F03BF9384600F03A
:103630002CF9E0B2BDE8F04000F027B9A97929B330
:1036400000F02FF9304600F020F9D0B200F01DF95B
:103650002888401EC0F30F2000F017F92878401E7C
:10366000C0B200F012F9A88900F01BF9384600F04A
:103670000CF9E0B200F009F96888401EC0F30F2091
:1036800000F003F9A878401EC0B2D3E72988891A50
:10369000491E8AB200F005F9002000F0F6F800207B
:1036A00000F0F3F8100A00F0F0F8D0B2D9E700F01B
:1036B000F8F8304600F0E9F86889401C80B200F064
:1036C000F0F8D0B200F0E1F8A88900F0EAF8384646
:1036D00000F0DBF8A889401C80B200F0E2F8A8E70F
:1036E000E80000202DE9F84F82461F460C468B4625
:1036F000580700D0012000EBD700790810FB01F03B
:10370000203AC0B202F0FF090026009041E00C2FE1
:1037100010D0102F12D0182F3ED1204909EBC9002C
:1037200001EB80004FF00008855D28060AD51C4893
:1037300002880BE009EB49001A49F1E71A4901EB4D
:103740000910EFE70A9828B91548428821465046E3
:10375000FDF764FA6806050E1448641CA4B240889C
:10376000A04219D9A4EB0B00B84209D10AF101001B
:103770001FFA80FA0D485C46018851450CD906E0D5
:1037800008F1010000F0FF08B8F1080FCDD3761C56
:10379000F6B200988642BAD3BDE8F88F2E6D0008C5
:1037A00028000020CA6200083E670008E8000020E8
:1037B0002DE9F84F044600F0FF0810190D46DDE929
:1037C0000A761FFA80FA58191FFA80F94FF0000B99
:1037D00011E0544502D3E819444685B24D450FD255
:1037E0003B4629462046CDF800B0FFF77BFF04EBAF
:1037F000570084B2761C3278A2F120005E28E8D906
:10380000BDE8F88F2DE9FF4F81B08046DDF83CA080
:103810000E984FF000091F4693464C460AF00105EA
:1038200046082BE0381B401EC1B20A20FFF7D8FD26
:10383000BBFBF0F00A21B0FBF1F201FB1200B9F181
:10384000000F05D1791E8C4202DA48B14FF0010910
:103850003030C2B206FB048080B200950E9B08E0B7
:103860005FEA0A6006FB04800E9B80B200950AD5D1
:1038700030220299FFF736FF641CE4B2BC42D1D378
:1038800005B0BDE8F08F2022F3E701B5BDF80000D8
:10389000ADF80000BDF800004FF0D841A1F880005D
:1038A00008BD01B5BDF80000ADF80000BDF800008E
:1038B0004FF0D841A1F87E0008BD000003484FF04A
:1038C000D8410089A1F87E0070470000E800002080
:1038D0004FF0D84222F87E0F518070477CB501210D
:1038E000202000F059F801208DF8040000228DF806
:1038F000062003218DF80510074D4FF4C0648DF8A4
:103900000700009469462846FDF736F82146284608
:10391000FDF785F87CBD000000140240FEE770470B
:1039200030B50F23C27801780125FAB1144A126824
:1039300001F1E02102F4E062C2F5E062C2F3072285
:10394000C2F10404D3404278A24084781C4014435E
:10395000220181F80024007800F01F018D40400909
:10396000800000F1E020C0F8005130BD01F01F00E0
:1039700085404809800000F1E020C0F8805130BD4A
:103980000CED00E00249084302490860704700005E
:103990000000FA050CED00E0044A0029116801D08E
:1039A000014300E08143116070470000303802405D
:1039B000044A0029116801D0014300E081431160ED
:1039C0007047000038380240044A0029116801D0CD
:1039D000014300E08143116070470000403802401D
:1039E000044A0029116801D0014300E081431160BD
:1039F000704700004438024070B5204B1968204CD5
:103A000011F00C0104D06610042903D0082903D05A
:103A100004601BE0066019E0184A121F1168C1F328
:103A20008055116801F03F0115B1B6FBF1F101E0DD
:103A3000B4FBF1F114681268C4F388146143C2F353
:103A40000142521C5200B1FBF2F1016019680F22D1
:103A500002EA11110B4A545C0168E14041601C68A4
:103A6000072505EA9424145D21FA04F484601B6898
:103A700005EA5333D25CD140C16070BD08380240C2
:103A80000024F400380000200CB5002227490092E1
:103A90000192086840F4803008604FF4A043086841
:103AA00000F4003001900098401C0090019810B97B
:103AB00000989842F3D10868800334D50120019022
:103AC0001A484030026842F080520260184802688A
:103AD00042F4404202601548083002680260026801
:103AE00042F400420260026842F4A0520260031FE6
:103AF000104A1A600A6842F080720A600A689201ED
:103B0000FCD50D4940F205720A60016821F00301FD
:103B10000160016841F0020101600168C1F38101A7
:103B20000229FAD10CBD01920CBD00000038024000
:103B30000070004008544007003C02404FF0E02174
:103B40000428086903D020F004000861704740F0A1
:103B50000400FAE710B502F019F8012803D0BDE817
:103B6000104001F007BD10BD124810B5016841F4C6
:103B7000700101601048016841F0010101600E4AC6
:103B800000210832116002680C4B1A400260031DCC
:103B90000B4A1A60026822F48022026006480C3048
:103BA0000160FFF771FF03494FF000608039086042
:103BB00010BD000088ED00E000380240FFFFF6FE77
:103BC0001030002410B50A4C0121204600F04FF8B7
:103BD000012807D107490A684868521C40F10000D3
:103BE0000A6048602046BDE81040012100F032B86C
:103BF00000040040200000207FB50D46044601214E
:103C00000220FFF7E1FE0194ADF800500024104DB2
:103C1000ADF80240ADF808406946284600F03CF88F
:103C200001221146284600F02EF80121284600F016
:103C300014F81D208DF80C0001208DF80D008DF872
:103C40000E408DF80F0003A8FFF76AFE7FBD00004D
:103C500000040040C943018270470029018802D056
:103C600041F0010101E021F00101018070470246AD
:103C70000020138A92890B4202EA010202D0002A34
:103C800000D001207047002A828901D00A4300E059
:103C90008A4382817047000030B50288164C174D68
:103CA000A0420DD0A8420BD0B0F1804F08D0144BE9
:103CB000984205D0134B984202D0134B984203D13F
:103CC00022F070034A881A43104B984206D0104BDA
:103CD000984203D022F440730A891A4302804A684A
:103CE000C2620A880285A04201D0A84201D1897A25
:103CF00001860121818230BD0000014000040140A5
:103D00000004004000080040000C0040001000408B
:103D10000014004070B5154C40F22551204600F0CB
:103D200035F800280ED0204600F0BEF8104AC1B287
:103D30001088030406D444044FF0000306D50A2972
:103D400001D0138070BD40F400400DE00D2909D072
:103D5000C0F30D04074D401C80B229551080C728C0
:103D6000EFD870BD40F48040108070BD001001405D
:103D700032000020F60000200029818902D041F4A1
:103D8000005101E021F400518181704770B501F0CC
:103D90001F0501260024C1F3421306FA05F2012B88
:103DA0000FD0022B0FD0838A4FEA112100881342D3
:103DB00006FA01F600EA060001D000B1012420460F
:103DC00070BD8389F0E7038AEEE710B5C1F34213B3
:103DD00001F01F040121A140012B07D0022B07D0C5
:103DE0001430002A026805D00A4304E00C30F8E7DA
:103DF0001030F6E78A43026010BD00007FB504462C
:103E0000008A0D46C98820F4405001432182A089D0
:103E100041F20C618843A9882A8911436A890243C7
:103E20001143A181A08A20F44071A8890843A0828F
:103E30006846FFF7E1FD1A48844202D019488442DF
:103E400001D1039800E00298A189090400EBC001A8
:103E500001EB0010296801D5490000E08900B0FBA2
:103E6000F1F06422B0FBF2F109010B096FF01805C3
:103E70006B4300EB8300A3891D044FF0320306D58A
:103E800003EBC000B0FBF2F000F0070005E003EB2D
:103E90000010B0FBF2F000F00F00084320817FBD5E
:103EA00000100140001401408088C0F308007047F2
:103EB000FEE7704710B504460420FFF73FFE0A48AE
:103EC0004FF47A71047014FB01F1012242804FF02B
:103ED000E020026942F0020202614161016941F0A1
:103EE0000101016110BD00002E00002070B50446E4
:103EF00001F04CFE01280CD0094D6888844203D3A0
:103F0000B4FBF0F001F0A4F86888B4FBF0F100FB1A
:103F100011444FF47A706043BDE8704000F002B87D
:103F20002E00002070B54FF0E02500216C69094A91
:103F3000AB6912785043AA699A42FCD002D2A3EB33
:103F4000020302E0A4EB0206334419441346814203
:103F5000F1D370BD2E00002003490A885206FCD51B
:103F6000C2B28A8070470000001001407CB54FF457
:103F70004070FFF707FDA820FFF79CFF4FF4E130EA
:103F800000F086FEFFF7AAFCFCF74CFDFCF7AEFE46
:103F9000002000F03FF9374D4FF47840102428807E
:103FA00035A0CDE900402346C8220A211E20FFF794
:103FB000FFFB36A0CDE900401E211023C822084691
:103FC000FFF7F6FB36A0CDE900401023C8223221CE
:103FD0001E20FFF7EDFB35A0CDE900401023C822DD
:103FE00046211E20FFF7E4FB36A0CDE90040102358
:103FF000C8225A211E20FFF7DBFB36A0CDE9004086
:104000001023C8226E211E20FFF7D2FB35A0CDE978
:1040100000401023C82282211E20FFF7C9FB34A0D4
:10402000CDE900401023C822AA211E20FFF7C0FBC3
:1040300035A0CDE900401023C822BE211E20FFF785
:10404000B7FB37A0CDE900401023C822D2211E20A3
:10405000FFF7AEFB1F20288035490120CDE9000184
:104060000023802233A1364801F064FD01F050F9AD
:1040700000207CBD2800002041544B2053544D3378
:1040800032463130332F34303700000046726565D8
:1040900052544F53204578616D702032302D3100DD
:1040A0004D656D204D616E61676500004B45595F40
:1040B00055503A4D616C6C6F632C4B4559313A4603
:1040C000726565004B4559303A557365204D656DF5
:1040D0000000000041544F4D40414C49454E54456D
:1040E0004B000000323031362F31312F3134000097
:1040F000546F74616C204D656D3A20202020202083
:1041000042797465730000004672656520204D6534
:104110006D3A202020202020427974657300000031
:104120004D6573736167653A202020200000000010
:104130000000002073746172745F7461736B00001F
:10414000514C00081CB500274FF01008CDE900873E
:1041500005231A03AA216E20FFF754FBB9464746F0
:104160000020FCF781FC012812D002280AD0042884
:104170001ED11E2000F0C0FC0446014619A0FCF729
:10418000DBF815E014B1204600F08AFE00240FE0B1
:1041900074B1761CF6B2324619A12046FCF7D8F865
:1041A000CDE900741023C822D2215E20FFF700FB66
:1041B00001F050F9CDE9007902460523BE216E20B9
:1041C000FFF720FB6D1CEDB2322D06D11048002503
:1041D000D0F8A412C943C0F8A4120A2000F038FF96
:1041E000BEE70000C9EAC7EBB5BDB5C4C4DAB4E6A2
:1041F000B5D8D6B7CEAA3A2523780D0A000000001C
:10420000557365722025642054696D657300000044
:104210000080424270B504460B480C4E002150F815
:10422000240006EB84054200686900F02DF806487A
:104230000021183050F82420A86800F025F801204B
:10424000311981F8200070BD8C7A000848000020E8
:1042500010B50B4B0B4C002253F82030114604EBE9
:10426000800005E0446934F8114004B1521C491C37
:104270008B42F7D864204243B2FBF3F0C0B210BDCA
:104280008C7A00084800002001E000F8011B521E53
:10429000FBD270472DE9F041184E0F460446F568F1
:1042A0003068001D00F04AFD38B9306890F82C10D5
:1042B00001208840316981433161601C07D137B1E9
:1042C0003168BDE8F0410E48091D00F06FBD30684F
:1042D0002C44AC424460316805D2306CBDE8F041FA
:1042E000091D00F04BBDF06B091D00F047FDB06AE1
:1042F000844200D2B462BDE8F08100006C0000206E
:10430000D00301202DE9F041054600F05BFD2D4E64
:10431000B068401CB06030682B4F10B1706930B38A
:104320002BE03560B068012827D1002404EB84001D
:1043300007EB800000F014FD641C202CF6D323480A
:1043400000F00EFD2148143000F00AFD1F4828300F
:1043500000F006FD1D483C3000F002FD1B485030C7
:1043600000F0FEFC1948F0631430306405E030685A
:10437000E96AC06A884200D83560706A0121401C31
:104380007062A864E86A326981401143316100EBD0
:10439000800007EB8000291D00F008FD00F04EFDB5
:1043A000706900280CD03068E96AC06A884207D278
:1043B00007494FF080500860BFF34F8FBFF36F8FF6
:1043C000BDE8F0816C000020000101208003012085
:1043D00004ED00E010B500F0F5FC0E4C2068A0B92B
:1043E0000D4800F0BDFC0C48143000F0B9FC0A4840
:1043F000E0601430206100221021052001F0D0F887
:10440000206010B105A100F0EFFDBDE8104000F004
:1044100015BD0000B0000020E4030120546D72516E
:104420000000000070B5124E124D1CE000F0BCFF01
:10443000306820B1002401F0D7FCA4B901E00124C8
:10444000F9E700F0BFFCF068C468201D00F076FCBE
:10445000A868401EA8606868401E686000F0EEFC16
:10446000204600F052F868680028DFD170BD0000D7
:10447000BC0301206C00002030B4026C0B46002A03
:104480000BD0C1681144C1604468A14201D30168E6
:10449000C16030BC1846FCF74BB830BC70472DE902
:1044A000F041856B174604460026026C82B1C7B105
:1044B000E068FCF73DF8E168206C091AE1602268C9
:1044C000914202D26168081AE060022F16D017E00C
:1044D0002068A8B9606801F0E1FB06460020606032
:1044E0000EE0A068FCF724F8216CA0680844A060E6
:1044F0006168884204D32068A06001E005B16D1EA8
:104500006D1CA5633046BDE8F08110B50446006B14
:1045100000F0C6FC2046BDE8104000F0C1BC000021
:1045200010484FF4A041420706D0C01D0D4920F0AD
:104530000700411AC1F5A0410B4A00230144C2E91A
:1045400000030839103A21F0070111604B600B603D
:104550000B1AC0E9001393604FF000405360D06025
:10456000704700000C040120E0000020074E4FF0CF
:104570008054074DFFF756FF30680128FAD92C60A8
:10458000BFF34F8FBFF36F8FF4E7000000010120EE
:1045900004ED00E02DE9F047DDE909840E461746F9
:1045A000824691009946089DA522206BFCF705F8EC
:1045B0006FF00301206B01EB8701084420F007072F
:1045C000780705D040F22B3219A11EA0FBF7B4FEEC
:1045D00000202218315C82F83410315C11B1401C8B
:1045E0001428F6D3002684F84760202D00D31F2519
:1045F000E562C4E91456201D00F0BDFB04F118006B
:1046000000F0B9FB2461C5F120006462A061A665D9
:10461000E66584F860604A465146384600F002FB81
:104620002060B8F1000F01D0C8F80040BDE8F08765
:104630002E2E5C4672656552544F535C7461736BE9
:10464000732E63004572726F723A25732C25640DC8
:104650000A00000030B5114900E011460A688242A4
:10466000FBD34B685C18844203D14068184448600F
:10467000084643681C18944209D1084C103C246831
:10468000A24209D052681A4442600A681268026065
:10469000814200D0086030BD0460F9E7E0000020EE
:1046A00070B5002441600B4D0061914206D8D11ACB
:1046B0008269914206D2011D286907E09A4203D21D
:1046C000994201D3012403E0011DE86800F056FB84
:1046D000204670BDB000002010B5044600F072FB0B
:1046E000A06B20B1002400F0A9FB204610BD0124DE
:1046F000F9E700002DE9F34100980F460026846C8D
:104700002CB940F6CE1216A11AA0FBF715FEA06B2D
:10471000E16B884205D340F6CF1211A115A0FBF73B
:104720000BFEA06BE16B88420CD294F945503A46DF
:1047300069462046FFF7B3FE0646681C05D06D1C8F
:1047400084F845503046BDE8FC81606A0028F9D005
:1047500004F1240001F0FCFA0028F3D00126F1E76F
:104760002E2E5C4672656552544F535C71756575AB
:10477000652E63004572726F723A25732C25640DA5
:104780000A000000F8B5054614480E46C068C06827
:10479000C468201D00F0D2FAE069012817D1A06991
:1047A0002B46411932462046FFF77AFF78B10020A8
:1047B0000346014600902A46204601F0FBFB30B933
:1047C00007494FF4027201F11800FBF7B5FD616A69
:1047D00001B02046BDE8F04008470000B0000020CE
:1047E000185F000870B586B02F4E53E0019800287E
:1047F00006DADDE90301029A90470198002849DBB7
:10480000039C606910B1201D00F098FA05A800F023
:10481000A7F8054601980A283CD2DFE800F0050514
:10482000053B273805053B270298A169034601444B
:104830002A462046FFF734FF00282BD0616A204625
:104840008847E069012825D1002000900298A169DD
:10485000002342181946204601F0ACFBD0B940F2C3
:10486000213212A117A0FBF767FD13E00298A061A7
:1048700028B94FF44E720DA112A0FBF75DFDA0699F
:104880002B4641191A462046FFF70AFF02E0204650
:1048900000F006FB00231A4601A9306800F0BCFEB8
:1048A0000028A3D106B070BDB00000202E2E5C46BB
:1048B00072656552544F535C74696D6572732E63F3
:1048C000000000004572726F723A25732C25640D4A
:1048D0000A000000F8B50D46064600F065FD684682
:1048E00000F03EF80446009810B101F07DFAF8BDE2
:1048F0001148ADB101690968D9B10025311B2A46BB
:10490000006800F083FB01F06FFA0028EFD10B493B
:104910004FF080500860BFF34F8FBFF36F8FF8BD2B
:10492000A642EBD801F060FA21463046FFF72AFF95
:10493000F8BD0125E2E70000B000002004ED00E032
:104940000648C16B096829B1C16BC968C968496863
:10495000816270474FF0FF31FAE700006C000020E1
:1049600070B5054601F020F9064E0446B068844251
:1049700003D200F009F8012000E000202860204662
:10498000B46070BDB0000020F8B5184E26E0C068D5
:10499000C4680568201D00F0D1F9616A2046884787
:1049A000E06901281AD1A0692844A84206D92461E7
:1049B0006060211DF06800F0E1F90FE0002003467F
:1049C000014600902A46204601F0F4FA30B9084921
:1049D00040F2923201F11800FBF7AEFCF06801687A
:1049E0000029D4D13169C6E90310F8BDB000002018
:1049F000185F000808484068401C05D040F20F12BC
:104A000006A111A0FBF798FC502080F31188BFF39A
:104A10004F8FBFF36F8FFEE7C40000202E2E5C4641
:104A200072656552544F535C706F727461626C654D
:104A30005C525644535C41524D5F434D34465C706A
:104A40006F72742E630000004572726F723A2573A4
:104A50002C25640D0A000000084CE068016839B19B
:104A6000002139B10020FFF735FFFFF7BBFEF4E767
:104A70000121F6E7C0680068F5E70000B0000020FB
:104A80002DE9F041044600F09DF994F9455004F1F8
:104A9000240610E0A06C20B100212046FFF72AFE7A
:104AA00004E0606A48B1304601F052F908B100F004
:104AB0006BFB6D1E6DB2002DECDC4FF0FF3684F801
:104AC000456000F0BBF900F07DF994F9445004F121
:104AD000100709E0206948B1384601F039F908B1FA
:104AE00000F052FB6D1E6DB2002DF3DC84F84460C3
:104AF000BDE8F04100F0A2B92DE9F04105460026DD
:104B000000F052FC324F386808B9FFF709FDF86829
:104B100005424FD1002D4DD0083568070BD005F068
:104B20000700C0F108000544680704D0BF2229A18E
:104B300032A0FBF701FC002D3CD07868854239D8C3
:104B4000234910310846046801E0214604466068A4
:104B5000A84202D220680028F7D13868B8468442BB
:104B600028D00E682068086060680836401B10284E
:104B70000ED96719780704D0EC2216A11FA0FBF705
:104B8000DBFB6068401B786038466560FFF762FDBC
:104B90006168D8F804004246401AC8F80400D8F802
:104BA0000830984200D29060D8F80C0001430020F1
:104BB000C4E9000101F018F9700705D04FF49672AE
:104BC00004A10EA0FBF7B8FB3046BDE8F081000061
:104BD000D00000202E2E5C4672656552544F535C07
:104BE000706F727461626C655C4D656D4D616E676E
:104BF0005C686561705F342E630000004572726FFF
:104C0000723A25732C25640D0A00000004490868D7
:104C100018B10868426D521C426508687047000070
:104C20006C00002010B5031F4FF080741C601B1F28
:104C300021F001011960191F044B0B6014390A603F
:104C4000091F6FF0020244380A6010BDF5490008E0
:104C50001CB500F0B7F809490220CDE90001002396
:104C6000802207A1094800F065FF0448001F006882
:104C700000F024FABDE81C4000F0E0B80400002079
:104C80006D616C6C6F635F7461736B00454100080C
:104C9000F0B50746012187B00846FEF77DFE0121E9
:104CA0001020FEF79DFE234E072209213046FBF718
:104CB0009FFE07220A213046FBF79AFE4FF4C060A0
:104CC000049002208DF814008DF8150000248DF852
:104CD000164001258DF8175004A93046FBF74CFE0D
:104CE000ADF808400C20144EADF80440ADF80A00B1
:104CF0000097ADF80640ADF80C4069463046FFF726
:104D00007DF801213046FFF737F8012240F22551A6
:104D10003046FFF75AF825208DF8180007208DF847
:104D200019008DF81A408DF81B5006A8FEF7F8FD03
:104D300007B0F0BD0000024000100140D0E9013290
:104D400001699A60D0E901235A604A68824201D120
:104D500082684A60002202610868401E086070474D
:104D600000F108014FF0FF32C0E90112C16001619A
:104D700000210160704700210161704730B50C6867
:104D8000621C02D000F1080202E0026904E01A4647
:104D900053681D68A542FAD953684B6099608A60D0
:104DA000516008610168491C016030BD42684A6079
:104DB00093688B6093685960916008610168491C31
:104DC00001607047502080F31188BFF34F8FBFF30D
:104DD0006F8F09494868401C486001280AD107487C
:104DE000006810F0FF0F05D040F2B91204A10FA027
:104DF000FBF7A2BA70470000C400002004ED00E0F9
:104E00002E2E5C4672656552544F535C706F7274FF
:104E100061626C655C525644535C41524D5F434D38
:104E200034465C706F72742E630000004572726FBE
:104E3000723A25732C25640D0A00000010B5084C49
:104E4000606828B94FF4E07206A111A0FBF774FA6C
:104E50006068401E606001D180F3118810BD0000C1
:104E6000C40000202E2E5C4672656552544F535C80
:104E7000706F727461626C655C525644535C41524F
:104E80004D5F434D34465C706F72742E63000000BA
:104E90004572726F723A25732C25640D0A0000006A
:104EA00070B500282AD0164DA0F108046068E968A2
:104EB000084205D14FF4A07212A11CA0FBF73CFAE6
:104EC000206828B140F241120EA118A0FBF734FA75
:104ED0006068E968084211D02268002A0ED1884330
:104EE000606000F061FA60686968084468602046A4
:104EF000FFF7B0FBBDE8704000F076BF70BD00006A
:104F0000D00000202E2E5C4672656552544F535CD3
:104F1000706F727461626C655C4D656D4D616E673A
:104F20005C686561705F342E630000004572726FCB
:104F3000723A25732C25640D0A00000006484FF4D0
:104F40007A710068B0FBF1F14FF0E020491E416139
:104F500007210161704700000800002010B5FBF731
:104F6000C5F9104C10280CD300F1E02090F8F003A4
:104F70002178884205D24FF440720BA115A0FBF7AF
:104F8000DBF918480068A16800F4E060884207D99E
:104F9000BDE810404FF4447203A10EA0FBF7CCB95A
:104FA00010BD0000C40000202E2E5C4672656552C4
:104FB000544F535C706F727461626C655C525644FE
:104FC000535C41524D5F434D34465C706F72742E9A
:104FD000630000004572726F723A25732C25640DD0
:104FE0000A0000000CED00E010B5074B002253F85A
:104FF00032401CB1521C082AF9D310BD43F83210BC
:1050000003EBC201486010BDC000012070B5154619
:105010000E460446FFF7D6FE94F944100020491CC2
:1050200001D184F8440094F94510491C01D184F859
:105030004500FFF703FFA06B28B92A46314604F16B
:10504000240000F0D1F82046BDE87040FFF718BDFD
:1050500010B5040012D00E49096B29B140F2CF42BD
:105060000CA111A0FBF768F900F09EF90021204681
:10507000FFF710F900F0B8FE002807D10E494FF0F5
:1050800080500860BFF34F8FBFF36F8F10BD0000DB
:105090006C0000202E2E5C4672656552544F535CA6
:1050A0007461736B732E63004572726F723A25736D
:1050B0002C25640D0A00000004ED00E070B50446E4
:1050C000FFF780FE234D04B92C68201DFFF736FE44
:1050D00058B9E06A204A00EB800152F8211021B94A
:1050E00001218140286988432861A06A18B104F130
:1050F0001800FFF723FE686A401C68622868844233
:1051000007D1211D1548FFF751FE6868401C6860F3
:1051100007E0A868401EA8602046FFF7F6F9FFF7F1
:105120000FFCFFF78BFE6869002812D028688442C4
:105130000FD1286B28B140F2654209A10DA0FBF701
:10514000FBF810494FF080500860BFF34F8FBFF35A
:105150006F8F70BD6C00002000010120BC03012096
:105160002E2E5C4672656552544F535C7461736BAE
:10517000732E63004572726F723A25732C25640D8D
:105180000A00000004ED00E001490120C8617047F9
:105190006C00002070B50D46040005D140F60632C3
:1051A00007A10CA0FBF7C8F80E480168204618318B
:1051B000FFF7E4FD2846BDE870400121FFF76AB81B
:1051C0002E2E5C4672656552544F535C7461736B4E
:1051D000732E63004572726F723A25732C25640D2D
:1051E0000A0000006C00002070B514460E46050051
:1051F00005D140F6313209A10DA0FBF79DF810480A
:10520000016828461831FFF7D1FD0CB14FF0FF3689
:1052100021463046BDE87040FFF73CB82E2E5C4674
:1052200072656552544F535C7461736B732E6300E7
:105230004572726F723A25732C25640D0A000000C6
:105240006C00002070B5040039D01D4DE06A29685B
:10525000C96A884233D2A069002804DB2868C06A82
:10526000C0F12000A061E06A164E00EB8000616989
:1052700006EB800081421FD1201DFFF75FFD012159
:1052800050B9E06A00EB800256F8222022B92A6960
:1052900001FA00F082432A612868C06AE0622A6944
:1052A00081401143296100EB800006EB8000211D45
:1052B000BDE87040FFF77ABD2868C06AE06270BD43
:1052C0006C0000200001012010B5040005D140F65B
:1052D000C13205A109A0FBF72FF80C48016A216033
:1052E000C068606010BD00002E2E5C46726565527D
:1052F000544F535C7461736B732E63004572726F0D
:10530000723A25732C25640D0A0000006C00002001
:105310001CB518480024CDE900402346822216A17E
:10532000174800F007FC012803D100F009FE01280E
:105330000AD0401C1DD102B040F28472BDE810407A
:1053400010A115A0FAF7F8BF502080F31188BFF321
:105350004F8FBFF36F8F07484FF0FF312C388162BA
:1053600001214161C460FBF787FABDE81C4000F0F1
:1053700077B81CBD9800002049444C45000000004F
:105380006D4500082E2E5C4672656552544F535C85
:105390007461736B732E63004572726F723A25737A
:1053A0002C25640D0A0000000248016B491C0163B2
:1053B000704700006C00002070B51A4C206B10B1D3
:1053C0000120E06170BD0020E0611749086849686C
:1053D000A063626B904204D92168821A8B6D1A44D3
:1053E0008A6560632069114EB0FA80F0C0F11F0039
:1053F00000EB800556F8250028B940F6F6220CA1EE
:1054000010A0FAF799FF06EB850000F10802416849
:1054100049684160914201D149684160C868206093
:1054200070BD00006C000020200000200001012061
:105430002E2E5C4672656552544F535C7461736BDB
:10544000732E63004572726F723A25732C25640DBA
:105450000A0000000148406870470000D0000020AA
:105460001CB5304C20683049884205D140F25912B1
:105470002EA139A0FAF760FF20682B49491E884207
:1054800005D14FF4AD7229A133A0FAF755FF364C80
:1054900020780190FF20207020788DF800009DF882
:1054A00000009DF8001000F0F000884205D040F2A6
:1054B00073121EA128A0FAF73FFF9DF800002B4AA7
:1054C00000F0500010700720906007E09068401EC8
:1054D00090609DF8000040008DF800009DF80000ED
:1054E0000006F3D4107A000200F4E06090600198A6
:1054F00020700C482030016841F47001016001689F
:1055000041F070410160FFF719FD00205060FAF78B
:10551000B5FE1748016841F040410160FAF79EFE70
:1055200000201CBD00ED00E071C20F412E2E5C4634
:1055300072656552544F535C706F727461626C6532
:105540005C525644535C41524D5F434D34465C704F
:105550006F72742E630000004572726F723A257389
:105560002C25640D0A00000000E400E0C4000020C7
:1055700034EF00E010B5502080F31188BFF34F8F57
:10558000BFF36F8F00F016FB18B104494FF0805045
:105590000860002080F3118810BD000004ED00E0D9
:1055A0002DE9F04117460E46050005D14FF4C472AF
:1055B00010A115A0FAF7C0FEBEB105FB06F05430ED
:1055C000FFF79AFA04000ED004F154007EB1206077
:1055D000C4E90F562046012100F0E0F884F850702D
:1055E00000212046A164BDE8F0810020E7E72460A7
:1055F000EEE700002E2E5C4672656552544F535CF8
:1056000071756575652E63004572726F723A257308
:105610002C25640D0A0000002DE9FF4F83B09B4646
:105620008A4604004FF0000605D140F2DC4251A149
:1056300055A0FAF781FEBAF1000F07D1206C28B10E
:1056400040F2DD424BA150A0FAF776FE00F09EFA40
:1056500038B9059828B14FF49C6246A14AA0FAF7E0
:105660006BFE4FF000094FF08057DFF82C81FFF7F9
:10567000A9FBA56B45B351462046E668FEF7FCFE44
:10568000BBF1000F13D0E660606A50B104F1240052
:1056900000F05EFB28B1C8F80070BFF34F8FBFF376
:1056A0006F8FFFF7CBFB012007B0BDE8F08F6D1EB9
:1056B000A563206810B9FFF7A9FA60602069002887
:1056C000EFD004F11000E3E7059808B11EB106E041
:1056D000FFF7B4FB27E06846FFF7F6FD0126FFF76A
:1056E000ADFBFFF761FEFFF76DFB94F94400401C32
:1056F00001D184F8449094F94500401C01D184F80C
:105700004590FFF79BFB05A9684600F0CFF90028FC
:1057100020460AD0FFF7B4F900F066FB2046FEF7FA
:10572000DBFF0028A3D00020BEE7FEF7D5FFD8B1ED
:10573000206830B9FFF746FB6068FFF783FDFFF78D
:105740007DFB04F124000599FFF724FD2046FFF7B7
:1057500097F900F049FB002889D1C8F80070BFF321
:105760004F8FBFF36F8F82E72046FFF789F900F074
:105770003BFB7CE72E2E5C4672656552544F535CB2
:1057800071756575652E63004572726F723A257387
:105790002C25640D0A00000004ED00E070B50D46F4
:1057A000040005D140F21B121CA121A0FAF7C4FD90
:1057B000FFF708FBD4E90F20216802FB00116160AC
:1057C0000021A1632168A1600A46D4E90F01401EAF
:1057D00000FB0121E16021464FF0FF3001F8440F4A
:1057E000487004F110004DB1FFF7BAFA04F124003B
:1057F000FFF7B6FAFFF722FB012070BD21690029EF
:10580000F8D000F0A5FA0028F4D00D494FF08050F0
:105810000860BFF34F8FBFF36F8FEBE72E2E5C4610
:1058200072656552544F535C71756575652E6300E2
:105830004572726F723A25732C25640D0A000000C0
:1058400004ED00E02DE9FF4F83B099468B4604003C
:105850004FF0000605D140F2D92252A156A0FAF726
:105860006BFDBBF1000F07D1206C28B140F2DA22AA
:105870004CA151A0FAF760FDB9F1020F08D1E06B1D
:10588000012805D040F2DB2246A14BA0FAF754FDD7
:1058900000F07CF938B9059828B140F2DE2241A128
:1058A00045A0FAF749FD4FF0000A4FF08057DFF8A6
:1058B0001881FFF787FAA06BE16B884206D3B9F134
:1058C000020F03D0059800B316B325E04A465946A7
:1058D0002046FEF7E4FDA16C21B149462046FEF7C3
:1058E00009FF05E0616A19B104F1240000F030FA03
:1058F00028B1C8F80070BFF34F8FBFF36F8FFFF769
:105900009DFA012007B0BDE8F08FFFF797FA21E07C
:105910006846FFF7D9FC0126FFF790FAFFF744FD30
:10592000FFF750FA94F94400401C01D184F844A0D8
:1059300094F94500401C01D184F845A0FFF77EFA98
:1059400005A9684600F0B2F830B12046FFF798F894
:1059500000F04AFA0020D5E7FFF734FAA06BE16BBC
:10596000884201D1012500E00025FFF767FA95B1D3
:1059700004F110000599FFF70DFC2046FFF780F8B1
:1059800000F032FA002894D1C8F80070BFF34F8FAE
:10599000BFF36F8F8DE72046FFF772F800F024FA0F
:1059A00087E700002E2E5C4672656552544F535CAB
:1059B00071756575652E63004572726F723A257355
:1059C0002C25640D0A00000004ED00E02DE9F047ED
:1059D000984615468946040005D140F29F322AA117
:1059E0002EA0FAF7A9FCB9F1000F07D1206C28B15D
:1059F0004FF4687224A129A0FAF79EFCB8F1020FB7
:105A000008D1E06B012805D040F2A1321EA123A0ED
:105A1000FAF792FCFFF7A2FA5020EFF3118780F318
:105A20001188BFF34F8FBFF36F8FA06BE16B88427C
:105A300007D3B8F1020F04D0002087F31188BDE826
:105A4000F08794F94560424649462046FEF727FD17
:105A5000701C04D0761C84F845600120EDE7A06C32
:105A6000012620B141462046FEF744FE06E0606A6A
:105A70000028F2D004F1240000F06AF90028ECD0EC
:105A8000002DEAD02E60E8E72E2E5C467265655246
:105A9000544F535C71756575652E63004572726F66
:105AA000723A25732C25640D0A00000070B50D466E
:105AB000040005D140F6CB3214A119A0FAF73CFC42
:105AC0002DB940F6CC3211A115A0FAF735FCFFF73D
:105AD00079F9174AD06829684B1C0FD02368126ADD
