:020000040800F2
:1000000028EC012055620008C5040008C704000858
:10001000CB040008CF040008D3040008000000004F
:100020000000000000000000000000009502000831
:10003000D704000800000000E9020008258300083A
:100040006F6200086F6200086F6200086F6200084C
:100050006F6200086F6200086F6200086F6200083C
:100060006F6200086F6200086F6200086F6200082C
:100070006F6200086F6200086F6200086F6200081C
:100080006F6200086F6200086F6200086F6200080C
:100090006F6200086F6200086F6200086F620008FC
:1000A0006F6200086F6200086F6200086F620008EC
:1000B0006F620008216200086F6200086F6200082A
:1000C0006F6200086F6200086F6200086F620008CC
:1000D0006F620008CF8400086F6200086F6200083A
:1000E0006F6200086F6200086F6200086F620008AC
:1000F0006F6200086F6200086F6200086F6200089C
:100100006F6200086F6200086F6200086F6200088B
:100110006F6200086F6200086F6200086F6200087B
:100120006F6200086F6200086F6200086F6200086B
:100130006F6200086F6200086F6200086F6200085B
:100140006F6200086F6200086F6200086F6200084B
:100150006F6200086F6200086F6200086F6200083B
:100160006F6200086F6200086F6200086F6200082B
:100170006F6200086F6200086F6200086F6200081B
:100180006F6200086F62000800F002F800F072F879
:100190000AA090E8000C82448344AAF10107DA45E2
:1001A00001D100F067F8AFF2090EBAE80F0013F0C2
:1001B000010F18BFFB1A43F001031847382A060045
:1001C000582A06000A444FF0000C10F8013B13F0C7
:1001D000070408BF10F8014B1D1108BF10F8015BA0
:1001E000641E05D010F8016B641E01F8016BF9D193
:1001F00013F0080F1EBF10F8014BAD1C0C1B09D1EA
:100200006D1E58BF01F801CBFAD505E014F8016B5B
:1002100001F8016B6D1EF9D59142D6D370470000ED
:100220000023002400250026103A28BF78C1FBD8FF
:10023000520728BF30C148BF0B60704769290FF0D3
:10024000218664290FF01E8675290FF01B867829F8
:100250000FF05486632910F0F080732910F0F580B8
:10026000002070471FB52AF0F4F90FF088FE1FBD7B
:1002700010B510BD10F04AF91146FFF7F3FF00F07A
:10028000D0F810F068F903B4FFF7F2FF03BC08F0F0
:10029000BFF800002A4B19680868B0E8F04F80F3F7
:1002A0000988BFF36F8F4FF0000080F3118870470B
:1002B0000000000006480068006880F3088862B605
:1002C00061B6BFF34F8FBFF36F8F00DF00BF00BF7A
:1002D00008ED00E0DFF80C00016841F470010160F6
:1002E000704700BF88ED00E0EFF30980BFF36F8F28
:1002F000134B1A681EF0100F08BF20ED108A20E97A
:10030000F04F106008B44FF0500080F31188BFF335
:100310004F8FBFF36F8F09F076FD4FF0000080F331
:10032000118808BC19680868B0E8F04F1EF0100F7B
:1003300008BFB0EC108A80F30988BFF36F8F704755
:10034000D0000020EFF30580704700000B49D1F882
:1003500000C04A685CF8043B1068184442F8040B7B
:100360008C4528BFA1F1DC0C8A4228BFA1F1DC0238
:10037000C1F800C04A6020F000407047C0E501208D
:1003800001E00CF049FDFCE70BE03C48006808B9CF
:10039000012000E00020394908604FF4FA7009F0AC
:1003A00009FCF2E704E015F073FD052009F002FCFA
:1003B000F9E71CB504460121080306F0E3FD04201B
:1003C0001CF01EF814F0B2F901201BF0FFFD0BF039
:1003D000AAF82B48022100238022CDE9001029A190
:1003E000AFF23F0009F068F9294803210023802279
:1003F000CDE9001027A1AFF26F0009F05DF92848A0
:1004000004210023CA01CDE9001026A1AFF28F001C
:1004100009F052F92748006809F09CF90BF0A6F89A
:100420001CBD1CB5A82007F085FF4FF4407005F0F7
:1004300031FF4FF4E13007F0F8FF00F0E6FD05F082
:1004400039FA00F051F903F079FC002008F09BF82C
:10045000012008F098F8022008F095F815480121CD
:1004600000230A02CDE9001013A1AFF2B90009F090
:1004700023F909F04AFE00201CBD0000A48242427C
:1004800004000020746F7563685F7461736B000013
:10049000080000206C6564305F7461736B000000BD
:1004A0000C000020656D77696E64656D6F5F746127
:1004B000736B00000000002073746172745F7461DC
:1004C000736B0000704700BFFEE700BFFEE700BF90
:1004D000FEE700BFFEE770470CB5002001900090DA
:1004E0007648006840F480307449086000BF734863
:1004F000006800F4003000900198401C01900098C2
:1005000018B90198B0F5A04FF1D16C48006800F41B
:10051000003010B10120009001E000200090009810
:10052000012846D165484030006840F0805063495A
:10053000403108606248006840F44040604908600B
:100540005E48083000685D49083108600846006868
:1005500040F4004008600846006840F4A05008607D
:100560005848091F0860081F006840F08070091F84
:10057000086000BF5148006800F000700028F9D002
:1005800040F20570504908604C480830006820F07F
:1005900003004A49083108600846006840F002003C
:1005A000086000BF45480830006800F00C000828CB
:1005B000F8D10CBD10B54548006840F470004349BF
:1005C00008603E48006840F001003C490860002097
:1005D0003A4908310860394800683D4908403749C0
:1005E00008603C48091D0860081F006820F480204E
:1005F000091F0860002031490C310860FFF76CFFCB
:100600004FF0006031498039086010BD70B500209E
:100610000022022300240221284D08352D6805F010
:100620000C0020B1042806D0082834D107E02A4D58
:100630002A4E356033E02A4D284E35602FE01F4D9D
:100640002D1D2D68C5F380541C4D2D1D2D6805F002
:100650003F0154B1224DB5FBF1F5184E361D3668F9
:10066000C6F3881605FB06F209E01B4DB5FBF1F554
:10067000124E361D3668C6F3881605FB06F20F4D7E
:100680002D1D2D68C5F301456D1C6B00B2FBF3F504
:10069000124E356003E0104D104E356000BF00BFB4
:1006A000064D08352D68C5F303150E4E705D0B4DD4
:1006B0002D68C540094E356070BD0000003802400D
:1006C0000070004008544007003C024088ED00E004
:1006D000FFFFF6FE103000240024F400100000207C
:1006E00000127A00140000201CB50121202006F021
:1006F00049FC4FF4C060009001208DF804000020F8
:100700008DF806008DF8070003208DF80500694676
:10071000044806F099F94FF4C061024806F010FA57
:100720001CBD00000014024001B5BDF8000000909F
:10073000BDF80000FE49088008BD01B5BDF8000005
:100740000090BDF80000FA49891C088008BD08B572
:10075000F748801C00880090BDF8000008BDF44AEE
:1007600010804FF0D842A2F88010704710B50446B0
:100770002046FFF7D9FF052007F0F9FDFFF7E7FF57
:1007800010BDEC480089EA4908807047E849891C97
:100790000880704730B5014601F01F04C1F34513CE
:1007A000CA0AE50205EB43151544A8B230BD00BFE7
:1007B000011EA0F10102D0B2FAD1704710B5024675
:1007C0000C46DC48808841F66311884247D1D948FD
:1007D0008079A8B9D7480088401E801A82B2D549CE
:1007E0004889FFF7A1FF0020FFF7A7FF0020FFF7D0
:1007F000A4FF1012FFF7A1FFD0B2FFF79EFF16E093
:10080000CC494889FFF790FF1012FFF796FFD0B24E
:10081000FFF793FFC7490988491EC1F30F20FFF76F
:100820008CFFC4490978491EC8B2FFF786FFC14949
:100830008889FFF779FF2012FFF77FFFE0B2FFF70B
:100840007CFFBC494988491EC1F30F20FFF775FFA3
:10085000B8498978491EC8B2FFF76FFF3AE0B5483A
:10086000808845F21051884220D1B2494889FFF76B
:100870005BFF1012FFF761FFAE494989491C88B23E
:10088000FFF752FFD0B2FFF758FFAA498889FFF758
:100890004BFF2012FFF751FFA6498989491C88B2F6
:1008A000FFF742FFE0B2FFF748FF13E0A149488994
:1008B000FFF73AFF1012FFF740FFD0B2FFF73DFFFE
:1008C0009C498889FFF730FF2012FFF736FFE0B21E
:1008D000FFF733FF10BD2DE9F04105460E46002419
:1008E0000027A04693480088A84203DD914840882D
:1008F000B04202DC0020BDE8F08131462846FFF717
:100900005DFF8C48808845F21051884204D14FF435
:100910003850FFF709FF02E02E20FFF705FFFFF731
:1009200016FF04468348808841F66311884201D14E
:100930002046E0E7FFF70BFF0446FFF708FF80467D
:10094000E7B24FF6FF7000EA0727E012C002B912C3
:1009500040EA411040EAE820CDE700B575488088BC
:1009600045F21051884204D14FF42450FFF7DCFEC9
:1009700002E02920FFF7D8FE00BD00B56D48808851
:1009800045F21051884204D14FF42050FFF7CCFEBD
:1009900002E02820FFF7C8FE00BDF0B505460024A0
:1009A000002764488079012805D16248808841F693
:1009B0006311884208D15F488079F0B95D4880882A
:1009C00041F66311884218D1082D15D2DFE805F0F1
:1009D0000406080A0C0E101206250DE007250BE090
:1009E000042509E0052507E0012505E0002503E0D1
:1009F000032501E0022500BF00BF082D1CD2DFE85F
:100A000005F00406090C0F12151800BF14E044F09D
:100A1000800411E044F040040EE044F0C0040BE018
:100A200044F0200408E044F0600405E044F0A00431
:100A300002E044F0E00400BF00BF3E48808845F279
:100A40001051884202D14FF4585700E036273948F8
:100A5000808849F24131884205D03648808847F283
:100A60008971884201D144F0080421463846FFF7D5
:100A700076FE3048808841F6631188421DD004F02C
:100A8000200068B12B4800882A494988884214DA36
:100A900028480688408827490880084646800CE098
:100AA0002448008823494988884206DD2148068871
:100AB000408820490880084646801E48808845F2C4
:100AC0001051884257D11B494889FFF72DFE00205D
:100AD000FFF733FE17494989491C88B2FFF724FE06
:100AE0000020FFF72AFE13494989891C88B2FFF7C5
:100AF0001BFE10490988491EC1F30F20FFF71DFE98
:100B00000C494989C91C88B2FFF70EFE09490978CA
:100B1000491EC8B2FFF711FE06498889FFF704FE97
:100B20000020FFF70AFE03498989491C88B203E0C7
:100B30007E00006C080F0020FFF7F6FD0020FFF795
:100B4000FCFDFE498989891C88B2FFF7EDFDFB4950
:100B50004988491EC1F30F20FFF7EFFDF749898946
:100B6000C91C88B2FFF7E0FDF4498978491EC8B274
:100B7000FFF7E3FD2DE0F1494889FFF7D5FD00209F
:100B8000FFF7DBFD0020FFF7D8FDEC490988491E7F
:100B9000C1F30F20FFF7D1FDE8490978491EC8B21B
:100BA000FFF7CBFDE5498889FFF7BEFD0020FFF781
:100BB000C4FD0020FFF7C1FDE0494988491EC1F38B
:100BC0000F20FFF7BAFDDD498978491EC8B2FFF74B
:100BD000B4FDF0BD30B504460D4629462046FFF76A
:100BE000EDFDFFF7CEFDD6480088D649088030BD20
:100BF00030B504460D46D148808845F210518842F0
:100C000020D1CE494889FFF78FFD2012FFF795FDCF
:100C1000CA494989491C88B2FFF786FDE0B2FFF74F
:100C20008CFDC6498889FFF77FFD2812FFF785FDF7
:100C3000C2498989491C88B2FFF776FDE8B2FFF7FF
:100C40007CFD42E0BD48808841F66311884228D18E
:100C5000BA48807920B9B9480088401E001B84B288
:100C6000B6494889FFF760FD2012FFF766FDE0B244
:100C7000FFF763FD2012FFF760FDE0B2FFF75DFDB7
:100C8000AE498889FFF750FD2812FFF756FDE8B2FC
:100C9000FFF753FD2812FFF750FDE8B2FFF74DFDB7
:100CA00013E0A6494889FFF73FFD2012FFF745FDF5
:100CB000E0B2FFF742FDA1498889FFF735FD281210
:100CC000FFF73BFDE8B2FFF738FD9C4800899D49DE
:100CD000891E08804FF0D840A0F8802030BD70B544
:100CE0002DED048B0446BE20FFF71EFD0520FFF707
:100CF00024FD204629F0F6F841EC190B9FED920BEC
:100D000053EC102B29F03EF941EC180B29F0A6F812
:100D100085B22846FFF711FD0120FFF70EFDFF20E9
:100D2000FFF70BFD0020FFF708FD0020FFF705FD92
:100D3000BDEC048B70BD10B5044680488471002C56
:100D400045D1F0207D4908804FF4A07048800846C6
:100D5000808845F21051884210D14FF430507749C5
:100D600008814FF4285048814FF42C5088814FF46B
:100D7000F07008804FF4487048801AE06F4880880F
:100D800041F6631188420DD12C206C4908812B203B
:100D900048812A2088814FF4F07008804FF4487011
:100DA000488006E02C20654908812A2048812B20B4
:100DB00088816248808845F2103188424CD14FF4D6
:100DC000A0705E4908804FF4F070488044E04FF412
:100DD000A0705A490880F02048800846808845F273
:100DE0001051884210D14FF43050544908814FF4CB
:100DF000285048814FF42C5088814FF44870088067
:100E00004FF4F07048801AE04C48808841F6631136
:100E100088420DD12C20494908812A2048812B2065
:100E200088814FF4487008804FF4F070488006E0E5
:100E30002C20424908812A2048812B2088813F4864
:100E4000808845F21031884206D14FF4F0703B495A
:100E500008804FF4A07048800020FFF79EFD10BD71
:100E60002DE9F04104460D461E46A018401E87B2EB
:100E7000A819401E1FFA80F83048808841F6631197
:100E8000884231D12D48807901282DD02B48008807
:100E9000801A001B84B2A819401E86B227494889CF
:100EA000FFF742FC2012FFF748FCE0B2FFF745FCD9
:100EB000A118491EC1F30F20FFF73FFCA118491EDE
:100EC000C8B2FFF73AFC1D498889FFF72DFC2812AC
:100ED000FFF733FCE8B2FFF730FC3012FFF72DFCD0
:100EE000F0B2FFF72AFC79E01448808845F21051EF
:100EF000884251D111494889FFF716FC2012FFF7AB
:100F00001CFC0E494989491C88B2FFF70DFCE0B270
:100F1000FFF713FC09494989891C88B2FFF704FCD3
:100F20003812FFF70AFC05494989C91C88B2FFF746
:100F3000FBFBF8B2FFF701FC004909E0080F0020B5
:100F4000240000208000006C6666666666660440C9
:100F50008889FFF7E9FB2812FFF7EFFBFE49898933
:100F6000491C88B2FFF7E0FBE8B2FFF7E6FBFA495D
:100F70008989891C88B2FFF7D7FB4FEA2820FFF741
:100F8000DCFBF5498989C91C88B2FFF7CDFB08F065
:100F9000FF00FFF7D2FB21E0EF494889FFF7C4FBD0
:100FA0002012FFF7CAFBE0B2FFF7C7FB3812FFF7CA
:100FB000C4FBF8B2FFF7C1FBE7498889FFF7B4FB30
:100FC0002812FFF7BAFBE8B2FFF7B7FB4FEA282079
:100FD000FFF7B3FB08F0FF00FFF7AFFBBDE8F081C0
:100FE00070B504460026DC4805884088454300214A
:100FF0000846FFF7E3FBFFF7C4FB00BF02E0D7485A
:101000000480761CAE42FAD370BD00B5A1B00020BA
:10101000209001217A2005F0B5FF0121084605F056
:10102000E9FF4FF400401E9001208DF87C00002065
:101030008DF87E0002208DF87D0001208DF87F0064
:101040001EA9C74805F000FD4CF233701E90022027
:101050008DF87C0000208DF87E0003208DF87D0047
:1010600001208DF87F001EA9BE4805F0EDFC4FF66B
:1010700080701E9002208DF87C0000208DF87E008C
:1010800003208DF87D0001208DF87F001EA9B64851
:1010900005F0DAFC4FF480501E9002208DF87C00A1
:1010A00000208DF87E0003208DF87D0001208DF852
:1010B0007F001EA9AD4805F0C7FC4FF480501E907C
:1010C00002208DF87C0000208DF87E0003208DF832
:1010D0007D0001208DF87F001EA9A54805F0B4FC15
:1010E0000C2200219F4805F03AFD0C2201219D4869
:1010F00005F035FD0C2204219A4805F030FD0C2244
:101100000521984805F02BFD0C220821954805F093
:1011100026FD0C220921934805F021FD0C220A210D
:10112000904805F01CFD0C220E218E4805F017FD9D
:101130000C220F218B4805F012FD0C2207218A4852
:1011400005F00DFD0C220821874805F008FD0C2252
:101150000921854805F003FD0C220A21824805F08B
:10116000FEFC0C220B21804805F0F9FC0C221146F4
:101170007D4805F0F4FC0C220D217B4805F0EFFCC6
:101180000C220E21784805F0EAFC0C220F2176484B
:1011900005F0E5FC0C221146744805F0E0FC0C2239
:1011A0001146734805F0DBFC0F20089000200990E1
:1011B0003C200A9000200B900C900D900E9009207E
:1011C00001900020029008200390002004900590D8
:1011D0000690079006200F9000201090119010208C
:1011E00012900020139015901490169017904FF4C1
:1011F00080501890002019904FF480401A900020E1
:101200001B9008A81C9001A81D900FA805F0CDF810
:101210000121062005F054F9322007F0CAF8D32046
:10122000FFF782FAFFF793FA4B498880FFF78FFAAE
:1012300049498880FFF78BFA4749888008468088AB
:101240004FF6FF7101EA002043498880FFF77FFADB
:10125000414989880843404988800846808849F286
:101260004131884276D00420FFF75EFAFFF76FFA2B
:1012700039498880FFF76BFA37498880FFF767FAAA
:1012800035498880084680884FF6FF7101EA0020C2
:1012900031498880FFF75BFA2F49898808432E4936
:1012A00088800846808848F25251884203D147F22C
:1012B0008970294988802848808847F28971884246
:1012C00048D0D420FFF730FAFFF741FA224988804E
:1012D000FFF73DFA20498880FFF739FA1E498880D8
:1012E000084680884FF6FF7101EA00201A4988807D
:1012F000FFF72DFA1849898808431749888008465E
:10130000808845F21031884265D04FF45A40FFF78B
:101310000BFAFFF71CFA104988804FF45B40FFF787
:1013200003FAFFF714FA0C498880084680884FF6C4
:10133000FF7101EA0020084988804FF45C40FFF704
:10134000F3F9FFF704FA04498988084302498880C1
:1013500008460FE03FE00000080F00208000006C0E
:1013600000040240000C0240001002400014024041
:10137000001802408088B0F5004F02D145F21050AD
:101380008880FD48808845F21051884223D0A120F2
:10139000FFF7CAF9FFF7DBF9F7498880FFF7D7F9BC
:1013A000F5498880084680884FF6FF7101EA0020E1
:1013B000F1498880FFF7CBF9EF4989880843EE4966
:1013C00088800846808845F26171884203D141F6E1
:1013D0006310E9498880E848808849F241318842B1
:1013E00011D0E548808845F2103188420BD0E248A0
:1013F000808845F21051884205D0DF48808841F648
:10140000631188421CD1DD48006820F00F004FF0C6
:101410002041C1F81C010846D0F81C0120F470607E
:10142000C1F81C010846D0F81C0140F00300C1F8C7
:101430001C010846D0F81C0140F40070C1F81C01E2
:10144000CD488188CEA00EF09FFCCB48808849F221
:10145000413188427ED1CF20FFF766F90020FFF7A7
:101460006CF9C120FFF769F93020FFF766F9ED202C
:10147000FFF75AF96420FFF760F90320FFF75DF9E1
:101480001220FFF75AF98120FFF757F9E820FFF7FC
:101490004BF98520FFF751F91020FFF74EF97A201C
:1014A000FFF74BF9CB20FFF73FF93920FFF745F95C
:1014B0002C20FFF742F90020FFF73FF93420FFF717
:1014C0003CF90220FFF739F9F720FFF72DF920202A
:1014D000FFF733F9EA20FFF727F90020FFF72DF98E
:1014E0000020FFF72AF9C020FFF71EF91B20FFF7A5
:1014F00024F9C120FFF718F90120FFF71EF9C520D4
:10150000FFF712F93020FFF718F93020FFF715F92F
:10151000C720FFF709F9B720FFF70FF93620FFF7CB
:1015200003F94820FFF709F93A20FFF7FDF85520A5
:10153000FFF703F9B120FFF7F7F80020FFF7FDF8F8
:101540001A20FFF7FAF8B620FFF7EEF80A20FFF7A7
:10155000F4F800E097E0A220FFF7EFF8F220FFF7A1
:10156000E3F80020FFF7E9F82620FFF7DDF8012077
:10157000FFF7E3F8E020FFF7D7F80F20FFF7DDF8DB
:101580002A20FFF7DAF82820FFF7D7F80820FFF71E
:10159000D4F80E20FFF7D1F80820FFF7CEF854203A
:1015A000FFF7CBF8A920FFF7C8F84320FFF7C5F8ED
:1015B0000A20FFF7C2F80F20FFF7BFF80020FFF75F
:1015C000BCF80020FFF7B9F80020FFF7B6F80020BC
:1015D000FFF7B3F8E120FFF7A7F80020FFF7ADF819
:1015E0001520FFF7AAF81720FFF7A7F80720FFF745
:1015F000A4F81120FFF7A1F80620FFF79EF82B2092
:10160000FFF79BF85620FFF798F83C20FFF795F876
:101610000520FFF792F81020FFF78FF80F20FFF753
:101620008CF83F20FFF789F83F20FFF786F80F205E
:10163000FFF783F82B20FFF777F80020FFF77DF8FE
:101640000020FFF77AF80120FFF777F83F20FFF737
:1016500074F82A20FFF768F80020FFF76EF80020E2
:10166000FFF76BF80020FFF768F8EF20FFF765F849
:101670001120FFF759F8782006F09BFE2920FFF78C
:1016800053F802F0B2B83C48808847F2897188422A
:101690007ED11120FFF748F8782006F08AFE362028
:1016A000FFF742F80020FFF748F83A20FFF73CF830
:1016B0000520FFF742F8B220FFF736F80C20FFF7BD
:1016C0003CF80C20FFF739F80020FFF736F83320FC
:1016D000FFF733F83320FFF730F8B720FFF724F88F
:1016E0003520FFF72AF8BB20FFF71EF83220FFF75E
:1016F00024F8C020FFF718F80C20FFF71EF8C220CE
:10170000FFF712F80120FFF718F8C320FFF70CF8D5
:101710001020FFF712F8C420FFF706F82020FFF78B
:101720000CF8C620FFF700F80F20FFF706F8D020CE
:10173000FEF7FAFFA420FFF700F8A120FEF7FDFF57
:10174000E020FEF7F1FFD020FEF7F7FF0020FEF7C4
:10175000F4FF0220FEF7F1FF0720FEF7EEFF0A205C
:10176000FEF7EBFF2820FEF7E8FF3220FEF7E5FF4B
:101770004420FEF7E2FF0CE0080F00201C0100A04F
:10178000204C43442049443A25780D0A00000000CB
:1017900060E04220FEF7D1FF0620FEF7CEFF0E20CC
:1017A000FEF7CBFF1220FEF7C8FF1420FEF7C5FF9F
:1017B0001720FEF7C2FFE120FEF7B6FFD020FEF7AC
:1017C000BCFF0020FEF7B9FF0220FEF7B6FF07209E
:1017D000FEF7B3FF0A20FEF7B0FF2820FEF7ADFFAB
:1017E0003120FEF7AAFF5420FEF7A7FF4720FEF79F
:1017F000A4FF0E20FEF7A1FF1C20FEF79EFF17207E
:10180000FEF79BFF1B20FEF798FF1E20FEF795FFBB
:101810002A20FEF789FF0020FEF78FFF0020FEF749
:101820008CFF0020FEF789FFEF20FEF786FF2B20BC
:10183000FEF77AFF0020FEF780FF0020FEF77DFF15
:101840000120FEF77AFF3F20FEF777FF2920FEF701
:101850006BFF16E7FE48808845F21031884240F061
:101860007C87ED20FEF760FF0120FEF766FFFE207B
:10187000FEF763FFEE20FEF757FFDE20FEF75DFF69
:101880002120FEF75AFFF120FEF74EFF0120FEF760
:1018900054FFDF20FEF748FF1020FEF74EFFC42064
:1018A000FEF742FF8F20FEF748FFC620FEF73CFF01
:1018B0000020FEF742FFE220FEF73FFFE220FEF7A6
:1018C0003CFFE220FEF739FFBF20FEF72DFFAA20E4
:1018D000FEF733FFB020FEF727FF0D20FEF72DFFA8
:1018E0000020FEF72AFF0D20FEF727FF0020FEF75D
:1018F00024FF1120FEF721FF0020FEF71EFF192014
:10190000FEF71BFF0020FEF718FF2120FEF715FF52
:101910000020FEF712FF2D20FEF70FFF0020FEF73C
:101920000CFF3D20FEF709FF0020FEF706FF5D20BB
:10193000FEF703FF0020FEF700FF5D20FEF7FDFE2F
:101940000020FEF7FAFEB120FEF7EEFE8020FEF743
:10195000F4FE0020FEF7F1FE8B20FEF7EEFE0020E5
:10196000FEF7EBFE9620FEF7E8FE0020FEF7E5FE10
:10197000B220FEF7D9FE0020FEF7DFFE0020FEF7C2
:10198000DCFE0220FEF7D9FE0020FEF7D6FE032083
:10199000FEF7D3FE0020FEF7D0FEB320FEF7C4FE14
:1019A0000020FEF7CAFE0020FEF7C7FE0020FEF76B
:1019B000C4FE0020FEF7C1FE0020FEF7BEFE0020A0
:1019C000FEF7BBFE0020FEF7B8FE0020FEF7B5FED6
:1019D0000020FEF7B2FE0020FEF7AFFE0020FEF76B
:1019E000ACFE0020FEF7A9FE0020FEF7A6FE0020B8
:1019F000FEF7A3FE0020FEF7A0FE0020FEF79DFEEE
:101A00000020FEF79AFE0020FEF797FE0020FEF76A
:101A100094FE0020FEF791FE0020FEF78EFE0020CF
:101A2000FEF78BFE0020FEF788FE0020FEF785FE05
:101A3000B420FEF779FE8B20FEF77FFE0020FEF734
:101A40007CFE9620FEF779FE0020FEF776FEA120B0
:101A5000FEF773FE0020FEF770FEB520FEF764FE71
:101A60000220FEF76AFE0020FEF767FE0320FEF765
:101A700064FE0020FEF761FE0420FEF75EFE0020FB
:101A8000FEF75BFEB620FEF74FFE0020FEF755FE88
:101A90000020FEF752FEB720FEF746FE0020FEF7BC
:101AA0004CFE0020FEF749FE3F20FEF746FE0020D8
:101AB000FEF743FE5E20FEF740FE0020FEF73DFEEF
:101AC0006420FEF73AFE0020FEF737FE8C20FEF77A
:101AD00034FE0020FEF731FEAC20FEF72EFE002083
:101AE000FEF72BFEDC20FEF728FE0020FEF725FE89
:101AF0007020FEF722FE0020FEF71FFE9020FEF76A
:101B00001CFE0020FEF719FEEB20FEF716FE00205B
:101B1000FEF713FEDC20FEF710FE0020FEF70DFEA0
:101B2000B820FEF701FE0020FEF707FE0020FEF7BA
:101B300004FE0020FEF701FE0020FEF7FEFD00205F
:101B4000FEF7FBFD0020FEF7F8FD0020FEF7F5FD97
:101B50000020FEF7F2FDBA20FEF7E6FD2420FEF796
:101B6000ECFD0020FEF7E9FD0020FEF7E6FD002079
:101B7000FEF7E3FDC120FEF7D7FD2020FEF7DDFDD7
:101B80000020FEF7DAFD5420FEF7D7FD0020FEF717
:101B9000D4FDFF20FEF7D1FD0020FEF7CEFDC220D0
:101BA000FEF7C2FD0A20FEF7C8FD0020FEF7C5FDC6
:101BB0000420FEF7C2FD0020FEF7BFFDC320FEF7A4
:101BC000B3FD3C20FEF7B9FD0020FEF7B6FD3A203C
:101BD000FEF7B3FD0020FEF7B0FD3920FEF7ADFDA6
:101BE0000020FEF7AAFD3720FEF7A7FD0020FEF734
:101BF000A4FD3C20FEF7A1FD0020FEF79EFD36204F
:101C0000FEF79BFD0020FEF798FD3220FEF795FDC4
:101C10000020FEF792FD2F20FEF78FFD0020FEF73B
:101C20008CFD2C20FEF789FD0020FEF786FD292083
:101C3000FEF783FD0020FEF780FD2620FEF77DFDE8
:101C40000020FEF77AFD2420FEF777FD002001E05A
:101C5000080F0020FEF771FD2420FEF76EFD002026
:101C6000FEF76BFD2320FEF768FD0020FEF765FD03
:101C70003C20FEF762FD0020FEF75FFD3620FEF7F8
:101C80005CFD0020FEF759FD3220FEF756FD0020D6
:101C9000FEF753FD2F20FEF750FD0020FEF74DFD0F
:101CA0002C20FEF74AFD0020FEF747FD2920FEF715
:101CB00044FD0020FEF741FD2620FEF73EFD0020FA
:101CC000FEF73BFD2420FEF738FD0020FEF735FD32
:101CD0002420FEF732FD0020FEF72FFD2320FEF723
:101CE0002CFD0020FEF729FDC420FEF71DFD62201B
:101CF000FEF723FD0020FEF720FD0520FEF71DFD69
:101D00000020FEF71AFD8420FEF717FD0020FEF7E5
:101D100014FDF020FEF711FD0020FEF70EFD182047
:101D2000FEF70BFD0020FEF708FDA420FEF705FDE1
:101D30000020FEF702FD1820FEF7FFFC0020FEF752
:101D4000FCFC5020FEF7F9FC0020FEF7F6FC0C200E
:101D5000FEF7F3FC0020FEF7F0FC1720FEF7EDFC89
:101D60000020FEF7EAFC9520FEF7E7FC0020FEF7D6
:101D7000E4FCF320FEF7E1FC0020FEF7DEFCE620A9
:101D8000FEF7DBFC0020FEF7D8FCC520FEF7CCFCFC
:101D90003220FEF7D2FC0020FEF7CFFC4420FEF7F5
:101DA000CCFC0020FEF7C9FC6520FEF7C6FC002035
:101DB000FEF7C3FC7620FEF7C0FC0020FEF7BDFC5A
:101DC0008820FEF7BAFC0020FEF7B7FCC620FEF71D
:101DD000ABFC2020FEF7B1FC0020FEF7AEFC172084
:101DE000FEF7ABFC0020FEF7A8FC0120FEF7A5FCE7
:101DF0000020FEF7A2FCC720FEF796FC0020FEF7AD
:101E00009CFC0020FEF799FC0020FEF796FC0020C9
:101E1000FEF793FCC820FEF787FC0020FEF78DFC40
:101E20000020FEF78AFC0020FEF787FC0020FEF76A
:101E300084FCC920FEF778FC0020FEF77EFC002021
:101E4000FEF77BFC0020FEF778FC0020FEF775FC17
:101E50000020FEF772FC0020FEF76FFC0020FEF76A
:101E60006CFC0020FEF769FC0020FEF766FC0020F9
:101E7000FEF763FC0020FEF760FC0020FEF75DFC2F
:101E80000020FEF75AFC0020FEF757FC0020FEF76A
:101E900054FC0020FEF751FCE020FEF745FC162024
:101EA000FEF74BFC0020FEF748FC1C20FEF745FC2B
:101EB0000020FEF742FC2120FEF73FFC0020FEF749
:101EC0003CFC3620FEF739FC0020FEF736FC4620AD
:101ED000FEF733FC0020FEF730FC5220FEF72DFC0D
:101EE0000020FEF72AFC6420FEF727FC0020FEF706
:101EF00024FC7A20FEF721FC0020FEF71EFC8B203C
:101F0000FEF71BFC0020FEF718FC9920FEF715FCDD
:101F10000020FEF712FCA820FEF70FFC0020FEF7C1
:101F20000CFCB920FEF709FC0020FEF706FCC420DB
:101F3000FEF703FC0020FEF700FCCA20FEF7FDFBC5
:101F40000020FEF7FAFBD220FEF7F7FB0020FEF799
:101F5000F4FBD920FEF7F1FB0020FEF7EEFBE020BA
:101F6000FEF7EBFB0020FEF7E8FBF320FEF7E5FBB6
:101F70000020FEF7E2FBE120FEF7D6FB1620FEF77D
:101F8000DCFB0020FEF7D9FB1C20FEF7D6FB00206F
:101F9000FEF7D3FB2220FEF7D0FB0020FEF7CDFB9F
:101FA0003620FEF7CAFB0020FEF7C7FB4520FEF7F0
:101FB000C4FB0020FEF7C1FB5220FEF7BEFB002051
:101FC000FEF7BBFB6420FEF7B8FB0020FEF7B5FB75
:101FD0007A20FEF7B2FB0020FEF7AFFB8B20FEF766
:101FE000ACFB0020FEF7A9FB9920FEF7A6FB002022
:101FF000FEF7A3FBA820FEF7A0FB0020FEF79DFB49
:10200000B920FEF79AFB0020FEF797FBC420FEF7ED
:1020100094FB0020FEF791FBCA20FEF78EFB002008
:10202000FEF78BFBD220FEF788FB0020FEF785FB36
:10203000D820FEF782FB0020FEF77FFBE020FEF7B2
:102040007CFB0020FEF779FBF320FEF776FB0020F7
:10205000FEF773FBE220FEF767FB0520FEF76DFB42
:102060000020FEF76AFB0B20FEF767FB0020FEF75F
:1020700064FB1B20FEF761FB0020FEF75EFB3420B3
:10208000FEF75BFB0020FEF758FB4420FEF755FBF4
:102090000020FEF752FB4F20FEF74FFB0020FEF71B
:1020A0004CFB6120FEF749FB0020FEF746FB792040
:1020B000FEF743FB0020FEF740FB8820FEF73DFBC8
:1020C0000020FEF73AFB9720FEF737FB0020FEF7D3
:1020D00034FBA620FEF731FB0020FEF72EFBB720D5
:1020E000FEF72BFB0020FEF728FBC220FEF725FBA6
:1020F0000020FEF722FBC720FEF71FFB0020FEF7A3
:102100001CFBD120FEF719FB0020FEF716FBD620A2
:10211000FEF713FB0020FEF710FBDD20FEF70DFBA2
:102120000020FEF70AFBF320FEF707FB0020FEF776
:1021300004FBE320FEF7F8FA0520FEF7FEFA002084
:10214000FEF7FBFA0A20FEF7F8FA0020FEF7F5FA90
:102150001C20FEF7F2FA0020FEF7EFFA3320FEF71C
:10216000ECFA0020FEF7E9FA4420FEF7E6FA002038
:10217000FEF7E3FA5020FEF7E0FA0020FEF7DDFA62
:102180006220FEF7DAFA0020FEF7D7FA7820FEF791
:10219000D4FA0020FEF7D1FA8820FEF7CEFA00200C
:1021A000FEF7CBFA9720FEF7C8FA0020FEF7C5FA33
:1021B000A620FEF7C2FA0020FEF7BFFAB720FEF70E
:1021C000BCFA0020FEF7B9FAC220FEF7B6FA0020EA
:1021D000FEF7B3FAC720FEF7B0FA0020FEF7ADFA1B
:1021E000D120FEF7AAFA0020FEF7A7FAD520FEF7C5
:1021F000A4FA0020FEF7A1FADD20FEF79EFA0020E7
:10220000FEF79BFAF320FEF798FA0020FEF795FA06
:10221000E420FEF789FA0120FEF78FFA0020FEF78E
:102220008CFA0120FEF789FA0020FEF786FA0220D8
:10223000FEF783FA0020FEF780FA2A20FEF77DFAE7
:102240000020FEF77AFA3C20FEF777FA0020FEF72E
:1022500074FA4B20FEF771FA0020FEF76EFA5D204B
:10226000FEF76BFA0020FEF768FA7420FEF765FAB5
:102270000020FEF762FA8420FEF75FFA0020FEF7E6
:102280005CFA9320FEF759FA0020FEF756FAA220D6
:10229000FEF753FA0020FEF750FAB320FEF74DFA8E
:1022A0000020FEF74AFABE20FEF747FA0020FEF7AC
:1022B00044FAC420FEF741FA0020FEF73EFACD2092
:1022C000FEF73BFA0020FEF738FAD320FEF735FA86
:1022D0000020FEF732FADD20FEF72FFA0020FEF78D
:1022E0002CFAF320FEF729FA0020FEF726FAE52063
:1022F000FEF71AFA0020FEF720FA0020FEF71DFA7A
:102300000020FEF71AFA0020FEF717FA0220FEF767
:1023100014FA0020FEF711FA2920FEF70EFA002029
:10232000FEF70BFA3C20FEF708FA0020FEF705FA4C
:102330004B20FEF702FA0020FEF7FFF95D20FEF7C2
:10234000FCF90020FEF7F9F97420FEF7F6F90020F9
:10235000FEF7F3F98420FEF7F0F90020FEF7EDF91F
:102360009320FEF7EAF90020FEF7E7F9A220FEF736
:10237000E4F90020FEF7E1F9B320FEF7DEF90020D2
:10238000FEF7DBF9BE20FEF7D8F90020FEF7D5F9FD
:10239000C420FEF7D2F90020FEF7CFF9CD20FEF7DA
:1023A000CCF90020FEF7C9F9D320FEF7C6F90020CA
:1023B000FEF7C3F9DC20FEF7C0F90020FEF7BDF9F7
:1023C000F320FEF7BAF90020FEF7B7F9E620FEF792
:1023D000ABF91120FEF7B1F90020FEF7AEF9342079
:1023E000FEF7ABF90020FEF7A8F95620FEF7A5F995
:1023F0000020FEF7A2F97620FEF79FF90020FEF7F5
:102400009CF97720FEF799F90020FEF796F96620EF
:10241000FEF793F90020FEF790F98820FEF78DF97A
:102420000020FEF78AF99920FEF787F90020FEF7D1
:1024300084F9BB20FEF781F90020FEF77EF9992090
:10244000FEF77BF90020FEF778F96620FEF775F9B4
:102450000020FEF772F95520FEF76FF90020FEF715
:102460006CF95520FEF769F90020FEF766F9452062
:10247000FEF763F90020FEF760F94320FEF75DF9EF
:102480000020FEF75AF94420FEF757F90020FEF726
:1024900054F9E720FEF748F93220FEF74EF9002004
:1024A000FEF74BF95520FEF748F90020FEF745F9F5
:1024B0007620FEF742F90020FEF73FF96620FEF78E
:1024C0003CF90020FEF739F96720FEF736F90020C5
:1024D000FEF733F96720FEF730F90020FEF72DF9FB
:1024E0008720FEF72AF90020FEF727F99920FEF74A
:1024F00024F90020FEF721F9BB20FEF71EF9002089
:10250000FEF71BF99920FEF718F90020FEF715F9E0
:102510007720FEF712F90020FEF70FF94420FEF7AE
:102520000CF90020FEF709F95620FEF706F9002005
:10253000FEF703F92320FEF700F90020FEF7FDF86F
:102540003320FEF7FAF80020FEF7F7F84520FEF7F3
:10255000F4F80020FEF7F1F8E820FEF7E5F8002097
:10256000FEF7EBF80020FEF7E8F89920FEF7E5F813
:102570000020FEF7E2F88720FEF7DFF80020FEF7E4
:10258000DCF88820FEF7D9F80020FEF7D6F877208F
:10259000FEF7D3F80020FEF7D0F86620FEF7CDF85E
:1025A0000020FEF7CAF88820FEF7C7F80020FEF7E3
:1025B000C4F8AA20FEF7C1F80020FEF7BEF8BB2041
:1025C000FEF7BBF80020FEF7B8F89920FEF7B5F843
:1025D0000020FEF7B2F86620FEF7AFF80020FEF705
:1025E000ACF85520FEF7A9F80020FEF7A6F8552014
:1025F000FEF7A3F80020FEF7A0F84420FEF79DF8B0
:102600000020FEF79AF84420FEF797F80020FEF726
:1026100094F85520FEF791F80020FEF78EF8E92097
:10262000FEF782F8AA20FEF788F80020FEF785F86A
:102630000020FEF782F80020FEF77FF80020FEF76A
:1026400073F8AA20FEF779F8CF20FEF76DF8002086
:10265000FEF773F80020FEF770F80020FEF76DF823
:102660000020FEF76AF80020FEF767F80020FEF76A
:1026700064F80020FEF761F80020FEF75EF8002005
:10268000FEF75BF80020FEF758F80020FEF755F83B
:102690000020FEF752F80020FEF74FF80020FEF76A
:1026A0004CF80020FEF749F80020FEF746F800201D
:1026B000FEF743F8F020FEF737F80020FEF73DF86C
:1026C0005020FEF73AF80020FEF737F80020FEF71A
:1026D00034F80020FEF731F8F320FEF725F800204B
:1026E000FEF72BF8F920FEF71FF80620FEF725F875
:1026F0001020FEF722F82920FEF71FF80020FEF731
:102700001CF83A20FEF710F85520FEF716F81120B5
:10271000FEF70AF8642005F04CFE2920FEF704F8C5
:102720003520FEF701F80020FEF707F85120FDF7ED
:10273000FBFFFF20FEF701F85320FDF7F5FF2C20EB
:10274000FDF7FBFF5520FDF7EFFF8220FDF7F5FFBA
:102750002C20FDF7E9FF01F048B8FE48808845F2DB
:10276000105188427ED155214FF47040FDF7F7FF9C
:10277000AA214FF20100FDF7F2FF52214FF20200B1
:10278000FDF7EDFF08214FF20300FDF7E8FF0121FF
:102790004FF20400FDF7E3FF0D214FF43040FDF749
:1027A000DEFF0D214BF20100FDF7D9FF0D214BF2A9
:1027B0000200FDF7D4FF34214FF43640FDF7CFFF80
:1027C00034214BF20160FDF7CAFF34214BF2026065
:1027D000FDF7C5FF0D214FF43140FDF7C0FF0D217E
:1027E0004BF20110FDF7BBFF0D214BF20210FDF77C
:1027F000B6FF34214FF43740FDF7B1FF34214BF2DF
:102800000170FDF7ACFF34214BF20270FDF7A7FF1A
:1028100000214FF43240FDF7A2FF00214BF20120CE
:10282000FDF79DFF00214BF20220FDF798FF2421C8
:102830004FF43840FDF793FF24214BF60100FDF7DC
:102840008EFF24214BF60200FDF789FF01214FF492
:102850003F40FDF784FF0F214FF43340FDF77FFF2A
:102860000F2100E0FEE34BF20130FDF778FF0F216E
:102870004BF20230FDF773FF34214FF43940FDF77E
:102880006EFF34214BF60110FDF769FF34214BF642
:102890000210FDF764FF08214FF43540FDF75FFF9C
:1028A00008214BF20150FDF75AFF08214BF202506C
:1028B000FDF755FF03214FF44240FDF750FF24215F
:1028C0004FF43A40FDF74BFF24214BF60120FDF772
:1028D00046FF24214BF60220FDF741FF00214FF473
:1028E0003C40FDF73CFF78214BF60140FDF737FFF8
:1028F00000214BF60240FDF732FF00214FF43D402E
:10290000FDF72DFF78214BF60150FDF728FF002140
:102910004BF60250FDF723FF00214FF43E40FDF738
:102920001EFF64214BF60160FDF719FF00214FF4F3
:102930005140FDF714FF33214DF20110FDF70FFF59
:1029400000214DF20210FDF70AFF34214DF2031071
:10295000FDF705FF00214DF20410FDF700FF3A21BD
:102960004DF20510FDF7FBFE00214DF20610FDF7BC
:10297000F6FE4A214DF20710FDF7F1FE00214DF25F
:102980000810FDF7ECFE5C214DF20910FDF7E7FEA3
:1029900000214DF20A10FDF7E2FE81214DF20B10ED
:1029A000FDF7DDFE00214DF20C10FDF7D8FEA6214B
:1029B0004DF20D10FDF7D3FE00214DF20E10FDF784
:1029C000CEFEE5214DF20F10FDF7C9FE01214DF2BB
:1029D0001010FDF7C4FE13214DF21110FDF7BFFEDC
:1029E00001214DF21210FDF7BAFE54214DF21310E1
:1029F000FDF7B5FE01214DF21410FDF7B0FE822166
:102A00004DF21510FDF7ABFE01214DF21610FDF74A
:102A1000A6FECA214DF21710FDF7A1FE02214DF2CC
:102A20001810FDF79CFE00214DF21910FDF797FEDE
:102A300002214DF21A10FDF792FE01214DF21B10FA
:102A4000FDF78DFE02214DF21C10FDF788FE3421AA
:102A50004DF21D10FDF783FE02214DF21E10FDF711
:102A60007EFE67214DF21F10FDF779FE02214DF227
:102A70002010FDF774FE84214DF22110FDF76FFE4A
:102A800002214DF22210FDF76AFEA4214DF223101F
:102A9000FDF765FE02214DF22410FDF760FEB7211F
:102AA0004DF22510FDF75BFE02214DF22610FDF7D9
:102AB00056FECF214DF22710FDF751FE02214DF2B7
:102AC0002810FDF74CFEDE214DF22910FDF747FEE0
:102AD00002214DF22A10FDF742FEF2214DF22B1099
:102AE000FDF73DFE02214DF22C10FDF738FEFE21D0
:102AF0004DF22D10FDF733FE03214DF22E10FDF7A0
:102B00002EFE10214DF22F10FDF729FE03214DF26C
:102B10003010FDF724FE33214DF23110FDF71FFE7A
:102B200003214DF23210FDF71AFE6D214DF23310E4
:102B3000FDF715FE00214FF45240FDF710FE332142
:102B40004DF20120FDF70BFE00214DF20220FDF7B2
:102B500006FE01E0080F002034214DF20320FDF7AE
:102B6000FEFD00214DF20420FDF7F9FD3A214DF262
:102B70000520FDF7F4FD00214DF20620FDF7EFFDE5
:102B80004A214DF20720FDF7EAFD00214DF2082011
:102B9000FDF7E5FD5C214DF20920FDF7E0FD002188
:102BA0004DF20A20FDF7DBFD81214DF20B20FDF7F0
:102BB000D6FD00214DF20C20FDF7D1FDA6214DF2EE
:102BC0000D20FDF7CCFD00214DF20E20FDF7C7FDD5
:102BD000E5214DF20F20FDF7C2FD01214DF210203D
:102BE000FDF7BDFD13214DF21120FDF7B8FD0121C8
:102BF0004DF21220FDF7B3FD54214DF21320FDF7E5
:102C0000AEFD01214DF21420FDF7A9FD82214DF208
:102C10001520FDF7A4FD01214DF21620FDF79FFDC3
:102C2000CA214DF21720FDF79AFD02214DF218201E
:102C3000FDF795FD00214DF21920FDF790FD0221D1
:102C40004DF21A20FDF78BFD01214DF21B20FDF7FF
:102C500086FD02214DF21C20FDF781FD34214DF24D
:102C60001D20FDF77CFD02214DF21E20FDF777FDB2
:102C700067214DF21F20FDF772FD02214DF2202049
:102C8000FDF76DFD84214DF22120FDF768FD022145
:102C90004DF22220FDF763FDA4214DF22320FDF724
:102CA0005EFD02214DF22420FDF759FDB7214DF2C2
:102CB0002520FDF754FD02214DF22620FDF74FFDA2
:102CC000CF214DF22720FDF74AFD02214DF22820A9
:102CD000FDF745FDDE214DF22920FDF740FD0221E3
:102CE0004DF22A20FDF73BFDF2214DF22B20FDF79E
:102CF00036FD02214DF22C20FDF731FDFE214DF273
:102D00002D20FDF72CFD03214DF22E20FDF727FD90
:102D100010214DF22F20FDF722FD03214DF230202E
:102D2000FDF71DFD33214DF23120FDF718FD032184
:102D30004DF23220FDF713FD6D214DF23320FDF7EA
:102D40000EFD00214FF45340FDF709FD33214DF2F4
:102D50000130FDF704FD00214DF20230FDF7FFFCCC
:102D600034214DF20330FDF7FAFC00214DF204301E
:102D7000FDF7F5FC3A214DF20530FDF7F0FC00219E
:102D80004DF20630FDF7EBFC4A214DF20730FDF71E
:102D9000E6FC00214DF20830FDF7E1FC5C214DF22C
:102DA0000930FDF7DCFC00214DF20A30FDF7D7FCBD
:102DB00081214DF20B30FDF7D2FC00214DF20C3099
:102DC000FDF7CDFCA6214DF20D30FDF7C8FC00212A
:102DD0004DF20E30FDF7C3FCE5214DF20F30FDF74B
:102DE000BEFC01214DF21030FDF7B9FC13214DF26C
:102DF0001130FDF7B4FC01214DF21230FDF7AFFCAC
:102E000054214DF21330FDF7AAFC01214DF214308C
:102E1000FDF7A5FC82214DF21530FDF7A0FC012144
:102E20004DF21630FDF79BFCCA214DF21730FDF72D
:102E300096FC02214DF21830FDF791FC00214DF275
:102E40001930FDF78CFC02214DF21A30FDF787FC9A
:102E500001214DF21B30FDF782FC02214DF21C30A6
:102E6000FDF77DFC34214DF21D30FDF778FC022189
:102E70004DF21E30FDF773FC67214DF21F30FDF758
:102E80006EFC02214DF22030FDF769FC84214DF2E9
:102E90002130FDF764FC02214DF22230FDF75FFC8A
:102EA000A4214DF22330FDF75AFC02214DF22430CB
:102EB000FDF755FCB7214DF22530FDF750FC0221FE
:102EC0004DF22630FDF74BFCCF214DF22730FDF7B8
:102ED00046FC02214DF22830FDF741FCDE214DF287
:102EE0002930FDF73CFC02214DF22A30FDF737FC7A
:102EF000F2214DF22B30FDF732FC02214DF22C3045
:102F0000FDF72DFCFE214DF22D30FDF728FC0321AD
:102F10004DF22E30FDF723FC10214DF22F30FDF73E
:102F20001EFC03214DF23030FDF719FC33214DF228
:102F30003130FDF714FC03214DF23230FDF70FFC68
:102F40006D214DF23330FDF70AFC00214FF454405F
:102F5000FDF705FC33214DF20140FDF700FC002197
:102F60004DF20240FDF7FBFB34214DF20340FDF72B
:102F7000F6FB00214DF20440FDF7F1FB3A214DF242
:102F80000540FDF7ECFB00214DF20640FDF7E7FBA5
:102F90004A214DF20740FDF7E2FB00214DF20840C7
:102FA000FDF7DDFB5C214DF20940FDF7D8FB002168
:102FB0004DF20A40FDF7D3FB81214DF20B40FDF7A6
:102FC000CEFB00214DF20C40FDF7C9FBA6214DF2CE
:102FD0000D40FDF7C4FB00214DF20E40FDF7BFFB95
:102FE000E5214DF20F40FDF7BAFB01214DF21040F3
:102FF000FDF7B5FB13214DF21140FDF7B0FB0121A8
:103000004DF21240FDF7ABFB54214DF21340FDF79A
:10301000A6FB01214DF21440FDF7A1FB82214DF2E8
:103020001540FDF79CFB01214DF21640FDF797FB83
:10303000CA214DF21740FDF792FB02214DF21840D4
:10304000FDF78DFB00214DF21940FDF788FB0221B1
:103050004DF21A40FDF783FB01214DF21B40FDF7B5
:103060007EFB00E003E302214DF21C40FDF777FBFD
:1030700034214DF21D40FDF772FB02214DF21E403E
:10308000FDF76DFB67214DF21F40FDF768FB022144
:103090004DF22040FDF763FB84214DF22140FDF706
:1030A0005EFB02214DF22240FDF759FBA4214DF2B7
:1030B0002340FDF754FB02214DF22440FDF74FFB66
:1030C000B7214DF22540FDF74AFB02214DF2264083
:1030D000FDF745FBCF214DF22740FDF740FB0221D4
:1030E0004DF22840FDF73BFBDE214DF22940FDF774
:1030F00036FB02214DF22A40FDF731FBF2214DF261
:103100002B40FDF72CFB02214DF22C40FDF727FB55
:10311000FE214DF22D40FDF722FB03214DF22E4002
:10312000FDF71DFB10214DF22F40FDF718FB032189
:103130004DF23040FDF713FB33214DF23140FDF7E6
:103140000EFB03214DF23240FDF709FB6D214DF2DC
:103150003340FDF704FB00214FF45540FDF7FFFA23
:1031600033214DF20150FDF7FAFA00214DF20250E1
:10317000FDF7F5FA34214DF20350FDF7F0FA002186
:103180004DF20450FDF7EBFA3A214DF20550FDF7F0
:10319000E6FA00214DF20650FDF7E1FA4A214DF220
:1031A0000750FDF7DCFA00214DF20850FDF7D7FA81
:1031B0005C214DF20950FDF7D2FA00214DF20A5080
:1031C000FDF7CDFA81214DF20B50FDF7C8FA002131
:1031D0004DF20C50FDF7C3FAA6214DF20D50FDF74C
:1031E000BEFA00214DF20E50FDF7B9FAE5214DF27D
:1031F0000F50FDF7B4FA01214DF21050FDF7AFFA70
:1032000013214DF21150FDF7AAFA01214DF212508F
:10321000FDF7A5FA54214DF21350FDF7A0FA012154
:103220004DF21450FDF79BFA82214DF21550FDF737
:1032300096FA01214DF21650FDF791FACA214DF28E
:103240001750FDF78CFA02214DF21850FDF787FA5E
:1032500000214DF21950FDF782FA02214DF21A5069
:10326000FDF77DFA01214DF21B50FDF778FA02219E
:103270004DF21C50FDF773FA34214DF21D50FDF74D
:103280006EFA02214DF21E50FDF769FA67214DF2E8
:103290001F50FDF764FA02214DF22050FDF75FFA4E
:1032A00084214DF22150FDF75AFA02214DF22250AD
:1032B000FDF755FAA4214DF22350FDF750FA0221F3
:1032C0004DF22450FDF74BFAB7214DF22550FDF792
:1032D00046FA02214DF22650FDF741FACF214DF278
:1032E0002750FDF73CFA02214DF22850FDF737FA3E
:1032F000DE214DF22950FDF732FA02214DF22A501B
:10330000FDF72DFAF2214DF22B50FDF728FA02219C
:103310004DF22C50FDF723FAFE214DF22D50FDF712
:103320001EFA03214DF22E50FDF719FA10214DF22D
:103330002F50FDF714FA03214DF23050FDF70FFA2C
:1033400033214DF23150FDF70AFA03214DF232508C
:10335000FDF705FA6D214DF23350FDF700FA00211B
:103360004FF45640FDF7FBF933214DF20160FDF7B4
:10337000F6F900214DF20260FDF7F1F934214DF22A
:103380000360FDF7ECF900214DF20460FDF7E7F969
:103390003A214DF20560FDF7E2F900214DF2066099
:1033A000FDF7DDF94A214DF20760FDF7D8F900215C
:1033B0004DF20860FDF7D3F95C214DF20960FDF78D
:1033C000CEF900214DF20A60FDF7C9F981214DF2D5
:1033D0000B60FDF7C4F900214DF20C60FDF7BFF959
:1033E000A6214DF20D60FDF7BAF900214DF20E60F5
:1033F000FDF7B5F9E5214DF20F60FDF7B0F90121B8
:103400004DF21060FDF7ABF913214DF21160FDF79D
:10341000A6F901214DF21260FDF7A1F954214DF2F8
:103420001360FDF79CF901214DF21460FDF797F947
:1034300082214DF21560FDF792F901214DF21660DF
:10344000FDF78DF9CA214DF21760FDF788F90221C9
:103450004DF21860FDF783F900214DF21960FDF778
:103460007EF902214DF21A60FDF779F901214DF242
:103470001B60FDF774F902214DF21C60FDF76FF936
:1034800034214DF21D60FDF76AF902214DF21E60F4
:10349000FDF765F967214DF21F60FDF760F9022124
:1034A0004DF22060FDF75BF984214DF22160FDF7BC
:1034B00056F902214DF22260FDF751F9A4214DF297
:1034C0002360FDF74CF902214DF22460FDF747F926
:1034D000B7214DF22560FDF742F902214DF2266039
:1034E000FDF73DF9CF214DF22760FDF738F90221B4
:1034F0004DF22860FDF733F9DE214DF22960FDF72A
:103500002EF902214DF22A60FDF729F9F2214DF240
:103510002B60FDF724F902214DF22C60FDF71FF915
:10352000FE214DF22D60FDF71AF903214DF22E60B8
:10353000FDF715F910214DF22F60FDF710F9032169
:103540004DF23060FDF70BF933214DF23160FDF79C
:1035500006F903214DF23260FDF701F96D214DF2BC
:103560003360FDF7FCF855214FF47040FDF7F7F894
:10357000AA214FF20100FDF7F2F852214FF20200AA
:10358000FDF7EDF808214FF20300FDF7E8F8002100
:103590004FF20400FDF7E3F8CC214FF43140FDF782
:1035A000DEF800214BF20110FDF7D9F805214FF4A8
:1035B0003640FDF7D4F870214FF43740FDF7CFF8CF
:1035C00070214BF20170FDF7CAF801214FF4384029
:1035D000FDF7C5F803214BF60100FDF7C0F8032104
:1035E0004BF60200FDF7BBF803214BF60300FDF795
:1035F000B6F802214FF43C40FDF7B1F800214BF63C
:103600000140FDF7ACF800214BF60240FDF7A7F8AA
:10361000D0214FF44940FDF7A2F802214CF60110E9
:10362000FDF79DF850214CF60210FDF798F8502157
:103630004CF60310FDF793F850214CF60410FDF7FB
:103640008EF800214FF45450FDF789F855214FF4BE
:103650006850FDF784F84FF48850FDF765F878203E
:1036600004F085FE4FF42450FDF75EF8BDE0FE48FF
:10367000808841F663118842F8D1E220FDF754F8C2
:103680001D20FDF75AF80220FDF757F80420FDF73A
:1036900054F8642004F06BFEE020FDF745F80120AB
:1036A000FDF74BF80A2004F084FEE020FDF73CF81B
:1036B0000320FDF742F80C2004F07BFE0120FDF70B
:1036C00033F80A2004F075FEE620FDF72DF82F20D0
:1036D000FDF733F8FF20FDF730F8FF20FDF72DF858
:1036E000B020FDF721F82020FDF727F80020FDF796
:1036F00024F80320FDF721F840F21F30FDF71DF8F4
:103700000120FDF71AF840F2DF10FDF716F800204F
:10371000FDF713F8B420FDF707F80420FDF70DF8C6
:1037200040F21F40FDF709F80020FDF706F82E20B3
:10373000FDF703F80020FDF700F80020FCF7FDFF7F
:103740000020FCF7FAFF0020FCF7F7FFB620FCF79B
:10375000EBFF0220FCF7F1FF4FF40370FCF7EDFFE5
:103760000020FCF7EAFF1720FCF7E7FF1520FCF725
:10377000E4FF0020FCF7E1FF0020FCF7DEFFF02073
:10378000FCF7D2FF0320FCF7D8FF2920FCF7CCFF81
:10379000D020FCF7C9FF0020FCF7CFFFBE20FCF7CC
:1037A000C3FF0520FCF7C9FFFE20FCF7C6FF012080
:1037B000FCF7C3FF0020FCF7C0FF0020FCF7BDFFB3
:1037C0000020FCF7BAFFB820FCF7AEFF0320FCF79F
:1037D000B4FF0120FCF7B1FFBA20FCF7A5FF0120E0
:1037E000FCF7ABFF6420FDF77AFA0120FDF7A3FA9E
:1037F00001209E4908604FF6FF70FDF7F1FB21B0F4
:1038000000BD2DE9F04F05460E4617469846DDF8F7
:1038100024A04FF0000B781B401C1FFA80FB34469D
:1038200014E021462846FCF7C9FFFCF7AAFF4FF039
:10383000000907E04FF0D840A0F880A009F101008E
:103840001FFA80F9D945F5DB601C84B24445E8DDF8
:10385000BDE8F08F2DE9F84F07460D469046994692
:10386000DDF828B0A8EB0700401C1FFA80FAA9EB8E
:103870000500401C80B20090002414E0281981B299
:103880003846FCF79BFFFCF77CFF002607E004FBB3
:103890000A603BF8100076490880701C86B25645D5
:1038A000F5DB601C84B200988442E7DBBDE8F88F4A
:1038B0002DE9FF4F84B081468A4600200390029094
:1038C0000698A0EB09050798A0EB0A06CDF804902E
:1038D000CDF800A0002D01DD012705E00DB900277E
:1038E00002E04FF0FF376D42002E02DD4FF001087D
:1038F00006E016B94FF0000802E04FF0FF387642BC
:10390000B54201DD2C4600E034464FF0000B21E0CB
:10391000009A91B2019A90B2FDF75CF9039828449D
:1039200003900298304402900398A04205DD03986A
:10393000001B03900198384401900298A04205DDD5
:103940000298001B02900098404400900BF1010087
:103950001FFA80FB601C8345DADD08B0BDE8F08FFC
:10396000F0B504460D4616461F462B4632462946FC
:103970002046FFF79DFF3B46224629462046FFF79B
:1039800097FF3B46324639462046FFF791FF3B46BC
:10399000324629463046FFF78BFFF0BD2DE9F04354
:1039A00006460F469046002445460320A0EB4809F2
:1039B0003CE07A1B91B2321990B2FDF70BF93A1B39
:1039C00091B2721990B2FDF705F93A1991B27219D4
:1039D00090B2FDF7FFF87A1991B2321990B2FDF763
:1039E000F9F87A1991B2321B90B2FDF7F3F83A194F
:1039F00091B2721B90B2FDF7EDF87A1B91B2321BB7
:103A000090B2FDF7E7F83A1B91B2721B90B2FDF746
:103A1000E1F8641CB9F1000F03DAA000801D8144B5
:103A200004E0601B80000A3081446D1EAC42C0DDA2
:103A3000BDE8F0832DE9F84F80460E4617461C4638
:103A4000B3462046E31704EB5373DB1021464FEADD
:103A5000E47C04EB5C7C4FEAEC0CA4EBCC0CBCF1FA
:103A6000000F0AD006E00000080F0020BC82404290
:103A70008000006C4FF0010C01E04FF0000C63443B
:103A8000224604EBD27C4FEA6C0C03FB0CF3DBB256
:103A90000093A7F12000C7B2002556E00C2C07D1F7
:103AA00007EB47009F4901EB800010F8059013E0F9
:103AB000102C05D19C4800EB071010F805900BE086
:103AC000182C07D107EBC700984901EB800010F8CC
:103AD000059001E0BDE8F88F4FF0000A2FE009F0F3
:103AE000800030B19248028831464046FDF780F8A8
:103AF00007E00A9828B98F48028831464046FDF70A
:103B000077F84FEA49604FEA1069701C86B28A481C
:103B10004088B04200DCDDE7A6EB0B00A0420AD1F2
:103B20005E4608F101001FFA80F88348008840458E
:103B300000DCCFE706E00AF1010000F0FF0ABAF16D
:103B4000080FCCDB00BF681CC5B200988542A5DB1E
:103B500000BFBFE710B50246012000E050430B1E36
:103B6000A1F10104E1B2F9D110BD2DE9FF4F81B0FF
:103B7000074691461E460E9D4FF0000A002439E08C
:103B8000301B401EC1B20A20FFF7E4FFB9FBF0F082
:103B90000A21B0FBF1F201FB1208BAF1000F16D1B5
:103BA000701EA04213DDB8F1000F0ED10020AB460D
:103BB00005EBDB71491001FB0471009088B22B46C4
:103BC00020220299FFF736FF12E04FF0010A002091
:103BD000AB4605EBDB71491001FB0471009088B224
:103BE00008F13001CAB22B460299FFF723FF00BF4C
:103BF000601CC4B2B442C3DB05B0BDE8F08F2DE950
:103C0000FF4F82B0064692461F46DDE90F4800206E
:103C1000019000254DE0781B401EC1B20A20FFF73D
:103C200099FFBAFBF0F00A21B0FBF1F201FB120997
:103C3000019850BB781EA84227DDB9F1000F22D1B0
:103C400008F0800078B108F00100A34604EBDB71B6
:103C5000491001FB0561009088B223463022039988
:103C6000FFF7E8FE0EE008F00100A34604EBDB716D
:103C7000491001FB0561009088B223462022039978
:103C8000FFF7D8FE13E00120019008F00100A346E1
:103C900004EBDB71491001FB0561009088B209F16A
:103CA0003001CAB223460399FFF7C4FE00BF681C67
:103CB000C5B2BD42AFDB06B0BDE8F08F2DE9F847D5
:103CC00004460D4690469946DDE9096704F0FF0A6F
:103CD00008EB04001FFA80F809EB05001FFA80F9D1
:103CE00016E0444502DB5446A81985B24D4500DB79
:103CF00014E0002000903A78334629462046FFF72A
:103D000099FE304606EBD07104EB61018CB27F1C4A
:103D100038787E2802DC38782028E2DA00BFBDE857
:103D2000F887000066A60208DAAA0208CAB00208EC
:103D30002400002026000020080F002000B599B0C4
:103D40000121782003F01EF94FF6337017900220FE
:103D50008DF8600003208DF8610000208DF862006E
:103D600001208DF8630017A9994802F06DFE4FF607
:103D70008370179017A9974802F066FE4FF23F0034
:103D8000179017A9944802F05FFE40F23F40179049
:103D900017A9924802F058FE0C2200218C4802F02C
:103DA000DEFE0C2201218A4802F0D9FE0C220421F9
:103DB000874802F0D4FE0C220521854802F0CFFE90
:103DC0000C220821824802F0CAFE0C2209218048F8
:103DD00002F0C5FE0C220A217D4802F0C0FE0C2232
:103DE0000B217B4802F0BBFE0C221146784802F002
:103DF000B6FE0C220D21764802F0B1FE0C220E21F7
:103E0000734802F0ACFE0C220F21714802F0A7FEAD
:103E10000C2200216F4802F0A2FE0C2201216D4805
:103E200002F09DFE0C2207216A4802F098FE0C2247
:103E30000821684802F093FE0C220921654802F02F
:103E40008EFE0C220A21634802F089FE0C220B210F
:103E5000604802F084FE0C2211465E4802F07FFEAC
:103E60000C220D215B4802F07AFE0C220E215948EB
:103E700002F075FE0C220F21564802F070FE0C2253
:103E80000021554802F06BFE0C220121524802F03D
:103E900066FE0C220221504802F061FE0C22032132
:103EA0004D4802F05CFE0C2204214B4802F057FE04
:103EB0000C220521484802F052FE0C2211464648C9
:103EC00002F04DFE0C220D21434802F048FE0C2268
:103ED0000E21414802F043FE0C220F213E4802F021
:103EE0003EFE0C2200213D4802F039FE0C22012149
:103EF0003A4802F034FE0C220221384802F02FFE2C
:103F00000C220321354802F02AFE0C2204213348FA
:103F100002F025FE0C220521304802F020FE0C2282
:103F20000A212E4802F01BFE002001900290092079
:103F300003900020049005900690079004200890BC
:103F4000002009900A9010200B9000200C900D90FA
:103F50000E900F9010904FF480501190002012900E
:103F60001390149001A81590169008A802F01DFA5D
:103F70000121042002F0A4FA19B000BD10B506E03A
:103F800004784FF0D0435C54491C401C521E002A58
:103F9000F6D110BD06E04FF0D0435B5C00F8013B6A
:103FA000491C521E002AF6D1704713B5044601225F
:103FB000214601A8FFF7E2FF1CBD18B50446012207
:103FC00021466846FFF7E6FF9DF8000018BD000097
:103FD000000C024000100240001402400018024091
:103FE00010B500F0BBF810BD70B50446002600F017
:103FF000D4F82546E11704EB11610912A02202EB67
:104000004101C8B200F075F900F008F9E11704EBBE
:1040100011610912A4EB0121C8B200F06AF900F0A5
:10402000FDF800F0BAF8A12000F063F900F0F6F80E
:10403000002000F08BF9064600F0D1F8304670BD44
:1040400070B504460E4600F0A8F82546E11704EBCB
:1040500011610912A02202EB4101C8B200F049F936
:1040600000F0DCF8E11704EB11610912A4EB012167
:10407000C8B200F03EF900F0D1F8304600F039F94E
:1040800000F0CCF800F0ABF80A2004F092F970BD13
:104090002DE9F04105460E461746002409E0E200EE
:1040A00026FA02F2D1B22A1990B2FFF7C9FF601CBA
:1040B000C4B2BC42F3DBBDE8F0812DE9F041074614
:1040C0000C460026002509E036023919491B491E15
:1040D00088B2FFF789FF0644681CC5B2A542F3DB2E
:1040E0003046BDE8F08110B5FF20FFF77DFF0446A4
:1040F000552C01D1002010BD5521FF20FFF7A0FF56
:10410000FF20FFF771FF0446552C01D10020F2E794
:104110000120F0E770B506460C46154608E030462B
:10412000721C96B2FFF760FF04F8010B681E85B29F
:10413000002DF4D170BD70B505460C46164606E05C
:1041400021782846FFF77CFF681C85B2641C301E6E
:10415000A6F101018EB2F3D170BD00001CB50121A2
:10416000022002F00FFF4FF44070009001208DF804
:10417000040003208DF8050000208DF806000120C2
:104180008DF807006946894802F05EFC01208849E5
:1041900008608849C1F8A4021CBD10B583480068B6
:1041A00020F44020814908600846006840F48020DF
:1041B000086001207E49091D08607E49C1F8A002FF
:1041C000042004F0D4F800207949091D0860042077
:1041D00004F0CDF800207749C1F8A00210BD10B559
:1041E0007248006820F44020704908600846006862
:1041F00040F48020086000206D4908606D49C1F8D6
:10420000A402042004F0B3F8012069490860694958
:10421000C1F8A402042004F0AAF810BD10B50024CF
:104220006248006820F44020604908600846006841
:10423000086001205E49091D086004F098F801201B
:104240005C49C1F8A00204F092F807E0601CC4B217
:10425000FA2C03DDFFF7C3FF012010BD54487C3862
:1042600000680028F2D15249086000BFF5E710B598
:1042700000204F4908604D48006820F440204B4919
:1042800008600846006840F4802008600020494922
:10429000C1F8A402022004F06AF801204449086031
:1042A000022004F064F800204249C1F8A00210BDC9
:1042B00010B500203E4908603C48006820F44020CA
:1042C0003A4908600846006840F4802008600120F0
:1042D0003849C1F8A402022004F049F80120344909
:1042E0000860022004F043F800203249C1F8A0021F
:1042F00010BD70B504462D48006820F440202B49BD
:1043000008600846006840F48020086000202849C2
:104310000860002517E0E0092549091D08606006CE
:10432000040E022004F023F801202249C1F8A00263
:10433000022004F01CF800201D490860022004F04F
:1043400016F8681CC5B2082DE5DB70BD70B50546D2
:1043500000241648006820F44020144908600846EC
:1043600000680860002616E000201149086002205D
:1043700003F0FDFF01200F49C1F8A0026006040E02
:104380000B487C38006808B1601CC4B2012003F0FF
:10439000EEFF701CC6B2082EE6DB15B9FFF788FFEA
:1043A00001E0FFF764FF204670BD000000040240FA
:1043B000A08240420080404210B5052003F0D7FFA4
:1043C00010BD1CB50121222002F0DCFD012000906F
:1043D0008DF8040003208DF8050000208DF80600FC
:1043E00001208DF807006946844802F02DFB4FF448
:1043F000006000906946824802F026FB0120814956
:1044000008608149C1F8AC021CBD10B57C48006849
:1044100020F440007A4908600846006840F48000B3
:1044200008600120794908607949C1F880021420A8
:1044300003F09DFF002075490860FFF7BDFF0020D5
:104440007349C1F8800210BD10B56D48006820F4B2
:1044500040006B4908600846006840F4800008602E
:10446000012068490860142003F081FF002066499C
:10447000C1F8AC02FFF7A0FF01206449086010BD3D
:1044800010B500245E48006820F440005C490860D4
:1044900008460068086001205C4908605C49C1F872
:1044A00080020AE0601CC4B2FA2C03DDFFF7CCFFE7
:1044B000012010BD012003F05AFF544880380068E5
:1044C0000028EFD14F49086000BFF2E710B5002087
:1044D0004C4908604A48006820F440004849086098
:1044E0000846006840F480000860FFF765FF002080
:1044F0004549C1F8AC02FFF75FFF01204149086060
:10450000FFF75AFF00204249C1F8800210BD10B5E4
:1045100000203C4908603A48006820F440003849CF
:1045200008600846006840F480000860FFF744FF18
:1045300001203549C1F8AC02FFF73EFF01203149A7
:104540000860FFF739FF00203149C1F8800210BD33
:1045500070B504462A48006820F4400028490860E5
:104560000846006840F48000086000202549086083
:10457000FFF722FF002511E0E009244908606006EA
:10458000040E01202249C1F88002FFF715FF002028
:104590001C490860FFF710FF681CC5B2082DEBDB53
:1045A00070BD70B5054600241548006820F4400031
:1045B00013490860084600680860002613E00020E0
:1045C000104908601E2003F0D2FE01201049C1F8F6
:1045D00080026006040E0D488038006808B1601C37
:1045E000C4B2701CC6B2082EE9DB15B9FFF78FFF05
:1045F00001E0FFF76BFF204670BD000000040240A1
:10460000001402408082404200804242AC8242421A
:10461000008040422DE9F04104460E4617464FF017
:104620000008FFF7F2FEB220FFF792FFFFF728FF26
:104630002012FFF78DFFFFF723FFE0B2FFF788FF9F
:10464000FFF71EFF00250BE0705DFFF781FFFFF70E
:1046500017FF8046B8F1000F00D003E0681CC5B218
:10466000BD42F1DB00BFFFF7EFFE4046BDE8F08141
:104670002DE9F04105460F461646FFF7C6FEB2206B
:10468000FFF766FFFFF7FCFE2812FFF761FFFFF759
:10469000F7FEE8B2FFF75CFFFFF7F2FEFFF7B5FEAB
:1046A000B320FFF755FFFFF7EBFE00240BE0711E70
:1046B000A14201D0012100E000210846FFF771FF6F
:1046C0003855601CC4B2B442F1DBFFF7BDFEBDE853
:1046D000F08138B50446002000900CB18020009095
:1046E000012269464FF45060FFF794FF38BD0EB5C4
:1046F000002002900121062002F044FC02200090DC
:1047000000208DF8040001208DF8070069469248CA
:1047100002F09AF94FF40050009001208DF8040047
:1047200003208DF8050000208DF8060069468B48AF
:1047300002F08AF9FFF745FE0020894908606420ED
:1047400003F037FE01208749C1F8B402642003F06A
:1047500030FE0120FFF7BDFF012202A94FF4506097
:10476000FFF786FF9DF808107FA00BF00DFB9DF86A
:104770000800802801D100200EBD0120FCE731B5E2
:104780002DED068B82B0002400257A480078401C6D
:1047900078490870084600780A2190FBF1F201FB85
:1047A000120018B1734800780A287DDA012208A99E
:1047B0000020FFF75DFF9DF8200000F01F0000289B
:1047C00072D09DF8200000F01F0040F0C0006A4940
:1047D00081F83400002483E0674890F83400012118
:1047E000A1400840002879D0644931F8140004221F
:1047F00001A9FFF73DFF604890F8480000F0010074
:10480000C0B39DF807109DF8062001EB022025F0AB
:1048100052FB41EC190B9FED5A0B53EC102B25F07A
:10482000B1FB41EC180B25F0E9FA5349203141F86E
:1048300024009DF805109DF8042001EB022025F0CE
:104840003AFB41EC1A0B9FED500B53EC102B25F06B
:1048500099FB41EC190B9FED4E0B53EC102B25F0FF
:10486000C5FC41EC180B25F0C9FA43490C3141F85D
:10487000240033E0FFE79DF807109DF8062001EBC8
:10488000022025F018FB41EC190B9FED3D0B53EC7A
:10489000102B25F077FB41EC180B25F0AFFA3649C9
:1048A0000C3141F8240000E029E09DF805109DF846
:1048B000042001EB022025F0FEFA41EC190B9FEDDC
:1048C000320B53EC102B25F05DFB41EC180B25F05F
:1048D00095FA01462848203040F82410601CC4B2E4
:1048E000052CFFF679AF01252348C06820B922487E
:1048F000006A08B90020089000201E4908709DF841
:10490000200000F01F00D0B91B4890F8340000F0E0
:10491000800040B1184890F8340020F0800016491B
:1049200081F834000BE04FF6FF701349C86008624D
:10493000084690F8340000F0E00081F834000D489B
:104940000078F02802DD0A200A490870284602B0E3
:10495000BDEC068B38BD0000000402400008024098
:10496000B4024142000041424354502049443A2598
:10497000780D0A00280000202C00002026BE020826
:104980007B14AE47E17AD43FD881734694F6D23F88
:104990000000000000008940002100BF14E000F08A
:1049A00080021AB10122F84B1A6002E00022F64B95
:1049B0001A604206100E0022F44B1A600122F44BDA
:1049C000C3F880224A1CD1B20829E8DB704770B5D1
:1049D0000646002500240020EC490860ED49C1F896
:1049E000AC02ED4908603046FFF7D6FF062003F021
:1049F000BEFC0020E649C1F88002012003F0B7FCAC
:104A00000120E249086003F0B2FC0020E049C1F84F
:104A1000800200BF15E04FF6FF7000EA440400205A
:104A2000DA490860012003F0A2FC0120D849C1F84E
:104A30008002D6487838006808B1601C84B2681CCF
:104A4000C5B2102DE7DB24110120D34908602046B0
:104A500070BD2DE9FE4380460027002406E0404655
:104A6000FFF7B5FF2DF81400601C84B2052CF6DBAF
:104A7000002416E0601C85B20FE03DF814003DF8FC
:104A80001510884207DD3DF814603DF815002DF83B
:104A900014002DF81560681C85B2052DEDDB601C37
:104AA00084B2042CE6DB0027012405E03DF8140065
:104AB000384487B2601C84B2042CF7DB032097FBD8
:104AC000F0F086B23046BDE8FE832DE9F0410446A1
:104AD0000D46B2480078FFF7BCFF0646B0480078A4
:104AE000FFF7B7FF074626602F600120BDE8F08181
:104AF0007FB504460D4602A903A8FFF7E6FF064668
:104B000016B9002004B070BD694601A8FFF7DDFFAB
:104B100006460EB90020F5E703990198884204DCA7
:104B2000019832300399814208DB01990398884249
:104B300026DC039832300199814221DA02990098EB
:104B4000884204DC009832300299814208DB0099E7
:104B50000298884214DC02983230009981420FDAC0
:104B6000019A0399881800EBD07149102160009ACE
:104B70000299881800EBD071491029600120C1E723
:104B80000020BFE770B504460D46164685480680EE
:104B900004F10D018AB2193988B22B462946FEF775
:104BA00087FE05F10D0083B2193881B222462046F6
:104BB000FEF77EFE6A1C91B2621C90B2FCF70AF806
:104BC0006A1C91B2621E90B2FCF704F86A1E91B2A0
:104BD000621C90B2FBF7FEFF6A1E91B2621E90B299
:104BE000FBF7F8FF062229462046FEF7D7FE70BDE8
:104BF00070B504460D4616466A480680294620468A
:104C0000FBF7E8FF611C88B22946FBF7E3FF681C4D
:104C100081B22046FBF7DEFF6A1C91B2621C90B2A3
:104C2000FBF7D8FF70BD10B5044658487C380068C3
:104C3000E0BB2CB15C49A1F11400FFF759FF23E060
:104C40005949A1F11400FFF753FFE8B15648203845
:104C500090ED100A90ED0E1AD0ED030AF8EEE00A7E
:104C600001EE200ABDEEC00A80ED030A90ED110AA4
:104C700090ED0F1AD0ED080AF8EEE00A01EE200AD6
:104C8000BDEEC00A80ED080A4748203890F834008D
:104C900000F0800040BBC0204349203981F8340037
:104CA0000846C168C161016A01631DE0FFE73E4833
:104CB000203890F8340000F0800050B13A48203895
:104CC00090F8340020F080003749203981F8340012
:104CD0000AE0002134482038C16101634FF6FF70BB
:104CE00031492039C86008622F48203890F83400D4
:104CF00000F0800010BD10B52B48203890ED0E0A52
:104D0000DFED2A0A20EE200ABDEEC00A10EE104A9E
:104D1000042221462820FFF7BBF92348203890EDD4
:104D20000F0ADFED220A20EE200ABDEEC00A10EEC7
:104D3000104A042221462C20FFF7AAF91A482038ED
:104D400090ED100ABCEEC00A10EE101A02223020BC
:104D5000FFF79EF91448203890ED110ABCEEC00A06
:104D600010EE101A02223220FFF792F90E48203876
:104D700090F848103420FFF763F90A2421463520C3
:104D8000FFF75EF910BD0000AC82424280824042D3
:104D90000080404200804242B4024142780000203C
:104DA00079000020240000204C00002020BCBE4CD4
:104DB00010B53520FFF718F904460A2C4ED104210E
:104DC0002820FFF77AF9044600EE104AB8EEC00A30
:104DD0005FED0A0A80EE201AFA4880ED0E1A0421CF
:104DE0002C20FFF76AF9044600EE104AB8EEC00A1C
:104DF0005FED120A80EE201AF24880ED0F1A0221B0
:104E00003020FFF75AF900EE100AB8EE400AED48DC
:104E100080ED100A02213220FFF74FF900EE100A50
:104E2000B8EE400AE74880ED110A3420FFF7DCF8BD
:104E3000E44981F84800084690F8480030B19020D5
:104E4000E1490870D020E149087005E0D020DE4932
:104E500008709020DD490870012010BD0020FCE79B
:104E60002DE9FC5F04460D4617461E46DDE90EABF4
:104E7000DDE90C894FF47840D5490880D5A0102190
:104E8000CDE90010D44843880288A0212820FEF7ED
:104E900015FFD2A01021CDE90010CF484388028829
:104EA000A0217820FEF70AFFCDA01021CDE9001047
:104EB000C94843880288B4212820FEF7FFFEC9A014
:104EC0001021CDE90010C44843880288B42178201D
:104ED000FEF7F4FEC4A01021CDE90010BE484388BF
:104EE0000288C8212820FEF7E9FEC0A01021CDE9E4
:104EF0000010B94843880288C8217820FEF7DEFEFA
:104F0000BBA01021CDE90010B34843880288DC2102
:104F10002820FEF7D3FEB7A01021CDE90010AE483F
:104F200043880288DC217820FEF7C8FEB2A0102159
:104F3000CDE90010A84843880288F0212820FEF718
:104F4000BDFE102004232246A02100904020FEF741
:104F50000CFE102004232A46A02100909020FEF78A
:104F600004FE102004233A46B42100904020FEF7AE
:104F7000FCFD102004233246B42100909020FEF75F
:104F8000F4FD102004234246C82100904020FEF783
:104F9000ECFD102004234A46C82100909020FEF723
:104FA000E4FD102004235246DC2100904020FEF74F
:104FB000DCFD102004235A46DC2100909020FEF7EF
:104FC000D4FD102000908448018803236020109AAB
:104FD000FEF7CBFDBDE8FC9F00B597B00020129016
:104FE0000B9012901F217A4801804FF6FF70844980
:104FF0000880FBF7F5FF4FF47841754801804FF6C4
:10500000FF70FBF7EDFF0020714908807D480068C4
:1050100010216423A022CDE9001028210846FEF7C4
:105020004DFE4FF4784214210846FFF7ABFD0021F6
:10503000644880F834109FED740A80ED0E0A55E242
:10504000604840680A9001200A9988475D4890F8B6
:10505000340000F0C000402871D100200B90594866
:1050600090F8340020F04000564981F8340008469A
:10507000808981B213AA129822F820105148008C1E
:1050800081B2129802EB800041801298401CC0B29D
:1050900012901298012806D0022815D0032829D092
:1050A000042810D141E04FF6FF7214210846FFF7A3
:1050B00069FD49480088143880B24FF478421421C1
:1050C0000A90FFF75FFDE0E343480088143880B2A0
:1050D0004FF6FF7214210A90FFF754FD3E484088B6
:1050E000143880B24FF4784201460A901420FFF73A
:1050F00049FDCAE338484088143880B24FF6FF7241
:1051000001460A901420FFF73DFD334840881438CB
:1051100080B20A9030480088143880B24FF4784248
:1051200009900A99FFF72EFDAFE3BDF84C00BDF8DA
:105130005010401A0A90002802DB0A9802E0A5E30A
:105140000A9840420F90BDF84E1013A8C088081A64
:105150000A90002801DB0A9801E00A9840420E906C
:105160000F9840430F900E9840430E90DDE90E10CB
:105170000844059024F0B6FECDE906019DED060B2E
:1051800024F0D6FA8DED080B9DED080B51EC100BB9
:1051900024F064FE80B21190BDF85400BDF85810A0
:1051A000401A0A90002801DB0A9801E00A98404260
:1051B0000F9013A84189C089081A0A90002825DB9E
:1051C0000A9825E02C0000207800002079000020BB
:1051D0002400002078313A00080F002079313A008D
:1051E00078323A0079323A0078333A0079333A002B
:1051F00078343A0079343A006661632069733A0082
:10520000260000207C000020000000000A98404298
:105210000E900F9840430F900E9840430E90DDE99A
:105220000E100844059024F05DFECDE906019DEDC9
:10523000060B24F07DFA8DED080B9DED080B51EC6B
:10524000100B24F00BFE80B210909DED110AF8EEC9
:10525000400A9DED100AB8EE401A80EE810A8DEDED
:105260000A0A0A9825F084F9CDE90C019FEDFE0B9E
:1052700053EC102B9DED0C0B51EC100B24F046FE63
:105280000ED39FEDFB0B53EC102B9DED0C0B51EC53
:10529000100B24F075FF03D3119808B11098E8BBE8
:1052A00000201290F4484088143880B20A90F248E6
:1052B0000088143880B24FF6FF7209900A99FFF700
:1052C00061FC4FF4784214210846FFF75BFC9FED28
:1052D000EB0B53EC102B9DED0C0B51EC100B24F051
:1052E00051FECDE908019DED080B51EC100B24F0A7
:1052F000B5FD80B213A90A90C989BDF8582013AB37
:105300005B89CDE90132CDE90310BDF8540000906E
:1053100013A8C0880990BDF8500000E00BE0089089
:10532000BDF84E000790BDF84C00069007A90EC9C5
:10533000FFF796FDB9E2BDF84C00BDF85410401AD5
:105340000A90002801DB0A9801E00A9840420F9079
:10535000BDF84E1013A84089081A0A90002801DBF6
:105360000A9801E00A9840420E900F9840430F902F
:105370000E9840430E90DDE90E100844059024F08D
:10538000B1FDCDE906019DED060B24F0D1F98DEDBF
:10539000080B9DED080B51EC100B24F05FFD80B263
:1053A0001190BDF85000BDF85810401A0A9000281E
:1053B00001DB0A9801E00A9840420F9013A8C188C7
:1053C000C089081A0A90002801DB0A9801E00A98AF
:1053D00040420E900F9840430F900E9840430E901D
:1053E000DDE90E100844059024F07CFDCDE90601AE
:1053F0009DED060B24F09CF98DED080B9DED080B3F
:1054000051EC100B24F02AFD80B210909DED110A92
:10541000F8EE400A9DED100AB8EE401A80EE810ABF
:105420008DED0A0A0A9825F0A3F8CDE90C019FED4D
:105430008E0B53EC102B9DED0C0B51EC100B24F04C
:1054400065FD0AD39FED8A0B53EC102B9DED0C0BE1
:1054500051EC100B24F094FE49D2002012908648A3
:105460004088143880B20A9083480088143880B28B
:105470004FF6FF7209900A99FFF784FB4FF47842C8
:1054800014210846FFF77EFB9FED7C0B53EC102B9D
:105490009DED0C0B51EC100B24F074FDCDE90801CF
:1054A0009DED080B51EC100B24F0D8FC80B20146A6
:1054B0000A9013A8C089BDF8582013AB5B89CDE9C9
:1054C0000132CDE90301BDF85400009013A8C08853
:1054D0000990BDF850000890BDF84E000790BDF847
:1054E0004C00069007A90EC9FFF7BAFCDDE1BDF834
:1054F0005000BDF85410401A0A90002801DB0A98A9
:1055000001E00A9840420F9013A8C1884089081A08
:105510000A90002801DB0A9801E00A9840420E90A8
:105520000F9840430F900E9840430E90DDE90E1007
:105530000844059024F0D6FCCDE906019DED060B4C
:1055400024F0F6F88DED080B9DED080B51EC100BD7
:1055500024F084FC80B21190BDF84C00BDF85810C6
:10556000401A0A90002801DB0A9801E00A9840429C
:105570000F90BDF84E1013A8C089081A0A90002891
:1055800001DB0A9801E00A9840420E900F984043D0
:105590000F900E9840430E90DDE90E1008440590E0
:1055A00024F0A0FCCDE906019DED060B24F0C0F827
:1055B0008DED080B9DED080B51EC100B24F04EFC0B
:1055C00080B210909DED110AF8EE400A9DED100A90
:1055D000B8EE401A80EE810A8DED0A0A0A9824F08E
:1055E000C7FFCDE90C019FED200B53EC102B9DED77
:1055F0000C0B51EC100B24F089FC0AD39FED1C0B13
:1056000053EC102B9DED0C0B51EC100B24F0B8FD5E
:1056100058D20020129018484088143880B20A905E
:1056200015480088143880B24FF6FF7209900A9925
:10563000FFF7A8FA4FF4784214210846FFF7A2FAC0
:105640009FED0E0B53EC102B9DED0C0B51EC100B42
:1056500024F098FCCDE908019DED080B51EC100BEE
:1056600024F0FCFB80B20DE0666666666666EE3F7F
:10567000CDCCCCCCCCCCF03F080F002000000000FB
:105680000000594002460A9013A8C089BDF858107E
:1056900013AB5B89CDE90131CDE90302BDF85400BC
:1056A000009013A8C0880990BDF850000890BDF87C
:1056B0004E000790BDF84C00069007A90EC9FFF7F1
:1056C000CFFBF2E0BDF85000BDF84C10401A00EEE0
:1056D000100AF8EEC00AC0480088283800EE100A08
:1056E000B8EEC00A80EE201ABC4880ED0E1ABDF854
:1056F0005000BDF84C10084400EE100AF8EEC00A45
:10570000B548008800EE100AB8EE400AB34890EDA4
:105710000E1A01EE600AF0EE000A80EE201A80ED0B
:10572000101A13A84089BDF84E10401A00EE100A56
:10573000F8EEC00AA8484088283800EE100AB8EEF3
:10574000C00A80EE201AA54880ED0F1A13A84089E0
:10575000BDF84E10084400EE100AF8EEC00A9E484C
:10576000408800EE100AB8EE400A9C4890ED0F1AEF
:1057700001EE600AF0EE000A80EE201A80ED111AA8
:1057800090ED0E0ABDEEC00A8DED090A09980028B9
:1057900001DB099801E00998404202280FDC8F489C
:1057A00090ED0F0ABDEEC00A8DED0A0A0A98002896
:1057B00001DB0A9801E00A984042022842DD0020FD
:1057C000129085484088143880B20A908248008838
:1057D000143880B24FF6FF7209900A99FFF7D2F998
:1057E0004FF4784214210846FFF7CCF97CA0102131
:1057F000CDE90010784840880A90774800880990E1
:1058000002461A2128200A9BFEF758FA734890F89E
:10581000480008B9012000E00020704981F84800E4
:10582000084690F8480030B1902072490870D020A6
:105830007149087005E0D0206E49087090206E49CB
:10584000087032E01F206D4908804FF6FF70FBF7AB
:10585000C7FB6BA01021CDE900105F4840880A907B
:105860005D480088099002466E2123200A9BFEF7BE
:1058700025FA4FF47A7002F09CFDFFF73CFA4FF6E0
:10588000FF70FBF7ADFB17B000BD00BF0A2002F0B0
:1058900090FD0B98401C80B20B900B98B0F57A7F6E
:1058A00002DDFFF785FA02E000BFFFF7C9BB00BFCA
:1058B00000BFE8E71CB54848808845F2105188428F
:1058C00020D100F041F918B953484449486004E038
:1058D000FEF70DFF514841494860404890F84800A4
:1058E00040F080003D4981F84800084690F84800A3
:1058F0003949897901F001010843384981F84800A4
:1059000000201CBD3448808841F66311884218D1BC
:1059100000F007FB424831494860084690F84800CB
:1059200040F0800081F84800084690F848002A4975
:10593000897901F001010843284981F848000020D5
:10594000DFE70121262001F01DFB0620009000204A
:105950008DF8040001208DF807006946314801F0F8
:1059600073F84FF40060009001208DF804000320CC
:105970008DF8050000208DF8060001208DF8070045
:105980006946294801F060F80120009069462548E1
:1059900001F05AF84FF4005000906946234801F096
:1059A00053F80E492031A1F11400FFF78EF8FEF7ED
:1059B00017FBFFF7FDF908B10020A2E71C4800889B
:1059C000FBF70EFBFFF708FBFFF795F9FFF7F0F980
:1059D00000BF012095E70000080F00202C000020E8
:1059E0005450204E65656420726561646A757374F5
:1059F0002100000078000020790000202400002011
:105A0000546F7563682053637265656E2041646AE4
:105A1000757374204F4B21003F5C00087F470008DE
:105A2000FF5F00080004024000140240000802402A
:105A3000260000202DE9F04104460E4617464FF09F
:105A40000008FEF7E2FC2820FEF782FDFEF718FDB5
:105A50002012FEF77DFDFEF713FDE0B2FEF778FDA4
:105A6000FEF70EFD00250BE0705DFEF771FDFEF701
:105A700007FD8046B8F1000F00D003E0681CC5B2F6
:105A8000BD42F1DB00BFFEF7DFFC4046BDE8F08120
:105A900038B50546002400208DF800008DF801502F
:105AA00000BF09E09DF80000E049095D0844C0B26C
:105AB0008DF80000601CC4B2B82CF3D39DF8000030
:105AC000C043401CC0B28DF80000B822D74948F24C
:105AD0004700FFF7AFFF0222694648F2FF00FFF7D9
