:020000040800F2
:10000000F01801207D0500081D3300082133000889
:1000100025330008293300082D33000800000000B4
:100020000000000000000000000000003133000864
:100030003533000800000000393300083D33000864
:100040009705000897050008970500089705000820
:100050009705000897050008970500089705000810
:100060009705000847510008970500089705000804
:1000700097050008970500089705000897050008F0
:1000800097050008970500089705000897050008E0
:10009000970500089705000897050008D555000842
:1000A00097050008970500089705000859370008CC
:1000B000970500087737000897050008970500089E
:1000C00097050008970500089705000897050008A0
:1000D00097050008AD480008FB500008EF380008FD
:1000E0002D4C00089705000897050008515300089B
:1000F0009705000897050008970500089705000870
:10010000970500089705000897050008970500085F
:10011000A5320008376500082B350008493500086E
:10012000970500089705000897050008970500083F
:10013000970500089705000897050008970500082F
:10014000970500089705000897050008970500081F
:10015000970500089705000897050008FF44000868
:1001600097050008970500089705000897050008FF
:100170009705000897050008970500080000000093
:10018000970500089705000800F002F800F06FF8E6
:1001900014A696E8000CB244B344DA4501D100F04D
:1001A00066F8BAE80F000FA696E83000A5EB040544
:1001B00004EB0607AAEB0704A7F101074FEA1515A0
:1001C0004FEA3414A4F10104AC4201D300F04FF81B
:1001D00013F0010F18BFFB1A43F0010300F001F800
:1001E000DBE718477CA500009CA50000103A24BF5F
:1001F00078C878C1FAD8520724BF30C830C144BF8C
:1002000004680C6070470000704700000023002461
:1002100000250026103A28BF78C1FBD8520728BF16
:1002200030C148BF0B60704766290AF03F806429DF
:1002300008F03480782908F06D80632908F0A584DF
:10024000732908F0AA84002070471FB50AF021F82E
:100250009DE8030008F0CAF908F0E2FC0400002061
:10026000002109F0B9FFE0601FBD10B510BD08F016
:10027000FDFD1146FFF7E9FF06F080FB08F01BFECD
:1002800003B4FFF7F2FF03BC02F0ABFE0020002135
:10029000AD4A126842F48032AB4B1A6000BF401C7A
:1002A000A94A126802F4003119B94FF6FF72904260
:1002B000F5D1A54A126802F4003232B900BFA24A51
:1002C000126802F40032002AF9D09F4A40321268C4
:1002D00042F080529C4B40331A609C4A126842F4B0
:1002E00040429A4B1A60984A08321268964B08337B
:1002F0001A601A46126842F400421A601A461268DE
:1003000042F4A0521A60924A1B1F1A601A1F126808
:1003100042F080721B1F1A6000BF8B4A126802F005
:100320000072002AF9D0894A126842F48032874B61
:100330001A6000BF854A526802F48032002AF9D060
:10034000824A126842F40032804B1A6000BF7F4A32
:10035000526802F40032002AF9D07B4A083212684F
:1003600022F00302784B08331A601A46126842F0F2
:1003700002021A6000BF744A0832126802F00802D2
:10038000002AF8D0704710B5FFF780FF10BD08B500
:100390007048006840F470006E4908606A48006860
:1003A00040F001006849086000BF6748006800F03D
:1003B00002000028F9D000BF63480830006840F010
:1003C00080006149083108600020009002E0009838
:1003D000401C009000985028F9D35B480830006812
:1003E00040F090005849083108600020009002E079
:1003F0000098401C009000985028F9D300BF524844
:100400000830006820F003004F49083108604E486A
:100410000068514908404C4908600846006820F4CB
:1004200080200860002048490831086000BF464825
:100430000830006800200028F9D148484249091DC9
:100440000860002040490C310860FFF79CFF08BDA0
:100450002DE9FF470FF2081ADAE900C8DAE9029A33
:10046000CDE900C8CDE9029ADFF8DCC00CF1080C38
:10047000DCF800C0CCF3810727B1012F09D0022F8F
:1004800043D10DE0DFF8E8C0DFF8E880C8F800C02D
:1004900042E0DFF8E4C0DFF8DC80C8F800C03BE0F1
:1004A000DFF8A4C00CF1040CDCF800C00CF03F0134
:1004B000DFF894C00CF1040CDCF800C0CCF3881217
:1004C000DFF884C00CF1040CDCF800C0CCF3014C64
:1004D0000CF1010C4FEA4C04DFF86CC00CF1040C79
:1004E000DCF800C00CF48003B3F5800F01D1224882
:1004F00000E01F48B0FBF1FC0CFB02FCBCFBF4FC71
:10050000DFF87080C8F800C006E0DFF864C0DFF8EC
:100510006480C8F800C000BF00BFDFF82CC00CF139
:10052000080CDCF800C0CCF303151DF80560DFF8FB
:1005300044C0DCF800C02CFA06FCDFF83880C8F8AC
:1005400000C0BDE8FF870000003802400070004096
:100550001978400A88ED00E0FFFFF6FE1030002415
:100560000000000000000000010203040607080963
:100570000024F4000000002040787D0109488047F5
:1005800009480047FEE7FEE7FEE7FEE7FEE7FEE775
:10059000FEE7FEE7FEE7FEE704480549054A064B8D
:1005A000704700008F03000889010008F010012047
:1005B000F0180120F0140120F01401200146F94A3E
:1005C00002EB9110D0F8000801F01F0301229A40BD
:1005D000104008B1012070470020FCE7F0B5064646
:1005E0000024002700251C2E7DD007DCB6B3102E7A
:1005F00010D0182E67D01A2E76D176E0B6F5E05FCF
:1006000019D0B6F5E85F4CD0A6F540501038002858
:10061000F2D134E004E01120FFF7D0FF0546641C5E
:100620001DB94FF6FF708442F5D11120FFF7C6FFC8
:1006300000B101277AE005E041F60140FFF7BEFF77
:100640000546641C1DB96FF070408442F4D141F638
:100650000140FFF7B3FF00B1012767E0FFE704E0C7
:100660000120FFF7ABFF0546641C15B9B4F5A06F78
:10067000F6D10120FFF7A2FF00B1012756E005E007
:1006800043F21100FFF79AFF0546641C15B9C648EE
:100690008442F5D143F21100FFF790FF00B101272A
:1006A00044E005E041F60150FFF788FF0546641C71
:1006B00015B9BD488442F5D141F60150FFF77EFFE0
:1006C00000B1012732E004E01920FFF777FF05466B
:1006D000641C15B9B4488442F6D11920FFF76EFFA7
:1006E00000B1012722E010E01FE004E01B20FFF72B
:1006F00065FF0546641C15B9AB488442F6D11B2042
:10070000FFF75CFF00B1012710E004E01D20FFF7B8
:1007100055FF0546641C15B9A3488442F6D11D2037
:10072000FFF74CFF00B1012700E000BF00BF3846D3
:10073000F0BD00B59D48006840F001009B4908608D
:100740000020FFF74BFF99480830006820F00300B5
:1007500096490831086095480068954908409349D2
:1007600008600846006820F4802008608F48083040
:10077000006800F443708D49083108608D48091FF6
:1007800008608C4810388949843108608948091DFF
:100790000860002085490C31086084488C3000686E
:1007A0008549084081498C31086000BD7D4A02EBD3
:1007B0009011D1F8001800F01F0301229A40114354
:1007C000784B03EB9012C2F800187047754A02EBA1
:1007D0009011D1F8001800F01F0301229A409143B4
:1007E000704B03EB9012C2F8001870476D4A02EB91
:1007F0009011D1F8001800F01F0301229A40114314
:10080000684B03EB9012C2F800187047654A02EB80
:100810009011D1F8001800F01F0301229A40914373
:10082000604B03EB9012C2F8001870475D4A02EB70
:100830009011D1F8001800F01F0301229A401143D3
:10084000584B03EB9012C2F800187047554A02EB60
:100850009011D1F8001800F01F0301229A40914333
:10086000504B03EB9012C2F8001870474F4870309D
:10087000006840F480304D497031086070474B4843
:100880007030006820F4803048497031086070474B
:10089000464A0832116821F0030141EA0002434B45
:1008A00008331A60704741480830006800F00C00B7
:1008B00070473E4A0832116821F0F00141EA000217
:1008C0003A4B08331A607047384A0832116821F4ED
:1008D000E05141EA0002354B08331A607047334A51
:1008E0000832116821F4604141EA00022F4B0833BD
:1008F0001A60704710B52D4B08331A6822F0EC626D
:1009000042EA00030B43294C0834236010BD10B5A4
:10091000264B08331A6822F0784242EA00030B4360
:10092000224C0834236010BDF0B50646059C002516
:100930001E488030076807F00040B0F1004F07D133
:1009400007F08040B0F1804F01D1ED1D00E06D1D3A
:10095000022933D33F2931D805F1400090422DD8E8
:10096000B2F5FA7F2AD8022B05D0042B03D0062B30
:1009700001D0082B22D1022C20D30F2C1ED841EA03
:1009800082104FF0010CCCEB530C40EA0C4030438A
:1009900040EA0460DFF814C00CF1040CCCF800004D
:1009A0000EE0000000300240FFFF0F000038024060
:1009B000FFFFF6EA10300024FFFFFCFE0020F0BD30
:1009C0000120FCE70246322A0CD3B2F5FA7F09D89F
:1009D000022907D3072905D8900140EA0170F94B95
:1009E000186001E0002070470120FCE710B50346C5
:1009F000322B1AD3B3F5FA7F17D8022905D0042970
:100A000003D0062901D008290FD1022A0DD3072AC5
:100A10000BD898010124C4EB510440EA044040EA99
:100A20000270E84C241D206001E0002010BD012070
:100A3000FCE7E44A143A116821F4407141EA0002EB
:100A4000E04B143B1A607047DE4A7C3A116821F48F
:100A5000F81141EA0002DB4B7C3B1A607047D94A2F
:100A60007C3A116821F4000141EA0002D54B7C3B3D
:100A70001A607047D34A3C32116821F0010141EA03
:100A80000002D04B3C331A607047CE4A3C321168AA
:100A900021F0020141EA0002CA4B3C331A60704760
:100AA0006FF08071884207D1C6490831096801405A
:100AB000C44A0832116006E0C2490831096801439E
:100AC000C04A083211607047BE4A0832116821F4EA
:100AD000403141EA0002BB4B08331A607047B94A03
:100AE000143A116821F0080141EA0002B54B143BA9
:100AF0001A607047B44A02EB9011D1F8001800F068
:100B00001F0301229A401143AF4B03EB9012C2F82E
:100B100000187047AC4A02EB9011D1F8001800F0B1
:100B20001F0301229A409143A74B03EB9012C2F896
:100B30000018704701461C2932D007DC59B3102930
:100B40000FD018292AD01A292BD128E0B1F5E05F5F
:100B500014D0B1F5E85F20D0A1F54052103A02BBA5
:100B60001AE0984A843A1068126822F48032954B51
:100B7000843B1A6040F480221A6013E0914A143AD0
:100B80001068126822F001028E4B143B1A6040F08C
:100B900004021A6006E000BF00BF00BF00BF00BF34
:100BA00000E000BF00BF704701461C2932D007DCBF
:100BB00059B310290FD018292AD01A292BD128E08F
:100BC000B1F5E05F14D0B1F5E85F20D0A1F5405257
:100BD000103A02BB1AE07B4A843A1068126822F489
:100BE0008032784B843B1A6020F480221A6013E034
:100BF000744A143A1068126822F00102714B143BD7
:100C00001A6020F004021A6006E000BF00BF00BFB7
:100C100000BF00BF00E000BF00BF7047694A843AD0
:100C2000116821F0F80100F01F0241EAC202654B91
:100C3000843B1A60704730B5624C241F236803F070
:100C4000304343EA000444EA413414435D4D2D1F10
:100C50002C6030BD5B48001F006840F000405949DF
:100C6000091F086070475748001F006820F00040C7
:100C70005449091F0860704752488438006840F49E
:100C8000002050498439086070474E488438006815
:100C900020F400204B498439086070474B4849498B
:100CA0007C310860704700F007004649B0310860A9
:100CB00070472DE9F04F8CB0064600200A9044A002
:100CC00090E8004CC068CDE905BECDF810A00790B3
:100CD0000FF2001ADAE9000ACDE9020A0FF2F40A6B
:100CE000DAE9000ACDE9000A36487C380068C0F32A
:100CF00081000B900B9820B1012804D0022828D144
:100D000003E0374927E0374925E02E48803800685E
:100D100000F03F072B4880380068C0F3881C294842
:100D200080380068C0F30140401C4FEA4009254864
:100D30008038006800F48008B8F5800F01D1294B95
:100D400000E0274BB3FBF7F000FB0CF0B0FBF9F130
:100D500001E0234900BF00BF1A487C380068C0F397
:100D6000031404A8055D21FA05F216487C380068D2
:100D7000C0F3822402A8055D22FA05F0099011480B
:100D80007C380068C0F342341DF8045022FA05F0A4
:100D9000089036B1012E06D0022E06D0032E0AD1BD
:100DA00006E00A9108E00A9206E009980A9003E03A
:100DB00008980A9000E000BF00BF0A980CB0BDE898
:100DC000F08F000084380240003002404D3C2B1A66
:100DD00000000000000000000102030406070809EB
:100DE0000024F40040787D012348006840F08070C2
:100DF0002149086070470146204A02EB9110D0F863
:100E0000000801F01F0301229A40104008B10120A0
:100E100070470020FCE7194A02EB9011D1F8001846
:100E200000F01F0301229A401143144B03EB901270
:100E3000C2F800187047114A02EB9011D1F800185F
:100E400000F01F0301229A4011430C4B03EB901258
:100E5000C2F800187047094A02EB9011D1F8001847
:100E600000F01F0301229A409143044B03EB9012C0
:100E7000C2F8001870470000743802400030024089
:100E800010B50446F849601A8C424DD00CDCF74886
:100E90002044E0B1B0F5806F22D0B0F5006F31D0C2
:100EA000B0F5406F52D136E0B0F5806F45D0B0F567
:100EB000184F03D0B0F51C4F48D11AE040F604108B
:100EC000FFF7B4FC40F60410FFF7C0FC3FE040F62B
:100ED0001100FFF7ABFC40F61100FFF7B7FC36E05E
:100EE00040F61200FFF7A2FC40F61200FFF7AEFC3E
:100EF0002DE040F60510FFF799FC40F60510FFF7CE
:100F0000A5FC24E040F61300FFF790FC40F6130028
:100F1000FFF79CFC1BE040F61400FFF787FC40F64F
:100F20001400FFF793FC12E040F61E00FFF77EFC72
:100F300040F61E00FFF78AFC09E040F61F00FFF7AD
:100F400075FC40F61F00FFF781FC00E000BF00BF0A
:100F500010BD2DE9F04704460D460027B846B946B6
:100F60000026C149601A8C4235D00CDCBF482044B1
:100F7000E8B1B0F5806F1FD0B0F5006F21D0B0F5AB
:100F8000406F32D122E0B0F5806F29D0B0F5184F14
:100F900003D0B0F51C4F28D104E00320FFF789FEF1
:100FA000074623E00320FFF784FE07461EE00220E9
:100FB000FFF77FFE074619E00220FFF77AFE07469B
:100FC00014E00220FFF775FE07460FE00220FFF74E
:100FD00070FE07460AE00220FFF76BFE074605E0B9
:100FE0000220FFF766FE074600E000BF00BFE06892
:100FF00000F4004070B1780000EB5500B0FBF5F64E
:101000004FF6F07006EA0008C6F3420948EA090004
:10101000A0600CE007EB5500B0FBF5F64FF6F07062
:1010200006EA000806F00F0948EA0900A060BDE8DA
:10103000F087C26822F4C062C260C2680A43C2601C
:101040007047C26822F48052C260C2680A43C2601C
:101050007047026922F44052026102690A43026148
:101060007047C16841F40051C1607047C16821F404
:101070000051C16070470A460021C16821F0080193
:101080001143C16070470A460021C16821F0040184
:101090001143C16070470A460021D0F8801021F446
:1010A00000611143C0F88010704706292ED2DFE896
:1010B00001F003180A1F1126D0F8802042F4806244
:1010C000C0F8802023E0D0F8802042F40072C0F8FD
:1010D00080201CE0D0F8802042F48072C0F880208C
:1010E00015E0D0F8802022F48062C0F880200EE065
:1010F000D0F8802022F40072C0F8802007E0D0F8F9
:10110000802022F48072C0F8802000E000BF00BF81
:101110007047C26822F40042C260C2680A43C260DB
:101120007047426922F40062426142690A434261A7
:101130007047D0F8801041F00101C0F8801070476E
:10114000D0F8801021F00101C0F88010704750F8ED
:10115000842F02F07F42026002680A4340F884292B
:101160007047C1F308024260704701464868C0F307
:1011700008007047026922F00F020261026901F063
:101180000F031A4302617047C16841F00201C16058
:101190007047C16821F00201C1607047C26822F443
:1011A0000062C260C2680A43C2607047016941F4CC
:1011B000804101617047016921F4804101617047FC
:1011C000026922F020020261026901F020031A4341
:1011D00002617047C16841F00101C1607047416917
:1011E00041F0080141617047416921F00801416106
:1011F0007047016941F4006101617047016921F4A0
:1012000000610161704730B5046924F4E064046151
:1012100001F4807402F400752C4303F480652C43C0
:1012200005692C43046130BD826922F47F428261EA
:1012300082694FF47F4303EA01231A4382617047B6
:10124000416941F0200141617047416921F020016D
:1012500041617047416941F0100141617047416946
:1012600021F01001416170470078004000BCFFBFD1
:1012700050F8802F22F00E02026002680E2303EA6B
:1012800041031A4340F88029704750F8842F22F018
:101290007F42026002684FF07F4303EA01631A4312
:1012A00040F884297047416941F00201416170476B
:1012B000416921F0020141617047826922F0FF0219
:1012C000826182690A4382617047426922F00402A6
:1012D0004261426901F004031A4342617047426966
:1012E00022F480724261426901F480731A434261C0
:1012F0007047426922F400724261426901F400734E
:101300001A434261704750F8C02F22F00402026075
:10131000026801F004031A4340F8C029704750F8EE
:10132000C02F22F002020260026801F002031A4399
:1013300040F8C029704750F8C02F22F00102026027
:10134000026801F001031A4340F8C029704742695E
:1013500022F040024261426901F040031A434261B7
:101360007047426922F080024261426901F08003C5
:101370001A434261704710B5024602EB91100068B3
:1013800001F01F040123A340184008B1012010BD43
:101390000020FCE710B543F2080291420BD100EBAC
:1013A0009112126801F01F040123A3409A4300EB3D
:1013B00091131A6007E001F01F0301229A40D24303
:1013C00000EB91131A6010BD10B500EB911212687A
:1013D00001F01F040123A3401A4300EB91131A608C
:1013E00010BD10B500EB9112126801F01F0401232B
:1013F000A3409A4300EB91131A6010BD70B50246EA
:1014000000230024C1F38910105801F01F060125A4
:10141000B54000EA050302EB91500068C1F30446B1
:101420000125B54000EA050414B10BB1012070BDDF
:101430000020FCE710B500EB91521268C1F30444A0
:101440000123A3409A4300EB91531A6010BD0000A2
:101450004B4901434B4A116070472DE9F041034667
:101460000D46164600240027A0464648006800F4B2
:10147000E060B0F5E06F03D100BF4FF0040830E04A
:101480004048006800F4E060B0F5C06F03D1012768
:101490004FF0030825E03B48006800F4E060B0F539
:1014A000A06F02D10227B8461BE03648006800F45E
:1014B000E060B0F5806F03D103274FF0010810E022
:1014C0003048006800F4E060B0F5407F03D10427A5
:1014D0004FF0000805E04FF4A060FFF7B9FF0227C6
:1014E000B846C7F1040005FA00F4C8F104010F2062
:1014F000C8403040044324012348C45403F01F0172
:10150000012088405911890001F1E021C1F8000152
:10151000BDE8F08100F01F02012191401B4A4311F8
:1015200042F8231070471A4A0A400243154B1B1F0A
:101530001A60BFF34F8F70471249091D09680143B4
:10154000104A121D116070470E49091D0968814338
:101550000C4A121D11607047042808D14FF0E02199
:10156000096941F004014FF0E022116107E04FF0FA
:10157000E021096921F004014FF0E0221161704778
:101580000000FA050CED00E000E400E080E100E07E
:1015900080FFFF1F10B540F60810FFF747F940F62F
:1015A0000810FFF753F910BDF749096821F4E0214D
:1015B000F64AC2F804131146D1F804130143C2F8E5
:1015C00004137047AAB101F480731BB1436843F45C
:1015D0008073436001F480631BB1436843F480630C
:1015E000436001F00203CBB1836843F002038360E0
:1015F00014E001F480731BB1436823F480734360EB
:1016000001F480631BB1436823F48063436001F0FD
:1016100002031BB1836823F002038360704721B18A
:10162000826842F40062826003E0826822F4006211
:1016300082607047816801F0010119B9816841F049
:10164000010181607047816821F00101816070476C
:10165000816841F00801816000BF816801F00801E4
:101660000029FAD1816841F00401816000BF8168DE
:1016700001F004010029FAD17047A1B100F4800201
:1016800032B1C14A126842F48002C04BC3F804234D
:1016900000F40002DAB1BC4A126842F40002BB4B0B
:1016A000C3F8042313E000F4800232B1B64A126892
:1016B00022F48002B54BC3F8042300F4000232B1D7
:1016C000B14A126822F40002B04BC3F804237047F9
:1016D000426822F04072426042680A4342607047AA
:1016E00030B5B1F5007F06D1D0F8804044F40074E5
:1016F000C0F8804005E0D0F8804024F40074C0F8C1
:10170000804050F8804F24F4FE740460046842EA7C
:1017100003052C4340F8804930BDD0F8801041F0DB
:101720000101C0F880107047D0F8801021F001014D
:10173000C0F880107047816841F480718160704703
:10174000816821F4807181607047816841F4007183
:1017500081607047816821F400718160704730B505
:10176000436823F4C0534360012904D0022916D0F2
:10177000042919D119E0436823F460434360082A1F
:1017800008D83AB14368541E4FF4604505EA443422
:1017900023434360436843F40063436006E04368C7
:1017A00043F48053436001E000BF00BF00BF30BD81
:1017B00030B5012902D0022920D10FE06AB1102AE8
:1017C0000BD8C36A23F47003C362C36A541E4FF478
:1017D000700505EA04542343C36210E06AB1042A89
:1017E0000BD8836B23F440138363836B541E4FF435
:1017F000401505EA04542343836300E000BF00BFA3
:1018000030BDF0B51D4606290CDA436B01EB8107AC
:101810001F26BE40B34301EB810602FA06F63343AE
:10182000436322E00C290EDA036B8E1F06EB86075A
:101830001F26BE40B3438E1F06EB860602FA06F64D
:101840003343036311E010290FDAC36AA1F10C06D8
:1018500006EB86071F26BE40B343A1F10C0606EB3C
:10186000860602FA06F63343C3620A2A0CDA0469D2
:1018700002EB42070726BE40B44302EB420605FADC
:1018800006F63443046111E0122A0FDCC468A2F1A9
:101890000A0606EB46070726BE40B443A2F10A0635
:1018A00006EB460605FA06F63443C460F0BDF0B513
:1018B0000C46876BC7F30156042C12D2856B371B7D
:1018C00007EB8707C7F10F0C1F2707FA0CF7BD437B
:1018D000371B07EB8707C7F10F0702FA07F73D43EE
:1018E00085630A2A0DDA016902EB420C072707FA21
:1018F0000CF7B94302EB420703FA07F739430161DA
:1019000012E0122A10DCC168A2F10A0707EB470CAB
:10191000072707FA0CF7B943A2F10A0707EB4707B5
:1019200003FA07F73943C160F0BD70B50B460021DB
:10193000856BC5F30154E51AC5F10301032905D8E8
:101940008900C2F30B0600F114056E5070BD012929
:1019500002D0022910D107E0836823F0706383600E
:1019600083681343836008E0836823F470238360F3
:1019700083681343836000E000BF00BF7047012904
:1019800006D0022916D10CE00423014000200140BA
:10199000836823F040538360836843EA0273836063
:1019A00009E0836823F440138360836843EA0253A9
:1019B000836000E000BF00BF7047012902D0022908
:1019C0000AD104E0826842F08042826005E08268C9
:1019D00042F48002826000E000BF00BF704711B196
:1019E00001290AD104E0826822F48062826005E065
:1019F000826842F48062826000E000BF00BF7047EE
:101A00000146C86C80B2704702460B4633B1012BC9
:101A100006D0022B06D0032B08D105E0D16B07E0DE
:101A2000116C05E0516C03E0916C01E0002100BFF6
:101A300000BF88B27047416821F40071416070476F
:101A4000426822F01F02426042680A4342604268D4
:101A500042F40072426070474268894B1A4042600B
:101A6000012904D0022907D003290FD109E04268D7
:101A700042F4000242600AE0426842F4800242609E
:101A800005E0426842F44002426000E000BF00BF4F
:101A90007047012904D0022907D003290FD109E09A
:101AA000426822F4000242600AE0426822F48002A6
:101AB000426005E0426822F44002426000E000BF5C
:101AC00000BF7047C1F30B038362C2F30B03436291
:101AD00070470246002013680B4003B10120704795
:101AE00002688A4302607047014600200A6802F0DB
:101AF000100202B101207047014600200A6802F07E
:101B0000080202B10120704710B502460B460020C2
:101B1000012B06D0022B0ED0042B16D0202B28D15F
:101B20001DE0146804F00101546804F040040CB195
:101B300001B101201EE0146804F00201546804F0B1
:101B400020040CB101B1012014E0146804F0040178
:101B5000546804F080040CB101B101200AE014685B
:101B600004F02001546804F080640CB101B101203C
:101B700000E000BF00BF10BD02688A4302607047EA
:101B800020290CD0402905D080290DD0B1F1806FDB
:101B900014D10EE0426842F0400242600FE0426819
:101BA00042F0200242600AE0426842F08002426055
:101BB00005E0426842F08062426000E000BF00BF82
:101BC000704720290CD0402905D080290DD0B1F1D3
:101BD000806F14D10EE0426822F0400242600FE0B4
:101BE000426822F0200242600AE0426822F080024D
:101BF000426005E0426822F08062426000E000BF7F
:101C000000BF70471F49096821F01F011E4AC2F832
:101C100004131146D1F804130143C2F804137047AA
:101C20001849096821F47061174AC2F80413114673
:101C3000D1F804130143C2F804137047114909682D
:101C400021F44041104AC2F804131146D1F804139C
:101C50000143C2F8041370470A48006840F400507A
:101C60000949C1F8040370470648006820F4005091
:101C70000549C1F8040370470248001D0068704719
:101C8000FFFD3FFF042301400020014010B5044642
:101C9000C4F3090000285DD1A012A0F5801080389F
:101CA000092857D2DFE800F0050E172029323B44FF
:101CB0004D004FF48060FEF7B9FD4FF48060FEF7F1
:101CC000C5FD48E040F20140FEF7B0FD40F20140A2
:101CD000FEF7BCFD3FE040F20240FEF7A7FD40F2F8
:101CE0000240FEF7B3FD36E040F20340FEF79EFDF2
:101CF00040F20340FEF7AAFD2DE040F20440FEF75B
:101D000095FD40F20440FEF7A1FD24E040F20540BD
:101D1000FEF78CFD40F20540FEF798FD1BE040F217
:101D20000640FEF783FD40F20640FEF78FFD12E00D
:101D300040F20740FEF77AFD40F20740FEF786FDCD
:101D400009E04FF48160FEF771FD4FF48160FEF70A
:101D50007DFD00E000BF00BF10BDF0B504460D469C
:101D600016462168E268002019E0012787401F40DD
:101D70009FB14FEA400C032707FA0CF7B94347001D
:101D800005FA07F739434FEA400C032707FA0CF727
:101D9000BA43470006FA07F73A43471CB8B210287F
:101DA000E3D32160E260F0BDF0B50C461546012C8E
:101DB00003D146681E43466002E046689E43466083
:101DC000826800210DE001268E401E403EB14F008A
:101DD0000326BE40B2434E0005FA06F632434E1CBF
:101DE000B1B21029EFD38260F0BD8161704781628A
:101DF00070470AB1816100E08162704741617047BC
:101E000002461069084008B1012070470020FCE735
:101E10000146086980B2704702465069084008B11F
:101E2000012070470020FCE70146486980B27047F6
:101E3000F0B503461C6A5D6A00200DE0012686406D
:101E400016403EB187000F26BE40B443860001FA1B
:101E500006F63443461CB0B20828EFD3082011E040
:101E60000126864016405EB1A0F10806B7000F2695
:101E7000BE40B543A0F10806B60001FA06F63543A8
:101E8000461CB0B21028EBD31C625D62F0BD4FF46B
:101E900080320A43C261C161C261C269C2697047CE
:101EA000C16270474FF6FF71C16270470020574909
:101EB0000860091D0860091D0860091D0860091DEA
:101EC0000860704710B5514B1B6883434F4C23602B
:101ED000231D1B688343241D2360231D1B6883432C
:101EE000241D2360231D1B688343241D236011B11F
:101EF00001290ED105E0454B1B680343434C236089
:101F000008E0424B1B1D1B680343404C241D23600B
:101F100000E000BF00BF32B1012A11D0022A1CD05C
:101F2000032A27D127E0394B08331B680343374C7A
:101F300008342360231D1B688343241D23601BE09A
:101F4000324B08331B688343304C08342360231D15
:101F50001B680343241D23600EE02C4B08331B68D1
:101F600003432A4C08342360231D1B680343241DAC
:101F7000236001E000BF00BF00BF10BD2349096816
:101F80000143224A116070472049096881431F4A72
:101F9000116070471D49091D096801431B4A121D44
:101FA000116070471949091D09688143174A121DBC
:101FB000116070471549103109680143134A103206
:101FC0001160704711491031096881430F4A10327E
:101FD0001160704701460D4814300068084008B190
:101FE000012070470020FCE7084914310860704761
:101FF0000146064814300068084008B101207047C7
:102000000020FCE70149143108607047003C0140A2
:1020100010B540F60E10FEF709FC40F60E10FEF764
:1020200015FC10BD4849096821F00701464A1160B6
:1020300011460968014311607047434A116821F451
:10204000807141EA0002404B1A6070473E4A1168B5
:1020500021F4406141EA00023B4B1A60704770B5C1
:1020600004460B46CD1701EB9575AD10A1EB850528
:10207000AE000F25B540E843CD1701EB9575AD10C7
:10208000A1EB8505AD0004FA05F2CD1701EB9575BE
:10209000AD1035B1012D10D0022D1AD0032D30D145
:1020A00023E0294B08331B680340274D08352B607C
:1020B0002B461B6813432B6024E0234B0C331B6817
:1020C0000340214D0C352B602B461B6813432B60BE
:1020D00018E01D4B10331B6803401B4D10352B605F
:1020E0002B461B6813432B600CE0174B14331B6803
:1020F0000340154D14352B602B461B6813432B6092
:1021000000E000BF00BF70BD0F4A121D116821F42E
:10211000000141EA00020C4B1B1D1A6070470A4A7D
:102120002032116821F0010141EA0002064B203300
:102130001A60704704482030006800F4807008B1CD
:10214000012070470020FCE70038014010B504462C
:10215000FE49601A8C426FD019DCFD49A4EB0100E6
:102160008C424ED009DCB4F1804F2ED0F948204487
:10217000A0B3B0F5806F72D13AE0B0F5806F49D06E
:10218000B0F5006F4FD0B0F5406FF4D17BE0B0F503
:10219000923F5BD009DCB0F5806F73D0B0F5644F2F
:1021A0000AD0B0F5684F5AD147E0B0F5943F57D008
:1021B000B0F5963F53D15CE04FF41060FEF736FB6C
:1021C0004FF41060FEF742FB79E04FF40060FEF739
:1021D0002DFB4FF40060FEF739FB70E0FFE740F69F
:1021E0000100FEF723FB40F60100FEF72FFB66E03F
:1021F00040F60200FEF71AFB40F60200FEF726FB4F
:102200005DE040F60300FEF711FB40F60300FEF729
:102210001DFB54E040F60400FEF708FB40F6040006
:10222000FEF714FB4BE040F60500FEF7FFFA40F620
:102230000500FEF70BFB42E02EE040F60110FEF732
:10224000F5FA40F60110FEF701FB38E04FF411609B
:10225000FEF7ECFA4FF41160FEF7F8FA2FE02DE0EC
:1022600040F61110FEF7E2FA40F61110FEF7EEFA12
:1022700025E040F61210FEF7D9FA40F61210FEF7EC
:10228000E5FA1CE011E040F60600FEF7CFFA40F652
:102290000600FEF7DBFA12E040F60700FEF7C6FA8A
:1022A00040F60700FEF7D2FA09E040F60800FEF714
:1022B000BDFA40F60800FEF7C9FA00E000BF00BF13
:1022C00010BD00210180418081804FF6FF71816047
:1022D0000021C180017370470A8882629E4A904241
:1022E0000FD0B0F1804F0CD09A4A5242904208D0A1
:1022F0009A4A904205D0964A904202D0984A90421B
:102300000BD1026822F07002026002684B881A4307
:10231000026002688B881A4302608A68C262914A2E
:1023200090420AD0904A904207D0026822F440724C
:1023300002600268CB881A430260874A904202D04A
:10234000874A904201D10A7B0263426942F001024E
:1023500042617047016841F0010101607047016806
:1023600021F0010101607047016841F080010160C6
:102370007047016821F0800101607047016821F019
:10238000020101607047016841F00201016070477D
:10239000026822F06002026002680A43026070472D
:1023A000016821F0100101607047016841F01001DF
:1023B0000160704781621AB9436943F001034361C8
:1023C000704701637047C1627047416270470146C0
:1023D0000020486A7047014600208A6A90B2704720
:1023E00021B9026842F00802026005E0012903D128
:1023F000026822F008020260704721B9026842F0C8
:102400000402026005E0012903D1026822F00402FF
:1024100002607047C2680A43C2607047C2688A435C
:10242000C260704721B9426842F00802426005E08C
:10243000012903D1426822F008024260704710B5BA
:10244000836C41F61F74A3438364836C41EA0204E6
:102450002343836410BD42690A43426170470021EF
:10246000018041808180C1800181418181817047EB
:102470000A884B881A438B881A43CB881A430B89E6
:102480001A434B891A438B891A4342647047416C43
:1024900041F4805141647047416C21F480514164A2
:1024A0007047416C41F4804141647047416C21F4B4
:1024B000804141647047012904D1426C42F40042DA
:1024C000426403E0426C22F40042426470470129F6
:1024D00004D1426842F00102426003E0426822F007
:1024E00001024260704721B9426822F00402426052
:1024F00005E0012903D1426842F0040242607047BE
:102500000021018041808180C1800181418170472B
:1025100010B531B1012950D002297DD003297CD1D9
:10252000D0E0036A23F001030362836923F003030D
:102530008361036A148823430362036A23F002035E
:102540000362036A9488234303620FE0001C004087
:10255000000C004000FCFFBF0000014000080040EC
:10256000000401400010004000140040FA4B984263
:1025700002D0FA4B98421FD1036A23F0040303628E
:10258000036A548823430362036A23F00803036247
:10259000036AD48823430362436823F4807343604F
:1025A0004368148923434360436823F40073436002
:1025B0004368548923434360ABE0036A23F010036C
:1025C0000362836923F440738361036A148843EAD6
:1025D00004130362036A23F020030362036A9488EE
:1025E00043EA04130362DC4B984202D0DB4B98426F
:1025F00026D1036A23F040030362036A548843EA46
:1026000004130362036A23F080030362036AD4881D
:1026100043EA0413036201E013E079E0436823F422
:10262000806343604368148943EA840343604368DA
:1026300023F4006343604368548943EA840343609E
:1026400067E0036A23F480730362C36923F0030322
:10265000C361036A148843EA04230362036A23F410
:1026600000730362036A948843EA04230362BA4B4B
:10267000984202D0B94B984223D1036A23F4806375
:102680000362036A548843EA04230362036A23F45F
:1026900000630362036AD48843EA04230362436845
:1026A00023F4805343604368148943EA041343606E
:1026B000436823F4005343604368548943EA041396
:1026C000436026E0036A23F480530362C36923F462
:1026D0004073C361036A148843EA04330362036AE4
:1026E00023F400530362036A948843EA04330362C9
:1026F000994B984202D0994B984208D1436823F4F1
:10270000804343604368148943EA8413436000E0D4
:1027100000BF00BF10BD31B101290CD0022913D078
:10272000032922D118E0836923F070038361836950
:10273000134383611AE0836923F4E043836183696F
:1027400043EA0223836111E0C36923F07003C3618C
:10275000C3691343C36109E0C36923F4E043C36160
:10276000C36943EA0223C36100E000BF00BF7047B2
:1027700031B1012906D0022906D0032908D105E08C
:10278000426306E0826304E0C26302E0026400E0A8
:1027900000BF00BF704731B101290CD0022913D00E
:1027A000032922D118E0836923F008038361836938
:1027B000134383611AE0836923F4006383618369AF
:1027C00043EA0223836111E0C36923F00803C36174
:1027D000C3691343C36109E0C36923F40063C361A0
:1027E000C36943EA0223C36100E000BF00BF704732
:1027F00031B101290CD0022913D0032922D118E0CC
:10280000836923F0040383618369134383611AE0BE
:10281000836923F480638361836943EA02238361CC
:1028200011E0C36923F00403C361C3691343C361A7
:1028300009E0C36923F48063C361C36943EA0223E7
:10284000C36100E000BF00BF704731B101290CD067
:10285000022913D0032922D118E0836923F08003D1
:1028600083618369134383611AE0836923F400431E
:102870008361836943EA0223836111E0C36923F022
:102880008003C361C3691343C36109E0C36923F4CF
:102890000043C361C36943EA0223C36100E000BF90
:1028A00000BF704731B101290CD0022913D0032990
:1028B00023D119E0036A23F002030362036A13437E
:1028C00003621BE0036A23F020030362036A43EA06
:1028D0000213036212E0036A23F400730362036AC3
:1028E00043EA0223036209E0036A23F4005303620C
:1028F000036A43EA0233036200E000BF00BF70478F
:1029000021B101290AD002291AD110E0036A23F06B
:1029100008030362036A1343036212E0036A23F0AD
:1029200080030362036A43EA0213036209E0036A55
:1029300023F400630362036A43EA0223036200E0B4
:1029400000BF00BF704759B1012911D0022918D02A
:10295000032928D11EE000000000014000040140CE
:10296000036A23F001030362036A134303621BE05B
:10297000036A23F010030362036A43EA021303624B
:1029800012E0036A23F480730362036A43EA0223BA
:10299000036209E0036A23F480530362036A43EA93
:1029A0000233036200E000BF00BF704721B101297C
:1029B0000AD002291AD110E0036A23F0040303624B
:1029C000036A1343036212E0036A23F040030362C5
:1029D000036A43EA0213036209E0036A23F4806393
:1029E0000362036A43EA0223036200E000BF00BF00
:1029F0007047002101800121418000218180C18038
:102A0000704731B101290CD0022913D0032922D1FA
:102A100018E0836923F00C038361836913438361A6
:102A20001AE0836923F440638361836943EA0223E4
:102A3000836111E0C36923F00C03C361C3691343CD
:102A4000C36109E0C36923F44063C361C36943EA16
:102A50000223C36100E000BF00BF704770B50446A9
:102A60000E46154636B1012E26D0022E48D0032E32
:102A70007DD168E0206A20F001002062206A20F009
:102A80000A002062206A298808432062A06920F099
:102A90000300A061A06969880843A061A06920F0D3
:102AA000F000A061A069E98840EA0110A061206AF5
:102AB00040F0010020626DE0206A20F010002062EA
:102AC000206A20F0A0002062206A298840EA0110D4
:102AD0002062A06920F44070A061A069698840EA82
:102AE0000120A061A06920F47040A061A069E9887C
:102AF00040EA0130A061206A40F01000206249E005
:102B0000206A20F480702062206A20F42060206215
:102B1000206A298840EA01202062E06920F0030051
:102B2000E061E06969880843E061E06920F0F00055
:102B3000E061E069E98840EA0110E061206A40F460
:102B40008070206226E0206A20F480502062206A93
:102B500020F400502062206A298840EA0130206277
:102B6000E06920F44070E061E069698800E010E00D
:102B700040EA0120E061E06920F47040E061E06932
:102B8000E98840EA0130E061206A40F48050206228
:102B900000E000BF00BFAA8831462046FFF731FFA2
:102BA00070BD0246002031B1012906D0022906D0AD
:102BB000032908D105E0506B06E0906B04E0D06B70
:102BC00002E0106C00E000BF00BF70472DE9F0414B
:102BD00004460E4615460027B846288808B902273D
:102BE00000E000276888012802D14FF0020801E0C8
:102BF0004FF00108002E4CD1206A20F00100206225
:102C0000206A20F00A002062206A29880843206296
:102C1000A06920F00300A061A06969880843A06151
:102C2000A06920F0F000A061A069E98840EA0110E5
:102C3000A061206A40F001002062AA88002120469D
:102C4000FFF7DFFE206A20F010002062206A20F0EB
:102C5000A0002062206A40EA07102062A06920F4E8
:102C60004070A061A06940EA0820A061A06920F43A
:102C70007040A061A069E98840EA0130A061206A43
:102C800040F010002062AA8801212046FFF7B9FE1B
:102C90004CE0206A20F010002062206A20F0A000A2
:102CA0002062206A298840EA01102062A06920F48D
:102CB0004070A061A069698840EA0120A061A06914
:102CC00020F47040A061A069E98840EA0130A06169
:102CD000206A40F010002062AA8801212046FFF7F8
:102CE00090FE206A20F001002062206A20F00A0095
:102CF0002062206A38432062A06920F00300A061AE
:102D0000A06940EA0800A061A06920F0F000A0617D
:102D1000A069E98840EA0110A061206A40F0010042
:102D20002062AA8800212046FFF76BFEBDE8F081F3
:102D300021B9426842F08002426005E0012903D1D6
:102D4000426822F0800242607047826822F070027E
:102D5000826082680A4382607047426822F0700293
:102D6000426042680A4342607047826822F007026C
:102D7000826082680A438260704721B9826842F0AB
:102D80008002826005E0012903D1826822F080027E
:102D90008260704730B5846824F43F44846084685E
:102DA00041EA02052C438460846844EA0324846079
:102DB00030BD30B5846824F00704846084680C4317
:102DC0008460846940F20335AC438461846940F2D5
:102DD00001152C438461046A24F00A040462046A25
:102DE00024F0A0040462046A42EA03152C4304623E
:102DF00030BD816821F007018160704710B503463E
:102E00000C4621461846FFF7A0FF986820F00700FF
:102E10009860986840F00700986010BD70B504464F
:102E20000E461546602E20D1206A20F01000206248
:102E3000206A20F0A0002062206A40EA051020628B
:102E4000A06920F44070A061A06940F48070A06186
:102E5000A06920F47040A061A06940EA0330A0613D
:102E6000206A40F0100020621EE0206A20F001007D
:102E70002062206A20F00A002062206A2843206233
:102E8000A06920F00300A061A06940F00100A061EA
:102E9000A06920F0F000A061A06940EA0310A061E1
:102EA000206A40F00100206231462046FFF74DFFC6
:102EB000A06820F00700A060A06840F00700A060B4
:102EC00070BDF0B504460D4616461F463B463246D9
:102ED00029462046FFF75EFFA06820F07700A0603B
:102EE000A06840F07700A060F0BDF0B504460D4644
:102EF00016461F463B46324629462046FFF74AFF04
:102F0000A06840F48040A060F0BD816821F4804159
:102F10008160704701657047022906D1D0F8FC2016
:102F200042F00202C0F8FC2006E029B9D0F8FC20EB
:102F300022F00202C0F8FC207047012906D1D0F827
:102F4000FC2042F00102C0F8FC2006E029B9D0F8CC
:102F5000FC2022F00102C0F8FC20704702461069F4
:102F6000084008B1012070470020FCE7CA43026115
:102F70007047C2680A43C2607047C2688A43C26031
:102F800070470246D06800EA01031069084010B19A
:102F90000BB1012070470020FCE7CA430261704773
:102FA00070B505460E46002405E0295D16A005F023
:102FB0002BF9601C84B2B442F7DB14A005F024F9AD
:102FC00000F061F970BD10B54FF4A060FEF740FA53
:102FD00000F0C8F9AFF237014FF4E13000F0E6F845
:102FE00010BD00BF704770B504460D46E1B20848F9
:102FF000FEF7B7F800BF07210548FEF7BCF9002827
:10300000F9D0204670BD0000256300000D0A0000C5
:10301000004C004010B5044604F00100B0B140F689
:103020000240FDF7C3FB4FF48063002201215C489E
:10303000FEF793FE4FF48063022200215848FEF70A
:10304000B3FE4FF480615648FEF7D1FE04F0020053
:10305000022813D14FF44060FDF7A8FB1023002293
:1030600001215048FEF779FE1023022200214D482D
:10307000FEF79AFE10214B48FEF7B9FE04F004005B
:10308000042813D140F60540FDF790FB40230022B1
:1030900001214548FEF761FE4023022200214248FB
:1030A000FEF782FE40214048FEF7A1FE10BD10B59C
:1030B000044604F0010040B14FF480613848FEF747
:1030C00096FE40F60240FDF781FB04F00200022864
:1030D00007D110213348FEF78AFE4FF44060FDF718
:1030E00075FB04F00400042807D140212E48FEF7A8
:1030F0007EFE40F60540FDF769FB10BD10B50446A5
:1031000004F0010020B14FF480612548FEF76DFE08
:1031100004F00200022803D110212248FEF765FEC8
:1031200004F00400042803D140211F48FEF75DFE8F
:1031300010BD10B5044604F0010020B14FF48061C9
:103140001748FEF754FE04F00200022803D11021B4
:103150001448FEF74CFE04F00400042803D140217B
:103160001148FEF744FE10BD10B5044604F00100FE
:1031700020B14FF480610A48FEF792FE04F002008D
:10318000022803D110210748FEF78AFE04F004004C
:10319000042803D140210448FEF782FE10BD000040
:1031A00000080240000002400014024070B50546CD
:1031B0000C4641F21300FDF7F9FA4FF44060FDF7B9
:1031C000F5FA032208214E48FEF732FE03230122BE
:1031D00002214B48FEF7C1FD03230222002148488B
:1031E000FEF7E2FD4748FDF74BFE29464548FDF74F
:1031F000B0FE4448FDF735FF08214248FDF73BFF8C
:1032000004214048FDF73FFF84B13F48046002229B
:1032100011463420FEF721F940F205313948FEF716
:10322000D3F84FF441713748FEF7CEF870BD10B5B2
:103230003420FEF76FF93348FDF718FF41F2130011
:10324000FDF7C4FA4FF44060FDF7C0FA10BD10B5A9
:10325000044621462B48FDF784FF00BF072129487B
:10326000FEF789F80028F9D010BD70B504460D4668
:1032700003E014F8010BFFF7EAFF2800A5F10101B4
:10328000CDB2F6D170BD002004E000211F4A1154D8
:10329000411C88B21E4909888842F6DB00201C497F
:1032A0000880704710B51B491648FEF7A7F801289B
:1032B00011D11448FDF759FF044615480088B0F5B0
:1032C000806F07DA124802880088401C104B188073
:1032D0000E48845412E010490A48FEF78FF801287E
:1032E0000CD10848FDF741FF09480088002805DD9A
:1032F000074801880548044A1268904710BD00003D
:1033000000000240004C004008000020E8000020BF
:103310000C000020050305000403040000BFFEE7C5
:1033200000BFFEE700BFFEE700BFFEE700BFFEE70D
:1033300000BFFEE700BFFEE700BFFEE710B500F0EC
:103340003EF810BD10B5002807DA0A07140E2B4A04
:1033500000F00F031B1FD45403E00A07130E284A82
:10336000135410BD10B5274800684FF47A71B0FBB4
:10337000F1F4601EB0F1807F01D301200FE0601EE8
:103380004FF0E02148610F214FF0FF30FFF7DAFFE7
:1033900000204FF0E021886107200861002008B17B
:1033A00000BFFEE70021481EFFF7CCFF10BD164905
:1033B000086000BF144909680029FBD17047124812
:1033C000006820B110480068401E0F49086070472F
:1033D00010B54FF0E02399690A4B1B684FF47A74DB
:1033E000B3FBF4F3B3FBF4F303FB00F200BF4FF0C5
:1033F000E0239B69CB1A9342F9D310BD18ED00E08E
:1034000000E400E000000020100000207FB5054629
:103410000C4641F20400FDF7C9F95348FEF796FE49
:103420007720ADF800000020ADF80200ADF80400F0
:10343000681E02900020ADF8060069464A48FEF773
:103440004BFF022201213620FEF707F801214648F2
:10345000FFF7A3FD01214448FFF78BFD43480460BB
:103460004148FEF777FF7FBD10B53F48FEF777FF75
:103470003620FEF74FF83C48FEF768FE41F20400A4
:10348000FDF7A4F910BD10B53748FEF763FF10BD76
:1034900010B53548FEF763FF10BD7FB505460C46F5
:1034A00041F20500FDF782F93148FEF74FFE42F682
:1034B000DF60ADF800000020ADF80200ADF80400B8
:1034C000681E02900020ADF8060069462848FEF705
:1034D00003FF022201213720FDF7BFFF012124480D
:1034E000FFF75BFD01212248FFF743FD21480460FF
:1034F0001F48FEF72FFF7FBD10B51D48FEF72FFFB9
:103500003720FEF707F81A48FEF720FE41F20500C3
:10351000FDF75CF910BD10B51548FEF71BFF10BD97
:1035200010B51348FEF71BFF10BD10B501210E4862
:10353000FFF727FD012806D101210B48FFF72DFDDC
:103540000A480068804710BD10B501210848FFF700
:1035500018FD012806D101210548FFF71EFD054889
:103560000068804710BD00000010004014000020DB
:103570000014004018000020F0B587B007460D4643
:1035800016461C464FF48850FDF710F98148FEF7A7
:10359000DDFDEF20ADF80C000020ADF80E00ADF819
:1035A0001000781E05900020ADF812008DF818006C
:1035B00003A97848FEF790FE0120ADF80000002036
:1035C000ADF80400ADF808000420ADF802000020BA
:1035D000ADF80600ADF80A006A4631466D48FEF7C0
:1035E00097FF2A4631466B48FFF7C2F86022314602
:1035F0006848FFF790F874B1022211461B20FDF7CE
:103600002CFF01216348FFF7C8FC01216148FFF747
:10361000B0FC614804605F48FEF7A1FE07B0F0BD52
:1036200010B51B20FDF776FF5A48FEF78FFD4FF4CB
:103630008850FDF7CBF810BD10B55648FEF78AFE4E
:1036400001215448FEF737FF10BD10B55148FEF771
:1036500086FE00214F48FEF72EFF10BD70B50446D0
:103660000D462A4621464B48FFF782F870BDF0B55B
:1036700087B005460E4617461C4641F20100FDF78D
:1036800095F84648FEF762FD42F6DF60ADF80C00A3
:103690000020ADF80E00ADF8100005EB850001210B
:1036A000C1EB400005900020ADF812008DF8180025
:1036B00003A93A48FEF710FE0120ADF800000020F3
:1036C000ADF80400ADF80800ADF80200ADF8060052
:1036D000ADF80A006A4639463048FEF719FF06EB96
:1036E0008600420039462D48FFF742F860223946ED
:1036F0002A48FFF710F874B1022211461D20FDF789
:10370000ACFE01212548FFF748FC01212348FFF7C3
:1037100030FC2348046007B0F0BD10B51D20FDF754
:10372000F9FE1E48FEF712FD41F20100FDF74EF8CA
:1037300010BD10B51948FEF70DFE10BD10B51748A5
:10374000FEF70DFE10BD70B504460D462A46214613
:103750001248FFF70DF870BD10B501210D48FFF7B5
:1037600010FC012806D101210A48FFF716FC0A487F
:103770000068804710BD10B501210848FFF701FC23
:10378000012806D101210548FFF707FC044800681D
:10379000804710BD000001401C00002000040040D4
:1037A0002000002010B5044640F60140FCF7FEFF63
:1037B00040F60140FCF7FAFF41F21200FCF7F6FF79
:1037C0004FF4806207216448FEF732FB4FF4006239
:1037D00007216148FEF72CFB4FF480630122022190
:1037E0005D48FEF7BAFA4FF40063012202215A48FD
:1037F000FEF7B3FA4FF48063022200215648FEF729
:10380000D3FA4FF40063022200215348FEF7CCFAAA
:103810005248FDF735FB21465048FDF79AFB002141
:103820004E48FDF706FC00214C48FDF70AFC00213C
:103830004A48FDF70EFC4948FDF713FC08214748AC
:10384000FDF719FC04214548FDF71DFC0222114635
:103850002720FDF702FE40F205314048FDF7B4FD98
:103860004FF441713D48FDF7AFFD10BD10B5272065
:10387000FDF750FE3948FDF7F9FB3848FDF700FB2E
:1038800040F60140FCF7A2FF40F60140FCF79EFF26
:1038900041F21200FCF79AFF10BD10B50446214614
:1038A0002E48FDF75EFC00BF07212C48FDF763FDA5
:1038B0000028F9D010BD70B504460D4603E014F899
:1038C000010BFFF7EAFF2800A5F10101CDB2F6D107
:1038D00070BD002004E00021214A1154411C88B22F
:1038E000B0F5806FF7DB00201E490880704710B5E7
:1038F0001D491A48FDF782FD012811D11748FDF72F
:1039000034FC044617480088B0F5806F07DA154884
:1039100002880088401C134B18801148845400BF53
:1039200012490E48FDF76AFD012802D10B48FDF748
:103930001CFC0C48008800280CDD002404E0084929
:10394000085DFFF7AAFF641C064800888442F6DB86
:10395000FFF7BFFF10BD0000000402400048004018
:10396000E8040020240000200503050004030400EF
:1039700010B540F60140FCF719FF4FF40052012149
:103980004748FEF755FA4FF40053002202214448FD
:10399000FEF7E3F94FF40053022200214048FEF7FE
:1039A00003FA10BD00B587B04FF48850FCF7FEFE57
:1039B0003C48FEF7CBFB40F2DF10ADF80C000020D6
:1039C000ADF80E00ADF81000632005900020ADF8B2
:1039D00012008DF8180003A93248FEF77DFC012083
:1039E000ADF800000020ADF80400ADF80800042098
:1039F000ADF802000020ADF80600ADF80A006A46F6
:103A000000212848FEF784FD322200212548FEF7D8
:103A1000AFFE602200212348FEF77DFE07B000BD07
:103A200010B5FFF7A5FFFFF7BDFF10BD10B51D488E
:103A3000FEF795FC1B48FEF789FB4FF48850FCF716
:103A4000C5FE40F60140FCF7C1FE10BD10B515489B
:103A5000FEF780FC01211348FEF72DFD10BD10B5C7
:103A60001048FEF77CFC00210E48FEF724FD10BD37
:103A70002DE9F04104460D46164600270BE0FFF7FE
:103A8000E5FF2846FFF793FCFFF7E9FF3046FFF715
:103A90008EFC781C87B2A742F1DBBDE8F081000004
:103AA000000402400000014010B540F60140FCF760
:103AB0007DFE40F60140FCF779FE402301221146CD
:103AC000FE48FEF74AF9402302220121FB48FEF797
:103AD0006BF9802301221146F848FEF73EF9802356
:103AE00002220121F548FEF75FF910BD10B540F63E
:103AF0000140FCF76BFE40F60140FCF767FE10BD8D
:103B000010B5802301221146EC48FEF726F9012268
:103B10008021EA48FEF76DF90520FFF759FC0122E4
:103B20004021E648FEF765F90520FFF751FC002229
:103B30008021E248FEF75DF90520FFF749FC0022ED
:103B40004021DE48FEF755F90520FFF741FC10BD86
:103B500010B5802301221146D848FEF7FEF8002256
:103B60004021D648FEF745F900228021D348FEF7D0
:103B700040F901224021D148FEF73BF90520FFF72B
:103B800027FC01228021CD48FEF733F90520FFF7FD
:103B90001FFC10BD10B50446802301221146C74802
:103BA000FEF7DBF800224021C448FEF722F900228C
:103BB0008021C248FEF71DF90520FFF709FC2CB94A
:103BC00000228021BD48FEF714F904E00122802183
:103BD000BA48FEF70EF901224021B848FEF709F96C
:103BE0000520FFF7F5FB00224021B448FEF701F95C
:103BF00001228021B148FEF7FCF810BD70B5002508
:103C00000A2400224021AD48FEF7F3F8012280216A
:103C1000AA48FEF7EEF8802301220021A748FEF70C
:103C20009CF80520FFF7D4FB01224021A348FEF7B2
:103C3000E0F80520FFF7CCFB04E0601EC4B20520CD
:103C4000FFF7C6FB80219D48FEF7DAF8012801D175
:103C5000002CF2D1002C03DCFFF77AFF012070BDAD
:103C6000002240219548FEF7C4F880230122114626
:103C70009248FEF772F82846F1E770B50446002531
:103C80008023012211468D48FEF767F8002240216B
:103C90008A48FEF7AEF800BF18E0E20980218748A5
:103CA000FEF7A7F800BF012240218448FEF7A1F8E3
:103CB0000520FFF78DFB002240218048FEF799F890
:103CC0000520FFF785FB6006040E6D1C082DE4DB64
:103CD00070BD70B500248023012200217748FEF7D3
:103CE0003CF800251DE0002240217448FEF781F8D1
:103CF0000520FFF76DFB012240217048FEF779F89F
:103D00000520FFF765FB6006040E80216B48FEF777
:103D100077F808B144F001040520FFF759FB681C4F
:103D2000C5B2082DDFDB002240216448FEF761F8B0
:103D3000204670BD70B505460C46FFF7E1FEEE204B
:103D4000FFF79BFFFFF75AFF012802D15CA004F0A8
:103D50005BFA2846FFF791FFFFF750FF012802D1D9
:103D60005CA004F051FA2046FFF787FFFFF746FFFB
:103D7000012802D15CA004F047FAFFF7E9FE70BD0C
:103D80002DE9FC4106460C460027002000900190DA
:103D9000002500BF33E0FFF7B3FEEE20FFF76DFF15
:103DA000FFF72CFF012802D154A004F02DFA71195D
:103DB000C8B2FFF762FFFFF721FF012802D154A02C
:103DC00004F022FA00BF7F1C0120FFF7F0FAFFF792
:103DD00097FEEF20FFF751FFFFF710FF012801D1F9
:103DE000052FF0DBFFF775FF2DF815000120FFF719
:103DF000D1FEFFF7ADFE0120FFF7D9FA6D1CA542F9
:103E0000C9DB022C08D1BDF80200BDF8001040EA61
:103E1000012080B2BDE8FC81032C0CD1BDF800006C
:103E20000004BDF8021040EA0120BDF80410084368
:103E3000C0F30F20EEE70020ECE770B52DED088B06
:103E40000026002400252E21F420FFF773FF062012
:103E5000FFF7ADFA0221F620FFF792FF064631493F
:103E60004989711A2F4A128901FB02F006F0EAF91A
:103E700041EC190B9FED2C0B53EC102B06F0D2F9F3
:103E800041EC180B06F0D7F904462649B1F9141095
:103E9000081906F0D7F941EC190B2249B1F91200C3
:103EA00006F0D0F941EC1B0B9FED210B53EC102BCE
:103EB00006F0D6F941EC1A0B3EE000000004024087
:103EC00057726974655F436D64204E41434B202DEA
:103ED000310D0A0057726974655F436D64204E416D
:103EE000434B202D320D0A0057726974655F436D94
:103EF00064204E41434B202D330D0A00526561640E
:103F00005F526567204E41434B202D310D0A000062
:103F1000526561645F526567204E41434B202D32EC
:103F20000D0A0000E8080020000000000000E0404A
:103F3000000000000000A04053EC192B06F072F9BD
:103F400041EC180B06F077F9054660198C490860BA
:103F500008460068083006F075F941EC1A0B9FED31
:103F6000890B53EC102B06F05DF941EC190B9FED1A
:103F7000870B53EC102B06F073F941EC180B06F08D
:103F800041F900EE100ABDEC088B70BD2DE9FC5F15
:103F900000BF0020019000BF00BFFFF74EFF34229A
:103FA000019802EB8011F420FFF7C4FE0A20FFF70E
:103FB000FEF90321F620FFF7E3FE83467048006810
:103FC000A0F57A6707FB07F000137249B1F90E10EC
:103FD0004843C5126F48B0F902007843C61205EB9A
:103FE00006096C48B0F9000009EB8000801C8010C5
:103FF00000906848B0F904007843451307FB07F0C8
:1040000000136449B1F90C1048430614A819801C28
:104010004FEAA0095F48C08809F5004148434FEACC
:10402000D03A0098ABEB00004CF2503100FB01F8A5
:10403000B8F1004F04D24FEA4800B0FBFAF402E0B6
:10404000B8FBFAF04400201200FB00F540F6DE3029
:1040500068430514504860430614A81900F6CF6061
:1040600004EB201400EE104AB8EEC00ABDE8FC9F35
:1040700010B52DED0A8BB0EE408A9FED480AF0EEA8
:10408000408A9FED470AC8EE000A10EE904A20468B
:1040900006F0F8F841EC1C0B9FED421BB0EE4C0A09
:1040A000F0EE6C0A05F080FBB0EE40BAF0EE60BABC
:1040B0009FED3E0B53EC102B51EC1B0B06F0D9F887
:1040C00041EC1A0B9FED3B0B53EC102B06F0C8F89C
:1040D00041EC190B06F096F808EE900AB0EE680A6B
:1040E000BDEC0A8B10BD10B50221AA20FFF748FED7
:1040F00000B2284908800221AC20FFF741FE00B23F
:10410000244948800221AE20FFF73AFE00B221493F
:1041100088800221B020FFF733FE1E49C8800221AB
:10412000B220FFF72DFE1B4908810221B420FFF7C2
:1041300027FE184948810221B620FFF721FE00B270
:10414000144988810221B820FFF71AFE00B21149F4
:10415000C8810221BA20FFF713FE00B20D49088280
:104160000221BC20FFF70CFE00B20A49488202215E
:10417000BE20FFF705FE00B20649888210BD000090
:10418000280000200000000000003040000000A0D7
:104190009999B93FE808002031E3FFFF00000000D3
:1041A00080E6C547000000C0955BC83F00000000E6
:1041B0000000F03F0000000040A5E54010B540F6CB
:1041C0000140FCF7F3FA4FF48073012211465F4877
:1041D000FDF7C3FD4FF48073022200215B48FDF719
:1041E000E3FD4FF480715948FDF7FFFD10BD10B598
:1041F00040F60140FCF7EAFA10BD10B54FF48073A9
:10420000012211465148FDF7A8FD00224FF48071AC
:104210004E48FDF7EEFD1320FFF7C9F80122110209
:104220004A48FDF7E6FD1420FFF7D2F810BD10B59F
:104230004FF48073012200214448FDF78EFD41F2C6
:10424000883400BF4FF480714048FDF7D9FD10B9A4
:10425000601E0400F6D12820FFF7BAF800BF4FF423
:1042600080713A48FDF7CCFD012802D1601E0400A0
:10427000F5D10CB1012010BD0020FCE770B5002580
:10428000002420E000BF4FF480713048FDF7B8FDF6
:104290000028F8D01E20FFF79BF84FF480712B48C0
:1042A000FDF7AEFD28B1C4F1070101208840284385
:1042B000C5B200BF4FF480712448FDF7A1FD01286D
:1042C000F8D0601CC4B2082CDCDB284670BD7CB57D
:1042D00005460E46FFF791FFFFF7A9FF70B30024D4
:1042E00005E0FFF7CBFF0DF80400601CC4B2052CFD
:1042F000F7DB9DF8000000EE100AB8EE400A9DF8CA
:10430000010000EE900AF8EE600A9FED111A00EE2F
:10431000810A86ED000A9DF8020000EE100AB8EE50
:10432000400A9DF8030000EE900AF8EE600A9FED47
:10433000081A00EE810A85ED000A05E00020064615
:10434000054604A003F060FF7CBD000000040240AD
:10435000CDCCCC3D4448543131206973206E6F740C
:1043600020726573706F6E64696E670010B50446E5
:104370004FF44060FCF71AFA4FF4006208217548C8
:10438000FDF756FD4FF40063012202217148FDF74D
:10439000E4FC4FF40063022200216E48FDF704FDA7
:1043A0004FF44060FCF702FA4FF48052082169484C
:1043B000FDF73EFD4FF48053012202216548FDF7D1
:1043C000CCFC4FF48053022200216248FDF7ECFC44
:1043D00041F20510FCF7EAF95F48FCF751FD4FF494
:1043E000E1315D48FCF7B5FD5B48FCF73AFE08217A
:1043F0005948FCF740FE04215748FCF744FE84B1BD
:1044000056480460022201214720FDF726F840F2B9
:1044100005315148FCF7D8FF4FF441714E48FCF785
:10442000D3FF10BD10B54720FDF774F84A48FCF7DC
:104430001DFE4948FCF724FD41F20510FCF7C6F9C2
:104440004FF44060FCF7C2F94FF44060FCF7BEF94E
:1044500010BD10B5044621463F48FCF782FE00BF60
:1044600007213D48FCF787FF0028F9D010BD70B543
:1044700004460D4603E014F8010BFFF7EAFF28009D
:10448000A5F10101CDB2F6D170BD7CB505460C4653
:10449000334903C9CDE9000128128DF80400E8B2C0
:1044A0008DF8050020128DF80600E0B28DF80700A7
:1044B00008216846FFF7DBFF7CBD002004E00021F7
:1044C000284A1154411C88B2274909888842F6DBE2
:1044D000002025490880704770B504460E46E078F4
:1044E000832809D16079217940EA0125217A28467B
:1044F0001A4A1268904701E0FFF7DFFF70BD10B560
:104500001A491548FCF77AFF012810D11248FCF728
:104510002CFE044614480088092807DA124802884D
:104520000088401C104B18800E48845411E010493C
:104530000948FCF763FF01280BD10748FCF715FE7B
:1045400009480088002804DD074801780548FFF77E
:10455000C3FF10BD00000240001401402C000020E9
:10456000A0A30008FE08002030000020050305007D
:104570000403040010B54FF44060FCF717F94FF442
:10458000806300220221E748FDF7E7FB4FF48063D8
:1045900002220021E348FDF707FC4FF48062072167
:1045A000E048FDF745FC4FF44060FCF7FFF84FF49E
:1045B000007300220221DB48FDF7CFFB4FF40073AC
:1045C00002220021D748FDF7EFFB4FF400720721CC
:1045D000D448FDF72DFC10BD10B541F20410FCF7D6
:1045E000E5F8D148FCF74CFC4FF4E131CE48FCF73C
:1045F000B0FC0021CC48FCF71CFD0021CA48FCF7A8
:1046000020FD0021C848FCF724FDC748FCF729FD20
:104610000821C548FCF72FFD0421C348FCF733FDF2
:10462000022201212520FCF718FF40F20531BE4887
:10463000FCF7CAFE10BD10B5FFF79CFFFFF7CCFFDB
:1046400010BD10B52520FCF765FFB748FCF70EFD3F
:10465000B548FCF715FC41F20410FCF7B7F84FF42D
:104660004060FCF7B3F84FF44060FCF7AFF810BDC2
:1046700010B504462146AC48FCF773FD00BF072186
:10468000A948FCF778FE0028F9D010BD70B50446A3
:104690000D4600BF14F8010BFFF7EAFF681E85B254
:1046A000002DF7D170BD10B58021A04803F05DFF4B
:1046B00000209F49088010BD10B54FF400719D483F
:1046C00003F053FF10BD2DE9F0478046894614469C
:1046D0001D460027012098490870FFF7E4FF0026D7
:1046E0001EE0404603F0F0FE1FFA80FA51464046B5
:1046F000FFF7CCFF10E06420FEF759FE643749460F
:104700008A4803F0CFFE38B100208B490870FFF7CC
:10471000CAFF0120BDE8F087A742ECD3701CC6B2E7
:10472000AE42DEDBFFF7BFFF00208349087000BF09
:10473000F0E710B5814882A10268894803F070FD56
:104740007E4888A102688D4803F06AFD8B4A8CA1DF
:10475000914803F065FD10BD00B52DED048B89B0C7
:104760004FF480718D4803F000FF8D4890ED010AF1
:1047700010EE101A084605F085FD41EC180B88482C
:1047800090ED000A10EE101A084605F07BFD41EC92
:10479000190B83482430A0F11001814A528A804BC2
:1047A0001B8ACDE90432CDE906102438C0681439DB
:1047B0008968CDE902108DED008B53EC192B7949F6
:1047C000764803F02DFD09B0BDEC048B00BD10B59B
:1047D00075480368754876A102687B4803F020FDA0
:1047E00010BD10B579487AA10268894803F018FD18
:1047F00010BD10B50024FFF7EAFFFFF79AFFFFF79F
:10480000F0FF02234FF47A7282A184A0FFF75BFFCE
:10481000012801D000BF43E002234FF47A727DA14A
:1048200080A0FFF750FF012801D0012438E00223C7
:104830004FF47A7277A17DA0FFF745FF012801D0E0
:1048400002242DE0022342F2107272A15E48FFF7AB
:104850003AFF012801D0032422E002234FF47A72A8
:104860006CA16B48FFF72FFF012801D0042417E04B
:1048700002234FF47A7267A170A0FFF724FF01288A
:1048800001D005240CE002234FF47A7261A1424862
:10489000FFF719FF012801D0062401E0012010BD17
:1048A000214670A003F0B0FC0020F8E710B5744971
:1048B0001D48FCF7A3FD012833D171491A48FCF7C4
:1048C000B9FD1D480078012810D1194800888028BA
:1048D00027DA1548FCF749FCC1B215480288008860
:1048E000401C134B1880114881541AE0124800787C
:1048F000B8B964480088B0F5007F12DA0A48FCF7BE
:1049000034FCC1B25F4802880088401C5D4B1880AF
:104910005D4881545DA103F0C5FD10B101205C49E3
:10492000087010BD0000024000100140770900200F
:1049300078000020F70B00207D0000208000002080
:10494000736D617274686F7573655F72656D6F7496
:10495000655F7375627363726962652A257300000F
:10496000770E0020736D617274686F7573655F7385
:1049700075627363726962652A257300B70E002041
:1049800041542B4D5154545355423D302C222573E4
:10499000222C310D0A000000F70F0020F70E002036
:1049A000340000202CA5000888000020840000208E
:1049B00041542B43574A41503D222573222C222536
:1049C00073220D0A00000000F70D00208C0000206B
:1049D00041542B4D515454555345524346473D3055
:1049E0002C312C222573222C226D7174743A726F33
:1049F0006F74222C22786D786C6C41646D696E3214
:104A00003032302E222C302C302C22220D0A000085
:104A1000370E00204F4B0D0A0000000041540D0AD4
:104A200000000000415445300D0A000041542B4362
:104A3000574D4F44453D310D0A00000041542B4D68
:104A4000515454434F4E4E3D302C2234372E393979
:104A50002E3134342E3136222C313838332C300D6F
:104A60000A0000006573703832363620696E69744A
:104A70002065727220636F64653A2564000000004F
:104A8000050305007A000020F70900207D0D0A00CB
:104A90009000002010B540F60440FBF787FE4FF46D
:104AA0000053002211466848FDF757F941F20E10F5
:104AB000FBF77CFE022211462820FCF7CEFC0621E3
:104AC0000846FDF7CCFA002211464FF40050FDF7DE
:104AD000F9F94FF40050FDF751FA4FF40050FDF78B
:104AE00091FA10BD10B540F60140FBF75FFE0223BE
:104AF000002203215548FDF730F941F20910FBF778
:104B000055FEFCF747FD4FF48030FCF74DFD0021CA
:104B10004F48FCF7DDFD00214D48FCF780FD0123E7
:104B2000092200214A48FCF76CFE01221146484840
:104B3000FCF73EFE00224FF480714548FCF742FD31
:104B4000002202214248FCF73DFD4148FCF772FD7E
:104B50000120FEF72CFC3E48FCF77AFD6420FEF7AE
:104B600026FC10BD10B50446FFF7BCFF1CB1FFF7D3
:104B700091FF3848046010BD10B54FF40050FDF7A8
:104B800003FA2820FCF7C6FC41F20E10FBF71EFECC
:104B900040F60440FBF71AFE2D48FCF754FD40F6A2
:104BA0000140FBF713FE41F20910FBF70FFE10BDA9
:104BB00010B50623092200212548FCF722FE012119
:104BC0002348FCF7FAFE00BF02212148FCF781FFD1
:104BD0000028F9D01E48FCF713FF044602211C48A8
:104BE000FCF77EFF204610BD10B52DED068BFFF7BC
:104BF000DFFF0446204605F02CFB41EC1A0B9FED2D
:104C0000160B53EC102B05F00DFB41EC190B9FED2F
:104C1000140B53EC102B05F023FB41EC180B05F0A3
:104C2000F1FA00EE100ABDEC068B10BD10B54FF482
:104C30000050FDF7DDF9012805D14003FDF7E2F949
:104C400004480068804710BD001002400004024084
:104C50000021014094000020000000000000B0404E
:104C60000000006066660A4010B540F60240FBF79F
:104C70009DFD082301221146FE48FDF76EF808232A
:104C800002220021FB48FDF78FF80122114609207E
:104C9000FCF7E3FB03210220FDF7E1F900221146B6
:104CA0000820FDF70FF90820FDF768F90820FDF747
:104CB000A9F910BD10B541F21100FBF777FD4FF4D3
:104CC0004060FBF773FD0C220721EB48FDF7B0F8BD
:104CD0000C2301220221E848FDF73FF80C230222B1
:104CE0000021E548FDF760F8E448FCF7C9F84FF407
:104CF0006141E248FCF72DF90021E048FCF799F901
:104D00000021DE48FCF79DF90021DC48FCF7A1F901
:104D1000DA48FCF7A6F90821D848FCF7ACF90421D9
:104D2000D648FCF7B0F9022201212620FCF795FBBA
:104D300040F20531D148FCF747FB4FF44171CF48B1
:104D4000FCF742FB10BD10B5FFF78EFFFFF7B2FF77
:104D500010BD10B52620FCF7DDFBC848FCF786F92E
:104D6000C648FCF78DF84FF44060FBF72FFD41F289
:104D70001100FBF72BFD0820FDF706F90920FCF7D1
:104D8000C9FB40F60240FBF721FD10BD10B50446FB
:104D90002146BA48FCF7E5F900BF0721B748FCF700
:104DA000EAFA0028F9D010BD70B505460E46002479
:104DB00004E0285DFFF7EAFF601C84B2B442F8DB30
:104DC00070BD30B503460024084603E01D5C254451
:104DD000ECB2401C8D188542F8D8E043401CC0B2AC
:104DE00030BD2DE9F0410646884615461C46002098
:104DF00004E0A349095C2154411CC8B20828F8DB2F
:104E0000EF1D380A207267720A2200212046FFF740
:104E1000D8FFA0729B480068000EE07299480068B5
:104E2000000C207397480088000A6073954800784A
:104E3000A0733012E0732674002006E018F80020FA
:104E400000F111016254411CC8B2A842F6DBAA1D50
:104E50000B212046FFF7B5FF05F111016054BDE8B5
:104E6000F0812DE9F04104460D46607A217A40EA4E
:104E7000012707F10A0014F800807A1E0B21204652
:104E8000FFF79FFF404502D00020BDE8F081E07AA7
:104E90000006217B40EA0140617B40EA0120A17BC2
:104EA00008432860E07B2871207C6871607C0006E4
:104EB000A17C40EA0140E17C40EA0120217D0843D9
:104EC000A860A7F10B0086B22E82002E12DD3046BC
:104ED00003F044F9E860E86808B90020D5E700204D
:104EE00006E000F11501615CEA681154411CC8B28A
:104EF000B042F6DB0120C8E72DE9F04707468846B7
:104F0000154605F11200C6B2B146484603F026F92F
:104F1000044623462A4641463846FFF762FF31469B
:104F20002046FFF741FF204603F047F9BDE8F08730
:104F300010B504465449C86803F03FF900205249AF
:104F4000C860088200BF514800780028FBD04E4955
:104F50004F48FFF786FF14224B49204603F0D3FA4F
:104F600010BD7CB505460C4600200090019025B18F
:104F700001208DF800008DF801400522694640F2BD
:104F80000F20FFF7B9FF7CBD2DE9FC4104460D461B
:104F900016461F4604208DF800008DF801408DF85C
:104FA00002508DF803608DF804700522694640F2C6
:104FB0000F20FFF7A1FFBDE8FC812DE9FC4104466D
:104FC0000D4616461F4603208DF800008DF801405F
:104FD0008DF802508DF803608DF804700522694643
:104FE00040F20F20FFF788FFBDE8FC811CB50446A6
:104FF00000200090019002208DF800008DF8014003
:105000000522694640F20F20FFF776FF1CBD38B538
:10501000044600940122694640F21110FFF76CFF2C
:1050200038BD00B585B0002211464FF48970FFF7F6
:1050300063FF0A20FEF7BBF96846FFF779FFBDF86A
:105040001000032803D10398807805B000BD00202C
:10505000FBE700B585B00022114640F23510FFF79E
:105060004BFF0A20FEF7A3F96846FFF761FFBDF882
:1050700010000FE000080240000002400044004021
:1050800098000020A000002078100120A700002038
:1050900078100020012803D10398007805B000BDE6
:1050A0000020FBE738B504460CB1012000E00020E9
:1050B0000090012269464FF40370FFF71DFF4FF483
:1050C0009670FEF774F90820FCF758FF0820FCF7EB
:1050D00099FF38BD002004E00021244A1154411CEE
:1050E00088B2234909888842F6DB002020490880DD
:1050F0002049087020490870704710B51F492048A2
:10510000FCF77CF9012811D11B48007808B1FFF7A2
:10511000E1FF1B48FCF729F8C1B215480288008856
:10512000401C134B1880114881540BE0154914485A
:10513000FCF764F9012805D11148FCF716F80120A5
:105140000D49087010BD10B50820FCF751FF01286B
:105150000AD108210C48FCF753FE012801D1FCF7C5
:10516000A5FE0820FCF74EFF10BD000078100020BF
:10517000A4000020A6000020A700002005030500D1
:1051800000440040040304000008024010B540F64B
:105190000140FBF70BFB4FF480420921A448FCF7C8
:1051A00047FE4FF4804301220021A148FCF7D5FDC2
:1051B00010BD00B587B041F20600FBF7F7FA772083
:1051C000ADF80C000020ADF80E00ADF810004FF661
:1051D000FF7005900020ADF8120003A99548FDF777
:1051E0007BF80220ADF804000120ADF80600002095
:1051F000ADF80800ADF80A0001AA00218D48FDF7BE
:105200002DFC8C48FDF7B0F802218A48FDF7C5FE59
:1052100002218848FDF7ADFE012211462B20FCF744
:105220001CF98448FDF796F807B000BD10B5044698
:10523000FFF7ACFFFFF7BDFF7F48046010BD10B55E
:105240007C48FDF78CF82B20FCF764F97948FCF7D3
:105250007DFF41F20600FBF7B9FA40F60140FBF78B
:10526000B5FA10BD00207549087048708870C87084
:10527000734908707349087073490880704710B506
:10528000044620786178C943C9B2884200D010BD75
:10529000A078E178C943C9B2884200D0F7E76648F0
:1052A000006818B1A078644909688847FFF7DAFFF9
:1052B00000BFECE7014668293AD012DC38293BD020
:1052C00008DC022928D010293CD0182936D0222900
:1052D0003CD11FE04A2933D05A2935D0622935D133
:1052E00014E0B02926D008DC90291DD098291DD0C3
:1052F000A22909D0A82929D114E0C2290ED0E02979
:105300000ED0E22922D103E0312070473220FCE7A1
:105310003320FAE73420F8E73520F6E73620F4E7C3
:105320003720F2E73820F0E73920EEE73020ECE7CD
:105330002A20EAE72320E8E74F20E6E75520E4E7C4
:105340004420E2E74C20E0E75220DEE74E20DCE795
:1053500070B502213748FDF714FE012866D10221FD
:105360003448FDF71AFE00213248FDF71AFC85B2D9
:1053700035480088854203DD33480088281A05E057
:105380004FF6FF70284430490988401A84B22E48ED
:1053900005802C480078012839D1B4F5FA6F21DD59
:1053A00040F6C41084421DDA254A1078C21700EB7B
:1053B0005272D210214B9A5C214B1978CB1701EB1A
:1053C0005373DB10A1EBC303C3F107060123B34002
:1053D0001A431B4B1878C31700EB5373DB10174E9F
:1053E000F25408E0B4F57A7F03DD40F214508442B1
:1053F00001DBFFF737FF12480078401CC0B21049AC
:105400000870202811D10D48FFF739FF0DE042F652
:10541000E060844209DD43F69820844205DA0120E9
:105420000849087000200649087000BF70BD0000E0
:105430000004024000180040A8000020AC0000203A
:10544000B0000020B1000020B200002010B540F6EE
:105450000640FBF7ABF94023002211466F48FCF7EA
:105460007CFC41F20E10FBF7A1F902221146172035
:10547000FBF7F3FF06210846FCF7F1FD0022114679
:105480004020FCF71FFD4020FCF778FD4020FCF792
:10549000B9FD10BD10B540F60540FBF787F94FF494
:1054A0000073002203215E48FCF757FC41F20A100A
:1054B000FBF77CF9FCF76EF84FF48030FCF774F8DA
:1054C00000215848FCF704F900215648FCF7A7F8DA
:1054D0000123072200215348FCF793F901221146CA
:1054E0005048FCF765F900224FF480714D48FCF7F5
:1054F00069F8002202214B48FCF764F84948FCF7A0
:1055000099F80120FDF753FF4648FCF7A1F8642005
:10551000FDF74DFF10BD10B50446FFF7BBFF1CB1F2
:10552000FFF794FF4048046010BD10B54020FCF721
:105530002BFD1720FBF7EEFF40F60640FBF746F980
:105540003848FCF780F841F20A10FBF73FF940F6C3
:105550000540FBF73BF910BD10B5062307220021DB
:105560003048FCF74EF901212E48FCF726FA00BF1F
:1055700002212C48FCF7ADFA0028F9D02948FCF7A5
:105580003FFA044602212748FCF7AAFA204610BD3C
:1055900010B52DED068BFFF7DFFF0446204604F023
:1055A00058FE41EC1A0B9FED210B53EC102B04F02D
:1055B00039FE41EC190B9FED1F0B53EC102B04F03F
:1055C0004FFE41EC180B04F01DFE00EE100ABDEC7E
:1055D000068B10BD10B54020FCF70AFD012805D14F
:1055E0004020FCF70FFD1048006880478020FCF742
:1055F000FFFC012805D18020FCF704FD0F4800685E
:1056000080474FF48070FCF7F3FC012805D10002BD
:10561000FCF7F8FC0A480068804710BD00180240FB
:105620000014024000220140B400002000000000ED
:105630000000B0400000006066660A40B80000202C
:10564000C400002010B540F60440FBF7AFF84FF45B
:105650000063002202211D48FCF77FFB4FF400632A
:10566000022200211948FCF79FFB4FF40062012140
:105670001648FCF7DDFB4FF400611448FCF7B7FB5C
:105680000023012219464FF47A70FDF775FF10BD13
:1056900010B540F60440FBF799F8FDF7C1FF10BDC7
:1056A00070B504464FF47A706043642190FBF1F5C5
:1056B00029460120FDF7D2FF70BD10B5FDF7BCFFF4
:1056C00010BD10B5FDF7C1FF10BD00000010024075
:1056D00010B540F60540FBF769F88023002211461B
:1056E0007A48FCF73AFB41F20E10FBF75FF8022212
:1056F00011461720FBF7B1FE07210520FCF7AFFC90
:10570000002211468020FCF7DDFB8020FCF736FCF0
:105710008020FCF777FC10BD10B540F60540FBF784
:1057200045F84FF48073002203216848FCF715FB0D
:1057300041F20A10FBF73AF8FBF72CFF4FF48030E8
:10574000FBF732FF00216248FBF7C2FF00216048EF
:10575000FBF765FF0123062200215D48FCF751F8A5
:10576000012211465A48FCF723F800224FF48071B9
:105770005748FBF727FF002202215548FBF722FF7D
:105780005348FBF757FF0120FDF711FE5048FBF788
:105790005FFF6420FDF70BFE10BD10B50446FFF758
:1057A000BBFF1CB1FFF794FF4A48046010BD10B561
:1057B0008020FCF7E9FB1720FBF7ACFE40F6054024
:1057C000FBF704F84248FBF73EFF41F20A10FAF7F4
:1057D000FDFF40F60540FAF7F9FF10BD10B50623AE
:1057E0001A4600213A48FCF70CF801213848FCF72A
:1057F000E4F800BF02213648FCF76BF90028F9D025
:105800003348FCF7FDF8044602213148FCF768F9FB
:10581000204610BD10B52DED068BFFF7DFFF0446C7
:10582000204604F016FD41EC1A0B9FED2B0B53ECB8
:10583000102B04F0F7FC41EC190B9FED290B53ECF6
:10584000102B04F00DFD41EC180B04F0DBFC00EE16
:10585000100ABDEC068B10BD10B52DED088BFFF7BF
:10586000D9FFB0EE408AB1EE040A30EE480AC0EE2D
:10587000080AB6EE000A20EE800A10EE104A204612
:1058800004F000FD41EC1B0B53EC1B2B9FED160BA2
:1058900051EC100B04F0C6FC41EC1A0B9FED141BED
:1058A000B0EE4A0AF0EE6A0A03F07EFFB0EE409ACC
:1058B000F0EE609A51EC190B04F0A4FC08EE900A8B
:1058C000B0EE680ABDEC088B10BD00000014024069
:1058D00000220140B8000020000000000000B0409D
:1058E0000000006066660A40111615713A2953409F
:1058F000000000E0F0F4E43F10B540F60440FAF791
:1059000055FF40F60540FAF751FF40F60140FAF71F
:105910004DFF40F60540FAF749FF40F60140FAF71F
:1059200045FF402301221146FE48FCF716FA4023AA
:1059300002220021FB48FCF737FA01231A461946D8
:10594000F948FCF70AFA012302220021F648FCF785
:105950002BFA082301221146F448FCF7FEF908232C
:1059600002220021F148FCF71FFA202301221146F0
:10597000ED48FCF7F2F9202302220021EA48FCF767
:1059800013FA4FF4806300221146E848FCF7E5F96A
:1059900010BD70B50446002524E004F0800028B155
:1059A00001220821E148FCF724FA04E00022082142
:1059B000DE48FCF71EFAC820FDF70AFD002201218F
:1059C000D948FCF716FAC820FDF702FD012211465E
:1059D000D548FCF70EFAC820FDF7FAFC6006040E65
:1059E000681CC5B2082DD8DB70BD70B500251FE05E
:1059F0006006040E00220121CB48FCF7FAF9C8200A
:105A0000FDF7E6FC4FF48061C848FCF7F9F901287E
:105A100001D144F00104C820FDF7DAFC012211464F
:105A2000C148FCF7E6F9C820FDF7D2FC681CC5B2F6
:105A3000082DDDDB204670BD70B504467E2000EAEF
:105A4000440040F0800600224021B648FCF7D1F91E
:105A50003046FFF79EFFFFF7C8FF054601224021B1
:105A6000B048FCF7C6F9284670BD70B504460D462F
:105A70007E2000EA440600224021AA48FCF7B9F93A
:105A80003046FFF786FF2846FFF783FF01224021BB
:105A9000A448FCF7AEF970BD70B505460C46284623
:105AA000FFF7CAFF064646EA04012846FFF7DDFF76
:105AB00070BD70B505460C462846FFF7BDFF06468B
:105AC00026EA04012846FFF7D0FF70BD10B5142068
:105AD000FFF7B2FF044604F0030018B903211420B5
