:020000040800F2
:100000000835002041030008491D00083F1B000877
:10001000451D0008B90A00088922000800000000F8
:10002000000000000000000000000000890200083D
:10003000BD0A000800000000DD020008191E0008CB
:100040005B0300085B0300085B0300085B03000818
:100050005B0300085B0300085B0300085B03000808
:10006000BF0A00085B0300085B0300085B0300088D
:100070005B0300085B0300085B0300085B030008E8
:100080005B0300085B0300085B0300085B030008D8
:100090005B0300085B0300085B0300085B030008C8
:1000A0005B0300085B0300085B0300085B030008B8
:1000B0005B0300088D1E00089D1E00085B030008FE
:1000C0005B0300085B0300085B0300085B03000898
:1000D0005B030008E92100085B0300085B030008DC
:1000E0005B0300085B0300085B0300085B03000878
:1000F0005B0300085B0300085B0300085B03000868
:100100005B0300085B0300085B0300085B03000857
:100110005B0300085B0300085B0300085B03000847
:100120005B0300085B0300085B0300085B03000837
:100130005B0300085B0300085B0300085B03000827
:100140005B0300085B0300085B0300085B03000817
:100150005B0300085B0300085B0300085B03000807
:100160005B0300085B0300085B0300085B030008F7
:100170005B0300085B0300085B030008000000004D
:100180005B0300085B03000800F002F800F06DF864
:100190000AA090E8000C82448344AAF10107DA45E2
:1001A00001D100F062F8AFF2090EBAE80F0013F0C7
:1001B000010F18BFFB1A43F001031847C05A000093
:1001C000E05A00000A444FF0000C10F8013B13F015
:1001D000070408BF10F8014B1D1108BF10F8015BA0
:1001E000641E05D010F8016B641E01F8016BF9D193
:1001F00013F0080F1EBF10F8014BAD1C0C1B09D1EA
:100200006D1E58BF01F801CBFAD505E014F8016B5B
:1002100001F8016B6D1EF9D59142D6D370470000ED
:100220000023002400250026103A28BF78C1FBD8FF
:10023000520728BF30C148BF0B607047642900F0E7
:100240007381752900F07081782900F0A9816329F4
:1002500000F06283732900F06783002070471FB5A8
:1002600005F094FC1FBD10B510BD00F0F2FB114667
:10027000FFF7F5FF02F0BEF800F010FC03B4FFF743
:10028000F2FF03BC02F025F82A4B19680868B0E8B1
:10029000F04F80F30988BFF36F8F4FF0000080F3B9
:1002A000118870470000000006480068006880F36D
:1002B000088862B661B6BFF34F8FBFF36F8F00DF60
:1002C00000BF00BF08ED00E0DFF80C00016841F45A
:1002D00070010160704700BF88ED00E0EFF3098016
:1002E000BFF36F8F134B1A681EF0100F08BF20ED7D
:1002F000108A20E9F04F106008B44FF0500080F3EE
:100300001188BFF34F8FBFF36F8F04F0B3FC4FF032
:10031000000080F3118808BC19680868B0E8F04F45
:100320001EF0100F08BFB0EC108A80F30988BFF3ED
:100330006F8F704720000020EFF3058070470000AA
:100340000948804709480047FEE7FEE7FEE7FEE769
:10035000FEE7FEE7FEE7FEE7FEE7FEE704480549A5
:10036000054A064B70470000291E00088901000855
:10037000082F002008350020083100200831002017
:10038000704753EA020C00F069802DE9F04B4FF002
:100390000006002B1FBFB3FA83F503FA05F424FA15
:1003A00005F65E4012BF1643B2FA82F502FA05F472
:1003B000C5F120051EBF22FA05FC44EA0C042035D5
:1003C00056EA044C4FEA144418BF641C4FF000086E
:1003D0004FF00009904271EB030C39D3002919BF8B
:1003E000B1FA81F701FA07F6B0FA80F700FA07F6DA
:1003F000C7F120071EBF20FA07FC46EA0C0620378B
:10040000B6FBF4FCA7EB0507103F07F01F0BCBF181
:1004100020060CFA0BFB2CFA06F644BFB346002666
:10042000202FA4BF5E464FF0000B5BEA060C08BF0E
:100430004FF0010B19EB0B09ABFB027C48EB0608F4
:10044000C01B06FB02CC0BFB03CC71EB0C01C1E71C
:100450000B46024641464846BDE8F08B13B54FF0C7
:1004600000004FF00001AFF30080BDE81C40704772
:100470000FB4044910B503AA029800F059FA10BC51
:100480005DF814FB9C00002070B504468569006887
:10049000C10601D5302600E02026C00707D070BD78
:1004A000D4E9012130469047206A401C20626D1E2D
:1004B000F6D570BD70B5044685690078C00707D1D0
:1004C00070BDD4E9012120209047206A401C2062A1
:1004D0006D1EF6D570BD70B50C460546012A05D0D7
:1004E0002878800600D5EA69002302E0012305E0B0
:1004F0005B1C934202D2E05C0028F9D1A869E6189F
:10050000C01AA861286A184428622846FFF7BCFF71
:1005100004E0D5E9012114F8010B9047B442F8D367
:100520002846FFF7C7FF70BD2DE9F04106460024BD
:1005300010687529314616A510D0AFF30080002849
:1005400002DA404213A507E031688A0701D512A5F7
:1005500002E0490704D511A5012401E0AFF30080B2
:1005600000210A2206F1240709E0B0FBF2FCB0FBEF
:10057000F2F302FB1C00303078541846491C002866
:10058000F3D123462A463046BDE8F04100F049B990
:10059000000000002D0000002B00000020000000E3
:1005A00070B504460D4621461068AFF300802188DF
:1005B000090502D50F4A7A4402E00E4A7A440E3207
:1005C000002104F1240305E000F00F060009965D08
:1005D0005E54491C0028F7D120780023000704D579
:1005E000702D02D009B1022311322046BDE87040BF
:1005F00000F017B9F45500002DE9F05F8946044674
:100600004FF0000ADFF874B1FB44C0F820A0204688
:10061000E1688847002874D0252806D0D4E9012154
:100620009047206A401C2062F1E700265F46204682
:10063000E16888472028054607DB312D05D2781967
:1006400010F8200C08B10643F1E7B00701D526F0F9
:100650000406C4F81CA00027C4F818A02A2D09D04D
:10066000284601F02FFE38B304EB8708303DC8F868
:10067000185019E059F8041B204604EB87029161D9
:10068000E1688847012F054618D1E069002820DA83
:1006900026F020061DE0D8F8180000EB800005EBDE
:1006A00040003038C8F818002046E1688847054601
:1006B00001F008FE0028EED1012F0AD02E2D08D11E
:1006C0002046E16888477F1C0546022F46F0200639
:1006D000C4DBA069002803DA404246F00106A061AD
:1006E000F00701D026F010066C2D0BD0682D09D034
:1006F0004C2D39D06A2D35D0742D35D07A2D33D08C
:1007000016E038E0E1682F4620468847B8420546A3
:1007100009D16C2F26D04FF48060E1680643204653
:100720008847054604E06C2F1AD04FF480700643CA
:100730000DB3A5F14100192802D8203546F4006612
:100740004A462946204626604E46FFF777FD80B18F
:1007500001280BD0F61D26F0070000F1080956E726
:100760004020E4E78020D8E70020D6E706F104091E
:100770004DE7284652E7206ABDE8F09FCA550000C1
:10078000032A40F2308010F0030C00F0158011F8BD
:10079000013BBCF1020F624498BF11F801CB00F895
:1007A000013B38BF11F8013BA2F1040298BF00F8E9
:1007B00001CB38BF00F8013B11F0030300F0CA8001
:1007C000083AC0F0088051F8043B083A51F804CBCD
:1007D000A0E80810F5E7121D5CBF51F8043B40F893
:1007E000043BAFF30080D20724BF11F8013B11F89E
:1007F00001CB48BF11F8012B24BF00F8013B00F8E2
:1008000001CB48BF00F8012B704702F0FF0343EA19
:10081000032242EA024200F0D1B8704770477047A5
:1008200070472DE9F0470D4699469246044600F17F
:1008300024080168880604D5E06921F010012160D0
:1008400000E00120A84201DD471B00E00027A1696C
:100850007A1902EB0900081AA0612078C00602D4B8
:100860002046FFF711FE002608E0D4E901211AF81E
:1008700006009047206A401C761C20624E45F4DB3F
:100880002078C0060AD52046FFF7FEFD06E0D4E931
:10089000012130209047206A401C2062381EA7F1B9
:1008A0000107F4DC07E0D4E9012118F805009047BE
:1008B000206A401C2062281EA5F10105F3DC2046B9
:1008C000FFF7F8FD2078000602D50220BDE8F0878A
:1008D0000120FBE701694A1C02610878704700B5F6
:1008E0008FB0CDE901310021059105497944CDE969
:1008F000031011466846FFF77FFE0FB000BD0000F1
:10090000E5FFFFFF10B5436913B1AFF3008001E0CD
:10091000FFF7E1FD012010BD127800F124010A70FB
:1009200000224A700122EDE711684FF0FF32E9E73B
:10093000074B70B50D467B44FFF7D1FF04462846B0
:1009400000F05CF810B14FF0FF3070BD204670BD74
:100950006F1A000010B5203AC0F00B80B1E81850B3
:10096000203AA0E81850B1E81850A0E81850BFF499
:10097000F5AF5FEA027C24BFB1E81850A0E8185038
:1009800044BF18C918C0BDE810405FEA827C24BF8C
:1009900051F8043B40F8043B08BF7047D20728BF1A
:1009A00031F8023B48BF11F8012B28BF20F8023B69
:1009B00048BF00F8012B70474FF000020429C0F037
:1009C000128010F0030C00F01F80CCF1040CBCF17D
:1009D000020F18BF00F8012BA8BF20F8022BA1EBD3
:1009E0000C0100F011B85FEAC17C24BF00F8012BB4
:1009F00000F8012B48BF00F8012B7047007B00F086
:100A0000800070474FF0000200B5134694469646AA
:100A1000203922BFA0E80C50A0E80C50B1F1200111
:100A2000BFF4F7AF090728BFA0E80C5048BF0CC0BF
:100A30005DF804EB890028BF40F8042B08BF70471D
:100A400048BF20F8022B11F0804F18BF00F8012B8F
:100A50007047754600F02CF8AE46050069465346CF
:100A600020F00700854618B020B5FFF777FCBDE8F9
:100A700020404FF000064FF000074FF000084FF005
:100A8000000B21F00701AC46ACE8C009ACE8C00996
:100A9000ACE8C009ACE8C0098D46704710B5044603
:100AA000AFF300802046BDE81040FFF7E7BB000031
:100AB00000487047A82E002000BFFEE7704710B521
:100AC000042000F077F810BD00B587B000BF00200B
:100AD00001901D48006840F001001B49086008466D
:100AE000006800F00100019000BF00BF00BF0020BF
:100AF00001900846006840F0100008600846006851
:100B000000F01000019000BF00BF012002900F48CC
:100B100003900220049002A90D4800F059F81C200F
:100B200002900C4803900120049002A90A4800F0AA
:100B30004FF800220521082000F0B3F9082000F04A
:100B4000A0F907B000BD00003038024000001110CD
:100B5000000002400000211000100240014691F800
:100B60003500022803D08020486501207047052009
:100B700081F835000868006820F001000A681060FC
:100B80000020F3E710B50446642001F0C7FB042CF5
:100B900009D10421054800F01BF918B90448006880
:100BA00004F002FF00BF00BF10BD000000100240B3
:100BB0000800002010B5044604480068204020B119
:100BC000024804602046FFF7DDFF10BD143C0140E1
:100BD000F8B502460B460025002400200021DCE089
:100BE000012606FA01F51E6806EA0504AC4273D137
:100BF0005E68022E02D05E68122E13D1CF0802F179
:100C0000200656F827004E07F70E0F26BE40B043C9
:100C10004F07FF0E1E69BE403043CF0802F1200689
:100C200046F8270010684F000326BE40B0431E79E7
:100C300006F003064F00BE40304310605E68012E90
:100C400008D05E68022E05D05E68112E02D05E6864
:100C5000122E13D190684F000326BE40B0434F00C0
:100C6000DE68BE4030439060506801268E40B0433D
:100C70001E79C6F300168E4030435060D0684F0096
:100C80000326BE40B0434F009E68BE403043D06054
:100C90005E6806F08056B6F1805F7DD100BF002609
:100CA0000096404E366846F480463E4F3E603E46D3
:100CB000366806F48046009600BF00BF3A4E8F08A3
:100CC00056F827008E07370F0F26BE40B043374E29
:100CD000B24202D1002624E05EE0354EB24201D19C
:100CE00001261EE0334EB24201D1022619E0324EF7
:100CF000B24201D1032614E0304EB24201D10426A3
:100D00000FE02F4EB24201D105260AE02D4EB2422D
:100D100001D1062605E02C4EB24201D1072600E0A3
:100D200008268F073F0FBE4030431F4E8F0846F8FE
:100D30002700264E3068A0435E6806F48036B6F57C
:100D4000803F00D12043214E3060361D3068A043E3
:100D50005E6806F40036B6F5003F00D120431B4E16
:100D6000361D3060361D3068A0435E6806F480167C
:100D7000B6F5801F00D12043144E08363060361D72
:100D80003068A0435E6806F40016B6F5001F00D177
:100D900020430E4E0C363060491C1029FFF420AF62
:100DA000F8BD00004438024008380140000002400D
:100DB0000004024000080240000C02400010024003
:100DC0000014024000180240001C0240003C014098
:100DD000024613690B400BB1012000E00020704770
:100DE0000AB1816101E00B0483617047014800682A
:100DF000000C7047002004E00148006870470000C4
:100E00001400002010B50A48006840F4007008493A
:100E100008600846006840F480600860032000F025
:100E20007FF80F2000F006F800F02AF8002010BD2F
:100E3000003C024070B504460E4800784FF47A71C9
:100E4000B1FBF0F00C490968B1FBF0F5284600F061
:100E5000CBFB08B1012070BD102C07D20022214627
:100E6000501E00F01EF80548046001E00120F2E782
:100E70000020F0E71C0000200000002018000020E7
:100E8000704701460846002809DB00F01F030122D5
:100E90009A4043099B0003F1E023C3F8002100BFFF
:100EA00070472DE9F05F80460D461646002701F099
:100EB000EDF9074639462A46334601F00700C0F1EE
:100EC000070ABAF1040F02D94FF0040A01E0C0F199
:100ED000070AD14600F1040ABAF1070F02D24FF017
:100EE000000A01E0A0F1030AD4464FF0010A0AFA11
:100EF00009FAAAF1010A0AEA020A0AFA0CFA4FF000
:100F0000010B0BFA0CFBABF1010B0BEA030B4AEAEA
:100F10000B042146404601F0C1F9BDE8F09F0000F6
:100F200000BF00F00702064B19684FF6FF03194097
:100F3000044B0B4343EA0221014B196000BF704789
:100F40000CED00E00000FA0570B504460D460CB942
:100F5000012070BD5848006800F00F00A84209D277
:100F600055490D700846006800F00F00A84201D0F6
:100F70000120EEE7207800F0020002281DD1207841
:100F800000F00400042805D14C48006840F4E0500B
:100F90004A490860207800F00800082805D1474831
:100FA000006840F46040454908604448006820F00B
:100FB000F000A168084341490860207800F0010072
:100FC000A8B36068012807D13C4808380068C0F31E
:100FD0004040B8B90120BCE76068022802D06068D0
:100FE000032807D1354808380068C0F3406048B985
:100FF0000120AEE7314808380068C0F3400008B966
:101000000120A6E72D48006820F00300616808432E
:101010002A490860FFF7F0FE064609E0FFF7ECFEFC
:10102000801B41F28831884202D9032091E707E012
:101030002248006800F00C006168B0EB810FEDD130
:101040001D48006800F00F00A84209D91A490D7028
:101050000846006800F00F00A84201D0012078E7A0
:10106000207800F00400042807D11448006820F418
:10107000E050E168084311490860207800F008005A
:10108000082808D10D48006820F46040216940EA32
:10109000C1000A49086000F017F808490968C1F35F
:1010A0000311074A515CC840064908600F20FFF74A
:1010B000C1FE00204DE70000003C0240083802401D
:1010C000965B0008000000202DE9F0470024002571
:1010D0000026A1462548006800F00C0020B1042835
:1010E00005D008283AD105E0DFF8849039E0DFF830
:1010F000849036E01D48001F006800F03F041B4844
:10110000001F006800F4800078B11A481749091FD1
:101110000968C1F38811A0FB017001462246002333
:101120003846FFF72EF905460EE011480F49091F12
:101130000968C1F38811A0FB017001462246002313
:101140003846FFF71EF905460848001F0068C0F33F
:101150000140401C4600B5FBF6F902E0DFF81090B4
:1011600000BF00BF4846BDE8F087000008380240D5
:101170000024F40000127A00F8B504460CB90120EE
:10118000F8BD207800F00100002874D0F94800680C
:1011900000F00C0004280DD0F648006800F00C00A8
:1011A000082813D1F348001F006800F48000B0F550
:1011B000800F0BD1EF4808380068C0F3404000288A
:1011C00059D06068002856D10120D9E700BF606877
:1011D000B0F5803F08D1E7480838006840F4803017
:1011E000E449083908601EE06068B0F5A02F0DD111
:1011F000E0480838006840F48020DE49083908607B
:101200000846006840F4803008600CE0D94808388F
:10121000006820F48030D749083908600846006823
:1012200020F48020086000BF606890B1FFF7E4FD03
:10123000054606E0FFF7E0FD401B642801D90320C6
:101240009EE7CC4808380068C0F340400028F1D041
:1012500011E0FFF7D1FD054606E0FFF7CDFD401B8D
:10126000642801D903208BE7C24808380068C0F31E
:1012700040400028F1D1207800F0020002285FD120
:10128000BC48006800F00C0058B1BA48006800F093
:101290000C0008281CD1B748001F006800F480002B
:1012A000B0B9B44808380068C0F3400020B1E06825
:1012B000012801D0012063E7AE480838006820F01B
:1012C000F800216940EAC100AA490839086037E0FE
:1012D000E06800B30120A8490860FFF78DFD0546CE
:1012E00006E0FFF789FD401B022801D9032047E7EC
:1012F000A04808380068C0F340000028F1D09D489D
:101300000838006820F0F800216940EAC1009949D6
:101310000839086014E0002097490860FFF76CFD69
:10132000054606E0FFF768FD401B022801D90320AF
:1013300026E7904808380068C0F340000028F1D143
:10134000207800F0080008282CD16069A8B101209D
:101350008A490860FFF750FD054606E0FFF74CFD9F
:10136000401B022801D903200AE782486C3000683C
:10137000C0F340000028F1D014E000207F4908604D
:10138000FFF73AFD054606E0FFF736FD401B022851
:1013900001D90320F4E677486C300068C0F34000C0
:1013A0000028F1D1207800F00400042870D1002634
:1013B00070483830006800F0805090B900BF0020BD
:1013C00000906C483830006840F0805069493831EE
:1013D00008600846006800F08050009000BF00BF21
:1013E00001266748006800F48070B0B9644800685E
:1013F00040F4807062490860FFF7FEFC054606E095
:10140000FFF7FAFC401B022801D90320B8E65C482C
:10141000006800F480700028F2D000BFA0680128A6
:1014200008D154486830006840F0010051496831E3
:1014300008601DE0A06805280DD14E48683000689E
:1014400040F004004B49683108600846006840F0ED
:10145000010008600CE047486830006820F0010097
:101460004449683108600846006820F004000860BC
:1014700000BFA068A8B1FFF7BFFC054609E0FFF771
:10148000BBFC401B41F28831884202D9032077E639
:1014900026E0384868300068C0F340000028EED0ED
:1014A00013E0FFF7A9FC054608E0FFF7A5FC401B89
:1014B00041F28831884201D9032061E62D48683025
:1014C0000068C0F340000028EFD1012E07D1294861
:1014D0003830006820F0805026493831086000BF5D
:1014E000A069B8B32348006800F00C0008285ED05B
:1014F000A069022846D100201F490866FFF77CFC3E
:10150000054606E0FFF778FC401B022801D90320BE
:1015100036E6184808380068C0F340600028F1D16A
:10152000D4E907010843616A40EA81110122A06AF7
:10153000C2EB500041EA00412C20005D41EA00600E
:101540000C49091F086001200B490866FFF754FC8D
:10155000054607E02DE0FFF74FFC401B022801D9AC
:1015600003200DE6034808380068C0F340600028F7
:10157000F1D01EE00838024000004742800E47428A
:101580000070004000200C490866FFF735FC054656
:1015900006E0FFF731FC401B022801D90320EFE5EC
:1015A00006480068C0F340600028F2D101E0012045
:1015B000E6E50020E4E50000000047420038024074
:1015C000042808D14FF0E021096941F004014FF0EF
:1015D000E022116107E04FF0E021096921F00401E8
:1015E0004FF0E0221161704770B504462546681E31
:1015F000B0F1807F01D301200FE0681E4FF0E021A1
:1016000048610F214FF0FF3000F048FE00204FF0FE
:10161000E021886107200861002070BD7047704795
:1016200010B504460CB9012010BD94F83D0028B94E
:10163000002084F83C00204600F00CF8022084F8DA
:101640003D00211D206800F04BFC012084F83D0086
:101650000020E9E738B504460E492068884217D1D2
:1016600000BF002000900C48006840F002000A49CA
:1016700008600846006800F00200009000BF00BF4C
:10168000032201211D20FFF70CFC1D20FFF7F9FBB1
:1016900038BD0000000400404038024001460868A0
:1016A000C06840F001000B68D8600868806800F0EE
:1016B0000702062A05D00868006840F001000B68A0
:1016C000186000207047704710B504462068006914
:1016D000C0F34000D8B12068C068C0F34000B0B18A
:1016E0006FF002002168086101202077206880697E
:1016F00000F0030018B12046FFF7E5FF05E02046A3
:1017000000F0ADF8204600F0ABF80020207720680C
:101710000069C0F38000D8B12068C068C0F38000C1
:10172000B0B16FF0040021680861022020772068C2
:10173000806900F4407018B12046FFF7C4FF05E04F
:10174000204600F08CF8204600F08AF80020207730
:1017500020680069C0F3C000D8B12068C068C0F339
:10176000C000B0B16FF00800216808610420207744
:101770002068C06900F0030018B12046FFF7A3FFFE
:1017800005E0204600F06BF8204600F069F80020E4
:10179000207720680069C0F30010D8B12068C068C5
:1017A000C0F30010B0B16FF010002168086108208C
:1017B00020772068C06900F4407018B12046FFF718
:1017C00082FF05E0204600F04AF8204600F048F885
:1017D000002020772068006900F0010058B12068DF
:1017E000C06800F0010030B16FF0010021680861AD
:1017F000204600F037F820680069C0F3C01058B1E7
:101800002068C068C0F3C01030B16FF0800021685C
:1018100008612046FFF702FF20680069C0F38010CE
:1018200058B12068C068C0F3801030B16FF040003C
:1018300021680861204600F025F820680069C0F39F
:10184000401058B12068C068C0F3401030B16FF04C
:101850002000216808612046FFF7E1FE10BD7047B7
:10186000704700000549884207D10549096809B950
:10187000012100E00021024A11607047282E00205B
:10188000A8824242704770472DE9F047044620681D
:1018900005682068C668206847694FF00008C1469F
:1018A00005F00F08B8F1000F0AD105F0200038B19B
:1018B00006F0200020B1204600F0D8FBBDE8F087FC
:1018C000B8F1000F6ED007F0010018B906F490705F
:1018D000002867D005F0010030B106F4807018B11F
:1018E000E06B40F00100E06305F0040030B107F068
:1018F000010018B1E06B40F00200E06305F0020067
:1019000030B107F0010018B1E06B40F00400E06373
:1019100005F0080030B107F0010018B1E06B40F0AD
:101920000800E063E06B70B305F0200028B106F01A
:10193000200010B1204600F099FB20684069C0F3F8
:101940008019E06B00F0080010B9B9F1000F23D046
:10195000204600F06BFB2068406900F04000402802
:1019600016D12068406920F0400021684861606B12
:1019700050B11748616B0865606BFFF7EFF810B165
:10198000606B016D88470CE02046FFF77CFF08E0A4
:101990002046FFF778FF04E02046FFF774FF0020A1
:1019A000E0638BE705F0800030B106F0800018B1ED
:1019B000204600F0AEFB81E705F0400030B106F0B4
:1019C000400018B1204600F041FB77E700BF75E703
:1019D000192000082DE9F84304460D4616461F4617
:1019E0004FF0000994F83A00202860D105B116B9EB
:1019F0000120BDE8F88300BF94F83800012801D128
:101A00000220F6E7012084F8380000BF0020E063E0
:101A1000222084F83A00FFF7EFF98146A685E68593
:101A200039E0E08D401EE085A068B0F5805F1BD1F5
:101A30004B46002220212046009700F09EFB08B173
:101A40000320D6E7A846206938B920684068C0F36B
:101A50000800A8F80000AD1C1DE020684068C0B276
:101A6000A8F800006D1C16E04B46002220212046FD
:101A7000009700F082FB08B10320BAE7206920B983
:101A80002068406805F8010B05E02068406800F018
:101A90007F0005F8010BE08D0028C2D1202084F8DA
:101AA0003A0000BF002084F8380000BFA1E7022000
:101AB0009FE700001D4A0168914236D11C49098800
:101AC00001F4004189BB1A49098801F4804171B1D0
:101AD000184909780A2903D00021154A118024E009
:101AE0001349098841F40041114A11801DE0114950
:101AF00009780D2906D10E49098841F480410C4A24
:101B0000118012E00B490978094A1288C2F30D02CC
:101B1000094B995406490988491C054A1180114608
:101B20000988C72901DD002111807047001001409C
:101B3000A0000020A2000020202D0020704700BF40
:101B4000FEE7000000B587B000BF002001901B48F1
:101B5000006840F00100194908600846006800F07C
:101B60000100019000BF00BF00BF002001900846A7
:101B7000006840F0100008600846006800F010009F
:101B8000019000BF00BF01200290002003900220BE
:101B900004900320059002A90948FFF719F81C20BA
:101BA000029000200390012004900320059002A9D8
:101BB0000448FFF70DF807B000BD000030380240C0
:101BC000000002400010024010B50446012C01D173
:101BD0002C4908702B480078002837D010212A485B
:101BE000FFF7F6F878B108212748FFF7F1F850B170
:101BF00004212548FFF7ECF828B101212348FFF71D
:101C0000E7F8012822D10A2000F088FB00201D49B6
:101C1000087010211C48FFF7DBF808B9012010BD3F
:101C200008211948FFF7D4F808B90220F7E7042182
:101C30001548FFF7CDF808B90320F0E70121134854
:101C4000FFF7C6F801281BD10420E8E710210E4851
:101C5000FFF7BEF8012813D108210B48FFF7B8F8A9
:101C600001280DD104210848FFF7B2F8012807D157
:101C700001210648FFF7ACF810B9012001490870AE
:101C80000020CCE7A300002000100240000002402A
:101C900010B5012251020848FFF7A2F8642000F0B5
:101CA0003DFB00224FF400710348FFF799F86420D0
:101CB00000F034FB10BD00000014024010B50122FA
:101CC00091020848FFF78CF8642000F027FB0022FF
:101CD0004FF480610348FFF783F8642000F01EFB97
:101CE00010BD00000014024000B587B000BF002006
:101CF00001901248006840F0200010490860084632
:101D0000006800F02000019000BF00BF4FF4C060E9
:101D100002900120039004900320059002A9084836
:101D2000FEF756FF012251020548FFF759F801223C
:101D300091020348FFF754F807B000BD3038024065
:101D40000014024000BFFEE7704700002DE9F0419B
:101D500092B00446884615461E46002700BF002064
:101D600000902A48006840F08050284908600846E2
:101D7000006800F08050009000BF00BF00BF00204E
:101D800000902348006840F48040214908600846DC
:101D9000006800F48040009000BF00BF0120069062
:101DA0000004079002200C9041050D91CDF8388079
:101DB0000F941095119606A8FFF7DEF907460FB1AC
:101DC00000BFFEE70F200190022002900020039048
:101DD0004FF4A05004904FF480500590052101A8C5
:101DE000FFF7B2F807460FB100BFFEE7FEF7FEFFB0
:101DF00041F20101884205D10648006840F4807034
:101E00000449086012B0BDE8F0810000403802408B
:101E100000700040003C024010B503F0A9FB01280F
:101E200001D003F02BF810BD1448006840F4700096
:101E3000124908601248006840F00100104908602B
:101E400000200F49083108600D4800680D4908401E
:101E50000B4908600C48091D0860081F006820F441
:101E60008020091F0860002005490C3108604FF0F0
:101E700000600249803908607047000088ED00E08A
:101E800000380240FFFFF6FE1030002410B5024873
:101E9000FFF71AFC10BD0000282E002010B50E48D8
:101EA0000068C06800F0010078B10C4908698047FB
:101EB000002009490968486200BF64200649096892
:101EC000C86264210448C16000BF6FF0010002498C
:101ED0000968086110BD0000682E0020E0000020A5
:101EE00010B50268294B98420ED0B0F1804F0BD04C
:101EF000274B984208D0274B984205D0264B984252
:101F000002D0264B984203D122F070024B681A434C
:101F10001E4B984220D0B0F1804F1DD01C4B9842F0
:101F20001AD01C4B984217D01B4B984214D01B4B15
:101F3000984211D01A4B98420ED01A4B98420BD0AF
:101F4000194B984208D0194B984205D0184B98422B
:101F500002D0184B984203D122F44072CB681A4346
:101F600022F080034C6943EA040202608B68C3627A
:101F70000B688362054B984202D0084B984201D10E
:101F80000B6903630123436110BD000000000140A1
:101F90000004004000080040000C00400004014024
:101FA000004001400044014000480140001800404A
:101FB000001C00400020004038B505460C4600BF1C
:101FC000002000901148006840F004000F490860AC
:101FD0000846006800F00400009000BF00BF032224
:101FE00011461E20FEF75DFF1E20FEF74AFF08483F
:101FF000084908600846446000218160C5600161AD
:10200000FFF70EFB0348FFF749FB38BD403802409D
:1020100000080040682E002070B50546AC6B00201B
:10202000E085E0842046FFF72EFC70BD0168C9689A
:1020300021F490710268D1600168496921F00101C1
:1020400002685161202180F83A10704710B50446AB
:102050002068C06820F040002168C860202084F813
:1020600039002046FFF76AFD002010BD70B5044618
:1020700094F83A0022284AD1A068B0F5805F13D1C5
:10208000A56A206940B920684068C0F3080028802C
:10209000A06A801CA06219E020684068C0B2288055
:1020A000A06A401CA06211E0206938B9206840682D
:1020B000C1B2A26A501CA062117007E0206840689B
:1020C00000F07F01A26A501CA0621170E08D401EDA
:1020D00080B2E085C8B92068C06820F0200021687F
:1020E000C8602068C06820F480702168C8602068DB
:1020F000406920F0010021684861202084F83A00FE
:102100002046FFF7D7FC002070BD0020FCE702202E
:10211000FAE7014691F8390021282CD18868B0F5FA
:10212000805F0FD10A6A1088C0F308000B685860FE
:10213000086918B9086A801C086209E0086A401C2E
:10214000086205E00B6A581C086218780B68586032
:10215000C88C401E80B2C88458B90868C06820F096
:1021600080000B68D8600868C06840F040000B68C9
:10217000D860002070470220FCE72DE9F0410446BA
:102180000D4617469846069E21E0701CF8B12EB108
:10219000FEF732FEA0EB0800B04218D92068C068F4
:1021A00020F4D0702168C8602068406920F00100E8
:1021B00021684861202084F8390084F83A0000BF83
:1021C000002084F8380000BF0320BDE8F0812068BB
:1021D00000682840A84201D1012000E00020B84258
:1021E000D3D00020F1E7000008B52448006800685B
:1021F000C0F3401048B34FF47A73012269461F4878
:10220000FFF7E8FB1E48008800F40040E8B91C48CE
:10221000008800F4804070B19DF800000A2803D0C7
:1022200000201749088024E01548008840F4004049
:10223000134908801DE09DF800000D2806D11048C4
:10224000008840F480400E49088012E09DF80000AC
:102250000B490988C1F30D010A4A50540848008807
:10226000401C0749088008460088C72801DD002077
:1022700008800248FFF708FB08BD0000E82D002099
:10228000A0000020202D002000BFFEE702480068CB
:10229000C0F30220704700000CED00E010B50028EC
:1022A00004DB0A07130E054A135406E00A07140E4E
:1022B000034A00F00F031B1FD45410BD00E400E0DC
:1022C00018ED00E030380A2801D2012070470020C4
:1022D000704700BF7047000070B504460420FFF748
:1022E0006FF90C48046025464FF47A70454301208D
:1022F000094908804FF0E020006940F002004FF0EB
:10230000E021086108464561006940F0010008616C
:1023100070BD0000940000209800002070B50446B5
:1023200003F026F9012811D00C480088844206DB0E
:102330000A48008894FBF0F5284602F0CBF90748DC
:10234000008894FBF0F100FB114084B24FF47A71E5
:1023500004FB01F000F004F870BD000098000020BC
:1023600070B5034600224FF0E02675690D4E3668C1
:1023700003FB06F44FF0E026B16910E04FF0E026D1
:10238000B06988420BD0884202D20E1A324402E071
:102390002E1A0E4432440146A24200D300E0EDE77B
:1023A00000BF70BD9400002000BF054A126802F013
:1023B0004002002AF9D0C2B2014B5A6070470000B7
:1023C000001001401CB50648012100238022CDE900
:1023D000001004A1064803F09BF802F06DFB1CBD41
:1023E0000400002073746172745F7461736B000089
:1023F00035310008FEF706FD0723022208214FF4BD
:10240000A870FFF7A3FCA820FFF766FFFFF76CFC9E
:10241000FFF798FBFEF758FB01E0FFF7D3FFFCE75F
:102420002DE9F04105460E461C4807681C48006827
:10243000001D01F091FF50B91948006890F82C1068
:102440000120884017490968814316480160681CCB
:1024500038B936B112480168091D134801F0BAFFB6
:102460001AE07C190E4800684460BC4207D20C4850
:102470000168091D0D48006801F092FF0CE0084852
:102480000168091D0A48006801F08AFF09480068D0
:10249000844201D207480460BDE8F0813400002086
:1024A0002000002038000020E40400202800002044
:1024B000240000205000002010B5044601F096FFD3
:1024C00024480068401C234908602348006840B93C
:1024D000214804600846006801280DD100F0EEF99B
:1024E0000AE01E48006838B91B480068C06AE16A03
:1024F000884201D81848046019480068401C1849EF
:10250000086008460068606494F82C100120884038
:1025100014490968084313490860E16A01EB810125
:10252000114A02EB8100211D01F054FF01F0A2FFCE
:102530000A48006868B108480068C06AE16A8842D1
:1025400007D24FF0805009490860BFF34F8FBFF3A7
:102550006F8F10BD30000020200000203C000020C4
:102560004C000020380000201402002004ED00E0A0
:1025700010B501F03BFF10480068D0B90F4801F0DA
:10258000FFFE0F4801F0FCFE0C480E4908600C48A5
:102590000D49086000221021052002F089FC06493F
:1025A00008600846006820B108A10348006802F0EE
:1025B00055F801F05FFF10BD64000020F804002012
:1025C0000C0500205C00002060000020546D72515A
:1025D0000000000070B523E002F044FB13480068DF
:1025E00008B9012000E00020054603F04DF9BDB90F
:1025F00001F0FCFE0D48C068C468201D01F0ACFE6F
:102600000B480068401E0A4908600A480068401EDE
:102610000849086001F02EFF204600F060F800BF76
:10262000044800680028D7D170BD0000D004002005
:10263000300000202C00002070B504460D46206CB0
:1026400070B1216CE0680844E0606168E06888422D
:1026500001D32068E0602846226CE168FEF790F81C
:1026600070BD2DE9F04104460F4615464FF00008B5
:10267000A66B206C40B9206860BB606803F03EF830
:1026800080460020606025E07DB93946226CA06854
:10269000FEF776F8216CA0680844A060D4E9011028
:1026A000884217D32068A06014E03946226CE068A5
:1026B000FEF766F8216CE068401AE0602168E06887
:1026C000884203D2216C6068401AE060022D01D17B
:1026D00006B1761E701CA0634046BDE8F08110B5BF
:1026E0000446206B01F0FEFE204601F0FBFE10BD0B
:1026F0000146084A126812680AB9012200E0002265
:102700000A600A6822B9034A1268D268106800E0B9
:10271000002070475C00002030B54FF4205317486C
:1027200000F007042CB1C01D20F00700134C041B5F
:102730001B1B0246124C22600024114D6C60D01805
:10274000083820F007000F4C206000240D4D2D6844
:102750006C600C4D2D682C601146441A4C60094C7D
:1027600024680C60084D4C682C60084D4C682C6047
:102770004FF00044064D2C6030BD000020050020C5
:102780007000002078000020800000207C000020E5
:102790008400002000BFFFF71DFF064800680128E5
:1027A000F9D94FF0805004490860BFF34F8FBFF351
:1027B0006F8FF0E71402002004ED00E02DE9F041F6
:1027C00006460D4617469846069C0DB9246000E063
:1027D0002760E66325640121204602F087FC84F827
:1027E00050800020A064BDE8F08100002DE9F05F7A
:1027F00082460F4690469B460A9E0C9C4FEA8801F3
:10280000A522206BFEF701F8A8F10100216B01EB76
:10281000800929F0070909F0070008B9012000E044
:10282000002028B940F22E321BA120A0FDF720FE87
:10283000002507E0795D04F134004155785D00B969
:1028400002E06D1C102DF5D300BF0021432001557F
:10285000202E00D31F26E662E66400202065201D9E
:1028600001F09BFD04F1180001F097FD2461C6F111
:102870002000A06164620020606584F858005A4618
:102880005146484600F03CFC20600B9808B10B987C
:102890000460BDE8F09F00002E2E5C467265655214
:1028A000544F535C7461736B732E63004572726F87
:1028B000723A25732C25640D0A00000010B500241F
:1028C00007E004EB84010F4A02EB810001F058FDA0
:1028D000641C202CF5D30C4801F052FD0B4801F08C
:1028E0004FFD0B4801F04CFD0A4801F049FD0A4834
:1028F00001F046FD04480949086004480849086099
:1029000010BD00001402002094040020A804002040
:10291000BC040020D0040020E40400202400002097
:102920002800002010B50146164800E00068036842
:102930008B42FBD30246436813448B4204D1436865
:102940004C682344436001460A464B6813440468BC
:10295000A34211D10C4C03682468A34208D04B68F1
:102960000468646823444B6003681B680B6005E0DF
:10297000054B1B680B6001E003680B60884200D0C8
:10298000016010BD70000020780000202DE9F041AA
:1029900004460D4616461F464FF000086560246148
:1029A000B5420CD8F01BA169884202D34FF0010850
:1029B00011E0211D0948006801F0F2FC0BE0BE4265
:1029C00004D2BD4202D34FF0010804E0211D0448A7
:1029D000006801F0E5FC4046BDE8F08160000020A1
:1029E0005C00002070B5054601F000FDA86B08B939
:1029F000012400E0002401F03DFD204670BD70B5CB
:102A0000054601F0F3FCA86BE96B884201D1012473
:102A100000E0002401F02EFD204670BD2DE9F341B9
:102A20000D460098846C00272CB940F6CE121AA1EE
:102A30001EA0FDF71DFDA06BE16B884201D20120B5
:102A400000E0002028B940F6CF1213A117A0FDF72F
:102A50000FFDA06BE16B88421BD294F945602A46BA
:102A600069462046FFF7FDFD0746701C60B9606AA5
:102A700008B9012000E0002050B904F1240002F060
:102A8000A9FE28B1012703E0701C40B284F845007C
:102A900000BF3846BDE8FC812E2E5C46726565524B
:102AA000544F535C71756575652E63004572726F86
:102AB000723A25732C25640D0A000000F8B505460E
:102AC0000F4613480068C068C468201D01F044FC2C
:102AD000E069012818D1A06941192B463A462046E1
:102AE000FFF754FF80B1002003462A4601460090BC
:102AF000204602F0F9FF06462EB94FF4027205A1F6
:102B00000AA0FDF7B5FC00BF2046616A8847F8BD02
:102B10005C0000202E2E5C4672656552544F535C5B
:102B200074696D6572732E63000000004572726FE8
:102B3000723A25732C25640D0A000000F0B587B0A9
:102B400070E0039800280CDA04AE2EB940F2E722B8
:102B50003AA140A0FDF78CFCD6E90020B16890476F
:102B600000BF039800285DDB059C606908B901205F
:102B700000E0002010B9201D01F0EEFB02A800F0DB
:102B8000C7F8054603980A284AD2DFE800F009058D
:102B9000072C2E4506082D2F00BF00BF00BF00BF29
:102BA0000498A269811803462A462046FFF7EEFEE4
:102BB000C0B12046616A8847E069012812D100202F
:102BC00000900498A169421800231946204602F09B
:102BD0008BFF07462FB940F2213218A11DA0FDF747
:102BE00047FC00BF1DE000BF1BE000BF0498A061D0
:102BF000A06908B1012000E0002028B94FF44E720E
:102C00000EA114A0FDF734FCA06941192B462A46F9
:102C10002046FFF7BBFE04E0204601F063FC00E025
:102C200000BF00BF00231A4603A90E48006802F047
:102C300079F9002885D107B0F0BD00002E2E5C4642
:102C400072656552544F535C74696D6572732E637F
:102C5000000000004572726F723A25732C25640DD6
:102C60000A00000064000020F8B505460C4601F09B
:102C7000F9FF684600F04CF80646009820BB44B9BE
:102C8000B54206D802F000FE31462846FFF716FF8F
:102C90001CE03CB10E480068006808B9012000E063
:102CA00000200446A91B22460A48006801F0ECFCFB
:102CB00002F0EAFD50B94FF0805007490860BFF3B9
:102CC0004F8FBFF36F8F01E002F0DEFDF8BD000013
:102CD000600000206400002004ED00E00A4909685B
:102CE000096809B9012100E0002121B14FF0FF314D
:102CF000064A116006E004490968C968C868034AC1
:102D0000416811607047000024000020500000203E
:102D100070B5044602F03CFC054607480068854251
:102D200004D200F00BF80120206001E000202060B8
:102D300001480560284670BD6C0000202DE9F8436D
:102D40002DE021480068C06805681F480068C06819
:102D5000C468201D01F000FB2046616A8847E069D5
:102D600001281CD1A0694619AE4207D966602461CA
:102D7000211D1548006801F013FB10E000200346F8
:102D80002A4601460090204602F0AEFE07462FB9C3
:102D900040F292320DA113A0FDF76AFB00BF0A4872
:102DA0000068006808B9012000E000200028C8D0B1
:102DB0000548D0F800800F480068034908600D48B6
:102DC000C0F80080BDE8F8835C0000202E2E5C4631
:102DD00072656552544F535C74696D6572732E63EE
:102DE000000000004572726F723A25732C25640D45
:102DF0000A000000600000200C480068401C08B970
:102E0000012000E0002028B940F20F1208A113A011
:102E1000FDF72EFB00BF502080F31188BFF34F8FCA
:102E2000BFF36F8F00BF00BFFEE7000088000020E7
:102E30002E2E5C4672656552544F535C706F7274EF
:102E400061626C655C525644535C41524D5F434D28
:102E500034465C706F72742E630000004572726FAE
:102E6000723A25732C25640D0A00000070B50546E2
:102E700000262C462DB940F284620EA112A0FDF767
:102E8000F7FA15496069884201D1012000E000206D
:102E900070B11249A06A884201D1012000E00020EF
:102EA00030B9A06A08B9012000E0002000B1012675
:102EB000304670BD2E2E5C4672656552544F535C91
:102EC0007461736B732E63004572726F723A25736F
:102ED0002C25640D0A000000E4040020BC0400203E
:102EE00008B500BF6846FFF703FC0446204600997A
:102EF000FFF7BAFEFFF722FEF4E770B5044601F0D3
:102F000075FA94F945501AE0A06C38B100212046BA
:102F1000FFF784FD88B101F09DFC0EE0606A08B9FE
:102F2000012000E0002038B904F1240002F052FC36
:102F300018B101F08FFC00E003E0681E45B2002DDF
:102F4000E2DC00BFFF2084F8450001F093FA01F0B5
:102F50004DFA94F9445010E0206908B9012000E0CE
:102F6000002048B904F1100002F034FC08B101F06F
:102F700071FC681E45B200E001E0002DECDC00BFF2
:102F8000FF2084F8440001F075FA70BD2DE9F0418E
:102F900004464FF0000801F065FE3E48006808B99D
:102FA000FFF7BAFB3C480068204000285FD1A4B17D
:102FB000083404F0070080B104F00700C0F10800F5
:102FC000044404F0070008B9012000E0002020B903
:102FD000BF2232A13BA0FDF74BFA002C47D03D4861
:102FE0000068844243D83C4E3046056801E02E46D6
:102FF0002D686868A04202D228680028F7D12548C9
:103000000068854233D0306800F1080828683060D5
:103010006868001B102813D92F1907F0070008B99A
:10302000012000E0002020B9EC221CA125A0FDF722
:103030001FFA6868001B78606C603846FFF772FC06
:10304000244968680968081A224908600846006827
:1030500022490968884203D21E4800681F49086057
:103060000D4968680968084368600020286002F01C
:103070000BFC08F0070008B9012000E0002028B987
:103080004FF4967205A10FA0FDF7F2F94046BDE896
:10309000F081000078000020840000202E2E5C4685
:1030A00072656552544F535C706F727461626C65E7
:1030B0005C4D656D4D616E675C686561705F342E57
:1030C000630000004572726F723A25732C25640DFF
:1030D0000A0000007C00002070000020800000201A
:1030E0000648006830B10549096801F15000096DD2
:1030F000491C016001480068704700002000002062
:10310000001F4FF080730360001F21F00103036074
:10311000001F054B036014380260001F6FF00203AC
:103120000360203870470000F92D00080146086848
:10313000704700001CB5044601F058F911480221FF
:1031400000238022CDE900100FA1114802F0E0F920
:103150001048032100238022CDE900100EA1104861
:1031600002F0D6F90F48042100238022CDE9001097
:103170000DA10F4802F0CCF9002001F0E5FA01F0B2
:1031800079F91CBD080000207461736B31000000E8
:10319000B53100080C0000207461736B3200000030
:1031A000C5310008100000207461736B330000000B
:1031B000D531000805E0FEF76BFD4FF4FA7001F021
:1031C00089FAF8E705E0FEF779FD4FF47A7001F02F
:1031D00081FAF8E7002413E00020FEF7F5FC04462E
:1031E000012C04D10748006801F0BCFC05E0022C6A
:1031F00003D10448006801F0E3FB0A2001F06AFAF9
:10320000EAE700000800002030B595B0054613AB92
:1032100012AA09A9284600F03FFA044614B1204634
:1032200015B030BD0020149026E0224909689DF8B1
:10323000502001EBC20113AB11AA486801A900F0AC
:103240002BFA04460CB12046EAE709A901A800F0D0
:10325000E1FC60B99DF844009DF84810884201DD0A
:103260000220DDE79DF85000124988750AE09DF8BC
:103270005000401CC0B214900E48007D9DF85010C4
:103280008842D2DC00BF0B48007D9DF85010884278
:1032900001D10420C4E714A9284600F0DDFA044651
:1032A0000CB12046BCE79DF850000249487500204B
:1032B000B6E70000E00000202DE9F0419AB09C48FC
:1032C000847D007DA04202DC1AB0BDE8F0819849FF
:1032D000096801EBC40106AB07AA486808A900F019
:1032E000DBF908A993A0FDF7C3F8002644E0904855
:1032F000008B0121B1400840D8B122218FA0FDF7F9
:10330000B7F8304600F02EFB89492431471839467A
:103310008BA0FDF7ADF8222188A0FDF7A9F8304673
:1033200000F020FB82492431084410A941F826000E
:1033300018E0304600F016FB7D492431085810A9EA
:1033400041F826007A48C07D30B910A850F8261000
:103350007CA0FDF78DF805E010A850F826107AA0A3
:10336000FDF786F89DF81C00401EB04202D078A000
:10337000FDF77EF8701CC6B29DF81C008642B6DBD5
:1033800074A0FDF775F800F03FFB6948407D0B28FD
:103390000DD2DFE800F0060D151E27323F4E5F729A
:1033A00087006349096851F834008047054690E07A
:1033B0005F4A126852F8341010988847054688E032
:1033C0005B4B1B6853F83420DDE91001904705463C
:1033D0007FE0574F3F6857F8343010A807C8984728
:1033E000054676E0DFF848C1DCF800C05CF83470D0
:1033F00010A80FC8B84705466BE01498DFF830C135
:103400000090DCF800C05CF8347010A80FC8B84712
:1034100005465EE0DDE91401DFF814C1CDE90001E5
:10342000DCF800C05CF8347010A80FC8B847054637
:103430004FE0DDE914121698DFF8F4C0CDE9001270
:103440000290DCF800C05CF8347010A80FC8B847D0
:1034500005463EE0DDE91423DDE91610DFF8D0C0B3
:10346000CDE90023CDE90210DCF800C05CF834702F
:1034700010A80FC8B84705462BE0DDE91523DDE9A4
:103480001710CDE90123CDE903101498DFF8A0C08F
:103490000090DCF800C05CF8347010A80FC8B84782
:1034A000054616E0DDE91623DDE91810CDE9022313
:1034B000CDE90410DDE91401DFF874C0CDE90001A5
:1034C000DCF800C05CF8347010A80FC8B847054697
:1034D00000BF00BF00F056FA9DF8180001280CD17B
:1034E0001348C07D20B929461BA0FCF7C1FF07E0A7
:1034F00029461BA0FCF7BCFF02E018A0FCF7B8FFB0
:103500000B4890F8EC0088B10948D0F8F0000A2187
:10351000B0FBF1F201FB12070548D0F8F000B0FB58
:10352000F1F83A46414611A0FCF7A2FF00BFCBE6F6
:10353000E00000200D0A257328000000256300002C
:1035400025730000256C64003058255800000000E9
:103550002C000000290000003D256C753B0D0A0081
:103560003D305825583B0D0A0000000046756E633B
:1035700074696F6E2052756E2054696D653A2564CA
:103580002E2531646D730D0A00000000F0B503466E
:10359000154600200022002600245BE01F782C2F17
:1035A00001D104B901221F78292F01D01F780FB94A
:1035B00004B950E0002E3AD11F78302F02DB1F787B
:1035C000392F17DD1F782D2F14D01F782B2F11D0F6
:1035D0001F78612F02DB1F78662F0BDD1F78412FCC
:1035E00002DB1F78462F05DD1F78582F02D01F7889
:1035F000782F0CD102B12EE01F78612F03DB1F78EA
:10360000203F0F7001E01F780F70491C1FE01F78EA
:10361000222F04D102B11EE00126012417E01F78F9
:10362000202F14D01F782C2F11D0FF2613E01F78E5
:10363000222F00D1002402B10DE044B11F785C2F8D
:1036400002D15B1C471CF8B21F780F70491C471C45
:10365000F8B25B1CA2E700BF00270F702E70F0BD10
:1036600010B50446002010700BE020780870641C30
:10367000491C1078401C10701078984201DB012022
:1036800010BD2078202802D020780028EDD100201D
:10369000087000BFF4E700002DE9FF4F85B08046B9
:1036A00089460027002004900390012002904FF0EB
:1036B000000B002544461DE02078202816D005F098
:1036C0007F00052812DA0DB945F0800505F07F006E
:1036D000042803D120782A2800D00EE0207805F0B5
:1036E0007F010DF80100681CC5B202E0852D00D1F4
:1036F00003E0641C20780028DED100BF8DB10020DB
:1037000005F07F010DF8010051A1684600F082FA32
:1037100018B900210898017002E001210898017091
:1037200000254FF0000A444614E0641C0AF1010031
:1037300000F0FF0A2078202802D020782A2809D11A
:10374000204600F0D9F90646282E03D02A2E01D0B3
:10375000CDF810A02078282802D020780028E4D1C5
:103760004446049810B10498401C04444FF0000AE9
:10377000002654E0207810B94FF0010A50E020787C
:10378000282803D116B9781CC7B213E0207829285D
:1037900008D13EB917B1781EC7B201E04FF0010A57
:1037A00047B93DE02078222804D10EB9012000E07D
:1037B0000020064647B9207820282FD0207889F8A5
:1037C000000009F1010929E020782C2804D101200A
:1037D0000290681CC5B214E02078202811D020780F
:1037E00028280ED04DB9BBF1050F06DA20780DF868
:1037F0000B000BF1010000F0FF0B0298401CC0B25F
:103800000290012F0AD10298022807D10298401C89
:10381000C0B202900398401CC0B20390641CA9E798
:1038200000BF0398012809D100200DF80B0008A162
:10383000684600F0EFF908B9002003900799039853
:103840000870002089F80000504609B0BDE8F08FEC
:10385000766F6964000000002DE9F043B5B00546BD
:103860000F460024002604E000213D488155701CCD
:10387000C6B20A2EF8DB06E06D1C287818B90120C4
:1038800035B0BDE8F08328782828F5D16D1C61E0BB
:1038900034AA69462846FFF779FE064635449DF866
:1038A000D00020B1012827D0FF284CD149E09DF855
:1038B000000000B333A9684600F029F906460EB1AE
:1038C0000220DDE7204600F04DF825490A31339A01
:1038D0000A50A1F12400008B0121A1408843204916
:1038E0001A39088304211E480155601CC4B20A2CF1
:1038F00001DD0320C4E726E0684600F0A7F9401C7C
:1039000000F0FF08204600F02DF815490A3100EBC1
:1039100001094946684600F08EF911481A38018BB2
:103920000120A040014388B20D491A3908830C4890
:1039300000F80480601CC4B20A2C01DD03209FE75C
:1039400001E002209CE700BF2878292801D02878D0
:1039500000B900E09CE700BF3C70002090E7000049
:10396000FA00002002460020002105E0044B5B5CC9
:103970000344D8B24B1CD9B29142F7DB7047000028
:10398000FA0000200E480068006900F0010040B114
:103990000C48D0F8F0004FF6FF7108440949C1F80F
:1039A000F0000848D0F8F00005490968496A084461
:1039B0000449C1F8F0000846D0F8F0007047000054
:1039C000682E0020E000002010B5044604EBC4007F
:1039D00000EB04100122C2EB800081B24FF47A7038
:1039E000FEF7EAFA01200149C87510BDE000002089
:1039F00010B50246012000E050430B1EA1F1010466
:103A0000E1B2F9D110BD00006FF001000949096869
:103A1000086100BF000C07490968C86201460548F3
:103A2000C16000BF00200349096848620249C1F82B
:103A3000F0007047682E0020E000002070B51D489F
:103A4000008800F40040002833D01A480578002090
:103A500019494855194881681748884704461CB9D0
:103A60001649C868804721E0134800F0FBF8054676
:103A7000012D00D02C46CCB1012C06D0022C08D050
:103A8000032C0AD0042C10D10BE00DA0FCF7F0FCA5
:103A90000BE00EA0FCF7ECFC07E00FA0FCF7E8FC45
:103AA00003E010A0FCF7E4FC00BF00BF00200149C8
:103AB000088070BDA0000020202D0020E000002024
:103AC000BAAFCAFDB4EDCEF3210D0A00B2CECAFDE5
:103AD000B4EDCEF3210D0A00B2CECAFDCCABB6E0F8
:103AE000210D0A00CEB4D5D2B5BDC6A5C5E4B5C476
:103AF000BAAFCAFD210D0A000146491C00E0491C6D
:103B00000878202801D10029F9D1087870472DE9DB
:103B1000F04F05460F4600264FF00A09B3462C46E3
:103B20000020386034E02078392802DC2078302802
:103B300011DA28782D2802D028782B2800D156B108
:103B40002078462802DC2078412804DA207858289A
:103B500017D1012E15D12078412801DB4FF0100933
:103B600028782D2803D14FF0020B6D1C0FE0287828
:103B70002B2803D14FF0010B6D1C08E0701CC6B25E
:103B800005E0207800B904E00120BDE8F08F641C56
:103B9000C9E700BF2C46B9F1100F0FD1032E01DA8F
:103BA0000220F2E72078302806D16078582803D127
:103BB000A41CB01EC6B204E00320E6E70EB9042040
:103BC000E3E71BE00EB1701EC6B22078392806DC90
:103BD0002078302803DB2078A0F1300A02E020783A
:103BE000A0F1370A31464846FFF702FF39680AFB61
:103BF00000103860641C207800B900E0E2E700BFE4
:103C0000BBF1020F04D13868C0F10008C7F800808A
:103C10000020BAE702460AE010780B78984201D0FB
:103C200001207047107800B902E0521C491CF3E7EC
:103C300000BF0020F5E706E002780A70027802B9BA
:103C400002E0401C491CF7E700BF70470146002016
:103C500005E00A7802B903E0421CD0B2491CF8E73B
:103C600000BF704710B58CB004461E230BAA03A9F1
:103C70002046FFF7F5FC0090009810B101200CB031
:103C800010BD9DF82C00044400200B900EE040482D
:103C90009DF82C2050F8221003A8FFF7BBFF00B9B5
:103CA00008E09DF82C00401CC0B20B909DF82C0041
:103CB0000728ECD300BF9DF82C00072863D2DFE86B
:103CC00000F004053C5E6564630000BF31A0FCF7B2
:103CD000CFFB31A0FCF7CCFB3FA0FCF7C9FB4EA00B
:103CE000FCF7C6FB5CA0FCF7C3FB6BA0FCF7C0FBBA
:103CF00079A0FCF7BDFB87A0FCF7BAFB8CA0FCF712
:103D0000B7FB94A0FCF7B4FB98A0FCF7B1FB9DA017
:103D1000FCF7AEFBA2A0FCF7ABFBA8A0FCF7A8FB4E
:103D2000B4A0FCF7A5FBC1A0FCF7A2FBCCA0FCF75C
:103D30009FFBD8A0FCF79CFBA2E216A0FCF798FB27
:103D4000E4A0FCF795FB00200B900EE0F148006822
:103D50009DF82C2000EBC2004168EFA0FCF788FB27
:103D60009DF82C00401CC0B20B90EA48007D9DF8E5
:103D70002C108842EADC07A0FCF77AFB80E205A061
:103D8000FCF776FBCCE179E24DE221E2F4E10000C0
:103D9000A40000200D0A00002D2D2D2D2D2D2D2DE0
:103DA0002D2D2D2D2D2D2D2D2D2D2D2D2D2D2D2D43
:103DB00055534D4152542056332E332D2D2D2D2D3C
:103DC0002D2D2D2D2D2D2D2D2D2D2D2D2D2D2D2D23
:103DD0002D2D2D200D0A00002020202055534D416F
:103DE0005254CAC7D3C9414C49454E54454BBFAA4A
:103DF000B7A2B5C4D2BBB8F6C1E9C7C9B5C4B4AEA1
:103E0000BFDAB5F7CAD4BBA5BDBBD7E9BCFE2CCD84
:103E1000A8B9FD200D0A0000CBFC2CC4E3BFC9D219
:103E2000D4CDA8B9FDB4AEBFDAD6FACAD6B5F7D3A9
:103E3000C3B3CCD0F2C0EFC3E6B5C4C8CEBACEBAD5
:103E4000AFCAFD2CB2A2D6B4D0D02ED2F2B4CB2CB5
:103E5000C4E3BFC90D0A0000D2D4CBE6D2E2B8FC5D
:103E6000B8C4BAAFCAFDB5C4CAE4C8EBB2CECAFD85
:103E700028D6A7B3D6CAFDD7D62831302F3136BDC4
:103E8000F8D6C62CD6A7B3D6B8BACAFD29A1A2D7F0
:103E9000D6B7FBB4AE0D0A00A1A2BAAFCAFDC8EBFB
:103EA000BFDAB5D8D6B7B5C8D7F7CEAAB2CECAFD55
:103EB000292CB5A5B8F6BAAFCAFDD7EEB6E0D6A79D
:103EC000B3D63130B8F6CAE4C8EBB2CECAFD2CB2D4
:103ED000A2D6A7B3D60D0A00BAAFCAFDB7B5BBD8F4
:103EE000D6B5CFD4CABE2ED6A7B3D6B2CECAFDCFD2
:103EF000D4CABEBDF8D6C6C9E8D6C3B9A6C4DC2CA0
:103F0000D6A7B3D6BDF8D6C6D7AABBBBB9A6C4DC64
:103F10002E0D0A00BCBCCAF5D6A7B3D63A77777780
:103F20002E6F70656E6564762E636F6D0D0A0000EE
:103F300055534D415254D3D037B8F6CFB5CDB3C356
:103F4000FCC1EE28B1D8D0EBD0A1D0B4293A0D0AEB
:103F5000000000003F3A202020202020BBF1C8A113
:103F6000B0EFD6FAD0C5CFA20D0A000068656C701C
:103F70003A202020BBF1C8A1B0EFD6FAD0C5CFA21D
:103F80000D0A00006C6973743A202020BFC9D3C3A6
:103F9000B5C4BAAFCAFDC1D0B1ED0D0A0A00000028
:103FA00069643A2020202020BFC9D3C3BAAFCAFD1C
:103FB000B5C44944C1D0B1ED0D0A0A006865783A2C
:103FC00020202020B2CECAFD3136BDF8D6C6CFD4CF
:103FD000CABE2CBAF3B8FABFD5B8F12BCAFDD7D6F2
:103FE000BCB4D6B4D0D0BDF8D6C6D7AABBBB0D0AD8
:103FF0000A0000006465633A20202020B2CECAFD8A
:104000003130BDF8D6C6CFD4CABE2CBAF3B8FABF89
:10401000D5B8F12BCAFDD7D6BCB4D6B4D0D0BDF834
:10402000D6C6D7AABBBB0D0A0A00000072756E7413
:10403000696D653A312CBFAAC6F4BAAFCAFDD4CBBC
:10404000D0D0BCC6CAB13B302CB9D8B1D5BAAFCAF2
:10405000FDD4CBD0D0BCC6CAB13B0D0A0A000000CB
:10406000C7EBB0B4D5D5B3CCD0F2B1E0D0B4B8F191
:10407000CABDCAE4C8EBBAAFCAFDC3FBBCB0B2CE7E
:10408000CAFDB2A2D2D4BBD8B3B5BCFCBDE1CAF85C
:104090002E0D0A002D2D2D2D2D2D2D2D2D2D2D2DBF
:1040A0002D2D2D2D2D2D2D2D2D2D2D2D2D2D414C0D
:1040B00049454E54454B2D2D2D2D2D2D2D2D2D2D7E
:1040C0002D2D2D2D2D2D2D2D2D2D2D2D2D2D2D202D
:1040D0000D0A00002D2D2D2D2D2D2D2D2D2D2D2DAD
:1040E0002D2D2D2D2D2D2D2D2D2D2D2D2DBAAFCA54
:1040F000FDC7E5B5A52D2D2D2D2D2D2D2D2D2D2DCE
:104100002D2D2D2D2D2D2D2D2D2D2D2D2D2D2D2DDF
:10411000200D0A00E000002025730D0A00000000B9
:1041200059A0FCF7A5F900200B901AE06649096830
:104130009DF82C2001EBC20101AB02AA486803A93B
:10414000FFF7AAFA604800689DF82C1050F831205B
:1041500003A95EA0FCF78CF99DF82C00401CC0B2AE
:104160000B905948007D9DF82C108842DEDCAFF2A0
:10417000DC30FCF77DF983E0AFF2E830FCF778F94A
:104180000BAA03A92046FFF701FA9DF82C00C8B935
:10419000694603A8FFF7BBFC0B909DF82C0020B9E3
:1041A0004FA00099FCF764F90EE09DF82C0004285C
:1041B00001D0022063E54DA0FCF75AF901204249E5
:1041C000C87501E002205AE547A0FCF751F957E015
:1041D00045A0FCF74DF90BAA03A92046FFF7D6F935
:1041E0009DF82C00C8B9694603A8FFF790FC0B9016
:1041F0009DF82C0020B942A00099FCF739F90EE097
:104200009DF82C00042801D0022038E53FA0FCF7DF
:104210002FF900202C49C87501E002202FE532A0BB
:10422000FCF726F92CE030A0FCF722F90BAA03A931
:104230002046FFF7ABF99DF82C00C8B9694603A8E2
:10424000FFF765FC0B909DF82C0078B91E4900988B
:1042500081F8EC00084690F8EC0018B130A0FCF7AB
:1042600007F907E035A0FCF703F903E0022006E5B3
:10427000022004E51CA0FCF7FBF801E00120FEE4AD
:1042800000BF0020FBE400002D2D2D2D2D2D2D2D08
:104290002D2D2D2D2D2D2D2D2D2D2D2D2D2D2D2D4E
:1042A0002DBAAFCAFD204944202D2D2D2D2D2D2DA9
:1042B0002D2D2D2D2D2D2D2D2D2D2D2D2D2D2D2D2E
:1042C0002D2D2D2D200D0A00E000002025732069E2
:1042D000642069733A0D0A3058253038580D0A00A9
:1042E0004845583A305825580D0A00003136BDF877
:1042F000D6C6B2CECAFDCFD4CABE210D0A00000078
:104300004445433A256C750D0A0000003130BDF874
:10431000D6C6B2CECAFDCFD4CABE210D0A00000057
:1043200052756E2054696D652043616C63756C61D4
:1043300074696F6E204F4E0D0A00000052756E209A
:1043400054696D652043616C63756C6174696F6E4F
:10435000204F46460D0A000001460A69D1E90130A6
:104360009860D1E9010358605068884201D188689B
:104370005060002008611068401E1060106870478F
:1043800000F1080141604FF0FF31816000F1080148
:10439000C160016100210160704700210161704727
:1043A00010B502460B685C1C0CB9106907E002F1FD
:1043B000080000E04068446824689C42FAD94468D8
:1043C0004C604C68A160886041600A611468641C9C
:1043D000146010BD42684A6093688B6093685960AE
:1043E0009160086103685B1C0360704710B500BFF3
:1043F000502080F31188BFF34F8FBFF36F8F00BF42
:104400000B480068401C0A490860084600680128FB
:104410000DD108480068C0B208B9012000E00020B2
:1044200028B940F2B91204A10EA0FCF721F810BD82
:104430008800002004ED00E02E2E5C467265655277
:10444000544F535C706F727461626C655C52564479
:10445000535C41524D5F434D34465C706F72742E15
:10446000630000004572726F723A25732C25640D4B
:104470000A00000010B50B48006828B94FF4E0723C
:1044800009A114A0FBF7F4FF06480068401E054987
:1044900008600846006820B9002080F3118800BF3A
:1044A00000BF10BD880000202E2E5C46726565524C
:1044B000544F535C706F727461626C655C52564409
:1044C000535C41524D5F434D34465C706F72742EA5
:1044D000630000004572726F723A25732C25640DDB
:1044E0000A00000070B506463546002E35D0083D5E
:1044F0002C461A4960680968084008B1012000E0AC
:10450000002028B94FF4A07215A11FA0FBF7B0FF3F
:10451000206808B9012000E0002028B940F24112CB
:104520000FA119A0FBF7A4FF0C49606809680840B7
:1045300098B1206888B90949606809688843606053
:1045400000F090FB1449606809680844124908604B
:104550002046FEF7E7F901F097F970BD84000020CE
:104560002E2E5C4672656552544F535C706F7274A8
:1045700061626C655C4D656D4D616E675C6865611F
:10458000705F342E630000004572726F723A2573BB
:104590002C25640D0A0000007C00002006480068FD
:1045A0004FF47A71B0FBF1F0401E4FF0E02148610A
:1045B00007200861704700000000002070B5FBF77D
:1045C000BBFE0546102D11D305F1E02090F8F04315
:1045D00010480078844201DB012000E0002028B967
:1045E0004FF440720CA117A0FBF742FF1948006876
:1045F00000F4E06018490968884201D8012000E011
:10460000002028B94FF4447203A10EA0FBF730FF3D
:1046100070BD00008C0000202E2E5C467265655235
:10462000544F535C706F727461626C655C52564497
:10463000535C41524D5F434D34465C706F72742E33
:10464000630000004572726F723A25732C25640D69
:104650000A0000000CED00E090000020024600205F
:104660000BE0084B53F8303033B9064B43F83010A9
:1046700003EBC0035A6002E0401C0828F1D300BFDE
:1046800070470000D40100202DE9F04105460E4698
:1046900017462C46FFF7AAFE94F94400401C10B9B7
:1046A000002084F8440094F94500401C10B9002013
:1046B00084F84500FFF7DEFEA06B28B93A46314684
:1046C00004F1240000F0F6F82046FEF716FCBDE8E1
:1046D000F081000070B504460025ACB10F480068B9
:1046E00008B9012000E0002028B940F2D2420CA114
:1046F00010A0FBF7BDFE00F0B5FA00212046FDF743
:104700008FFE01F0C1F805463DB94FF080500D49CC
:104710000860BFF34F8FBFF36F8F70BD580000204C
:104720002E2E5C4672656552544F535C7461736BF8
:10473000732E63004572726F723A25732C25640DD7
:104740000A00000004ED00E070B50546FFF74EFEDC
:1047500015B92D48006800E028460446201DFFF7E3
:10476000FBFD78B9E06A00EB8000284951F8200091
:1047700040B994F82C1001208840254909688143EC
:1047800023480160A06A18B104F11800FFF7E4FDA6
:1047900020480068401C1F4908601B48006884428C
:1047A00009D1211D1C48FFF715FE1C480068401C5C
:1047B0001A49086009E01A480068401E1849086054
:1047C0002046FDF78CFFFEF789FAFFF753FE1548E8
:1047D0000068C0B10C480068844214D112480068D7
:1047E00008B9012000E0002028B94FF48D620FA124
:1047F00013A0FBF73DFE4FF0805015490860BFF352
:104800004F8FBFF36F8F70BD200000201402002077
:10481000380000204C000020D00400202C00002094
:10482000300000203C000020580000202E2E5C4666
:1048300072656552544F535C7461736B732E6300E1
:104840004572726F723A25732C25640D0A000000C0
:1048500004ED00E001200149086070474400002099
:1048600070B504460D462CB940F6093207A10CA0DC
:10487000FBF7FEFD0E48016818312046FFF790FD5A
:1048800001212846FDF7CCFD70BD00002E2E5C46B0
:1048900072656552544F535C7461736B732E630081
:1048A0004572726F723A25732C25640D0A00000060
:1048B0002000002070B505460E4614462DB940F67E
:1048C000343209A10DA0FBF7D3FD1048016818315F
:1048D0002846FFF77FFD0CB14FF0FF3621463046EA
:1048E000FDF79EFD70BD00002E2E5C467265655280
:1048F000544F535C7461736B732E63004572726F17
:10490000723A25732C25640D0A0000002000002057
:1049100070B505462C46002D4BD02649E06A096843
:10492000C96A884245D2A06900F0004028B92148F0
:104930000068C06AC0F12000A061E16A01EB81015A
:104940001D4A02EB81016069884201D1012000E02B
:10495000002050B3201DFFF7FFFC78B9E06A00EBA0
:104960008000154951F8200040B994F82C1001201E
:104970008840124909688143104801600D48006869
:10498000C06AE06294F82C10012088400B49096845
:1049900008430A490860E16A01EB8101064A02EB1B
:1049A0008100211DFFF716FD03E002480068C06A80
:1049B000E06270BD200000201402002038000020BA
:1049C00070B505462C462DB940F2AE621AA11FA063
:1049D000FBF74EFD74B32148006884422AD0FFF7EC
:1049E00005FD2046FEF742FA10B3201DFFF7B4FC88
:1049F00094F82C1001208840194909680843184987
:104A00000860E16A01EB8101164A02EB8100211D79
:104A1000FFF7E0FC1149E06A0968C96A884207D3D8
:104A20004FF0805010490860BFF34F8FBFF36F8F76
:104A3000FFF720FD70BD00002E2E5C4672656552AA
:104A4000544F535C7461736B732E63004572726FC5
:104A5000723A25732C25640D0A0000002000002006
:104A6000380000201402002004ED00E010B50446D8
:104A70002CB940F6C43205A109A0FBF7F9FC0C489B
:104A8000006820600B480068606010BD2E2E5C46F8
:104A900072656552544F535C7461736B732E63007F
:104AA0004572726F723A25732C25640D0A0000005E
:104AB00048000020340000201CB51A4800210B4695
:104AC0008222CDE9001018A1194800F021FD04460A
:104AD000012C02D100F0CEFF0446012C15D100BFFD
:104AE000502080F31188BFF34F8FBFF36F8F00BF4B
:104AF0004FF0FF300F49086001200F490860002087
:104B00000E49086000F00CF90BE0601C08B10120B0
:104B100000E0002028B940F2877209A10DA0FBF740
:104B2000A7FC1CBD5400002049444C450000000077
:104B300095270008500000203C0000203400002091
:104B40002E2E5C4672656552544F535C7461736BD4
:104B5000732E63004572726F723A25732C25640DB3
:104B60000A00000070B50546FFF740FC15B92C4857
:104B7000006800E028460446201DFFF7EDFB78B9E9
:104B8000E06A00EB8000274951F8200040B994F812
:104B90002C10012088402449096881432248016083
:104BA000A06A18B104F11800FFF7D6FB211D1F48B9
:104BB000FFF710FCFFF75EFC1D48006828B1FFF707
:104BC00015FCFEF78BF8FFF755FC1548006884428A
:104BD00024D117480068A8B11648006808B9012018
:104BE00000E0002028B940F25A6213A117A0FBF799
:104BF0003FFC4FF0805019490860BFF34F8FBFF35F
:104C00006F8F0BE00948006815490968884203D195
:104C100000200349086001E000F02CF870BD00009E
:104C2000200000201402002038000020E4040020AE
:104C30003C000020580000202E2E5C467265655214
:104C4000544F535C7461736B732E63004572726FC3
:104C5000723A25732C25640D0A00000004ED00E073
:104C60003000002002480068401C0149086070477D
:104C70005800002010B51B48006818B101201A49DF
:104C800008602DE000201849086018480068B0FA54
:104C900080F0C0F11F0404EB8400154951F8200096
:104CA00008B1012000E0002028B940F6F92211A146
:104CB00015A0FBF7DDFB04EB84010D4A02EB81003C
:104CC00041684968416000F1080142688A4202D1A6
:104CD0004168496841604168C9680F4A116000BF76
:104CE00010BD0000580000204400002038000020C3
:104CF000140200202E2E5C4672656552544F535CA0
:104D00007461736B732E63004572726F723A257310
:104D10002C25640D0A00000020000020016070476F
:104D20001CB5404800684049884201D0012000E09D
:104D3000002028B940F259123CA147A0FBF798FB8C
:104D4000384800683849491E884201D0012000E0F7
:104D5000002028B94FF4AD7234A13FA0FBF788FBC7
:104D6000414C204600780190FF20214608700846FB
:104D7000007800909DF8000000F0F0009DF8001011
:104D8000884201D1012000E0002028B940F27312CE
:104D900026A131A0FBF76CFB9DF8000000F050004D
:104DA0003249087007203249086009E0304800683D
:104DB000401E2F4908609DF800004006000E00903C
:104DC0009DF8000000F080008028EFD0284800689F
:104DD0000002274908600846008800F4E060086087
:104DE0002149019808700F482030006840F4700095
:104DF0000C49203108600846006840F070400860A7
:104E0000FFF7CCFB00201B490860FBF75DFA1A484E
:104E1000006840F0404018490860FBF745FA002060
:104E20001CBD000000ED00E071C20F412E2E5C465B
:104E300072656552544F535C706F727461626C6539
:104E40005C525644535C41524D5F434D34465C7056
:104E50006F72742E630000004572726F723A257390
:104E60002C25640D0A00000000E400E08C00002006
:104E7000900000208800002034EF00E010B500BF53
:104E8000502080F31188BFF34F8FBFF36F8F00BFA7
:104E900000F084FB18B14FF080500449086000BF57
:104EA000002080F3118800BF10BD000004ED00E079
:104EB0002DE9F84305460E4690460DB1012000E06D
:104EC000002028B94FF4C4720DA112A0FBF7D0FA4C
:104ED0000EB9002701E005FB06F707F15400FEF7C5
:104EE00055F8044644B104F1540943464A46314654
:104EF00028460094FDF762FC2046BDE8F8830000D8
:104F00002E2E5C4672656552544F535C7175657503
:104F1000652E63004572726F723A25732C25640DFD
:104F20000A0000002DE9FF4782B005460E461F46E5
:104F30004FF0000A2C462CB940F2DC4261A166A079
:104F4000FBF796FA0EB9206C08B9012000E00020AA
:104F500028B940F2DD425BA15FA0FBF789FA00F0BF
:104F600007FB08B9049808B9012000E0002028B91F
:104F70004FF49C6253A158A0FBF77AFA00BFFFF7E9
:104F800035FAD4F83890B9F1000F3DD0D4F80C8040
:104F900031462046FDF750FBDFB9A9F10100A063BF
:104FA000206810B9FEF79CF86060206908B90120FC
:104FB00000E0002010BB04F1100000F00BFCE8B191
:104FC0004FF0805048490860BFF34F8FBFF36F8F99
:104FD00014E0C4F80C80606A08B9012000E00020E9
:104FE00060B904F1240000F0F5FB38B14FF08050B7
:104FF0003D490860BFF34F8FBFF36F8FFFF73AFA59
:10500000012006B0BDE8F087049818B9FFF732FA1E
:105010000020F6E7BAF1000F04D16846FFF726FD3D
:105020004FF0010AFFF726FAFFF71CFEFFF7DEF943
:1050300094F94400401C10B9002084F8440094F90D
:105040004500401C10B9002084F84500FFF712FA13
:1050500004A9684600F00CFA40BB2046FDF7C2FCEC
:10506000F0B1206830B9FFF7C1F96068FFF750FC74
:10507000FFF700FA04F124000499FFF7F1FB204642
:10508000FDF73BFF00F000FC00287FF478AF4FF005
:10509000805015490860BFF34F8FBFF36F8F6EE7E5
:1050A0002046FDF72AFF00F0EFFB68E72046FDF7FA
:1050B00024FF00F0E9FB2046FDF794FC0028EED029
:1050C00000209EE72E2E5C4672656552544F535C5D
:1050D00071756575652E63004572726F723A25733E
:1050E0002C25640D0A00000004ED00E070B50546B3
:1050F0000E462C462CB940F21B121EA122A0FBF733
:10510000B7F9FFF773F9D4E90F12206801FB020029
:1051100060600020A0632068A060E06B401E226CED
:10512000216800FB0210E060FF2084F8440084F84E
:1051300045009EB9206908B9012000E00020A8B907
:1051400004F1100000F046FB80B14FF0805012498E
:105150000860BFF34F8FBFF36F8F07E004F11000BB
:10516000FFF70EF904F12400FFF70AF9FFF782F9BF
:10517000012070BD2E2E5C4672656552544F535C03
:1051800071756575652E63004572726F723A25738D
:105190002C25640D0A00000004ED00E02DE9FF431A
:1051A00083B0064688461D464FF0000934462CB9A8
:1051B00040F2D92260A165A0FBF75AF9B8F1000FBF
:1051C00001D1206C08B9012000E0002028B940F28C
:1051D000DA2259A15DA0FBF74BF9022D02D1E06B59
:1051E000012801D1012000E0002028B940F2DB2293
:1051F00051A156A0FBF73CF900F0BAF908B905989F
:1052000008B9012000E0002028B940F2DE224AA1BE
:105210004EA0FBF72DF900BFFFF7E8F8A06BE16B9C
:10522000884201D3022D38D12A4641462046FDF757
:1052300018FA0746A06C68B129462046FDF7EEFB38
:1052400028B34FF0805045490860BFF34F8FBFF33C
:105250006F8F1CE0606A08B9012000E0002068B987
:1052600004F1240000F0B6FA88B14FF080503B49B9
:105270000860BFF34F8FBFF36F8F08E03FB14FF06F
:10528000805036490860BFF34F8FBFF36F8FFFF731
:10529000F1F8012007B0BDE8F083059818B9FFF7D1
:1052A000E9F80020F6E7B9F1000F04D101A8FFF7F3
:1052B000DDFB4FF00109FFF7DDF8FFF7D3FCFFF747
:1052C00095F894F94400401C10B9002084F844007B
:1052D00094F94500401C10B9002084F84500FFF700
:1052E000C9F805A901A800F0C3F8F0B92046FDF7F8
:1052F00086FBA0B104F110000599FFF7B1FA204632
:10530000FDF7FBFD00F0C0FA002885D14FF080507A
:1053100012490860BFF34F8FBFF36F8F7CE72046C1
:10532000FDF7EBFD00F0B0FA76E72046FDF7E5FD6E
:1053300000F0AAFA0020ADE72E2E5C467265655299
:10534000544F535C71756575652E63004572726FBD
:10535000723A25732C25640D0A00000004ED00E06C
:105360002DE9F05F80468A4615461E4644462CB914
:1053700040F29F3235A13AA0FBF77AF8BAF1000F5C
:1053800001D1206C08B9012000E0002028B94FF4B9
:1053900068722EA132A0FBF76BF8022E02D1E06BEF
:1053A000012801D1012000E0002028B940F2A132FB
:1053B00026A12BA0FBF75CF8FFF700F900BF5021F6
:1053C000EFF3118081F31188BFF34F8FBFF36F8F1D
:1053D00000BF0746A06BE16B884201D3022E2BD1A0
:1053E00094F945B0324651462046FDF73AF90BF1A3
:1053F0000100C8B9A06C40B131462046FDF70EFB54
:10540000B8B1B5B10120286013E0606A08B9012085
:1054100000E0002068B904F1240000F0DBF940B19D
:105420003DB10120286004E00BF1010040B284F896
:1054300045004FF0010901E04FF0000900BF87F37C
:10544000118800BF4846BDE8F09F00002E2E5C4644
:1054500072656552544F535C71756575652E6300B6
:105460004572726F723A25732C25640D0A00000094
:105470002DE9F04104460D462CB940F6CE3219A173
:105480001DA0FAF7F5FF2DB940F6CF3215A11AA0ED
:10549000FAF7EEFFFEF7AAFF1B4807682868401CD2
:1054A00008B9002619E0194920680968884204D023
:1054B0006068B84201D801260FE06068381A296890
:1054C000884209D228686168791A401A2860204603
:1054D000FFF7CCFA002600E00126FEF7CBFF3046AE
:1054E000BDE8F0812E2E5C4672656552544F535CC8
:1054F0007461736B732E63004572726F723A257319
:105500002C25640D0A000000340000204800002013
:105510002DE9FF4F85B0804689461746DDE912AB7D
:10552000B800FDF733FD064656B15C20FDF72EFDB1
:1055300004460CB1266304E03046FEF7D3FF00E0DA
:1055400000247CB10020CDE900ABCDE902403A4611
:1055500049464046089BFDF749F92046FCF7ACFF59
:10556000012501E04FF0FF35284609B0BDE8F08F76
:105570000549096809B9012005E00449096809B924
:10558000022000E0002070473C000020580000206E
:105590000149086870470000340000202DE9F041FF
:1055A0004FF0000841480068002872D14048006868
:1055B000451C3F480560EDB93E480068006808B9E1
:1055C000012000E0002028B940F6DC123AA13FA0FB
:1055D000FAF74EFF374807684048006835490860C9
:1055E0003E4807603E480068401C3D490860FDF7A2
:1055F00075FB00BF3B48006885423CD300BF2D4887
:105600000068006808B9012000E0002020B14FF0D8
:10561000FF30344908602DE026480068C068C4683F
:105620006668B54202D22F48066023E0201DFEF7CF
:1056300093FEA06A18B104F11800FEF78DFE94F8ED
:105640002C10012088402849096808432649086031
:10565000E16A01EB8101254A02EB8100211DFEF781
:10566000B9FE2349E06A0968C96A8842C7D34FF086
:105670000108C4E700BF1E480068C06A00EB800054
:105680001A4951F82000012801D94FF0010805E01E
:10569000FFE718480068401C164908601648006873
:1056A00008B14FF001084046BDE8F08158000020E5
:1056B00034000020240000202E2E5C4672656552C6
:1056C000544F535C7461736B732E63004572726F39
:1056D000723A25732C25640D0A0000002800002072
:1056E0004800002050000020380000201402002054
:1056F00020000020400000204400002070B5054636
:105700002C460026002D4BD026480068844201D14B
:10571000012000E0002028B940F6CA6222A127A09B
:10572000FAF7A6FE206D28B940F6CC621EA123A090
:10573000FAF79EFE206D401E2065E16CE06A88420B
:105740002ED0206D60BB201DFEF706FE78B9E06A02
:1057500000EB80001D4951F8200040B994F82C104E
:10576000012088401A490968814319480160E06CAA
:10577000E062E06AC0F12000A06194F82C100120E2
:10578000884013490968084311490860E16A01EB40
:1057900081010E4A02EB8100211DFEF71BFE01264E
:1057A000304670BD200000202E2E5C46726565528A
:1057B000544F535C7461736B732E63004572726F48
:1057C000723A25732C25640D0A0000001402002093
:1057D0003800002070B50646F068C4682CB940F661
:1057E00064321AA11EA0FAF743FE04F11800FEF776
:1057F000B3FD1F480068A8B9201DFEF7ADFD94F861
:105800002C10012088401B49096808431949086089
:10581000E16A01EB8101184A02EB8100211DFEF7CC
:10582000D9FD04E004F118011448FEF7D3FD144932
:10583000E06A0968C96A884204D901250120114932
:10584000086000E00025284670BD00002E2E5C4652
:1058500072656552544F535C7461736B732E6300B1
:105860004572726F723A25732C25640D0A00000090
:10587000580000203800002014020020BC04002042
:10588000200000204400002070B500240026344889
:10589000006828B940F2EB7232A137A0FAF7E8FDB0
:1058A000FEF7A4FD2E480068401E2D4908600846FA
:1058B000006800284FD13448006800284BD024E00D
:1058C0003248C068C46804F11800FEF745FD201D89
:1058D000FEF742FD94F82C10012088402C490968FD
:1058E00008432B490860E16A01EB8101294A02EB78
:1058F0008100211DFEF76EFD2749E06A0968C96A2B
:10590000884202D30120254908602048006808B970
:10591000012000E000200028D2D00CB1FDF7DEF914
:105920001F48056865B100BFFFF738FE10B10120C0
:105930001A4908606D1E002DF6D100201849086034
:105940001648006838B10126300716490860BFF3D1
:105950004F8FBFF36F8FFEF78DFD304670BD000097
:10596000580000202E2E5C4672656552544F535CE1
:105970007461736B732E63004572726F723A257394
:105980002C25640D0A00000030000020BC0400201B
:1059900038000020140200202000002044000020D5
:1059A0004000002004ED00E02DE9F041064600270C
:1059B00034462EB940F2E56220A125A0FAF758FD41
:1059C000FEF7FCFD00BF5021EFF3118081F3118839
:1059D000BFF34F8FBFF36F8F00BF05462046FDF723
:1059E00045FA20B31E480068E0B91E49E06A09681C
:1059F000C96A884200D30127201DFEF7ADFC94F848
:105A00002C1001208840184909680843164908608D
:105A1000E16A01EB8101154A02EB8100211DFEF7CD
:105A2000D9FC04E004F118011148FEF7D3FC00BFD3
:105A300085F3118800BF3846BDE8F0812E2E5C4604
:105A400072656552544F535C7461736B732E6300BF
:105A50004572726F723A25732C25640D0A0000009E
:105A600058000020200000203800002014020020F0
:105A7000BC0400201CB50024FCF77AFD0B4800682C
:105A800058B10B481F2100234FF48272CDE900105A
:105A900008A10A48FFF73CFD04462CB940F2331236
:105AA00007A10DA0FAF7E4FC20461CBD640000200D
:105AB00068000020546D722053766300E12E0008C8
:105AC0002E2E5C4672656552544F535C74696D6549
:105AD00072732E63000000004572726F723A257374
