:020000040800F2
:10000000D807002001010008432B000843280008FE
:10001000412B0008C50A0008BD360008000000009A
:10002000000000000000000000000000C12D0008DA
:100030003D10000800000000AB2D00086D2E0008E8
:100040001B0100081B0100081B0100081B01000820
:100050001B0100081B0100081B0100081B01000810
:100060001B0100081B0100081B0100081B01000800
:100070001B0100081B0100081B0100081B010008F0
:100080001B0100081B0100081B0100081B010008E0
:100090001B0100081B0100081B0100081B010008D0
:1000A0001B0100081B0100081B0100081B010008C0
:1000B000353000081B010008413000081B01000812
:1000C0001B0100081B0100081B0100081B010008A0
:1000D0001B010008B13600081B0100081B010008C5
:1000E0001B0100081B0100081B010008DFF80CD0F1
:1000F00000F00EFC0048004705410008D80700202A
:100100000648804706480047FEE7FEE7FEE7FEE7B1
:10011000FEE7FEE7FEE7FEE7FEE7FEE7BD2E00088E
:10012000ED000008202A04DB203A21FA02F0002129
:10013000704721FA02F3D040C2F1200291400843F7
:1001400019467047D2B201E000F8012B491EFBD2DC
:1001500070470022F6E710B513460A4604461946D2
:10016000FFF7F0FF204610BDCAB2401E10F8011F75
:100170008A4202D00029F9D100207047421C10F8B1
:10018000011B0029FBD1801A704770B5064603F0A9
:100190002FFB046805460A220021304600F0D4FAFD
:1001A0002C6070BD80EA010210B502F000434000EF
:1001B00022D04A001FD0010E01EB1261C0F356009D
:1001C000C2F3560240F4000042F40002A0FB0220F9
:1001D00000047F39140400D0401C50EA124001D4BE
:1001E0004000491EC2B20C0604EBD010401C40086F
:1001F000802A02D003E0002010BD20F00100002979
:1002000000DA0020184310BD30B480EA010202F089
:10021000004530F0004221F0004013D090B1C30DF2
:10022000D40DC2F31601C0F31600E41A41F4000124
:1002300040F400027D34914201D3641C00E0490087
:10024000002C02DA30BC002070474FF4000000237D
:10025000914201D3891A034340084FEA4101F7D183
:1002600051B1914202D14FF0004105E002D24FF06E
:10027000010101E06FF0010103EBC450284430BCE0
:1002800000F09ABA2DE9FE4F804681EA0300C00FC4
:100290000C46009021F0004123F00045B8EB02002D
:1002A000A94105D24046214690461C460B460246CF
:1002B00023F00040104347D0270DC7F30A00C3F3D3
:1002C0000A510290401A019040286BDAC3F31300E0
:1002D00040F4801B0098924620B10023D2EB030A21
:1002E00063EB0B0B01985946C0F14002504600F0F9
:1002F0000AFA06460D4650465946019A00F012FA8F
:1003000010EB08006141002487EA115284EAE77388
:100310001A4340D0009A62B3019A012A4FEA075269
:1003200015DC001B61EB02014FF0004202EA0752AC
:10033000CDE90042001C41F5801132462B4600F009
:1003400081FA03B0BDE8F08F40462146F9E7001B73
:1003500061EB0201001C41F5801300185B4120187D
:10036000A2F5001747EB030140EAD570B6196D41BD
:1003700011E06D084FEA360645EAC0754FEA0752AC
:10038000001B61EB0201001C41F5801149084FEA96
:1003900030000019514132462B4603B0BDE8F04F02
:1003A00000F041BA0098012240000023D0EB020285
:1003B00063EBE073009821464FEAE074B8EB00006D
:1003C00061EB0401E9E783F000435BE781F0004162
:1003D00058E72DE9FE4F81EA030404F0004421F0C0
:1003E000004100944FF0000B23F0004350EA010459
:1003F0005ED052EA03045BD0C3F30A54C1F30A553A
:100400002C44A4F2F3340194A0FB0254C1F3130171
:1004100041F48011C3F3130343F4801301FB02443E
:1004200000FB034E840A970A44EA815447EA835743
:10043000A4FB076802958D0A05FB07854FEA932CFC
:1004400004FB0C542705029D4FEA065847EA16376D
:10045000B5EB08056EEB070C870E920E47EA811785
:1004600042EA8312A7FB0201B6EB0B0164EB000426
:100470002B0D43EA0C335E1844EB1C50DA46514610
:10048000E7FB0201C5F313044FEA0B3343EA1453AD
:100490004FEA0432019C43EA0603A4F10C040294DF
:1004A000009CCDE900B400F0CDF903B0BDE8F08FB9
:1004B00000200146F9E72DE9F04D81EA030404F03C
:1004C000004B21F0004514464FF0000A23F0004194
:1004D00050EA050220D054EA01021DD0C5F30A57A4
:1004E0000246C5F31303C1F31300C1F30A5640F4E7
:1004F000801543F48013A7EB0608101BD64608F2BC
:10050000FD3873EB050002D308F1010801E09218F1
:100510005B41B8F1000F03DA00200146BDE8F08D21
:1005200000204FF48011064684460EE0171B73EB43
:10053000050705D3121B63EB050306434CEA010CC8
:1005400049084FEA300092185B4150EA0107EDD1AB
:1005500052EA030012D082EA040083EA050108434C
:1005600005D0101BAB4106D20122002306E0002279
:100570004FF0004302E06FF0010253101AEB060047
:100580004CEB085110EB0A0041EB0B01BDE8F04DBC
:1005900000F049B996230022114600F016B90EB5B5
:1005A00040F2334102910021CDE900110A460B4689
:1005B00000F048F903B000BD00F0004220F0004018
:1005C000C10DC0F3160040F400007F2901DA0020BD
:1005D0007047962903DCC1F19601C84001E09639C5
:1005E0008840002AF4D04042704700F0004230F0CA
:1005F00000400AD0C10D01F56071C0F3160042EA57
:100600000151C2084007114370470020014670475E
:1006100030B5041E71F1000404DB4FF00044404289
:1006200064EB0101141E73F1000405DB1C464FF05E
:100630000043524263EB0403994208BF904230BD2D
:1006400001F0004330B421F0004150EA010206D02D
:100650000A0DA2F56072C1F31301002A02DC30BC5E
:1006600000207047440F44EAC104C100E01830BCC8
:1006700000EBC25000F0A0B830B50B460146002098
:100680002022012409E021FA02F59D4205D303FA54
:1006900002F5491B04FA02F52844151EA2F10102D5
:1006A000F1DC30BD2DE9F05F0546002092469B4607
:1006B00088460646814640241BE028464146474678
:1006C0002246FFF72FFD53465A46C01A914110D3D8
:1006D00011461846224600F016F82D1A67EB01085D
:1006E0004F4622460120002100F00DF817EB0009CB
:1006F0004E41201EA4F10104DFDC484631462A4663
:100700004346BDE8F09F202A04DB203A00FA02F1BC
:10071000002070479140C2F1200320FA03F31943EF
:1007200090407047202A06DBCB17203A41FA02F0AE
:1007300043EAE07306E041FA02F3D040C2F120023E
:1007400091400843194670472DE9F04791460F46FE
:1007500080460446002614F8015B2DB100F0EAF84B
:100760000068405DC007F6D12B2D02D02D2D18D08A
:10077000641E4A463946204600F0E0F827B1396841
:10078000A14201D1C7F8008071054FF002040BD5DA
:100790004042002803DD03F02BF80460A007BDE809
:1007A000F08746F48066E4E70028F8DA03F020F8E2
:1007B00004606FF00040F2E70029A8BF7047401CBA
:1007C000490008BF20F00100704710B4B0FA80FC67
:1007D00000FA0CF050EA010404BF10BC704749B1A4
:1007E000CCF1200421FA04F411FA0CF118BF012114
:1007F00021430843A3EB0C01CB1D4FEA00614FEAF4
:10080000102042BF002010BC704700EBC3501044C2
:100810000029A4BF10BC7047401C490008BF20F04D
:10082000010010BC704710B5141E73F1000408DA03
:10083000401C41F1000192185B411A4301D120F0A4
:10084000010010BD2DE9F04D92469B4611B1B1FA61
:1008500081F202E0B0FA80F220329046FFF753FFB7
:1008600004460F4640EA0A0041EA0B0153465A4645
:10087000084313D0114653EA010019D0C8F14002D1
:100880005046FFF74FFC05460E4650465946424635
:10089000FFF739FF084305D0012004E02046394620
:1008A000BDE8F08D0020054346EAE0762C4337434F
:1008B0000A986305E40AA0EB08000022FD0A44EA56
:1008C00047540A3002D500200146E9E70105101916
:1008D0006941DDE9084500196941BDE8F04DA2E72D
:1008E000C1F30A52C1F3130140F2FF3341F4801106
:1008F0009A4202DA00200146704740F233439A429E
:10090000A2F2334202DC5242FFF70CBCFFF7FBBEFF
:10091000064C074D06E0E06840F0010394E807004C
:1009200098471034AC42F6D3FFF7E4FB20420008AE
:1009300040420008004870471C4200082DE9F05F63
:1009400082460078002715468B460AF10104B94615
:10095000302801D09DB113E014F8010B012778284D
:1009600003D0582801D045B10AE00DB1102D07D1B0
:100970000027102514F8010B02E0082500E00A25E5
:100980000026B0460EE005FB080005FB06F1012736
:1009900001EB10461FFA80F8B6F5803F00D3B94648
:1009A00014F8010B294600F018F80028EBDABBF127
:1009B000000F05D00FB1641E00E05446CBF8004094
:1009C000B9F1000F06D002F013FF02210160C81E2A
:1009D000BDE8F09F48EA0640FAE73A2800D23038EE
:1009E00020F02002412A01D3A2F13700884201D32E
:1009F0004FF0FF30704770B5044600688168C94306
:100A0000C90716D1816821F00101816000F00EFF55
:100A1000054609E000F00AFF401B022804D92068BF
:100A20008068C043C00706D020688068C043C00704
:100A3000F0D0002070BDA06A40F01000A062E06A13
:100A400040F00100E062012070BD0000F8B5002612
:100A50000446009600688168C943C9072CD08168A4
:100A600041F001018160154815490068B0FBF1F0C3
:100A700000E0401E00900028FBD100F0D7FE0546A4
:100A800015E000F0D3FE401B022810D920688068D2
:100A9000C043C0070BD0A06A40F01000A062E06A1B
:100AA00040F00100E06284F824600120F8BD206875
:100AB0008068C043C007E4D10020F8BD900000204A
:100AC00040420F00FEE700002DE9F0410024194EDE
:100AD000194D4FF47A782746012000F0EFF80022F4
:100AE0008021304600F09DFE142000F095FD01228B
:100AF0008021304600F095FE282003F0E7FA002020
:100B000000F0DCF88021304600F07EFE78B92868DD
:100B1000401C286040450AD2641CE4B264202F6067
:100B200000F07AFD032CD7D30020BDE8F08101202E
:100B3000FBE70000000C01408000002010B5FFF72B
:100B4000C3FF002804D1BDE8104002A002F00ABE95
:100B500010BD000044485431312073656E736F72CC
:100B600020696E697469616C697A6174696F6E205D
:100B70006661696C6564210D0A0000002DE9F0478B
:100B80000024DFF868801A4F2546A1464FF47A7694
:100B9000002000F093F88021404600F035FE20B997
:100BA0003868401C3860B042F5D36006040E282037
:100BB000C7F8009003F08AFA8021404600F024FE36
:100BC00001280CD144F001048021404600F01CFEB5
:100BD000012804D13868401C3860B042F4D36D1C41
:100BE000EDB2082DD4D32046BDE8F087000C0140BB
:100BF000800000202DE9FC5F82469B469146884696
:100C0000012000F05BF82B4C00228021204600F0F0
:100C100008FE142000F000FD01228021204600F093
:100C200000FE282003F052FA002000F047F8224D81
:100C30004FF47A768021204600F0E6FD20B929683D
:100C4000491C2960B142F5D300272F60802120463E
:100C500000F0DAFD012804D12868401C2860B04269
:100C6000F4D32F6000246D46FFF788FF2855641CDD
:100C7000E4B2052CF8D3012000F0CEFC9DF8001062
:100C80009DF801309DF802009DF80320CC188518CE
:100C90002C449DF80450AC420AD18AF8001088F820
:100CA000003089F800008BF800200120BDE8FC9F8F
:100CB0000020FBE7000C0140800000201FB5002150
:100CC0000091019102910391074A802128B10120EE
:100CD000CDE900100220039000E000916946104623
:100CE00000F0ACFC1FBD0000000C01407FB50D46BC
:100CF000044603AB01AA02A96846FFF77BFF50B187
:100D00009DF8000020709DF8040028709DF80010E8
:100D100004A002F027FD9DF8000004B0BDE870407B
:100D2000FFF738BC68756D69646974793D25640D99
:100D30000A00000070B5164D0024224640212846C6
:100D400002F034F804E0641CE4B2012003F0BEF9C0
:100D50004021284600F058FD012803D0C82C12D2AB
:100D6000002407E0C82CEED30DE0641CE4B201209F
:100D700003F0ACF94021284600F046FD08B9F02CFC
:100D8000F3D3782C01D3012070BD002070BD00008A
:100D9000000C01400022491E06E000EB82035B6864
:100DA00040F82230521CD2B28A42F6DB7047000073
:100DB00001484068704700006800002070B5104C82
:100DC00000201821207060700E48FFF7C2F90E4D08
:100DD00001224021284601F0E9FF01224021284656
:100DE00000F01FFD00F074F8FFF7A4FF08B1012127
:100DF00000E000212170BDE8704004A002F0B2BC08
:100E000068000020BC030020000C0140445331382E
:100E100042323020436865636B20526573756C7491
:100E20003A2025640D0A000030B5002440F2FF731B
:100E30002546224650F82210A14200D90C4699427C
:100E400000D20B46521CD2B20D44062AF2D3E81A45
:100E5000001B800830BD000010B5144C0122402159
:100E6000204601F0A3FF00224021204600F0D9FCDB
:100E7000022003F02BF901224021204600F0D1FC92
:100E800000224021204601F091FF0C2003F01EF9C2
:100E90004021204600F0B8FC012805D00024322073
:100EA00003F014F9204610BD0124F8E7000C0140BE
:100EB00070B500250124FFF7CFFFC001641C40EA94
:100EC0005500E4B2C5B2082CF5D9284670BD000023
:100ED00010B50C4C01224021204601F067FF002292
:100EE0004021204600F09DFC40F2EE2003F0EEF899
:100EF00001224021204600F094FCBDE810400F2064
:100F000003F0E4B8000C014010B5FFF7E1FFFFF774
:100F100011FFCC2000F05EF8BDE81040442000F046
:100F200059B800F001B8000010B586B006211F487E
:100F3000FFF730FFFFF7E8FFFFF7CAFFFFF7FAFE02
:100F4000CC2000F047F8BE2000F044F8FFF7B0FFD7
:100F50000446FFF7ADFF154904EB0020C0F30A007B
:100F600048610846FFF760FF40F271214843642161
:100F7000B0FBF1F00E494860FFF70CFB0D49FFF79D
:100F800043F9FFF732FB02460B460BA1684602F01D
:100F9000F9FB6846FFF7F2F882B24FF0FF3369467B
:100FA0000B4801F0F5FB06B010BD0000BC030020AB
:100FB000680000200000C84254656D70657261745D
:100FC0007572653A20252E326620430D0A00000016
:100FD0008401002070B5184E05460122402130469C
:100FE00001F0E4FE012415F0010F4FEA55054FF022
:100FF00000024FF0400130460BD000F012FC0220FE
:1010000003F064F801224021304600F00AFC3C2045
:101010000AE000F006FC3C2003F058F801224021D1
:10102000304600F0FEFB022003F050F8641CE4B2EE
:10103000082CD8D970BD0000000C0140704700009A
:1010400010B501F03FFD01F05FFDBDE81040012249
:101050000149024801F054BB6000002084010020D7
:1010600072B602A002F07EFBFBE700006572726FB1
:101070007200000010B53D21FFF776F8002817D068
:10108000401CFFF782F80B4C014660600AA002F09A
:1010900069FB6168481E632805D26420BDE81040E2
:1010A000484301F057BEBDE8104007A002F05ABB0C
:1010B00010BD0000600000202076616C75653A204C
:1010C00025640D0A00000000E697A0E69588E695E5
:1010D000B0E580BCEFBC8CE5BFBDE795A53A202507
:1010E000640D0A00F8B50023009390F824201C46F4
:1010F000012A12D0012280F824204A681F26072ADC
:101100000DD205686F6B521E02EB82029640B74308
:101110000E68964037436F6319E00220F8BD0568FA
:101120000D2A0AD22F6BD21F02EB82029640B743E0
:101130000E68964037432F6309E0EF6A0D3A02EBE1
:1011400082029640B7430E6896403743EF620A68C2
:10115000072605680A2A0AD3EF680A3A02EB420218
:101160009640B7438E6896403743EF6008E02F699A
:1011700002EB42029640B7438E68964037432F6198
:101180000A68102A01D0112A20D1124D0268AA4201
:1011900017D195682D0219D4956845F4000595601E
:1011A0000968102912D10C490C4A0968B1FBF2F107
:1011B00001EB8101490000E0491E00910029FBD1AB
:1011C00004E0816A41F020018162012380F824401B
:1011D0001846F8BD002401409000002040420F0056
:1011E0000068C06C704700002DE9F0414FF0000628
:1011F000040035467ED0A06A002728B9E76284F84B
:101200002470204600F07EF82046FFF7F4FBA16A28
:1012100001F01001014304D0A06A40F01000A06268
:1012200068E0A16A21F4885141F00201A16262687C
:10123000E169237B0A4346EA43010A43A1684FF46C
:101240008076B14208D0012906D0002194F814C05C
:10125000BCF1010F02D00AE03146F7E7F3B1A36A0F
:1012600043F02003A362E36A43F00103E3622368CF
:10127000D3F804C02CF4694C4CEA010CC3F804C048
:1012800021688B68DFF870C003EA0C0313438B609E
:10129000A168B1420BD0012909D00CE0DFF85CC095
:1012A000A3690CEB43330B4343F40061DFE7218A6E
:1012B0000D05A5F580152168CB6A23F470032B4337
:1012C000CB62216889680E4B1940914208D1E762D0
:1012D000A16A21F0020141F00101A162BDE8F081A3
:1012E000A06A20F0020040F01000A062E06A40F026
:1012F0000100E0620120F1E7FDF7E1FF00E0FFFF00
:10130000FE0E1FFF704700002DE9F8434FF0000864
:101310000D460446CDF8008000F088FA07462068A4
:101320008168C90508D5A06A40F02000A06284F851
:1013300024800120BDE8F8834168C90503D4C06A50
:1013400010F4700F29D0022000F00EFB3A49096812
:10135000B1FBF0F620680169384A11424FEA620297
:101360004FEAA2131ED1C1684FEA621C11EA0C0FAA
:1013700018D10169114224D1C068184221D114202A
:1013800022E0681C09D025B100F050FAC01BA84229
:1013900003D920680068800724D52068006880078A
:1013A000EFD52CE00169114202D1C168194206D083
:1013B000026923490A4206D1C068084203D1542079
:1013C00002E0292000E0FC204643009815E0681C5C
:1013D00010D025B100F02AFAC01BA8420AD9009803
:1013E000B04207D2A06A40F00400A06284F82480D2
:1013F00003209FE70098401C0090B042E7D321688B
:101400006FF012000860A06A40F40070A0622068CB
:101410008068C0F3424007280CD1207B50B9A06AF5
:1014200020F48070A062A06AC00403D4A06A40F0D7
:101430000100A06200207DE7900000202449922452
:101440004992240070B5044690F8240001280DD07C
:10145000012084F824002046FFF7F8FA01004FF03D
:10146000000205D084F82420084670BD022070BD1B
:10147000A06A40F20123984340F48070A0621F4D9F
:1014800020681F4BA84218D11E6816F4702F14D084
:10149000A66A46F48016A6621E68760505D5A66A79
:1014A00026F4005646F48056A662A66AF6040AD5CB
:1014B000E66A26F00606E66206E0A66A26F48016CC
:1014C000A6624668E9E7E26284F824206FF002022F
:1014D000026020688268C2F34242072A05D1A8420E
:1014E00008D11A6812F4702F04D0826842F4801276
:1014F0008260B9E7826842F4A002F9E7002801405F
:101500000424014010B5044690F82400012807D0B7
:10151000012084F824002046FFF76DFA10B107E09F
:10152000022010BDA16A21F4885141F00101A1629D
:10153000002184F8241010BD10B590F8211000226D
:10154000022905D00421816380F82020012010BDEC
:1015500001680B6823F00E030B6001680B6823F031
:1015600001030B6090F84030012404FA03F1C36BCF
:10157000596080F8214080F82020104610BD0000FE
:1015800010B590F821100024022903D004218163B2
:1015900001243DE001680A6822F00E020A60016839
:1015A0000A6822F001020A601A4A0168914201D1D8
:1015B000012121E0174A1432914201D110211BE090
:1015C000144A2832914201D1891515E0114A3C3262
:1015D000914201D189140FE00E4A5032914202D15A
:1015E0004FF4803108E00B4A6432914202D14FF44B
:1015F000801101E04FF08071064A083A51600121E4
:1016000080F82110002180F82010416B01B188473B
:10161000204610BD0800024070B5044600F006F9EF
:101620000546601C02D004480078044400F0FEF82F
:10163000401BA042FAD370BD840000202DE9F84F72
:10164000DFF8A491002409F1040A0AF1040B2346EF
:101650004FF00F080BF1040EBEE00127A7403A40FF
:10166000BA4272D1DFF884C14D68A5EB0C0665451E
:101670002BD00DDC032D34D005DC35B3012D19D072
:10168000022D2FD11BE0112D16D0122D2AD119E0D9
:10169000B6F5881F19D006DCB6F5803F15D0B6F533
:1016A000801F1FD111E0B6F5001F0ED0B6F5041F44
:1016B00018D10AE0CB6815E0CB681B1D12E0CB689F
:1016C00008330FE0CB680C330CE08B682BB1012B97
:1016D0004FF0080303D0476104E0042302E00761F0
:1016E00000E00023FF2A01D8064601E000F10406CD
:1016F0004FEA840501D9A5F12005376808FA05FCF1
:1017000027EA0C0703FA05F547EA050737604D6835
:10171000ED0060D5364DAE6946F00106AE61AD69AB
:1017200024F0030605F001050095324D7719BE68D7
:10173000A5072D0F08FA05FC26EA0C06DFF8B8C04D
:10174000604503D14FF0000C17E044E0DFF8ACC077
:10175000604502D14FF0010C0FE0DFF8A4C06045F6
:1017600002D14FF0020C08E0DFF898C0604502D1CA
:101770004FF0030C01E04FF0040C0CFA05FC4CEAAE
:10178000060CC7F808C04D68D9F80060ED034D4657
:1017900001D5164300E096432E604D68DAF80060EC
:1017A000AD03554601D5164300E096432E604D68C3
:1017B000DBF80060ED025D4601D5164300E096437C
:1017C0002E604D68DEF80060AD02754601D5164307
:1017D00000E096432E60641C0A6832FA04F57FF438
:1017E0003CAFBDE8F88F000000040140000011107C
:1017F000001002400000014000080140000C0140C0
:1018000000100140001401408068084000D0012011
:101810007047C26821EA02030A4043EA02410161BB
:1018200070470AB1016170470904FBE7014880680D
:10183000704700008400002002488168027811444B
:101840008160704784000020074810B5016841F0AE
:1018500010010160032000F075F8002000F006F888
:1018600000F024F8002010BD0020024070B50D4D9E
:1018700004464FF47A712878B1FBF0F00A49096800
:10188000B1FBF0F000F050FB48B9102C07D2002259
:101890002146501E00F036F800206C6070BD01201B
:1018A00070BD000084000020900000200C4808B5A6
:1018B000816941F001018161816901F001010091BB
:1018C000C16941F08051C161C069064900F0805092
:1018D0000090486820F0E06040F00070486008BD6B
:1018E0000010024000000140002809DB00F01F0248
:1018F000012191404009800000F1E020C0F8001172
:1019000070470000F0B40E4B1B68C3F30223C3F111
:101910000704042C00D904241D1D072D01D2002327
:1019200000E0DB1E012606FA04F56D1E0D409D4009
:101930009E40761E164045EA0601F0BC01F048BF05
:101940000CED00E0064A00F0070110684FF6FF03B7
:10195000184040EA01200349084310607047000026
:101960000CED00E00000FA0510B5014627A086B096
:101970001DC88DE81D0029A0294C00680490002096
:10198000012922D0022939D010291CD1616822688E
:10199000D20118D5C1F38342C9031DF8020009D54D
:1019A000616804AAC1F34041515C1E4AB2FBF1F1E7
:1019B000484301E01C4948436168490203D44000A0
:1019C0000321B0FBF1F006B010BD216AC1F3012282
:1019D000012A03D1890701D5D003F4E7022A05D1F2
:1019E000616A890702D549F64040ECE7032AEAD14B
:1019F00021688903E7D54FF22440E4E700F0C2F8FC
:101A00006168C1F38131491C4900DAE7020304052A
:101A1000060708090A0B0C0D0E0F1010010200003A
:101A20000010024000127A0000093D002DE9F04745
:101A30000D46040067D0DFF81881D8F8000000F0E8
:101A40000700A8420CD2D8F8001021F00701294362
:101A5000C8F80010D8F8000000F00700A84252D1E2
:101A600020683C4E810712D5400703D5706840F4CA
:101A7000E06070602078000703D5706840F4605023
:101A800070607068A16820F0F000084370602078F2
:101A9000C00727D06068012810D03168022810D014
:101AA000890700292FDA716821F003010143716071
:101AB000FFF7BCFE074641F288390CE03168890324
:101AC000EFE78901EDE7FFF7B1FEC11B494502D9F8
:101AD0000320BDE8F0877068616800F00C00B0EB8F
:101AE000810FF0D1D8F80010404601F00701A9425B
:101AF0000BD9016821F0070129430160006800F05B
:101B00000700A84201D00120E3E72078400705D56F
:101B10007068E16820F4E060084370602078000796
:101B200006D57068216920F4605040EAC1007060F9
:101B300000F038F87168084AC1F30311515CC840DD
:101B40000649086006480068FFF790FE0020C0E7DD
:101B5000002002400010024094000020900000206D
:101B6000880000200448054900684968044AC1F318
:101B70000221515CC84070479000002000100240D4
:101B8000904100080448054900684968044AC1F3C7
:101B9000C221515CC84070479000002000100240F4
:101BA0009041000812A085B00FC88DE80F0014A066
:101BB000144B006804905968134801F00C02042A81
:101BC00010D0082A0ED1C1F38342C9031DF80200C8
:101BD0000AD5596804AAC1F34041515C0A4A5043EE
:101BE000B0FBF1F005B0704708494843FAE7000040
:101BF00002030405060708090A0B0C0D0E0F10104E
:101C0000010200000010024000127A0000093D00AD
:101C10002DE9F84F04006FD02078BE4DC00747D0A3
:101C20006868C0F38100012807D06868C0F38100AC
:101C3000022809D16868C00306D52868800337D513
:101C400060680028E7D033E06068B0F5803F0BD0D3
:101C500010B1B0F5A02F11D0286820F48030286092
:101C6000286820F4802002E0286840F48030286052
:101C7000606888B1FFF7DAFD064609E0286840F49D
:101C800080202860F0E7FFF7D1FD801B642873D81F
:101C900028688003F7D50BE0FFF7C8FD064604E08F
:101CA000FFF7C4FD801B6428F1D828688003F7D4AF
:101CB0002078DFF8648280074FF0010A4FF00009B6
:101CC00039D5686810F00C0F07D06868C0F3810040
:101CD000022809D16868C00306D42868800714D593
:101CE0002069012808D110E02069B0B1C8F800A02F
:101CF000FFF79CFD064605E007E1FFF797FD801B17
:101D00000228C4D828688007F7D52868616920F0C0
:101D1000F80040EAC10028600DE0C8F80090FFF725
:101D200085FD064604E0FFF781FD801B022823D8CD
:101D300028688007F7D4207800072CD57748A16958
:101D4000D9B1C0F800A0FFF771FD064604E0FFF727
:101D50006DFD801B02280FD8686A8007F7D5704890
:101D60004FF4FA510068B0FBF1F0009000BF00980A
:101D7000411E0091FAD20EE07CE0C0F80090FFF71F
:101D800055FD064604E0FFF751FD801B022871D87F
:101D9000686A8007F7D4207840075BD5E869002798
:101DA000C00008D4E86940F08050E861E869012784
:101DB00000F0805000905B480168C90511D40168AB
:101DC000834641F480710160FFF730FD064604E070
:101DD000FFF72CFD801B64284CD8DBF80000C00501
:101DE000F6D5E06801280AD008B1052813D0286A82
:101DF00020F001002862286A20F0040002E0286A2E
:101E000040F001002862E06841F2883B88B1FFF7AA
:101E10000DFD064609E0286A40F004002862EEE75E
:101E2000FFF704FD811B59455BD8286A8007F7D569
:101E30000BE0FFF7FBFC064604E0FFF7F7FC811B15
:101E400059454ED8286A8007F7D41FB1E86920F0B9
:101E50008050E861E069A8B36968C1F38101022993
:101E600046D00228484606D0C8F86000FFF7DEFCDE
:101E7000044639E035E04746C8F86000FFF7D6FC75
:101E8000064604E0FFF7D2FC801B022829D8286808
:101E90008001F7D4206AB0F5803F05D16868A16859
:101EA00020F4003008436860D4E9080108436968F9
:101EB00021F4741108436860C7F860A0FFF7B6FC0E
:101EC000044605E023E0FFF7B1FC001B022808D818
:101ED00028688001F7D51AE0FFF7A8FC001B02284C
:101EE00002D90320BDE8F88F28688001F4D40EE001
:101EF0000128F7D06868226A00F48031914204D149
:101F0000616A00F47010884201D00120EAE70020E5
:101F1000E8E7000000100240000042428004424214
:101F2000900000200070004010B5401EB0F1807F8E
:101F300001D3012010BD4FF0E02460610F21601734
:101F400001F046FC0020A06107202061002010BDA8
:101F50007047704770B590F83C20012A26D00125C3
:101F600080F83C50022280F83D2002685368946853
:101F700023F070060B68334353600D4B02689A429E
:101F800008D0B2F1804F05D00A4B9A4202D00A4BDA
:101F90009A4204D1496824F080031943916080F883
:101FA0003D50002180F83C10084670BD022070BDF5
:101FB000002C0140000400400008004010B504005F
:101FC00003D094F83D0010B107E0012010BD0020BF
:101FD00084F83C00204600F01FF8022084F83D0001
:101FE000211D206801F032F8012084F8460084F8B1
:101FF0003E0084F83F0084F8400084F8410084F8F3
:10200000420084F8430084F8440084F8450084F8D2
:102010003D00002010BD000008B500681949B0F16E
:10202000804F0BD0184A904217D1C86940F0020087
:10203000C861C86900F00200009008BDC86940F09E
:102040000100C861C869002200F00100009011463B
:102050001C20FFF757FC1C2010E00C4A9042ECD1EA
:10206000C86940F00400C861C869002200F004009B
:10207000009011461E20FFF745FC1E20BDE80840D9
:10208000FFF732BC0010024000040040000800408E
:1020900090F83D10012901D001207047022180F8FD
:1020A0003D1000680B49884208D0B0F1804F05D040
:1020B0000949884202D00949884204D1816801F067
:1020C0000701062903D0016841F0010101600020E9
:1020D00070470000002C0140000400400008004050
:1020E00090F83D10012901D001207047022180F8AD
:1020F0003D100168CA6842F00102CA6000680B49DD
:10210000884208D0B0F1804F05D00949884202D0FA
:102110000849884204D1816801F00701062903D0EB
:10212000016841F00101016000207047002C01406E
:10213000000400400008004001680A6A41F21113DF
:102140001A4207D10A6A9B101A4203D10A6822F088
:1021500001020A60012180F83D100020704770B52F
:10216000044690F83C00012817D0012584F83C5023
:10217000022084F83D002068826822F0770222F471
:102180007F4282600868502830D00DDC20284DD076
:1021900005DC98B310283BD148E0022070BD302800
:1021A00044D0402834D139E0602828D0702806D0A7
:1021B000B0F5805F2CD0B0F5005F29D10AE0CB6884
:1021C000D1E90121206800F077FF2068816841F0A3
:1021D000770109E0CB68D1E90121206800F06CFFAC
:1021E0002068816841F48041816011E0CA684968D3
:1021F000206800F073FF5021206807E016E0CA68ED
:102200004968206800F07BFF6021206800F05EFFD5
:1022100084F83D50002084F83C0070BDCA684968CD
:10222000206800F05BFF40212068EFE7226801464C
:102230001046EBE7704770B50446006801694FF03F
:102240000005C943890715D4C168C943890711D45A
:10225000E91E0161012020772068806980072046FF
:1022600002D0FFF7E7FF04E000F098F8204600F006
:1022700096F8257720680169C943490717D4C168D2
:10228000C943490713D46FF004010161022020778C
:102290002068806910F4407F204602D0FFF7CAFF13
:1022A00004E000F07BF8204600F079F825772068FC
:1022B0000169C943090716D4C168C943090712D483
:1022C0006FF008010161042020772068C069800751
:1022D000204602D0FFF7AEFF04E000F05FF8204692
:1022E00000F05DF8257720680169C943C90617D455
:1022F000C168C943C90613D46FF0100101610820F9
:1023000020772068C06910F4407F204602D0FFF794
:1023100091FF04E000F042F8204600F040F82577F5
:1023200020680169C943C90708D1C168C943C90701
:1023300004D1891E0161204600F032F8206801694D
:10234000C943090609D4C168C943090605D46FF019
:10235000800101612046FFF7FBFD20680169C94348
:10236000490609D4C168C943490605D46FF0400144
:102370000161204600F022F820680169C9438906FE
:102380000BD4C168C943890607D46FF020010161ED
:102390002046BDE87040FFF7DCBD70BD7047704758
:1023A0000068B0F1804F04D00349884203D100F0A7
:1023B0004FBF00F0E7BF704700080040704770470C
:1023C00070470000F8B5026804461068D168536988
:1023D00010F00F0F4FF0000554D003F0010601F488
:1023E000907737435FD0C20705D0CA0503D5226C6A
:1023F00042F001022264420705D5DA0703D0226CBD
:1024000042F002022264820705D5DA0703D0226C6B
:1024100042F004022264020707D501F02002324391
:1024200003D0226C42F008022264226C002A35D0CC
:10243000800604D5880602D5204601F035F82068CC
:102440004069216CC0F3801001F00801014320466F
:1024500025D001F011F82068416949061BD5416972
:1024600021F040014161A06BA8B158494163A06BC4
:10247000FFF786F8002811D0A06B416B01B0BDE8D2
:10248000F040084783060ED58B060CD52046BDE8E4
:10249000F84001F009B82046FFF792FFF8BDFFF7BA
:1024A0008FFF2564F8BD266B2023012E52D1C6066E
:1024B00050D5CE064ED51068506800905069400641
:1024C0002AD5A16B086840680004000CEAD0A68DEC
:1024D0008642E7D9E0858869202818D0D06820F4A2
:1024E0008070D0602068416921F00101416120685D
:1024F000416921F04001416184F83E302563206844
:10250000C16821F01001C160A06BFFF715F8A08D24
:10251000E18D401A81B219E0A08DE18D401A81B29F
:10252000E08D0028BED00029BCD0D06820F4907087
:10253000D0602068426922F00102426184F83E3096
:1025400025632068C26822F01002C2602046FFF7AF
:1025500036FFF8BD05062BD50D0629D594F83D00AC
:102560002128F6D1A068B0F5805F01D12069B0B113
:10257000206A411C2162216800784860E08C401E7E
:102580000004000CE084E4D12068C16821F08001DF
:10259000C1602068C16841F04001C160F8BD206A97
:1025A0000088C0F308005060206A801C2062E5E7C4
:1025B0004006F3D54806F1D5D168204621F0400108
:1025C000D16084F83D3000F03BF9F8BD6934000873
:1025D00070B5040004D094F83D00002510B106E069
:1025E000012070BD84F83C50204600F023F82420E0
:1025F00084F83D002068C16821F40051C160204684
:1026000000F0AEFF2068016921F49041016120686B
:10261000416921F02A0141612068C16841F40051FB
:10262000C1602564202084F83D0084F83E0000202D
:1026300070BD00002DE9F04786B0002406460094E6
:1026400001940294039429490068294D0F154FF015
:1026500002084FF00309884221D1A86940F4804064
:10266000A861A86900F480400490A86940F00400C3
:10267000A861A869DFF87CA000F004000490481568
:10268000CDE900086946CDF80C905046FEF7D6FF1C
:10269000CDE90074694650460294FEF7CFFF164913
:1026A000306888421FD1E86940F48020E861E86919
:1026B00000F480200490A86940F00800A861A8698F
:1026C0000E4D00F00800CDE90390CDE90078694691
:1026D0002846FEF7B3FFE814CDE900046946284612
:1026E0000294FEF7ABFF06B0BDE8F087003801406A
:1026F000001002400008014000480040000C01406A
:1027000090F83E30202B0ED159B152B190F83C30A8
:10271000012B08D0012380F83C300023036300F034
:102720007BBF0120704702207047000070B511493F
:1027300088421DD1104C114A2046217840880A2930
:1027400001D03F280AD3002515540C490CA001F0F4
:1027500009F80A48FEF78EFC658002E01154401C1F
:102760006080BDE87040012203490248FFF7C8BFFE
:1027700070BD000084010020600000207C03002068
:102780005553415254312052583A2025730D0A00B6
:102790002DE9F843044690F83D001F4615460E46C5
:1027A00020284BD1C6B1BDB194F83C00012845D0DA
:1027B000012084F83C004FF00008C4F8408021203C
:1027C00084F83D00FFF732F8A5848146E584A068CF
:1027D000B0F5805F03D004E00120BDE8F8832069F4
:1027E00020B13546002684F83C800EE00025FAE74B
:1027F0008021204600F02BFFA0B9ADB115F8010BE8
:1028000021684860E08C401EE084E08C4B464FF02D
:10281000000200970028EBD14FF04001204600F065
:1028200016FF30B10320D8E736F8020BC0F30800DA
:10283000E6E7202084F83D000020CEE70220CCE728
:102840007047FEE730B5184D85B00024A86940F404
:102850000070A861A869154900F40070049014483C
:10286000016004730121C0E901414FF46021C1619D
:10287000022101610475FEF7B7FC08B1FEF7F0FB19
:10288000A86940F00400A861A869029400F004005F
:10289000CDE90340A020009003200190694605483F
:1028A000FEF7CCFE05B030BD001002400024014010
:1028B0000C0200200008014030B5184D85B00024FE
:1028C000A86940F48060A861A869154900F4806097
:1028D000049014480160047344604FF460218460E4
:1028E000C161022101610475FEF77EFC08B1FEF7AB
:1028F000B7FBA86940F00400A861A869029400F041
:102900000400CDE90340482000900320019069466F
:102910000548FEF793FE05B030BD000000100240F0
:10292000002801403C020020000801402DE9F0434E
:1029300085B000242C48009401940294039481698A
:1029400041F010018161816901F0100104918169F8
:1029500041F020018161816901F0200104918169C8
:1029600041F004018161816901F0040104918169F0
:1029700041F00801816180691C4F00F008004FF4AC
:1029800000550490002229463846FEF74AFFDFF83A
:102990006080002210214046FEF743FFDFF854908C
:1029A0000022C0214846FEF73CFF00950226012583
:1029B0000396CDE9015469463846FEF73FFE1020E4
:1029C000CDE90005CDE9024669464046FEF736FEF0
:1029D000C020CDE90005CDE9024669464846FEF72C
:1029E0002DFE05B0BDE8F08300100240001001404C
:1029F00000080140000C014010B586B000241648C4
:102A0000009401940294039404944FF0804105943F
:102A100001603F21C0E9011440F2E731C0E903142D
:102A20008461FFF7CBFA08B1FEF71AFB4FF4805030
:102A3000009069460848FFF792FB08B1FEF710FBCB
:102A4000049404A904480594FFF784FA002801D0EF
:102A5000FEF706FB06B010BDAC00002010B586B036
:102A60000024174800940194029403940494134999
:102A7000059401603F21C0E901144FF6FF71C0E9E0
:102A800003148461FFF79AFA08B1FEF7E9FA4FF4EC
:102A90008050009069460A48FFF761FB08B1FEF7D5
:102AA000DFFA049404A906480594FFF753FA0028B6
:102AB00001D0FEF7D5FA06B010BD000000040040BA
:102AC000F40000200F4810B50D4901604FF4E131CA
:102AD0004160002181600C22C160C0E90412816163
:102AE000C161FFF775FD08B1FEF7BAFA00220221B5
:102AF0002520FEF707FFBDE810402520FEF7F4BEB5
:102B000000380140840100200C4810B50A490160DA
:102B10004FF4E1314160002181600C22C160C0E9C5
:102B200004128161C161FFF753FD002803D0BDE8A5
:102B30001040FEF795BA10BD00480040C8010020C3
:102B4000FEE7FEE7FFF7B8BE3EB506200090012085
:102B500001900520029069460948FEF7C3FA08482B
:102B6000FEF770FC0A210648FEF7CEFB0448FEF78C
:102B700037FB84B20248FEF7C5FC20463EBD00008C
:102B80003C02002010B5FFF7DFFFFDF703FD114900
:102B9000FDF73AFBFDF729FD4FF066320E4BFDF7CE
:102BA00018FCFDF74DFDFDF720FD0C4A0C4BFDF721
:102BB00010FC0C4A0C4BFDF765FBFDF741FDB0F531
:102BC000000F01DA002010BD08498842FBDB0846EF
:102BD00010BD000000F07F4566660A4087A757CA0F
:102BE000320417C08195438B6CA7304000006041D0
:102BF00010B5184C002120781E2828D3E088B0F5A5
:102C0000167F02D2401CE08006E01248E180401CA2
:102C1000017821F001010170E0880A21B0FBF1F296
:102C200001FB1201002913D1002811D0FEF7C0F8D2
:102C3000FDF7B0FC0849FDF7E7FAA060FDF7D5FC09
:102C40000246BDE810400B4604A000F08BBDE180B9
:102C500010BD0000000000200000C84220252E31D9
:102C600066000000034908781E2801D2401C087045
:102C7000704700000000002010B5104C20781E287E
:102C80001AD3611C0878C20709D140F0010008700E
:102C9000FEF78EF80146608800F012F8A080E18807
:102CA000A088814206D8002806D00120BDE8104047
:102CB00000F056B80020F9E710BD00000000002029
:102CC000401A1849002213460860B0F5FA7F01DD6A
:102CD000642202E010F5FA7F04DA0B604B608B602F
:102CE000CB6016E08A6802448A604B68C31ACB60E6
:102CF00040F64D03434302EB830242F2107392FB12
:102D0000F3F24860052A01DA002202E0642A00DDBD
:102D100064224FF416704243642092FBF0F080B2BC
:102D2000704700006C020020084A41F294100849E4
:102D300050800020086048608860C8601070511C96
:102D400090800870D08000F00BB8000000000020D8
:102D50006C020020014948807047000000000020FC
:102D600010B50B4B0B4C48B1012210211846FEF751
:102D700058FD207840F00200207010BD0022102184
:102D80001846FEF74EFD207820F00200F4E7000020
:102D9000000801400100002010B5FFF763FFFFF7B6
:102DA00027FFBDE81040FFF767BF70471FB500233E
:102DB0008DE80E00032103916946FEF73FFC1FBD1D
:102DC000704700000CB5002226480092019201686D
:102DD00041F4803101604FF4A063016801F40031D7
:102DE00001910099491C0091019911B900999942EA
:102DF000F3D10168890333D5012101911A490A6889
:102E000042F010020A600A6822F003020A600A68AF
:102E100042F002020A6041684160416841604168D5
:102E200041F480614160416821F47C114160416856
:102E300041F4E8114160016841F08071016001686E
:102E40008901FCD5416821F003014160416841F0EE
:102E5000020141604168C1F381010229FAD10CBD30
:102E600001920CBD0010024000200240FEF7E4BCBD
:102E700010B590B028216846FDF76BF914210AA817
:102E8000FDF767F901200090000402240190CDE9CC
:102E900007404FF4E01009906846FEF7B9FE0F2096
:102EA000CDE90A0400206102CDE90C010E90022157
:102EB0000AA8FEF7BBFD10B010BD00000F4810B50A
:102EC000016841F00101016041680D4A1140416013
:102ED00001680C4A11400160016821F48021016001
:102EE000416821F4FE0141604FF41F018160FFF74A
:102EF00069FF05494FF00060086010BD00100240F6
:102F00000000FFF8FFFFF6FE08ED00E0FFF79ABCB7
:102F10003EB50720009002200190062002906946ED
:102F20000948FEF7DFF80848FEF78CFA0A21064840
:102F3000FEF7EAF90448FEF753F984B20248FEF7B7
:102F4000E1FA20463EBD00000C02002010B5FFF75C
:102F5000DFFFFDF724FB4FF066320F4BFDF739FA28
:102F600000220E4BFDF7A7FAFDF76AFBFDF73DFBCC
:102F70000B4A0C4BFDF72DFA0B4A0C4BFDF782F96F
:102F800000220B4BFDF71FFAFDF75AFB0949884257
:102F900000DA094810BD000066660A4000FEAF4036
:102FA0007B14AE47E10E8BC0F6285C8FC2FC9F40BD
:102FB000007087400000484200002041FFF742BCFB
:102FC00010B500F019F8FDF7EAFA4FF06632074B3A
:102FD000FDF7FFF90022064BFDF76DFAFDF730FB18
:102FE000BDE810400349FDF7DDB8000066660A4001
:102FF00000FEAF40000048433EB505200090012090
:1030000001900620029069460948FEF76BF80848CF
:10301000FEF718FA0A210648FEF776F90448FEF78B
:10302000DFF884B20248FEF76DFA20463EBD00008C
:103030000C0200200148FFF7FEB80000AC000020A1
:103040000148FFF7F8B800003C010020F0B5026825
:10305000164C174D174E4FF08047A04205D0B8428E
:1030600003D0A84201D0B04203D122F070034A68D5
:103070001A43A04205D0B84203D0A84201D0B042C2
:1030800003D122F44073CA681A434B6922F08002CC
:103090001A4302608A68C2620A688262A04201D151
:1030A0000969016301214161F0BD0000002C01406C
:1030B000000400400008004010B5846842EA032282
:1030C00024F47F440A432243826010BD826822F0C8
:1030D00070020A4342F007018160704710B5046A2C
:1030E000036A23F001030362836923F0F00343EAD8
:1030F000021324F00A020A438361026210BD10B574
:10310000036A23F0100303628469036A24F47044A1
:1031100044EA023223F0A00343EA01118261016212
:1031200010BD10B500F0E2F8012807D100F0AEF8AC
:10313000FDF7F7FEBDE81040FFF72EBE10BD10B53D
:1031400000F0DCF8012803D1BDE8104000F0A6B87B
:1031500010BD00001CB500208DF800008DF80400A3
:1031600000F0D2F8012824D100F0A0F8114800683E
:10317000FDF722FA104C01A920606846FDF7B6FD64
:10318000FDF71AFA00B2E060FFF71AFFFDF714FA34
:103190002061FFF7F7FCFDF70FFA6061FFF7D6FE3D
:1031A000FDF70AFA606000F08DFAFDF705FA00B24B
:1031B000A0601CBD080000200C00002010B5FFF727
:1031C000B0FFFFF7BCFFFFF7C5FF00F021F8BDE837
:1031D000104000F013B810B500F0AEF8FFF7EEFEA7
:1031E000FDF7ACFCFFF792FEFFF7ACFCFDF7E6FD48
:1031F00000F065FABDE81040FFF796BD10B500F08D
:103200008BF8012803D1BDE8104000F057B810BD7D
:103210001FB500F089F8012815D100F057F80A48C9
:10322000D0E90124D0E904318DE81E0000F1180135
:10323000C3680268054800F0A5FA04B00348BDE879
:10324000104000F097BF1FBD0C0000207C02002042
:1032500003484168491C416002A000F083BA0000A5
:103260007000002054494D34203530306D7320E417
:10327000BBBBE58AA1E689A7E8A18CEFBC8CE7ACD3
:10328000AC20256C7520E6ACA15C6E00024801788C
:1032900021F040010170704772000020024801785F
:1032A00021F08001017070477200002002484178CF
:1032B00021F00101417070477200002002484178FE
:1032C00021F00401417070477200002002484178EB
:1032D00021F00201417070477200002000B500F03B
:1032E00083F85DF804EB00F035B800000248007880
:1032F000C0F3801070470000720000200148007881
:10330000C00970477200002002484078C0F30000F6
:10331000704700007200002002484078C0F380002F
:10332000704700007200002002484078C0F340005F
:1033300070470000720000200449002088608881E6
:103340000880891C08800248FEF7CABE7000002071
:10335000AC0000200A494878420710D520F004004C
:1033600048700831C878401CC0B2C8703C2806D3E9
:103370000020C870881F417841F0080141707047F3
:103380007000002030B5174B64211888401C80B2B3
:10339000B0FBF1F201FB120118809C1FB9B9C822E1
:1033A000B0FBF2F5217802FB150241F040012170DB
:1033B00012B941F0800121704FF4FA71B0FBF1F2C3
:1033C00001FB120119B9617841F001016170B0F59A
:1033D0007A7F05D300201880607840F0020060708A
:1033E00030BD0000780000200A494878820710D5D7
:1033F00020F00200487008318878401CC0B2887004
:103400003C2806D300208870881F417841F00401D1
:1034100041707047700000200FB44FF4807100B508
:10342000C1B043AB6846429A00F0C0F96846FCF769
:10343000A5FE81B2684600F003F841B05DF814FBC8
:103440000A4601464FF0FF330148FFF7A1B90000DB
:10345000840100200A4601464FF0FF330148FFF780
:1034600097B90000C801002010B5406A0021C1854D
:10347000C184FEF7A5FF10BD0168CA6822F49072EE
:10348000CA6001684A6922F001024A61016B0129A0
:1034900004D10168CA6822F01002CA60202180F8B5
:1034A0003E1000210163704708B590F83E102229B4
:1034B00001D0022008BD81684FF48053994201D1A8
:1034C000026922B1826A99421BD049B10AE00268BE
:1034D000816A5268C2F308020A80816A891C08E086
:1034E000016971B10168496801F07F011170816A59
:1034F000491C8162C18D491E0904090CC18503D094
:1035000019E001684968F1E70168CA6822F0200201
:10351000CA600168CA6822F48072CA6001684A6998
:1035200022F001024A61202180F83E10016B01293E
:1035300003D0FFF7FBF8002008BD002101630168FC
:10354000CA6822F01002CA6001680A68D20602D571
:103550000A6849680091818DFEF731FFEBE70000B2
:1035600070B5044600680169E26821F440511143D6
:103570000161A16820690143606901432068C26854
:1035800041F20C639A430A43C26020684169A26910
:1035900021F44071114341611E492068884202D1E3
:1035A000FEF7F0FA01E0FEF7DDFA00EBC00101EBF7
:1035B0000011606864228000B1FBF0F3B3FBF2F30A
:1035C0006FF018067343B1FBF0F5B1FBF0F605EBB5
:1035D0008305322303EB0515B5FBF2F5B6FBF2F6D6
:1035E00005F0F00505EB0615B1FBF0F6B1FBF0F0C8
:1035F000B0FBF2F06FF01801484306EB800003EBDC
:103600000010B0FBF2F0216800F00F002844886041
:1036100070BD00000038014081628285C2850021B2
:103620000164222280F83E2080F83C100168CA68BC
:1036300042F48072CA6001684A6942F001024A613C
:103640000068C16841F02001C160002070472DE989
:10365000F0411E46174688460446069D1CE0681C3D
:103660001AD025B1FEF7E2F8801BA84214D92068D1
:10367000C16821F4D071C1602068416921F0010165
:103680004161202084F83D0084F83E00002084F849
:103690003C000320BDE8F0812068016838EA0100A1
:1036A00004D00020B842DAD00020F3E70120F9E787
:1036B0000148FEF787BE000084010020FEE7FFF707
:1036C000C1B8000010B500F027F8FCF768FF4FF014
:1036D00066320D4BFCF77DFE00220C4BFCF7EBFE37
:1036E000FCF7AEFFFCF781FF0022094BFCF771FEEF
:1036F0000022084BFCF767FEFCF7A2FF10F1FF4F1A
:1037000000D3002010BD000066660A4000FEAF40F6
:1037100000005940000034403EB503200090019065
:103720000520029069460E48FDF7DCFC0C48FDF7C9
:1037300089FE0A210A48FDF7E7FD0948FDF750FD1B
:103740000748FDF77FFE0A210548FDF7DDFD044827
:10375000FDF746FD84B20248FDF7D4FE20463EBD8B
:103760000C0200200FB4054B10B503A9044A0298BF
:1037700000F004F910BC5DF814FB0000F5400008EF
:10378000A40000200FB4084B10B504A902AA0398A6
:1037900000F0F4F8044602A9002000F091FC204655
:1037A00010BC5DF814FB0000C14000087CB5491E48
:1037B0001C461546CDE90001044B6A4621462846C1
:1037C00000F0DCF8009A002111707CBDAB400008CD
:1037D0000907090E002804DB00F1E02080F800143E
:1037E000704700F00F0000F1E02080F8141D7047D2
:1037F00000487047A800002002E008C8121F08C156
:10380000002AFAD170477047002001E001C1121F61
:10381000002AFBD1704700002DE9FF5FDDE902209F
:10382000010DDDF838B0024318D044F61050A1F273
:10383000FF3141430D140F98012820D0A5EB0B0058
:10384000401C5FEA000A4FF00004474EDFF81C916D
:10385000A046504616D5CAF1000728E00F9801246B
:1038600043A2012808D0002100980F9BC0E9002145
:10387000C0E90243BDE8FF9F6FEA0B01F4E7CBF11B
:103880000000DEE7074612E0F80707D0224633467D
:1038900040464946FCF79DFD804689462246334610
:1038A00010461946FCF795FD04460E467F10002F82
:1038B000EAD1DDE90201BAF1000F42464B4602DAD5
:1038C000FCF787FD01E0FCF7F6FD04460E460022FA
:1038D000284BFCF79DFE03D84FF0FF30014607E070
:1038E0000022254B20463146FCF7CCFCFCF7F8FFC4
:1038F000102409E0002C0ADB0A220023FCF7D2FE88
:10390000019B30321A55641E50EA0102F2D1641C48
:10391000019AC4F1110314440F9A012A03D0012221
:1039200008430DD10AE0084304D000204FF0110BEA
:103930000F9080E7A3EB0B056D1E0DE05B4504DDEA
:103940004FF0000205F1010504E003DA4FF0000238
:10395000A5F10105002AECD000980F99C0E90231C9
:10396000C0E9004586E70000000024400000F03F69
:10397000300000000000F0430000E03F2DE9FF4F61
:1039800095B09B468946064600250FE2252877D14B
:1039900000242746F84A0121059400E0044316F864
:1039A000013F203B01FA03F01042F7D130782A287A
:1039B00011D06FF02F033078A0F13002092A16D809
:1039C000059A44F0020402EB820203EB4202104427
:1039D000761C0590EFE759F8042B0592002A03DACC
:1039E000504244F40054059044F00204761C3078B0
:1039F0002E2816D116F8010F44F004042A280DD001
:103A00006FF02F023078A0F13003092B09D807EBB3
:103A1000870302EB4303C718761CF3E759F8047BCE
:103A2000761C30786C280FD006DC4C2817D068281C
:103A30000DD06A2814D104E0742810D07A280FD150
:103A40000DE044F400140AE044F4801401E044F46E
:103A500040147278824202D104F58014761C761CE0
:103A6000307866280BD013DC582877D009DC002882
:103A700075D04528F6D04628F4D047281AD19DE1C4
:103A800018E0632835D0642879D0652812D195E1F3
:103A9000702873D008DC6728F1D069286FD06E28B1
:103AA0000DD06F2806D1B5E073282CD0752875D0BD
:103AB000782874D05A46179990476D1C75E1C4F365
:103AC0000250022809D003280DD0D9F8001004288C
:103AD0000DD00D6009F1040967E1D9F80010EA176B
:103AE000C1E90052F6E7D9F800100D80F2E70D7039
:103AF000F0E719F8041B8DF8001000208DF8010084
:103B0000EA46012003E059F804AB4FF0FF306107AB
:103B10004FF0000102D40DE008F101018846B942DE
:103B20000FDA8045F8DB1AF808100029F4D108E014
:103B300008F1010188468142FADB1AF808100029D1
:103B4000F6D105985B46A0EB080721463846179A40
:103B500000F094FA284400EB080507E04DE029E165
:103B60000DE01AF8010B5A4617999047B8F1010871
:103B7000F7D25B4621463846179A13E142E00A2203
:103B80000092C4F302524FF0000A022A08D059F8FA
:103B900004CB032A4FEAEC710AD00DE029E02AE0B9
:103BA00009F1070121F00702F2E802C1914609E09C
:103BB0000FFA8CFC4FEAEC71042A03D14FFA8CFC0B
:103BC0004FEAEC71002907DA0A460021DCF1000C0B
:103BD00061EB02012D2202E0220504D52B228DF893
:103BE0000420012203E0E20701D02022F7E79046FB
:103BF00059E00A2102E010220DE010214FF0000AE6
:103C000000910BE010224FF0000A44F00404082752
:103C1000009203E008224FF0000A0092C4F302521F
:103C2000022A05D059F804CB0021032A08D009E064
:103C300009F1070121F00702F2E802C1914605E00F
:103C40001FFA8CFC042A01D10CF0FF0C4FF0000885
:103C5000220728D5702806D0009B83F0100353EA72
:103C60000A0305D00EE040228DF80420012208E06E
:103C70005CEA010206D030228DF804208DF80500A0
:103C800002229046009B83F0080353EA0A030AD1FC
:103C90005CEA010201D1620705D530228DF80420CB
:103CA0004FF001087F1E582804D034A003900EA8BE
:103CB00002900DE036A0F9E753466046009AFCF703
:103CC000F1FC84460398825C0298401E02900270C8
:103CD0005CEA0100F0D1029806A9081A00F1200A56
:103CE000600702D524F4803400E00127574502DD47
:103CF000A7EB0A0000E0002000EB0A010090059805
:103D00004144401A0590E00306D45B462146179AC9
:103D1000059800F0B3F90544002706E001A85A46CB
:103D2000C05D179990476D1C7F1C4745F6DBE0038B
:103D30000CD55B462146179A059800F09FF905447B
:103D400004E030205A46179990476D1C0099481E90
:103D500000900029F5DC08E0029802995A460078A4
:103D6000491C0291179990476D1CBAF10001AAF104
:103D7000010AF1DC65E1000009280100303132332D
:103D80003435363738396162636465660000000097
:103D90003031323334353637383941424344454681
:103DA0000000000000F058F90544761C3078002827
:103DB0007FF4ECAD19B02846BDE8F08F620700D45F
:103DC000062709F1070222F0070CFCE80223E1466E
:103DD00003F000485FEA080C02D00FF2702C0DE0EF
:103DE0005FEA045C02D50FF2682C07E05FEAC47C4E
:103DF00002D00FF2602C01E0AFF2700C4FF0FF38F0
:103E000023F00043CDF850C065280CD006DC4528CF
:103E100009D046281DD047283DD13DE0662818D05E
:103E200067287ED138E00021112F01DB112000E04E
:103E3000781CCDE9000106A90EA8FFF7EDFCDDE92D
:103E40000F010E9A03910021009207F1010A0491DB
:103E50004DE04FF000400097CDE9011006A90EA8F3
:103E6000FFF7DAFCDDE90F0203920E9B11990022A5
:103E7000DDF80CA00093049211B9791C00EB010A43
:103E8000B7EB0A0004D4C0F1FF3007F1010A049037
:103E9000AAEB0700019044E0012F00DA012700217E
:103EA000112F01DD112000E03846CDE9000106A9FF
:103EB0000EA8FFF7B1FCDDE90F010E9A0391002176
:103EC00004910092BA4621070CD40399514500DAB7
:103ED0008A46BAF1010F05DD009AAAF10101515C91
:103EE000302908D0B84202DA10F1040F06DA0121B5
:103EF000CDE9011015E0AAF10101E9E7002805DC90
:103F0000049901440491AAEB000102E0411C5145CF
:103F100000DD8A460499401A401C01904FF0004091
:103F20000290200704D40198504501DBCDF80480AD
:103F300000208DF84F0002980DF14F07B0F1004FAF
:103F400025D02B200E9002984FF0020800280CDAA2
:103F5000404202902D200E9007E00A210298FCF7C3
:103F60008BFB3031029007F8011DB8F10001A8F178
:103F70000108F2DC02980028EFD1791E0E98087033
:103F8000307800F0200040F0450007F8020D12A83C
:103F9000C01B00F107081498007800B1012000EB65
:103FA0000A01019801EBE07105984144401A401E56
:103FB0000590E00306D45B462146179A059800F069
:103FC0005DF805441498007818B15A46179990473F
:103FD0006D1CE00324D55B462146179A059800F036
:103FE0004DF805441CE00498002807DBDDE90301D7
:103FF000884203DD0098405C179901E01799302052
:104000005A469047049805F10105401C0490019818
:10401000401E019004D12E205A46179990476D1CDE
:10402000BAF10001AAF1010ADDDC05E017F8010B85
:104030005A46179990476D1CB8F10001A8F1010884
:10404000F4DC5B462146179A0598ABE62D0000008C
:104050002B000000200000002DE9F041044600255F
:104060001E461746880404D405E039462020B04790
:104070006D1C641EF9D52846BDE8F0812DE9F0419C
:10408000044600251E469046C80301D5302700E0AF
:104090002027880404D505E041463846B0476D1C0A
:1040A000641EF9D52846BDE8F0814A68002A06D08A
:1040B0000A68531C0B6010704868401E48607047C7
:1040C0000A68531C0B6010707047000010B504465E
:1040D0000748FDF7DDFF06480021026851620168CC
:1040E0004A6AA242FCD3BDE810400148FEF724B85A
:1040F000F400002013B501216846FFF7ABF90098E2
:104100001CBD0000FDF7A0FBFEF7B2FEFCF798FF18
:10411000FEF70CFCFEF770FCFEF7A0FC0EA0FFF70C
:1041200021FBFFF709F9FFF756F801220E490F4866
:10413000FEF7E6FA0E4E4FF4FA744FF4005520469F
:10414000FDF76AFAFFF7CAF8FFF738F82946304654
:10415000FDF75FFBF3E700005553415254205265D1
:104160006164790D0A0000006000002084010020D5
:104170000010014010B50446014604A0FFF74CF9B9
:104180002146BDE8104001A0FFF7ECBA25730000FE
:104190000000000001020304004040404040404055
:1041A000404041414141414040404040404040400A
:1041B00040404040404040404005020202020202AE
:1041C00002020202020202020220202020202020FD
:1041D0002020200202020202020290909090909011
:1041E00010101010101010101010101010101010CF
:1041F0001010101002020202020288888888888843
:10420000080808080808080808080808080808082E
:104210000808080802020202400000009941000854
:104220004042000800000020AC000000F837000801
:10423000EC420008AC0000202C0700000838000801
:10424000000000000000000000000000000000006E
:10425000000000000000000000000000000000005E
:10426000000000007B2254656D70223A25642C22E8
:1042700048756D69223A25642C225048223A2564FB
:104280002C22546473223A25642C224C7578223AED
:1042900025642C225761746572223A25647D0000E2
:1042A000000000000000000000000000000000000E
:1042B00000000000000000000000000000000000FE
:1042C00000000000010000001000000000000000DD
:1042D00000A24A04000000000000000001020304E4
:0C42E000060708090000000000000000B4
:04000005080000ED02
:00000001FF
