:020000040800F2
:10000000180700209101000809130008650B00087B
:100010000513000869070008FF2800080000000019
:10002000000000000000000000000000651D000846
:100030000D08000800000000211D0008611F0008D5
:10004000AB010008AB010008AB010008AB010008E0
:10005000AB010008AB010008AB010008AB010008D0
:10006000AB010008AB010008AB010008AB010008C0
:10007000AB010008AB010008AB010008AB010008B0
:10008000AB010008AB010008AB010008AB010008A0
:10009000AB010008AB010008AB010008AB01000890
:1000A000AB010008AB010008AB010008AB01000880
:1000B000A122000859230008AB010008AB01000889
:1000C000AB010008AB010008AB010008AB01000860
:1000D000AB010008AB010008E5270008AB010008F0
:1000E00011080008AB010008AB01000800F002F89D
:1000F00000F03FF80AA090E8000C82448344AAF183
:100100000107DA4501D100F034F8AFF2090EBAE880
:100110000F0013F0010F18BFFB1A43F0010318473B
:100120003081000050810000103A24BF78C878C1A7
:10013000FAD8520724BF30C830C144BF04680C60ED
:10014000704700000023002400250026103A28BF35
:1001500078C1FBD8520728BF30C148BF0B60704739
:10016000642900F06780002070471FB51FBD10B5DF
:1001700010BD00F0CBFA1146FFF7F7FF04F082F94B
:1001800000F0E9FA03B4FFF7F2FF03BC02F03DFC14
:100190000948804709480047FEE7FEE7FEE7FEE71B
:1001A000FEE7FEE7FEE7FEE7FEE7FEE70448054957
:1001B000054A064B70470000651F0008ED00000867
:1001C0001801002018070020180300201803002041
:1001D000704710B54C1084EA530404D54042C1F175
:1001E000000138BF491E1B4204D55242C3F100032F
:1001F00038BF5B1E00F02EF914F0804F04D040424F
:10020000C1F1000138BF491E14F0004F04D0524222
:10021000C3F1000338BF5B1E10BD00000FB40449DA
:1002200010B503AA029800F0F1F910BC5DF814FBB8
:10023000340000202DE9F04106460024106875299D
:10024000314616A510D0AFF30080002802DA4042F4
:1002500013A507E031688A0701D512A502E0490716
:1002600004D511A5012401E0AFF3008000210A228A
:1002700006F1240709E0B0FBF2FCB0FBF2F302FB4D
:100280001C00303078541846491C0028F3D123460E
:100290002A463046BDE8F04100F05EB9000000009B
:1002A0002D0000002B000000200000002DE9F05F71
:1002B000894604464FF0000ADFF824B1FB44C0F839
:1002C00020A02046E168884700287DD0252806D058
:1002D000D4E901219047206A401C2062F1E7002503
:1002E0005F462046E16888472028064607DB312E16
:1002F00005D2B81910F8200C08B10543F1E7A8079A
:1003000001D525F00405C4F81CA00027C4F818A0E6
:100310002A2E09D0304602F071FB38B304EB87086F
:10032000303EC8F8186019E059F8041B204604EB69
:1003300087029161E1688847012F064618D1E0697C
:10034000002820DA25F020051DE0D8F8180000EB81
:10035000800006EB40003038C8F818002046E168FD
:100360008847064602F04AFB0028EED1012F0AD04A
:100370002E2E08D12046E16888477F1C0646022FB2
:1003800045F02005C4DBA069002803DA404245F0AF
:100390000105A061E80701D025F01005A6B1A6F17E
:1003A0004100192802D8203645F400654A463146F6
:1003B000204625604D46FFF7D3FE60B1012807D0E7
:1003C000ED1D25F0070000E007E000F1080978E7DF
:1003D00005F1040975E730467AE7206ABDE8F09F29
:1003E0003E7E000040EA010310B59B070FD1042AAE
:1003F0000DD310C808C9121F9C42F8D020BA19BAF0
:10040000884201D9012010BD4FF0FF3010BD1AB154
:10041000D30703D0521C07E0002010BD10F8013BA9
:1004200011F8014B1B1B07D110F8013B11F8014BD0
:100430001B1B01D1921EF1D1184610BD02F0FF0323
:1004400043EA032242EA024200F0F4B870477047E0
:100450007047704753EA020C00F069802DE9F04BB9
:100460004FF00006002B1FBFB3FA83F503FA05F423
:1004700024FA05F65E4012BF1643B2FA82F502FA7C
:1004800005F4C5F120051EBF22FA05FC44EA0C0460
:10049000203556EA044C4FEA144418BF641C4FF050
:1004A00000084FF00009904271EB030C39D300298A
:1004B00019BFB1FA81F701FA07F6B0FA80F700FA2E
:1004C00007F6C7F120071EBF20FA07FC46EA0C0614
:1004D0002037B6FBF4FCA7EB0507103F07F01F0B16
:1004E000CBF120060CFA0BFB2CFA06F644BFB34600
:1004F0000026202FA4BF5E464FF0000B5BEA060CDF
:1005000008BF4FF0010B19EB0B09ABFB027C48EB6A
:100510000608C01B06FB02CC0BFB03CC71EB0C01E5
:10052000C1E70B46024641464846BDE8F08B13B58D
:100530004FF000004FF00001AFF30080BDE81C4019
:10054000704710B500F096F8006810BD10B504466D
:1005500000F090F8046010BD2DE9F0470D46994673
:100560009246044600F124080168880604D5E06933
:1005700021F01001216000E00120A84201DD471BAD
:1005800000E00027A1697A1902EB0900081AA061AE
:100590002078C00602D42046AFF30080002608E091
:1005A000D4E901211AF806009047206A401C761C05
:1005B00020624E45F4DB2078C0060AD52046AFF312
:1005C000008006E0D4E9012130209047206A401CD9
:1005D0002062381EA7F10107F4DC07E0D4E901210D
:1005E00018F805009047206A401C2062281EA5F1DB
:1005F0000105F3DC2046AFF300802078000602D529
:100600000220BDE8F0870120FBE70000074B70B532
:100610000D467B4400F037F80446284600F046F8C3
:1006200010B14FF0FF3070BD204670BDA7370000FD
:100630004FF000020429C0F0128010F0030C00F00B
:100640003B80CCF1040CBCF1020F18BF00F8012B69
:10065000A8BF20F8022BA1EB0C0100F02DB85FEA37
:10066000C17C24BF00F8012B00F8012B48BF00F823
:10067000012B704700487047B800002001694A1CF0
:1006800002610878704700B58FB0CDE901310021D3
:10069000059105497944CDE9031011466846FFF7F5
:1006A00005FE0FB000BD0000E5FFFFFF007B00F07E
:1006B000800070474FF0000200B5134694469646FE
:1006C000203922BFA0E80C50A0E80C50B1F1200165
:1006D000BFF4F7AF090728BFA0E80C5048BF0CC013
:1006E0005DF804EB890028BF40F8042B08BF704771
:1006F00048BF20F8022B11F0804F18BF00F8012BE3
:100700007047000000487047B80000207546FFF7AA
:10071000F9FFAE4605006946534620F007008546BE
:1007200018B020B5FFF742FDBDE820404FF00006AD
:100730004FF000074FF000084FF0000B21F00701C9
:10074000AC46ACE8C009ACE8C009ACE8C009ACE80C
:10075000C0098D46704710B50446AFF300802046AF
:10076000BDE81040FFF70EBD00BFFEE770B50125E4
:100770000024012319A20421002001F045F90123DE
:1007800019A20521002001F03FF9012319A2062139
:10079000002001F039F90FE02A466D1C01230521E4
:1007A0003C2000F085FF0123224606212A2000F08C
:1007B0007FFFC82002F0DCFC03F0FCFFA042EBD17D
:1007C00001230EA20421002001F01EF94FF47A70DB
:1007D00002F0CEFC00F000FE70BD0000444D502041
:1007E000696E672E2E2E0000417474656D707473EF
:1007F0003A0000004572726F723A0000444D50207A
:100800004F4B21205F5F57474E00000070470000AC
:10081000FEB5294A29492A4803F0BAFE002846D1E4
:10082000274800682749086027480068274908606A
:1008300004F0A2FF054604F0ADFF2C1804EBD470C1
:10084000401023490860214801681E48006805F0EF
:10085000C5F804461E48006805F074F820441D4998
:1008600008606A4601A902A800F054FAF8B904F039
:1008700091FF064604F080FF0746BDF9002031468F
:1008800005F046F8134909680C1A04F083FF064680
:1008900004F072FF0746BDF90020314605F038F834
:1008A0000C49096845182146284601F0D1FA4FF451
:1008B000805000F011F8FEBD940000209000002050
:1008C0008C00002098000020000000209C000020E8
:1008D000A0000020A400002001490860704700002B
:1008E00014040140002123498279002A3AD00A46A3
:1008F000126803689A430B461A600A1D126803685F
:100900009A430B1D1A60027911440A6803681A435E
:100910000A60184A0832126803689A43154B083374
:100920001A601A1D126803689A43124B0C331A603E
:100930004279102A0ED11A1F126803681A430D4B10
:1009400008331A601A1D126803681A43094B0C33E6
:100950001A600DE00749427911440A6803681A4396
:100960000A6005E0027911440A6803689A430A6044
:10097000704700000004014030B500228B071C0FB7
:100980000F2303FA04F20B4B8C1053F824309343DB
:10099000084C8D1044F8253023468C1053F8243031
:1009A0008C07240F00FA04F42343024C8D1044F802
:1009B000253030BD080001402DE9F04102460025F8
:1009C0000026002000230024002791F803C00CF02B
:1009D0000F0591F803C00CF0100CBCF1000F03D010
:1009E00091F802C04CEA050591F800C0BCF1000F77
:1009F00031D0146800202BE04FF0010C0CFA00F30A
:100A0000B1F800C00CEA03069E4220D183004FF0EB
:100A10000F0C0CFA03F7BC4305FA03FC4CEA040480
:100A200091F803C0BCF1280F06D14FF0010C0CFA6D
:100A300000FCC2F814C00AE091F803C0BCF1480FF2
:100A400005D14FF0010C0CFA00FCC2F810C0401C9C
:100A50000828D1D31460B1F800C0BCF1FF0F34DD19
:100A6000546800202EE000F1080C4FF0010808FA4D
:100A70000CF3B1F800C00CEA03069E4221D18300BA
:100A80004FF00F0C0CFA03F7BC4305FA03FC4CEAD9
:100A9000040491F803C0BCF1280F05D100F1080C43
:100AA00008FA0CF8C2F8148091F803C0BCF1480FA2
:100AB00007D100F1080C4FF0010808FA0CF8C2F851
:100AC0001080401C0828CED35460BDE8F08100009F
:100AD000F0B50A46002300240021002500F000465E
:100AE000B6F1004F02D11D4EF16901E01B4E716855
:100AF000C0F3034583B200F44016B6F5401F08D199
:100B000021F07061154E766826F07066134F7E6096
:100B100012E000F48016B6F5801F06D1032606FA0F
:100B200005F4A14341F0706106E0460D360103FA79
:100B300006F6B14341F0706122B1460D360103FA69
:100B400006F6314300F00046B6F1004F02D1034EE5
:100B5000F16101E0014E7160F0BD00000000014054
:100B60000161704700BFFEE708B50121082001F0D0
:100B7000E9F80121084601F0E5F801210A48FFF7EC
:100B8000A7FF3020ADF8000010208DF803000320EF
:100B90008DF8020069460548FFF70EFF3021034833
:100BA000FFF7DEFF08BD000000023000000C01402E
:100BB00070B504461548006820F470201349086099
:100BC0000846006840F44030086000201049086082
:100BD000002517E0E0090E49091F08606006040EB1
:100BE000022002F0EBFA01200A49C1F89401022028
:100BF00002F0E4FA002006490860022002F0DEFA62
:100C0000681CC5B2082DE5DB70BD0000000C01407A
:100C1000948121420080214210B50F48006820F4E1
:100C200070200D4908600846006840F440300860B4
:100C300001200A4908600A49C1F89401042002F021
:100C4000BDFA002005490860042002F0B7FA002030
:100C50000349C1F8940110BD000C0140908121426C
:100C60000080214210B50F48006820F470200D4923
:100C700008600846006840F44030086000200A49D7
:100C800008600A49C1F89001042002F097FA012097
:100C9000054908600549C1F89001042002F08EFA68
:100CA00010BD0000000C01409481214200802142CF
:100CB00010B500241448006820F470201249086020
:100CC0000846006840F40020086001200F490860D1
:100CD00002F074FA01200E49C1F8940102F06EFA94
:100CE00007E0601CC4B2FA2C03DDFFF7BBFF012054
:100CF00010BD0648803800680028F2D10349091D5C
:100D0000086000BFF4E70000000C01409081214220
:100D1000008021422DE9FC4104460D4616466B46F3
:100D200006224321682000F0DEF90746BFB99DF88E
:100D300001009DF8001040EA012000B220809DF8DB
:100D400003009DF8021040EA012000B228809DF8BF
:100D500005009DF8041040EA012000B230803846BA
:100D6000BDE8FC8110B500200E4908600E480068FF
:100D700020F0F0000C4908600846006840F03000A0
:100D8000086000200949C1F8A40100F011F8012011
:100D90000449086000F00CF800200449C1F8A001E3
:100DA00010BD0000A0812142040C014000802142BE
:100DB00010B5022002F002FA10BD000008B50121B2
:100DC000082000F0BFFF4FF44070ADF80000102085
:100DD0008DF8030003208DF8020069460448FFF7F0
:100DE000EBFD4FF440710248FFF7BAFE08BD00006A
:100DF000000C014010B500200E4908600E48006844
:100E000020F0F0000C4908600846006840F030000F
:100E1000086001200949C1F8A401FFF7C9FF0120BA
:100E200004490860FFF7C4FF00200449C1F8A0018D
:100E300010BD0000A0812142040C0140008021422D
:100E400070B5054600241648006820F0F0001449EB
:100E500008600846006840F080000860002614E042
:100E6000002010490860FFF7A3FF01200E49C1F8D8
:100E7000A0016006040E0B487C38006808B1601CB5
:100E8000C4B2FFF795FF701CC6B2082EE8DB15B997
:100E9000FFF7B0FF01E0FFF765FF204670BD0000DF
:100EA000040C0140A08121420080214270B504461B
:100EB0001248006820F0F0001049086008460068F9
:100EC00040F03000086000200D490860002512E065
:100ED000E0090B49091D08606006040E012009495C
:100EE000C1F8A001FFF764FF002005490860FFF783
:100EF0005FFF681CC5B2082DEADB70BD040C014021
:100F0000A08121420080214210B50E48006820F0E7
:100F1000F0000C4908600846006840F030000860A6
:100F20000120094908600949C1F8A001FFF740FF05
:100F3000002005490860FFF73BFF00200349C1F886
:100F4000A00110BD040C0140A48121420080214277
:100F500010B50E48006820F0F0000C490860084603
:100F6000006840F030000860002009490860094925
:100F7000C1F8A401FFF71CFF0120054908600549DD
:100F8000C1F8A401FFF714FF10BD0000040C0140DC
:100F9000A08121420080214210B50024144800683D
:100FA00020F0F000124908600846006840F0800018
:100FB000086001200F490860FFF7FAFE01200E4982
:100FC000C1F8A001FFF7F4FE07E0601CC4B2FA2CE0
:100FD00003DDFFF7BDFF012010BD06488038006823
:100FE0000028F2D10349091F086000BFF4E70000A0
:100FF000040C0140A48121420080214210B5FFF77A
:10100000DDFE80216B2000F0F2F8642002F0B0F8E1
:1010100000216B2000F0EBF8032000F0A6F8002080
:1010200000F09BF8322000F0C5F80021382000F0D5
:10103000DEF800216A2000F0DAF80021232000F019
:10104000D6F88021372000F0D2F8752000F02EF875
:101050000446682C0BD101216B2000F0C8F8002158
:101060006C2000F0C4F8322000F0A4F807E001235F
:1010700008A20221002000F0C7FC012010BD0123BE
:1010800007A20221002000F0BFFC322002F070F81D
:101090000020F3E74D505536303530206572720030
:1010A0004D505536303530204F4B210070B5044639
:1010B000FFF72AFFD020FFF7F9FEFFF76DFF20466C
:1010C000FFF7F4FEFFF768FFFFF71EFFD120FFF7E1
:1010D000EDFEFFF761FF0020FFF7B2FE0546FFF7C8
:1010E00037FF284670BD2DE9F04106460F461446ED
:1010F0001D46FFF709FF002141EA4601C8B2FFF78C
:10110000D5FEFFF749FF20B1FFF722FF0120BDE820
:10111000F0813846FFF7CAFEFFF73EFFFFF7F4FE07
:10112000012101EB4601C8B2FFF7C0FEFFF734FF13
:101130000DE0012C04D10020FFF782FE287003E0AF
:101140000120FFF77DFE2870601EC4B26D1C002CCC
:10115000EFD1FFF7FDFE0020D9E710B50446E00609
:10116000010E1C2000F043F810BD10B50446E00647
:10117000010E1B2000F03BF810BD70B504460025A1
:10118000BC2C01DB012510E0622C01DB02250CE008
:101190002A2C01DB032508E0142C01DB042504E0E4
:1011A0000A2C01DB052500E0062529461A2000F05F
:1011B0001EF870BD70B50446B4F57A7F01DD4FF4BA
:1011C0007A74042C00DA04244FF47A7090FBF4F063
:1011D000401EC5B22946192000F009F805462646EA
:1011E00004EBD671C1F34F00FFF7C7FF70BD70B5B8
:1011F00005460C46FFF788FED020FFF757FEFFF7A5
:10120000CBFE18B1FFF7A4FE012070BD2846FFF702
:101210004DFEFFF7C1FE2046FFF748FEFFF7BCFE7C
:1012200018B1FFF795FE0120EFE7FFF791FE0020D0
:10123000EBE72DE9F04105460E4617469846FFF7C5
:1012400063FE002141EA4501C8B2FFF72FFEFFF718
:10125000A3FE20B1FFF77CFE0120BDE8F0813046FF
:10126000FFF724FEFFF798FE00240CE018F80400B6
:10127000FFF71CFEFFF790FE18B1FFF769FE012093
:10128000EBE7601CC4B2BC42F0DBFFF761FE00205C
:10129000E3E700001FB50121042000F053FD012108
:1012A000084600F04FFD4FF48050ADF80000482094
:1012B0008DF8030069461248FFF77EFB0C210020E1
:1012C000FFF75AFB4FF48050029000208DF80C007D
:1012D0000C208DF80D0001208DF80E0002A8FFF7FC
:1012E00001FB28208DF8040000208DF805008DF802
:1012F000060001208DF8070001A800F007F81FBDC7
:101300000008014000BFFEE77047000070B50021F3
:1013100000230F22C47804B3154C246804F4E0645D
:10132000C4F5E064210AC1F10403CA40447804FA18
:1013300003F184781440214309010E4C0678A1552D
:10134000047804F01F050124AC4005786D11AD0050
:1013500005F1E025C5F8004109E0047804F01F0517
:101360000124AC40044D0678761145F8264070BD46
:101370000CED00E000E400E080E100E00249014300
:10138000024A1160704700000000FA050CED00E011
:10139000014600291ADB0E48814217DA0A2901DAD0
:1013A00001207047642901DA0220FAE7B1F57A7F5B
:1013B00001DA0320F5E742F21070814201DA0420DD
:1013C000EFE70448814201DA0520EAE70020E8E778
:1013D000A086010040420F0010B5002000F04DF83B
:1013E00010BD10B50446FFF717FC7820FFF7E0FBAF
:1013F000FFF75EFC18B1FFF735FC012010BD00209F
:10140000FFF7D6FBFFF754FC18B1FFF72BFC0120C8
:10141000F4E72046FFF7CCFBFFF74AFC18B1FFF7D3
:1014200021FC0120EAE7FFF71DFC0020E6E710B5EC
:101430000446FFF7F1FB7820FFF7BAFBFFF738FC13
:1014400018B1FFF70FFC012010BD4020FFF7B0FBE3
:10145000FFF72EFC18B1FFF705FC0120F4E720464A
:10146000FFF7A6FBFFF724FC18B1FFF7FBFB0120F9
:10147000EAE7FFF7F7FB0020E6E770B50646002431
:1014800015E004F1B001C8B2FFF7ABFF0020FFF791
:10149000A8FF1020FFF7A5FF002504E03046FFF766
:1014A000C6FF681CC5B2802DF8DB601CC4B2082CD6
:1014B000E7DB70BD10B5FFF757FB642001F058FE65
:1014C000AE20FFF78EFF2020FFF78BFF1020FFF7E5
:1014D00088FFB020FFF785FFC820FFF782FFA1201B
:1014E000FFF77FFF0020FFF77CFF1020FFF779FF59
:1014F0004020FFF776FF8120FFF773FFFF20FFF703
:1015000070FFA620FFF76DFFA820FFF76AFF3F20BE
:10151000FFF767FFA420FFF764FFD320FFF761FF09
:101520000020FFF75EFFD520FFF75BFFF020FFF7FD
:1015300058FFD920FFF755FF2220FFF752FFDA208E
:10154000FFF74FFF1220FFF74CFFDB20FFF749FFAB
:101550002020FFF746FF8D20FFF743FF1420FFF701
:1015600040FFAF20FFF73DFF0020FFF786FF02237B
:1015700013A20121062000F047FA4FF47A7001F01F
:10158000F7FD022312A20321062000F03DFA4FF4DA
:101590007A7001F0EDFD022311A205210A2000F06E
:1015A00033FA4FF47A7001F0E3FD0020FFF765FF96
:1015B00001230EA20021084600F026FA10BD00000B
:1015C00042793A2077756A756E646F6E6700000025
:1015D00051513A2031373234323638313434000008
:1015E0002020323032322F392F3232004F4C4544D6
:1015F000204F4B210000000070B504460D4605F158
:10160000B001C8B2FFF7EDFE102141EA1410FFF758
:10161000E8FE04F00F0141F00100FFF7E2FE70BDAB
:101620002DE9F04107460E461E49384605F04CF9B3
:10163000804605F0ADF804461A49304605F044F9F5
:10164000804605F0A5F80546002C07DA022316A20D
:101650001946002000F0D8F9644205E0022313A2E5
:101660001946002000F0D0F902232246194608202E
:1016700000F0A8FA002D07DA02230BA204210020B3
:1016800000F0C2F96D4205E0022308A20421002007
:1016900000F0BAF902232A460421082000F092FA49
:1016A000BDE8F081000020412D0000002000000076
:1016B0002DE9F84F04460F4615461E460A20B5FB95
:1016C000F0F100FB11586420B5FBF0F100FB115064
:1016D0000A21B0FBF1F94FF47A70B5FBF0F100FB91
:1016E00011506421B0FBF1FA42F21070B5FBF0F139
:1016F00000FB11504FF47A71B0FBF1FB42F2107015
:10170000B5FBF0F00090012E7BD12846FFF740FE9C
:10171000062875D2DFE800F074030A182E4E33460F
:1017200042463946204600F0EFF869E033464A4623
:101730003946204600F0E8F8A11DC8B233464246BB
:10174000394600F0E1F85BE0334652463946204620
:1017500000F0DAF8A11DC8B233464A46394600F017
:10176000D3F804F10C01C8B233464246394600F0C2
:10177000CBF845E0A11DC8B233465A46394600F0C1
:10178000C3F804F10C01C8B233465246394600F0A2
:10179000BBF804F11201C8B233464A46394600F09C
:1017A000B3F804F11801C8B233464246394600F096
:1017B000ABF825E0334639462046009A00F0A4F8FD
:1017C000A11DC8B233465A46394600F09DF804F1CF
:1017D0000C01C8B233465246394600F095F804F180
:1017E0001201C8B233464A46394600F08DF804F17A
:1017F0001801C8B233464246394600F085F800BFAA
:1018000000BF022E7DD12846FFF7C2FD062877D201
:10181000DFE800F076030A19304F33464246394676
:10182000204600F071F86BE033464A4639462046C0
:1018300000F06AF804F10801C8B23346424639465E
:1018400000F062F85CE0334652463946204600F02C
:101850005BF804F10801C8B233464A46394600F045
:1018600053F804F11001C8B233464246394600F03D
:101870004BF845E033465A463946204600F044F8D6
:1018800004F10801C8B233465246394600F03CF82C
:1018900004F11001C8B233464A46394600F034F824
:1018A00004F11801C8B233464246394600F02CF81C
:1018B00026E0334639462046009A00F025F804F128
:1018C0000801C8B233465A46394600F01DF804F103
:1018D0001001C8B233465246394600F015F804F1FB
:1018E0001801C8B233464A46394600F00DF804F1F3
:1018F0002001C8B233464246394600F005F800BF21
:1019000000BFBDE8F88F00002DE9F84F0646884675
:1019100091469A4600270024002509F13000C0B204
:101920008DF8000000208DF80100BAF1010F03D0FE
:10193000BAF1020F60D126E020E01DF80500203842
:10194000C7B27E2E04DD002608F1010000F0FF087A
:1019500041463046FFF750FE002409E007EB4701FF
:10196000274A02EB4101085DFFF761FD601CC4B22C
:10197000062CF3DBB01DC6B2681CC5B21DF805000D
:101980000028DAD138E032E01DF805002038C7B26F
:10199000782E04DD002608F1010000F0FF08414622
:1019A0003046FFF729FE002407E004EB0711154A33
:1019B000505CFFF73CFD601CC4B2082CF5DB08F15D
:1019C0000100C1B23046FFF717FE002408E004EB27
:1019D000071108310B4A505CFFF729FD601CC4B2A7
:1019E000082CF4DB06F10800C6B2681CC5B21DF86D
:1019F00005000028C8D100BF00BFBDE8F88F000077
:101A0000E67800080E7B00082DE9F0470646894677
:101A100017469A464FF0000800240025BAF1010F3E
:101A200003D0BAF1020F5ED125E020E0785D2038C6
:101A300000F0FF087E2E04DD002609F1010000F011
:101A4000FF0949463046FFF7D7FD002409E008EBBF
:101A50004801264A02EB4101085DFFF7E8FC601CE3
:101A6000C4B2062CF3DBB01DC6B2681CC5B2785DEB
:101A70000028DBD137E032E0785D203800F0FF0845
:101A8000782E04DD002609F1010000F0FF09494627
:101A90003046FFF7B1FD002407E004EB0811144ABB
:101AA000505CFFF7C4FC601CC4B2082CF5DB09F1E4
:101AB0000100C1B23046FFF79FFD002408E004EBAF
:101AC000081108310A4A505CFFF7B1FC601CC4B22F
:101AD000082CF4DB06F10800C6B2681CC5B2785DBC
:101AE0000028C9D100BF00BFBDE8F087E678000834
:101AF0000E7B00082DE9F05F04460F4615461E4692
:101B00000A20B5FBF0F100FB11586420B5FBF0F1A1
:101B100000FB11500A21B0FBF1F94FF47A70B5FBCC
:101B2000F0F100FB11506421B0FBF1FA42F21070A9
:101B3000B5FBF0F100FB11504FF47A71B0FBF1FBF3
:101B4000012E1CD133465A4639462046FFF7DCFEAB
:101B5000A11DC8B2334652463946FFF7D5FE04F1FF
:101B60000C01C8B233464A463946FFF7CDFE04F1B0
:101B70001201C8B2334642463946FFF7C5FE022E6F
:101B80001DD133465A4639462046FFF7BDFE04F1C3
:101B90000801C8B2334652463946FFF7B5FE04F194
:101BA0001001C8B233464A463946FFF7ADFE04F18C
:101BB0001801C8B2334642463946FFF7A5FEBDE8D4
:101BC000F09F00002DE9F05F04460F4615461E46C3
:101BD0000A20B5FBF0F100FB11586420B5FBF0F1D1
:101BE00000FB11500A21B0FBF1F94FF47A70B5FBFC
:101BF000F0F100FB11506421B0FBF1FA42F21070D9
:101C0000B5FBF0F100FB11504FF47A71B0FBF1FB22
:101C1000012E24D133465A4639462046FFF774FE3A
:101C2000A11DC8B2334652463946FFF76DFE04F196
:101C30000C01C8B233464A463946FFF765FE04F147
:101C40001201C8B233461BA23946FFF7DDFE04F18C
:101C50001801C8B2334642463946FFF755FE022EF8
:101C600025D133465A4639462046FFF74DFE04F14A
:101C70000801C8B2334652463946FFF745FE04F123
:101C80001001C8B233464A463946FFF73DFE04F11B
:101C90001801C8B2334607A23946FFF7B5FE04F172
:101CA0002001C8B2334642463946FFF72DFEBDE853
:101CB000F09F00002E00000070B505460C46002D78
:101CC00007DA022314A219465020FFF79DFE6D4249
:101CD00005E0022311A219465020FFF795FE0223CA
:101CE0002A4619465820FFF705FF002C07DA022381
:101CF00009A204215020FFF787FE644205E0022379
:101D000006A204215020FFF77FFE02232246042171
:101D10005820FFF7EFFE70BD2D00000020000000EE
:101D20007047000029B1064AD2690243044BDA61C8
:101D300004E0034AD2698243014BDA617047000034
:101D40000010024029B1064A92690243044B9A618D
:101D500004E0034A92698243014B9A617047000094
:101D600000100240704710B500F002F810BD0000EE
:101D70000CB50020019000903348006840F480309A
:101D80003149086000BF3048006800F4003000901E
:101D90000198401C0190009818B90198B0F5A06F07
:101DA000F1D12948006800F4003010B10120009002
:101DB00001E0002000900098012843D123480068EA
:101DC00040F01000214908600846006820F0030038
:101DD00008600846006840F0020008601A48406841
:101DE000194948600846406848600846406840F421
:101DF000806048600846406820F47C1048600846CF
:101E0000406840F4E81048600846006840F0807080
:101E1000086000BF0C48006800F000700028F9D08E
:101E20000948406820F003000749486008464068B8
:101E300040F00200486000BF0348406800F00C001A
:101E40000828F9D10CBD000000100240002002401B
:101E500070B504460D46B4F5E15F02DD4FF4E15480
:101E600003E014F5E15F00DA2F4CB5F5E15F02DD28
:101E70004FF4E15503E015F5E15F00DA2A4D002C3F
:101E80000DDD00202949086001202949C1F8BC0165
:101E9000C4F5E15081B2274800F015FC17E0002C92
:101EA0000EDA01202149086000202149C1F8BC0157
:101EB0006042C0F5E15081B21E4800F004FC06E02B
:101EC0002CB90020194908601949C1F8BC01002D3E
:101ED0000EDD002015490839086001201449C1F8B9
:101EE000B401C5F5E15081B2124800F0EEFB19E0F3
:101EF000002D0FDA01200D490839086000200C4937
:101F0000C1F8B4016842C0F5E15081B2094800F05F
:101F1000DCFB07E035B901200449083908600449B1
:101F2000C1F8B40170BD0000E0E3FFFFB8812142B9
:101F300000802142002C0140042808D14FF0E0210C
:101F4000096941F004014FF0E022116107E04FF010
:101F5000E021096921F004014FF0E022116170478E
:101F60007047000010B51348006840F001001149A7
:101F7000086008464068104908400E494860084615
:101F800000680E4908400B4908600846006820F4C4
:101F9000802008600846406820F4FE0048604FF446
:101FA0001F008860FFF7DFFE4FF000600449086003
:101FB00010BD0000001002400000FFF8FFFFF6FE19
:101FC00008ED00E0F0B50C46154600220021068C15
:101FD0004FF6FE773E400684028B018C4FF60C765E
:101FE00032407E1C06EA03162E433243104EB042A6
:101FF0000ED0104EB0420BD0B0F1804F08D00E4E34
:10200000B04205D00D4EB04202D00D4EB04206D1C6
:102010004FF6FD76314044F00106314305E04FF6BE
:10202000F576314044F00106314302830184F0BD6E
:10203000002C014000340140000400400008004032
:10204000000C0040F0B50C46154600220021002689
:10205000078C4FF6EF7C07EA0C070784028B018C94
:102060004FF6FF7707EA041640F6FF473A404FF66F
:10207000FF7707EA03373A434FF6FF7707EA05276A
:102080003A43114FB8420ED0104FB8420BD0B0F1C6
:10209000804F08D00E4FB84205D00E4FB84202D044
:1020A0000D4FB84206D14FF6DF77394046F01007A2
:1020B000394305E04FF65F77394044F01007394364
:1020C00002830184F0BD0000002C01400034014077
:1020D0000004004000080040000C0040F0B50C4631
:1020E0001546002200210026078C4FF6FF6C07EAF8
:1020F0000C070784828B018C4FF6FF7707EA0426D2
:102100004FF60C773A404FF6FF7707EA03172F4355
:102110003A43114FB8420ED0104FB8420BD0B0F135
:10212000804F08D00E4FB84205D00E4FB84202D0B3
:102130000D4FB84206D14FF6FF57394046F480772D
:10214000394305E04FF2FF57394044F48077394373
:1021500082830184F0BD0000002C01400034014066
:102160000004004000080040000C0040F0B50C46A0
:102170001546002200210026078C4EF6FF7C07EA58
:102180000C070784828B018C4FF6FF7707EA043631
:1021900040F6FF473A404FF6FF7707EA05273A43F4
:1021A0004FF6FF7707EA03373A43114FB8420ED094
:1021B000104FB8420BD0B0F1804F08D00E4FB8424C
:1021C00005D00E4FB84202D00D4FB84206D14DF6A1
:1021D000FF77394046F48057394305E047F6FF570B
:1021E000394044F48057394382830184F0BD0000B4
:1021F000002C014000340140000400400008004071
:10220000000C004030B589B005460C460121042081
:10221000FFF798FD0121C802FFF794FD4FF410600D
:10222000ADF8040018208DF8070003208DF8060093
:1022300001A91948FEF7C0FBADF81C50ADF81840D5
:102240000020ADF81E00ADF81A0006A9134800F0F2
:102250006DFA7020ADF808000120ADF80A000020EA
:10226000ADF8100002A90D4800F08CF902A90B4846
:1022700000F0DEF90821094800F0D0F908210748EC
:1022800000F014FA0121054800F0C4F801210348C8
:1022900000F0CCF809B030BD00080140002C01402E
:1022A00010B50121880700F0F4F818B10121880762
:1022B00000F0ADF810BD000000B587B00121084660
:1022C000FFF730FD01210420FFF73CFD0320ADF8AE
:1022D000000004208DF8030069461E48FEF76CFBE1
:1022E00004A800F075FA0020ADF810004FF6FF705A
:1022F000ADF814000020ADF81600ADF8120004A9E6
:102300004FF0804000F012FA00231A4603214FF0EC
:10231000804000F09AF801A800F022F90A20ADF8F8
:102320000C0001A9400700F0C5F80121880700F062
:102330006BF801221146900700F01BF900214FF0C5
:10234000804000F0C5F90121880700F063F807B06C
:1023500000BD00000008014010B50121044800F054
:1023600098F818B10121024800F051F810BD0000A2
:102370000004004000B587B001210420FFF7E2FC13
:1023800001210220FFF7CEFC04208DF81B00C020A5
:10239000ADF8180006A91A48FEF70EFB03A800F0D6
:1023A00017FA0020ADF81200ADF80E004FF6FF70DE
:1023B000ADF810000020ADF80C0003A9114800F0A2
:1023C000B5F90223002203210E4800F03EF86846CA
:1023D00000F0C6F80A20ADF808006946094800F088
:1023E00069F801221146074800F0C3F800210548AA
:1023F00000F06EF90121034800F00CF807B000BDB1
:102400000008014000040040CA4302827047CA43EA
:102410000282704721B1028842F00102028004E08A
:1024200002884FF6FE731A400280704731B1B0F84F
:10243000442042F40042A0F8442005E0B0F84420D3
:10244000C2F30E02A0F844207047F0B50C461546C2
:102450001E460021002200230189028B038C4FF6C7
:10246000F877394021434FF6FC473A4040F20117D4
:102470003A434FF6DD773B404FF6FF7707EA061702
:102480002F433B43018102830384F0BD0146888CC6
:10249000704730B50246002000230024158A05EA63
:1024A0000103958905EA010413B10CB1012000E094
:1024B000002030BD70B505460C46244885420ED03C
:1024C000234885420BD0B5F1804F08D02148854282
:1024D00005D02148854202D02048854200D100E045
:1024E00000BF208850B92389A28861882846FFF759
:1024F00069FDE188284600F0EDF825E020880428F1
:102500000AD12389A28861882846FFF79BFDE188CC
:10251000284600F0E8F817E0208808280AD1238927
:10252000A28861882846FFF7D9FDE188284600F097
:10253000E7F809E02389A28861882846FFF716FE9C
:10254000E188284600F0E5F870BD0000002C01404D
:10255000003401400004004000080040000C00402E
:10256000002101804180012181800021C180018101
:1025700070471AB183890B43838102E083898B43BF
:102580008381704770B5002400220023058C4FF62C
:10259000FE7635400584028C8388048B4FF68F7558
:1025A0002C40B51E2C400D882C43751E2A400D89E9
:1025B0002A434D882A43144DA8420BD0134DA842FC
:1025C00008D0134DA84205D0124DA84202D0124D9A
:1025D000A84213D14FF6F7752A404D892A434FF68A
:1025E000FB752A408D882A434FF6FF652B404FF636
:1025F000FF552B408D892B43CD892B43838004834A
:10260000CD888586028470BD002C014000340140D5
:102610000040014000440140004801400A460021BA
:10262000018B4FF6F7731940114301837047000087
:1026300070B5002200230024058C4EF6FF7635404D
:102640000584038C8488828B48F6FF752A404FF6F8
:10265000FF452A400D884FF6FF7606EA05252A43F6
:102660004DF6FF752B400D8906EA05352B434D8845
:1026700006EA05352B430B4DA84202D00A4DA8426D
:1026800008D14BF6FF752C408D894FF6FF7606EA90
:1026900085152C4384808283CD88A0F84050038424
:1026A00070BD0000002C0140003401400A460021AA
:1026B000818B4FF2FF7319404FF6FF7303EA022339
:1026C00019438183704781867047A0F84010704796
:1026D00081847047028B4FF6F3731A400283028B9A
:1026E0000A4302837047028B4FF2FF331A40028382
:1026F000028B4FF6FF7303EA01231A4302837047EC
:10270000828B4FF6F3731A408283828B0A43828353
:102710007047828B4FF2FF331A408283828B4FF6D1
:10272000FF7303EA01231A43828370470022028861
:102730001D4B98420ED01D4B98420BD0B0F1804FEC
:1027400008D01B4B984205D01A4B984202D01A4B26
:10275000984204D14FF68F731A404B881A43174B97
:10276000984207D0164B984204D04FF6FF431A40C8
:10277000CB881A4302808B8883850B8803850A4B9C
:1027800098420BD0094B984208D00E4B984205D086
:102790000D4B984202D00D4B984201D10B7A038623
:1027A0000123838270470000002C01400034014067
:1027B0000004004000080040000C004000100040F1
:1027C0000014004000400140004401400048014026
:1027D0004FF6FF71818000210180C180418001722C
:1027E000704700002DE9F843002440F225512848A5
:1027F00000F056F8002848D05CB9254800F07AF877
:10280000C0B28DF800009DF8000000283DD10224E0
:102810003BE0022C2CD11E4800F06CF8C0B28DF8C1
:1028200001009DF8010041280ED11A48006803F00C
:102830001FFE0546184A194B03F038F9074603F006
:1028400003F91449086011E09DF8010042280DD1F8
:102850001048006803F00CFE05460F4A0F4B03F0CA
:102860001DFD074603F0F0F80A49086003240CE058
:10287000032C0AD1064800F03DF8C0B28DF80200E2
:102880009DF80200092800D10024BDE8F88300006B
:1028900000440040080000207B14AE47E17A843FEA
:1028A00070B50246002400230025002040F66A1679
:1028B000B14200D100BFC1F3421501F01F03012650
:1028C00006FA03F3012D02D19689334006E0022D6A
:1028D00002D1168A334001E0968A33400C12012659
:1028E00006FA04F41688344013B10CB1012000E05C
:1028F000002070BD01468888C0F30800704700BF03
:10290000FEE7490050EAC12018BF04204A0D18BF55
:1029100040F0010040F2FF72B2EB515F08BF40F09F
:102920000200012808BF052070472DE9F0414F1E25
:1029300000EBC7010446D1E9000115461E4637F0F9
:1029400006020DD02A46334603F0B8FA7F1E04EB88
:10295000C703D3E9002303F0A9F837F00602F1D149
:10296000022F25D0042F13D0062F18BFBDE8F08109
:102970002A46334603F0A2FAD4E90A2303F096F874
:102980002A46334603F09AFAD4E9082303F08EF876
:102990002A46334603F092FAD4E9062303F086F878
:1029A0002A46334603F08AFAD4E9042303F07EF87A
:1029B0002A46334603F082FAD4E9022303F076F87C
:1029C0002A46334603F07AFAD4E90023BDE8F04101
:1029D00003F06CB8012204F01CB903F067B80022C0
:1029E00013461046114603F011B90000024A0020B8
:1029F000110704F00EB9000001FDFFFF30380A286E
:102A000001D2012070470020704700BF70470000CE
:102A10002DE9FE4F06460F460025684601F0DCF919
:102A2000002442E056F8240057F82410A0EB010AD5
:102A3000BAF1000F01DB514601E0CAF1000108467E
:102A400003F0E2FE83464FF08F4103F0ABFD80467A
:102A50005DF82400002103F067FE16D05DF8241015
:102A6000404603F09FFD82464FF07E5104F02AF865
:102A7000814629F0004A0F48416A504603F0F0FFB2
:102A800012D20120A04005430EE00A48C169404629
:102A900003F0E6FE05D30748016A404603F0E0FF75
:102AA00002D20120A0400543641C032CBADB284657
:102AB000BDE8FE8FC86C00082DE9F04D8D4F21F068
:102AC000004A86B005460C46BA452ADBAAEB070049
:102AD00028430AD08848824501DC1AD1CDB106B01E
:102AE0002846BDE8F04DFFF775BF844A844B284661
:102AF00003F0E4F907460E46824A834B28462146F6
:102B000003F0DCF906B03A463346BDE8F04D02F07A
:102B1000CDBF0120FDF71AFD06B0BDE8F04DFFF76F
:102B20005EBF7A48824542DABAF1795F0BDA28460D
:102B3000FFF7E7FE042808BFFFF758FF284606B056
:102B40002146BDE8F08D2A460B46104603F0B6F943
:102B5000834602466E480E460B4606217844FFF730
:102B6000E4FE5A46334603F0A9F9804669488A468E
:102B70005A46334604217844FFF7D7FE5A46334677
:102B800003F09CF900223B4602F090FF02460B4600
:102B90004046514603F03AF82A46234603F08EF9A0
:102BA00006B02A462346BDE8F04D02F07FBF284616
:102BB00024F0004100223D463B4603F07DFA4FF0F1
:102BC000FF3204F026F80646024653480F460B46ED
:102BD00006217844FFF7A9FE32463B4603F06EF922
:102BE000CDE900014D4832463B4604217844FFF7C9
:102BF0009CFE32463B4603F061F900222B4602F070
:102C000055FF834602913046394602F05BFE80460E
:102C100043480D46504517DCDDE900015A46029B4A
:102C200002F0F4FF42462B4603F048F942462B4699
:102C300002F03CFF012203F0ECFF304A304B03F07E
:102C40002DFB304A304B4CE04FF0000A52460B4609
:102C5000404602F02BFFCDE9031052462B461046AA
:102C6000194603F02BF932463B4603F025FADDE91D
:102C7000033202F0CBFF06460F46DDE900015A465B
:102C8000029B02F0C3FF8346009101223046394681
:102C900003F0BFFF194A1A4B03F00EFA06460F461F
:102CA00001224046294603F0B4FF5A46009B03F038
:102CB00005F932463B4603F0F1FA06460F4601227B
:102CC0005046294603F0A5FF0E4DDFF858802A46EE
:102CD000434603F0F1F932463B4603F0EDF92A464C
:102CE000434603F0E9F9002CD8BF81F0004106B05B
:102CF000BDE8F08D0000F03F0000F07F075C14336A
:102D000026A6913C182D4454FB21F93F0000E03FDA
:102D1000B0550000C65500003A550000505500005F
:102D20003333EF3FFB21E93F2DE9F84F04460D46D1
:102D300021F0004000917349814211DC72498842C0
:102D400001DC06D12CB120462946BDE8F84FFFF73B
:102D500041BE6E48002DCCBF6D496E49BDE8F88F6D
:102D60006D49814211DD6D498142D8BF4FF0FF3678
:102D70006DDD20462946FFF7C4FD042808BFFFF794
:102D800035FE20462946BDE8F88F6549654F25F098
:102D90000045814233DD6449814219DD0026324617
:102DA0004FF080432046294602F080FE80468A4646
:102DB00001222046294603F02CFF00223B4603F067
:102DC0006DFA4246534602F021FF04460D463EE0AE
:102DD00001260022BA463B462046294602F066FEFE
:102DE00080460F46002253462046294603F056FAF5
:102DF00042463B4602F00AFF04460D4627E04B4997
:102E000081421BDDDFF828A102260022534620461E
:102E1000294603F053F800223B4602F047FE804665
:102E20000F46002253462046294603F037FA424611
:102E30003B4602F0EBFE04460D4608E00326224620
:102E40002B4600203B4902F0E1FE04460D46224697
:102E50002B461046194603F031F88B46824602464F
:102E60000B4603F02BF807460246334888460B46CC
:102E700006217844FFF759FD52465B4603F01EF8E1
:102E800082462E488B463A46434605217844FFF752
:102E90004CFD3A46434603F011F802460B46002E1D
:102EA000504659460CDA02F001FE22462B4603F04A
:102EB00005F801B022462B46BDE8F04F03F0FCB800
:102EC00002F0F4FD22462B4602F0F8FF1C4A7A4439
:102ED00002EBC603D3E9002303F0E0F922462B46B8
:102EE00003F0DCF9174A7A4402EBC603D3E9002366
:102EF00003F0E2F8009A002AB8BF81F00041BDE873
:102F0000F88F0000000010440000F07F182D44549A
:102F1000FB21F93FFB21F9BF0000DC3F0000203E10
:102F20000000F33F0000F03F0000E63F0080034058
:102F30000000F83F0000F0BF5253000010530000A3
:102F4000AE520000765200002DE9F04D9446CCF1CF
:102F5000000423F000464CEA0404524F46EAD474BD
:102F60009A46884621F00042BC4206D8454240EAD3
:102F7000050442EAD474BC4204D9BDE8F04D62466F
:102F8000FFF72BBDAAF14055A5F17F6555EA0C046A
:102F90000BD0022404EAAA74434DDFF810E144EA9E
:102FA000D87452EA000B04D00CE0BDE8F04DFFF7F6
:102FB000BBBE002C14BF012CBDE8F08D022C30D01C
:102FC000032C32D056EA0C0B0AD0BE4220D1BA42B2
:102FD00009D126F0804622F080423346114617E0A0
:102FE00000291ADB25E0DFF8C8B0FB44002C04BF41
:102FF000DBE90001BDE8F08D012C02BFDBE9000137
:1030000081F00041BDE8F08D022C0AD0032C0CD0D9
:10301000BA4212D1B8F1000F0BDA23482549BDE8B6
:10302000F08D28462449BDE8F08D28467146BDE85C
:10303000F08D1D482149BDE8F08D921B12153C2AE8
:10304000C4BF19481D490EDCBAF1000FBEBF12F112
:103050003C0F0020014606DB624602F0D7FD21F05E
:103060000041FFF761FE002C08BFBDE8F08D012C88
:1030700004BF81F00041BDE8F08D114A114B022CD4
:1030800007D003F00BF92A46BDE8F04D0A4B03F0D8
:1030900005B903F003F92A46BDE8F04D064B03F0ED
:1030A0000BB800000000F07F182D4454FB2109C02C
:1030B0000A520000FB21F9BFFB210940FB21F93F27
:1030C000075C143326A6A13C2DE9F0410446E078C4
:1030D00000F0C006E07800F03F05607800F00100E5
:1030E00098B1EF102846E91705EB5171C910A5EB0F
:1030F000C101491C01F0FF080B48006820B10A48D3
:10310000414602683846904700BF607800F00800EA
:1031100030B10548406818B1B011034A516888477A
:103120000020BDE8F0810000A800002010B56FF07D
:103130000400FEF701FF0A4800680A49B0FBF1F0FD
:10314000094908700846007800EB4001C1EBC01047
:103150004FF6FF7101EAC0000449088010BD00006D
:103160001C00002000127A003000002032000020F5
:103170000146114A12884A434FF0E0235A61002267
:103180009A611A46126942F001021A6100BF4FF0BB
:10319000E022106900F001021AB100F48032002A26
:1031A000F5D04FF0E022126922F001024FF0E02347
:1031B0001A6100229A617047320000200146114ACC
:1031C00012784A434FF0E0235A6100229A611A466E
:1031D000126942F001021A6100BF4FF0E02210694B
:1031E00000F001021AB100F48032002AF5D04FF04D
:1031F000E022126922F001024FF0E0231A6100225E
:103200009A6170473000002038B5044664B1202030
:103210008DF8000028208DF8010030208DF8020084
:1032200038208DF8030004E0A32204216846FDF74E
:1032300005F96A46042140F69E2002F05DFA01F08D
:1032400047FE38BD3EB5044602208DF80000CA2076
:103250008DF80100E3208DF8020009208DF80300AD
:103260006A460421682002F047FAA3208DF8000086
:1032700004F0400048B1C0208DF80100C8208DF84E
:103280000200C2208DF8030006E0A3208DF80100A3
:103290008DF802008DF8030004F4C07048B1C4201A
:1032A0008DF80400CC208DF80500C6208DF80600AE
:1032B00006E0A3208DF804008DF805008DF80600C7
:1032C000A3208DF807008DF808008DF809006A46E4
:1032D0000A2140F6A72002F00FFA04F0030018B10B
:1032E00020208DF8000002E0D8208DF800006A460A
:1032F000012140F6B62002F0FFF904F0200018B1D9
:10330000012000F0ADF802E0002000F0A9F804F47C
:10331000C07008B304F4807060B1B2208DF8000072
:103320008B208DF80100B6208DF802009B208DF8CF
:1033300003000BE0B0208DF8000080208DF8010024
:10334000B4208DF8020090208DF803006A46042115
:1033500040F6A22002F0D0F904F0010020B3F820DA
:103360008DF800006A4601214FF40B6002F0C4F9A9
:10337000FA21072000F02CFC072000F0F3FB0120CD
:1033800000F013FC642000F0F3FC4FF4FA7000F03E
:1033900002FDC821304800F0A3FB282000F0BCFB50
:1033A0000A2000F0CCFB08E0D8208DF800006A4627
:1033B00001214FF40B6002F09FF904F0020018B1F4
:1033C000D9208DF8000002E0D8208DF800006A4670
:1033D000012140F23D7002F08FF904F0040018B1B1
:1033E000012000F069F802E0002000F065F804F028
:1033F000100018B10120FFF707FF02E00020FFF7DF
:1034000003FF44F008001549488101F061FD0020E8
:103410001249887304F0400018B10846807B801D73
:10342000887304F4C07020B10C48807B801D0B4968
:10343000887304F0140020B10848807B10300749DD
:10344000887304F0030020B10448807B001D034909
:10345000887300203EBD000009E3CA02A8000020D6
:103460003EB504466CB10EA1D1E900208968CDE9D2
:10347000002002916A4609214FF4976002F03CF95E
:103480003EBD0AA2D2E900109268CDE90102009186
:103490006A4609214FF4976002F02EF9F0E7000028
:1034A000B8AAB38DB4980D355D000000B8AAAAAAD9
:1034B000B088C3C5C700000038B5044664B1C02059
:1034C0008DF80000C2208DF80100C4208DF80200A4
:1034D000C6208DF8030004E08B2204216846FCF727
:1034E000ADFF6A46042140F6982002F005F901F08C
:1034F000EFFC38BD10B5C8234FF48062024940F696
:10350000F63001F079FB10BDF06C00082DE9F04FAA
:103510008DB00746884615469946DDE9166B0024AE
:10352000002030806B49887B5A4605A901F030FCA9
:1035300018B1601E0DB0BDE8F08F6648807A00F0CB
:103540001400002867D09DF8140000069DF815109F
:1035500040EA01409DF8161040EA01209DF817103E
:10356000084328609DF8180000069DF8191040EAED
:1035700001409DF81A1040EA01209DF81B100843F5
:1035800068609DF81C0000069DF81D1040EA01408F
:103590009DF81E1040EA01209DF81F100843A86006
:1035A0009DF8200000069DF8211040EA01409DF89A
:1035B000221040EA01209DF823100843E86004F13E
:1035C0001000C4B2286800140190686800140290CA
:1035D000A86800140390E868001404900198404320
:1035E000029901FB0100039901FB0100049901FB11
:1035F000010ABAF1706F02DBBAF1885F05DD01F0F4
:1036000067FC00203080401E94E7B6F9000040F4CB
:103610008070308000BF2F48807A00F0400020B3D7
:1036200005A9601C085C095D40EA012000B2A8F809
:10363000000005A9E01C095C05AAA01C105C41EA79
:10364000002000B2A8F8020005A9601D095C201D39
:10365000105C41EA002000B2A8F80400A01DC4B22A
:10366000B6F9000040F0080030801A48408900F4A4
:10367000C07008B305A9601C085C095D40EA012020
:1036800000B2388005A9E01C095C05AAA01C105CEA
:1036900041EA002000B2788005A9601D095C201D68
:1036A000105C41EA002000B2B880A01DC4B2B6F997
:1036B000000040F0700030800648807A00F003007F
:1036C00018B105A90819FFF7FFFC484600F002FFF2
:1036D00000202FE7A800002070B588B0064601A89A
:1036E00001F0DEF8BDF804000021C90341EA5045AD
:1036F000C4034448007A00F0030056F82000059007
:103700004048007A00F0040010B10598404205904E
:103710003C48007AC0F3C10056F8200006903948B2
:10372000007A00F0200010B106984042069035481B
:10373000007AC0F3811056F82000079031480089C4
:1037400000F4807010B10798404207900598C117A7
:10375000A0FB042301FB043100FB0510810041EABA
:10376000927005900698C117A0FB042301FB043159
:1037700000FB0510810041EA927006900798C1177E
:10378000A0FB042301FB043100FB0510810041EA8A
:10379000927007900598000E8DF808000598000CAF
:1037A0008DF809000598000A8DF80A000598C0B246
:1037B0008DF80B000698000E8DF80C000698000C92
:1037C0008DF80D000698000A8DF80E000698C0B21C
:1037D0008DF80F000798000E8DF810000798000C68
:1037E0008DF811000798000A8DF812000798C0B2F2
:1037F0008DF8130002AA0C214FF4257001F07CFF14
:1038000008B070BDA800002030B585B0044616A2EF
:1038100007CA02AB07C3C82C03DD4FF0FF3005B069
:1038200030BDC82090FBF4F0401E85B2280A8DF808
:103830000000E8B28DF801006A46022140F216202D
:1038400001F05AFF10B14FF0FF30E8E702AA0C2157
:1038500040F6C12001F050FF10B14FF0FF30DEE71D
:10386000044884810020DAE7FEF2ABC4AAF1DFDF6E
:10387000BBAFDFDFA80000201FB504464848007A30
:1038800000F0030054F8200001904548007A00F051
:10389000040010B10198404201904148007AC0F301
:1038A000C10054F8200002903D48007A00F020004A
:1038B00010B10298404202903948007AC0F381105A
:1038C00054F8200003903648008900F4807010B14D
:1038D0000398404203903349019880FB0101800F17
:1038E00040EA810001902F49029880FB011082007C
:1038F00042EA917002902B49039880FB01108200EC
:1039000042EA917003900198000E8DF80000019832
:10391000000C8DF801000198000A8DF80200019852
:10392000C0B28DF803006A4604214FF4747001F0B0
:10393000E3FE18B14FF0FF3004B010BD0298000E46
:103940008DF800000298000C8DF801000298000A22
:103950008DF802000298C0B28DF803006A46042177
:103960004FF4757001F0C8FE10B14FF0FF30E3E77F
:103970000398000E8DF800000398000C8DF80100EC
:103980000398000A8DF802000398C0B28DF8030076
:103990006A4604214FF4767001F0AEFECCE70000D9
:1039A000A800002009E3CA0210B586B0044647A06B
:1039B0000068039046A00068029046A0006801904D
:1039C00045A00068009004F0030003A9085C8DF88E
:1039D000140003A8C4F3C101405C8DF8150003A8CE
:1039E000C4F38111405C8DF8160004F0030002A9B5
:1039F000085C8DF8100002A8C4F3C101405C8DF88A
:103A0000110002A8C4F38111405C8DF8120005AAD0
:103A1000032140F2264001F06FFE18B14FF0FF3055
:103A200006B010BD04AA032140F22A4001F064FE52
:103A300010B14FF0FF30F3E7019805900098049023
:103A400004F0040058B19DF8140040F001008DF816
:103A500014009DF8100040F001008DF8100004F0F3
:103A6000200058B19DF8150040F001008DF81500B8
:103A70009DF8110040F001008DF8110004F48070F1
:103A800058B19DF8160040F001008DF816009DF821
:103A9000120040F001008DF8120005AA03214FF436
:103AA000886001F029FE10B14FF0FF30B8E704AA9A
:103AB000032140F2314001F01FFE10B14FF0FF3002
:103AC000AEE7064804810020AAE700004CCD6C0058
:103AD0000CC92C003656760026466600A800002049
:103AE000F8B505460E464FF47A7095FBF0F000FBF2
:103AF00006F4200E8DF80000200C8DF80100200A3D
:103B00008DF80200E0B28DF803006A4604214FF4FC
:103B1000AE7001F0F1FDF8BD38B50446052094FB08
:103B2000F0F084B220128DF80000E0B28DF80100B0
:103B30006A4602214FF4AD7001F0DEFD38BD38B5A4
:103B40000446052094FBF0F084B220128DF80000AA
:103B5000E0B28DF801006A4602214FF4AC7001F02A
:103B6000CBFD38BD38B504460020009004F00100BC
:103B700020B19DF8000040F03000009004F00200F9
:103B800020B19DF8000040F00C00009004F004000B
:103B900020B19DF8000040F0030000906A4601212A
:103BA0004FF4A47001F0A8FD38BD38B50446012CCF
:103BB00001DA012402E0042C00DD0424601EC0B2FE
:103BC00000906A46012140F24F1001F095FD38BD8A
:103BD0002DE9FC4706460F4606F0070010B1B7F581
:103BE000C86F03DD4FF0FF30BDE8FC87384602F0B8
:103BF00023FE8146594902F0D5FC8046684600F014
:103C000029FE9DF80000022806D0042816D00828B6
:103C100026D0102848D135E04FF08D41404602F0C3
:103C200053FE814602F0D0FD84B24D49404602F079
:103C30004BFE814602F0C8FD85B238E04FF08C4162
:103C4000404602F041FE814602F0BEFD84B2454985
:103C5000404602F039FE814602F0B6FD85B226E00C
:103C60004FF08B41404602F02FFE814602F0ACFD42
:103C700084B23D49404602F027FE814602F0A4FD91
:103C800085B214E04FF08A41404602F01DFE8146A5
:103C900002F09AFD84B23549404602F015FE814695
:103CA00002F092FD85B202E04FF0FF309CE700BFCA
:103CB00020128DF80400E0B28DF8050028128DF86E
:103CC0000600E8B28DF8070006F00100A0B101AAD5
:103CD00002214FF4EA7001F00FFD10B14FF0FF30F8
:103CE00082E70DF1060202214FF4927001F004FD0B
:103CF00010B14FF0FF3077E706F00200A0B101AA43
:103D000002214FF4EC7001F0F7FC10B14FF0FF30DE
:103D10006AE70DF1060202214FF4947001F0ECFC09
:103D200010B14FF0FF305FE706F00400A0B101AA28
:103D300002214FF4EE7001F0DFFC10B14FF0FF30C4
:103D400052E70DF1060202214FF4967001F0D4FC07
:103D500010B14FF0FF3047E7002045E7000048432F
:103D6000000040460000C045000040450000C0443F
:103D700038B50446052094FBF0F085B228128DF882
:103D80000000E8B28DF801006A4602214FF4EF709E
:103D900001F0B2FC38BD38B50446052094FBF0F0C4
:103DA00085B228128DF80000E8B28DF801006A464D
:103DB00002214FF4ED7001F09FFC38BD00BF054AB1
:103DC000128802F04002002AF9D0C2B2014B1B1D3A
:103DD0001A807047003801407CB50546284949687B
:103DE000087801AB04220D21FDF77DF908B1072009
:103DF0007CBD9DF80700C0F301109DF8041001F090
:103E0000E00140EAE1008DF800009DF80700C0F3F2
:103E100081009DF8051001F0E00140EAE1008DF815
:103E200001009DF8070000F003009DF8061001F066
:103E3000E00140EAE1008DF8020000241CE01DF8DA
:103E4000040018B9002045F8240013E00D4845F897
:103E5000240006E055F824000B4902F035FD45F832
:103E600024001DF80400401EC0B20DF80400002814
:103E7000F0D100BF601CC4B2032CE0DB0020B7E728
:103E8000380000207B14AE3E1D5A843F2DE9F04FD0
:103E900087B005460C46914601208DF810000020A1
:103EA0008DF81100FE4A1268917CFD4A5268107824
:103EB00004AB0222FDF7BDF920B14FF0FF3007B08F
:103EC000BDE8F08FC820FFF753F900208DF81000EF
:103ED000F34A1268D17BF24A5268107804AB01228F
:103EE000FDF7A7F910B14FF0FF30E8E7EC4A126890
:103EF0005179EB4A5268107804AB0122FDF799F929
:103F000010B14FF0FF30DAE7E54A1268917CE44ADD
:103F10005268107804AB0122FDF78BF910B14FF015
:103F2000FF30CCE7DE4A1268D17DDD4A5268107856
:103F300004AB0122FDF77DF910B14FF0FF30BEE771
:103F4000D74A12681179D64A5268107804AB012218
:103F5000FDF76FF910B14FF0FF30B0E70C208DF88E
:103F60001000CF4A12681179CD4A5268107804AB1C
:103F70000122FDF75EF910B14FF0FF309FE70F20EF
:103F8000FFF7F6F8C648806A407A8DF81000C44AF8
:103F900012689178C24A5268107804AB0122FDF78A
:103FA00048F910B14FF0FF3089E7BD48806A007AC8
:103FB0008DF81000BA4A12685178B94A52681078E0
:103FC00004AB0122FDF735F910B14FF0FF3076E771
:103FD000B9F1000F07D0B248806A807A40F0E00063
:103FE0008DF8100004E0AE48806A807A8DF81000E9
:103FF000AB4A12689179AA4A5268107804AB012240
:10400000FDF717F910B14FF0FF3058E7B9F1000F85
:1040100007D0A348806AC07A40F0E0008DF8100015
:1040200003E0A048C07A8DF810009D4A1268D1794B
:104030009B4A5268107804AB0122FDF7FAF810B1E0
:104040004FF0FF303BE7B9F1000F02D0C820FFF777
:104050008FF840208DF81000914A12681179904A2B
:104060005268107804AB0122FDF7E3F810B14FF06D
:10407000FF3024E778208DF81000894A12685179C2
:10408000874A5268107804AB0122FDF7D2F810B1CC
:104090004FF0FF3013E783498889FFF769F8002064
:1040A0008DF810007E4A126851797D4A5268107866
:1040B00004AB0122FDF7BDF810B14FF0FF30FEE672
:1040C000774A1268917A764A5268107804AB0222D5
:1040D000FDF709F810B14FF0FF30F0E69DF8110040
:1040E0009DF8101040EA012B0C209BFBF0F0C6B2AB
:1040F0000020A86068602860A06060602060824640
:1041000065E0674A1268D17A654A5268107804AB54
:104110000C22FCF7E8FF10B14FF0FF30CFE69DF81E
:1041200011009DF8101040EA012000B2ADF808001F
:104130009DF813009DF8121040EA012000B2ADF87E
:104140000A009DF815009DF8141040EA012000B205
:10415000ADF80C00BDF90810206808442060BDF9D6
:104160000A10606808446060BDF90C10A06808443B
:10417000A0609DF817009DF8161040EA012000B2DB
:10418000ADF800009DF819009DF8181040EA0120D4
:1041900000B2ADF802009DF81B009DF81A1040EA2D
:1041A000012000B2ADF80400BDF9001028680844F1
:1041B0002860BDF90210686808446860BDF9041001
:1041C000A8680844A8600AF1010000F0FF0AB2459F
:1041D00097DB3448D0F800C02868C117090441EAC9
:1041E00010410704624600233846FBF7F2FF3246CF
:1041F0000023CDE90201FBF7ECFF28602948D0F845
:1042000000C06868C117090441EA1041070462460A
:1042100000233846FBF7DDFF32460023CDE90201DB
:10422000FBF7D7FF68601F48D0F800C0A868C11727
:10423000090441EA10410704624600233846FBF7AF
:10424000C8FF32460023CDE90201FBF7C2FFA86098
:104250001448D0F804C02168C817000440EA114887
:104260000F046246002338464146FBF7B2FF324650
:104270000023CDE90201FBF7ACFF20600948D0F82C
:1042800004C06068C117090441EA1041070462468E
:1042900000233846FBF79DFF3246002304E0000070
:1042A00038000020C86C0008CDE90201FBF791FF3F
:1042B00060601148D0F804C0A068C117090441EA41
:1042C00010410704624600233846FBF782FF32465E
:1042D0000023CDE90201FBF77CFFA060A068002865
:1042E00004DDA068A0F58030A06003E0A06800F5C0
:1042F0008030A0600020E2E5C86C00082DE9FC5F7A
:1043000006460F4600253D494968087801AB03225F
:104310000D21FCF7E8FE10B10720BDE8FC9F9DF8D9
:10432000040000F01F008DF804009DF8050000F067
:104330001F008DF805009DF8060000F01F008DF8A5
:104340000600002456E056F8240057F82410A0EB8D
:10435000010BBBF1000F01DB594601E0CBF100017D
:10436000084602F051FA4FF08F41009002F01AF91E
:10437000814601A8005D68B32149086802F05CFA33
:10438000834659461F4802F00DF9804604E01E4955
:10439000404602F099FA804601A8005D401EC0B276
:1043A00001A908550028F2D14146484602F0FAF822
:1043B00083464FF07E5102F085FB82462AF0004B87
:1043C0000F488169584602F04BFB12D20120A040F1
:1043D00005430EE00A480169484602F041FA05D358
:1043E00007484169484602F03BFB02D20120A04049
:1043F0000543641C032CA6DB28468EE7380000200A
:10440000C86C000800B04C4554E3853F10B5044625
:10441000204600F00FF80346E01C00F00BF843EADA
:10442000C00083B2A01D00F005F843EA801083B2FB
:10443000184610BD014691F90020002A01DD002038
:104440001EE091F90020002A01DA042018E091F919
:104450000120002A01DD012012E091F90120002A4B
:1044600001DA05200CE091F90220002A01DD02208A
:1044700006E091F90220002A01DA062000E0072078
:104480007047000000BF4FF4A060FCF777FFFEF715
:104490004DFE00F037F8FDF70DF8FCF79DFFFCF737
:1044A000ADFDFCF763F9FCF7F5FE0EE00748016887
:1044B00007480068FDF7B4F801F05EF9044601F022
:1044C00069F905462146FDF7F7FBEFE79400002068
:1044D0008C0000207047000008B501210820FDF77E
:1044E00031FC4FF47040ADF8000010208DF803004F
:1044F00003208DF8020069460148FCF75DFA08BD0B
:10450000000C014010B5FFF7E7FF002141F61F4006
:10451000FDF778FEFDF72EFFFDF7CEFE10BD000083
:1045200070B50446002624F00104184890F82400D1
:1045300008B1002070BD1548807A10B94FF0FF30E7
:10454000F8E71248057C807A204010490874084634
:10455000007CA04202D04FF0FF3600E0002614B9E4
:104560000A48007D18B1012001F064F902E0002042
:1045700001F060F93CB100F0ABFC20B103480574D8
:104580004FF0FF30D6E73046D4E700003800002077
:104590002DE9F04F99B004460D4616464FF07E5770
:1045A0004FF000084FF000094FF0000A12A813A9BD
:1045B00018AB0EAACDE9001014A916A8FEF7A6FFA5
:1045C00018B1012019B0BDE8F08FBDF84C0000F41F
:1045D000807000287ED00E9802F016F983464FF0C6
:1045E0009D4101F0DFFF07460F9802F00DF9834669
:1045F0004FF09D4101F0D6FF8046109802F004F97B
:1046000083464FF09D4101F0CDFF8146119802F0A5
:10461000FBF883464FF09D4101F0C4FF82463946C6
:104620004FF0804002F050F94946059002F04CF9F5
:10463000414607904FF0404002F046F95146059040
:1046400002F042F90690079901F03EFF834601F01F
:104650000FFFCDE90801FEF72FFA4FF06632544BF9
:10466000CDE90A0101F02AFCCDE90C0101F0ECF9D9
:10467000206049464FF0804002F026F949460290FA
:1046800002F022F9414604904FF0404002F01CF93C
:104690004146029002F018F90390049902F012FAD0
:1046A00083464FF07E5101F00FFF059001F0E0FED0
:1046B000CDE9080139464FF0804002F005F9414646
:1046C000039002F001F9494604904FF0804002F057
:1046D000FBF800E068E05146039002F0F5F88346ED
:1046E000049901F0F1FE059001F0C2FECDE906014A
:1046F000DDE90823FEF728FC4FF066322C4BCDE9AC
:104700000A0101F0DBFBCDE90C0101F09DF9286005
:104710005146504602F0D8F849460490484602F007
:10472000D3F841460390404602F0CEF83946019056
:10473000384602F0C9F80090019901F0C5FE0290D8
:10474000039902F0BFF98346049902F0BBF9059082
:1047500001F08EFECDE908015146384602F0B4F86A
:1047600049460490404602F0AFF80390049901F0E6
:10477000ABFE4FF08041059002F0A6F8834601F0B1
:1047800077FECDE90601DDE90823FEF7DDFB4FF0FA
:104790006632074BCDE90A0101F090FBCDE90C012F
:1047A00001F052F9306001E002200BE7002009E738
:1047B00066A64C4070B50024FCF700FB00F024F91D
:1047C000002840D1782000F02FFFC4B20CB10120A6
:1047D00070BD7820FFF7A4FEC4B20CB10220F7E749
:1047E000642000F0D3FEC4B20CB10320F0E7FEF762
:1047F00081FEC4B20CB10420EAE71548FFF706FEBB
:104800000546FFF7D1F8C4B20CB10520E0E740F24D
:104810007310FEF717FDC4B20CB10620D8E7642070
:10482000FEF7F2FFC4B20CB10720D1E700F0C0FFE1
:1048300004460CB10820CBE7012000F0A3FDC4B270
:104840001CB10920C4E70A20C2E70020C0E700002D
:104850006400002001461148407A30B1012807D099
:10486000022808D003280CD108E0022008700BE0D1
:104870000420087008E00820087005E01020087087
:1048800002E04FF0FF30704700BF0448C07C18B111
:1048900008784006000E08700020F4E73800002079
:1048A00001461348407A30B1012808D002280AD0C6
:1048B000032810D10BE04FF4804008800EE041F651
:1048C0009C7008800AE04FF48050088006E04FF4A6
:1048D0000060088002E04FF0FF30704700BF0448DE
:1048E000C07C10B10888401008800020F5E7000067
:1048F0003800002001460248007C08700020704704
:104900003800002001460F48007A30B1012807D056
:10491000022809D003280FD10AE0FA2008800EE00F
:104920004FF4FA7008800AE04FF47A70088006E0CD
:104930004FF4FA60088002E00020088000BF00BF4A
:10494000002070473800002001460E48007A30B140
:10495000012807D0022808D003280CD108E00A4813
:1049600008600BE00948086008E00948086005E0B5
:104970000848086002E04FF0FF30704700BF002099
:10498000FBE70000380000200000034300008342E2
:10499000333303423333834101461248C07A082837
:1049A00017D2DFE800F01704070A0D101318BC2017
:1049B000088013E06220088010E02A2008800DE0C3
:1049C000142008800AE00A20088007E005200880FB
:1049D00004E000BF00BF0020088000BF00BF00202F
:1049E00070470000380000200146064890F8240077
:1049F00010B14FF0FF3070470248C0890880002096
:104A0000F9E70000380000201CB580208DF8000078
:104A1000654A1268917C644A526810786B4601229C
:104A2000FCF707FC10B14FF0FF301CBD6420FEF70F
:104A30009FFB00208DF800005B4A1268917C5A4A67
:104A4000526810786B460122FCF7F3FB10B14FF06F
:104A5000FF30EAE7544A1268917D534A5268107851
:104A60006B460622FCF73FFB10B14FF0FF30DCE74E
:104A70009DF80500C007400F9DF8031001F00101EB
:104A800040EA41009DF8011001F0010140EA0104F3
:104A900094B1012C03D101214348C17431E0022CAF
:104AA00003D100214048C1742BE021463FA0FBF711
:104AB000B5FB4FF0FF30B8E73B4A1268D1783A4A6D
:104AC000526810786B460122FCF70DFB10B14FF0D5
:104AD000FF30AAE79DF8000000F00F042CB93D4814
:104AE000FBF79CFB4FF0FF309FE7042C06D13AA068
:104AF000FBF794FB01212C48C17402E000212A48F5
:104B0000C174FF2128488172FF2027490872FF21C4
:104B100025484172C1724FF6FF71C181FF210174B6
:104B200081740121017380F82210002180F8231084
:104B3000417501751630016041608160163880F85A
:104B4000241080F82510C1844FF4FA6000F062FC54
:104B500010B14FF0FF3068E7022000F02BFB10B1DE
:104B60004FF0FF3061E72A2000F0CEFC10B14FF08B
:104B7000FF305AE7322000F009FD10B14FF0FF304E
:104B800053E70020FFF7CCFC10B14FF0FF304CE7AB
:104B9000002000F051FB10B14FF0FF3045E700203E
:104BA00000F042FD002040E738000020556E73758C
:104BB00070706F7274656420736F6674776172656C
:104BC0002070726F64756374207265762025642E80
:104BD0000A0000000082000848616C662073656E60
:104BE0007369746976697479207061727420666F74
:104BF000756E642E0A0000002DE9F04385B005466D
:104C00000E4690469946294890F8250020B14FF06D
:104C1000FF3005B0BDE8F08316B94FF0FF30F8E77C
:104C2000002423E0281B102801DD102000E0281BB1
:104C300087B232193946204600F05EFD10B14FF0C0
:104C4000FF30E6E701AA3946204600F001F910B12D
:104C50004FF0FF30DDE730193A4601A9FBF7C2FB00
:104C600010B16FF00100D4E7E01984B2AC42D9DB97
:104C70004FEA28208DF8000008F0FF008DF80100B1
:104C80000A4A1268917E094A526810786B460222DD
:104C9000FCF7CFFA10B14FF0FF30BAE7012103481B
:104CA00080F82510A0F826900020B2E738000020F8
:104CB00038B50446282C02DD4FF0FF3038BDDCB992
:104CC000002000F0EBFB00208DF8000007208DF89D
:104CD00001002E4A1268917C2C4A526810786B466B
:104CE0000222FCF7A6FA10B14FF0FF30E6E70021F0
:104CF000264801750020E1E7012000F0CFFB2020CD
:104D00008DF80000012C06D100208DF8010005204F
:104D100000F0FAFB17E0052C06DC01208DF80100FD
:104D2000052000F0F1FB0EE0142C06DC02208DF8CB
:104D300001000A2000F0E8FB05E003208DF80100E7
:104D4000142000F0E1FB9DF80100072101EB801029
:104D5000C0B28DF801000D4A1268917C0B4A52686E
:104D600010786B460222FCF764FA10B14FF0FF3066
:104D7000A4E7082105488172002101730121017512
:104D80000020FFF7CDFB002098E70000380000204E
:104D9000F8B504460F4616462C4890F8240010B982
:104DA0004FF0FF30F8BD2948807A10B94FF0FF303E
:104DB000F8E7264A1268917A244A526810786B46BE
:104DC0000222FCF790F910B14FF0FF30EAE79DF8AE
:104DD00001009DF8001040EA0125A54203DA0020F9
:104DE0003070401EDEE7194840684088B5EB600F20
:104DF00017DD164A1268517C144A526810786B46C7
:104E00000122FCF770F910B14FF0FF30CAE79DF8AE
:104E1000000000F0100020B100F05AF86FF001001F
:104E2000C0E7E2B2094B1B68D97A084B5B68187877
:104E30003B46FCF758F910B14FF0FF30B2E795FB55
:104E4000F4F0401E30700020ACE700003800002075
:104E5000F8B504460D46164616B94FF0FF30F8BDBA
:104E60001A48807A10B94FF0FF30F8E720128DF819
:104E70000000E0B28DF801009DF8010028441349BC
:104E800049684989884202DD4FF0FF30E7E70F4A61
:104E90001268117E0D4A526810786B460222FCF7A8
:104EA000C8F910B14FF0FF30D9E7EAB2074B1B68E1
:104EB000597D064B5B6818783346FCF714F910B13E
:104EC0004FF0FF30CBE70020C9E70000380000209A
:104ED00008B57048807A10B94FF0FF3008BD002047
:104EE00000906C4A1268D17B6A4A526810786B460F
:104EF0000122FCF79EF910B14FF0FF30EEE7654A52
:104F000012685179634A526810786B460122FCF7A7
:104F100090F910B14FF0FF30E0E75E4A1268117966
:104F20005C4A526810786B460122FCF782F910B196
:104F30004FF0FF30D2E7574890F82400002853D0B4
:104F40000C200090534A12681179524A5268107826
:104F50006B460122FCF76DF910B14FF0FF30BDE751
:104F60003220FEF705F9C02000904A48807A00F010
:104F7000010020B19DF8000040F020000090454A5B
:104F800012681179434A526810786B460122FCF787
:104F900050F910B14FF0FF30A0E73E48407C10B10F
:104FA0000220009001E0002000903A4A1268D17B74
:104FB000384A526810786B460122FCF73AF910B172
:104FC0004FF0FF308AE700200090324A1268517992
:104FD000304A526810786B460122FCF72AF9002803
:104FE00055D04FF0FF3079E704200090294A12682D
:104FF0001179284A526810786B460122FCF719F99A
:1050000010B14FF0FF3069E72248807C20B9214879
:10501000807A00F0010010B94020009001E060208B
:1050200000901C4A126811791A4A526810786B462F
:105030000122FCF7FEF810B14FF0FF304EE73220AE
:10504000FEF796F81348407C10B10120009001E073
:10505000002000900F4A1268D17B0E4A52681078E7
:105060006B460122FCF7E5F810B14FF0FF3035E751
:10507000084A12685179074A52681078054B103374
:105080000122FCF7D6F810B14FF0FF3026E70020E0
:1050900024E70000380000202DE9F04F8DB0834652
:1050A0000F4602200C90424890F8240020B10020C6
:1050B00000F068F9012600E0002603A8FFF722FCB3
:1050C00005A8FFF7C7FB01A8FFF766FC02A8FFF7DA
:1050D0008BFC374890F80AA004A8FFF70BFC0024CB
:1050E00007E0002239465846FEF7D0FE00B902E03C
:1050F000641C022CF5DB00BF022C01D1002528E046
:10510000002407E0012206A909A8FEF7BFFE00B9A6
:1051100002E0641C022CF5DB00BF022C01D100254B
:1051200017E006A93846FDF773FC00F0FF0809A94F
:105130005846FFF7E3F800F0FF090025B9F1000F2A
:1051400001D145F00105B8F1000F01D145F002058C
:1051500000BFFF2016490872FF2115484172C17235
:105160004FF6FF71C181FF2181720174012101732A
:10517000BDF80C0000F04EF99DF8140000F01AF88C
:10518000BDF8040000F0C0F9BDF8080000F0FEF919
:10519000504600F049FA9DF81000FFF7C1F916B12A
:1051A000012000F0EFF828460DB0BDE8F08F0000B8
:1051B0003800002038B504461E48807A10B94FF0F8
:1051C000FF3038BD022C06D0042C07D0082C08D0A4
:1051D000102C0CD108E0002000900BE0082000907B
:1051E00008E01020009005E01820009002E04FF049
:1051F000FF30E6E700BF0F48407A9DF80010B0EBA3
:10520000E10F01D10020DCE70A4A1268D179094A8E
:10521000526810786B460122FCF70BF810B14FF082
:10522000FF30CEE79DF80000C11002484172002017
:10523000C7E700003800002038B504465048807C9D
:10524000A04201D1002038BD002C46D04C4A126843
:1052500011794B4A526810786B460122FBF743FFE5
:1052600010B14FF0FF30EEE79DF8000020F0200075
:105270000090434A12681179414A526810786B468F
:105280000122FBF7D6FF10B14FF0FF30DBE7032020
:10529000FDF76EFF02200090394890F8220020B1FF
:1052A0009DF8000040F080000090354890F8230001
:1052B00020B19DF8000040F030000090304A1268A4
:1052C000117D2F4A526810786B460122FBF7B1FF1F
:1052D000002851D04FF0FF30B5E7294A1268117904
:1052E000274A526810786B460122FBF7FCFE10B18A
:1052F0004FF0FF30A7E72248807A00F0010028B184
:105300009DF8000040F02000009004E09DF80000AF
:1053100020F0200000901A4A12681179184A526849
:1053200010786B460122FBF784FF10B14FF0FF307D
:1053300089E70320FDF71CFF114890F8220010B107
:105340008020009001E0002000900D4890F823009C
:1053500020B19DF8000040F030000090084A12682B
:10536000117D074A526810786B460122FBF761FFF6
:1053700010B14FF0FF3066E701488474002062E707
:105380003800002038B50446214890F82400A04297
:1053900001D1002038BD24B31D4890F8250010B974
:1053A0004FF0FF30F6E7002000F044FA0020FFF74E
:1053B00043FF1749C88C00F0E9F800200090144919
:1053C000496808786B4601222321FBF732FF01214F
:1053D0000F4880F82410012000F02CFAFFF778FD28
:1053E00013E0002000F026FA0948007C00900849EC
:1053F000496808786B4601222321FBF71AFF002138
:10540000034880F82410FFF763FD0020C2E7000086
:105410003800002038B504461F48807A10B94FF094
:10542000FF3038BDFA2C09D0B4F5FA7F09D0B4F5B5
:105430007A7F09D0B4F5FA6F0CD108E00020009013
:105440000BE00820009008E01020009005E01820F4
:10545000009002E04FF0FF30E3E700BF0E48007A13
:105460009DF80010B0EBE10F01D10020D9E70A4A06
:1054700012689179084A526810786B460122FBF74E
:10548000D8FE10B14FF0FF30CBE79DF80000C01000
:10549000014908720020C4E73800002038B50446EE
:1054A000184890F82300A04201D1002038BD14B163
:1054B0003020009001E0002000901248807C20B154
:1054C0009DF8000040F0020000900E4890F8220085
:1054D00020B19DF8000040F080000090094A126859
:1054E000117D084A526810786B460122FBF7A1FE35
:1054F00010B14FF0FF30D9E7024880F82340002078
:10550000D4E700003800002038B504461E48807AF1
:1055100010B94FF0FF3038BDBC2C02DB01200090E9
:1055200015E0622C02DB0220009010E02A2C02DB46
:10553000032000900BE0142C02DB0420009006E016
:105540000A2C02DB0520009001E0062000900E48A6
:10555000C07A9DF80010884201D10020DBE70A4A9A
:1055600012689178084A526810786B460122FBF75E
:1055700060FE10B14FF0FF30CDE79DF800100248FB
:10558000C1720020C7E700003800002038B504468B
:105590002448807A10B94FF0FF3038BD214890F888
:1055A000240010B14FF0FF30F7E71E48007D50B1E6
:1055B00034B1282C04DCE0B2FFF77AFB0020ECE7E2
:1055C0000020FFF775FB042C01DA042404E0B4F595
:1055D0007A7F01DD4FF47A744FF47A7090FBF4F027
:1055E000401EC0B200900F4A126851780D4A5268AE
:1055F00010786B460122FBF71CFE10B14FF0FF3014
:10560000CBE79DF80000401C4FF47A7191FBF0F05D
:1056100081B20448C1810146C9894810FFF774FF6F
:105620000020BAE73800002038B5044604F07000C6
:1056300010B10120009005E014B10020009001E0BD
:10564000402000902B4A1268917C2A4A52681078B8
:105650006B460122FBF7EDFD20B100212548817248
:10566000481E38BD9DF8000020F04001214801731C
:105670000020009004F0400020B99DF8000040F0A8
:105680000400009004F0200020B99DF8000040F0D4
:105690000200009004F0100020B99DF8000040F0D6
:1056A0000100009004F0080020B99DF8000040F0CF
:1056B000380000900F4A1268D17C0E4A5268107868
:1056C0006B460122FBF7B5FD20B10021094881722C
:1056D000481EC6E724B1082C02D00020FFF7DEFEEA
:1056E00004488472002101753220FDF741FD00203D
:1056F000B7E7000038000020F8B504460D4616460E
:1057000016B94FF0FF30F8BD1A48807A10B94FF043
:10571000FF30F8E720128DF80000E0B28DF80100AC
:105720009DF801002844134949684989884202DDEF
:105730004FF0FF30E7E70F4A1268117E0D4A5268BA
:1057400010786B460222FBF774FD10B14FF0FF306A
:10575000D9E7EAB2074B1B68597D064B5B6818789E
:105760003346FBF766FD10B14FF0FF30CBE700206A
:10577000C9E700003800002010B54FF08040FCF76A
:1057800085FE04B200214FF08040FCF7A1FF2046C7
:1057900010BD000010B50548FCF778FE04B20021EA
:1057A0000248FCF795FF204610BD000000040040B1
:1057B000F0B587B001A904A8FFF76EFC0546032DDC
:1057C00036D16846FFF7C0F8049801F01DF8074687
:1057D000009901F079F8064600F0DAFF0490059888
:1057E00001F012F80746009901F06EF8064600F045
:1057F000CFFF0590069801F007F80746009901F0E1
:1058000063F8064600F0C4FF069004A8FEF734F8DB
:10581000002401986043019002986043029003982D
:105820006043039001A8FDF757FF002007B0F0BDCB
:105830000120FBE738B50446214890F82400C0B1A8
:1058400014B10220009001E0002000901C4A126870
:10585000D17B1B4A526810786B460122FBF7E9FCAA
:1058600010B14FF0FF3038BD9DF80010144841745E
:1058700023E01348807A10B94FF0FF30F3E724B1EA
:105880000F48407C08B10020EDE714B101200090E2
:1058900001E0002000900A4A1268D17B084A526851
:1058A00010786B460122FBF7C4FC10B14FF0FF30BB
:1058B000D9E79DF80010024841740020D3E70000AA
:1058C000380000202DE9F04106460F4600F000FCAC
:1058D000041E0D4618BF0120284320F00040C0F1EF
:1058E0007F6000F1E040C00F0ED0301C18BF0120D7
:1058F000384320F00040C0F17F6000F1E040C00F6D
:1059000004BF0120FAF722FE20462946BDE8F081B7
:105910002DE9F04781468A461446204600F074FF80
:10592000064686F0004806480168404600F0CCFF75
:10593000074600F02DFF05462846BDE8F087000029
:10594000140000202DE9F04104461E4D29464FF079
:105950007E5001F0B7F880461B480168404600F0D1
:10596000B3FF0646204600F04FFF8046294600F070
:10597000ABFF0746314600F0A7FD14490860084612
:1059800001681348006800F09FFD114908600F4846
:1059900000680D4908600E4801680E48006800F074
:1059A00093FF0746094801680B48006800F08CFF28
:1059B0008046394600F088FD064600F0E9FEBDE865
:1059C000F08100009A99993E840000208000002018
:1059D00088000020100000200C0000202DE9F0417C
:1059E00004460D462946204601F06CF8114908602E
:1059F000114801680F48006801F064F80F49086019
:105A00000C4800680C4908600C4801680C480068A4
:105A100000F05AFF0746074801680A48006800F08E
:105A200053FF8046394600F04FFD064600F0B0FEB9
:105A3000BDE8F08170000020740000207C00002090
:105A4000080000200400002021F00042A2F1605272
:105A5000B2F5801F01F0004328BFD2F17F6C0BD953
:105A60005FEA001C43EAC20242EB507018BF704765
:105A700028BF20F001007047B2F5801FBCBF184658
:105A800070474FEA410C1CF5001F02D2084600F097
:105A9000E2BF70B500F0BCFA00000089FFF7F6BF66
:105AA0004FF00040A0F580007047000010B591EA6B
:105AB000030F48BF83F0004300F1F883841A71EBB1
:105AC000030C05D2121943EB0C03001B61EB0C0114
:105AD000DFF824E14FEA1154A4EB135C1EEA430FF4
