:020000040800F2
:1000000000CE01208540000855060008570600086C
:100010005B0600085F060008630600080000000099
:10002000000000000000000000000000670600085B
:1000300069060008000000006B0600086D06000855
:100040009F4000089F4000089F4000089F40000814
:100050009F4000089F4000089F4000089F40000804
:100060009F4000089F4000089F4000089F400008F4
:100070009F4000089F4000089F4000089F400008E4
:100080009F4000089F4000089F4000089F400008D4
:100090009F4000089F4000089F4000089F400008C4
:1000A0009F4000089F4000089F4000089F400008B4
:1000B0009F4000089F400008316E00089F400008E4
:1000C0009F4000089F4000089F4000089F40000894
:1000D0009F400008FB3F00089F4000089F40000829
:1000E0009F4000089F4000089F4000089F40000874
:1000F0009F4000089F4000089F4000089F40000864
:100100009F400008C12800089F4000089F40000849
:100110009F4000089F4000089F4000089F40000843
:100120009F4000089F4000089F4000089F40000833
:100130009F4000089F4000089F4000089F40000823
:100140009F4000089F4000089F4000089F40000813
:100150009F4000089F4000089F4000089F40000803
:100160009F4000089F4000089F4000089F400008F3
:100170009F4000089F4000089F4000089F400008E3
:100180009F4000089F40000800F002F800F06DF862
:100190000AA090E8000C82448344AAF10107DA45E2
:1001A00001D100F062F8AFF2090EBAE80F0013F0C7
:1001B000010F18BFFB1A43F001031847287403000E
:1001C000487403000A444FF0000C10F8013B13F090
:1001D000070408BF10F8014B1D1108BF10F8015BA0
:1001E000641E05D010F8016B641E01F8016BF9D193
:1001F00013F0080F1EBF10F8014BAD1C0C1B09D1EA
:100200006D1E58BF01F801CBFAD505E014F8016B5B
:1002100001F8016B6D1EF9D59142D6D370470000ED
:100220000023002400250026103A28BF78C1FBD8FF
:10023000520728BF30C148BF0B60704764290BF0DC
:10024000D98275290BF0D68278290BF00F836329A8
:100250000BF0BF8573290BF0C485002070471FB5D4
:100260000BF045FE1FBD10B510BD0BF007FE11468B
:10027000FFF7F5FF00F010F80BF025FE03B4FFF7D1
:10028000F2FF03BC03F05AFE30BF72B6704762B68D
:10029000704780F308887047ADF5107D00244FF457
:1002A000A06003F00FFFA82003F0C6FD4FF4E1307B
:1002B00003F051FE03F097FC03F08DFB8148416889
:1002C0005420884700F088FB03F0F6F9002006F080
:1002D00076F9022006F073F90BE07BA00BF01AFA16
:1002E0007DA20121084603F0C2FB4FF4C87003F061
:1002F00005FE03F07EFD0028EFD108E07BA201217E
:10030000032003F0B4FB4FF4FA7003F0F7FD01F0A3
:10031000ABFA0028F2D10AF04DFD784901220868B5
:1003200077A108F0DFFE044664B176A20121072020
:1003300003F09DFB214677A00BF0ECF94FF4FA7027
:1003400003F0DCFD6D490122086878A108F0CAFEBF
:10035000044664B176A20121072003F088FB214600
:1003600078A00BF0D7F94FF4FA7003F0C7FD2146DF
:100370007BA00BF0CFF90D2C29D180A20121072001
:1003800003F075FB4FF4FA7003F0B8FD0A2280A168
:10039000684608F0D2FE044664B969467FA00AF0B8
:1003A00092FB684609F0B6F980A20121072003F00C
:1003B0005EFB08E081A20121072003F058FB2146E3
:1003C00082A00BF0A7F94FF47A7003F097FD012299
:1003D0006FA1684608F0B1FE04465CB985A2012110
:1003E000072003F044FB84A00BF094F9684609F061
:1003F00091F907E051A20121072003F038FB80A00A
:100400000BF088F94FF47A7003F078FD07E07FA2D3
:100410000121032003F02BFBC82003F06FFD8EAAFF
:100420008FA97CA00AF062FD0028F0D17AA20121F8
:10043000032003F01CFB79A20121042003F017FB29
:100440000423052103208F9A03F02FFB04230521A9
:1004500018468E9A03F029FB32E002F0E2FE8CA9E6
:100460008DA803F09AFC9DF834126EA00BF052F99F
:100470009DF830126EA00BF04DF99DF8342270A15A
:100480008BA80BF053F99DF830226DA18AA80BF0D0
:100490004DF96CA20121084603F0E9FA6BA2012193
:1004A000022003F0E4FA8BAA0521012003F0DFFA11
:1004B0008AAA0521022003F0DAFAC82003F01EFD03
:1004C000CBE70000AC010020444854313120457294
:1004D000726F720D0A000000444854313120496E99
:1004E0006974204572726F72000000005344204905
:1004F0006E6974204572726F720000004CC7012053
:10050000303A00005344204D6F756E742046616987
:100510006C6564005344204D6F756E7420466169AC
:100520006C65643A2025640D0A000000313A000031
:10053000466C617368204D6F756E74204661696CFE
:1005400065640000466C617368204D6F756E7420A1
:100550004661696C65643A2025640D0A000000005C
:10056000665F6D6F756E7428303A292072657475F8
:10057000726E3A2025640D0A000000004E6F20467E
:10058000532C205472792043726561746500000019
:10059000313A746573742E747874000048656C6C1D
:1005A0006F2C2057323551585821000046696C6530
:1005B00020437265617465640000000043726561E8
:1005C0007465204661696C656400000046696C656D
:1005D000206372656174696F6E206661696C656421
:1005E0002C206572726F7220636F64653A202564F7
:1005F0000D0A00004F4B00004F4B0D0A0000000099
:100600004661696C65640D0A000000004572726FF6
:10061000723200003000000053554D00467265658F
:100620000000000054656D703A256420430D0A00F7
:1006300048756D693A25642025250D0A00000000E3
:100640002532640054656D703A00000048756D698C
:100650003A000000704700BFFEE700BFFEE700BFA2
:10066000FEE700BFFEE77047704770477047000025
:100670000CB50020019000907648006840F480306E
:100680007449086000BF7348006800F400300090AF
:100690000198401C0190009818B90198B0F5A04F3E
:1006A000F1D16C48006800F4003010B101200090D6
:1006B00001E0002000900098012846D165484030B4
:1006C000006840F08050634940310860624800682B
:1006D00040F44040604908605E48083000685D4969
:1006E000083108600846006840F400400860084689
:1006F000006840F4A05008605848091F0860081FAF
:10070000006840F08070091F086000BF5148006811
:1007100000F000700028F9D040F2057050490860E0
:100720004C480830006820F003004A49083108604E
:100730000846006840F00200086000BF45480830E5
:10074000006800F00C000828F8D10CBD10B5454831
:10075000006840F47000434908603E48006840F07B
:1007600001003C49086000203A49083108603948D6
:1007700000683D490840374908603C48091D086049
:10078000081F006820F48020091F086000203149FC
:100790000C310860FFF76CFF4FF000603149803981
:1007A000086010BD70B50020002202230024022141
:1007B000284D08352D6805F00C0020B1042806D01E
:1007C000082834D107E02A4D2A4E356033E02A4DFF
:1007D000284E35602FE01F4D2D1D2D68C5F3805428
:1007E0001C4D2D1D2D6805F03F0154B1224DB5FB68
:1007F000F1F5184E361D3668C6F3881605FB06F26D
:1008000009E01B4DB5FBF1F5124E361D3668C6F3F7
:10081000881605FB06F20F4D2D1D2D68C5F3014509
:100820006D1C6B00B2FBF3F5124E356003E0104D0A
:10083000104E356000BF00BF064D08352D68C5F36A
:1008400003150E4E705D0B4D2D68C540094E356089
:1008500070BD00000038024000700040085440079E
:10086000003C024088ED00E0FFFFF6FE103000245F
:100870000024F4000000002000127A000400002090
:1008800010B5044600BF0221414805F051FE002882
:10089000F9D021463E4805F002FE00BF01213C4848
:1008A00005F046FE0028F9D0394805F0F5FDC0B244
:1008B00010BD00B587B00121084604F085F801217C
:1008C000080304F0DBF83820059002208DF81800AA
:1008D00000208DF81A0003208DF8190001208DF8F2
:1008E0001B0005A92B4803F0E3FC0522032129483E
:1008F00003F069FD05220421264803F064FD05226A
:100900001146244803F05FFD0121080304F00BF9B0
:1009100000214FF4805004F006F90020ADF80000EB
:100920004FF48270ADF802000020ADF80400022000
:10093000ADF806000120ADF808004002ADF80A004D
:100940003820ADF80C000020ADF80E000720ADF8FF
:10095000100069460E4805F027FC01210C4805F0FF
:100960001DFDFF20FFF78CFF07B000BD10B504464A
:10097000074800884FF6C7710840054908800846B7
:100980000088204308800121014805F007FD10BDC3
:10099000003001400004024010B500240020D84976
:1009A00008609020FFF76CFF0020FFF769FF002030
:1009B000FFF766FF0020FFF763FFFF20FFF760FFF0
:1009C00044EA0024FF20FFF75BFF04430120CD49E8
:1009D000C1F8B802204610BD1CB50121022003F069
:1009E000F3FF0121402003F0EFFF4FF4804000901F
:1009F00001208DF8040000208DF8060003208DF8FA
:100A0000050001208DF807006946BF4803F050FC3F
:100A1000802000906946BD4803F04AFC8021BB4815
:100A200003F0C2FC0120B6490860FFF742FF08202E
:100A3000FFF79CFFFFF7B0FFB54908801CBD10B55C
:100A400000240020AE4908600520FFF719FFFF20B1
:100A5000FFF716FF04460120AA49C1F8B802204654
:100A600010BD10B504460020A54908600120FFF71D
:100A700007FF2046FFF704FF0120A249C1F8B80292
:100A800010BD10B500209E4908600620FFF7F8FE53
:100A900001209C49C1F8B80210BD10B5002098494A
:100AA00008600420FFF7ECFE01209649C1F8B80267
:100AB00010BD2DE9F04106460C461746002090492E
:100AC00008600320FFF7DCFEC4F30740FFF7D8FE01
:100AD000C4F30720FFF7D4FEE0B2FFF7D1FE0025F4
:100AE00005E0FF20FFF7CCFE7055681C85B2BD42C3
:100AF000F7DB012082490860BDE8F08110B500BF36
:100B0000FFF79DFF00F001000028F9D110BD2DE98D
:100B1000F04106460C461746FFF7B3FF0020784920
:100B200008600220FFF7ACFEC4F30740FFF7A8FE01
:100B3000C4F30720FFF7A4FEE0B2FFF7A1FE0025F3
:100B400004E0705DFFF79CFE681C85B2BD42F8DBD7
:100B500001206B490860FFF7D1FFBDE8F0812DE966
:100B6000F04107460E461446F0B2C0F58075AC421F
:100B700000DC254612E02A4631463846FFF7C7FF1B
:100B8000AC4200D10BE02F442E44601B84B2B4F57C
:100B9000807F02DD4FF4807500E02546EBE700BF63
:100BA000BDE8F08110B5044621465AA00AF0B2FD16
:100BB0002403FFF766FFFFF7A1FF002050490860FC
:100BC0002020FFF75DFEC4F30740FFF759FEC4F392
:100BD0000720FFF755FEE0B2FFF752FE012049491A
:100BE000C1F8B802FFF78AFF10BD2DE9F05F81461A
:100BF0000F461646DFF824B14FEA1738C7F30B0A41
:100C0000CAF58054A64200DC344644E04FEA08317D
:100C10004FF480525846FFF74CFF002508E00AEBDE
:100C200005001BF80000FF2800D003E0681C85B217
:100C3000A542F4DB00BFA54216DA4046FFF7B2FF3B
:100C4000002507E019F8050005EB0A010BF8010083
:100C5000681C85B2A542F5DB4FEA08314FF480529B
:100C60005846FFF77CFF04E0224639464846FFF726
:100C700076FFA64200D10FE008F101084FF0000A0C
:100C8000A1442744301B86B2B6F5805F02DD4FF4E5
:100C9000805400E03446B9E700BFBDE8F09F10B5CE
:100CA000FFF7EFFEFFF72AFF002015490860C72075
:100CB000FFF7E6FD01201349C1F8B802FFF71EFF58
:100CC00010BD10B500200E490860B920FFF7D8FD0F
:100CD00001200C49C1F8B802032003F0C7F810BD89
:100CE00010B5002006490860AB20FFF7C9FD0120C0
:100CF0000449C1F8B802032003F0B8F810BD0000A1
:100D0000B882404200804042000402400018024085
:100D10001400002066653A25780D0A00B80200200C
:100D20000020FE490860091D0860091D0860091DB2
:100D30000860FA4924310860091D0860091D08602F
:100D4000F748F649383108600020091D08607047EF
:100D500001460020012900D011B9F24B197000E0C2
:100D6000262070470146ED4A121D106820F0FF0052
:100D700008431060704770B5044606E0E748343019
:100D8000056805F0450000B100E0F7E700BF04206A
:100D900003F01AFC20B1042003F021FC032070BDF5
:100DA000012003F011FC20B1012003F018FC012008
:100DB000F5E7DA4810300068A04201D01020EEE7D5
:100DC00040F2FF5003F00BFCD448143000680821B7
:100DD0000840C0B2E3E72DE9FC4107460D46002676
:100DE00000240020009001900820CF4908601020C6
:100DF0004860402088600020C8604FF4806008612F
:100E0000084603F04EFB1020FFF7B5FF044614B16F
:100E10002046BDE8FC81C54800880004C24908603E
:100E200037204860402088600020C8604FF4806010
:100E30000861084603F035FB3720FFF79CFF0446A6
:100E40000CB12046E5E74FF0FF30B94908600820B3
:100E50004860302088600220C860002008610120BE
:100E60004861084603F049FB0020AF490860332081
:100E70004860402088600020C8604FF480600861AE
:100E8000084603F00EFB3320FFF775FF04460CB154
:100E90002046BEE70DE04FF4001003F095FB40B193
:100EA0009E48803000684DF82600761C022E00D344
:100EB00007E09A483430006840F22A610840002870
:100EC000E9D000BF082003F07FFB20B1082003F029
:100ED00086FB04209DE7022003F076FB20B1022070
:100EE00003F07DFB022094E7202003F06DFB20B18E
:100EF000202003F074FB06208BE74FF4007003F012
:100F000063FB28B14FF4007003F069FB072080E712
:100F100040F2FF5003F063FB00980006009901F4D3
:100F20007F4140EA0120009901F47F0140EA11204D
:100F3000009940EA1160686001980006019901F487
:100F40007F4140EA0120019901F47F0140EA11202C
:100F5000019940EA1160286020465AE77CB50546B1
:100F6000002400200090019000260DB1022600E030
:100F700000266A481430006800F0007008B10E20A6
:100F80007CBD6A49098888B26946FFF724FF044698
:100F90000CB12046F4E7019800F4802060B3634868
:100FA000008800046049086037204860402088605D
:100FB0000020C8604FF480600861084603F071FAB1
:100FC0003720FFF7D8FE04460CB12046D8E7564834
:100FD0000660062054494860402088600020C860B0
:100FE0004FF480600861084603F05BFA0620FFF7C3
:100FF000C2FE04462046C3E72520C1E770B504467B
:1010000000254C480078032802D12725284670BDCA
:101010004848007838B147480078012803D045484F
:101020000078022819D1B4F5805F02D1272528461F
:10103000EDE7E0B2FFF792FF054675B93748001DAE
:10104000006820F4C0503549091D08600846006852
:10105000204308600846006808602846D7E710B5B6
:1010600004463148046007202F49486040208860CA
:101070000020C8604FF480600861084603F011FA50
:101080000720FFF778FE10BDF0B5014600200022D2
:10109000284B1B7881F85630244B1B88A1F854301C
:1010A000254B1B681A0E93090B70C2F383034B7018
:1010B00002F003038B70204B1B68C3F30742CA7016
:1010C0001D4B1B88C3F307220A711B4B1A784A7108
:1010D0005B681A0E1301CB80174B5B68C3F30742A2
:1010E000CB8843EA1213CB8002F00F030B72124B32
:1010F0009B88C3F30722D3094B72C2F380138B7210
:10110000C2F34013CB72C2F300130B7300234B7373
:10111000084B1B78C3B1074B1B780FE0002C014034
:10112000FF07C00020000020D01200201C0000207B
:10113000E412002018000020FC120020012B03D034
:10114000FE4B1B78032B4FD193071B0D0B61FC4B00
:101150001A790B6943EA82030B61F94B9B681A0EFB
:101160000B6943EA92130B61C2F3C2030B7502F0E1
:1011700007034B75F24B9B68C3F3074253098B750A
:10118000C2F38203CB7593075B0F0B76EC4B1B8985
:10119000C3F307220B7E43EAD2130B760B695B1C69
:1011A0000024C1E912340B7E9B1C012404FA03F3D2
:1011B000DC17D1E91256A5FB037C06FB03C305FB34
:1011C0000433C1E912730C7A0123A3400B65002498
:1011D000D1E912650B6DA6FB037C05FB03C306FB7F
:1011E0000433C1E912732EE0D44B1B78022B2AD1B1
:1011F000D34B1A7993069B0A0B61D14B9B681A0E4D
:101200000B6943EA02230B61CD4B9B68C3F3074292
:101210000B6913430B61CA4B1B89C3F307220B698C
:101220005B1C4FF40074A3FB04464FF4806300255D
:10123000A4FB037C06FB03C304FB0533C1E9127363
:101240004FF400730B65C2F3801301F8193F930646
:101250005B0E4B70BA4B1A7A4B7843EAD2134B7041
:1012600002F07F038B70B64BDB681A0ED309CB708C
:10127000C2F341130B71C2F382034B7193071B0F2F
:101280008B71AF4BDB68C3F307428B7943EA921350
:101290008B71C2F34013CB7100230B7202F0010378
:1012A0004B72A74B9B89C3F30722D3098B72C2F3FE
:1012B0008013CB72C2F340130B73C2F300134B7352
:1012C000C2F381038B7302F00303CB739C4B1A7B35
:1012D00053080B7401234B749A4B1B681A0ECA7483
:1012E0001939984B1B68C3F307421402CC85954B00
:1012F0001B88C3F30722CB8D1343CB85914B1A7800
:1013000014060C635B681A0E0B6B43EA02440C6311
:101310008C4B5B68C3F307420B6B43EA02240C63FC
:10132000884B9B88C3F307220B6B13430B63854BDE
:101330001A7934235A54834B9B681A0E35235A5416
:10134000804B9B68C3F3074214068C637D4B1B895B
:10135000C3F307228B6B43EA02448C63794B1A7AFE
:101360008B6B43EA02248C63764BDB681A0E8B6B23
:1013700013438B63734BDB68C3F307423C235B5C13
:1013800043EA12143C235C5413071C0DCC876D4BAD
:101390009B89C3F30722CB8F1343CB87694B1A7BFF
:1013A000540840235C54012441235C54F0BD70B5C3
:1013B00000264FF4803505E06348046804F04500DA
:1013C00000B103E0281EA5F10105F5D100BF15B15C
:1013D00004F0040028B10326042003F000F930468D
:1013E00070BD012003F0F0F818B10126012003F0D0
:1013F000F6F840F2FF5003F0F2F83046F0E72DE93E
:10140000F04105460E464FF0000805E04E480768DB
:1014100007F0450000B100E0F8E700BF042003F04A
:10142000D3F828B1042003F0DAF80320BDE8F081F6
:10143000012003F0C9F820B1012003F0D0F8012009
:10144000F4E7414824380068A84201D01020EDE7B5
:1014500040F2FF5003F0C3F83B482038046804F41E
:10146000604018B9200C30804046DFE704F400509B
:1014700008B11320DAE704F4804008B11020D5E762
:1014800004F4004008B10F20D0E74046CEE738B55D
:1014900000240120009002F0FEFF10B92524204610
:1014A00038BD26480078042825D000202749086048
:1014B00002204860C02088600020C8604FF480602F
:1014C0000861084602F0EDFFFFF771FF04460CB11A
:1014D0002046E5E71C48203800681A4908601A4889
:1014E0001C3800684860184818380068886016483A
:1014F00014380068C8601148007858B10F48007867
:10150000012807D00D480078062803D00B48007842
:10151000022821D100200D490860032048604020A6
:1015200088600020C8604FF480600861084602F0BF
:10153000B8FF69460320FFF762FF09E018000020AA
:10154000FC1200200C130020342C0140D01200208B
:1015500004460CB12046A3E7FE480078032816D1C4
:10156000BDF800000004FC490860032048604020EA
:1015700088600020C8604FF480600861084602F06F
:1015800090FFFFF714FF04460CB1204688E7F148AE
:10159000007804282AD0BDF80000F0490860BDF8A2
:1015A00000000004EC49086009204860C020886001
:1015B0000020C8604FF480600861084602F071FFA7
:1015C000FFF7F5FE04460CB1204669E7E4480068E1
:1015D000E4490860E248001D00684860E0480830BF
:1015E00000688860DE480C300068C860002057E75B
:1015F00010B506E0DA482030046804F0450000B178
:1016000000E0F7E700BF042002F0DEFF20B1042075
:1016100002F0E5FF032010BD40F2FF5002F0DFFFB3
:101620000020F8E770B500264FF4803506E0CC487E
:101630002030046804F0450000B103E0281EA5F145
:101640000105F4D100BF15B104F0040028B1032650
:10165000042002F0C4FF304670BD04F0400018B111
:101660000026402002F0BBFF3046F5E770B50025AC
:101670004FF4803404E0802002F0A6FF00B103E0C4
:10168000201EA4F10104F6D100BF0CB9032070BDE7
:1016900040F2FF5002F0A3FF2846F8E72DE9F0479B
:1016A0000027002400260025A046A1467620AE494A
:1016B00008750020086048608860C86008610846B6
:1016C00002F0C5FE032002F0E2FEA54810380068D3
:1016D00040F48070A2491039086000BF12E0002079
:1016E0009D49086048608860C8604FF48060086168
:1016F000084602F0D6FEFFF7B9FF044604B903E03E
:10170000781CC7B24A2FEADB00BF14B12046BDE8FF
:10171000F0874FF4D5709049086008204860402059
:1017200088600020C8604FF480600861084602F0BD
:10173000B8FEFFF777FF044624B9012085490870F9
:101740004FF08049002084490860372048604020DD
:1017500088600020C8604FF480600861084602F08D
:10176000A0FE3720FFF707FB0446002C4BD134E0E6
:1017700000207949086037204860402088600020B8
:10178000C8604FF480600861084602F08AFE372086
:10179000FFF7F1FA04460CB12046B8E7734849EA6E
:1017A00000006D49086029204860402088600020C2
:1017B000C8604FF480600861084602F072FEFFF7CF
:1017C00017FF04460CB12046A1E7654806680120D2
:1017D00080EAD67080F001086D1CB8F1000F03D1CB
:1017E0004FF6FF708542C3D34FF6FF70854202D398
:1017F0001B2420468BE706F08040061E32D00220D4
:10180000544908702EE01CE05948534908600120F3
:101810004860402088600020C8604FF48060086104
:10182000084602F03EFEFFF7E3FE04460CB12046F8
:101830006DE74B480668012080EAD67080F0010809
:101840006D1CB8F1000F03D14FF6FF708542DBD35A
:101850004FF6FF70854202D31B24204657E7032032
:101860003C490870204652E73EB50024002501217E
:10187000404803F0A9F80121C80203F0FFF8012154
:10188000C80203F050F94FF4F850019002208DF88F
:1018900008008DF8090000208DF80A0001208DF85D
:1018A0000B0001A9344802F003FD0420019001A9B6
:1018B000324802F0FDFC0C2208212F4802F083FD83
:1018C0000C2209212C4802F07EFD0C220A212A4814
:1018D00002F079FD0C220B21274802F074FD0C2246
:1018E0001146254802F06FFD0C220221234802F028
:1018F0006AFD00214FF4006003F015F9FFF710FABC
:1019000031208DF8000000208DF801008DF80200D4
:1019100001208DF80300684602F0D9FBFFF7BEFEF8
:10192000044614B9FFF7B3FD04461CB91448FFF789
:10193000ABFB044634B91249B1F854100804FFF760
:101940008EFB044624B94FF40060FFF757FB0446B2
:10195000E4B117E018000020D01200201C00002085
:10196000142C0140FC120020B8120020000010804E
:101970000080FF800C00400000080240000C024084
:1019800020130020FE480078032812D1FD4890F86B
:10199000560020B1FB4890F85600012801D10225DD
:1019A00000E000252846FFF7DDF90020FFF7D0F919
:1019B000044620463EBD10B5002002F068FD002020
:1019C00010BD70B590B004460E46154600BFEE48F7
:1019D00003F0A1FC0028FAD1EB4803F073FB4FF0B1
:1019E00000600190E948029003940495002005905E
:1019F00006904FF480600790800008908000099066
:101A000000200A904FF440300B9004200C900320EB
:101A10000D904FF400000E9080100F9001A9DA484D
:101A200003F0F2FB2021D84803F03EFC0121D64808
:101A300003F024FC10B070BD0146002002E0491004
:101A4000421CD0B20129FAD170472DE9F84F8146E6
:101A5000174698460A9C4FF0000AD3464D464FF071
:101A6000FF36B9F1000F02D12620BDE8F88F002023
:101A7000C64954390860C2480078022805D10402DA
:101A8000780A40EAC8574FEA68280020C0498860B1
:101A90004860401E0860012048610020C86008615D
:101AA000084602F02AFDB9486C38006800F0007062
:101AB00008B10E20D9E7002C21DDB4F5006F1EDC43
:101AC000601E2040D8B92046FFF7B6FF0090B1480D
:101AD00004601020AF494860402088600020C86042
:101AE0004FF480600861084602F0DBFC1020FFF72D
:101AF00042F98246BAF1000F03D05046B5E72620DE
:101B0000B3E700980001A2498860084644604FF09E
:101B1000FF300860012048610220C8600020086191
:101B2000084602F0EAFC9B4807601120994948608A
:101B3000402088600020C8604FF48060086108463B
:101B400002F0AFFC1120FFF716F98246BAF1000F40
:101B500001D0504689E79048007800285AD1FEF716
:101B600094FB17E04FF4004002F02EFD70B14FF0EF
:101B7000000B05E08548006845F82B000BF1010BD0
:101B8000BBF1080FF6D32035844E03E00EB90420D4
:101B90006BE7761E7D484C38006840F22A610840A9
:101BA0000028DFD0082002F00FFD20B1082002F04D
:101BB00016FD042059E7022002F006FD20B10220A4
:101BC00002F00DFD022050E7202002F0FDFC20B1C4
:101BD000202002F004FD062047E74FF4007002F0D9
:101BE000F3FC28B14FF4007002F0F9FC07203CE749
:101BF00003E06648006828602D1D4FF4001002F0D5
:101C0000E3FC0028F5D1FEF742FB40F2FF5002F062
:101C1000E6FC39E060480078012835D100206049B1
:101C20000870604908706049087058484438006876
:101C300040F22A3108435549443908605348543822
:101C4000006840F0080051495439086000222146DC
:101C50004846FFF7B6FE00E0761E4B48583800684D
:101C600000F0006038B95048007820B94C4800783E
:101C700008B9002EF0D10EB90420F6E648480078E5
:101C800010B1474890F800A05046EEE62DE9FF5FFE
:101C900017469846DDE90E464FF00009CA464FF058
:101CA000FF354249009808600020384954390860DF
:101CB00033480078022805D10402780A40EAC85760
:101CC0004FEA68280020324988604860401E08605A
:101CD000012048610020C8600861084602F00DFC40
:101CE0002A486C38006800F0007018B10E2004B06B
:101CF000BDE8F09F002C21DDB4F5006F1EDC601EF6
:101D00002040D8B92046FFF797FE8346214804605B
:101D1000102020494860402088600020C8604FF4AF
:101D200080600861084602F0BCFB1020FFF723F832
:101D30008146B9F1000F03D04846D8E72620D6E700
:101D4000012E6ED906FB04F0B0F1007F01D32620EE
:101D5000CDE74FEA0B100E49886006FB04F048609F
:101D60004FF0FF300860012048610220C860002069
:101D70000861084602F0C1FB06480760122017E020
:101D8000180000202013002058640240802C0140DD
:101D9000E4120020D012002020000020FFFF7F006E
:101DA0002200002021000020230000202400002029
:101DB000F9494860402088600020C8604FF4806086
:101DC0000861084602F06DFB1220FEF7D4FF814641
:101DD000B9F1000F01D0484689E7F04800780028A3
:101DE0007ED1FEF752FA1EE04FF4004002F0ECFB09
:101DF000A0B14FF0000A07E0E9480068E949096826
:101E000041F82A000AF1010ABAF1080FF4D3E548B3
:101E100000682030E3490860E34D04E015B9042070
:101E200065E7AEE06D1EDE484C38006840F22A31AE
:101E300008400028D8D0082002F0C6FB20B10820B6
:101E400002F0CDFB042052E7022002F0BDFB20B1DE
:101E5000022002F0C4FB022049E7202002F0B4FB7C
:101E600020B1202002F0BBFB062040E74FF40070B9
:101E700002F0AAFB28B14FF4007002F0B0FB07207B
:101E800035E709E0C6480068C64909680860C548E2
:101E90000068001DC34908604FF4001002F094FB75
:101EA0000028EFD14FF4807002F08EFB20B3BF48C2
:101EB000007838B1BD480078012803D0BB480078CD
:101EC000022819D10020B44908600C204860402045
:101ED00088600020C8604FF480600861084600E018
:101EE00011E002F0DEFA0C20FEF745FF8146B9F161
:101EF000000F01D04846FAE6FEF7C9F940F2FF505C
:101F000002F06DFB3DE0A5480078012839D10020A2
:101F1000A74908700120A74908700020A649087049
:101F20009F484438006840F22A3108439C494439AC
:101F300008609B485438006840F0080098495439BC
:101F4000086006FB04F100220098FFF73AFD00E06C
:101F50006D1E9A48006800F0006008B9002DF7D1A6
:101F60000DB90420C3E600BF9348007818B9904823
:101F700000780028F8D08E48007810B18C4890F88E
:101F800000904846B3E61CB504460020019000903E
:101F90008B4800880004804908600D20486040207C
:101FA00088600020C8604FF480600861084602F035
:101FB00078FA7B484C380068009003E078484C3849
:101FC00000680090009800F045000028F6D001203D
:101FD00002F0FAFA20B1012002F001FB01201CBD41
:101FE000042002F0F1FA20B1042002F0F8FA0320F4
:101FF000F5E76B48703800680D2801D01020EEE737
:1020000040F2FF5002F0EBFA65486C38006801902E
:102010000198C0F3432020700020E0E72DE9FF5F26
:1020200086B017469846149D00260020059004901F
:10203000002481460390824602900195DDF818B095
:10204000DDF818B0BBF1000F03D126200AB0BDE8BF
:10205000F09F00205249543908605A49886048600E
:10206000401E0860012048610020C86008610846E1
:1020700002F043FA4A486C38006800F0007008B17A
:102080000E20E3E749480078022805D10502780AC6
:1020900040EAC8574FEA6828002D1FDDB5F5006FEC
:1020A0001CDC681E2840C8B92846FFF7C5FC05900F
:1020B0003948056010203849486040208860002079
:1020C000C8604FF480600861084602F0EAF9102009
:1020D000FEF751FE06461EB13046B7E72620B5E7AB
:1020E0003748008800042C4908600D2048604020D3
:1020F00088600020C8604FF480600861084602F0E4
:10210000D0F90D20FEF737FE06460EB130469DE7AA
:1021100023486C38006803904FF0FF341CE0641EC5
:102120002748008800041C4908600D2048604020B2
:1021300088600020C8604FF480600861084602F0A3
:10214000B0F90D20FEF717FE06460EB130467DE7CA
:1021500013486C3800680390039800F4807008B945
:10216000002CDCD10CB9292070E70B48076018203F
:1021700009494860402088600020C8604FF48060B2
:102180000861084602F08DF91820FEF7F4FD0646B6
:10219000D6B130465AE70000D012002020000020BF
:1021A000802C014024000020FFFF7F001800002049
:1021B00022000020210000202300002000640240B3
:1021C0001C000020E41200200020F8490870059847
:1021D0000001F7498860084645604FF0FF3008600D
:1021E000012048610020C8600861084602F085F9B6
:1021F0004FF0FF34EF48007800287CD1FEF745F817
:1022000043E04FF4804002F0DFF9C8B30198A0EB3F
:102210000900202821D20198A0EB090000F003005A
:1022200020B90198A0EB0900800804E00198A0EB18
:1022300009008008401C02904FF0000A09E0DE49C6
:10224000DBF8000008600AF1010A0BF1040B09F148
:10225000040902988245F2D30FE04FF0000A05E02E
:102260005BF82A00D44908600AF1010ABAF1080FA4
:10227000F6D30BF1200B09F120096FF0404404E084
:10228000FFE70CB90420E1E6641ECB484C38006837
:1022900040F21A6108400028B3D0082002F094F9F7
:1022A00020B1082002F09BF90420CFE6022002F0C2
:1022B0008BF920B1022002F092F90220C6E610202C
:1022C00002F082F920B1102002F089F90520BDE664
:1022D0004FF4007002F078F930B14FF4007002F062
:1022E0007EF90720B2E606E0FDF7D1FF40F2FF508D
:1022F00002F075F943E0AF48007801283FD1002093
:10230000AE490870A9490870AD490870AA48443818
:10231000006840F21A310843A74944390860402256
:1023200029460698FFF74DFBA3485438006840F053
:102330000800A1495439086000E0641EA148006803
:1023400000F0006008B9002CF7D11CB9FFF78CFA37
:1023500004207BE64FF0FF3400E0641E98480078CC
:1023600020B99648007808B9002CF6D10CB90420A1
:102370006CE69248007810B19048007866E640F22A
:10238000FF5002F02CF904A8FFF7FDFD064603E01C
:1023900004A8FFF7F8FD06463EB99DF8100007288F
:1023A000F6D09DF810000628F2D030464EE62DE912
:1023B000FF5F84B0DDE91247002600200390029001
:1023C000002580468146019007FB04FBDDF810A044
:1023D000DDF810A0BAF1000F03D1262008B0BDE847
:1023E000F09F002074495439086071498860486042
:1023F000401E0860012048610020C860086108464E
:1024000002F07BF86C486C38006800F0007008B18E
:102410000E20E3E76C480078022808D10402DDE9C9
:102420000601400A40EAC1504912CDE90601002CDC
:102430001FDDB4F5006F1CDC601E2040C8B92046CB
:10244000FFF7FAFA03906148046010205F49486082
:10245000402088600020C8604FF480600861084612
:1024600002F01FF81020FEF786FC06461EB130462B
:10247000B4E72620B2E7012F6FD907FB04F0B0F1D3
:10248000007F01D32620A9E74F48007838B14E4895
:102490000078012803D04C48007802282DD14C4800
:1024A000008800044949086037204860402088605F
:1024B0000020C8604FF480600861084601F0F1FF19
:1024C0003720FEF758FC06460EB1304686E73F48F7
:1024D000076017203D494860402088600020C860A0
:1024E0004FF480600861084601F0DBFF1720FEF71B
:1024F00042FC06460EB1304670E734490698086043
:1025000019204860402088600020C8604FF4806037
:102510000861084601F0C5FF1920FEF72CFC0646AD
:102520000EB130465AE7039800012149886007FB45
:1025300004F048604FF0FF3008600120486100203F
:10254000C8600861084601F0D8FF1A4800780028E2
:1025500072D1451EFDF799FE54E0F8E04FF480403B
:1025600002F032F8B0B3ABEB0800202833D2ABEB6B
:10257000080000F0030018B9ABEB0800800803E086
:10258000ABEB08008008401C01904FF0000909E007
:102590000949DAF80000086009F101090AF1040AA2
:1025A00008F1040801988145F2D324E021000020BD
:1025B000E412002020000020802C01402200002096
:1025C000230000200064024018000020D0120020E8
:1025D0001C00002012E04FF0000905E05AF8290025
:1025E000F749086009F10109B9F1080FF6D30AF1BA
:1025F000200A08F120086FF0404503E00DB90420DF
:10260000ECE66D1EEE484C38006840F21A31084086
:102610000028A3D0082001F0D7FF20B1082001F046
:10262000DEFF0420DAE6022001F0CEFF28B102200E
:1026300001F0D5FF0220D1E640E0102001F0C4FFF8
:1026400020B1102001F0CBFF0520C7E64FF4007049
:1026500001F0BAFF28B14FF4007001F0C0FF07206D
:10266000BCE64FF4807001F0AFFF00B3D5480078AE
:1026700038B1D4480078012803D0D2480078022825
:1026800015D10020D04908600C20486040208860A7
:102690000020C8604FF480600861084601F001FF27
:1026A0000C20FEF768FB06460EB1304696E6FDF7B5
:1026B000EEFD40F2FF5001F092FF48E0C348007881
:1026C000012844D10020C24908700120C149087086
:1026D0000020C1490870BA484438006840F21A31F5
:1026E0000843B7494439086007FB04F140220498C5
:1026F000FFF767F9B2485438006840F00800B04965
:10270000543908604FF0FF3500E06D1EB348006893
:1027100000F0006008B9002DF7D11DB9FFF7A4F84B
:1027200004205BE64FF0FF3500E06D1EAA480078FC
:1027300020B9A748007808B9002DF6D10DB90420BA
:102740004CE6A348007810B1A148007846E640F274
:10275000FF5001F044FF02A8FFF715FC064603E016
:1027600002A8FFF710FC06463EB99DF808000728AE
:10277000F6D09DF808000628F2D030462EE610B5B7
:102780004FF4807001F020FF88B392480078012850
:1027900014D100208C4908600C20486040208860DB
:1027A0000020C8604FF480600861084601F079FE9F
:1027B0000C20FEF7E0FA8649087002E00020844908
:1027C00008707F484838006840F480707C49483978
:1027D0000860081D00684CF23A3188437849443952
:1027E000086001207C4908707948007810BDFFE737
:1027F000022001F0E9FE78B1022001F0F0FE7048FD
:10280000443800684CF23A3188436D4944390860D5
:1028100002206F490870E9E7082001F0D5FE78B181
:10282000082001F0DCFE6648443800684CF23A317A
:102830008843634944390860042065490870D5E736
:10284000202001F0C1FE78B1202001F0C8FE5C48D4
:10285000443800684CF23A31884359494439086099
:1028600006205B490870C1E7102001F0ADFE78B189
:10287000102001F0B4FE5248443800684CF23A315E
:1028800088434F4944390860052051490870ADE735
:102890004FF4007001F098FE80B14FF4007001F029
:1028A0009EFE4748443800684CF23A318843444918
:1028B0004439086007204649087097E7002095E7EB
:1028C00010B5FFF75CFF10BD70B50446002514B9C4
:1028D0002625284670BD4248008800043A49086011
:1028E0000D204860402088600020C8604FF4806060
:1028F0000861084601F0D5FD0D20FEF73CFA0546BB
:102900000DB12846E6E72E486C380068206028465E
:10291000E0E708B5002000906846FFF7D5FF08B152
:10292000FF2008BD0098C0F34320FAE72DE9FE4FD1
:1029300083460C46914600200290002625462C46F0
:10294000700240EAD5566D020BF00300F0B14FF073
:10295000000A18E04FF4007000904FEA4A2047192F
:1029600046EBE0733A461F48FFF76FF802904FF4CA
:1029700000721C49584609F0ACF80BF5007B0AF1CF
:10298000010000F0FF0ACA45E4DB16E0B9F1010FCF
:1029900009D14FF400702A46334600905846FFF79D
:1029A00054F8029009E04FF400702A463346CDE90E
:1029B00000095846FFF76AF902900298BDE8FE8FB9
:1029C000802C014018000020D012002020000020A0
:1029D000220000202100002023000020006402408B
:1029E0001C000020781300202DE9FE4F81460C4684
:1029F000924600200290002625462C46700240EAAE
:102A0000D5566D0209F00300F0B14FF0000B18E04D
:102A10004FF400724946194809F05BF84FF4007012
:102A200000904FEA4B20471946EBE0733A461348B3
:102A3000FFF7F4FA029009F500790BF1010000F0BC
:102A4000FF0BD345E4DB16E0BAF1010F09D14FF4D7
:102A500000702A46334600904846FFF7DFFA02909E
:102A600009E04FF400702A463346CDE9000A484693
:102A7000FFF79DFC02900298BDE8FE8F78130020BE
:102A800070B50446002520E004F0800020B1042148
:102A9000F74801F089FC03E00421F54801F086FCC9
:102AA000142001F0E3F90221F14801F07FFC142029
:102AB00001F0DCF90221EE4801F076FC142001F06F
:102AC000D5F96006040E681CC5B2082DDCDB70BDAC
:102AD00070B504460D467E2000EA44060121E44814
:102AE00001F064FC3046FFF7CBFF2846FFF7C8FF34
:102AF0000121DF4801F058FC70BD70B500251CE0D5
:102B00006006040E0221DA4801F050FC142001F0A6
:102B1000ADF90821D64801F02DFC012801D144F07F
:102B20000104142001F0A2F90221D14801F03CFC7B
:102B3000142001F09BF9681CC5B2082DE0DB20468B
:102B400070BD70B504467E2000EA440040F0800568
:102B50000121C74801F02AFC2846FFF791FFFFF743
:102B6000CCFF06460121C24801F01EFC304670BD74
:102B700070B505460C462846FFF7E3FF064646EAD1
:102B800004012846FFF7A4FF70BD70B505460C464A
:102B90002846FFF7D6FF064626EA04012846FFF737
:102BA00097FF70BD2DE9FE4F0646884691469A462E
:102BB000DDF830B0022002900020019000900C2E31
:102BC00006D00E2E09D1122001901020009005E0B1
:102BD000772001903020009000E000BF00BF0198F6
:102BE00040F080010220FFF773FF80210420FFF7EF
:102BF000CCFF00210120FFF76BFF80210A20FFF7A7
:102C0000B7FF002505E018F805100920FFF760FF61
:102C10006D1C4D45F7D331460120FFF759FF0C2EAF
:102C200003D180210D20FFF7A3FF4FF47A7500BF79
:102C30000420FFF786FF04466D1E35B104F0010045
:102C400018B9009820400028F2D080210D20FFF70D
:102C50009CFF95B30620FFF774FF00F01B0068BBD4
:102C6000002002900198204000F0010008B10120EE
:102C700002900C2E24D10A20FFF763FF04460C209B
:102C8000FFF75FFF00F007072FB1601E07EBC000E2
:102C9000CBF8000002E0E000CBF8000004B901240A
:102CA000122C00DD1224002505E00920FFF749FF62
:102CB0000AF805006D1CA542F7D301E0022002903E
:102CC00080210C20FFF754FF00210120FFF700FFB7
:102CD0000298BDE8FE8F2DE9F0410746884615466B
:102CE00004210520FFF751FF00210120FFF7F0FE2E
:102CF00080210A20FFF73CFF002405E0395D092010
:102D0000FFF7E6FE601CC4B24445F7DB0321012057
:102D1000FFF7DEFEFF2400BF0520FFF712FF064687
:102D2000601EC4B21CB106F004000028F4D02220BA
:102D3000FFF707FF28702120FFF703FF6870BDE849
:102D4000F081F0B587B005460E4630208DF80800BA
:102D50008DF809500DF10A02022102A8FFF7BBFF0E
:102D600001A802AB042202A900900C20FFF71AFF71
:102D7000074667B90198902809D1002404E002A809
:102D8000005D3055601CC4B2102CF8DB00E0022757
:102D9000384607B0F0BD2DE9F04387B006460F4630
:102DA000904699468DF808608DF80970002406E079
:102DB00018F8041002AAA01C1154601CC4B2062CFE
:102DC000F6DB002407E019F8041002AA04F1080059
:102DD0001154601CC4B2062CF5DB01A802AB0C2216
:102DE00002A900900E20FFF7DDFE05462DB9082050
:102DF000FFF7A7FE00F0080000B90225284607B03B
:102E0000BDE8F08370B588B0054693208DF80C00BE
:102E100070208DF80D0000208DF8120000240BE0CA
:102E2000295D03AAA01C11549DF81200295D484099
:102E30008DF81200601CC4B2042CF1DB0DF11302FA
:102E4000072103A8FFF747FF08210846FFF79DFE6B
:102E500002A803AB092203A900900C20FFF7A2FEF1
:102E600006463EB90298182804D1002603E0000067
:102E7000001402400226304608B070BDF0B587B09D
:102E80000546002708210846FFF77FFE00210D2098
:102E9000FFF71EFE80210E20FFF777FE93208DF8AE
:102EA000080020208DF8090001A802AB022202A927
:102EB00000900C20FFF776FE064686B9002407E056
:102EC00002A8005D285502A8005D4740601CC4B2FE
:102ED000042CF5DB02A8005DB84200D00226802158
:102EE0000E20FFF745FE304607B0F0BD70B588B044
:102EF00005460C4608210846FFF747FE07210D202E
:102F0000FFF7E6FD03211420FFF732FE8DF80C5089
:102F100002A803AB012203A900900C20FFF742FE98
:102F200006464EB90298102806D19DF80C00207074
:102F30009DF80D00607000E00226304608B070BDBC
:102F400030B58DB004460025FD495220FFF7CEFF75
:102F5000FC49087008460078002825D10220087036
:102F6000F948FFF78BFFF7490870F5484378027876
:102F7000F6A108A808F0DAFBF248007878B9022038
:102F8000F0490870F048C078EF498978CDE9001021
:102F9000ED4843780278F2A103A808F0C7FBEA489D
:102FA000FFF730FFE7490870002505E0E648405D7F
:102FB00004F8010B681CC5B2042DF7DBE14800786A
:102FC00050B90220DF490870DF4BEE4A092160202A
:102FD000FFF7E1FEDB490870DA48007848B90220C3
:102FE000D8490870E849E9480078FFF7AAFED549B2
:102FF0000870D448007828B90220D24908706420AB
:1030000000F07CFFD048002101600DB030BD08B554
:10301000002000906846FFF793FF684608F03AFDED
:10302000A8B39DF80000DA490978884211D19DF8CB
:103030000100D749497888420BD19DF80200D44954
:103040008978884205D19DF80300D149C978884222
:1030500017D09DF80000CF490978884217D19DF814
:103060000100CC494978884211D19DF80200C94934
:10307000897888420BD19DF80300C649C9788842F7
:1030800005D1002000904FF4FA7000F037FF08BD22
:1030900070B50546002400BF0BE004EBC401BE4A36
:1030A0008818294608F05AFD08B9012070BD601C37
:1030B000C4B2BA4800788442EFDB0020F6E770B56E
:1030C00004462046FFF7E4FF20B12146B4A008F0F3
:1030D00021FB70BD0222BAA1BD4806F02EF8BD4901
:1030E000087008460078042806D10622B4A1B84822
:1030F00006F023F8B7490870B6480078002831D1A7
:10310000B348C16806F018FB204608F0C3FC05462A
:10311000B14B2A462146AE4806F0AFF9AE4B01222C
:10312000AEA1AB4806F0A9F9A94806F0F3FA9B480E
:10313000007864280EDA9949097801EBC101964AB2
:103140008818214608F082FC94480078401C934976
:10315000087002E0A2A008F0DDFA2146ACA008F059
:10316000D9FA04E09B480178ADA008F0D3FA00BF7B
:10317000AFE73EB50546002446E0285DC11700EBE9
:10318000117109110DF814101DF81400092806DD3D
:103190001DF814003730C0B20DF8140005E01DF81A
:1031A00014003030C0B20DF81400285DC11700EBD8
:1031B00011710911A0EB0111C9B2012202EB440205
:1031C0000DF80210012000EB44001DF80000092852
:1031D0000CDD012000EB44001DF800003730C0B2C8
:1031E000012101EB44010DF801000BE0012000EB8F
:1031F00044001DF800003030C0B2012101EB440151
:103200000DF80100601CC4B2042CB6DB00208DF860
:10321000080069468BA008F07DFA6846FFF74FFF6B
:103220003EBD10B546495220FFF760FE4549087083
:103230000846007830B9022008704348FFF71EFEA8
:10324000404908703F480078002877D102203D4966
:1032500008703D48FFF78DFF3B4800787C490978AE
:10326000884217D13848407879494978884211D145
:10327000354880787649897888420BD13248C078C1
:103280007349C978884205D101207249087072A03B
:1032900008F040FA2C48007875490978884217D11F
:1032A0002948407872494978884211D12648807867
:1032B0006F49897888420BD12348C0786C49C97816
:1032C000884205D101206B4908706BA008F022FAF2
:1032D0001D4800786E490978884217D11A4840780D
:1032E0006B494978884211D11748807868498978B4
:1032F00088420BD11448C0786549C978884205D105
:1033000001206449087064A008F004FA0E480078AF
:1033100067490978884212D10B4840786449497856
:1033200088420CD10848807861498978884206D162
:103330000548C0785E49C9788842BBE0E4E0C0E057
:1033400028000020640000202A00002063617264CD
:103350005F747970653A2025303258253032580034
:1033600054686520436172642049442069733A209F
:1033700025303258253032582530325825303258D1
:1033800000000000480000207815002065000020A3
:10339000660000206A000020E0190020750000206F
:1033A0004475706C69636174652049443A202573E3
:1033B0002C206E6F742073617665642E0D0A0000F8
:1033C000303A2F69645F6C6F672E74787400000068
:1033D000B817002074000020700000200A000000D0
:1033E00049442063616368652069732066756C6C6D
:1033F0002C206E6577204944732077696C6C206EB1
:103400006F74206265206361636865642E0D0A0035
:1034100049442073617665643A2025730D0A0000E3
:103420004661696C656420746F206F70656E206FF3
:1034300072206372656174652066696C653A202547
:10344000640D0A0049443E3E3E25730D0A0000000B
:10345000340000202E0000200D0A546865205573AA
:1034600065722069733A636172645F300D0A00000F
:10347000380000202F0000200D0A54686520557385
:1034800065722069733A636172645F310D0A0000EE
:103490003C000020300000200D0A54686520557360
:1034A00065722069733A636172645F320D0A0000CD
:1034B0004000002005D10120D0490870D0A008F0BC
:1034C00029F9D5480078D5490978884217D1D248DA
:1034D0004078D2494978884211D1CF488078CF4985
:1034E000897888420BD1CC48C078CC49C9788842C9
:1034F00005D10120CA490870CAA008F00BF9C648D6
:10350000FFF780FCCD490870CC48007850B9022004
:10351000CA490870C04BCA4A09216020FFF73BFC2A
:10352000C6490870C548007848B90220C3490870E8
:10353000C449C5480078FFF704FCC0490870BF487B
:10354000007828B90220BD490870642000F0D6FC3C
:1035500010BD10B51420FFF7F4FA044604F0030080
:1035600018B903211420FFF703FB10BD10B5044662
:10357000412C24D108210846FFF707FB3D211120EB
:10358000FFF7A6FA86211720FFF7A2FA7F2126204F
:10359000FFF79EFA1E212D20FFF79AFA00212C201A
:1035A000FFF796FA8D212A20FFF792FA3E212B2071
:1035B000FFF78EFA022000F059FCFFF7CAFF10BD9A
:1035C00010B51021A14800F0EFFE012000F04EFCE4
:1035D00010219E4800F0EAFE012000F047FC102177
:1035E0009A4800F0E1FE012000F040FC0F2101208C
:1035F000FFF76EFA00BF0120FFF7A3FA00F01000FA
:103600000028F8D1012000F031FC3D211120FFF706
:103610005FFA1E212D20FFF75BFA00212C20FFF717
:1036200057FA8D212A20FFF753FA3E212B20FFF76E
:103630004FFA40211520FFF74BFA10BD1CB50121B0
:10364000202001F0C1F91020009001208DF8040025
:1036500003208DF8050069467C4800F029FE022011
:10366000009001208DF8040003208DF805006946C4
:10367000764800F01DFE0820009000208DF8040020
:103680006946724800F014FE0420009001208DF875
:10369000040003208DF8050069466C4800F008FE20
:1036A000012000908DF8040003208DF80500694684
:1036B000664800F0FDFD1CBD10B5FFF7BFFF1021EF
:1036C000624800F071FE0121604800F06DFEFFF7D6
:1036D00077FF4120FFF74AFF10BD10B503211420EA
:1036E000FFF753FA10BDF0B587B006460F46A0208D
:1036F0008DF808008DF809600DF10A02022102A878
:10370000FFF7E9FA01A802AB042202A900900C20FD
:10371000FFF748FA054645B90198042805D19DF8F8
:10372000080000F00F000A2800D0022535BB102247
:10373000394602A808F0CDF9002404E0385D02A95A
:103740000855601CC4B2102CF8DB06AA102102A890
:10375000FFF7C1FA01A802AB122202A900900C20C7
:10376000FFF720FA054645B90198042805D19DF8D0
:10377000080000F00F000A2800D00225284607B0F4
:10378000F0BD00B587B050208DF8080000208DF8FE
:1037900009000DF10A02022102A8FFF79CFA01A814
:1037A00002AB042202A900900C20FFF7FBF90020D5
:1037B00007B000BDF8B504460D4617461E4600206A
:1037C000009069465220FFF791FB6846FFF756FBD1
:1037D0002046FFF717FB23462A4610216020FFF7FB
:1037E000DAFA27B131461020FFF7ABFA03E0314691
:1037F0001020FFF778FFFFF7C4FFF8BD310000206D
:103800000D0A54686520557365722069733A6361C7
:1038100072645F330D0A00002A000020440000207B
:10382000320000200D0A54686520557365722069C6
:10383000733A636172645F340D0A00006400002013
:103840004800002078150020650000200014024088
:103850001CB50121022001F0B7F84FF44070009030
:1038600001208DF804008DF8060003208DF8050076
:1038700001208DF807006946FE4800F019FD01227D
:103880001102FC4800F094FD01225102F94800F0B9
:103890008FFD1CBD10B501225102F64800F088FDD5
:1038A000022000F0E3FA01221102F24800F080FD4C
:1038B000022000F0DBFA00224FF40071ED4800F026
:1038C00077FD022000F0D2FA00224FF48071E9481F
:1038D00000F06EFD10BD10B500224FF40071E548F8
:1038E00000F066FD022000F0C1FA01221102E14859
:1038F00000F05EFD022000F0B9FA01225102DD481D
:1039000000F056FD10BD70B5054600241BE0802078
:10391000204100EA05024FF40071D64800F048FD4E
:10392000022000F0A3FA01221102D24800F040FD6B
:10393000022000F09BFA00224FF48071CD4800F085
:1039400037FD601CC4B2082CE1DB022000F08EFAC7
:1039500001221102C74800F02BFD022000F086FA78
:1039600000224FF48071C34800F022FD022000F0D5
:103970007DFA70BD10B50446FFF78CFF7820FFF785
:10398000C2FF0020FFF7BFFF2046FFF7BCFFFFF795
:10399000A2FF10BD10B50446FFF77CFF7820FFF7AB
:1039A000B2FF4020FFF7AFFF2046FFF7ACFFFFF765
:1039B00092FF10BD70B505460C4645F0B000FFF70C
:1039C000D9FF102141EA1410FFF7D4FF04F00F00D3
:1039D000FFF7D0FF70BD70B500240EE00021204637
:1039E000FFF7E8FF002504E00020FFF7D3FF681C85
:1039F000C5B2802DF8DB601CC4B2082CEEDB70BDB4
:103A00002DE9F04105460E461746721ED206110EEC
:103A10006A1E5206100EFFF7CDFF002409E0A7F141
:103A20002001954A02EB0111085DFFF7B3FF601C0E
:103A3000C4B2082CF3DB721ED206110E6A1E0123DB
:103A400003EB4202D0B2FFF7B5FF00240BE0A7F171
:103A50002001894A02EB011204F10801505CFFF7D2
:103A600099FF601CC4B2082CF1DBBDE8F0812DE9A0
:103A7000F04107460E461546002407E02A5D30193E
:103A8000C1B23846FFF7BCFF601CC4B2285D0028F5
:103A9000F4D1BDE8F08110B50246012000E05043AA
:103AA0000B1EA1F10101FAD110BD2DE9F0478046AE
:103AB0000E4617461D46002415E0281B411E0A200D
:103AC000FFF7E9FFB7FBF0F00A21B0FBF1F201FBD1
:103AD000120000F130093019C1B24A464046FFF7E2
:103AE0008FFF601CC4B2AC42E7DBBDE8F0872DE974
:103AF000F0478146884615461E46002D06DB2B22E0
:103B000041464846FFF77CFF2F4605E02D224146FF
:103B10004846FFF775FF6F42002417E0301B411E37
:103B20000A20FFF7B8FFB7FBF0F00A21B0FBF1F273
:103B300001FB120000F1300A08EB0400401CC1B286
:103B400052464846FFF75CFF601CC4B2B442E5DB56
:103B5000BDE8F0872DE9F04781460E4690461F46A6
:103B600000241DE0381B411E1020FFF794FFB8FB16
:103B7000F0F000F00F050A2D08DA05F13000C2B2AE
:103B80003019C1B24846FFF73BFF07E005F13700A7
:103B9000C2B23019C1B24846FFF732FF601CC4B24E
:103BA000BC42DFDBBDE8F0872DE9F04780460E46DA
:103BB00017461D46002412E0281B411E0220FFF775
:103BC0006AFFB7FBF0F000F0010000F13009301996
:103BD000C1B24A464046FFF713FF601CC4B2AC4274
:103BE000EADBBDE8F08770B5002406E0002500E0C0
:103BF0006D1CB5F57A7FFBD3641CB4F57A7FF5D3E1
:103C0000FFF726FEAE20FFF7B5FED520FFF7B2FE88
:103C10008020FFF7AFFEA820FFF7ACFE3F20FFF7A4
:103C2000A9FED320FFF7A6FE0020FFF7A3FE402049
:103C3000FFF7A0FEA120FFF79DFEC820FFF79AFE28
:103C4000DA20FFF797FE1220FFF794FE8120FFF79E
:103C500091FECF20FFF78EFED920FFF78BFEF120DB
:103C6000FFF788FEDB20FFF785FE3020FFF782FE9E
:103C7000A42003E000040240F8BE0008FFF77AFE2B
:103C8000A620FFF777FE8D20FFF774FE1420FFF7C4
:103C900071FEAF20FFF76EFEFFF79DFE70BD0000C6
:103CA00010B56248006820F440206049086008466A
:103CB000006840F48020086000205D4908601420FE
:103CC00000F01CF901205B49C1F8A4021E2000F09D
:103CD000CDF810BD10B500245448006820F44020F1
:103CE0005249086008460068086004E0601CC4B2DD
:103CF000012000F0BBF84E488038006808B1642C01
:103D0000F4DB642C01DB012010BD002404E0601C06
:103D1000C4B2012000F0AAF845488038006808B90C
:103D2000642CF4DB642C01DB0120EDE70020EBE7E1
:103D300010B5002404E0601CC4B2012000F096F825
:103D40003B488038006808B1642CF4DB002404E0B0
:103D5000601CC4B2012000F089F835488038006842
:103D600008B9642CF4DB282000F080F83048803853
:103D7000006808B1012010BD0020FCE770B50024E8
:103D8000002506E06006040EFFF7D2FF0443681C1E
:103D9000C5B2082DF6DB204670BD7CB505460E4643
:103DA000FFF77EFFFFF796FFF8B9002405E0FFF765
:103DB000E5FF0DF80400601CC4B2052CF7DB9DF88C
:103DC00000009DF8011008449DF8021008449DF879
:103DD000031008449DF80410884208D19DF80000A3
:103DE00030709DF80200287001E001207CBD0020A9
:103DF000FCE71CB50121402000F0E6FD4FF4007007
:103E0000009001208DF8040000208DF806000220AB
:103E10008DF8050001208DF807006946034800F081
:103E200047FAFFF73DFFFFF755FF1CBD00180240A2
:103E3000A40243420000434210B504466FF0040060
:103E400000F092F9E11704EB5171C1F3C701394A4F
:103E500011701046007800EB4001C1EBC0104FF626
:103E6000FF7101EAC0003449088010BD0146314AA3
:103E700012784A434FF0E0235A6100229A611A46B1
:103E8000126942F001021A6100BF4FF0E02210698E
:103E900000F001021AB100F48032002AF5D04FF090
:103EA000E022126922F001024FF0E0231A610022A1
:103EB0009A6170470146204A12884A434FF0E02336
:103EC0005A6100229A611A46126942F001021A618F
:103ED00000BF4FF0E022106900F001021AB100F4B7
:103EE0008032002AF5D04FF0E022126922F0010260
:103EF0004FF0E0231A6100229A61704770B50446C2
:103F00004FF4077094FBF0F0C6B24FF4077094FBC7
:103F1000F0F100FB114085B205E04FF40770FFF7A8
:103F2000C9FF701EC6B2002EF7D115B12846FFF7A3
:103F3000C1FF70BD760000207800002000BF7047F0
:103F400000BF4C4A128802F04002002AF9D0C2B2E7
:103F5000484B9A80704710B588B004460121084646
:103F600000F032FD0121102000F088FD0722092118
:103F7000414800F028FA07220A213F4800F023FABE
:103F80004FF4C060069002208DF81C008DF81D00D3
:103F900000208DF81E0001208DF81F0006A936486C
:103FA00000F086F902940020ADF80C00ADF80E0088
:103FB000ADF81000ADF814000C20ADF8120002A905
:103FC0002C4800F0BCFE01212A4800F040FF0122ED
:103FD00040F22551274800F0F0FF25208DF804001D
:103FE00003208DF805008DF8060001208DF80700EC
:103FF00001A800F06CF808B010BD10B540F22551D2
:104000001C4801F015F810B31A4800F04FFFC4B275
:104010001A48008800F40040C8B91848008800F425
:10402000804060B10A2C03D000201449088020E0B1
:104030001248008840F400401049088019E00D2C17
:1040400006D10E48008840F480400C49088010E0FA
:104050000A480088C0F30D0009490C54074800883D
:10406000401C0649088008460088C72801DD00205A
:10407000088010BD001001400000024080000020B8
:10408000641D00200948804709480047FEE7FEE715
:10409000FEE7FEE7FEE7FEE7FEE7FEE7FEE7FEE7F8
:1040A00004480549054A064B704700004D070008C3
:1040B0008901000800C8012000CE012000CA0120AB
:1040C00000CA012032490143324A1160704770B57D
:1040D000002100230F22C4781CB32E4C246804F462
:1040E000E064C4F5E064C4F30721C1F10404E3B261
:1040F0000A4144789C40E1B28478144021430C0783
:10410000210E254C05786155047804F01F05012423
:10411000AC4005786D11AD0005F1E025C5F8004112
:1041200009E0047804F01F050124AC401B4D06781B
:10413000761145F8264070BD194A0A400243154BD6
:104140001B1F1A60704739B1124A121D12680243D0
:10415000104B1B1D1A6006E00E4A121D12688243A6
:104160000C4B1B1D1A607047042808D14FF0E0214A
:10417000096941F004014FF0E022116107E04FF0BE
:10418000E021096921F004014FF0E022116170473C
:104190000000FA050CED00E000E400E080E100E042
:1041A00080FFFF1F10B504469848844208D10121C2
:1041B000084600F074FC0021012000F070FC76E05D
:1041C0009348844208D10121022000F068FC0021BC
:1041D000022000F064FC6AE08E48844208D101218C
:1041E000042000F05CFC0021042000F058FC5EE09C
:1041F0008948844208D10121082000F050FC0021A8
:10420000082000F04CFC52E08448844208D101218F
:10421000102000F044FC0021102000F040FC46E09B
:104220007F48844208D10121202000F038FC002181
:10423000202000F034FC3AE07A48844208D1012181
:10424000402000F02CFC0021402000F028FC2EE053
:104250007548844208D10121802000F020FC002113
:10426000802000F01CFC22E07048844208D101212B
:10427000801500F014FC0021A01500F010FC16E0E1
:104280006B48844208D10121401500F008FC002150
:10429000601500F004FC0AE06648844207D1012161
:1042A000001500F0FCFB0021201500F0F8FB10BD0C
:1042B000F0B50A4600210023002400BF3DE001259F
:1042C00005FA01F3156805EA03049C4234D1056838
:1042D0004F000326BE40B543056015794E00B5403A
:1042E0000668354305601579012D02D01579022D38
:1042F00016D185684F000326BE40B54385605579C9
:104300004E00B540866835438560456801268E407D
:10431000B5434560456896798E40B6B235434560F1
:10432000C5684F000326BE40B543C560D5794E0031
:10433000B540C6683543C560491C1029BFD3F0BDE0
:104340004FF6FF7101600021017141718171C171EE
:10435000704708B54FF480320092009A0A430092E9
:10436000009AC261C161009AC261C2690092C269C9
:10437000009208BD0246002013690B400BB10120DA
:1043800000E0002070470146086980B2704702468D
:10439000002053690B400BB1012000E00020704762
:1043A0000146486980B27047018370474183704776
:1043B0000AB1018300E0418370474161704742695F
:1043C0004A4042617047F0B5002300244D07ED0ECE
:1043D00002FA05F3CE1000F1200555F826504E07DD
:1043E000F70E0F26BE40B543CF1000F1200646F869
:1043F0002750CE1000F1200555F8265045EA030459
:10440000CE1000F1200545F82640F0BD0000024026
:104410000004024000080240000C0240001002406C
:104420000014024000180240001C0240002002401C
:10443000002402400028024010B50121C80200F00B
:1044400072FB00214FF4006000F06DFB10BD0021F5
:104450006C4A116847F6FF629143027D83681A43F4
:1044600043681A43C3681A4303681A4303691A432B
:104470001143644A11607047002101750160416079
:104480008160C160016170475F49086070475D49A4
:10449000091F086070475B48001F006800F00300B8
:1044A00070470021574B1B1D02681A601A1D1168C6
:1044B0006FF30A01D0E901231A43C3681A43036961
:1044C0001A4311434F4A08321160704700210160BE
:1044D00041608160C160016170474A480C300068EA
:1044E000C0B2704708B50146002000904548103022
:1044F000084400900098006808BD0021414B20331B
:1045000002681A601B1D42681A601A1D116821F0AA
:10451000F701D0E902231A4303691A4343691A4396
:104520001143384A2832116070474FF0FF31016063
:10453000002141608160C160016141617047314883
:104540002C30006870472F487C30006870472D4938
:104550007C31086070472B484430006870472B4915
:10456000086070472949091D0860704727490831CC
:104570000860704725490C3108607047244908607D
:1045800070472349091D0860704701218143204A73
:104590000832116070471E490C31086070471B4992
:1045A00014390860704739B1164A3832126802432C
:1045B000144B38331A6006E0124A383212688243CC
:1045C000104B38331A607047014600200D4A3032D4
:1045D00012680A400AB1012000E000207047094932
:1045E00034310860704701460020064A30321268B4
:1045F0000A400AB1012000E000207047014934312F
:1046000008607047042C0140A0802542A085254207
:10461000AC812542F948006840F00100F749086084
:104620000020F64908310860F4480068F449084061
:10463000F2490860F348091D0860F348EF498431E6
:104640000860F0481038091D0860EC48006820F444
:104650008020EA4908600020E8490C310860E749F9
:104660008C31086070470021E44A921C1170114699
:104670000870704710B501460022002300204A113F
:10468000012A02D1DD4C236808E0022A03D1DB4C69
:104690007034236802E0D94C7434236801F01F029F
:1046A000012494401C400CB1012000E0002010BD0A
:1046B00038B5002000900024002500BF3120FFF70E
:1046C000D9FF05460098401C00900098B0F5A04F17
:1046D00001D0002DF2D03120FFF7CCFF08B101242A
:1046E00000E00024204638BD01460020C34A10687F
:1046F00020F0F80040EAC10010607047C34908602C
:1047000070470021BD4A703211701170012802D02B
:1047100004280AD104E00121B84A7032117005E082
:104720000521B64A7032117000E000BF00BF70472B
:10473000B7490860704770B5049C41EA82150126AC
:10474000C6EB530645EA0645054345EA0465AB4E0C
:10475000361D356070BDAD4908667047820142EA7A
:104760000172A64B84331A607047A8498866704767
:1047700010B5830143EA016343EA02739F4C883416
:10478000236010BDA14908677047A049C8647047FD
:1047900002460020994B0833186820F0EC6042EA8A
:1047A00001031843954B08331860704702460020F8
:1047B000924B0833186820F0784042EA010318430E
:1047C0008E4B083318607047014600208B4A083230
:1047D000106820F0030008431060704787480830D5
:1047E000006800F00C00704701460020834A083240
:1047F000106820F0F0000843106070470146002068
:104800007E4A0832106820F4E05008431060704778
:1048100001460020794A0832106820F4604040EADE
:10482000C10010607047F0B500210022002402256D
:1048300000260223714F08373F6807F00C0121B1B1
:10484000042905D0082937D105E0724F076036E00A
:10485000714F076033E0694F3F1D3F68C7F38056D3
:10486000664F3F1D3F6807F03F036EB16A4FB7FBCD
:10487000F3F7DFF888C10CF1040CDCF800C0CCF3CE
:10488000881C07FB0CF40CE0624FB7FBF3F7DFF872
:104890006CC10CF1040CDCF800C0CCF3881C07FBE5
:1048A0000CF4564F3F1D3F68C7F301477F1C7D0046
:1048B000B4FBF5F7076002E0564F076000BF00BF8A
:1048C0004E4F08373F6807F0F0010909534F7A5CF3
:1048D0000768D7404760494F08373F6807F4E05101
:1048E000890A4E4F7A5C4768D7408760434F083744
:1048F0003F6807F46041490B484F7A5C4768D740EE
:10490000C760F0BD002100F44072B2F5407F0AD1CB
:104910003A4A0832116821F4F811414A0240114321
:10492000364A08321160354A70321268C0F30B0300
:104930001A43324B70331A60704735494439086066
:1049400070473349403908607047364908607047FE
:1049500001460020294A8C32106820F01F004A1EB0
:104960001043264A8C321060704701460020234ACB
:104970008C32106820F4F8504A1E40EA02201F4A88
:104980008C3210607047014600201C4A8C3210683F
:1049900020F4401008431060704701460020174A79
:1049A0008C32106820F440000843106070470146C4
:1049B0000020124A8C32106820F440300843106006
:1049C000704719490860704739B10C4A3032126893
:1049D00002430A4B30331A6006E0084A303212684C
:1049E0008243064B30331A607047F9B1034A3432C0
:1049F00012680243014B34331A601CE00038024055
:104A0000FFFFF6EA1030002400300020000047428B
:104A1000800E47420024F40000127A008200002039
:104A2000FFFCFF0F5C014742E01147428F4A1268CA
:104A300082438E4B1A60704739B18C4A121D12683E
:104A400002438A4B1B1D1A6006E0884A121D126839
:104A50008243864B1B1D1A60704739B1834A0C3262
:104A600012680243814B0C331A6006E07F4A0C3215
:104A7000126882437D4B0C331A60704739B17B4A10
:104A8000103212680243794B10331A6006E0774AFD
:104A9000103212688243754B10331A60704739B177
:104AA000724A243A12680243704B243B1A6006E0B3
:104AB0006E4A243A126882436C4B243B1A6070475A
:104AC00039B16A4A203A12680243684B203B1A60A7
:104AD00006E0664A203A12688243644B203B1A6023
:104AE000704739B1614A1C3A126802435F4B1C3B64
:104AF0001A6006E05D4A1C3A126882435B4B1C3B1D
:104B00001A60704739B1594A143A12680243574B38
:104B1000143B1A6006E0554A143A12688243534B1C
:104B2000143B1A60704739B1504A103A1268024378
:104B30004E4B103B1A6006E04C4A103A1268824312
:104B40004A4B103B1A60704739B1484A1C32126810
:104B50000243464B1C331A6006E0444A1C3212687A
:104B60008243424B1C331A60704739B13F4A2032AE
:104B7000126802433D4B20331A6006E03B4A203264
:104B800012688243394B20331A60704739B1374A73
:104B9000243212680243354B24331A6006E0334A4C
:104BA000243212688243314B24331A60704739B182
:104BB0002E4A2C32126802432C4B2C331A6006E02A
:104BC0002A4A2C3212688243284B2C331A607047D1
:104BD00039B1264A303212680243244B30331A600E
:104BE00006E0224A303212688243204B30331A608A
:104BF0007047012808D11D493C31096841F008017E
:104C00001A4A3C32116007E018493C31096821F02A
:104C10000801164A3C321160704739B1134A273AED
:104C200012780243114B273B1A7006E00F4A273ACD
:104C3000127882430D4B273B1A7070470B48403067
:104C4000006840F0807009494031086070470146B3
:104C50000020064A283A12680A400AB1012000E002
:104C600000207047014926390870704734380240E7
:104C700010B50446FA48844208D101211020FFF7FC
:104C800052FF00211020FFF74EFF57E0F548844205
:104C900009D101214804FFF735FF00214FF400300E
:104CA000FFF730FF4AE0F048844209D1012188042F
:104CB000FFF728FF00214FF48020FFF723FF3DE09E
:104CC000EA48844209D10121C804FFF71BFF0021F3
:104CD0004FF40020FFF716FF30E0E548844209D189
:104CE00001210805FFF70EFF00214FF48010FFF7A8
:104CF00009FF23E0DF48844208D101212020FFF78B
:104D000012FF00212020FFF70EFF17E0DA4884424F
:104D100009D101218807FFF7F5FE00214FF08040FF
:104D2000FFF7F0FE0AE0D548844207D10121400593
:104D3000FFF7E8FE00216005FFF7E4FE10BD2DE956
:104D4000FF4705460E460024A14600BFA046B08995
:104D500000B100BF2C8A24F44054F08804432C8214
:104D6000AC8941F20C608443B08831890843718971
:104D700008430443AC81AC8A24F44074B0890443F2
:104D8000AC826846FFF74FFDB548854202D0B9486E
:104D9000854202D1DDF80C9001E0DDF80890A88989
:104DA00000F4004040B109EBC90000EB0910316884
:104DB0004900B0FBF1F707E009EBC90000EB09106F
:104DC00031688900B0FBF1F76420B7FBF0F0040113
:104DD0002009642101FB1078A88900F4004040B14B
:104DE000322000EBC800B0FBF1F000F007000443F4
:104DF00008E0322000EB08106421B0FBF1F000F075
:104E00000F0004432C81BDE8FF874FF41651016069
:104E100000218180C18001810C214181002181819B
:104E2000704710B502460020108A20F470600B888D
:104E30004C8823438C882343CC8823431843108217
:104E400010BD0021018041808180C180704721B167
:104E5000828942F40052828104E082894DF6FF7318
:104E60001A4082817047028B02F47F420283028BD8
:104E70000A430283704721B1828942F40042828151
:104E800003E08289C2F30E028281704721B1828AD7
:104E900042F40062828204E0828A4FF2FF731A4079
:104EA00082827047C1F30802828070470146888879
:104EB000C0F308007047028A4FF6F0731A4002826E
:104EC000028A0A430282704721B1828942F00202BB
:104ED000828104E082894FF6FD731A408281704717
:104EE00082894FF2FF731A40828182890A4382814C
:104EF0007047028A4FF6DF731A400282028A0A4321
:104F00000282704721B1028A42F48042028204E0A8
:104F1000028A4BF6FF731A4002827047818941F082
:104F200001018181704721B1828A42F008028282A8
:104F300004E0828A4FF6F7731A4082827047028B30
:104F4000D2B20283028B42EA01220283704721B16E
:104F5000828A42F02002828204E0828A4FF6DF7366
:104F60001A408282704721B1828A42F01002828206
:104F700004E0828A4FF6EF731A4082827047828A79
:104F80004FF6FB731A408282828A0A4382827047FC
:104F900021B1828A42F00202828204E0828A4FF6C4
:104FA000FD731A40828270471AB1838A0B43838251
:104FB00002E0838A8B4383827047F0B50346002466
:104FC00000260025002040F66A17B94200D100BF34
:104FD0001846C1F3421401F01F06012707FA06F52F
:104FE000012C01D10C3004E0022C01D1103000E082
:104FF00014301AB107682F43076002E00768AF4317
:105000000760F0BD02460020B1F5007F00D100BF6F
:1050100013880B400BB1012000E00020704701F421
:105020000072B2F5007F00D100BFCA430280704712
:1050300070B50246002400230025002040F66A16C1
:10504000B14200D100BFC1F3421501F01F03012698
:1050500006FA03F3012D13D19689334017E00000BF
:10506000001001400044004000480040004C004057
:10507000005000400014014000780040007C0040D7
:10508000022D02D1168A334001E0968A33400C1279
:10509000012606FA04F41688344013B10CB101203D
:1050A00000E0002070BD10B50022002340F66A1415
:1050B000A14200D100BF0A1201249440A3B2DC43F4
:1050C000048010BD016821F0010101600021016030
:1050D00041608160C160016121214161DB498842F9
:1050E00004D13D21D94A103A91608CE0D74918315A
:1050F000884205D14FF47461D44A103A916082E03D
:10510000D2493031884205D14FF47411CF4A103A58
:10511000916078E0CD494831884205D14FF0746103
:10512000CA4A103A91606EE0C8496031884204D1A1
:10513000C749C64A103AD16065E0C449783188420F
:1051400004D1C449C14A103AD1605CE0BF499031F2
:10515000884204D1C049BD4A103AD16053E0BB49EE
:10516000A831884205D14FF03D51B84A103AD1607C
:1051700049E0BA49884204D13D21B84A083A116051
:1051800041E0B6491831884205D14FF47461B34A01
:10519000083A116037E0B1493031884205D14FF407
:1051A0007411AE4A083A11602DE0AC49483188428A
:1051B00005D14FF07461A94A083A116023E0A7496C
:1051C0006031884204D1A249A44A121F11601AE03A
:1051D000A2497831884204D19E49A04A121F116029
:1051E00011E09E499031884204D19B499B4A121F8D
:1051F000116008E09949A831884204D14FF03D512F
:10520000964A121F1160704710B500220268944B35
:105210001A40CC680B6823434C6923438C692343B1
:10522000CC6923430C6A23434C6A23438C6A23438F
:105230004C6B23438C6B23431A430260426922F078
:105240000702D1E90B3423431A4342610B694360DF
:105250004B6883608B68C36010BD002101604160B2
:105260008160C160016141618161C161016241622E
:105270008162C162016341638163704721B1026849
:1052800042F00102026003E0026822F001020260C3
:10529000704721B1026842F40042026003E00268F4
:1052A00022F400420260704721B1026842F02002FD
:1052B000026003E0026822F0200202607047416051
:1052C00070470146486880B2704722B1036843F4D2
:1052D0000023036003E0036823F4002303600161FB
:1052E000704721B1026842F48022026003E0026844
:1052F00022F48022026070470AB1016100E0C160BF
:105300007047014600200A6802F400220AB1012019
:1053100000E000207047014600200A6802F0010208
:105320000AB1012000E000207047014600204A69D0
:1053300002F03800704730B503460A4600200024CA
:10534000464DAB4202D24149103901E04349103980
:1053500002F000550DB14C6800E00C68414D2C4046
:1053600004EA02050DB1012000E0002030BD024634
:105370003A4B9A4202D23548103801E0374810388B
:1053800001F000531BB1374B0B40C36002E0354BBB
:105390000B408360704710B501F080034BB122B120
:1053A000436943F08003436103E0436923F08003D2
:1053B000436180290BD02AB1036801F01E04234306
:1053C000036004E0036801F01E04A343036010BD02
:1053D00070B50246002000240025204EB24202D2C1
:1053E0001A4B103B01E01D4B103B1F4E0E4036B1D7
:1053F0001E2606EAD124166806EA040502E056696C
:1054000006F0800501F000560EB15C6800E01C68F3
:10541000144E344004EA010616B10DB1012000E03B
:10542000002070BD02460D4B9A4202D20748103848
:1054300001E00A48103801F000531BB1094B0B4042
:10544000C36002E0074B0B4083607047106002406E
:105450003D000020400F002000003D20106402406D
:105460003F801CF07D0F7D0F3C0F3C0F10B50446B4
:10547000FE48844208D101210846FFF754FB002171
:105480000120FFF750FB9DE0B4F1804F08D10121CE
:105490000846FFF737FB00210120FFF733FB91E0BF
:1054A000F348844208D101210220FFF72BFB0021A1
:1054B0000220FFF727FB85E0EE48844208D1012156
:1054C0000420FFF71FFB00210420FFF71BFB79E0FE
:1054D000E948844208D101210820FFF713FB00218D
:1054E0000820FFF70FFB6DE0E448844208D101215A
:1054F0001020FFF707FB00211020FFF703FB61E0FE
:10550000DF48844208D101212020FFF7FBFA002167
:105510002020FFF7F7FA55E0DA48844208D101214C
:105520000220FFF700FB00210220FFF7FCFA49E010
:10553000D548844209D101210804FFF7F4FA00217B
:105540004FF48030FFF7EFFA3CE0D048844209D1B5
:1055500001214804FFF7E7FA00214FF40030FFF77C
:10556000E2FA2FE0CA48844209D101218804FFF7FA
:10557000DAFA00214FF48020FFF7D5FA22E0C5487F
:10558000844208D101214020FFF7BCFA00214020CD
:10559000FFF7B8FA16E0C048844208D10121802004
:1055A000FFF7B0FA00218020FFF7ACFA0AE0BB4811
:1055B000844207D101218015FFF7A4FA0021A0152C
:1055C000FFF7A0FA10BD00220288A84B98420ED027
:1055D000AC4B98420BD0B0F1804F08D0A44B98420E
:1055E00005D0A44B984202D0A34B984204D14FF669
:1055F0008F731A404B881A43A04B984207D0A04B98
:10560000984204D04FF6FF431A400B891A43028098
:105610004B68C3620B880385944B984202D0994B28
:10562000984201D18B7A03860123838270474FF021
:10563000FF3141600021018001814180817270470A
:105640000185828270470A46002101884FF68F73D8
:10565000194011430180704741627047C162704731
:105660000146486A70470146088D704721B102889B
:1056700042F00202028004E002884FF6FD731A40F5
:105680000280704721B1028842F00402028004E0E7
:1056900002884FF6FB731A400280704721B10288DE
:1056A00042F08002028004E002884FF67F731A40C5
:1056B0000280704702884FF6F7731A400280028812
:1056C0000A430280704702884FF6FF431A40028067
:1056D00002880A430280704721B1028842F0010229
:1056E000028004E002884FF6FE731A400280704781
:1056F00070B5002400220023058C4FF6FE7635405D
:105700000584028C8388048B4FF68F752C40B51E60
:105710002C400D882C43751E2A408D892A434D88C4
:105720002A43524DA84202D0564DA84213D14FF6FB
:10573000F7752A40CD892A434FF6FB752A408D889C
:105740002A434FF6FF652B404FF6FF552B400D8A3D
:105750002B434D8A2B43838004838D6845630284E9
:1057600070BD70B5002400220023058C4FF6EF7643
:1057700035400584028C8388048B48F6FF752C40E5
:105780004FF6FF452C400D884FF6FF7606EA0525BB
:105790002C434FF6DF752A408D8906EA05152A430A
:1057A0004D8806EA05152A43304DA84202D0354DF2
:1057B000A8421DD14FF67F752A40CD894FF6FF765E
:1057C00006EA05152A434FF6BF752A408D8806EA7A
:1057D00005152A434FF6FF352B404FF2FF752B403E
:1057E0000D8A06EA85052B434D8A06EA85052B437B
:1057F000838004838D688563028470BD70B5002446
:1058000000220023058C4FF6FF6635400584028C8C
:105810008388848B4FF68F752C404FF6FC752C4097
:105820000D882C434FF6FF552A408D894FF6FF76A1
:1058300006EA05252A434D8806EA05252A430B4D2D
:10584000A84202D00F4DA84238D14FF2FF752A402E
:10585000CD894FF6FF7606EA05252A434FF6FF3538
:105860002A408D8806EA05252A4319E000000140F8
:105870000004004000080040000C00400010004000
:105880000014004000040140004001400044014079
:105890000048014000180040001C0040002000406B
:1058A0004EF6FF752B404DF6FF752B400D8A06EA2C
:1058B00005152B434D8A06EA05152B438380848307
:1058C0008D68C563028470BD70B50022002300247A
:1058D000058C4EF6FF7635400584038C8488828BD8
:1058E00048F6FF752A404FF6FF452A400D884FF6CF
:1058F000FF7606EA05252A434DF6FF752B408D8974
:1059000006EA05352B434D8806EA05352B43FE4D47
:10591000A84202D0FD4DA84208D14BF6FF752C409D
:105920000D8A4FF6FF7606EA85152C438480828324
:105930008D680564038470BD0021018041808180F1
:1059400081608181C18101824182704770B50346C7
:10595000002000241846183001258D40ACB21D8C63
:10596000A5431D8409B108290AD100EB610005682F
:105970004FF68F76354005600568154305600FE0EA
:105980000D1FC5F34E052844056848F6FF763540DF
:10599000056005684FF6FF7606EA02263543056086
:1059A00070BD4163704781637047C1637047016494
:1059B00070470A460021018B4FF68F73194011433F
:1059C000018370470A460021018B48F6FF73194096
:1059D0004FF6FF7303EA02231943018370470A4617
:1059E0000021818B4FF68F731940114381837047DB
:1059F0000A460021818B48F6FF7319404FF6FF736A
:105A000003EA02231943818370470A460021018B70
:105A10004FF6F77319401143018370470A4600217E
:105A2000018B4FF2FF7319404FF6FF7303EA022315
:105A30001943018370470A460021818B4FF6F773A3
:105A400019401143818370470A460021818B4FF230
:105A5000FF7319404FF6FF7303EA02231943818352
:105A600070470A460021018B4FF6FB731940114322
:105A7000018370470A460021018B4FF6FF3319401E
:105A80004FF6FF7303EA02231943018370470A4666
:105A90000021818B4FF6FB731940114381837047BE
:105AA0000A460021818B4FF6FF3319404FF6FF73F2
:105AB00003EA02231943818370470A460021018BC0
:105AC0004FF67F7319401143018370470A46002146
:105AD000018BC1F30E014FF6FF7303EA0223194352
