:020000040800F2
:1000000028C60120A9020008D74E00085721000881
:10001000D54E0008E5090008C56200080000000090
:10002000000000000000000000000000855C0008E7
:10003000E709000800000000D94E00081D5D000817
:10004000C3020008C3020008C3020008C30200087C
:10005000C3020008C3020008C3020008C30200086C
:10006000C3020008C3020008C3020008C30200085C
:10007000C3020008C3020008C3020008C30200084C
:10008000C3020008C3020008C3020008C30200083C
:10009000C3020008C3020008C3020008C30200082C
:1000A000C3020008C3020008C3020008C30200081C
:1000B000C3020008C3020008755D0008C3020008FF
:1000C000C3020008C3020008C3020008C3020008FC
:1000D000C302000899620008C3020008C3020008B6
:1000E000C3020008C3020008C3020008C3020008DC
:1000F000C3020008C3020008C3020008C3020008CC
:10010000C3020008C3020008C3020008C3020008BB
:10011000C3020008C3020008C3020008C3020008AB
:10012000C3020008C3020008C3020008C30200089B
:10013000C3020008C3020008C3020008C30200088B
:10014000C3020008C3020008C3020008C30200087B
:10015000C3020008C3020008C3020008C30200086B
:10016000C3020008C3020008C3020008C30200085B
:10017000C3020008C3020008C30200080000000018
:10018000C3020008C302000800F002F800F075F88E
:100190000AA090E8000C82448344AAF10107DA45E2
:1001A00001D100F06AF8AFF2090EBAE80F0013F0BF
:1001B000010F18BFFB1A43F001031847D0B5030025
:1001C000F0B503000A444FF0000C10F8013B13F0A7
:1001D000070408BF10F8014B1D1108BF10F8015BA0
:1001E000641E05D010F8016B641E01F8016BF9D193
:1001F00013F0080F1EBF10F8014BAD1C0C1B09D1EA
:100200006D1E58BF01F801CBFAD505E014F8016B5B
:1002100001F8016B6D1EF9D59142D6D370470000ED
:100220000023002400250026103A28BF78C1FBD8FF
:10023000520728BF30C148BF0B60704703681B0AD4
:1002400028BF41F08001642900F02281752900F067
:100250001F81782900F09681E42900F055816329F7
:1002600000F05383732900F05883002070471FB5B6
:100270000BF050FF1FBD10B510BD00F081FB114603
:10028000FFF7F5FF09F09EFB00F09FFB03B4FFF7BB
:10029000F2FF03BC06F0FFF930BF72B6704762B6DA
:1002A000704780F30888704709488047094800472D
:1002B000FEE7FEE7FEE7FEE7FEE7FEE7FEE7FEE716
:1002C000FEE7FEE704480549054A064B7047000073
:1002D000215D00088901000828C0012028C60120EE
:1002E00028C2012028C20120704753EA020C00F006
:1002F00069802DE9F04B4FF00006002B1FBFB3FAC9
:1003000083F503FA05F424FA05F65E4012BF16439E
:10031000B2FA82F502FA05F4C5F120051EBF22FAF1
:1003200005FC44EA0C04203556EA044C4FEA144418
:1003300018BF641C4FF000084FF00009904271EBA9
:10034000030C39D3002919BFB1FA81F701FA07F676
:10035000B0FA80F700FA07F6C7F120071EBF20FAAF
:1003600007FC46EA0C062037B6FBF4FCA7EB0507B2
:10037000103F07F01F0BCBF120060CFA0BFB2CFAF9
:1003800006F644BFB3460026202FA4BF5E464FF0BA
:10039000000B5BEA060C08BF4FF0010B19EB0B09D1
:1003A000ABFB027C48EB0608C01B06FB02CC0BFB38
:1003B00003CC71EB0C01C1E70B46024641464846AF
:1003C000BDE8F08B13B54FF000004FF00001AFF324
:1003D0000080BDE81C4070470FB4044910B503AA63
:1003E000029800F09FFA10BC5DF814FB1800002082
:1003F00070B5044685690068C10601D5302600E065
:100400002026C00707D070BDD4E9012130469047AF
:10041000206A401C20626D1EF6D570BD70B5044682
:1004200085690078C00707D170BDD4E9012120207B
:100430009047206A401C20626D1EF6D570BD70B5D5
:100440000C460546012A05D02878800600D5EA69C1
:10045000002302E0012305E05B1C934202D2E05C32
:100460000028F9D1A869E618C01AA861286A1844BA
:1004700028622846FFF7BCFF04E0D5E9012114F803
:10048000010B9047B442F8D32846FFF7C7FF70BD71
:100490002DE9F0410646002410687529314616A55D
:1004A00010D0AFF30080002802DA404213A507E025
:1004B00031688A0701D512A502E0490704D511A5C4
:1004C000012401E0AFF3008000210A2206F1240795
:1004D00009E0B0FBF2FCB0FBF2F302FB1C00303091
:1004E00078541846491C0028F3D123462A46304642
:1004F000BDE8F04100F0A6B9000000002D000000AA
:100500002B000000200000002DE9F0418046D21DA4
:1005100022F007020025D2E90002F52915A614D021
:10052000011E72F1000106DA0023D0EB030063EB39
:10053000020211A608E0D8F800108B0701D50FA61B
:1005400002E0490701D50EA601251146002408F155
:10055000240704E000F031F930323A55641C50EAC7
:100560000102F7D12B46324621464046BDE8F04114
:1005700000F068B9000000002D0000002B00000012
:100580002000000070B504460D4621461068AFF308
:1005900000802188090502D50F4A7A4402E00E4AFC
:1005A0007A440E32002104F1240305E000F00F0626
:1005B0000009965D5E54491C0028F7D1207800237D
:1005C000000704D5702D02D009B102231132204654
:1005D000BDE8704000F036B9FEAE03002DE9F05FD3
:1005E000894604464FF0000ADFF874B1FB44C0F8B6
:1005F00020A02046E1688847002874D0252806D02E
:10060000D4E901219047206A401C2062F1E70026CE
:100610005F462046E16888472028054607DB312DE4
:1006200005D2781910F8200C08B10643F1E7B0079D
:1006300001D526F00406C4F81CA00027C4F818A0B1
:100640002A2D09D0284606F01FF838B304EB870896
:10065000303DC8F8185019E059F8041B204604EB47
:1006600087029161E1688847012F054618D1E0694A
:10067000002820DA26F020061DE0D8F8180000EB4C
:10068000800005EB40003038C8F818002046E168CB
:100690008847054605F0F8FF0028EED1012F0AD063
:1006A0002E2D08D12046E16888477F1C0546022F81
:1006B00046F02006C4DBA069002803DA404246F079
:1006C0000106A061F00701D026F010066C2D0BD0BA
:1006D000682D09D04C2D39D06A2D35D0742D35D0E8
:1006E0007A2D33D016E038E0E1682F46204688475F
:1006F000B842054609D16C2F26D04FF48060E168DE
:10070000064320468847054604E06C2F1AD04FF474
:10071000807006430DB3A5F14100192802D8203599
:1007200046F400664A462946204626604E46FFF7B4
:1007300085FD80B101280BD0F61D26F0070000F1E1
:10074000080956E74020E4E78020D8E70020D6E7F4
:1007500006F104094DE7284652E7206ABDE8F09FFC
:10076000D4AE03004FF0000200B5134694469646FF
:10077000203922BFA0E80C50A0E80C50B1F12001B4
:10078000BFF4F7AF090728BFA0E80C5048BF0CC062
:100790005DF804EB890028BF40F8042B08BF7047C0
:1007A00048BF20F8022B11F0804F18BF00F8012B32
:1007B0007047704770477047704730B5B0F10A0214
:1007C0004FEA900E71F100034EEA817EB0EB0E000D
:1007D00061EB91014FEA101E4EEA017E10EB0E0014
:1007E00041EB11114FEA102E4EEA016E10EB0E0094
:1007F00041EB11214FEA104E4EEA014E10EB0E0074
:1008000041EB1141401841F100014FEAD00040EAAC
:1008100041704FEAD10110EB80054FEA810444EAB0
:10082000907444EB01046D1944EB0404521BA34182
:100830004FF0000348BF0A3200D530BD401C41F1E3
:10084000000130BD2DE9F0470D4699469246044619
:1008500000F124080168880604D5E06921F0100140
:10086000216000E00120A84201DD471B00E00027D5
:10087000A1697A1902EB0900081AA0612078C00664
:1008800002D42046FFF7B4FD002608E0D4E9012198
:100890001AF806009047206A401C761C20624E45DC
:1008A000F4DB2078C0060AD52046FFF7A1FD06E05C
:1008B000D4E9012130209047206A401C2062381E74
:1008C000A7F10107F4DC07E0D4E9012118F80500DD
:1008D0009047206A401C2062281EA5F10105F3DC28
:1008E0002046FFF79BFD2078000602D50220BDE8D8
:1008F000F0870120FBE710B5436913B1AFF3008027
:1009000001E0FFF79CFD012010BD127800F12401E9
:100910000A7000224A700122EDE711684FF0FF32A1
:10092000E9E70000074B70B50D467B4400F011F875
:100930000446284600F020F810B14FF0FF3070BD9B
:10094000204670BD838B000001694A1C0261087853
:10095000704700B58FB0CDE90131002105910549FF
:100960007944CDE9031011466846FFF737FE0FB012
:1009700000BD0000E5FFFFFF007B00F08000704736
:10098000754600F02BF8AE4605006946534620F048
:100990000700854618B020B5FFF794FCBDE820405D
:1009A0004FF000064FF000074FF000084FF0000B2B
:1009B00021F00701AC46ACE8C009ACE8C009ACE8DE
:1009C000C009ACE8C0098D46704710B50446AFF3C6
:1009D00000802046BDE81040FFF758BC0048704733
:1009E000C8BF0120FEE7704770B5B3F5804F05D052
:1009F0006FF0704140F82210002070BD50F8223096
:100A0000084C2340D1E9004544EA05148D688E89DD
:100A10002D0245EA064589692C430C431C4340F8E6
:100A20002240E9E70000F0CFF0B50C6850F8245000
:100A3000114A1540D1E90123D1E903671A433E4326
:100A400032434E6932438E693243CE6932430E6A75
:100A500032434E6A32438E6A3243CE6A3243CE6BA1
:100A6000096B32430A432A43082B01D142F040026A
:100A700040F824200020F0BD8000F0FF30B500EBEE
:100A800082004268D1E9003443EA04138C688D89FE
:100A9000240244EA054423430C8A084D02F04042F4
:100AA00005EB045423430C7D6D0105EB0464896957
:100AB00023430B4313434360002030BD0000F0FF8D
:100AC00090F83510022903D080214165012070473C
:100AD000052180F835100068016821F001010160EE
:100AE0000020704770B5044600F0FAF80546601C17
:100AF00002D004480078044400F0F2F8401BA04201
:100B0000FAD370BD040000202DE9F84FDFF88C9176
:100B1000002209F1040A0AF1040B4FF00F080BF14F
:100B2000040E01260B6896403340B34271D14C68E5
:100B3000022C01D0122C11D1D40800EB84073D6A9D
:100B40005407E40E08FA04FC25EA0C05D1F810C09D
:100B50000CFA04FC4CEA050CC7F820C007685400E6
:100B6000032591F804C0A5400CF0030CAF430CFA28
:100B700004FC4CEA070CC0F800C04F68012F05D0F8
:100B8000022F03D0112F01D0122F11D18768D1F875
:100B90000CC0AF430CFA04FC4CEA070CC0F808C0C8
:100BA0004768B7430E79C6F3001696403E43466049
:100BB000C668AE438D68A5403543C5604C68E40007
:100BC00065D5374C256845F480452560246822F0BA
:100BD000030504F480440094324C2E19D6F80878AA
:100BE0009407250F08FA05F4A7432F4CA04201D122
:100BF000002424E02D4CA04201D101241FE02C4C04
:100C0000A04201D102241AE02A4CA04202D10324BE
:100C100015E03CE0284CA04201D104240FE0274C11
:100C2000A04201D105240AE0254CA04201D10624AE
:100C300005E0244CA04201D1072400E00824AC4088
:100C40003C43C6F80848D9F800404D464E689C43DE
:100C5000F60300D51C432C60DAF8004055464E6878
:100C60009C43B60300D51C432C60DBF800405D4676
:100C70004E689C43F60200D51C432C60DEF8004011
:100C800075464E689C43B60200D51C432C60521C2E
:100C9000102AFFF446AFBDE8F88F0000003C014089
:100CA000443802400030014000000240000402408D
:100CB00000080240000C02400010024000140240F4
:100CC00000180240001C02400AB18161704709040B
:100CD000FBE7000001480068000C7047002004E0BA
:100CE00001488068704700000400002002488168C5
:100CF000027811448160704704000020094810B553
:100D0000016841F400710160016841F48061016093
:100D1000052000F057F80F2000F006F800F024F846
:100D2000002010BD003C024070B50D4D04464FF44C
:100D30007A712878B1FBF0F00A490968B1FBF0F04C
:100D400001F072F848B9102C07D200222146501E3B
:100D500000F018F800206C6070BD012070BD00002C
:100D600004000020000000207047002809DB00F08C
:100D70001F02012191404009800000F1E020C0F8ED
:100D800000117047F0B40E4B1B68C3F30223C3F18C
:100D90000704042C00D904241D1D072D01D20023B3
:100DA00000E0DB1E012606FA04F56D1E0D409D4095
:100DB0009E40761E164045EA0601F0BC05F054BC84
:100DC0000CED00E0064A00F0070110684FF6FF0343
:100DD000184040EA012003490843106070470000B2
:100DE0000CED00E00000FA052DE9F0470D46040087
:100DF00065D0DFF81491D9F80000EFB200F00F00D1
:100E0000A84207D289F80070D9F8000000F00F005E
:100E1000A84254D120683D4E810712D5400703D522
:100E2000306840F4E05030602078000703D5306827
:100E300040F4604030603068A16820F0F000084362
:100E400030602078C0072DD030496068083901280B
:100E500012D0022813D0032811D00968890700296D
:100E60002DDA316821F0030101433160FFF738FFCB
:100E7000804641F2883A0EE009688903EFE7096885
:100E80008901ECE7FFF72CFFA0EB0801514502D9DF
:100E90000320BDE8F0873068616800F00C00B0EB1B
:100EA000810FEFD1D9F80010484601F00F01A94297
:100EB00007D90770006800F00F00A84201D0012098
:100EC000E7E72078400705D53068E16820F4E05076
:100ED000084330602078000706D53068216920F487
:100EE000604040EAC100306000F036F83168084ADE
:100EF000C1F30311515CC840064908600F20FFF799
:100F000013FF0020C5E70000003C02400838024003
:100F10001EC1000800000020044805490068096857
:100F2000044AC1F38221515CC84070470000002090
:100F3000083802402EC100080448054900680968C5
:100F4000044AC1F34231515CC840704700000020A0
:100F5000083802402EC10008154810B5006810F08E
:100F60000C01144813D0431004290FD008290ED1C6
:100F70000F4C241F216801F03F022168490207D568
:100F80002068C0F38810A0FB030106E0184610BDDE
:100F90002168C1F38811A1FB00010023FFF7A5F927
:100FA0002168C1F30141491C4900B0FBF1F010BDBB
:100FB000083802400024F4002DE9F84F040073D0F3
:100FC0002078BD4DC00748D0BB4808300168C1F348
:100FD0008101012908D00068C0F3810002280AD1EC
:100FE000281D0068400206D52868800335D5606852
:100FF0000028E4D031E06068B0F5803F10D0B0F553
:10100000A02F286810D020F480302860286820F4B1
:10101000802028606068A0B1FFF762FE06460CE001
:10102000286840F48030F4E740F480202860F7E737
:10103000FFF756FE801B642872D828688003F7D516
:101040000BE0FFF74DFE064604E0FFF749FE801B6C
:101050006428F1D828688003F7D42078DFF85C9200
:1010600080074FF0000A3ED593480830016811F020
:101070000C0F09D00068C0F3810002280BD18E4804
:10108000001D0068400206D42868800715D5E06876
:10109000012809D111E0E068B8B10120C9F80000C9
:1010A000FFF71EFE064605E003E1FFF719FE801B71
:1010B0000228C1D828688007F7D52868216920F060
:1010C000F80040EAC10028600DE0C9F800A0FFF771
:1010D00007FE064604E0FFF703FE801B02281FD828
:1010E00028688007F7D42078000722D5724F74490A
:1010F0006069743770B101200860FFF7F1FD0646A2
:1011000004E0FFF7EDFD801B022809D8386880074E
:10111000F7D50EE0C1F800A0FFF7E2FD064605E0B6
:1011200081E0FFF7DDFD801B02287CD8386880074E
:10113000F7D42078400769D5DFF87CB14FF000087C
:101140000BF1400BDBF80000C0000CD4DBF8001002
:1011500041F08051CBF80010DBF800004FF001089F
:1011600000F080500090574F3868C0050FD43868A1
:1011700040F480703860FFF7B3FD064604E0FFF7E7
:10118000AFFD801B02284ED83868C005F7D54A4FFE
:10119000A068703701280FD00528386810D020F0DB
:1011A00001003860386820F004003860A068B0B1F1
:1011B000FFF796FD06460EE0386840F00100F4E7C0
:1011C00040F004003860F7E7FFF78AFD811B41F229
:1011D0008830814265D838688007F5D50DE0FFF783
:1011E0007FFD064606E0FFF77BFD811B41F288305C
:1011F000814256D838688007F5D4B8F1000F05D081
:10120000DBF8001021F08051CBF80010A069C8B3C2
:10121000294908310968C1F38101022949D002280E
:10122000504607D000E03CE0C9F86000FFF758FDE9
:10123000044639E04F46C9F86000FFF751FD064605
:1012400004E0FFF74DFD801B02282AD828688001A2
:10125000F7D4D4E907010843A16A1B4A490802EB05
:101260000141626A41EA8211084394F82C1040EA75
:1012700001611148001D016001203866FFF730FD53
:10128000044605E013E0FFF72BFD001B022808D8F9
:1012900028688001F7D50AE0FFF722FD001B02282D
:1012A00002D90320BDE8F88F28688001F4D400201B
:1012B000F8E70120F6E7000000380240000047424E
:1012C000800E4742007000400000FFFFFEB504465C
:1012D00003200D4684F83400606C032820D0B5F557
:1012E000805F1DD0B5F5006F05D045B1A06B40F013
:1012F0000060A06309E0204604F0BBFA02E020464B
:1013000004F090FAA16B0143A163A06B012658B1D0
:10131000216840F2FF50886384F834600120FEBDEC
:10132000A06B40F08050E4E7211DD4E905070EC909
:10133000CDE900500297206803F0EBFD84F834609B
:101340000020FEBDF0B5426E120E93090B70C2F381
:1013500083034B7002F003028A70426E120CCA7053
:10136000B0F86420120A0A7190F864204A71826E03
:101370004FF6FF73120E03EA0212CA80826ECB8808
:10138000C2F3074243EA1213CB8002F00F020A7243
:10139000B0F86820C2F30722D3094B72C2F380135E
:1013A0008B72C2F34013CB72C2F300130B73002491
:1013B0004C73456C4FF4007601236DB1012D43D081
:1013C000026840F2FF519163816B41F0805181636B
:1013D00080F834300120F0BD9207120D0A6190F8B8
:1013E00068200D6945EA82020A61C26E0D69120E1B
:1013F00045EA92150D61C2F3C2050D7502F00702B0
:101400004A75C26EC2F3074255098D75C2F3820553
:10141000CD759207520F0A76B0F86C200D7EC2F39C
:10142000072245EAD2150D760D696D1C45650F7EC4
:10143000BF1CBD4045650F7A03FA07F787657F0A31
:101440007D43C0E917561CE090F868209206920A86
:101450000A61C26E0D69120E45EA02220A61C26E6D
:101460000D69C2F3074215430D61B0F86C200D6998
:10147000C2F307226D1C4FEA85254565C0E9166554
:101480000666C2F3801501F8195F4FEA82624FEADF
:1014900052624A7010F86C2F4D7845EAD2154D70A3
:1014A00002F07F028A7042684FEA12624FEAD21558
:1014B000CD70C2F341150D71C2F382054D714FEA33
:1014C00082724FEA12728A7142688D79C2F30742C2
:1014D00045EA92158D71C2F34015CD710C7202F080
:1014E00001024A728288C2F307224FEAD2148C7238
:1014F000C2F38014CC72C2F340140C73C2F3001414
:101500004C73C2F381048C7302F00302CA73007936
:101510004FEA500008744B744FF00000F0BD426C6D
:101520000A60826C4A60C26C8A60026DCA60426D59
:101530000A61826D4A61C26D8A61006EC8610020D5
:10154000704738B5002504460095B0F850000104F6
:10155000206803F057FE28B90021206803F0D3FC6F
:101560000090284610B1A16B0143A1630098C0F31D
:10157000432038BD70B5040004D094F83400002531
:1015800010B105E0012070BD2577204600F038F845
:10159000032084F83400204600F008F8A563256392
:1015A000012084F83400002070BD0000FEB5002545
:1015B000044676200095CDE901502B462A4629465F
:1015C000206803F0A6FC0D4E46F8A05F206803F0EB
:1015D000B2FC012535600220FFF784FA204604F0B2
:1015E000B0F820B9204604F039F8002805D084F876
:1015F0003450A16B0143A1630120FEBD0080254250
:101600001D4800B5016887B041F4006101600068C1
:1016100000F40060059018481438016841F4800116
:101620000160016801F480010591016841F0040145
:101630000160016801F004010591016841F00801B1
:1016400001600068694600F0080005904FF4F8500A
:1016500000900220019001200290032003900C20B2
:1016600004900648FFF750FA0420009069460448A9
:10167000FFF74AFA07B000BD4438024000080240B4
:10168000000C02402DE9F04F87B09B4616460D46F0
:101690000446109FFFF724FB81463DB194F83400C7
:1016A000012807D0A06B40F000500DE0A06B40F087
:1016B000006009E00020A063E26D06EB0B0191429F
:1016C00004D9A06B40F00070A06384E0032184F88B
:1016D000341021688046C862606C012800D0760210
:1016E0004FF40071206803F075FC40F2FF5A0121AD
:1016F00040B12368C3F838A0A26B0243A26384F808
:10170000341068E04FF0FF3000904FEA4B2001901A
:10171000902002900220CDE9030805918846694691
:10172000206803F0DAFBBBF1010F06D90220206329
:101730003146206803F0DAFC05E0C4F83080314619
:10174000206803F0EBFC38B32268C2F838A0A16B24
:101750000143A1633DE0406B000409D500262068E9
:1017600003F0EDFB45F82600761C082EF7D3203554
:101770002FB1FFF7B5FAA0EB0900B8420CD32168EE
:10178000C1F838A0A06B40F00040A06384F834801A
:10179000032007B0BDE8F08F2068416B40F22A3289
:1017A0001142D8D0416BC90509D5BBF1010F06D94B
:1017B000616C032903D003F055FD0028C4D12068D3
:1017C000416B090709D5C0F838A0A06B40F00800AC
:1017D00025E084F834800120DBE7416B890705D5DB
:1017E000C0F838A0A06B40F0020018E0416B8906F9
:1017F00017D5C0F838A0A06B40F020000FE003F030
:101800009EFB01C52FB1FFF76BFAA0EB0900B842B0
:1018100007D32168C1F838A0A06B40F00040A06356
:10182000D7E72068416B8902E9D42168C1F838A064
:1018300084F834800020ACE72DE9F04F87B09A4659
:1018400015460E460446DDF840B0FFF749FA06900B
:101850003EB194F83400012807D0A06B40F000504E
:101860000DE0A06B40F0006009E00020A063E26D95
:1018700005EB0A01914204D9A06B40F00070A0630F
:101880002EE0032184F8341021680020C862606CC7
:10189000012800D06D024FF40071206803F09AFB1C
:1018A00040F2FF584FF00109002860D1BAF1010F52
:1018B00006D9202020632946206803F0EDFC05E0CE
:1018C000102020632946206803F0FEFC07000BD09F
:1018D0002168C1F83880A06B38436AE084F83490FE
:1018E000012007B0BDE8F08F4FF0FF3000904FEAC5
:1018F0004A200190902002900020CDE90409039035
:101900006946206803F0E9FA1FE0406B400409D5FE
:10191000002506EB8501206803F024FB6D1C082DD3
:10192000F7D32036BBF1000F05D0FFF7D9F90699A0
:10193000411A594509D32168C1F83880A06B384352
:10194000A06384F834900320CBE72068416B40F219
:101950001A321142D9D0416BC9050FD5BAF1010F26
:101960000CD9616C032909D003F07CFC30B12268EA
:10197000C2F83880A16B0143A163AFE72068416BD7
:10198000090705D5C0F83880A06B40F0080010E0CA
:10199000416B890705D5C0F83880A06B40F0020084
:1019A00007E0416BC0F83880C90604D5A06B40F051
:1019B0001000A06392E784F83490002091E770B59E
:1019C000040004D094F85100002510B106E0012075
:1019D00070BD84F85050204600F038F8022084F89A
:1019E00051002068016821F040010160D4E9010143
:1019F0000843D4E903121143084361690843218B6A
:101A000001F400710843E1690843216A0843A16AAF
:101A1000084321680860A069042101EA1040616A56
:101A2000084321684860A06AB0F5005F02D12168D0
:101A3000E06A08612068C16921F40061C1616565DF
:101A4000012084F85100002070BD0000114800B54D
:101A5000016887B041F002010160006800F00200F7
:101A600005900C481430016841F480510160006811
:101A7000012100F480500590382000900220CDE92B
:101A8000010103900520049069460348FFF73CF8E4
:101A900007B000BD30380240000402402DE9F84F85
:101AA000044690F85000012500270A9E9846924669
:101AB0008B4601280FD0012084F85000FFF710F961
:101AC00094F8511081466268404601290CD0B2F565
:101AD000827F07D102E00220BDE8F88FA2680AB930
:101AE000042901D0022703E1BBF1000F3CD0BAF179
:101AF000000F39D0B8F1000F36D094F851100429F6
:101B000002D0052184F8511000216165C4F838A085
:101B1000A4F83E80A4F83C80C4F830B0A4F8368025
:101B2000A4F8348021646164A16A4FF400584145EF
:101B300009D121680A6822F400520A6021680A6803
:101B400042F400520A6021680A68520603D40A6807
:101B500042F040020A60E168B1F5006F616805D0AB
:101B6000F1B301284DD08DE00127C1E009B1012872
:101B700040D1206B21680088C860206B801C2063E6
:101B8000E08E401EE08635E020688168890717D521
:101B9000E18EA9B1012D13D1216B0988C160206BA1
:101BA000801C2063E08E401EE086E08E002538B960
:101BB000A06A404504D12068016841F48051016069
:101BC00020688168C9070DD0E18F59B1C068A16B49
:101BD0000880A06B801CA063E08F401EE08700E0BF
:101BE0000FE00125FFF77CF8A0EB0900B04201D31C
:101BF000701C5DD1E08E0028C6D1E08F0028C3D1D3
:101C000046E0206B216800780873206B401C20633D
:101C1000E08E401EE08635E020688168890717D590
:101C2000E18EA9B1012D13D1216B09780173206BCD
:101C3000401C2063E08E401EE086E08E002538B90F
:101C4000A06A404504D12068016841F480510160D8
:101C500020688168C9070BD0E18F49B1C068A16BCA
:101C60000870A06B401CA063E08F401EE087012538
:101C7000FFF736F8A0EB0900B04202D3701C01D088
:101C800016E0AEB1E08E0028C6D1E08F0028C3D1A7
:101C9000A06A404510D10122334611462046CDF8B6
:101CA000009003F0ABFE28B1606D40F0020060656B
:101CB00003271DE02068C06820688168C90607D531
:101CC000616D41F0020161654FF6EF71816001279E
:101CD0004A463146204603F065FE18B10127202010
:101CE000606505E0A06818B92068C1688068009048
:101CF000012084F85100002084F850003846EBE6BB
:101D000070B515460E46040003D094F8490010B192
:101D100007E0012070BD002084F84800204600F054
:101D20001BF804F108012068FEF77EFE3146A26828
:101D30002068FEF7A3FED4E901022946236BFEF7D3
:101D400053FEA168206850F8212042F0010240F8BB
:101D50002120002070BD0000284810B5016886B021
:101D600041F001010160006800F001000590234886
:101D70000838016841F008010160016801F00801BC
:101D80000591016841F010010160016801F0100146
:101D90000591016841F020010160016801F0200116
:101DA0000591016841F0400101600068694600F05A
:101DB000400005904CF23370009002200190012009
:101DC0000290032003900C2004900D48FEF79CFE27
:101DD0004FF68070009069460A48FEF795FE4FF472
:101DE0008054694608480094FEF78EFE694607480D
:101DF0000094FEF789FE06B010BD0000383802409E
:101E0000000C024000100240001402400018024082
:101E10004FF0E0210428086903D020F00400086195
:101E2000704740F00400FAE710B5401EB0F1807F23
:101E300001D3012010BD4FF0E02460610F21601735
:101E400004F012FC0020A06107202061002010BDDA
:101E500010B5040003D094F83D0010B107E0012054
:101E600010BD002084F83C00204600F00CF8022051
:101E700084F83D00211D206803F096FF012084F8BE
:101E80003D00002010BD70470168CA6842F00102A1
:101E9000CA600068816801F00701062903D0016863
:101EA00041F00101016000207047704710F8391FB0
:101EB000407808437047000070B502680446106817
:101EC000D168536910F00F0F51D003F0010501F4F0
:101ED000907635435DD0C20705D0CA0503D5E26BC5
:101EE00042F00102E263420705D5DA0703D0E26B54
:101EF00042F00202E263820705D5DA0703D0E26B03
:101F000042F00402E263020705D5DA0703D0E26B70
:101F100042F00802E263E26B002A34D0800604D566
:101F2000880602D5204603F0E3FF20684069E16B94
:101F3000C0F3801001F008010143204624D003F0D3
:101F4000C9FF2068416949061AD5416921F040015D
:101F50004161606BA0B11B490165606BFEF7B0FD8C
:101F6000002810D0606B016DBDE870400847830603
:101F70000FD58B060DD52046BDE8704003F0B8BFE5
:101F80002046FFF792FF70BDFFF78FFF0020E06350
:101F900070BD030606D50B0604D52046BDE870408B
:101FA00004F048B94006F3D54806F1D5D16820467B
:101FB00021F04001D160202184F8391000F0CAF8E6
:101FC00070BD0000C55E000870B5040004D094F830
:101FD0003900002510B106E0012070BD84F83850AA
:101FE000204600F023F8242084F839002068C168D6
:101FF00021F40051C160204603F0C6FF206801694A
:1020000021F4904101612068416921F02A01416178
:102010002068C16841F40051C160E563202084F864
:10202000390084F83A00002070BD000010B5006847
:102030001A4986B088422FD11948016841F0010140
:102040000160006800F00100059015481430016837
:1020500041F0100101600068012100F010000590BE
:102060004FF4007000900220CDE901010390072099
:102070000C4C049069462046FEF746FD2115009160
:1020800069462046FEF740FD2520FEF76EFE03223E
:1020900011462520FEF776FE06B010BD0010014067
:1020A000303802400000024090F83A30202B22D114
:1020B000F9B1F2B190F83830012B1CD081628285E1
:1020C000C2850021C163222280F83A2080F83810AE
:1020D0000168CA6842F48072CA6001684A6942F0C5
:1020E00001024A610068C16841F02001C16000201E
:1020F00070470120704702207047000030B500682B
:10210000114988420CD1114A5088010408D4114663
:10211000440409784FF0000306D50A2901D0538002
:1021200030BD40F400400DE00D2909D0C0F30D048E
:10213000074D401C80B229555080C728EFD830BDCC
:1021400040F48040508030BD001001401400002059
:102150005C0200207047FEE770B5144886B0002589
:10216000016841F001010160016801F00101059180
:10217000016841F0100101600068032400F01000C4
:10218000059002200126CDE90204CDE900656946EB
:102190000748FEF7B9FC1C2003948DE861006946EE
:1021A0000448FEF7B1FC06B070BD000030380240B4
:1021B000000002400010024070B506460A480024A4
:1021C0000188458820464D43214602F0E7FC02F095
:1021D00049FEB1B24FF0D84002E0A0F88010641C74
:1021E000AC42FAD370BD0000B40300202DE9F04FDB
:1021F0002B4B2C27194698712B2589884FF4305A80
:102200004FF4285B4FF4487441F6631E2A264FF0C2
:10221000F00845F210594FF4A07C4FF4F072C8B1A9
:10222000A3F800C0A3F80280494533D1A3F808A061
:10223000A3F80AB0280298811C805A80A1F5A64014
:10224000103802D11A80A3F802C0BDE8F04F002078
:1022500002F0D4BBA3F80080A3F802C0494507D11F
:10226000A3F808A0A3F80AB04FF42C50988104E01A
:1022700071451F8104D15D819E811A805C8001E0DF
:102280005E819D81A1F5A6401038DED1A3F800C083
:102290005A80DAE71F815E8171459D81CCD0CDE700
:1022A000B40300202DE9F041314D90460C46024622
:1022B000060AA9882846270A4089A1F5AA43103BA7
:1022C0000FD0A1F5C853633B24D002F0BEFD3046C9
:1022D00002F0AFFDD0B202F0ACFDA88902F0B5FD6E
:1022E00036E002F0B2FD304602F0A3FD6889401CE2
:1022F00080B202F0AAFDD0B202F09BFDA88902F0E4
:10230000A4FD384602F095FDA889401C80B202F079
:102310009CFD20E0A97919B92988891A491E8AB239
:1023200002F093FD160A304602F083FDD0B202F0AF
:1023300080FD304602F07DFDD0B202F07AFDA88922
:1023400002F083FD384602F074FDE0B202F071FD48
:10235000384602F06EFDE0B202F06BFD4FF0D8415E
:10236000288921F87E0FA1F80280BDE8F0810000E5
:10237000B40300202DE9F0431F468146A2EB09007B
:10238000079B401C0C4686B29DB24FF0D84810E027
:102390002146484602F002FC02F064FD002041465E
:1023A00003E0A1F88050401C80B2B042F9D3641C15
:1023B000A4B2BC42ECD9BDE8F08300002DE9F04F97
:1023C000FF4895B00024016841F0020101600068F7
:1023D0000EA900F0020013904FF400400E9001206F
:1023E0000F90109003201190F648FEF78DFBF648F1
:1023F000F6494FF02049C0E900910621C0E90214D6
:102400001021C0E9044184610902C461C0E90941A5
:102410008900C0E90B4189014463C0E90E410F20E6
:10242000CDE907043C2009900920CDE900040820EB
:102430000D94029003946A4607A90694E248FFF7B8
:102440005FFC322004F052FCD32002F0FEFC02F0CC
:10245000A3FADD4E5036B08002F09EFA31468880F5
:1024600002F09AFA4FF6FF7B31460BEA0020888093
:1024700002F092FA314645F21037898845F210553C
:102480000843314641F663188880A0F5134147F2AE
:10249000897441397CD0042002F0D7FC02F07CFA28
:1024A000B08002F079FAB08002F076FA0BEA0020F0
:1024B0005A46B08002F070FAB1880843A0F5054191
:1024C000B080523960D0A04262D0D42002F0BDFC6E
:1024D00002F062FAB08002F05FFAB08002F05CFABB
:1024E00002EA00209246B08002F056FAB188084312
:1024F000B080B8424CD055214FF4704002F0BCFC83
:10250000AA214FF2010002F0B7FC52214FF2020063
:1025100002F0B2FC08214FF2030002F0ADFC0121F1
:102520004FF2040002F0A8FC4FF4454002F08DFC8D
:1025300002F032FA0AEA0020B0804CF2015002F0B8
:1025400084FC02F029FAB1880843B080052004F029
:10255000CDFBB088B0F5004F7ED0A84218D0A120A6
:1025600002F073FC02F018FAB08002F015FA0AEAE1
:102570000020B08002F010FAB1880843A0F5AE4107
:10258000B080613902D003E0B48001E0A6F8048095
:10259000B1888FA0FDF720FFB08849F2413A50453D
:1025A0007ED1CF2002F051FC002002F042FCC1207D
:1025B00002F03FFC302002F03CFCED2002F045FC34
:1025C000642002F036FC032002F033FC122002F0FB
:1025D00030FC812002F02DFCE82002F036FC852042
:1025E00002F027FC102002F024FC7A2002F021FCEB
:1025F000CB2002F02AFC392002F01BFC2C2002F038
:1026000018FC002002F015FC342002F012FC02201D
:1026100002F00FFCF72002F018FC202002F009FC69
:10262000EA2002F012FC002002F003FC002002F07D
:1026300000FCC02002F009FC1B2002F0FAFBC120C4
:1026400002F003FC012002F0F4FBC52002F0FDFBC8
:10265000302002F0EEFB00E0CBE0302002F0E9FB9E
:10266000C72002F0F2FBB72002F0E3FB362002F0B5
:10267000ECFB482002F0DDFB3A2002F0E6FB55209F
:1026800002F0D7FBB12002F0E0FB002002F0D1FB0A
:102690001A2002F0CEFBB62002F0D7FB0A2000E0A1
:1026A000A9E002F0C6FBA22002F0C3FBF22002F078
:1026B000CCFB002002F0BDFB262002F0C6FB01206F
:1026C00002F0B7FBE02002F0C0FB0F2002F0B1FBEC
:1026D0002A2002F0AEFB282002F0ABFB082002F01B
:1026E000A8FB0E2002F0A5FB082002F0A2FB54205C
:1026F00002F09FFBA92002F09CFB432002F099FB13
:102700000A2002F096FB0F2002F093FB002002F05B
:1027100090FB002002F08DFB002002F08AFB0020DD
:1027200002F087FBE12002F090FB002002F081FB29
:10273000152002F07EFB172002F07BFB072002F041
:1027400078FB112002F075FB062002F072FB2B20B3
:1027500002F06FFB562002F06CFB3C2002F069FB9C
:10276000052002F066FB102002F063FB0F2002F050
:1027700060FB3F2002F05DFB3F2002F05AFB0F2080
:1027800002F057FB2B2002F060FB002002F051FB0F
:10279000002002F04EFB012002F04BFB3F2002F034
:1027A00048FB2A2002F051FB002002F042FB0020EF
:1027B00002F03FFB002002F03CFBEF2010E00000A5
:1027C000303802400004024064030020040100A0ED
:1027D000204C43442049443A25780D0A000000006B
:1027E00002F027FB112002F030FB782004F07EFA83
:1027F000D4E0B580CCE6A0427ED1112002F025FBCA
:10280000782004F073FA362002F01FFB002002F05B
:1028100010FB3A2002F019FB052002F00AFBB2205F
:1028200002F013FB0C2002F004FB0C2002F001FB71
:10283000002002F0FEFA332002F0FBFA332002F00F
:10284000F8FAB72002F001FB352002F0F2FABB20C3
:1028500002F0FBFA322002F0ECFAC02002F0F5FAA6
:102860000C2002F0E6FAC22002F0EFFA012002F09A
:10287000E0FAC32002F0E9FA102002F0DAFAC420EC
:1028800002F0E3FA202002F0D4FAC62002F0DDFACA
:102890000F2002F0CEFAD02002F0D7FAA42002F0E6
:1028A000C8FAA12002F0C5FAE02002F0CEFAD0204A
:1028B00002F0BFFA002002F0BCFA022002F0B9FADE
:1028C000072002F0B6FA0A2002F0B3FA282002F03C
:1028D000B0FA322002F0ADFA442002F0AAFA422007
:1028E00002F0A7FA062002F0A4FA0E2002F0A1FAE4
:1028F000122002F09EFA00E053E0142002F099FA50
:10290000172002F096FAE12002F09FFAD02002F0A0
:1029100090FA002002F08DFA022002F08AFA0720D5
:1029200002F087FA0A2002F084FA282002F081FAE5
:10293000312002F07EFA542002F07BFA472002F0A8
:1029400078FA0E2002F075FA1C2002F072FA1720B5
:1029500002F06FFA1B2002F06CFA1E2002F069FAF6
:102960002A2002F072FA002002F063FA002002F03E
:1029700060FA002002F05DFAEF2002F05AFA2B20F4
:1029800002F063FA002002F054FA002002F051FA3B
:10299000012002F04EFA3F2002F04BFA292001F00C
:1029A000FEBEB8427ED1ED2002F04FFA012002F0C7
:1029B00040FAFE2002F03DFAEE2002F046FADE2058
:1029C00002F037FA212002F034FAF12002F03DFA49
:1029D000012002F02EFADF2002F037FA102002F078
:1029E00028FAC42002F031FA8F2002F022FAC62021
:1029F00002F02BFA002002F01CFAE22002F019FA91
:102A0000E22002F016FAE22002F013FABF2002F0F0
:102A10001CFAAA2002F00DFAB02002F016FA0D20DE
:102A200002F007FA002002F004FA0D2002F001FA89
:102A3000002002F0FEF9112002F0FBF9002002F064
:102A4000F8F9192002F0F5F9002002F0F2F921203E
:102A500002F0EFF9002002F0ECF92D2002F0E9F984
:102A6000002002F0E6F93D2002F0E3F9002002F038
:102A7000E0F95D2002F0DDF9002002F0DAF95D20D6
:102A800002F0D7F9002002F0D4F9B12002F0DDF90C
:102A9000802002F0CEF9002002F0CBF98B2002F06A
:102AA000C8F900E0FDE3002002F0C3F9962002F02F
:102AB000C0F9002002F0BDF9B22002F0C6F90020F2
:102AC00002F0B7F9002002F0B4F9022002F0B1F9E7
:102AD000002002F0AEF9032002F0ABF9002002F072
:102AE000A8F9B32002F0B1F9002002F0A2F9002009
:102AF00002F09FF9002002F09CF9002002F099F901
:102B0000002002F096F9002002F093F9002002F074
:102B100090F9002002F08DF9002002F08AF90020DF
:102B200002F087F9002002F084F9002002F081F918
:102B3000002002F07EF9002002F07BF9002002F074
:102B400078F9002002F075F9002002F072F90020F7
:102B500002F06FF9002002F06CF9002002F069F930
:102B6000002002F066F9002002F063F9002002F074
:102B700060F9002002F05DF9B42002F066F98B20C4
:102B800002F057F9002002F054F9962002F051F9B2
:102B9000002002F04EF9A12002F04BF9002002F0D3
:102BA00048F9B52002F051F9022002F042F9002064
:102BB00002F03FF9032002F03CF9002002F039F95D
:102BC000042002F036F9002002F033F9B62002F0BA
:102BD0003CF9002002F02DF9002002F02AF9B7207C
:102BE00002F033F9002002F024F9002002F021F96C
:102BF0003F2002F01EF9002002F01BF95E2002F0D7
:102C000018F9002002F015F9642002F012F90020F2
:102C100002F00FF98C2002F00CF9002002F009F903
:102C2000AC2002F006F9002002F003F9DC2002F0EB
:102C300000F9002002F0FDF8702002F0FAF8002000
:102C400002F0F7F8902002F0F4F8002002F0F1F81A
:102C5000EB2002F0EEF8002002F0EBF8DC2002F0AE
:102C6000E8F8002002F0E5F8B82002F0EEF80020C5
:102C700002F0DFF8002002F0DCF8002002F0D9F8C2
:102C8000002002F0D6F8002002F0D3F8002002F075
:102C9000D0F8002002F0CDF8002002F0CAF8BA20E7
:102CA00002F0D3F8242002F0C4F8002002F0C1F8AA
:102CB000002002F0BEF8002002F0BBF8C12002F0B4
:102CC000C4F8202002F0B5F8002002F0B2F8542039
:102CD00002F0AFF8002002F0ACF8FF2002F0A9F8F3
:102CE000002002F0A6F8C22002F0AFF80A2002F09D
:102CF000A0F8002002F09DF8042002F09AF80020CD
:102D000002F097F8C32002F0A0F83C2002F091F8FE
:102D1000002002F08EF83A2002F08BF8002002F03A
:102D200088F8392002F085F8002002F082F8372078
:102D300002F07FF8002002F07CF83C2002F079F8E5
:102D4000002002F076F8362002F073F8002002F03E
:102D500070F8322002F06DF8002002F06AF82F209F
:102D600002F067F8002002F064F82C2002F061F80D
:102D7000002002F05EF8292002F05BF8002002F04B
:102D800058F8262002F055F8002002F052F82420CE
:102D900002F04FF8002002F04CF8242002F049F82D
:102DA000002002F046F8232002F043F8002002F051
:102DB00040F83C2002F03DF8002002F03AF83620BE
:102DC00002F037F8002002F034F8322002F031F837
:102DD000002002F02EF82F2002F02BF8002002F045
:102DE00028F82C2002F025F8002002F022F82920F3
:102DF00002F01FF8002002F01CF8262002F019F85B
:102E0000002002F016F8242002F013F8002002F04F
:102E100010F8242002F00DF8002002F00AF8232018
:102E200002F007F8002002F004F8C42002F00DF8C8
:102E3000622001F0FEFF002001F0FBFF052001F001
:102E4000F8FF002001F0F5FF842001F0F2FF0020E0
:102E500001F0EFFFF02001F0ECFF002001F0E9FFAE
:102E6000182001F0E6FF002001F0E3FFA42001F0AC
:102E7000E0FF002001F0DDFF182001F0DAFF002064
:102E800001F0D7FF502001F0D4FF002001F0D1FF66
:102E90000C2001F0CEFF002001F0CBFF172001F045
:102EA000C8FF002001F0C5FF952001F0C2FF0020FF
:102EB00001F0BFFFF32001F0BCFF002001F0B9FFDB
:102EC000E62001F0B6FF002001F0B3FFC52001F0BD
:102ED000BCFF322001F0ADFF002001F0AAFF44202A
:102EE00001F0A7FF002001F0A4FF652001F0A1FF81
:102EF000002001F09EFF762001F09BFF002001F0F2
:102F000098FF882001F095FF002001F092FFC62075
:102F100001F09BFF202001F08CFF002001F089FFD1
:102F2000172001F086FF002001F083FF012001F04F
:102F300080FF002001F07DFFC72001F086FF002008
:102F400001F077FF002001F074FF002001F071FF15
:102F5000002001F06EFFC82001F077FF002001F093
:102F600068FF002001F065FF002001F062FF0020F3
:102F700001F05FFFC92001F068FF002001F059FF58
:102F8000002001F056FF002001F053FF002001F067
:102F900050FF002001F04DFF002001F04AFF00200B
:102FA00001F047FF002001F044FF002001F041FF45
:102FB000002001F03EFF002001F03BFF002001F067
:102FC00038FF002001F035FF002001F032FF002023
:102FD00001F02FFF002001F02CFFE02001F035FF71
:102FE000162001F026FF002001F023FF1C2001F035
:102FF00020FF002001F01DFF212001F01AFF00201A
:1030000001F017FF362001F014FF002001F011FF3E
:10301000462001F00EFF002001F00BFF522001F0CE
:1030200008FF002001F005FF642001F002FF0020EE
:1030300001F0FFFE7A2001F0FCFE002001F0F9FE15
:103040008B2001F0F6FE002001F0F3FE992001F044
:10305000F0FE002001F0EDFEA82001F0EAFE0020C5
:1030600001F0E7FEB92001F0E4FE002001F0E1FEEE
:10307000C42001F0DEFE002001F0DBFECA2001F0DA
:10308000D8FE002001F0D5FED22001F0D2FE0020B3
:1030900001F0CFFED92001F0CCFE002001F0C9FEE6
:1030A000E02001F0C6FE002001F0C3FEF32001F095
:1030B000C0FE002001F0BDFEE12001F0C6FE16209A
:1030C00001F0B7FE002001F0B4FE1C2001F0B1FEBB
:1030D000002001F0AEFE222001F0ABFE002001F046
:1030E000A8FE362001F0A5FE002001F0A2FE45203A
:1030F00001F09FFE002001F09CFE522001F099FE9D
:10310000002001F096FE642001F093FE002001F003
:1031100090FE7A2001F08DFE002001F08AFE8B20C7
:1031200001F087FE002001F084FE992001F081FE6D
:10313000002001F07EFEA82001F07BFE002001F0BF
:1031400078FEB92001F075FE002001F072FEC42067
:1031500001F06FFE002001F06CFECA2001F069FE54
:10316000002001F066FED22001F063FE002001F095
:1031700060FED82001F05DFE002001F05AFEE02044
:1031800001F057FE002001F054FEF32001F051FE43
:10319000002001F04EFEE22001F057FE052001F074
:1031A00048FE002001F045FE0B2001F042FE002009
:1031B00001F03FFE1B2001F03CFE002001F039FE33
:1031C000342001F036FE002001F033FE442001F0EF
:1031D00030FE002001F02DFE4F2001F02AFE0020DD
:1031E00001F027FE612001F024FE002001F021FE05
:1031F000792001F01EFE002001F01BFE882001F066
:1032000018FE002001F015FE972001F012FE0020AC
:1032100001F00FFEA62001F00CFE002001F009FED7
:10322000B72001F006FE002001F003FEC22001F0ED
:1032300000FE002001F0FDFDC72001F0FAFD002096
:1032400001F0F7FDD12001F0F4FD002001F0F1FDC7
:10325000D62001F0EEFD002001F0EBFDDD2001F0B5
:10326000E8FD002001F0E5FDF32001F0E2FD002083
:1032700001F0DFFDE32001F0E8FD052001F0D9FDBC
:10328000002001F0D6FD0A2001F0D3FD002001F05E
:10329000D0FD1C2001F0CDFD002001F0CAFD33203F
:1032A00000E0FAE201F0C5FD002001F0C2FD44207B
:1032B00001F0BFFD002001F0BCFD502001F0B9FD80
:1032C000002001F0B6FD622001F0B3FD002001F006
:1032D000B0FD782001F0ADFD002001F0AAFD8820AE
:1032E00001F0A7FD002001F0A4FD972001F0A1FD51
:1032F000002001F09EFDA62001F09BFD002001F0C2
:1033000098FDB72001F095FD002001F092FDC2204C
:1033100001F08FFD002001F08CFDC72001F089FD38
:10332000002001F086FDD12001F083FD002001F096
:1033300080FDD52001F07DFD002001F07AFDDD202B
:1033400001F077FD002001F074FDF32001F071FD24
:10335000002001F06EFDE42001F077FD012001F076
:1033600068FD002001F065FD012001F062FD0020F4
:1033700001F05FFD022001F05CFD002001F059FD2D
:103380002A2001F056FD002001F053FD3C2001F001
:1033900050FD002001F04DFD4B2001F04AFD0020C2
:1033A00001F047FD5D2001F044FD002001F041FDEA
:1033B000742001F03EFD002001F03BFD842001F06F
:1033C00038FD002001F035FD932001F032FD002092
:1033D00001F02FFDA22001F02CFD002001F029FDBD
:1033E000B32001F026FD002001F023FDBE2001F0F6
:1033F00020FD002001F01DFDC42001F01AFD002079
:1034000001F017FDCD2001F014FD002001F011FDA9
:10341000D32001F00EFD002001F00BFDDD2001F0B6
:1034200008FD002001F005FDF32001F002FD002061
:1034300001F0FFFCE52001F008FD002001F0F9FC9F
:10344000002001F0F6FC002001F0F3FC002001F068
:10345000F0FC022001F0EDFC002001F0EAFC292044
:1034600001F0E7FC002001F0E4FC3C2001F0E1FC6D
:10347000002001F0DEFC4B2001F0DBFC002001F01D
:10348000D8FC5D2001F0D5FC002001F0D2FC7420B6
:1034900001F0CFFC002001F0CCFC842001F0C9FC3D
:1034A000002001F0C6FC932001F0C3FC002001F0D5
:1034B000C0FCA22001F0BDFC002001F0BAFCB3204A
:1034C00001F0B7FC002001F0B4FCBE2001F0B1FC1B
:1034D000002001F0AEFCC42001F0ABFC002001F0A4
:1034E000A8FCCD2001F0A5FC002001F0A2FCD32017
:1034F00001F09FFC002001F09CFCDC2001F099FC15
:10350000002001F096FCF32001F093FC002001F074
:1035100090FCE62001F099FC112001F08AFC0020CB
:1035200001F087FC342001F084FC002001F081FCD4
:10353000562001F07EFC002001F07BFC762001F09B
:1035400078FC002001F075FC772001F072FC00206F
:1035500001F06FFC662001F06CFC002001F069FCBA
:10356000882001F066FC002001F063FC992001F046
:1035700060FC002001F05DFCBB2001F05AFC002043
:1035800001F057FC992001F054FC002001F051FC9F
:10359000662001F04EFC002001F04BFC552001F0AC
:1035A00048FC002001F045FC552001F042FC0020C1
:1035B00001F03FFC452001F03CFC002001F039FC0B
:1035C000432001F036FC002001F033FC442001F0E0
:1035D00030FC002001F02DFCE72001F036FC322009
:1035E00001F027FC002001F024FC552001F021FC13
:1035F000002001F01EFC762001F01BFC002001F0F1
:1036000018FC662001F015FC002001F012FC672078
:1036100001F00FFC002001F00CFC672001F009FC18
:10362000002001F006FC872001F003FC002001F0DF
:1036300000FC992001F0FDFB002001F0FAFBBB200B
:1036400001F0F7FB002001F0F4FB992001F0F1FB01
:10365000002001F0EEFB772001F0EBFB002001F0F1
:10366000E8FB442001F0E5FB002001F0E2FB5620DE
:1036700001F0DFFB002001F0DCFB232001F0D9FB8F
:10368000002001F0D6FB332001F0D3FB002001F035
:10369000D0FB452001F0CDFB002001F0CAFBE82063
:1036A00001F0D3FB002001F0C4FB002001F0C1FBBE
:1036B000992001F0BEFB002001F0BBFB872001F048
:1036C000B8FB002001F0B5FB882001F0B2FB002020
:1036D00001F0AFFB772001F0ACFB002001F0A9FB6B
:1036E000662001F0A6FB002001F0A3FB882001F07A
:1036F000A0FB002001F09DFBAA2001F09AFB002016
:1037000001F097FBBB2001F094FB002001F091FB3E
:10371000992001F08EFB002001F08BFB662001F068
:1037200088FB002001F085FB552001F082FB002082
:1037300001F07FFB552001F07CFB002001F079FBBC
:10374000442001F076FB002001F073FB442001F0DF
:1037500070FB002001F06DFB552001F06AFB00209A
:1037600001F067FBE92001F070FBAA2001F061FB8A
:10377000002001F05EFB002001F05BFB002001F067
:1037800058FB002001F061FBAA2001F052FBCF2082
:1037900001F05BFB002001F04CFB002001F049FB35
:1037A000002001F046FB002001F043FB002001F067
:1037B00040FB002001F03DFB002001F03AFB00201F
:1037C00001F037FB002001F034FB002001F031FB59
:1037D000002001F02EFB002001F02BFB002001F067
:1037E00028FB002001F025FB002001F022FB002037
:1037F00001F01FFB002001F01CFBF02001F025FB75
:10380000002001F016FB502001F013FB002001F016
:1038100010FB002001F00DFB002001F00AFBF3205B
:1038200001F013FB002001F004FBF92001F00DFB77
:10383000062001F0FEFA102001F0FBFA292001F029
:10384000F8FA002001F0F5FA3A2001F0FEFA5520CE
:1038500001F0EFFA112001F0F8FA642003F046FAC3
:10386000292001F0F2FA352001F0EFFA002001F0F2
:10387000E0FA512001F0E9FAFF2001F0DAFA5320D2
:1038800001F0E3FA2C2001F0D4FA552001F0DDFA22
:10389000822001F0CEFA2C20FDE3A8427ED15521F2
:1038A0004FF4704001F0E8FAAA214FF2010001F054
:1038B000E3FA52214FF2020001F0DEFA08214FF242
:1038C000030001F0D9FA4FF204030121184601F078
:1038D000D3FA0D214FF4304001F0CEFA0D214BF216
:1038E000010001F0C9FA0D214BF2020001F0C4FA07
:1038F00034214FF4364001F0BFFA34214BF201601D
:1039000001F0BAFA34214BF2026001F0B5FA0D2150
:103910004FF4314001F0B0FA0D214BF2011001F0EB
:10392000ABFA0D214BF2021001F0A6FA34214FF44C
:10393000374001F0A1FA34214BF2017001F09CFAFA
:1039400034214BF2027001F097FA00214FF432401B
:1039500001F092FA00214BF2012001F08DFA0021D2
:103960004BF2022001F088FA24214FF4384001F094
:1039700083FA24214BF6010001F07EFA24214BF654
:10398000020001F079FA01214FF43F4001F074FA8E
:103990000F214FF4334001F06FFA00E0FEE30F21F6
:1039A0004BF2013001F068FA0F214BF2023001F0C6
:1039B00063FA34214FF4394001F05EFA34214BF6BA
:1039C000011001F059FA34214BF6021001F054FABB
:1039D00008214FF4354001F04FFA08214BF2015015
:1039E00001F04AFA08214BF2025001F045FA032196
:1039F0004FF4424001F040FA24214FF43A4001F0E4
:103A00003BFA24214BF6012001F036FA24214BF633
:103A1000022001F031FA00214FF43C4001F02CFA71
:103A200078214BF6014001F027FA00214BF60240C5
:103A300001F022FA00214FF43D4001F01DFA7821F7
:103A40004BF6015001F018FA00214BF6025001F03C
:103A500013FA00214FF43E4001F00EFA64214BF6B8
:103A6000016001F009FA00214FF4514001F004FA1D
:103A700033214DF2011001F0FFF900214DF2021047
:103A800001F0FAF934214DF2031001F0F5F90021AB
:103A90004DF2041001F0F0F93A214DF2051001F059
:103AA000EBF900214DF2061001F0E6F94A214DF242
:103AB000071001F0E1F900214DF2081001F0DCF9E6
:103AC0005C214DF2091001F0D7F900214DF20A10E6
:103AD00001F0D2F981214DF20B1001F0CDF9002156
:103AE0004DF20C1001F0C8F9A6214DF20D1001F0B5
:103AF000C3F900214DF20E1001F0BEF9E5214DF29F
:103B00000F1001F0B9F901214DF2101001F0B4F9D4
:103B100013214DF2111001F0AFF901214DF21210F5
:103B200001F0AAF954214DF2131001F0A5F9012179
:103B30004DF2141001F0A0F982214DF2151001F0A0
:103B40009BF901214DF2161001F096F9CA214DF2B0
:103B5000171001F091F902214DF2181001F08CF9C3
:103B600000214DF2191001F087F902214DF21A10CF
:103B700001F082F901214DF21B1001F07DF90221C3
:103B80004DF21C1001F078F934214DF21D1001F0B6
:103B900073F902214DF21E1001F06EF967214DF20A
:103BA0001F1001F069F902214DF2201001F064F9B3
:103BB00084214DF2211001F05FF902214DF2221013
:103BC00001F05AF9A4214DF2231001F055F9022118
:103BD0004DF2241001F050F9B7214DF2251001F0FB
:103BE0004BF902214DF2261001F046F9CF214DF29A
:103BF000271001F041F902214DF2281001F03CF9A3
:103C0000DE214DF2291001F037F902214DF22A1080
:103C100001F032F9F2214DF22B1001F02DF90221C1
:103C20004DF22C1001F028F9FE214DF22D1001F07B
:103C300023F903214DF22E1001F01EF910214DF24F
:103C40002F1001F019F903214DF2301001F014F991
:103C500033214DF2311001F00FF903214DF23210F2
:103C600001F00AF96D214DF2331001F005F9002140
:103C70004FF4524001F000F933214DF2012001F0E0
:103C8000FBF800214DF2022001F0F6F834214DF24C
:103C9000032001F0F1F800214DF2042001F0ECF8CE
:103CA0003A214DF2052001F0E7F800214DF20620FF
:103CB00001F0E2F84A214DF2072001F0DDF8002181
:103CC0004DF2082001F0D8F85C214DF2092001F0F6
:103CD000D3F800214DF20A2001F0CEF881214DF2F7
:103CE0000B2001F0C9F800214DF20C2001F0C4F8BE
:103CF000A6214DF20D2001F0BFF800214DF20E205B
:103D000001F0BAF8E5214DF20F2001F0B5F80121DC
:103D10004DF2102001F0B0F813214DF2112001F006
:103D2000ABF801214DF2122001F0A6F854214DF21A
:103D3000132001F0A1F801214DF2142001F09CF8AC
:103D400082214DF2152001F097F801214DF2162045
:103D500001F092F8CA214DF2172001F08DF80221EE
:103D60004DF2182001F088F800214DF2192001F0E1
:103D700083F802214DF21A2001F07EF801214DF264
:103D80001B2001F079F802214DF21C2001F074F89B
:103D900034214DF21D2001F06FF802214DF21E205A
:103DA00001F06AF867214DF21F2001F065F8022149
:103DB0004DF2202001F060F884214DF2212001F025
:103DC0005BF802214DF2222001F056F8A4214DF2B9
:103DD000232001F051F802214DF2242001F04CF88B
:103DE000B7214DF2252001F047F802214DF226209F
:103DF00001F042F8CF214DF2272001F03DF80221D9
:103E00004DF2282001F038F8DE214DF2292001F092
:103E100033F802214DF22A2001F02EF8F2214DF262
:103E20002B2001F029F802214DF22C2001F024F87A
:103E3000FE214DF22D2001F01FF803214DF22E201E
:103E400001F01AF810214DF22F2001F015F803218E
:103E50004DF2302001F010F833214DF2312001F005
:103E60000BF803214DF2322001F006F86D214DF2DE
:103E7000332001F001F800214FF4534000F0FCFF23
:103E800033214DF2013000F0F7FF00214DF20230F6
:103E900000F0F2FF34214DF2033000F0EDFF00217D
:103EA0004DF2043000F0E8FF3A214DF2053000F009
:103EB000E3FF00214DF2063000F0DEFF4A214DF213
:103EC000073000F0D9FF00214DF2083000F0D4FF98
:103ED0005C214DF2093000F0CFFF00214DF20A3095
:103EE00000F0CAFF81214DF20B3000F0C5FF002128
:103EF0004DF20C3000F0C0FFA6214DF20D3000F065
:103F0000BBFF00214DF20E3000F0B6FFE5214DF26F
:103F10000F3000F0B1FF01214DF2103000F0ACFF86
:103F200013214DF2113000F0A7FF01214DF21230A4
:103F300000F0A2FF54214DF2133000F09DFF01214B
:103F40004DF2143000F098FF82214DF2153000F050
:103F500093FF01214DF2163000F08EFFCA214DF281
:103F6000173000F089FF02214DF2183000F084FF75
:103F700000214DF2193000F07FFF02214DF21A307E
:103F800000F07AFF01214DF21B3000F075FF022195
:103F90004DF21C3000F070FF34214DF21D3000F066
:103FA0006BFF02214DF21E3000F066FF67214DF2DB
:103FB0001F3000F061FF02214DF2203000F05CFF65
:103FC00084214DF2213000F057FF02214DF22230C2
:103FD00000F052FFA4214DF2233000F04DFF0221EA
:103FE0004DF2243000F048FFB7214DF2253000F0AB
:103FF00043FF02214DF2263000F03EFFCF214DF26B
:10400000273000F039FF02214DF2283000F034FF54
:10401000DE214DF2293000F02FFF02214DF22A302F
:1040200000F02AFFF2214DF22B3000F025FF022193
:104030004DF22C3000F020FFFE214DF22D3000F02B
:104040001BFF03214DF22E3000F016FF10214DF220
:104050002F3000F011FF03214DF2303000F00CFF43
:1040600033214DF2313000F007FF03214DF23230A1
:1040700000F002FF6D214DF2333000F0FDFE002113
:104080004FF4544000F0F8FE33214DF2014000F0AF
:10409000F3FE002100E082E34DF2024000F0ECFE6E
:1040A00034214DF2034000F0E7FE00214DF20440C0
:1040B00000F0E2FE3A214DF2054000F0DDFE002165
:1040C0004DF2064000F0D8FE4A214DF2074000F0C4
:1040D000D3FE00214DF2084000F0CEFE5C214DF2EF
:1040E000094000F0C9FE00214DF20A4000F0C4FE74
:1040F00081214DF20B4000F0BFFE00214DF20C403B
:1041000000F0BAFEA6214DF20D4000F0B5FE0021F0
:104110004DF20E4000F0B0FEE5214DF20F4000F0F0
:10412000ABFE01214DF2104000F0A6FE13214DF22E
:10413000114000F0A1FE01214DF2124000F09CFE62
:1041400054214DF2134000F097FE01214DF214402E
:1041500000F092FE82214DF2154000F08DFE01210B
:104160004DF2164000F088FECA214DF2174000F0D3
:1041700083FE02214DF2184000F07EFE00214DF238
:10418000194000F079FE02214DF21A4000F074FE51
:1041900001214DF21B4000F06FFE00E002E302211E
:1041A0004DF21C4000F068FE34214DF21D4000F03D
:1041B00063FE02214DF21E4000F05EFE67214DF2CB
:1041C0001F4000F059FE02214DF2204000F054FE45
:1041D00084214DF2214000F04FFE02214DF2224099
:1041E00000F04AFEA4214DF2234000F045FE0221DA
:1041F0004DF2244000F040FEB7214DF2254000F082
:104200003BFE02214DF2264000F036FECF214DF25A
:10421000274000F031FE02214DF2284000F02CFE34
:10422000DE214DF2294000F027FE02214DF22A4006
:1042300000F022FEF2214DF22B4000F01DFE022183
:104240004DF22C4000F018FEFE214DF22D4000F002
:1042500013FE03214DF22E4000F00EFE10214DF210
:104260002F4000F009FE03214DF2304000F004FE23
:1042700033214DF2314000F0FFFD03214DF2324079
:1042800000F0FAFD6D214DF2334000F0F5FD002104
:104290004FF4554000F0F0FD33214DF2015000F095
:1042A000EBFD00214DF2025000F0E6FD34214DF20D
:1042B000035000F0E1FD00214DF2045000F0DCFD60
:1042C0003A214DF2055000F0D7FD00214DF2065085
:1042D00000F0D2FD4A214DF2075000F0CDFD002143
:1042E0004DF2085000F0C8FD5C214DF2095000F07D
:1042F000C3FD00214DF20A5000F0BEFD81214DF2B8
:104300000B5000F0B9FD00214DF20C5000F0B4FD4F
:10431000A6214DF20D5000F0AFFD00214DF20E50E0
:1043200000F0AAFDE5214DF20F5000F0A5FD01219E
:104330004DF2105000F0A0FD13214DF2115000F08D
:104340009BFD01214DF2125000F096FD54214DF2DB
:10435000135000F091FD01214DF2145000F08CFD3E
:1043600082214DF2155000F087FD01214DF21650CB
:1043700000F082FDCA214DF2175000F07DFD0221B0
:104380004DF2185000F078FD00214DF2195000F068
:1043900073FD02214DF21A5000F06EFD01214DF225
:1043A0001B5000F069FD02214DF21C5000F064FD2D
:1043B00034214DF21D5000F05FFD02214DF21E50E0
:1043C00000F05AFD67214DF21F5000F055FD02210B
:1043D0004DF2205000F050FD84214DF2215000F0AC
:1043E0004BFD02214DF2225000F046FDA4214DF27A
:1043F000235000F041FD02214DF2245000F03CFD1D
:10440000B7214DF2255000F037FD02214DF2265024
:1044100000F032FDCF214DF2275000F02DFD02219A
:104420004DF2285000F028FDDE214DF2295000F019
:1044300023FD02214DF22A5000F01EFDF2214DF223
:104440002B5000F019FD02214DF22C5000F014FD0C
:10445000FE214DF22D5000F00FFD03214DF22E50A4
:1044600000F00AFD10214DF22F5000F005FD032150
:104470004DF2305000F000FD33214DF2315000F08C
:10448000FBFC03214DF2325000F0F6FC6D214DF2A1
:10449000335000F0F1FC00214FF4564000F0ECFCEA
:1044A00033214DF2016000F0E7FC00214DF2026083
:1044B00000F0E2FC34214DF2036000F0DDFC00214D
:1044C0004DF2046000F0D8FC3A214DF2056000F096
:1044D000D3FC00214DF2066000F0CEFC4A214DF2E3
:1044E000076000F0C9FC00214DF2086000F0C4FC38
:1044F0005C214DF2096000F0BFFC00214DF20A6022
:1045000000F0BAFC81214DF20B6000F0B5FC0021F7
:104510004DF20C6000F0B0FCA6214DF20D6000F0F1
:10452000ABFC00214DF20E6000F0A6FCE5214DF23F
:104530000F6000F0A1FC01214DF2106000F09CFC26
:1045400013214DF2116000F097FC01214DF2126031
:1045500000F092FC54214DF2136000F08DFC01211B
:104560004DF2146000F088FC82214DF2156000F0DD
:1045700083FC01214DF2166000F07EFCCA214DF251
:10458000176000F079FC02214DF2186000F074FC15
:1045900000214DF2196000F06FFC02214DF21A600B
:1045A00000F06AFC01214DF21B6000F065FC022165
:1045B0004DF21C6000F060FC34214DF21D6000F0F3
:1045C0005BFC02214DF21E6000F056FC67214DF2AB
:1045D0001F6000F051FC02214DF2206000F04CFC05
:1045E00084214DF2216000F047FC02214DF222604F
:1045F00000F042FCA4214DF2236000F03DFC0221BA
:104600004DF2246000F038FCB7214DF2256000F037
:1046100033FC02214DF2266000F02EFCCF214DF23A
:10462000276000F029FC02214DF2286000F024FCF4
:10463000DE214DF2296000F01FFC02214DF22A60BC
:1046400000F01AFCF2214DF22B6000F015FC022163
:104650004DF22C6000F010FCFE214DF22D6000F0B8
:104660000BFC03214DF22E6000F006FC10214DF2F0
:104670002F6000F001FC03214DF2306000F0FCFBE4
:1046800033214DF2316000F0F7FB03214DF232602F
:1046900000F0F2FB6D214DF2336000F0EDFB55218F
:1046A0004FF4704000F0E8FBAA214FF2010000F047
:1046B000E3FB52214FF2020000F0DEFB08214FF233
:1046C000030000F0D9FB0021184600F0D5FBCC21F7
:1046D0004FF4314000F0D0FB00214BF2011000F00C
:1046E000CBFB05214FF4364000F0C6FB70214FF4A0
:1046F000374000F0C1FB70214BF2017000F0BCFBB1
:1047000001214FF4384000F0B7FB03214BF60100C4
:1047100000F0B2FB03214BF6020000F0ADFB0321D9
:104720004BF6030000F0A8FB02214FF43C4000F0E0
:10473000A3FB00214BF6014000F09EFB00214BF64D
:10474000024000F099FBD0214FF4494000F094FB67
:1047500002214CF6011000F08FFB50214CF60210A4
:1047600000F08AFB50214CF6031000F085FB50212D
:104770004CF6041000F080FB00214FF4545000F080
:104780007BFB55214FF4685000F076FB4FF48850C6
:1047900000F05BFB782002F0B7FA4FF4245000F0F1
:1047A00054FBB9E04045FCD1E22000F04EFB1D2057
:1047B00000F03FFB022000F03CFB042000F039FB3E
:1047C000642002F0A1FAE02000F03FFB012000F09D
:1047D00030FB0A2002F08AFAE02000F036FB0320CA
:1047E00000F027FB0C2002F081FA012000F02DFBE5
:1047F0000A2002F07BFAE62000F027FB2F2000F0D1
:1048000018FBFF2000F015FBFF2000F012FBB0208A
:1048100000F01BFB202000F00CFB002000F009FB47
:10482000032000F006FB40F21F3000F002FB0120E5
:1048300000F0FFFA40F2DF1000F0FBFA002000F079
:10484000F8FAB42000F001FB042000F0F2FA40F284
:104850001F4000F0EEFA002000F0EBFA2E2000F0EE
:10486000E8FA002000F0E5FA002000F0E2FA00206B
:1048700000F0DFFA002000F0DCFAB62000F0E5FAE4
:10488000022000F0D6FA4FF4037000F0D2FA0020B4
:1048900000F0CFFA172000F0CCFA152000F0C9FA8A
:1048A000002000F0C6FA002000F0C3FAF02000F06B
:1048B000CCFA032000F0BDFA292000F0C6FAD0207F
:1048C00000F0C3FA002000F0B4FABE2000F0BDFAF8
:1048D000052000F0AEFAFE2000F0ABFA012000F057
:1048E000A8FA002000F0A5FA002000F0A2FA0020AB
:1048F00000F09FFAB82000F0A8FA032000F099FA1F
:10490000012000F096FABA2000F09FFA012000F092
:1049100090FA642000F04AF8B088504507D0A042D1
:1049200005D0B84203D0A84201D040451DD1D9F8E6
:104930001C21494622F00F02C9F81C21D9F81C217C
:1049400022F47062C9F81C21D9F81C2142F003023C
:10495000C9F81C21A042D9F81C0102D140F44070D2
:1049600001E040F40070C1F81C010020FDF73EFC9E
:1049700004490120C1F8BC025846FDF71DFC15B0E2
:10498000BDE8F08F008040420346012000E058431C
:10499000491EC9B2FBD2704708B54FF0D840B0F8F5
:1049A0008000ADF80000BDF8000008BD10B502465B
:1049B000BE2000F04AFA052000F03BFA104607F04E
:1049C00098FA9FED0C1B53EC112B07F0A5FA07F09A
:1049D00063FA80B200F02DFA012000F02AFAFF20DD
:1049E00000F027FA002000F024FABDE81040002073
:1049F00000F01FBA666666666666044070B5664C6F
:104A000000232146A279898841F66315012A01D045
:104A10001AB11BE0A94202D118E0A94216D1082818
:104A200014D2DFE800F00406080A0C0E101206206B
:104A30000CE007200AE0042008E0052006E0012041
:104A400004E0002002E0032000E00220082812D247
:104A5000DFE800F0110406080A0C0E1080230AE0BB
:104A6000402308E0C02306E0202304E0602302E0A6
:104A7000A02300E0E02345F21056B14202D14FF4EA
:104A8000585000E03620A1F51342413A03D0A1F579
:104A9000EE42893A01D143F00803194600F0ECF9DF
:104AA000A288AA420AD098062088618802D5884246
:104AB00002D303E0884201D9218060806089B2423C
:104AC00040D100F0C2F9002000F0B3F96089401C29
:104AD00080B200F0BAF9002000F0ABF96089801CC8
:104AE00080B200F0B2F92088401EC0F30F2000F021
:104AF000A0F96089C01C80B200F0A7F92078401EA0
:104B0000C0B200F096F9A08900F09FF9002000F0F3
:104B100090F9A089401C80B200F097F9002000F0C5
:104B200088F9A089801C80B200F08FF96088401E4F
:104B3000C0F30F2000F07DF9A089C01C80B200F006
:104B400084F921E000F081F9002000F072F90020E2
:104B500000F06FF92088401EC0F30F2000F069F9C3
:104B60002078401EC0B200F064F9A08900F06DF911
:104B7000002000F05EF9002000F05BF96088401E24
:104B8000C0F30F2000F055F9A078BDE87040401E3A
:104B9000C0B200F04EB90000B4030020F0B53A4DA9
:104BA0000C460246060AA9882846270A4089A1F52C
:104BB000C853633B16D0A1F5AA43103B4BD000F07D
:104BC00044F9304600F035F9D0B200F032F9A88946
:104BD00000F03BF9384600F02CF9E0B2BDE8F040B7
:104BE00000F027B9A97929B300F02FF9304600F079
:104BF00020F9D0B200F01DF92888401EC0F30F2024
:104C000000F017F92878401EC0B200F012F9A88908
:104C100000F01BF9384600F00CF9E0B200F009F999
:104C20006888401EC0F30F2000F003F9A878401EEA
:104C3000C0B2D3E72988891A491E8AB200F005F963
:104C4000002000F0F6F8002000F0F3F8100A00F061
:104C5000F0F8D0B2D9E700F0F8F8304600F0E9F803
:104C60006889401C80B200F0F0F8D0B200F0E1F8A2
:104C7000A88900F0EAF8384600F0DBF8A889401C63
:104C800080B200F0E2F8A8E7B40300202DE9F84F65
:104C900082461F460E468B46580700D0012000EB87
:104CA000D700790810FB01F0203AC0B202F0FF09EA
:104CB0000025009047E00C2F10D0102F12D0182F95
:104CC00014D0202F42D1224901EBC9104FF0000827
:104CD000445D200610D51F48026811E009EB490029
:104CE0001D4906E01D4901EB0910EFE71C4909EBDE
:104CF000C90001EB8000E9E70A9828B91548426825
:104D000031465046FDF7CEFA6006040E1548761C73
:104D1000B6B24088B04219D9A6EB0B00B84209D10F
:104D20000AF101001FFA80FA0E485E4601885145DB
:104D30000CD906E008F1010000F0FF08B8F1080FF7
:104D4000C7D36D1CEDB200988542B4D3BDE8F88F8F
:104D5000F6D800081C00002036C10008AAC50008CB
:104D60009ACB0008B40300202DE9FF4F81B0002743
:104D7000DDF838B01D46924680463C46B9464FEABB
:104D80005B0627E0281B401EC1B20A20FFF7FCFD8E
:104D9000BAFBF0F00A21B0FBF1F201FB120027B9D7
:104DA000691E8C4201DA48B101273030C2B206FBDD
:104DB000048080B25B46CDF8009006E006FB0480DC
:104DC00080B25B462022CDF800900299FFF75EFF8B
:104DD000641CE4B2AC42D5D305B0BDE8F08F2DE938
:104DE000F84F044600F0FF0810190D46DDE90A7679
:104DF0001FFA80FA58191FFA80F94FF0000B11E0E2
:104E0000544502D3E819444685B24D450FD23B467E
:104E100029462046CDF800B0FFF738FF04EB5700D5
:104E200084B2761C3278A2F120005E28E8D9BDE871
:104E3000F88F01B5BDF80000ADF80000BDF8000026
:104E40004FF0D841A1F8800008BD01B5BDF80000C1
:104E5000ADF80000BDF800004FF0D841A1F87E0089
:104E600008BD000003484FF0D8410089A1F87E003A
:104E700070470000B40300204FF0D84222F87E0FA4
:104E800051807047114810B5016886B041F020018B
:104E9000016000680E4C00F0200005904FF4C060E7
:104EA0000090012001900290032003906946204663
:104EB000FBF72AFE012251022046FBF705FF0122E3
:104EC00091022046FBF700FF06B010BD30380240CB
:104ED00000140240FEE7704770470A6842624A6861
:104EE0008262D1E902231A43D1E904310B43C16A3A
:104EF0001A4321F0F7011143C16200207047006896
:104F000000F00300704708B50844143000900068B2
:104F100008BD70B50DF1100C11439CE870002343DF
:104F2000194329434268314347F6FF639A430A43D2
:104F30004260002070BD0321016000207047D0F85E
:104F4000800070470A688260D1E901231A43D1E9E1
:104F500003310B43C1681A436FF30B011143C16066
:104F6000002070470968C0F880100020704710B515
:104F700086B0044600913721019140210020CDE9FF
:104F800002100801049069462046FFF7DBFF41F25A
:104F900088323721204600F0AFF906B010BD00007E
:104FA00010B50B4A86B0044611432920CDE9001004
:104FB0004020029000200390500D04906946204646
:104FC000FFF7C0FF204600F04DFA06B010BD00000C
:104FD0000000108010B586B00446009110210191A8
:104FE00040210020CDE902100801049069462046C6
:104FF000FFF7A8FF41F288321021204600F07CF92B
:1050000006B010BD10B586B004460091062101918E
:1050100040210020CDE90210080104906946204695
:10502000FFF790FF41F288320621204600F064F934
:1050300006B010BD30B585B0002504460095019539
:105040004FF480600295CDE9035069462046FFF792
:1050500079FF0B484FF4FA510068B0FBF1F141F2CF
:1050600088304143491E02D24FF0004505E0606B95
:105070000006F7D540F2FF50A06305B0284630BDCA
:105080000000002070B585B004464FF4D570009044
:1050900001A908204025002681E86100C001049094
:1050A00069462046FFF74EFF0F484FF4FA5100685B
:1050B000B0FBF1F041F288314843401E02D24FF07C
:1050C00000460DE0616B11F0450FF6D0606B4007B4
:1050D00002D5A563042603E0606B400600D5A563F6
:1050E00005B0304670BD00000000002010B586B04D
:1050F000044600911221019140210020CDE90210C7
:105100000801049069462046FFF71CFF41F28832EF
:105110001221204600F0F0F806B010BD10B586B0A0
:10512000044600911121019140210020CDE9021097
:105130000801049069462046FFF704FF41F28832D7
:105140001121204600F0D8F806B010BD10B586B089
:105150000446072140200092CDE901100020039071
:105160004FF48060049069462046FFF7EBFE41F261
:1051700088320721204600F0BFF806B010BD10B5F8
:1051800086B0002102220446C020CDE90201CDE90B
:1051900000125002049069462046FFF7D3FE2046D5
:1051A00000F038F906B010BD10B586B00446009185
:1051B00009210191C0210020CDE902104FF4806047
:1051C000049069462046FFF7BDFE204600F022F914
:1051D00006B010BD10B586B0002104464020332231
:1051E000CDE90201CDE90012000104906946204694
:1051F000FFF7A8FE41F288323321204600F07CF808
:1052000006B010BD10B586B0044600910D21019185
:1052100040210020CDE90210080104906946204693
:10522000FFF790FE41F288320D21204600F064F82D
:1052300006B010BD30B585B0054600230320CDE98A
:1052400000304020CDE9020300010C46049069467D
:105250002846FFF777FE22460321284600F022F970
:1052600005B030BD10B586B00021044640200C22A8
:10527000CDE90201CDE90012000104906946204603
:10528000FFF760FE034A0C21204600F035F806B017
:1052900010BD000000E1F50510B586B00446009190
:1052A0001921019140210020CDE90210080104904C
:1052B00069462046FFF746FE41F288321921204612
:1052C00000F01AF806B010BD10B586B00446009183
:1052D0001821019140210020CDE90210080104901D
:1052E00069462046FFF72EFE41F2883218212046FB
:1052F00000F002F806B010BD444B10B51B684FF427
:10530000FA54B3FBF4F353435B1E02D24FF0004058
:1053100010BD426B12F0450FF6D0426B520703D519
:1053200004218163084610BD426BD20702D00121DF
:10533000816303E00269D2B28A4201D0012010BD2C
:1053400040F2FF5181630021FFF7DDFD3049084243
:1053500001D1002010BD002802DA4FF0007010BD0E
:10536000410001D5402010BD810001D5802010BD35
:10537000C10002D54FF4807010BD010102D54FF479
:10538000007010BD410102D54FF4806010BDC10115
:1053900002D54FF4006010BD010202D54FF48050D9
:1053A00010BD410202D54FF4005010BD810202D55C
:1053B0004FF4804010BDC10202D54FF4004010BD33
:1053C000410302D54FF4003010BD810302D54FF4E4
:1053D000802010BDC10302D54FF4002010BD010490
:1053E00002D54FF4801010BD410402D54FF40010D7
:1053F00010BD810402D54FF4800010BD000702D516
:105400004FF4000010BD4FF4803010BD00000020AC
:1054100008E0FFFD12494FF4FA520968B1FBF2F1BE
:1054200041F288325143491E02D24FF0004070478A
:10543000426B12F0450FF6D0416B490703D50421AA
:10544000816308467047416BC90703D0012181631E
:105450000846704740F2FF5181630020704700000A
:10546000000000200E494FF4FA520968B1FBF2F136
:1054700041F288325143491E02D24FF0004070473A
:10548000426B12F0450FF6D0416B490703D504215A
:1054900081630846704740F2FF51816300207047E6
:1054A000000000201F4B10B51B684FF4FA54B3FBEB
:1054B000F4F341F2883463435B1E02D24FF00040A4
:1054C00010BD446B14F0450FF6D0436B5B0703D55A
:1054D00004218163084610BD436BDB0702D0012124
:1054E000816303E00369DBB28B4201D0012010BD70
:1054F00040F2FF5181630021FFF705FD10F4604F7A
:1055000004D0410406D54FF4005010BD000C1080AB
:10551000002010BD000402D54FF4805010BD4FF4A0
:10552000803010BD000000202DE9F04F89B00F46FB
:105530000446FBF7D5FB0025064606950795A846C9
:1055400008212068FFF746FD002835D1B4F8500047
:1055500001042068FFF70BFD00282DD1401E4FF0FD
:105560000809CDE9000930204FF0020ACDE9020A0E
:105570000120CDE9048069462068FFF7AEFC206871
:10558000FFF728FE002817D10DF1180840F22A4B2A
:105590002068416B11EA0B0F11D1416B890204D5D0
:1055A000FFF7CDFC48F825006D1CFBF799FB801B2D
:1055B000401CEDD14FF0004009B0BDE8F08F416BC9
:1055C000090703D5C0F838900820F5E7416B890733
:1055D00003D5C0F838A00220EEE7416B890603D559
:1055E000202181630846E7E740F2FF518163069876
:1055F00000BA7860079800BA38600020DCE7000045
:1056000010B50448FBF79DFF042801D0012010BD10
:10561000002010BD6C1400200F4810B50D4901602A
:10562000002141608160C160016141618161FBF7DE
:10563000A1FF08B1012010BD074907488431FBF7DD
:105640006EFF4FF400610448FBF740FE0028F2D0E3
:10565000022010BD002C01406C14002010B590B049
:1056600004460120ADF838002068FFF748FC002808
:1056700064D0606C032842D02068FFF780FD0028CA
:105680005AD100212068FFF73EFC606704212068A2
:10569000FFF739FCA06708212068FFF734FCE067BA
:1056A0000C212068FFF72FFCC4F88000606C0328F1
:1056B00025D00EA92068FFF7BDFD00283CD1606C05
:1056C00003281CD0BDF83800206501042068FFF7CE
:1056D0006BFD002830D100212068FFF714FC6066C4
:1056E00004212068FFF70FFCA06608212068FFF75F
:1056F0000AFCE0660C212068FFF705FC2067042106
:105700002068FFF700FC000DE06403A92046FBF7CA
:1057100019FEB4F85000002302042068FFF716FDBC
:10572000002809D104F1100007C88DE8070094E8AB
:105730000F00FFF7EEFB002010B010BD4FF08060AF
:10574000FAE72DE9F8430025044600950068FFF7C5
:1057500071FC00281AD12068FFF794FC4FF0807884
:105760004FF6FF76D8B14FF08057A5640098411CE2
:105770000091B0421AD000212068FFF7F8FB20B951
:1057800000212068FFF70CFC10B13846BDE8F88313
:1057900000212068FFF7B7FBC00FE7D01FE001270B
:1057A000A7640098411C0091B04201D14046EDE74A
:1057B00000212068FFF7DBFB0028E7D14FF0804194
:1057C0002068FFF7EDFB0028E0D100212068FFF7FB
:1057D0009AFBC10FE5D0400001D5676400E0656425
:1057E0000020D3E7F8B5164607460C4C0D46FAF7ED
:1057F00054FD33462A46394609480094FBF742FFD8
:10580000054602E0641E00D20125FFF7F9FE0028DC
:10581000F8D1FAF744FD2846F8BD000000E1F5058F
:105820006C1400201CB5044600200090019000215B
:105830002068FFF768FB800102D54FF400601CBDB3
:1058400069462046FFF770FE0028F8D10198C00392
:105850000CD5B4F8500001042068FFF788FB00283D
:10586000EDD100212068FFF7CDFB1CBD4FF080601B
:105870001CBD1CB50446002000900190002120684A
:10588000FFF741FB800102D54FF400601CBD694663
:105890002046FFF749FE0028F8D1019840030CD5B7
:1058A000B4F8500001042068FFF761FB0028EDD137
:1058B00002212068FFF7A6FB1CBD4FF080601CBDD5
:1058C000F8B5164607460C4C0D46FAF7E6FC33468B
:1058D0002A46394609480094FBF7AEFF054602E028
:1058E000641E00D20125FFF78BFE0028F8D1FAF7DD
:1058F000D6FC2846F8BD000000E1F5056C14002038
:1059000010B5124C1048022120604FF48270606084
:105910000020A060C4E90301012161614902A16185
:105920003821C4E907106062A0620720E0622046C7
:10593000FCF745F82068016841F040010160BDE8CE
:105940001040FF2000F004B8003001401404002093
:1059500001B582B04FF47A700090012301AA02A928
:105960000248FCF79BF89DF804000EBD14040020CB
:105970000B4A10B511680B6823F040030B601168E7
:105980000B684FF6C77423400B6011680B68034324
:105990000B601068016841F04001016010BD00001B
:1059A0001404002038B504461248134D4FF47A739E
:1059B0000068B0FBF5F0584300906068B0F5827F56
:1059C0000DD10B46009200228021204600F016F8EF
:1059D00070B1606D40F020006065032038BD009814
:1059E00030B1401E009020688068C0430006F6D5A4
:1059F000002038BD0000002000366E012DE9F04186
:105A00001D4617460E460446DDF8188008E0681C5F
:105A100006D0FBF765F9A0EB0800A8420BD255B100
:105A20002068806836EA000030D00020B842EED10D
:105A30000020BDE8F0812068416821F0E00141606C
:105A40006068B0F5827F0BD1A068B0F5004F02D03E
:105A5000B0F5806F04D12068016821F04001016039
:105A6000A06AB0F5005F09D12068016821F40051F7
:105A700001602068016841F400510160012084F850
:105A80005100002084F850000320D2E70120CDE728
:105A90002DE9F0470C46DDE90867002100258C461A
:105AA00000BF60E04FF0010808FA01F504EA050CB8
:105AB000AC4557D1D0F800804FEA410A4FF00309B6
:105AC00009FA0AF928EA0908C0F80080D0F800802D
:105AD0004FEA410902FA09F948EA0908C0F80080CA
