:020000040800F2
:100000007007002091010008B9120008290C0008AF
:100010008912000869070008D320000800000000CA
:10002000000000000000000000000000F5170008BC
:100030006D070008000000006D170008091900088E
:10004000AB010008AB010008AB010008AB010008E0
:10005000AB010008AB010008AB010008AB010008D0
:10006000AB010008AB010008AB010008AB010008C0
:10007000AB010008AB010008AB010008AB010008B0
:10008000AB010008AB010008AB010008AB010008A0
:10009000AB010008AB010008AB01000871070008C4
:1000A000AB010008AB010008AB010008AB01000880
:1000B000AB010008AD1B0008C91B0008AB0100081C
:1000C000AB010008AB010008AB010008AB01000860
:1000D000AB010008ED1F0008AB010008AB010008F0
:1000E000AB010008AB010008AB01000800F002F80A
:1000F00000F03FF80AA090E8000C82448344AAF183
:100100000107DA4501D100F034F8AFF2090EBAE880
:100110000F0013F0010F18BFFB1A43F0010318473B
:10012000B0760000D0760000103A24BF78C878C1BD
:10013000FAD8520724BF30C830C144BF04680C60ED
:10014000704700000023002400250026103A28BF35
:1001500078C1FBD8520728BF30C148BF0B60704739
:10016000642900F06780002070471FB51FBD10B5DF
:1001700010BD00F0CBFA1146FFF7F7FF03F00AFEBF
:1001800000F0E9FA03B4FFF7F2FF03BC02F0C5F890
:100190000948804709480047FEE7FEE7FEE7FEE71B
:1001A000FEE7FEE7FEE7FEE7FEE7FEE70448054957
:1001B000054A064B704700000D190008ED000008C5
:1001C00070010020700700207003002070030020E1
:1001D000704710B54C1084EA530404D54042C1F175
:1001E000000138BF491E1B4204D55242C3F100032F
:1001F00038BF5B1E00F02EF914F0804F04D040424F
:10020000C1F1000138BF491E14F0004F04D0524222
:10021000C3F1000338BF5B1E10BD00000FB40449DA
:1002200010B503AA029800F0F1F910BC5DF814FBB8
:10023000480000202DE9F041064600241068752989
:10024000314616A510D0AFF30080002802DA4042F4
:1002500013A507E031688A0701D512A502E0490716
:1002600004D511A5012401E0AFF3008000210A228A
:1002700006F1240709E0B0FBF2FCB0FBF2F302FB4D
:100280001C00303078541846491C0028F3D123460E
:100290002A463046BDE8F04100F05EB9000000009B
:1002A0002D0000002B000000200000002DE9F05F71
:1002B000894604464FF0000ADFF824B1FB44C0F839
:1002C00020A02046E168884700287DD0252806D058
:1002D000D4E901219047206A401C2062F1E7002503
:1002E0005F462046E16888472028064607DB312E16
:1002F00005D2B81910F8200C08B10543F1E7A8079A
:1003000001D525F00405C4F81CA00027C4F818A0E6
:100310002A2E09D0304601F0F9FF38B304EB8708E4
:10032000303EC8F8186019E059F8041B204604EB69
:1003300087029161E1688847012F064618D1E0697C
:10034000002820DA25F020051DE0D8F8180000EB81
:10035000800006EB40003038C8F818002046E168FD
:100360008847064601F0D2FF0028EED1012F0AD0BF
:100370002E2E08D12046E16888477F1C0646022FB2
:1003800045F02005C4DBA069002803DA404245F0AF
:100390000105A061E80701D025F01005A6B1A6F17E
:1003A0004100192802D8203645F400654A463146F6
:1003B000204625604D46FFF7D3FE60B1012807D0E7
:1003C000ED1D25F0070000E007E000F1080978E7DF
:1003D00005F1040975E730467AE7206ABDE8F09F29
:1003E000BA73000040EA010310B59B070FD1042A3D
:1003F0000DD310C808C9121F9C42F8D020BA19BAF0
:10040000884201D9012010BD4FF0FF3010BD1AB154
:10041000D30703D0521C07E0002010BD10F8013BA9
:1004200011F8014B1B1B07D110F8013B11F8014BD0
:100430001B1B01D1921EF1D1184610BD02F0FF0323
:1004400043EA032242EA024200F0F4B870477047E0
:100450007047704753EA020C00F069802DE9F04BB9
:100460004FF00006002B1FBFB3FA83F503FA05F423
:1004700024FA05F65E4012BF1643B2FA82F502FA7C
:1004800005F4C5F120051EBF22FA05FC44EA0C0460
:10049000203556EA044C4FEA144418BF641C4FF050
:1004A00000084FF00009904271EB030C39D300298A
:1004B00019BFB1FA81F701FA07F6B0FA80F700FA2E
:1004C00007F6C7F120071EBF20FA07FC46EA0C0614
:1004D0002037B6FBF4FCA7EB0507103F07F01F0B16
:1004E000CBF120060CFA0BFB2CFA06F644BFB34600
:1004F0000026202FA4BF5E464FF0000B5BEA060CDF
:1005000008BF4FF0010B19EB0B09ABFB027C48EB6A
:100510000608C01B06FB02CC0BFB03CC71EB0C01E5
:10052000C1E70B46024641464846BDE8F08B13B58D
:100530004FF000004FF00001AFF30080BDE81C4019
:10054000704710B500F096F8006810BD10B504466D
:1005500000F090F8046010BD2DE9F0470D46994673
:100560009246044600F124080168880604D5E06933
:1005700021F01001216000E00120A84201DD471BAD
:1005800000E00027A1697A1902EB0900081AA061AE
:100590002078C00602D42046AFF30080002608E091
:1005A000D4E901211AF806009047206A401C761C05
:1005B00020624E45F4DB2078C0060AD52046AFF312
:1005C000008006E0D4E9012130209047206A401CD9
:1005D0002062381EA7F10107F4DC07E0D4E901210D
:1005E00018F805009047206A401C2062281EA5F1DB
:1005F0000105F3DC2046AFF300802078000602D529
:100600000220BDE8F0870120FBE70000074B70B532
:100610000D467B4400F037F80446284600F046F8C3
:1006200010B14FF0FF3070BD204670BDB7300000F4
:100630004FF000020429C0F0128010F0030C00F00B
:100640003B80CCF1040CBCF1020F18BF00F8012B69
:10065000A8BF20F8022BA1EB0C0100F02DB85FEA37
:10066000C17C24BF00F8012B00F8012B48BF00F823
:10067000012B7047004870471001002001694A1C97
:1006800002610878704700B58FB0CDE901310021D3
:10069000059105497944CDE9031011466846FFF7F5
:1006A00005FE0FB000BD0000E5FFFFFF007B00F07E
:1006B000800070474FF0000200B5134694469646FE
:1006C000203922BFA0E80C50A0E80C50B1F1200165
:1006D000BFF4F7AF090728BFA0E80C5048BF0CC013
:1006E0005DF804EB890028BF40F8042B08BF704771
:1006F00048BF20F8022B11F0804F18BF00F8012BE3
:100700007047000000487047100100207546FFF751
:10071000F9FFAE4605006946534620F007008546BE
:1007200018B020B5FFF742FDBDE820404FF00006AD
:100730004FF000074FF000084FF0000B21F00701C9
:10074000AC46ACE8C009ACE8C009ACE8C009ACE80C
:10075000C0098D46704710B50446AFF300802046AF
:10076000BDE81040FFF70EBD00BFFEE77047000078
:100770002DE9F041202000F0A5F8002873D03B4877
:10078000006800286ED1202000F096F8022001F0C9
:100790000FF8404236490860042001F009F8354955
:1007A0000860354A3549364803F078FB354A364902
:1007B000364800F01BFB364A3649374800F0EEFA5F
:1007C0003248B0F9000005F0F1FB064633480068F6
:1007D00005F0ECFB074632480168384605F046FA5A
:1007E0000546324625480168284601F0EFFC2B49B2
:1007F0000860204801681E48006801F06DFC294926
:1008000008602048B0F9000001F0DAFB26490860D2
:100810002448006805F0CAFB804624480168404629
:1008200005F024FC06461D48006805F0BFFB07469E
:10083000314605F019FD054605F07CFB04461A48D3
:100840000068201A1A4908601748006820441949AE
:100850000860174800F0EAF9164801681448006873
:1008600000F00AFA00BFBDE8F081000014812142C7
:10087000180000201C0000200800002004000020B8
:1008800000000020100000200E0000200C000020BE
:10089000160000201400002012000020A0000020FC
:1008A00088000020A4000020A80000208C00002068
:1008B000280000202C00002001490860704700003B
:1008C00014040140014600200022074B1B6803EA84
:1008D0000102054B14331B680B4013B10AB1012010
:1008E00000E000207047000000040140002123497F
:1008F0008279002A3AD00A46126803689A430B4666
:100900001A600A1D126803689A430B1D1A60027967
:1009100011440A6803681A430A60184A08321268C8
:1009200003689A43154B08331A601A1D126803684E
:100930009A43124B0C331A604279102A0ED11A1FB7
:10094000126803681A430D4B08331A601A1D1268A7
:1009500003681A43094B0C331A600DE007494279CA
:1009600011440A6803681A430A6005E002791144D9
:100970000A6803689A430A60704700000004014057
:1009800000B587B00121042000F002FF0121022000
:1009900000F0EEFE04208DF81B00C020ADF818001A
:1009A00006A91C4800F0B0F803A801F0FFFA0020E7
:1009B000ADF81200ADF80E004FF6FF70ADF8100064
:1009C0000020ADF80C0003A9134801F09DFA0023A4
:1009D0001A460321104801F023F9684601F0ACF9EA
:1009E0000A20ADF8080069460B4801F04FF90121D3
:1009F000094801F003F901221146074801F0A5F961
:100A00000021054801F052FA0121034801F0FCF8E9
:100A100007B000BD000801400004004000B587B0E9
:100A20000121082000F0B4FE0121042000F0A0FE06
:100A300004208DF81B00C020ADF8180006A91C4842
:100A400000F062F803A801F0B1FA0020ADF812003E
:100A5000ADF80E004FF6FF70ADF810000020ADF8B5
:100A60000C0003A9134801F04FFA00231A46032192
:100A7000104801F0D5F8684601F05EF90A20ADF89B
:100A8000080069460B4801F001F90121094801F00D
:100A9000B5F801221146074801F057F90021054831
:100AA00001F004FA0121034801F0AEF807B000BDDF
:100AB000000C0140000800400146002901DD0A4603
:100AC00000E04A421046704730B500228B071C0FE9
:100AD0000F2303FA04F20B4B8C1053F8243093438A
:100AE000084C8D1044F8253023468C1053F82430E0
:100AF0008C07240F00FA04F42343024C8D1044F8B1
:100B0000253030BD080001402DE9F04102460025A6
:100B10000026002000230024002791F803C00CF0D9
:100B20000F0591F803C00CF0100CBCF1000F03D0BE
:100B300091F802C04CEA050591F800C0BCF1000F25
:100B400031D0146800202BE04FF0010C0CFA00F3B8
:100B5000B1F800C00CEA03069E4220D183004FF09A
:100B60000F0C0CFA03F7BC4305FA03FC4CEA04042F
:100B700091F803C0BCF1280F06D14FF0010C0CFA1C
:100B800000FCC2F814C00AE091F803C0BCF1480FA1
:100B900005D14FF0010C0CFA00FCC2F810C0401C4B
:100BA0000828D1D31460B1F800C0BCF1FF0F34DDC8
:100BB000546800202EE000F1080C4FF0010808FAFC
:100BC0000CF3B1F800C00CEA03069E4221D1830069
:100BD0004FF00F0C0CFA03F7BC4305FA03FC4CEA88
:100BE000040491F803C0BCF1280F05D100F1080CF2
:100BF00008FA0CF8C2F8148091F803C0BCF1480F51
:100C000007D100F1080C4FF0010808FA0CF8C2F8FF
:100C10001080401C0828CED35460BDE8F0810AB192
:100C2000016100E04161704700BFFEE7104B0268C0
:100C30001B689A4202DD0E4A126802600D4B026880
:100C40001B689A4202DA0B4A12680260084B0A6873
:100C50001B689A4202DD064A12680A60054B0A6860
:100C60001B689A4202DA034A12680A607047000061
:100C7000200000202400002070B505460C46002D01
:100C800007DD01201849086000201849C1F88801D3
:100C900006E000201449086001201449C1F88801C9
:100CA0002846FFF709FF86B23146114801F0F7F8F0
:100CB000002C08DD01200C49091D086000200B49AB
:100CC000C1F8940107E000200749091D08600120D0
:100CD0000649C1F894012046FFF7EEFE86B2314680
:100CE000034801F0E0F870BD8C0121420000214270
:100CF000002C01400EB50121092000F049FD4820DB
:100D00008DF803002020ADF8000003208DF80200CC
:100D100069460B48FFF7F8FE05210120FFF7D4FED6
:100D20002020019001208DF80A0000208DF8080095
:100D30000C208DF8090001A8FFF7D8FD0EBD0000BA
:100D4000000C014008B50121082000F021FD4FF4FE
:100D50000060ADF8000004208DF8030003208DF83A
:100D6000020069460148FFF7CFFE08BD000C0140B4
:100D700008B50121082000F00BFD4FF40060ADF82C
:100D8000000010208DF8030003208DF80200694652
:100D90000148FFF7B9FE08BD000C01402DE9FC41F8
:100DA00004460D4616466B4606223B21682000F09D
:100DB00095F90746BFB99DF801009DF8001040EA7B
:100DC000012000B220809DF803009DF8021040EA47
:100DD000012000B228809DF805009DF8041040EA2B
:100DE000012000B230803846BDE8FC812DE9FC418D
:100DF00004460D4616466B4606224321682000F045
:100E00006DF90746BFB99DF801009DF8001040EA52
:100E1000012000B220809DF803009DF8021040EAF6
:100E2000012000B228809DF805009DF8041040EADA
:100E3000012000B230803846BDE8FC8110B50020AA
:100E400009490860FFF794FF00200849C1F8AC0188
:100E500000F00EF801200449086000F009F80020B5
:100E60000249C1F8A80110BDA88121420080214299
:100E700010B5022001F02AFE10BD000008B50121C6
:100E8000082000F085FC4FF44060ADF80000102011
:100E90008DF8030003208DF8020069460148FFF732
:100EA00033FE08BD000C014010B500200949086060
:100EB000FFF75EFF01200849C1F8AC01FFF7D8FF3A
:100EC000012004490860FFF7D3FF00200249C1F860
:100ED000A80110BDA88121420080214270B50546BD
:100EE0000024FFF72FFF002614E000200E490860C1
:100EF000FFF7BEFF01200D49C1F8A8016006040EEE
:100F000009487C38006808B1601CC4B2FFF7B0FF24
:100F1000701CC6B2082EE8DB15B9FFF7C5FF01E06B
:100F2000FFF78CFF204670BDA8812142008021423E
:100F300070B50446FFF71CFF00200D49086000252E
:100F400012E0E0090A49091D08606006040E01204C
:100F50000849C1F8A801FFF78BFF00200449086089
:100F6000FFF786FF681CC5B2082DEADB70BD0000E4
:100F7000A88121420080214210B5FFF7F9FE01202F
:100F8000084908600849C1F8A801FFF771FF00206F
:100F900004490860FFF76CFF00200349C1F8A8016D
:100FA00010BD0000AC8121420080214210B5FFF746
:100FB000DFFE0020074908600749C1F8AC01FFF7D0
:100FC00057FF0120034908600349C1F8AC01FFF74E
:100FD0004FFF10BDA88121420080214210B500249E
:100FE000FFF7B0FE01200E490860FFF741FF012026
:100FF0000C49C1F8A801FFF73BFF07E0601CC4B231
:10100000FA2C03DDFFF7D2FF012010BD0448803821
:1010100000680028F2D10249091F086000BFF4E708
:10102000AC8121420080214210B5FFF727FF8021CB
:101030006B2000F0D7F8642001F022FD00216B2026
:1010400000F0D0F8032000F08BF8002000F080F8CA
:10105000C82000F0AAF80021382000F0C3F80021D1
:101060006A2000F0BFF80021232000F0BBF88021A7
:10107000372000F0B7F8752000F013F80446682C0C
:101080000BD101216B2000F0ADF800216C2000F0A5
:10109000A9F8642000F089F801E0012010BD0020CB
:1010A000FCE770B50446FFF767FFD020FFF740FF6D
:1010B000FFF794FF2046FFF73BFFFFF78FFFFFF797
:1010C0005BFFD120FFF734FFFFF788FF0020FFF719
:1010D00005FF0546FFF76AFF284670BD2DE9F04180
:1010E00006460F4614461D46FFF746FF002141EA1B
:1010F0004601C8B2FFF71CFFFFF770FF20B1FFF7F2
:1011000055FF0120BDE8F0813846FFF711FFFFF7DA
:1011100065FFFFF731FF012101EB4601C8B2FFF780
:1011200007FFFFF75BFF0DE0012C04D10020FFF764
:10113000D5FE287003E00120FFF7D0FE2870601E66
:10114000C4B26D1C002CEFD1FFF730FF0020D9E7AF
:1011500010B50446E006010E1C2000F043F810BD57
:1011600010B50446E006010E1B2000F03BF810BD50
:1011700070B504460025BC2C01DB012510E0622C73
:1011800001DB02250CE02A2C01DB032508E0142CEE
:1011900001DB042504E00A2C01DB052500E006251F
:1011A00029461A2000F01EF870BD70B50446B4F54B
:1011B0007A7F01DD4FF47A74042C00DA04244FF4B2
:1011C0007A7090FBF4F0401EC5B22946192000F059
:1011D00009F80546264604EBD671C1F34F00FFF728
:1011E000C7FF70BD70B505460C46FFF7C5FED020A1
:1011F000FFF79EFEFFF7F2FE18B1FFF7D7FE0120C2
:1012000070BD2846FFF794FEFFF7E8FE2046FFF783
:101210008FFEFFF7E3FE18B1FFF7C8FE0120EFE7EE
:10122000FFF7C4FE0020EBE72DE9F04105460E462E
:1012300017469846FFF7A0FE002141EA4501C8B2D3
:10124000FFF776FEFFF7CAFE20B1FFF7AFFE0120E1
:10125000BDE8F0813046FFF76BFEFFF7BFFE0024CC
:101260000CE018F80400FFF763FEFFF7B7FE18B1B3
:10127000FFF79CFE0120EBE7601CC4B2BC42F0DB30
:10128000FFF794FE0020E3E700BFFEE708B5012169
:10129000042000F07DFA10208DF803003C20ADF80A
:1012A000000003208DF8020069460248FFF72CFC7D
:1012B00008BD000000080140704708B54FF4A06069
:1012C00000F056F817208DF8000001208DF803007B
:1012D00000208DF801008DF80200684600F010F83B
:1012E00025208DF8000001208DF8030002208DF8E4
:1012F00001008DF80200684600F002F808BD000009
:1013000070B5002100230F22C47804B3154C246863
:1013100004F4E064C4F5E064210AC1F10403CA40A6
:10132000447804FA03F184781440214309010E4CF7
:101330000678A155047804F01F050124AC40057817
:101340006D11AD0005F1E025C5F8004109E0047814
:1013500004F01F050124AC40044D0678761145F8D1
:10136000264070BD0CED00E000E400E080E100E00C
:1013700002490143024A1160704700000000FA056B
:101380000CED00E070B500240EE00021204600F0D6
:10139000F0F8002504E0002000F079F9681CC5B2DF
:1013A000802DF8DB601CC4B2082CEEDB70BD0000A1
:1013B00008B50121082000F0EBF914208DF8030096
:1013C00003208DF802004FF48070ADF800006946EC
:1013D0000A48FFF799FB4FF40070ADF8000069462A
:1013E0000648FFF791FB012211020448FFF717FCA2
:1013F000012251020148FFF712FC08BD000C014018
:1014000070B50546002415E08020204100EA050261
:101410004FF400710E48FFF702FC012211020C4844
:10142000FFF7FDFB00224FF480710948FFF7F7FB3F
:10143000601CC4B2082CE7DB012211020448FFF74C
:10144000EEFB00224FF480710148FFF7E8FB70BD0E
:10145000000C014010B5012251020A48FFF7DFFBE2
:10146000012211020748FFF7DAFB00224FF4007156
:101470000448FFF7D4FB00224FF480710148FFF7C6
:10148000CEFB10BD000C014010B500224FF40071DE
:101490000648FFF7C4FB012211020448FFF7BFFB17
:1014A000012251020148FFF7BAFB10BD000C0140B8
:1014B00070B5002406E0002500E06D1CB5F57A7FCC
:1014C000FBD3641CB4F57A7FF5D3FFF771FFAE2030
:1014D00000F0CDF8D52000F0CAF8802000F0C7F861
:1014E000A82000F0C4F83F2000F0C1F8D32000F09D
:1014F000BEF8002000F0BBF8402000F0B8F8A120B2
:1015000000F0B5F8C82000F0B2F8DA2000F0AFF82B
:10151000122000F0ACF8812000F0A9F8CF2000F0F4
:10152000A6F8D92000F0A3F8F12000F0A0F8DB2005
:1015300000F09DF8302000F09AF8A42000F097F811
:10154000A62000F094F88D2000F091F8142000F00F
:101550008EF8AF2000F08BF8FFF714FF70BD10B5C8
:101560000246012000E050430B1EA1F10101FAD117
:1015700010BD70B505460C4645F0B00000F077F898
:10158000102141EA141000F072F804F00F0000F08E
:101590006EF870BD2DE9F04105460E461746721EE5
:1015A000D206110E6A1E5206100EFFF7E2FF00244B
:1015B00009E0A7F12001134A02EB0111085D00F0D8
:1015C00066F8601CC4B2082CF3DB721ED206110E42
:1015D0006A1E012303EB4202D0B2FFF7CAFF0024C8
:1015E0000BE0A7F12001074A02EB011204F1080108
:1015F000505C00F04CF8601CC4B2082CF1DBBDE874
:10160000F08100008A7000082DE9F0478146884685
:1016100015461E46002D06DB2B2241464846FFF7A5
:10162000B9FF2F4605E02D2241464846FFF7B2FF9D
:101630006F42002417E0301B411E0A20FFF78FFF86
:10164000B7FBF0F00A21B0FBF1F201FB120000F150
:10165000300A08EB0400401CC1B252464846FFF76E
:1016600099FF601CC4B2B442E5DBBDE8F08710B559
:101670000446FFF7EFFE7820FFF7C2FE0020FFF7D9
:10168000BFFE2046FFF7BCFEFFF7FEFE10BD10B503
:101690000446FFF7DFFE7820FFF7B2FE4020FFF799
:1016A000AFFE2046FFF7ACFEFFF7EEFE10BD0000D8
:1016B00030B589B004460D460121052000F068F8D8
:1016C00018208DF823000320ADF820008DF82200AB
:1016D00008A92448FFF718FA05A800F067FC0020C5
:1016E000ADF81A00ADF81600ADF81850ADF814407A
:1016F00005A91D4800F008FC6020ADF8040000209A
:10170000ADF80C000120ADF806000020ADF80A008D
:1017100001A94FF0804000F021FB01A94FF080406B
:1017200000F072FB0121880700F05CFA0821C8066E
:1017300000F060FB0821C80600F0A4FB4FF4FA613A
:10174000880600F0ACFB4FF4FA61880600F0A9FBB4
:101750000121880700F046FA0121880700F054FAB9
:1017600009B030BD00080140002C01407047000066
:1017700029B1064AD2690243044BDA6104E0034A04
:10178000D2698243014BDA617047000000100240C9
:1017900029B1064A92690243044B9A6104E0034A64
:1017A00092698243014B9A61704700000010024029
:1017B00070B50546032D02D0042D12D108E00B4868
:1017C00000F04FFA04B20021084800F06FFB0AE075
:1017D000074800F046FA04B20021054800F066FB15
:1017E00001E0002400BF00BF204670BD000400409F
:1017F00000080040704710B500F002F810BD00006E
:101800000CB50020019000903348006840F480300F
:101810003149086000BF3048006800F40030009093
:101820000198401C0190009818B90198B0F5A06F7C
:10183000F1D12948006800F4003010B10120009077
:1018400001E0002000900098012843D1234800685F
:1018500040F01000214908600846006820F00300AD
:1018600008600846006840F0020008601A484068B6
:10187000194948600846406848600846406840F496
:10188000806048600846406820F47C104860084644
:10189000406840F4E81048600846006840F08070F6
:1018A000086000BF0C48006800F000700028F9D004
:1018B0000948406820F0030007494860084640682E
:1018C00040F00200486000BF0348406800F00C0090
:1018D0000828F9D10CBD0000001002400020024091
:1018E000042808D14FF0E021096941F004014FF0CC
:1018F000E022116107E04FF0E021096921F00401C5
:101900004FF0E022116170477047000010B5134896
:10191000006840F00100114908600846406810491D
:1019200008400E494860084600680E4908400B49C7
:1019300008600846006820F4802008600846406877
:1019400020F4FE0048604FF41F008860FFF753FF4B
:101950004FF000600449086010BD00000010024014
:101960000000FFF8FFFFF6FE08ED00E0F0B50C46C2
:10197000154600220021068C4FF6FE773E40068475
:10198000028B018C4FF60C7632407E1C06EA031661
:101990002E433243104EB0420ED0104EB0420BD008
:1019A000B0F1804F08D00E4EB04205D00D4EB0427F
:1019B00002D00D4EB04206D14FF6FD76314044F0D4
:1019C0000106314305E04FF6F576314044F001065B
:1019D000314302830184F0BD002C014000340140FA
:1019E0000004004000080040000C0040F0B50C4628
:1019F0001546002200210026078C4FF6EF7C07EAEF
:101A00000C070784028B018C4FF6FF7707EA041658
:101A100040F6FF473A404FF6FF7707EA03373A436D
:101A20004FF6FF7707EA05273A43114FB8420ED029
:101A3000104FB8420BD0B0F1804F08D00E4FB842D3
:101A400005D00E4FB84202D00D4FB84206D14FF626
:101A5000DF77394046F01007394305E04FF65F77EE
:101A6000394044F01007394302830184F0BD00007F
:101A7000002C0140003401400004004000080040F8
:101A8000000C0040F0B50C4615460022002100264F
:101A9000078C4FF6FF6C07EA0C070784828B018CDA
:101AA0004FF6FF7707EA04264FF60C773A404FF6D9
:101AB000FF7707EA03172F433A43114FB8420ED07E
:101AC000104FB8420BD0B0F1804F08D00E4FB84243
:101AD00005D00E4FB84202D00D4FB84206D14FF696
:101AE000FF57394046F48077394305E04FF2FF57FE
:101AF000394044F48077394382830184F0BD00008B
:101B0000002C014000340140000400400008004067
:101B1000000C0040F0B50C461546002200210026BE
:101B2000078C4EF6FF7C07EA0C070784828B018C3A
:101B30004FF6FF7707EA043640F6FF473A404FF684
:101B4000FF7707EA05273A434FF6FF7707EA03379F
:101B50003A43114FB8420ED0104FB8420BD0B0F1FB
:101B6000804F08D00E4FB84205D00E4FB84202D079
:101B70000D4FB84206D14DF6FF77394046F48057F5
:101B8000394305E047F6FF57394044F4805739435D
:101B900082830184F0BD0000002C0140003401402C
:101BA0000004004000080040000C004010B5012176
:101BB000044800F059F818B10121024800F021F85A
:101BC00010BD00000004004010B50121044800F0E1
:101BD0004BF818B10121024800F013F810BD0000C5
:101BE0000008004021B1028842F08002028004E037
:101BF00002884FF67F731A4002807047CA43028200
:101C00007047CA430282704721B1028842F0010244
:101C1000028004E002884FF6FE731A40028070478B
:101C2000F0B50C4615461E4600210022002301890E
:101C3000028B038C4FF6F877394021434FF6FC476F
:101C40003A4040F201173A434FF6DD773B404FF6FA
:101C5000FF7707EA06172F433B4301810283038482
:101C6000F0BD0146888C704730B502460020002345
:101C70000024158A05EA0103958905EA010413B1D8
:101C80000CB1012000E0002030BD000070B5054619
:101C90000C46244885420ED0234885420BD0B5F12E
:101CA000804F08D02148854205D02148854202D086
:101CB0002048854200D100E000BF208850B9238928
:101CC000A28861882846FFF751FEE188284600F087
:101CD000EFF825E0208804280AD12389A2886188AA
:101CE0002846FFF783FEE188284600F0EAF817E06F
:101CF000208808280AD12389A28861882846FFF70E
:101D0000C1FEE188284600F0E9F809E02389A288AD
:101D100061882846FFF7FEFEE188284600F0E7F8D4
:101D200070BD0000002C0140003401400004004060
:101D300000080040000C004000210180418001218A
:101D400081800021C180018170471AB183890B43D2
:101D5000838102E083898B438381704770B50024BF
:101D600000220023058C4FF6FE7635400584028C58
:101D70008388048B4FF68F752C40B51E2C400D8840
:101D80002C43751E2A400D892A434D882A43144D41
:101D9000A8420BD0134DA84208D0134DA84205D03D
:101DA000124DA84202D0124DA84213D14FF6F7753A
:101DB0002A404D892A434FF6FB752A408D882A43D5
:101DC0004FF6FF652B404FF6FF552B408D892B4377
:101DD000CD892B4383800483CD888586028470BDA2
:101DE000002C01400034014000400140004401400B
:101DF000004801400A460021018B4FF6F773194055
:101E0000114301837047000070B5002200230024B5
:101E1000058C4EF6FF7635400584038C8488828BD2
:101E200048F6FF752A404FF6FF452A400D884FF6C9
:101E3000FF7606EA05252A434DF6FF752B400D89EE
:101E400006EA05352B434D8806EA05352B430B4D35
:101E5000A84202D00A4DA84208D14BF6FF752C408B
:101E60008D894FF6FF7606EA85152C4384808283A0
:101E7000CD88A0F84050038470BD0000002C0140C4
:101E8000003401400A460021818B4FF2FF73194054
:101E90004FF6FF7303EA022319438183704781865B
:101EA000704701877047A0F84010704781847047E1
:101EB000028B4FF6F3731A400283028B0A430283AC
:101EC0007047028B4FF2FF331A400283028B4FF6AA
:101ED000FF7303EA01231A4302837047828B4FF694
:101EE000F3731A408283828B0A4382837047828B0A
:101EF0004FF2FF331A408283828B4FF6FF7303EA5F
:101F000001231A4382837047002202881D4B9842A6
:101F10000ED01D4B98420BD0B0F1804F08D01B4B18
:101F2000984205D01A4B984202D01A4B984204D1DD
:101F30004FF68F731A404B881A43174B984207D0BD
:101F4000164B984204D04FF6FF431A40CB881A43F1
:101F500002808B8883850B8803850A4B98420BD0BF
:101F6000094B984208D00E4B984205D00D4B984231
:101F700002D00D4B984201D10B7A03860123838254
:101F800070470000002C0140003401400004004074
:101F900000080040000C0040001000400014004009
:101FA0000040014000440140004801404FF6FF71ED
:101FB000818000210180C180418001727047000052
:101FC0002DE9F0410446204603F0F0FF074606489D
:101FD0000168384604F04AF8064603F0ABFF0546B0
:101FE0002846BDE8F08100009C00002010B540F2BA
:101FF00025511D4800F03EF810B31B4800F064F86E
:10200000C4B21A48007800F08000C8B917480078B8
:1020100000F0400060B10A2C03D000201349087082
:1020200020E01248007840F080001049087019E064
:102030000D2C06D10D48007840F040000B49087087
:1020400010E00A48007800F03F0009490C540748A6
:102050000078401C05490870084600783F2801DDDB
:102060000020087010BD0000003801404C00002026
:10207000C000002070B50246002400230025002087
:1020800040F66A16B14200D100BFC1F3421501F01B
:102090001F03012606FA03F3012D02D1968933406E
:1020A00006E0022D02D1168A334001E0968A3340C1
:1020B0000C12012606FA04F41688344013B10CB150
:1020C000012000E0002070BD01468888C0F30800B0
:1020D000704700BFFEE700002DE9F05F04460D46A3
:1020E000314E6019314908603148006803F05EFFE5
:1020F0008246314603F0BAFF80462C48006803F060
:1021000055FF824631464FF07E5004F0ADF88346CD
:10211000514603F0ABFF8146414603F0A7FD074659
:1021200003F008FF2349086008460068204908605A
:10213000214800681F49096808441F49086008468B
:10214000006842F21071884201DD084608E01A4832
:1021500000681A49884201DA084601E0164800681A
:10216000154908600846006803F020FF82461448BD
:102170000168504603F07AFF80460E48006803F07D
:1021800015FF82460F480168504603F06FFF8146F5
:10219000414603F06BFD074603F0CCFE0A49086098
:1021A00008460068BDE8F09F3333333FB00000209D
:1021B000BC000020B8000020B4000020F0D8FFFFD1
:1021C0009800002094000020AC0000202DE9F05F72
:1021D00083460D4614460021204604F045F8824609
:1021E0000A480168504603F041FF804629460848E6
:1021F000006803F03BFF8146414603F037FD074688
:1022000003F098FE06463046BDE8F09F900000209F
:102210008C000020490050EAC12018BF04204A0D5C
:1022200018BF40F0010040F2FF72B2EB515F08BFEF
:1022300040F00200012808BF052070472DE9F04159
:102240004F1E00EBC7010446D1E9000115461E46AA
:1022500037F006020DD02A46334603F001FA7F1EFE
:1022600004EBC703D3E9002302F0F2FF37F00602C4
:10227000F1D1022F25D0042F13D0062F18BFBDE8AF
:10228000F0812A46334603F0EBF9D4E90A2302F041
:10229000DFFF2A46334603F0E3F9D4E9082302F0CE
:1022A000D7FF2A46334603F0DBF9D4E9062302F0D0
:1022B000CFFF2A46334603F0D3F9D4E9042302F0D2
:1022C000C7FF2A46334603F0CBF9D4E9022302F0D4
:1022D000BFFF2A46334603F0C3F9D4E90023BDE823
:1022E000F04102F0B5BF012204F065B802F0B0BFC2
:1022F000002213461046114603F05AB8024A002045
:10230000110704F058B8000001FDFFFF30380A281B
:1023100001D2012070470020704700BF70470000C5
:102320002DE9FE4F06460F460025684601F0DCF910
:10233000002442E056F8240057F82410A0EB010ACC
:10234000BAF1000F01DB514601E0CAF10001084675
:1023500003F02CFE83464FF08F4103F0F5FC8046DE
:102360005DF82400002103F0B1FD16D05DF82410C3
:10237000404603F0E9FC82464FF07E5103F074FFC3
:10238000814629F0004A0F48416A504603F03AFF5F
:1023900012D20120A04005430EE00A48C169404620
:1023A00003F030FE05D30748016A404603F02AFFD8
:1023B00002D20120A0400543641C032CBADB28464E
:1023C000BDE8FE8F6C6400082DE9F04D8D4F21F0C3
:1023D000004A86B005460C46BA452ADBAAEB070040
:1023E00028430AD08848824501DC1AD1CDB106B015
:1023F0002846BDE8F04DFFF776BF844A844B284657
:1024000003F02EF907460E46824A834B28462146A2
:1024100003F026F906B03A463346BDE8F04D02F027
:1024200017BF0120FEF792F806B0BDE8F04DFFF7A8
:102430005FBF7A48824542DABAF1795F0BDA284603
:10244000FFF7E8FE042808BFFFF758FF284606B04C
:102450002146BDE8F08D2A460B46104603F000F9F0
:10246000834602466E480E460B4606217844FFF727
:10247000E5FE5A46334603F0F3F8804669488A463B
:102480005A46334604217844FFF7D8FE5A4633466D
:1024900003F0E6F800223B4602F0DAFE02460B4665
:1024A0004046514602F084FF2A46234603F0D8F8FE
:1024B00006B02A462346BDE8F04D02F0C9BE2846C4
:1024C00024F0004100223D463B4603F0C7F94FF09F
:1024D000FF3203F070FF0646024653480F460B4694
:1024E00006217844FFF7AAFE32463B4603F0B8F8CF
:1024F000CDE900014D4832463B4604217844FFF7C0
:102500009DFE32463B4603F0ABF800222B4602F01C
:102510009FFE834602913046394602F041FE8046D6
:1025200043480D46504517DCDDE900015A46029B41
:1025300002F03EFF42462B4603F092F842462B46FD
:1025400002F086FE012203F036FF304A304B03F0E2
:1025500077FA304A304B4CE04FF0000A52460B46B7
:10256000404602F075FECDE9031052462B46104658
:10257000194603F075F832463B4603F06FF9DDE982
:10258000033202F015FF06460F46DDE900015A4608
:10259000029B02F00DFF834600910122304639462E
:1025A00003F009FF194A1A4B03F058F906460F4683
:1025B00001224046294603F0FEFE5A46009B03F0E6
:1025C0004FF832463B4603F03BFA06460F460122DF
:1025D0005046294603F0EFFE0E4DDFF858802A469C
:1025E000434603F03BF932463B4603F037F92A46AF
:1025F000434603F033F9002CD8BF81F0004106B008
:10260000BDE8F08D0000F03F0000F07F075C143360
:1026100026A6913C182D4454FB21F93F0000E03FD1
:102620002052000036520000AA510000C0510000A4
:102630003333EF3FFB21E93F2DE9F84F04460D46C8
:1026400021F0004000917349814211DC72498842B7
:1026500001DC06D12CB120462946BDE8F84FFFF732
:1026600042BE6E48002DCCBF6D496E49BDE8F88F63
:102670006D49814211DD6D498142D8BF4FF0FF366F
:102680006DDD20462946FFF7C5FD042808BFFFF78A
:1026900035FE20462946BDE8F88F6549654F25F08F
:1026A0000045814233DD6449814219DD002632460E
:1026B0004FF080432046294602F0CAFD80468A46F4
:1026C00001222046294603F076FE00223B4603F015
:1026D000B7F94246534602F06BFE04460D463EE013
:1026E00001260022BA463B462046294602F0B0FDAC
:1026F00080460F46002253462046294603F0A0F9A3
:1027000042463B4602F054FE04460D4627E04B4944
:1027100081421BDDDFF828A1022600225346204615
:10272000294602F09DFF00223B4602F091FD8046C3
:102730000F46002253462046294603F081F94246BF
:102740003B4602F035FE04460D4608E003262246CD
:102750002B4600203B4902F02BFE04460D46224644
:102760002B461046194602F07BFF8B4682460246F6
:102770000B4602F075FF07460246334888460B4673
:1027800006217844FFF75AFD52465B4602F068FF87
:1027900082462E488B463A46434605217844FFF749
:1027A0004DFD3A46434602F05BFF02460B46002EC3
:1027B000504659460CDA02F04BFD22462B4602F0F9
:1027C0004FFF01B022462B46BDE8F04F03F046B85C
:1027D00002F03EFD22462B4602F042FF1C4A7A449C
:1027E00002EBC603D3E9002303F02AF922462B4665
:1027F00003F026F9174A7A4402EBC603D3E9002313
:1028000003F02CF8009A002AB8BF81F00041BDE81F
:10281000F88F0000000010440000F07F182D445491
:10282000FB21F93FFB21F9BF0000DC3F0000203E07
:102830000000F33F0000F03F0000E63F008003404F
:102840000000F83F0000F0BFC24F0000804F0000C2
:102850001E4F0000E64E00002DE9F04D9446CCF1ED
:10286000000423F000464CEA0404524F46EAD474B4
:102870009A46884621F00042BC4206D8454240EACA
:10288000050442EAD474BC4204D9BDE8F04D624666
:10289000FFF72CBDAAF14055A5F17F6555EA0C0460
:1028A0000BD0022404EAAA74434DDFF810E144EA95
:1028B000D87452EA000B04D00CE0BDE8F04DFFF7ED
:1028C000BBBE002C14BF012CBDE8F08D022C30D013
:1028D000032C32D056EA0C0B0AD0BE4220D1BA42A9
:1028E00009D126F0804622F080423346114617E097
:1028F00000291ADB25E0DFF8C8B0FB44002C04BF38
:10290000DBE90001BDE8F08D012C02BFDBE900012D
:1029100081F00041BDE8F08D022C0AD0032C0CD0D0
:10292000BA4212D1B8F1000F0BDA23482549BDE8AD
:10293000F08D28462449BDE8F08D28467146BDE853
:10294000F08D1D482149BDE8F08D921B12153C2ADF
:10295000C4BF19481D490EDCBAF1000FBEBF12F109
:102960003C0F0020014606DB624602F021FD21F00B
:102970000041FFF761FE002C08BFBDE8F08D012C7F
:1029800004BF81F00041BDE8F08D114A114B022CCB
:1029900007D003F055F82A46BDE8F04D0A4B03F086
:1029A0004FB803F04DF82A46BDE8F04D064B02F053
:1029B00055BF00000000F07F182D4454FB2109C0D2
:1029C0007A4E0000FB21F9BFFB210940FB21F93FB2
:1029D000075C143326A6A13C2DE9F0410446E078BB
:1029E00000F0C006E07800F03F05607800F00100DC
:1029F00098B1EF102846E91705EB5171C910A5EB06
:102A0000C101491C01F0FF080B48006820B10A48C9
:102A1000414602683846904700BF607800F00800E1
:102A200030B10548406818B1B011034A5168884771
:102A30000020BDE8F08100000001002010B56FF01B
:102A40000400FEF74DFF0A4800680A49B0FBF1F0A8
:102A5000094908700846007800EB4001C1EBC0103E
:102A60004FF6FF7101EAC0000449088010BD000064
:102A70003000002000127A004400002046000020B0
:102A80000146114A12884A434FF0E0235A6100225E
:102A90009A611A46126942F001021A6100BF4FF0B2
:102AA000E022106900F001021AB100F48032002A1D
:102AB000F5D04FF0E022126922F001024FF0E0233E
:102AC0001A6100229A617047460000200146114AAF
:102AD00012784A434FF0E0235A6100229A611A4665
:102AE000126942F001021A6100BF4FF0E022106942
:102AF00000F001021AB100F48032002AF5D04FF044
:102B0000E022126922F001024FF0E0231A61002254
:102B10009A6170474400002038B5044664B1202013
:102B20008DF8000028208DF8010030208DF802007B
:102B300038208DF8030004E0A32204216846FDF745
:102B40007DFC6A46042140F69E2002F057FA01F00F
:102B500041FE38BD3EB5044602208DF80000CA2073
:102B60008DF80100E3208DF8020009208DF80300A4
:102B70006A460421682002F041FAA3208DF8000083
:102B800004F0400048B1C0208DF80100C8208DF845
:102B90000200C2208DF8030006E0A3208DF801009A
:102BA0008DF802008DF8030004F4C07048B1C42011
:102BB0008DF80400CC208DF80500C6208DF80600A5
:102BC00006E0A3208DF804008DF805008DF80600BE
:102BD000A3208DF807008DF808008DF809006A46DB
:102BE0000A2140F6A72002F009FA04F0030018B108
:102BF00020208DF8000002E0D8208DF800006A4601
:102C0000012140F6B62002F0F9F904F0200018B1D5
:102C1000012000F0ADF802E0002000F0A9F804F473
:102C2000C07008B304F4807060B1B2208DF8000069
:102C30008B208DF80100B6208DF802009B208DF8C6
:102C400003000BE0B0208DF8000080208DF801001B
:102C5000B4208DF8020090208DF803006A4604210C
:102C600040F6A22002F0CAF904F0010020B3F820D7
:102C70008DF800006A4601214FF40B6002F0BEF9A6
:102C8000FA21072000F02CFC072000F0F3FB0120C4
:102C900000F013FC642000F0F3FC4FF4FA7000F035
:102CA00002FDC821304800F0A3FB282000F0BCFB47
:102CB0000A2000F0CCFB08E0D8208DF800006A461E
:102CC00001214FF40B6002F099F904F0020018B1F1
:102CD000D9208DF8000002E0D8208DF800006A4667
:102CE000012140F23D7002F089F904F0040018B1AE
:102CF000012000F069F802E0002000F065F804F01F
:102D0000100018B10120FFF707FF02E00020FFF7D5
:102D100003FF44F008001549488101F05BFD0020E5
:102D20001249887304F0400018B10846807B801D6A
:102D3000887304F4C07020B10C48807B801D0B495F
:102D4000887304F0140020B10848807B10300749D4
:102D5000887304F0030020B10448807B001D034900
:102D6000887300203EBD000009E3CA020001002074
:102D70003EB504466CB10EA1D1E900208968CDE9C9
:102D8000002002916A4609214FF4976002F036F95B
:102D90003EBD0AA2D2E900109268CDE9010200917D
:102DA0006A4609214FF4976002F028F9F0E7000025
:102DB000B8AAB38DB4980D355D000000B8AAAAAAD0
:102DC000B088C3C5C700000038B5044664B1C02050
:102DD0008DF80000C2208DF80100C4208DF802009B
:102DE000C6208DF8030004E08B2204216846FDF71D
:102DF00025FB6A46042140F6982002F0FFF801F016
:102E0000E9FC38BD10B5C8234FF48062024940F692
:102E1000F63001F073FB10BD946400082DE9F04F0B
:102E20008DB00746884615469946DDE9166B0024A5
:102E3000002030806B49887B5A4605A901F02AFCA6
:102E400018B1601E0DB0BDE8F08F6648807A00F0C2
:102E50001400002867D09DF8140000069DF8151096
:102E600040EA01409DF8161040EA01209DF8171035
:102E7000084328609DF8180000069DF8191040EAE4
:102E800001409DF81A1040EA01209DF81B100843EC
:102E900068609DF81C0000069DF81D1040EA014086
:102EA0009DF81E1040EA01209DF81F100843A860FD
:102EB0009DF8200000069DF8211040EA01409DF891
:102EC000221040EA01209DF823100843E86004F135
:102ED0001000C4B2286800140190686800140290C1
:102EE000A86800140390E868001404900198404317
:102EF000029901FB0100039901FB0100049901FB08
:102F0000010ABAF1706F02DBBAF1885F05DD01F0EA
:102F100061FC00203080401E94E7B6F9000040F4C8
:102F20008070308000BF2F48807A00F0400020B3CE
:102F300005A9601C085C095D40EA012000B2A8F800
:102F4000000005A9E01C095C05AAA01C105C41EA70
:102F5000002000B2A8F8020005A9601D095C201D30
:102F6000105C41EA002000B2A8F80400A01DC4B221
:102F7000B6F9000040F0080030801A48408900F49B
:102F8000C07008B305A9601C085C095D40EA012017
:102F900000B2388005A9E01C095C05AAA01C105CE1
:102FA00041EA002000B2788005A9601D095C201D5F
:102FB000105C41EA002000B2B880A01DC4B2B6F98E
:102FC000000040F0700030800648807A00F0030076
:102FD00018B105A90819FFF7FFFC484600F024FFC7
:102FE00000202FE70001002070B588B0064601A838
:102FF00001F0D8F8BDF804000021C90341EA5045AA
:10300000C4034448007A00F0030056F820000590FD
:103010004048007A00F0040010B105984042059045
:103020003C48007AC0F3C10056F8200006903948A9
:10303000007A00F0200010B1069840420690354812
:10304000007AC0F3811056F82000079031480089BB
:1030500000F4807010B10798404207900598C1179E
:10306000A0FB042301FB043100FB0510810041EAB1
:10307000927005900698C117A0FB042301FB043150
:1030800000FB0510810041EA927006900798C11775
:10309000A0FB042301FB043100FB0510810041EA81
:1030A000927007900598000E8DF808000598000CA6
:1030B0008DF809000598000A8DF80A000598C0B23D
:1030C0008DF80B000698000E8DF80C000698000C89
:1030D0008DF80D000698000A8DF80E000698C0B213
:1030E0008DF80F000798000E8DF810000798000C5F
:1030F0008DF811000798000A8DF812000798C0B2E9
:103100008DF8130002AA0C214FF4257001F076FF10
:1031100008B070BD0001002030B585B0044616A28D
:1031200007CA02AB07C3C82C03DD4FF0FF3005B060
:1031300030BDC82090FBF4F0401E85B2280A8DF8FF
:103140000000E8B28DF801006A46022140F2162024
:1031500001F054FF10B14FF0FF30E8E702AA0C2154
:1031600040F6C12001F04AFF10B14FF0FF30DEE71A
:10317000044884810020DAE7FEF2ABC4AAF1DFDF65
:10318000BBAFDFDF000100201FB504464848007ACE
:1031900000F0030054F8200001904548007A00F048
:1031A000040010B10198404201904148007AC0F3F8
:1031B000C10054F8200002903D48007A00F0200041
:1031C00010B10298404202903948007AC0F3811051
:1031D00054F8200003903648008900F4807010B144
:1031E0000398404203903349019880FB0101800F0E
:1031F00040EA810001902F49029880FB0110820073
:1032000042EA917002902B49039880FB01108200E2
:1032100042EA917003900198000E8DF80000019829
:10322000000C8DF801000198000A8DF80200019849
:10323000C0B28DF803006A4604214FF4747001F0A7
:10324000DDFE18B14FF0FF3004B010BD0298000E43
:103250008DF800000298000C8DF801000298000A19
:103260008DF802000298C0B28DF803006A4604216E
:103270004FF4757001F0C2FE10B14FF0FF30E3E77C
:103280000398000E8DF800000398000C8DF80100E3
:103290000398000A8DF802000398C0B28DF803006D
:1032A0006A4604214FF4767001F0A8FECCE70000D6
:1032B0000001002009E3CA0210B586B0044647A009
:1032C0000068039046A00068029046A00068019044
:1032D00045A00068009004F0030003A9085C8DF885
:1032E000140003A8C4F3C101405C8DF8150003A8C5
:1032F000C4F38111405C8DF8160004F0030002A9AC
:10330000085C8DF8100002A8C4F3C101405C8DF880
:10331000110002A8C4F38111405C8DF8120005AAC7
:10332000032140F2264001F069FE18B14FF0FF3052
:1033300006B010BD04AA032140F22A4001F05EFE4F
:1033400010B14FF0FF30F3E701980590009804901A
:1033500004F0040058B19DF8140040F001008DF80D
:1033600014009DF8100040F001008DF8100004F0EA
:10337000200058B19DF8150040F001008DF81500AF
:103380009DF8110040F001008DF8110004F48070E8
:1033900058B19DF8160040F001008DF816009DF818
:1033A000120040F001008DF8120005AA03214FF42D
:1033B000886001F023FE10B14FF0FF30B8E704AA97
:1033C000032140F2314001F019FE10B14FF0FF30FF
:1033D000AEE7064804810020AAE700004CCD6C004F
:1033E0000CC92C00365676002646660000010020E7
:1033F000F8B505460E464FF47A7095FBF0F000FBE9
:1034000006F4200E8DF80000200C8DF80100200A33
:103410008DF80200E0B28DF803006A4604214FF4F3
:10342000AE7001F0EBFDF8BD38B50446052094FB05
:10343000F0F084B220128DF80000E0B28DF80100A7
:103440006A4602214FF4AD7001F0D8FD38BD38B5A1
:103450000446052094FBF0F084B220128DF80000A1
:10346000E0B28DF801006A4602214FF4AC7001F021
:10347000C5FD38BD38B504460020009004F00100B9
:1034800020B19DF8000040F03000009004F00200F0
:1034900020B19DF8000040F00C00009004F0040002
:1034A00020B19DF8000040F0030000906A46012121
:1034B0004FF4A47001F0A2FD38BD38B50446012CCC
:1034C00001DA012402E0042C00DD0424601EC0B2F5
:1034D00000906A46012140F24F1001F08FFD38BD87
:1034E0002DE9FC4706460F4606F0070010B1B7F578
:1034F000C86F03DD4FF0FF30BDE8FC87384602F0AF
:103500006DFD8146594902F01FFC8046684600F077
:1035100023FE9DF80000022806D0042816D00828B3
:1035200026D0102848D135E04FF08D41404602F0BA
:103530009DFD814602F01AFD84B24D49404602F0DD
:1035400095FD814602F012FD85B238E04FF08C41C6
:10355000404602F08BFD814602F008FD84B24549E9
:10356000404602F083FD814602F000FD85B226E070
:103570004FF08B41404602F079FD814602F0F6FCA7
:1035800084B23D49404602F071FD814602F0EEFCF6
:1035900085B214E04FF08A41404602F067FD814653
:1035A00002F0E4FC84B23549404602F05FFD8146FA
:1035B00002F0DCFC85B202E04FF0FF309CE700BF78
:1035C00020128DF80400E0B28DF8050028128DF865
:1035D0000600E8B28DF8070006F00100A0B101AACC
:1035E00002214FF4EA7001F009FD10B14FF0FF30F5
:1035F00082E70DF1060202214FF4927001F0FEFC09
:1036000010B14FF0FF3077E706F00200A0B101AA39
:1036100002214FF4EC7001F0F1FC10B14FF0FF30DB
:103620006AE70DF1060202214FF4947001F0E6FC06
:1036300010B14FF0FF305FE706F00400A0B101AA1F
:1036400002214FF4EE7001F0D9FC10B14FF0FF30C1
:1036500052E70DF1060202214FF4967001F0CEFC04
:1036600010B14FF0FF3047E7002045E70000484326
:10367000000040460000C045000040450000C04436
:1036800038B50446052094FBF0F085B228128DF879
:103690000000E8B28DF801006A4602214FF4EF7095
:1036A00001F0ACFC38BD38B50446052094FBF0F0C1
:1036B00085B228128DF80000E8B28DF801006A4644
:1036C00002214FF4ED7001F099FC38BD00BF054AAE
:1036D000128802F04002002AF9D0C2B2014B1B1D31
:1036E0001A807047003801407CB505462849496872
:1036F000087801AB04220D21FDF7F0FC08B107208A
:103700007CBD9DF80700C0F301109DF8041001F086
:10371000E00140EAE1008DF800009DF80700C0F3E9
:1037200081009DF8051001F0E00140EAE1008DF80C
:1037300001009DF8070000F003009DF8061001F05D
:10374000E00140EAE1008DF8020000241CE01DF8D1
:10375000040018B9002045F8240013E00D4845F88E
:10376000240006E055F824000B4902F07FFC45F8E0
:1037700024001DF80400401EC0B20DF8040000280B
:10378000F0D100BF601CC4B2032CE0DB0020B7E71F
:10379000500000207B14AE3E1D5A843F2DE9F04FAF
:1037A00087B005460C46914601208DF81000002098
:1037B0008DF81100FE4A1268917CFD4A526810781B
:1037C00004AB0222FDF730FD20B14FF0FF3007B00F
:1037D000BDE8F08FC820FFF753F900208DF81000E6
:1037E000F34A1268D17BF24A5268107804AB012286
:1037F000FDF71AFD10B14FF0FF30E8E7EC4A126810
:103800005179EB4A5268107804AB0122FDF70CFDA8
:1038100010B14FF0FF30DAE7E54A1268917CE44AD4
:103820005268107804AB0122FDF7FEFC10B14FF096
:10383000FF30CCE7DE4A1268D17DDD4A526810784D
:1038400004AB0122FDF7F0FC10B14FF0FF30BEE7F2
:10385000D74A12681179D64A5268107804AB01220F
:10386000FDF7E2FC10B14FF0FF30B0E70C208DF80F
:103870001000CF4A12681179CD4A5268107804AB13
:103880000122FDF7D1FC10B14FF0FF309FE70F2070
:10389000FFF7F6F8C648806A407A8DF81000C44AEF
:1038A00012689178C24A5268107804AB0122FDF781
:1038B000BBFC10B14FF0FF3089E7BD48806A007A49
:1038C0008DF81000BA4A12685178B94A52681078D7
:1038D00004AB0122FDF7A8FC10B14FF0FF3076E7F2
:1038E000B9F1000F07D0B248806A807A40F0E0005A
:1038F0008DF8100004E0AE48806A807A8DF81000E0
:10390000AB4A12689179AA4A5268107804AB012236
:10391000FDF78AFC10B14FF0FF3058E7B9F1000F06
:1039200007D0A348806AC07A40F0E0008DF810000C
:1039300003E0A048C07A8DF810009D4A1268D17942
:103940009B4A5268107804AB0122FDF76DFC10B160
:103950004FF0FF303BE7B9F1000F02D0C820FFF76E
:103960008FF840208DF81000914A12681179904A22
:103970005268107804AB0122FDF756FC10B14FF0ED
:10398000FF3024E778208DF81000894A12685179B9
:10399000874A5268107804AB0122FDF745FC10B14C
:1039A0004FF0FF3013E783498889FFF769F800205B
:1039B0008DF810007E4A126851797D4A526810785D
:1039C00004AB0122FDF730FC10B14FF0FF30FEE6F2
:1039D000774A1268917A764A5268107804AB0222CC
:1039E000FDF77CFB10B14FF0FF30F0E69DF81100C1
:1039F0009DF8101040EA012B0C209BFBF0F0C6B2A2
:103A00000020A86068602860A06060602060824636
:103A100065E0674A1268D17A654A5268107804AB4B
:103A20000C22FDF75BFB10B14FF0FF30CFE69DF8A5
:103A300011009DF8101040EA012000B2ADF8080016
:103A40009DF813009DF8121040EA012000B2ADF875
:103A50000A009DF815009DF8141040EA012000B2FC
:103A6000ADF80C00BDF90810206808442060BDF9CD
:103A70000A10606808446060BDF90C10A068084432
:103A8000A0609DF817009DF8161040EA012000B2D2
:103A9000ADF800009DF819009DF8181040EA0120CB
:103AA00000B2ADF802009DF81B009DF81A1040EA24
:103AB000012000B2ADF80400BDF9001028680844E8
:103AC0002860BDF90210686808446860BDF90410F8
:103AD000A8680844A8600AF1010000F0FF0AB24596
:103AE00097DB3448D0F800C02868C117090441EAC0
:103AF00010410704624600233846FCF76AFB324651
:103B00000023CDE90201FCF764FB28602948D0F8C6
:103B100000C06868C117090441EA10410704624601
:103B200000233846FCF755FB32460023CDE902015D
:103B3000FCF74FFB68601F48D0F800C0A868C117A9
:103B4000090441EA10410704624600233846FCF7A5
:103B500040FB32460023CDE90201FCF73AFBA860A6
:103B60001448D0F804C02168C817000440EA11487E
:103B70000F046246002338464146FCF72AFB3246D2
:103B80000023CDE90201FCF724FB20600948D0F8AE
:103B900004C06068C117090441EA10410704624685
:103BA00000233846FCF715FB3246002304E00000F2
:103BB000500000206C640008CDE90201FCF709FB0D
:103BC00060601148D0F804C0A068C117090441EA38
:103BD00010410704624600233846FCF7FAFA3246E1
:103BE0000023CDE90201FCF7F4FAA060A0680028E8
:103BF00004DDA068A0F58030A06003E0A06800F5B7
:103C00008030A0600020E2E56C6400082DE9FC5FD4
:103C100006460F4600253D494968087801AB032256
:103C20000D21FDF75BFA10B10720BDE8FC9F9DF860
:103C3000040000F01F008DF804009DF8050000F05E
:103C40001F008DF805009DF8060000F01F008DF89C
:103C50000600002456E056F8240057F82410A0EB84
:103C6000010BBBF1000F01DB594601E0CBF1000174
:103C7000084602F09BF94FF08F41009002F064F883
:103C8000814601A8005D68B32149086802F0A6F9E1
:103C9000834659461F4802F057F8804604E01E4903
:103CA000404602F0E3F9804601A8005D401EC0B224
:103CB00001A908550028F2D14146484602F044F8CF
:103CC00083464FF07E5102F0CFFA82462AF0004B35
:103CD0000F488169584602F095FA12D20120A0409F
:103CE00005430EE00A480169484602F08BF905D306
:103CF00007484169484602F085FA02D20120A040F7
:103D00000543641C032CA6DB28468EE750000020E8
:103D10006C64000800B04C4554E3853F10B5044680
:103D2000204600F00FF80346E01C00F00BF843EAD1
:103D3000C00083B2A01D00F005F843EA801083B2F2
:103D4000184610BD014691F90020002A01DD00202F
:103D50001EE091F90020002A01DA042018E091F910
:103D60000120002A01DD012012E091F90120002A42
:103D700001DA05200CE091F90220002A01DD022081
:103D800006E091F90220002A01DA062000E007206F
:103D900070470000FEF752FEFDF78FFAFDF788FB33
:103DA000FDF7F0FAFDF740F900F08AF9FCF7A2FF01
:103DB000FCF7E6FDFCF732FEFDF768FA002141F65C
:103DC0001F40FDF775FC25E01348006802F0B2F8CB
:103DD00004460223224601210846FDF715FC05236F
:103DE0000E48B0F9002001210220FDF70DFC05234B
:103DF0000B48B0F9002001210320FDF705FC09481C
:103E0000006802F097F804460523224601210420A9
:103E1000FDF7FAFBD8E70000040000200C000020AA
:103E200012000020000000207047000070B504461A
:103E3000002624F00104184890F8240008B100205E
:103E400070BD1548807A10B94FF0FF30F8E712487E
:103E5000057C807A2040104908740846007CA04206
:103E600002D04FF0FF3600E0002614B90A48007D6A
:103E700018B1012001F04CF902E0002001F048F9EE
:103E80003CB100F0A7FC20B1034805744FF0FF30AF
:103E9000D6E73046D4E70000500000202DE9F04F6F
:103EA00099B004460D4616464FF07E574FF0000875
:103EB0004FF000094FF0000A12A813A918AB0EAA80
:103EC000CDE9001014A916A8FEF7A8FF18B101202B
:103ED00019B0BDE8F08FBDF84C0000F480700028E8
:103EE0007ED00E9802F062F883464FF09D4101F0BB
:103EF0002BFF07460F9802F059F883464FF09D417B
:103F000001F022FF8046109802F050F883464FF0EF
:103F10009D4101F019FF8146119802F047F8834650
:103F20004FF09D4101F010FF824639464FF080402E
:103F300002F09CF84946059002F098F84146079037
:103F40004FF0404002F092F85146059002F08EF892
:103F50000690079901F08AFE834601F05BFECDE9E9
:103F60000801FEF731FA4FF06632544BCDE90A01F1
:103F700001F076FBCDE90C0101F038F920604946EB
:103F80004FF0804002F072F84946029002F06EF85D
:103F9000414604904FF0404002F068F841460290DC
:103FA00002F064F80390049902F05EF983464FF042
:103FB0007E5101F05BFE059001F02CFECDE9080179
:103FC00039464FF0804002F051F84146039002F02C
:103FD0004DF8494604904FF0804002F047F800E069
:103FE00068E05146039002F041F88346049901F0DD
:103FF0003DFE059001F00EFECDE90601DDE9082346
:10400000FEF72AFC4FF066322C4BCDE90A0101F095
:1040100027FBCDE90C0101F0E9F828605146504634
:1040200002F024F849460490484602F01FF8414641
:104030000390404602F01AF839460190384602F0E3
:1040400015F80090019901F011FE0290039902F019
:104050000BF98346049902F007F9059001F0DAFDA7
:10406000CDE908015146384602F000F8494604906F
:10407000404601F0FBFF0390049901F0F7FD4FF07B
:104080008041059001F0F2FF834601F0C3FDCDE9C8
:104090000601DDE90823FEF7DFFB4FF06632074B30
:1040A000CDE90A0101F0DCFACDE90C0101F09EF83E
:1040B000306001E002200BE7002009E766A64C40D3
:1040C00070B50024FCF7DAFE00F020F900283DD19D
:1040D000782000F02BFFC4B20CB1012070BD782015
:1040E000FFF7A4FEC4B20CB10220F7E7642000F091
:1040F000CFFEC4B20CB10320F0E7FEF783FEC4B2DA
:104100000CB10420EAE71348FFF708FE0546FFF765
:10411000D3F8C4B20CB10520E0E740F27310FEF70B
:1041200019FDC4B20CB10620D8E76420FEF7F4FFF5
:10413000C4B20CB10720D1E700F0A0FF0446012073
:1041400000F0A2FDC4B21CB10920C7E70A20C5E7F0
:104150000020C3E77C00002001461148407A30B1BE
:10416000012807D0022808D003280CD108E002203B
:1041700008700BE00420087008E00820087005E0D3
:104180001020087002E04FF0FF30704700BF044875
:10419000C07C18B108784006000E08700020F4E7D3
:1041A0005000002001461348407A30B1012808D061
:1041B00002280AD0032810D10BE04FF48040088079
:1041C0000EE041F69C7008800AE04FF480500880B1
:1041D00006E04FF40060088002E04FF0FF307047C7
:1041E00000BF0448C07C10B108884010088000203F
:1041F000F5E700005000002001460248007C0870EE
:10420000002070475000002001460F48007A30B16E
:10421000012807D0022809D003280FD10AE0FA208C
:1042200008800EE04FF4FA7008800AE04FF47A70CC
:10423000088006E04FF4FA60088002E00020088061
:1042400000BF00BF002070475000002001460E480C
:10425000007A30B1012807D0022808D003280CD1F9
:1042600008E00A4808600BE00948086008E00948CF
:10427000086005E00848086002E04FF0FF30704732
:1042800000BF0020FBE700005000002000000343B7
:1042900000008342333303423333834101461248E3
:1042A000C07A082817D2DFE800F01704070A0D10BB
:1042B0001318BC20088013E06220088010E02A2038
:1042C00008800DE0142008800AE00A20088007E03A
:1042D0000520088004E000BF00BF0020088000BF68
:1042E00000BF002070470000500000200146064833
:1042F00090F8240010B14FF0FF3070470248C08999
:1043000008800020F9E70000500000201CB5802044
:104310008DF80000654A1268917C644A52681078F2
:104320006B460122FCF780FF10B14FF0FF301CBD3F
:104330006420FEF7A5FB00208DF800005B4A1268A0
:10434000917C5A4A526810786B460122FCF76CFF48
:1043500010B14FF0FF30EAE7544A1268917D534A9A
:10436000526810786B460622FCF7B8FE10B14FF089
:10437000FF30DCE79DF80500C007400F9DF80310F3
:1043800001F0010140EA41009DF8011001F0010136
:1043900040EA010494B1012C03D101214348C174C6
:1043A00031E0022C03D100214048C1742BE02146AA
:1043B0003FA0FBF733FF4FF0FF30B8E73B4A1268EE
:1043C000D1783A4A526810786B460122FCF786FE93
:1043D00010B14FF0FF30AAE79DF8000000F00F0485
:1043E0002CB93D48FBF71AFF4FF0FF309FE7042C34
:1043F00006D13AA0FBF712FF01212C48C17402E05C
:1044000000212A48C174FF2128488172FF202749D2
:104410000872FF2125484172C1724FF6FF71C181B8
:10442000FF21017481740121017380F822100021A1
:1044300080F823104175017516300160416081607C
:10444000163880F8241080F82510C1844FF4FA60E3
:1044500000F062FC10B14FF0FF3068E7022000F07E
:104460002BFB10B14FF0FF3061E72A2000F0CEFCAB
:1044700010B14FF0FF305AE7322000F009FD10B1C3
:104480004FF0FF3053E70020FFF7D0FC10B14FF0A2
:10449000FF304CE7002000F051FB10B14FF0FF302F
:1044A00045E7002000F042FD002040E750000020DA
:1044B000556E737570706F7274656420736F667477
:1044C000776172652070726F6475637420726576AF
:1044D0002025642E0A0000008077000848616C6681
:1044E0002073656E7369746976697479207061727E
:1044F0007420666F756E642E0A0000002DE9F0438B
:1045000085B005460E4690469946294890F8250004
:1045100020B14FF0FF3005B0BDE8F08316B94FF081
:10452000FF30F8E7002423E0281B102801DD1020CD
:1045300000E0281B87B232193946204600F05EFDA4
:1045400010B14FF0FF30E6E701AA3946204600F0EF
:1045500001F910B14FF0FF30DDE730193A4601A9FB
:10456000FBF740FF10B16FF00100D4E7E01984B20F
:10457000AC42D9DB4FEA28208DF8000008F0FF009C
:104580008DF801000A4A1268917E094A5268107833
:104590006B460222FCF748FE10B14FF0FF30BAE73D
:1045A0000121034880F82510A0F826900020B2E7EA
:1045B0005000002038B50446282C02DD4FF0FF30B3
:1045C00038BDDCB9002000F0EBFB00208DF80000C6
:1045D00007208DF801002E4A1268917C2C4A5268FF
:1045E00010786B460222FCF71FFE10B14FF0FF302F
:1045F000E6E70021264801750020E1E7012000F0F0
:10460000CFFB20208DF80000012C06D100208DF872
:104610000100052000F0FAFB17E0052C06DC012064
:104620008DF80100052000F0F1FB0EE0142C06DCF3
:1046300002208DF801000A2000F0E8FB05E00320CD
:104640008DF80100142000F0E1FB9DF80100072126
:1046500001EB8010C0B28DF801000D4A1268917C08
:104660000B4A526810786B460222FCF7DDFD10B150
:104670004FF0FF30A4E70821054881720021017343
:10468000012101750020FFF7D1FB002098E7000011
:1046900050000020F8B504460F4616462C4890F806
:1046A000240010B94FF0FF30F8BD2948807A10B9C6
:1046B0004FF0FF30F8E7264A1268917A244A526890
:1046C00010786B460222FCF709FD10B14FF0FF3065
:1046D000EAE79DF801009DF8001040EA0125A54297
:1046E00003DA00203070401EDEE719484068408839
:1046F000B5EB600F17DD164A1268517C144A5268F8
:1047000010786B460122FCF7E9FC10B14FF0FF3046
:10471000CAE79DF8000000F0100020B100F05AF840
:104720006FF00100C0E7E2B2094B1B68D97A084B71
:104730005B6818783B46FCF7D1FC10B14FF0FF30B6
:10474000B2E795FBF4F0401E30700020ACE70000AB
:1047500050000020F8B504460D46164616B94FF035
:10476000FF30F8BD1A48807A10B94FF0FF30F8E7F3
:1047700020128DF80000E0B28DF801009DF80100D4
:104780002844134949684989884202DD4FF0FF30C7
:10479000E7E70F4A1268117E0D4A526810786B469F
:1047A0000222FCF741FD10B14FF0FF30D9E7EAB229
:1047B000074B1B68597D064B5B6818783346FCF73E
:1047C0008DFC10B14FF0FF30CBE70020C9E70000AF
:1047D0005000002008B57048807A10B94FF0FF30C3
:1047E00008BD002000906C4A1268D17B6A4A52686A
:1047F00010786B460122FCF717FD10B14FF0FF3027
:10480000EEE7654A12685179634A526810786B4640
:104810000122FCF709FD10B14FF0FF30E0E75E4ADE
:10482000126811795C4A526810786B460122FCF7D5
:10483000FBFC10B14FF0FF30D2E7574890F824004E
:10484000002853D00C200090534A12681179524A24
:10485000526810786B460122FCF7E6FC10B14FF06D
:10486000FF30BDE73220FEF70BF9C02000904A4828
:10487000807A00F0010020B19DF8000040F0200097
:104880000090454A12681179434A526810786B4685
:104890000122FCF7C9FC10B14FF0FF30A0E73E4801
:1048A000407C10B10220009001E0002000903A4AC4
:1048B0001268D17B384A526810786B460122FCF7A7
:1048C000B3FC10B14FF0FF308AE700200090324A6D
:1048D00012685179304A526810786B460122FCF711
:1048E000A3FC002855D04FF0FF3079E7042000905A
:1048F000294A12681179284A526810786B460122B9
:10490000FCF792FC10B14FF0FF3069E72248807C41
:1049100020B92148807A00F0010010B940200090B1
:1049200001E0602000901C4A126811791A4A52680E
:1049300010786B460122FCF777FC10B14FF0FF3086
:104940004EE73220FEF79CF81348407C10B101205E
:10495000009001E0002000900F4A1268D17B0E4ABF
:10496000526810786B460122FCF75EFC10B14FF0E4
:10497000FF3035E7084A12685179074A52681078C3
:10498000054B10330122FCF74FFC10B14FF0FF3004
:1049900026E7002024E70000500000202DE9F04F1A
:1049A0008DB083460F4602200C90424890F82400B8
:1049B00020B1002000F068F9012600E0002603A8DD
:1049C000FFF722FC05A8FFF7C7FB01A8FFF766FC6D
:1049D00002A8FFF78BFC374890F80AA004A8FFF75D
:1049E0000BFC002407E0002239465846FEF7D6FEAD
:1049F00000B902E0641C022CF5DB00BF022C01D1DF
:104A0000002528E0002407E0012206A909A8FEF7F6
:104A1000C5FE00B902E0641C022CF5DB00BF022CCD
:104A200001D1002517E006A93846FDF779FC00F012
:104A3000FF0809A95846FFF7E9F800F0FF0900252B
:104A4000B9F1000F01D145F00105B8F1000F01D116
:104A500045F0020500BFFF2016490872FF211548E6
:104A60004172C1724FF6FF71C181FF2181720174E1
:104A700001210173BDF80C0000F04EF99DF81400FF
:104A800000F01AF8BDF8040000F0C0F9BDF8080005
:104A900000F0FEF9504600F049FA9DF81000FFF7CB
:104AA000C5F916B1012000F0EFF828460DB0BDE8B9
:104AB000F08F00005000002038B504461E48807A70
:104AC00010B94FF0FF3038BD022C06D0042C07D0AF
:104AD000082C08D0102C0CD108E0002000900BE02E
:104AE0000820009008E01020009005E018200090B9
:104AF00002E04FF0FF30E6E700BF0F48407A9DF834
:104B00000010B0EBE10F01D10020DCE70A4A126887
:104B1000D179094A526810786B460122FCF784FB70
:104B200010B14FF0FF30CEE79DF80000C1100248F1
:104B300041720020C7E700005000002038B504464D
:104B40005048807CA04201D1002038BD002C46D0C6
:104B50004C4A126811794B4A526810786B46012210
:104B6000FCF7BCFA10B14FF0FF30EEE79DF8000003
:104B700020F020000090434A12681179414A52689F
:104B800010786B460122FCF74FFB10B14FF0FF305D
:104B9000DBE70320FDF774FF02200090394890F80E
:104BA000220020B19DF8000040F0800000903548C0
:104BB00090F8230020B19DF8000040F030000090F4
:104BC000304A1268117D2F4A526810786B460122D4
:104BD000FCF72AFB002851D04FF0FF30B5E7294AF7
:104BE00012681179274A526810786B460122FCF747
:104BF00075FA10B14FF0FF30A7E72248807A00F035
:104C0000010028B19DF8000040F02000009004E071
:104C10009DF8000020F0200000901A4A12681179D7
:104C2000184A526810786B460122FCF7FDFA10B161
:104C30004FF0FF3089E70320FDF722FF114890F87D
:104C4000220010B18020009001E0002000900D486B
:104C500090F8230020B19DF8000040F03000009053
:104C6000084A1268117D074A526810786B46012283
:104C7000FCF7DAFA10B14FF0FF3066E701488474B0
:104C8000002062E75000002038B50446214890F823
:104C90002400A04201D1002038BD24B31D4890F863
:104CA000250010B94FF0FF30F6E7002000F030FA91
:104CB0000020FFF743FF1749C88C00F0E9F80020F7
:104CC00000901449496808786B4601222321FCF7BB
:104CD000ABFA01210F4880F82410012000F018FAE7
:104CE000FFF778FD13E0002000F012FA0948007C7D
:104CF00000900849496808786B4601222321FCF797
:104D000093FA0021034880F82410FFF763FD002088
:104D1000C2E700005000002038B504461F48807AE2
:104D200010B94FF0FF3038BDFA2C09D0B4F5FA7F36
:104D300009D0B4F57A7F09D0B4F5FA6F0CD108E048
:104D4000002000900BE00820009008E01020009068
:104D500005E01820009002E04FF0FF30E3E700BFCD
:104D60000E48007A9DF80010B0EBE10F01D1002051
:104D7000D9E70A4A12689179084A526810786B4656
:104D80000122FCF751FA10B14FF0FF30CBE79DF84C
:104D90000000C010014908720020C4E75000002044
:104DA00038B50446184890F82300A04201D10020ED
:104DB00038BD14B13020009001E00020009012486E
:104DC000807C20B19DF8000040F0020000900E4869
:104DD00090F8220020B19DF8000040F08000009083
:104DE000094A1268117D084A526810786B46012200
:104DF000FCF71AFA10B14FF0FF30D9E7024880F8FB
:104E000023400020D4E700005000002038B50446BD
:104E10001E48807A10B94FF0FF3038BDBC2C02DB41
:104E20000120009015E0622C02DB0220009010E0CF
:104E30002A2C02DB032000900BE0142C02DB042060
:104E4000009006E00A2C02DB0520009001E006201D
:104E500000900E48C07A9DF80010884201D10020D1
:104E6000DBE70A4A12689178084A526810786B4664
:104E70000122FCF7D9F910B14FF0FF30CDE79DF8D2
:104E800000100248C1720020C7E700005000002057
:104E900038B504462448807A10B94FF0FF3038BD49
:104EA000214890F8240010B14FF0FF30F7E71E487A
:104EB000007D50B134B1282C04DCE0B2FFF77AFB5E
:104EC0000020ECE70020FFF775FB042C01DA042436
:104ED00004E0B4F57A7F01DD4FF47A744FF47A7010
:104EE00090FBF4F0401EC0B200900F4A1268517857
:104EF0000D4A526810786B460122FCF795F910B103
:104F00004FF0FF30CBE79DF80000401C4FF47A7162
:104F100091FBF0F081B20448C1810146C989481073
:104F2000FFF774FF0020BAE75000002038B50446B0
:104F300004F0700010B10120009005E014B10020D1
:104F4000009001E0402000902B4A1268917C2A4A90
:104F5000526810786B460122FCF766F920B10021F7
:104F600025488172481E38BD9DF8000020F04001A0
:104F7000214801730020009004F0400020B99DF802
:104F8000000040F00400009004F0200020B99DF8DB
:104F9000000040F00200009004F0100020B99DF8DD
:104FA000000040F00100009004F0080020B99DF8D6
:104FB000000040F0380000900F4A1268D17C0E4A81
:104FC000526810786B460122FCF72EF920B10021BF
:104FD00009488172481EC6E724B1082C02D000207F
:104FE000FFF7DEFE04488472002101753220FDF7D0
:104FF00047FD0020B7E7000050000020F8B5044648
:105000000D46164616B94FF0FF30F8BD1A48807AA3
:1050100010B94FF0FF30F8E720128DF80000E0B231
:105020008DF801009DF80100284413494968498919
:10503000884202DD4FF0FF30E7E70F4A1268117E29
:105040000D4A526810786B460222FCF7EDF810B159
:105050004FF0FF30D9E7EAB2074B1B68597D064B8A
:105060005B6818783346FCF7DFF810B14FF0FF307B
:10507000CBE70020C9E700005000002070B588B0E1
:1050800002A905A8FFF78AFC0446072C3ED101A817
:10509000FFF7DCF8059800F089FF0646019900F05B
:1050A000E5FF054600F046FF0590069800F07EFFFC
:1050B0000646019900F0DAFF054600F03BFF069036
:1050C000079800F073FF0646019900F0CFFF0546F0
:1050D00000F030FF079005A8FEF756F86846FFF786
:1050E00061F8BDF80010029848430290BDF8001026
:1050F000039848430390BDF8001004984843049077
:1051000002A8FDF771FF002008B070BD0120FBE789
:1051100038B50446214890F82400C0B114B10220EB
:10512000009001E0002000901C4A1268D17B1B4ACD
:10513000526810786B460122FCF776F810B14FF0F8
:10514000FF3038BD9DF800101448417423E0134827
:10515000807A10B94FF0FF30F3E724B10F48407C5C
:1051600008B10020EDE714B10120009001E000201B
:1051700000900A4A1268D17B084A526810786B4640
:105180000122FCF751F810B14FF0FF30D9E79DF83C
:105190000010024841740020D3E7000050000020B6
:1051A0002DE9F04106460F4600F064FB041E0D4653
:1051B00018BF0120284320F00040C0F17F6000F1BB
:1051C000E040C00F0ED0301C18BF0120384320F043
:1051D0000040C0F17F6000F1E040C00F04BF01203B
:1051E000FBF7B4F920462946BDE8F08121F00042E2
:1051F000A2F16052B2F5801F01F0004328BFD2F146
:105200007F6C0BD95FEA001C43EAC20242EB50708C
:1052100018BF704728BF20F001007047B2F5801F0B
:10522000BCBF184670474FEA410C1CF5001F02D264
:10523000084600F0E2BF70B500F0BCFA000000893B
:10524000FFF7F6BF4FF00040A0F580007047000068
:1052500010B591EA030F48BF83F0004300F1F883D3
:10526000841A71EB030C05D2121943EB0C03001BDB
:1052700061EB0C01DFF824E14FEA1154A4EB135C5D
:105280001EEA430F18BF9EEA445F73D023EA0E0361
:10529000DCF1200E21EA045143F4801332D322FAC8
:1052A0000CFE10EB0E0023FA0CFE41EB0E01CCF1CC
:1052B000200E03FA0EFE10EB0E0051F10001B1F5C5
:1052C000801FCCF1200E32D201EB045112FA0EF203
:1052D000BDE8104058BF7047401C38BF5FEA42022B
:1052E00018BF7047002814BF20F0010041F10001F1
:1052F0004FEA410313F5001F38BF7047A1F1C041C9
:1053000000F0A6BA012A43EB0302ACF1200CDCF159
:105310001F0E32BF4FF0000E23FA0CF310EB030008
:1053200041EB0451B4EB115FD0D0A1EB045101F576
:10533000801149085FEA300001EB04510ED350F1AF
:10534000000038BF12FA0EFE08D1BDE81040C9E7D0
:10535000401C38BF5FEA4202CAD1C3E7BDE8104033
:105360004FEA410313F5001F38BF7047A1F1C04158
:1053700000F06EBA9EEA445F08D011EA5E0FBDE805
:10538000104004BF01F0004100207047BDE810400C
:1053900070B500F00FFA00BF64FBBE3E0000E0FFF6
:1053A00002494FF0000000F0D4BF00BF0000F87FBA
:1053B0002DE9C04130B4DFF8A0C23CEA111418BF97
:1053C0003CEA131400F0EC8081EA03051CEA111496
:1053D00044EAD57418BF1CEA131500F0C780A4EB8B
:1053E00005044FF0004545EAC12145EAC32341EADF
:1053F000505143EA525304F17F74994204F500344A
:105400004FEAC0204FEAC22208BF904200F09C80C1
:105410004FEA13650FF24016765D4FEA134506FB1F
:1054200005F7C7F1807706FB07F74FEAD737A7FBE9
:1054300003687642C8F58038A7FB06CE38BFA8F1CE
:10544000010807FB08E64FF0000EA6FB028CE6FB06
:1054500003CEDCF1000CCEF1004E38BFAEF1010EF0
:10546000A6FB0C584FF000074FF00005E6FB0E8737
:10547000A1FB08C6A0FB07CE16EB0E0645F1000502
:10548000E1FB076515F1E04E7EBFA4F580345FEACD
:1054900046066D4116F1800745F100054FEA1727D2
:1054A0004FEA066647EA0567A6F1DE46B6F1805F79
:1054B0004FEA15251FD9384624F0010C05EBC471BD
:1054C000BCF1FE6F01EB0C1102D8F0BCBDE800810D
:1054D00024425CBF01F5801E9EEAC47F02D4F0BC6A
:1054E000BDE80081244238D4F0BCA1F1C041BDE840
:1054F000004100F0ADB94FEAD22242EA43524FEAEE
:10550000D323A7FB02864FEAD02040EA415007FB95
:1055100003661EEA0E0F4FEAD12105FB026658BF53
:10552000A6EB0056B6EB00564FEA520E4EEAC37E8B
:1055300018EB0E0E56EB530EBDD518EB02085E416C
:105540007F1C55F10005B6E74FF480154FF00007BA
:105550004FF000064FF00008ADE7F0BC4FF0000040
:1055600001F1C04101F00041BDE8008111EA0C1FCA
:105570000CEA131500D00CE013EA0C1F00F0258094
:105580004FF00000F0BC81EA030101F00041BDE8EA
:105590000081F0BCBDE8004181EA030100F058B988
:1055A000F0BCBDE8004170B500F004F9097EFC3E96
:1055B00000F007B881EA03014FF0000001F000415C
:1055C000704781EA030100F043B9F0BCBDE8004137
:1055D0004FF0000021497047FFFDFBF9F7F5F4F2A9
:1055E000F0EEEDEBE9E8E6E4E3E1E0DEDDDBDAD87E
:1055F000D7D5D4D3D1D0CFCDCCCBCAC8C7C6C5C4DC
:10560000C2C1C0BFBEBDBCBBBAB9B8B7B6B5B4B3F2
:10561000B2B1B0AFAEADACABAAA9A8A8A7A6A5A4DD
:10562000A3A3A2A1A09F9F9E9D9C9C9B9A999998A1
:105630009797969595949393929191908F8F8E8E44
:105640008D8C8C8B8B8A89898888878786858584D1
:1056500084838382828181800000FF070000F87FBD
:10566000DFF848C170B51CEA111E1EBF1CEA1315F5
:105670009EEA0C0F95EA0C0F00F06F8081EA03049C
:1056800023EA4C134EEAD47E21EA4C1141F48011F6
:1056900043F48013AE44A1FB024CA0FB0365AEF1C2
:1056A0007F7E361955EB0C05A1FB034C4CF1000332
:1056B000A0FB021C16EB0C06654153F100030942E6
:1056C00018BF46F0010613F4007F0BD14FEA0331F7
:1056D0004FEA0530340341EA155140EA16506FF0A5
:1056E00003020AE04FEAC3214FEAC520F40241EA6F
:1056F000555140EA56506FF0020202EB2E4201EB88
:10570000025585EACE710AD05FEA440C18BF24F036
:10571000004450F1000041F1000120EAD47040F251
:10572000FE7C624500D270BDA84214BF4FF0804499
:105730004FF04044002E08BF0024BEF1806FA8BF88
:10574000A1F1C041BDE8704080F282804FF00000BE
:1057500001F1C04101F0004170479EEA0C0F0CEAD4
:10576000131518BF95EA0C0F06D04FF0000081EA20
:10577000030E0EF0004170BD00F01CF88900013EE0
:1057800000F007B800F009B84FEA430C5FEA5C5C30
:1057900008D081EA030100F05BB84FEA410C5FEAF0
:1057A0005C5CF6D14FF00000014970470000FF0734
:1057B0000000F87F0EF1020E2EF0030E5EF8046B6F
:1057C000364205D4012A43EB030515F5001F12D814
:1057D000012841EB010C1CF5001F0CD80ED14FEA3B
:1057E000D17C15F5001F0CEB4C0C0CF1020C08BF22
:1057F0004CEBD37C04E04FF0080C01E04FEAD37C83
:105800000CEB4C0526FA05F606F00706B6F1040C7B
:1058100006D20EEB860CBDE870404CF0010C6047E0
:10582000DFE80CF0090B02024FF000414FF00000DE
:10583000A1F5002170BD19461046012851EB010465
:1058400018BFD4F5001484BF002001F0004170BDE2
:105850000808A0F500114FEA3101704791EA030FE3
:1058600010B581F000413FF5FBAC83F0004300F040
:10587000EFB800002DE9F04101F5801CBCF5001FD8
:10588000C0F2C3804FEA115C21EA0C510CF1FD0C0F
:1058900041F480115FEA5C0C0CF5C07C01D3400040
:1058A00049413DA4890241EA905187028E0E0A0CBB
:1058B000A45D04FB04F602FB06F6C6F14046A4FB19
:1058C0000662F60D46EA422606FB06F4A4FB012317
:1058D0005242C3F1404338BF5B1EA6FB0242002484
:1058E000E6FB0324D20B42EA4446A6FB0623A1FBB7
:1058F00002E2A3FB07E4A4184FF0000252F10002F9
:10590000E3FB01426442C2F1404E38BFAEF1010EEA
:10591000A6FB04234FF00002E6FB0E32A2FB034677
:105920004FF00004B61954F10004E2FB0264A1FB3D
:1059300006E6A4FB07E816EB08064FF0000858F14E
:105940000008E4FB01687642C8F1405838BFA8F16E
:105950000108A2FB06E4A3FB08E52D194FF00004A3
:1059600054F10004E2FB0854A1FB05E6A7FB04E8A0
:1059700018EB06084FF0000656F10006E1FB04861E
:1059800018F1200556F10006A809A8F11B08B10975
:1059900008F03F08B8F10A0F40EA86601CD901EB15
:1059A0000C51BDE8F08100BFFCF5EEE8E2DDD8D394
:1059B000CFCBC7C3C0BDB9B6B4B1AEACA9A7A5A380
:1059C000A19F9D9B9A9896959392908F8D8C8B8991
:1059D0008887868584838281A0FB006800FB01F2B2
:1059E00008EB4208B8EB872807D5341858EB0104B8
:1059F000D5D5401C51F10001D1E7341A78EB0104F0
:105A0000CDD4401E71F10001C9E75FEA4C0C5FEA9A
:105A10009C5C0DD105D34FF0000001F00041BDE8C2
:105A2000F081BDE8F04170B5FFF7C4FE6DDBFFBE4D
:105A3000BDE8F0414FF00000004970470000F87FDA
:105A400010B591EA030F48BF83F000433FF508AC5F
:105A5000841A71EB030C07D212198CF0004C43EB43
:105A60000C03001B61EB0C01DFF8A4E14FEA1154B9
:105A7000A4EB135C1EEA430F18BF9EEA445F00F0DC
:105A8000B08023EA6E03524221EA0451C3EB6E0355
:105A900038BF5B1EDCF1200E25D322FA0CFE10EB82
:105AA0000E0043FA0CFE41EB0E01CCF1200E03FA7E
:105AB0000EFE10EB0E0051F10001CCF1200E29D4A6
:105AC00012FA0EF201EB0451BDE8104058BF7047C6
:105AD000401C1CBFB2F1004F704700280CBF491C8E
