:020000040800F2
:10000000F8190020F5020008F73800089D090008DB
:10001000F538000815080008B93D00080000000088
:100020000000000000000000000000003D02000889
:10003000170800080000000091020008153B0008A6
:100040000F0300080F0300080F0300080F03000848
:100050000F0300080F0300080F0300080F03000838
:100060000F0300080F0300080F0300080F03000828
:100070000F0300080F0300080F0300080F03000818
:100080000F0300080F0300080F0300080F03000808
:100090000F0300080F0300080F0300080F030008F8
:1000A0000F0300080F0300080F0300080F030008E8
:1000B0000F030008853B00080F0300080F0300082A
:1000C0000F0300080F0300080F0300080F030008C8
:1000D0000F0300081D3C00080F0300080F03000871
:1000E0000F0300080F0300080F0300080F030008A8
:1000F0000F0300080F0300080F0300080F03000898
:100100000F0300080F030008C13B00080F0300089D
:100110000F0300080F0300080F0300080F03000877
:100120000F0300080F0300080F0300080F03000867
:100130000F0300080F0300080F0300080F03000857
:100140000F0300080F0300080F0300080F03000847
:100150000F0300080F0300080F0300080F03000837
:100160000F0300080F0300080F0300080F03000827
:100170000F0300080F0300080F0300080F03000817
:100180000F0300080F03000800F002F800F047F822
:100190000AA090E8000C82448344AAF10107DA45E2
:1001A00001D100F03CF8AFF2090EBAE80F0013F0ED
:1001B000010F18BFFB1A43F0010318473477000002
:1001C00054770000103A24BF78C878C1FAD8520793
:1001D00024BF30C830C144BF04680C6070470000C1
:1001E0000023002400250026103A28BF78C1FBD840
:1001F000520728BF30C148BF0B607047642900F028
:100200000581782900F03E81732900F03B820020AF
:1002100070471FB505F072FF1FBD10B510BD00F08F
:10022000C6FA1146FFF7F5FF03F024FE00F0E4FAEA
:1002300003B4FFF7F2FF03BC03F0BFFD2A4B1968BC
:100240000868B0E8F04F80F30988BFF36F8F4FF074
:10025000000080F311887047000000000648006825
:10026000006880F3088862B661B6BFF34F8FBFF3B2
:100270006F8F00DF00BF00BF08ED00E0DFF80C006B
:10028000016841F470010160704700BF88ED00E033
:10029000EFF30980BFF36F8F134B1A681EF0100F36
:1002A00008BF20ED108A20E9F04F106008B44FF02D
:1002B000500080F31188BFF34F8FBFF36F8F04F0AE
:1002C000BDFF4FF0000080F3118808BC1968086872
:1002D000B0E8F04F1EF0100F08BFB0EC108A80F3AA
:1002E0000988BFF36F8F704778000020EFF3058017
:1002F000704700000948804709480047FEE7FEE7CD
:10030000FEE7FEE7FEE7FEE7FEE7FEE7FEE7FEE7C5
:1003100004480549054A064B70470000293B000880
:1003200089010008F8130020F8190020F8150020B2
:10033000F8150020704700000FB4044910B503AA57
:10034000029800F0A3F910BC5DF814FB64000020D3
:100350002DE9F0410E460446002020622046E16867
:10036000884730B3252805D0D4E901219047206A79
:10037000401CF2E7E168204600278847050018D0B6
:10038000A5F14100192802D820354FF40067324604
:10039000294620462760FFF731FF40B1012804D0ED
:1003A000F61D26F007060836D8E7361DD6E728469C
:1003B000DAE7206ABDE8F08170B50C460546012AEF
:1003C00005D02878800600D5EA69002302E00123E1
:1003D00005E05B1C934202D2E05C0028F9D1A869D9
:1003E000E618C01AA861286A184428622846AFF3A4
:1003F000008004E0D5E9012114F8010B9047B442D4
:10040000F8D32846AFF3008070BD00002DE9F0411D
:100410000646002410687529314616A510D0AFF3A2
:100420000080002802DA404213A507E031688A07FD
:1004300001D512A502E0490704D511A5012401E068
:10044000AFF3008000210A2206F1240709E0B0FB87
:10045000F2FCB0FBF2F302FB1C003030785418467B
:10046000491C0028F3D123462A463046BDE8F04116
:1004700000F085B8000000002D0000002B000000F7
:100480002000000070B504460D4621461068AFF309
:1004900000802188090502D50F4A7A4402E00E4AFD
:1004A0007A440E32002104F1240305E000F00F0627
:1004B0000009965D5E54491C0028F7D1207800237E
:1004C000000704D5702D02D009B102231132204655
:1004D000BDE8704000F053B828740000032A40F2D1
:1004E000308010F0030C00F0158011F8013BBCF1D6
:1004F000020F624498BF11F801CB00F8013B38BFEE
:1005000011F8013BA2F1040298BF00F801CB38BFFB
:1005100000F8013B11F0030300F0CA80083AC0F074
:10052000088051F8043B083A51F804CBA0E80810C1
:10053000F5E7121D5CBF51F8043B40F8043BAFF3F4
:100540000080D20724BF11F8013B11F801CB48BF4E
:1005500011F8012B24BF00F8013B00F801CB48BF84
:1005600000F8012B704702F0FF0343EA032242EA3E
:10057000024200F0D1B870477047704770472DE9CC
:10058000F0470D4699469246044600F1240801685A
:10059000880604D5E06921F01001216000E0012007
:1005A000A84201DD471B00E00027A1697A1902EB90
:1005B0000900081AA0612078C00602D42046AFF3D3
:1005C0000080002608E0D4E901211AF806009047CF
:1005D000206A401C761C20624E45F4DB2078C00661
:1005E0000AD52046AFF3008006E0D4E9012130208F
:1005F0009047206A401C2062381EA7F10107F4DCF6
:1006000007E0D4E9012118F805009047206A401C52
:100610002062281EA5F10105F3DC2046AFF300801F
:100620002078000602D50220BDE8F0870120FBE714
:1006300001694A1C02610878704700B58FB0CDE9A6
:1006400001310021059105497944CDE90310114696
:100650006846FFF77DFE0FB000BD0000E5FFFFFF1D
:1006600010B5436913B1AFF3008001E0FFF7A4FEBA
:10067000012010BD127800F124010A7000224A7096
:100680000122EDE711684FF0FF32E9E7074B70B543
:100690000D467B44FFF7D1FF0446284600F05CF886
:1006A00010B14FF0FF3070BD204670BDCB37000059
:1006B00010B5203AC0F00B80B1E81850203AA0E8FD
:1006C0001850B1E81850A0E81850BFF4F5AF5FEA31
:1006D000027C24BFB1E81850A0E8185044BF18C9E4
:1006E00018C0BDE810405FEA827C24BF51F8043B8B
:1006F00040F8043B08BF7047D20728BF31F8023BDF
:1007000048BF11F8012B28BF20F8023B48BF00F872
:10071000012B70474FF000020429C0F0128010F046
:10072000030C00F01F80CCF1040CBCF1020F18BFC9
:1007300000F8012BA8BF20F8022BA1EB0C0100F060
:1007400011B85FEAC17C24BF00F8012B00F8012B2F
:1007500048BF00F8012B7047007B00F08000704715
:100760004FF0000200B5134694469646203922BF4A
:10077000A0E80C50A0E80C50B1F12001BFF4F7AF95
:10078000090728BFA0E80C5048BF0CC05DF804EB77
:10079000890028BF40F8042B08BF704748BF20F8E5
:1007A000022B11F0804F18BF00F8012B70477546DF
:1007B00000F02CF8AE4605006946534620F00700CD
:1007C000854618B020B5FFF7A3FDBDE820404FF0E7
:1007D00000064FF000074FF000084FF0000B21F02B
:1007E0000701AC46ACE8C009ACE8C009ACE8C009F8
:1007F000ACE8C0098D46704710B50446AFF30080E1
:100800002046BDE81040FFF713BD000000487047C8
:1008100098130020FEE770478000A0F1C040002937
:10082000016802D041F0010101E0024A114001607B
:1008300070470000FEFF0F0010B5D0E90112114310
:10084000D0E903231A4311434269114382691143DA
:10085000C2691143026A1143426A1143826A114319
:10086000C26A1143026B114302689200A2F1C042B6
:1008700011608168082907D101688900A1F1C04190
:100880000A6842F040020A60416BD1E9002342EA63
:1008900003128B688C891B0243EA04431A430B8AB8
:1008A00042EA03520B7D896942EA03620A43016806
:1008B0008900A1F1C0414A60C16AB1F5804F08D0FA
:1008C00000686FF070418000A0F1C040C0F80411D2
:1008D00010BD816BD1E9002342EA03128B680C8AB8
:1008E0001B0243EA04531A430B7D896942EA0362FF
:1008F00000680A438000A0F1C040C0F8042110BD88
:10090000F0B5002201274FF0030C0B6807FA02F53F
:100910002B40AB422CD1066853000CFA03F4A643DB
:1009200006600E79D0F800E09E4046EA0E060660AA
:100930000E79012E01D0022E12D18668A643866060
:100940004E79D0F808E09E4046EA0E06866046687A
:10095000AE43466045688E799640B6B235434560F1
:10096000C568A543C560CC799C40C3681C43C4607E
:10097000521C102AC9D3F0BD4B07DB0E9A40C908A0
:1009800010B500EB8100016A0F249C40A143016275
:10099000016A1143016210BD01837047FEE7000048
:1009A00070B50A490646002408884D88214645430B
:1009B000204602F00BFE02F06DFF4FF0D84002E03F
:1009C000A0F88060641CAC42FAD370BDD00E002049
:1009D0002DE9F04F2B4B2C27194698712B25898830
:1009E0004FF4305A4FF4285B4FF4487441F6631EBD
:1009F0002A264FF0F00845F210594FF4A07C4FF42E
:100A0000F072C8B1A3F800C0A3F80280494533D101
:100A1000A3F808A0A3F80AB0280298811C805A8085
:100A2000A1F5A640103802D11A80A3F802C0BDE893
:100A3000F04F002002F0FABCA3F80080A3F802C037
:100A4000494507D1A3F808A0A3F80AB04FF42C50E9
:100A5000988104E071451F8104D15D819E811A80D7
:100A60005C8001E05E819D81A1F5A6401038DED159
:100A7000A3F800C05A80DAE71F815E8171459D812D
:100A8000CCD0CDE7D00E00202DE9FE4F0026A2EB02
:100A9000000882465F1A701E35468946B8F1000F7D
:100AA00002DD4FF0010102E003D14FF0000101919E
:100AB00002E0C8F100080190002F02DD4FF00100B4
:100AC00002E003D14FF00000009002E0C7F1000700
:100AD00000904046B84501DD044600E03C46601CFD
:100AE0004FF0000B029015E01FFA89F11FFA8AF00F
:100AF00000F016F846443D44A64202DD0199361B3B
:100B00008A44A54202DD00992D1B89440BF10100A6
:100B10001FFA80FB02998B45E6DDBDE8FE8F0000E1
:100B200000B502F053FD02F0B5FE03484FF0D84186
:100B30000088A1F8800000BD58000020F0B51C46D8
:100B400015460E4607460B46FFF79EFF3A462346DC
:100B500031461046FFF798FF23462A461946384685
:100B6000FFF792FF2A4623463146BDE8F040104683
:100B7000FFF78ABF2DE9F041314D90460C46024601
:100B8000060AA9882846270A4089A1F5AA43103BEE
:100B90000FD0A1F5C853633B24D002F06EFE30465F
:100BA00002F05FFED0B202F05CFEA88902F065FEA2
:100BB00036E002F062FE304602F053FE6889401CC7
:100BC00080B202F05AFED0B202F04BFEA88902F0C9
:100BD00054FE384602F045FEA889401C80B202F05F
:100BE0004CFE20E0A97919B92988891A491E8AB2D0
:100BF00002F043FE160A304602F033FED0B202F095
:100C000030FE304602F02DFED0B202F02AFEA88956
:100C100002F033FE384602F024FEE0B202F021FE7C
:100C2000384602F01EFEE0B202F01BFE4FF0D84044
:100C3000298920F87E1FA0F80280BDE8F08100001D
:100C4000D00E00202DE9F0438146A2EB0900401CA4
:100C50001F460C4685B24FF0D848079E10E021464B
:100C6000484602F0B3FC02F015FE0020414603E0C6
:100C7000A1F88060401C80B2A842F9D3641CA4B2E1
:100C8000BC42ECD9BDE8F0832DE9F04FA1B00024BF
:100C900001217A201F9402F06BFE0121084602F028
:100CA00073FE01258DF804504FF400408DF8064086
:100CB000022600908DF805608DF807506946FE48C1
:100CC000FFF71EFE8DF804604CF233708DF806407D
:100CD0000327DFF8E88300908DF805708DF8075042
:100CE00069464046FFF70CFE8DF804604FF68070B1
:100CF0008DF80640DFF8C89300908DF805708DF8E8
:100D0000075069464846FFF7FBFD8DF8046028034D
:100D10008DF8064000908DF805708DF807506946F3
:100D2000E848FFF7EDFD8DF8046028038DF80640D4
:100D300000908DF805708DF807506946E248FFF77E
:100D4000DFFD0C2200214046FFF716FE0C22012198
:100D50004046FFF711FE0C2204214046FFF70CFE2F
:100D60000C2205214046FFF707FE0C2208214046D1
:100D7000FFF702FE0C2209214046FFF7FDFD0C2281
:100D80000A214046FFF7F8FD0C220E214046FFF7EE
:100D9000F3FD0C220F214046FFF7EEFD0C22072148
:100DA0004846FFF7E9FD0C2208214846FFF7E4FD1D
:100DB0000C2209214846FFF7DFFD0C220A21484694
:100DC000FFF7DAFD0C220B214846FFF7D5FD0C2278
:100DD00011464846FFF7D0FD0C220D214846FFF78B
:100DE000CBFD0C220E214846FFF7C6FD0C220F2139
:100DF0004846FFF7C1FD0C221146B248FFF7BCFD83
:100E00000C221146B048FFF7B7FD0F20CDE91104C1
:100E10003C20CDE91304159409201694CDE9174020
:100E20000820CDE919401B941C940620CDE902044A
:100E30001D941E941020CDE9044006940002CDE9D3
:100E40000A40089407948000CDE90C40099411A849
:100E5000CDE90E4018A8109002A8FFF7EDFC012183
:100E60000620FFF7D9FC322002F0C4FFD32002F0A5
:100E700004FD02F0A9FA954CA08002F0A5FA2146E3
:100E8000888002F0A1FA4FF6FF7101EA00202146A6
:100E9000888002F099FA214645F21037898845F298
:100EA00010560843214641F663188880A0F5134187
:100EB00047F289754FF4704A4FF2010B413976D0F1
:100EC000042002F0DAFC02F07FFAA08002F07CFA43
:100ED000A08002F079FA4FF6FF7202EA0020A080AB
:100EE00002F072FAA1880843A0F50541A0805239AA
:100EF0007DD0A8425BD0D42002F0BFFC02F064FA9F
:100F0000A08002F061FAA08002F05EFA02EA0020FE
:100F10009146A08002F058FAA1880843A080B84208
:100F200045D05521504602F0BFFCAA21584602F098
:100F3000BBFC52214FF2020002F0B6FC08214FF236
:100F4000030002F0B1FC01214FF2040002F0ACFCFE
:100F50004FF4454002F091FC02F036FA09EA002015
:100F6000A0804CF2015002F088FC02F02DFAA1881A
:100F70000843A080052002F03DFFA088B0F5004F97
:100F800045D0B04213D0A12002F077FC02F01CFA49
:100F9000A08002F019FA09EA0020A08002F014FAF9
:100FA000A1880843A0F5AE41A08061392CD0A0886B
:100FB000A0F51341413907D0A84205D0B84203D06B
:100FC000B04201D0404528D14FF02040D0F81C114C
:100FD00021F00F01C0F81C11D0F81C1121F4706130
:100FE000C0F81C11D0F81C1141F0030100E009E029
:100FF000C0F81C11A188A942D0F81C1109D141F4F4
:10100000407108E0A580DFE7A4F80480DCE7A68053
:10101000DAE741F40071C0F81C11A1882CA0FFF799
:101020008BF9A088A0F5134141397DD0A8427CD12D
:10103000112002F022FC782002F0DCFE362002F0C3
:101040001CFC002002F00DFC3A2002F016FC0520EA
:1010500002F007FCB22002F010FC0C2002F001FCB0
:101060000C2002F0FEFB002002F0FBFB332002F01C
:10107000F8FB332002F0F5FBB72002F0FEFB352031
:1010800002F0EFFBBB2002F0F8FB322002F0E9FB9C
:10109000C02002F0F2FB0C2002F0E3FBC22002F0C1
:1010A000ECFB012002F0DDFBC32002F0E6FB102088
:1010B00002F0D7FBC42013E000040240000C024001
:1010C000001002400014024000180240D00E002020
:1010D000204C43442049443A25780D0A0000000082
:1010E00002F0CBFB202002F0BCFBC62002F0C5FBC7
:1010F0000F2002F0B6FBD02002F0BFFBA42002F0CC
:10110000B0FBA12002F0ADFBE02002F0B6FBD02046
:1011100002F0A7FB002002F0A4FB022002F0A1FBDA
:10112000072002F09EFB01E06CE07DE10A2002F066
:1011300098FB282002F095FB322002F092FB44201D
:1011400002F08FFB422002F08CFB062002F089FBAC
:101150000E2002F086FB122002F083FB142002F026
:1011600080FB172002F07DFBE12002F086FBD020FF
:1011700002F077FB002002F074FB022002F071FB0A
:10118000072002F06EFB0A2002F06BFB282002F021
:1011900068FB312002F065FB542002F062FB47201F
:1011A00002F05FFB0E2002F05CFB1C2002F059FBFA
:1011B000172002F056FB1B2002F053FB1E2002F00A
:1011C00050FB2A2002F059FB002002F04AFB0020CD
:1011D00002F047FB002002F044FBEF2002F041FB4D
:1011E0002B2002F04AFB002002F03BFB002002F023
:1011F00038FB012002F035FB3F2002F032FB2920B2
:1012000002F00CB8CF2002F038FB002002F029FBDE
:10121000C12002F026FB302002F023FBED2002F07B
:101220002CFB642002F01DFB032002F01AFB1220AD
:1012300002F017FB812002F014FBE82002F01DFBF6
:10124000852002F00EFB102002F00BFB7A2002F04A
:1012500008FBCB2002F011FB392002F002FB2C200E
:1012600002F0FFFA002002F0FCFA342002F0F9FA52
:10127000022002F0F6FAF72002F0FFFA202002F036
:10128000F0FAEA2002F0F9FA002002F0EAFA00206F
:1012900002F0E7FAC02002F0F0FA1B2002F0E1FAB7
:1012A000C12002F0EAFA012002F0DBFAC52002F0C8
:1012B000E4FA302002F0D5FA302002F0D2FAC7204A
:1012C00002F0DBFAB72002F0CCFA362002F0D5FAB1
:1012D000482002F0C6FA3A2002F0CFFA552002F078
:1012E000C0FAB12002F0C9FA002002F0BAFA1A20BE
:1012F00002F0B7FAB62002F0C0FA0A2002F0B1FA02
:10130000A22002F0AEFAF22002F0B7FA002002F0BA
:10131000A8FA262002F0B1FA012002F0A2FAE02099
:1013200002F0ABFA0F2002F09CFA2A2002F099FAA0
:10133000282002F096FA082002F093FA0E2002F01C
:1013400090FA082002F08DFA542002F08AFAA920BF
:1013500002F087FA432002F084FA0A2002F081FAB0
:101360000F2002F07EFA002002F07BFA002002F04B
:1013700078FA002002F075FA002002F072FAE120FB
:1013800002F07BFA002002F06CFA152002F069FAF4
:10139000172002F066FA072002F063FA112002F02B
:1013A00060FA062002F05DFA2B2002F05AFA56206D
:1013B00002F057FA3C2002F054FA052002F051FAEC
:1013C000102002F04EFA0F2002F04BFA3F2002F0FC
:1013D00048FA3F2002F045FA0F2002F042FA2B2093
:1013E00002F04BFA002002F03CFA002002F039FA39
:1013F000012002F036FA3F2002F033FA2A2002F0F0
:101400003CFA002002F02DFA002002F02AFA002017
:1014100002F027FAEF2002F024FA112002F02DFA50
:10142000782002F0E7FCEAE6B8427CD1ED2002F039
:1014300024FA012002F015FAFE2002F012FAEE2042
:1014400002F01BFADE2002F00CFA212002F009FA69
:10145000F12002F012FA012002F003FADF2002F07C
:101460000CFA102002F0FDF9C42002F006FA8F20D9
:1014700002F0F7F9C62002F000FA002002F0F1F9BC
:10148000E22002F0EEF9E22002F0EBF9E22002F0B5
:10149000E8F9BF2002F0F1F9AA2002F0E2F9B02049
:1014A00002F0EBF90D2002F0DCF9002002F0D9F98E
:1014B0000D2002F0D6F9002002F0D3F9112002F03D
:1014C000D0F9002002F0CDF9192002F0CAF900206D
:1014D00002F0C7F9212002F0C4F9002002F0C1F99E
:1014E0002D2002F0BEF9002002F0BBF93D2002F0F1
:1014F000B8F9002002F0B5F95D2002F0B2F9002041
:1015000002F0AFF95D2002F0ACF9002002F0A9F979
:10151000B12002F0B2F9802002F0A3F9002002F01D
:10152000A0F98B2000E0FCE302F09BF9002002F020
:1015300098F9962002F095F9002002F092F9B22075
:1015400002F09BF9002002F08CF9002002F089F9EA
:10155000022002F086F9002002F083F9032002F055
:1015600080F9002002F07DF9B32002F086F9002016
:1015700002F077F9002002F074F9002002F071F90E
:10158000002002F06EF9002002F06BF9002002F05A
:1015900068F9002002F065F9002002F062F90020ED
:1015A00002F05FF9002002F05CF9002002F059F926
:1015B000002002F056F9002002F053F9002002F05A
:1015C00050F9002002F04DF9002002F04AF9002005
:1015D00002F047F9002002F044F9002002F041F93E
:1015E000002002F03EF9002002F03BF9002002F05A
:1015F00038F9002002F035F9002002F032F9B42069
:1016000002F03BF98B2002F02CF9002002F029F9BE
:10161000962002F026F9002002F023F9A12002F022
:1016200020F9002002F01DF9B52002F026F9022071
:1016300002F017F9002002F014F9032002F011F96A
:10164000002002F00EF9042002F00BF9002002F055
:1016500008F9B62002F011F9002002F002F900208A
:1016600002F0FFF8B72002F008F9002002F0F9F8C4
:10167000002002F0F6F83F2002F0F3F8002002F01C
:10168000F0F85E2002F0EDF8002002F0EAF86420A5
:1016900002F0E7F8002002F0E4F88C2002F0E1F814
:1016A000002002F0DEF8AC2002F0DBF8002002F0AF
:1016B000D8F8DC2002F0D5F8002002F0D2F8702033
:1016C00002F0CFF8002002F0CCF8902002F0C9F828
:1016D000002002F0C6F8EB2002F0C3F8002002F070
:1016E000C0F8DC2002F0BDF8002002F0BAF8B82003
:1016F00002F0C3F8002002F0B4F8002002F0B1F8C4
:10170000002002F0AEF8002002F0ABF8002002F05A
:10171000A8F8002002F0A5F8002002F0A2F80020AE
:1017200002F09FF8BA2002F0A8F8242002F099F8FD
:10173000002002F096F8002002F093F8002002F05A
:1017400090F8C12002F099F8202002F08AF80020D9
:1017500002F087F8542002F084F8002002F081F8AB
:10176000FF2002F07EF8002002F07BF8C22002F099
:1017700084F80A2002F075F8002002F072F80420C4
:1017800002F06FF8002002F06CF8C32002F075F848
:101790003C2002F066F8002002F063F83A2002F0E4
:1017A00060F8002002F05DF8392002F05AF80020BD
:1017B00002F057F8372002F054F8002002F051F8F8
:1017C0003C2002F04EF8002002F04BF8362002F0E8
:1017D00048F8002002F045F8322002F042F80020DC
:1017E00002F03FF82F2002F03CF8002002F039F818
:1017F0002C2002F036F8002002F033F8292002F005
:1018000030F8002002F02DF8262002F02AF80020FF
:1018100002F027F8242002F024F8002002F021F83A
:10182000242002F01EF8002002F01BF8232002F012
:1018300018F8002002F015F83C2002F012F8002001
:1018400002F00FF8362002F00CF8002002F009F840
:10185000322002F006F8002002F003F82F2002F0F8
:1018600000F8002001F0FDFF2C2001F0FAFF00201D
:1018700001F0F7FF292001F0F4FF002001F0F1FF53
:10188000262001F0EEFF002001F0EBFF242001F004
:10189000E8FF002001F0E5FF242001F0E2FF002036
:1018A00001F0DFFF232001F0DCFF002001F0D9FF71
:1018B000C42001F0E2FF622001F0D3FF002001F01C
:1018C000D0FF052001F0CDFF002001F0CAFF8420E9
:1018D00001F0C7FF002001F0C4FFF02001F0C1FFBC
:1018E000002001F0BEFF182001F0BBFF002001F036
:1018F000B8FFA42001F0B5FF002001F0B2FF1820CE
:1019000001F0AFFF002001F0ACFF502001F0A9FF73
:10191000002001F0A6FF0C2001F0A3FF002001F041
:10192000A0FF172001F09DFF002001F09AFF9520F5
:1019300001F097FF002001F094FFF32001F091FFE8
:10194000002001F08EFFE62001F08BFF002001F067
:1019500088FFC52001F091FF322001F082FF0020B6
:1019600001F07FFF442001F07CFF002001F079FFAF
:10197000652001F076FF002001F073FF762001F072
:1019800070FF002001F06DFF882001F06AFF002049
:1019900001F067FFC62001F070FF202001F061FF19
:1019A000002001F05EFF172001F05BFF002001F036
:1019B00058FF012001F055FF002001F052FFC72021
:1019C00001F05BFF002001F04CFF002001F049FF17
:1019D000002001F046FF002001F043FFC82001F085
:1019E0004CFF002001F03DFF002001F03AFF0020F5
:1019F00001F037FF002001F034FFC92001F03DFF66
:101A0000002001F02EFF002001F02BFF002001F04C
:101A100028FF002001F025FF002001F022FF002018
:101A200001F01FFF002001F01CFF002001F019FF52
:101A3000002001F016FF002001F013FF002001F04C
:101A400010FF002001F00DFF002001F00AFF002030
:101A500001F007FF002001F004FF002001F001FF6A
:101A6000E02001F00AFF162001F0FBFE002001F04B
:101A7000F8FE1C2001F0F5FE002001F0F2FE21200E
:101A800001F0EFFE002001F0ECFE362001F0E9FE4F
:101A9000002001F0E6FE462001F0E3FE002001F008
:101AA000E0FE522001F0DDFE002001F0DAFE6420AD
:101AB00001F0D7FE002001F0D4FE7A2001F0D1FE23
:101AC000002001F0CEFE8B2001F0CBFE002001F0C3
:101AD000C8FE992001F0C5FE002001F0C2FEA8203A
:101AE00001F0BFFE002001F0BCFEB92001F0B9FEFC
:101AF000002001F0B6FEC42001F0B3FE002001F08A
:101B0000B0FECA2001F0ADFE002001F0AAFED220F6
:101B100001F0A7FE002001F0A4FED92001F0A1FEF3
:101B2000002001F09EFEE02001F09BFE002001F06D
:101B300098FEF32001F095FE002001F092FEE120D6
:101B400001F09BFE162001F08CFE002001F089FEC2
:101B50001C2001F086FE002001F083FE222001F00F
:101B600080FE002001F07DFE362001F07AFE00208C
:101B700001F077FE452001F074FE002001F071FEB7
:101B8000522001F06EFE002001F06BFE642001F097
:101B900068FE002001F065FE7A2001F062FE002060
:101BA00001F05FFE8B2001F05CFE002001F059FE89
:101BB000992001F056FE002001F053FEA82001F00C
:101BC00050FE002001F04DFEB92001F04AFE002039
:101BD00001F047FEC42001F044FE002001F041FE68
:101BE000CA2001F03EFE002001F03BFED22001F0B1
:101BF00038FE002001F035FED82001F032FE002032
:101C000001F02FFEE02001F02CFE002001F029FE63
:101C1000F32001F026FE002001F023FEE22001F077
:101C20002CFE052001F01DFE002001F01AFE0B2005
:101C300001F017FE002001F014FE1B2001F011FE40
:101C4000002001F00EFE342001F00BFE002001F018
:101C500008FE442001F005FE002001F002FE4F20A6
:101C600001F0FFFD002001F0FCFD612001F0F9FD15
:101C7000002001F0F6FD792001F0F3FD002001F0D5
:101C8000F0FD882001F0EDFD002001F0EAFD972035
:101C900001F0E7FD002001F0E4FDA62001F0E1FDE8
:101CA000002001F0DEFDB72001F0DBFD002001F097
:101CB000D8FDC22001F0D5FD002001F0D2FDC720E3
:101CC00001F0CFFD002001F0CCFDD12001F0C9FDD5
:101CD000002001F0C6FDD62001F0C3FD002001F078
:101CE000C0FDDD2001F0BDFD002001F0BAFDF320B4
:101CF00001F0B7FD002001F0B4FDE32001F0BDFDCF
:101D0000052001F0AEFD002001F0ABFD0A2001F03E
:101D1000A8FD002001F0A5FD1C2001F0A2FD00207F
:101D200000E0FDE201F09DFD332001F09AFD00206E
:101D300001F097FD442001F094FD002001F091FD99
:101D4000502001F08EFD002001F08BFD622001F09B
:101D500088FD002001F085FD782001F082FD002043
:101D600001F07FFD882001F07CFD002001F079FD6D
:101D7000972001F076FD002001F073FDA62001F010
:101D800070FD002001F06DFDB72001F06AFD00201C
:101D900001F067FDC22001F064FD002001F061FD4B
:101DA000C72001F05EFD002001F05BFDD12001F0B5
:101DB00058FD002001F055FDD52001F052FD002016
:101DC00001F04FFDDD2001F04CFD002001F049FD48
:101DD000F32001F046FD002001F043FDE42001F076
:101DE0004CFD012001F03DFD002001F03AFD0120F5
:101DF00001F037FD002001F034FD022001F031FD3B
:101E0000002001F02EFD2A2001F02BFD002001F022
:101E100028FD3C2001F025FD002001F022FD4B2093
:101E200001F01FFD002001F01CFD5D2001F019FDF7
:101E3000002001F016FD742001F013FD002001F0D8
:101E400010FD842001F00DFD002001F00AFD93201B
:101E500001F007FD002001F004FDA22001F001FDCA
:101E6000002001F0FEFCB32001F0FBFC002001F09B
:101E7000F8FCBE2001F0F5FC002001F0F2FCC420CB
:101E800001F0EFFC002001F0ECFCCD2001F0E9FCBA
:101E9000002001F0E6FCD32001F0E3FC002001F07B
:101EA000E0FCDD2001F0DDFC002001F0DAFCF32095
:101EB00001F0D7FC002001F0D4FCE52001F0DDFCAE
:101EC000002001F0CEFC002001F0CBFC002001F04E
:101ED000C8FC002001F0C5FC022001F0C2FC00207B
:101EE00001F0BFFC292001F0BCFC002001F0B9FC8E
:101EF0003C2001F0B6FC002001F0B3FC4B2001F0C7
:101F0000B0FC002001F0ADFC5D2001F0AAFC002037
:101F100001F0A7FC742001F0A4FC002001F0A1FC5A
:101F2000842001F09EFC002001F09BFC932001F036
:101F300098FC002001F095FCA22001F092FC00200A
:101F400001F08FFCB32001F08CFC002001F089FC33
:101F5000BE2001F086FC002001F083FCC42001F0CB
:101F600080FC002001F07DFCCD2001F07AFC0020F7
:101F700001F077FCD32001F074FC002001F071FC2B
:101F8000DC2001F06EFC002001F06BFCF32001F07E
:101F900068FC002001F065FCE62001F06EFC1120D9
:101FA00001F05FFC002001F05CFC342001F059FCE2
:101FB000002001F056FC562001F053FC002001F0F7
:101FC00050FC762001F04DFC002001F04AFC772007
:101FD00001F047FC002001F044FC662001F041FCC8
:101FE000002001F03EFC882001F03BFC002001F0C5
:101FF00038FC992001F035FC002001F032FCBB20B8
:1020000001F02FFC002001F02CFC992001F029FCAC
:10201000002001F026FC662001F023FC002001F0E6
:1020200020FC552001F01DFC002001F01AFC552079
:1020300001F017FC002001F014FC452001F011FC18
:10204000002001F00EFC432001F00BFC002001F009
:1020500008FC442001F005FC002001F002FCE72010
:1020600001F00BFC322001F0FCFB002001F0F9FB39
:10207000552001F0F6FB002001F0F3FB762001F083
:10208000F0FB002001F0EDFB662001F0EAFB0020F0
:1020900001F0E7FB672001F0E4FB002001F0E1FB29
:1020A000672001F0DEFB002001F0DBFB872001F060
:1020B000D8FB002001F0D5FB992001F0D2FB0020D5
:1020C00001F0CFFBBB2001F0CCFB002001F0C9FBED
:1020D000992001F0C6FB002001F0C3FB772001F03E
:1020E000C0FB002001F0BDFB442001F0BAFB002042
:1020F00001F0B7FB562001F0B4FB002001F0B1FB6A
:10210000232001F0AEFB002001F0ABFB332001F0F7
:10211000A8FB002001F0A5FB452001F0A2FB002058
:1021200001F09FFBE82001F0A8FB002001F099FBE3
:10213000002001F096FB992001F093FB002001F0B4
:1021400090FB872001F08DFB002001F08AFB8820A6
:1021500001F087FB002001F084FB772001F081FB78
:10216000002001F07EFB662001F07BFB002001F0E7
:1021700078FB882001F075FB002001F072FBAA209B
:1021800001F06FFB002001F06CFBBB2001F069FB4C
:10219000002001F066FB992001F063FB002001F0B4
:1021A00060FB662001F05DFB002001F05AFB55202A
:1021B00001F057FB002001F054FB552001F051FBCA
:1021C000002001F04EFB442001F04BFB002001F009
:1021D00048FB442001F045FB002001F042FB552064
:1021E00001F03FFB002001F03CFBE92001F045FB42
:1021F000AA2001F036FB002001F033FB002001F0A3
:1022000030FB002001F02DFB002001F036FBAA205E
:1022100001F027FBCF2001F030FB002001F021FB73
:10222000002001F01EFB002001F01BFB002001F04C
:1022300018FB002001F015FB002001F012FB00202C
:1022400001F00FFB002001F00CFB002001F009FB66
:10225000002001F006FB002001F003FB002001F04C
:1022600000FB002001F0FDFA002001F0FAFA002046
:1022700001F0F7FA002001F0F4FA002001F0F1FA81
:10228000F02001F0FAFA002001F0EBFA502001F002
:10229000E8FA002001F0E5FA002001F0E2FA00205F
:1022A00001F0DFFAF32001F0E8FA002001F0D9FA9A
:1022B000F92001F0E2FA062001F0D3FA102001F033
:1022C000D0FA292001F0CDFA002001F0CAFA3A2014
:1022D00001F0D3FA552001F0C4FA112001F0CDFA33
:1022E000642001F087FD292001F0C7FA352001F0B4
:1022F000C4FA002001F0B5FA512001F0BEFAFF2027
:1023000001F0AFFA532001F0B8FA2C2001F0A9FA3D
:10231000552001F0B2FA822001F0A3FA2C20FCE350
:10232000B0427DD155215346504601F0BDFAAA2155
:102330005C46584601F0B8FA4FF202055221284691
:1023400001F0B2FA6E1C0821304601F0ADFAAF1C64
:102350000121384601F0A8FA0D214FF4304001F078
:10236000A3FA0D214BF2010001F09EFA0D214BF270
:10237000020001F099FA4FF436483421404601F04A
:1023800093FA34214BF2016001F08EFA34214BF2C2
:10239000026001F089FA4FF431490D21484601F0FD
:1023A00083FA4BF2011A0D21504601F07DFA0D21FE
:1023B0004BF2021001F078FA4FF4374B34215846B3
:1023C00001F072FA34214BF2017001F06DFA342100
:1023D0004BF2027001F068FA00214FF4324001F034
:1023E00063FA00214BF2012001F05EFA00214BF26A
:1023F000022001F059FA24214FF4384001F054FA38
:1024000024214BF6010001F04FFA24214BF6020083
:1024100001F04AFA01214FF43F4001F045FA00E093
:10242000FEE30F214FF4334001F03EFA0F214BF24F
:10243000013001F039FA0F214BF2023001F034FA89
:1024400034214FF4394001F02FFA34214BF60110BA
:1024500001F02AFA34214BF6021001F025FA082186
:102460004FF4354001F020FA08214BF2015001F001
:102470001BFA08214BF2025001F016FA03214FF427
:10248000424001F011FA24214FF43A4001F00CFAD5
:1024900024214BF6012001F007FA24214BF60220FB
:1024A00001F002FA00214FF43C4001F0FDF97821DF
:1024B0004BF6014001F0F8F900214BF6024001F023
:1024C000F3F900214FF43D4001F0EEF978214BF68D
:1024D000015001F0E9F900214BF6025001F0E4F956
:1024E00000214FF43E4001F0DFF964214BF601601A
:1024F00001F0DAF900214FF4514001F0D5F9332110
:102500004DF2011001F0D0F900214DF2021001F05E
:10251000CBF934214DF2031001F0C6F900214DF240
:10252000041001F0C1F93A214DF2051001F0BCF997
:1025300000214DF2061001F0B7F94A214DF20710C3
:1025400001F0B2F900214DF2081001F0ADF95C2163
:102550004DF2091001F0A8F900214DF20A1001F026
:10256000A3F981214DF20B1001F09EF900214DF2EB
:102570000C1001F099F9A6214DF20D1001F094F91B
:1025800000214DF20E1001F08FF9E5214DF20F10F0
:1025900001F08AF901214DF2101001F085F91321A3
:1025A0004DF2111001F080F901214DF2121001F0ED
:1025B0007BF954214DF2131001F076F901214DF20F
:1025C000141001F071F982214DF2151001F06CF92F
:1025D00001214DF2161001F067F9CA214DF21710D2
:1025E00001F062F902214DF2181001F05DF90021AD
:1025F0004DF2191001F058F902214DF21A1001F0B4
:1026000053F901214DF21B1001F04EF902214DF258
:102610001C1001F049F934214DF21D1001F044F96C
:1026200002214DF21E1001F03FF967214DF21F10FB
:1026300001F03AF902214DF2201001F035F9842120
:102640004DF2211001F030F902214DF2221001F07B
:102650002BF9A4214DF2231001F026F902214DF2AD
:10266000241001F021F9B7214DF2251001F01CF9D9
:1026700002214DF2261001F017F9CF214DF227105B
:1026800001F012F902214DF2281001F00DF9DE21BE
:102690004DF2291001F008F902214DF22A1001F043
:1026A00003F9F2214DF22B1001F0FEF802214DF258
:1026B0002C1001F0F9F8FE214DF22D1001F0F4F884
:1026C00003214DF22E1001F0EFF810214DF22F10E2
:1026D00001F0EAF803214DF2301001F0E5F8332162
:1026E0004DF2311001F0E0F803214DF2321001F00B
:1026F000DBF86D214DF2331001F0D6F800214FF4D4
:10270000524001F0D1F833214DF2012001F0CCF814
:1027100000214DF2022001F0C7F834214DF20320D0
:1027200001F0C2F800214DF2042001F0BDF83A2179
:102730004DF2052001F0B8F800214DF2062001F01D
:10274000B3F84A214DF2072001F0AEF800214DF216
:10275000082001F0A9F85C214DF2092001F0A4F84D
:1027600000214DF20A2001F09FF881214DF20B204B
:1027700001F09AF800214DF20C2001F095F8A62105
:102780004DF20D2001F090F800214DF20E2001F0E5
:102790008BF8E5214DF20F2001F086F801214DF272
:1027A000102001F081F813214DF2112001F07CF886
:1027B00001214DF2122001F077F854214DF213203F
:1027C00001F072F801214DF2142001F06DF8822120
:1027D0004DF2152001F068F801214DF2162001F0AC
:1027E00063F8CA214DF2172001F05EF802214DF284
:1027F000182001F059F800214DF2192001F054F889
:1028000002214DF21A2001F04FF801214DF21B2058
:1028100001F04AF802214DF21C2001F045F8342164
:102820004DF21D2001F040F802214DF21E2001F072
:102830003BF867214DF21F2001F036F802214DF2DE
:10284000202001F031F884214DF2212001F02CF8F4
:1028500002214DF2222001F027F8A4214DF223207D
:1028600001F022F802214DF2242001F01DF8B721D9
:102870004DF2252001F018F802214DF2262001F03A
:1028800013F8CF214DF2272001F00EF802214DF26E
:10289000282001F009F8DE214DF2292001F004F88A
:1028A00002214DF22A2000F0FFFFF2214DF22B20F1
:1028B00000F0FAFF02214DF22C2000F0F5FFFE217E
:1028C0004DF22D2000F0F0FF03214DF22E2000F0FC
:1028D000EBFF10214DF22F2000F0E6FF03214DF217
:1028E000302000F0E1FF33214DF2312000F0DCFF19
:1028F00003214DF2322000F0D7FF6D214DF233203D
:1029000000F0D2FF00214FF4534000F0CDFF3321FF
:102910004DF2013000F0C8FF00214DF2023000F00E
:10292000C3FF34214DF2033000F0BEFF00214DF211
:10293000043000F0B9FF3A214DF2053000F0B4FF49
:1029400000214DF2063000F0AFFF4A214DF2073072
:1029500000F0AAFF00214DF2083000F0A5FF5C2135
:102960004DF2093000F0A0FF00214DF20A3000F0D6
:102970009BFF81214DF20B3000F096FF00214DF2BC
:102980000C3000F091FFA6214DF20D3000F08CFFCD
:1029900000214DF20E3000F087FFE5214DF20F309F
:1029A00000F082FF01214DF2103000F07DFF132175
:1029B0004DF2113000F078FF01214DF2123000F09D
:1029C00073FF54214DF2133000F06EFF01214DF2E0
:1029D000143000F069FF82214DF2153000F064FFE1
:1029E00001214DF2163000F05FFFCA214DF2173081
:1029F00000F05AFF02214DF2183000F055FF00217F
:102A00004DF2193000F050FF02214DF21A3000F063
:102A10004BFF01214DF21B3000F046FF02214DF229
:102A20001C3000F041FF34214DF21D3000F03CFF1E
:102A300002214DF21E3000F037FF67214DF21F30AA
:102A400000F032FF02214DF2203000F02DFF8421F2
:102A50004DF2213000F028FF02214DF2223000F02B
:102A600023FFA4214DF2233000F01EFF02214DF27E
:102A7000243000F019FFB7214DF2253000F014FF8B
:102A800002214DF2263000F00FFFCF214DF227300A
:102A900000F00AFF02214DF2283000F005FFDE2190
:102AA0004DF2293000F000FF02214DF22A3000F0F3
:102AB000FBFEF2214DF22B3000F0F6FE02214DF22A
:102AC0002C3000F0F1FEFE214DF22D3000F0ECFE36
:102AD00003214DF22E3000F0E7FE10214DF22F3091
:102AE00000F0E2FE03214DF2303000F0DDFE332134
:102AF0004DF2313000F0D8FE03214DF2323000F0BB
:102B0000D3FE6D214DF2333000F0CEFE00214FF4A4
:102B1000544000F0C9FE332100E07FE34DF2014054
:102B200000F0C2FE00214DF2024000F0BDFE342153
:102B30004DF2034000F0B8FE00214DF2044000F0D9
:102B4000B3FE3A214DF2054000F0AEFE00214DF2F9
:102B5000064000F0A9FE4A214DF2074000F0A4FE15
:102B600000214DF2084000F09FFE5C214DF209402B
:102B700000F09AFE00214DF20A4000F095FE8121FE
:102B80004DF20B4000F090FE00214DF20C4000F0A1
:102B90008BFEA6214DF20D4000F086FE00214DF285
:102BA0000E4000F081FEE5214DF20F4000F07CFE6A
:102BB00001214DF2104000F077FE13214DF211403B
:102BC00000F072FE01214DF2124000F06DFE542122
:102BD0004DF2134000F068FE01214DF2144000F068
:102BE00063FE82214DF2154000F05EFE01214DF2A0
:102BF000164000F059FECA214DF2174000F054FE75
:102C000002214DF2184000F04FFE00214DF2194014
:102C100000F04AFE02214DF21A4000F045FE00E0AD
:102C2000FFE201214DF21B4000F03EFE02214DF279
:102C30001C4000F039FE34214DF21D4000F034FEFE
:102C400002214DF21E4000F02FFE67214DF21F4081
:102C500000F02AFE02214DF2204000F025FE8421E2
:102C60004DF2214000F020FE02214DF2224000F002
:102C70001BFEA4214DF2234000F016FE02214DF26E
:102C8000244000F011FEB7214DF2254000F00CFE6B
:102C900002214DF2264000F007FECF214DF22740E1
:102CA00000F002FE02214DF2284000F0FDFDDE2181
:102CB0004DF2294000F0F8FD02214DF22A4000F0CB
:102CC000F3FDF2214DF22B4000F0EEFD02214DF21A
:102CD0002C4000F0E9FDFE214DF22D4000F0E4FD16
:102CE00003214DF22E4000F0DFFD10214DF22F4068
:102CF00000F0DAFD03214DF2304000F0D5FD332124
:102D00004DF2314000F0D0FD03214DF2324000F091
:102D1000CBFD6D214DF2334000F0C6FD00214FF494
:102D2000554000F0C1FD33214DF2015000F0BCFDD3
:102D300000214DF2025000F0B7FD34214DF2035056
:102D400000F0B2FD00214DF2045000F0ADFD3A213B
:102D50004DF2055000F0A8FD00214DF2065000F0A4
:102D6000A3FD4A214DF2075000F09EFD00214DF2D7
:102D7000085000F099FD5C214DF2095000F094FDDF
:102D800000214DF20A5000F08FFD81214DF20B50D1
:102D900000F08AFD00214DF20C5000F085FDA621C7
:102DA0004DF20D5000F080FD00214DF20E5000F06C
:102DB0007BFDE5214DF20F5000F076FD01214DF233
:102DC000105000F071FD13214DF2115000F06CFD18
:102DD00001214DF2125000F067FD54214DF21350C5
:102DE00000F062FD01214DF2145000F05DFD8221E2
:102DF0004DF2155000F058FD01214DF2165000F033
:102E000053FDCA214DF2175000F04EFD02214DF244
:102E1000185000F049FD00214DF2195000F044FD1A
:102E200002214DF21A5000F03FFD01214DF21B50DE
:102E300000F03AFD02214DF21C5000F035FD342126
:102E40004DF21D5000F030FD02214DF21E5000F0F9
:102E50002BFD67214DF21F5000F026FD02214DF29F
:102E6000205000F021FD84214DF2215000F01CFD86
:102E700002214DF2225000F017FDA4214DF2235003
:102E800000F012FD02214DF2245000F00DFDB7219B
:102E90004DF2255000F008FD02214DF2265000F0C1
:102EA00003FDCF214DF2275000F0FEFC02214DF230
:102EB000285000F0F9FCDE214DF2295000F0F4FC1E
:102EC00002214DF22A5000F0EFFCF2214DF22B507E
:102ED00000F0EAFC02214DF22C5000F0E5FCFE214E
:102EE0004DF22D5000F0E0FC03214DF22E5000F089
:102EF000DBFC10214DF22F5000F0D6FC03214DF2E7
:102F0000305000F0D1FC33214DF2315000F0CCFCB8
:102F100003214DF2325000F0C7FC6D214DF23350C9
:102F200000F0C2FC00214FF4564000F0BDFC3321FC
:102F30004DF2016000F0B8FC00214DF2026000F09B
:102F4000B3FC34214DF2036000F0AEFC00214DF2E1
:102F5000046000F0A9FC3A214DF2056000F0A4FCE9
:102F600000214DF2066000F09FFC4A214DF20760FF
:102F700000F09AFC00214DF2086000F095FC5C2105
:102F80004DF2096000F090FC00214DF20A6000F063
:102F90008BFC81214DF20B6000F086FC00214DF28C
:102FA0000C6000F081FCA6214DF20D6000F07CFC6D
:102FB00000214DF20E6000F077FCE5214DF20F602C
:102FC00000F072FC01214DF2106000F06DFC132145
:102FD0004DF2116000F068FC01214DF2126000F02A
:102FE00063FC54214DF2136000F05EFC01214DF2B0
:102FF000146000F059FC82214DF2156000F054FC81
:1030000001214DF2166000F04FFCCA214DF217600D
:1030100000F04AFC02214DF2186000F045FC00214E
:103020004DF2196000F040FC02214DF21A6000F0F0
:103030003BFC01214DF21B6000F036FC02214DF2F9
:103040001C6000F031FC34214DF21D6000F02CFCBE
:1030500002214DF21E6000F027FC67214DF21F6037
:1030600000F022FC02214DF2206000F01DFC8421C2
:103070004DF2216000F018FC02214DF2226000F0B8
:1030800013FCA4214DF2236000F00EFC02214DF24E
:10309000246000F009FCB7214DF2256000F004FC2B
:1030A00002214DF2266000F0FFFBCF214DF2276098
:1030B00000F0FAFB02214DF2286000F0F5FBDE2162
:1030C0004DF2296000F0F0FB02214DF22A6000F081
:1030D000EBFBF2214DF22B6000F0E6FB02214DF2FA
:1030E0002C6000F0E1FBFE214DF22D6000F0DCFBD6
:1030F00003214DF22E6000F0D7FB10214DF22F601E
:1031000000F0D2FB03214DF2306000F0CDFB332103
:103110004DF2316000F0C8FB03214DF2326000F047
:10312000C3FB6D214DF2336000F0BEFB5521184604
:1031300000F0BAFBAA21204600F0B6FB5221284637
:1031400000F0B2FB0821304600F0AEFB002138460B
:1031500000F0AAFBCC21484600F0A6FB0021504617
:1031600000F0A2FB0521404600F09EFB702158466E
:1031700000F09AFB70214BF2017000F095FB0121E9
:103180004FF4384000F090FB03214BF6010000F0B3
:103190008BFB03214BF6020000F086FB03214BF66C
:1031A000030000F081FB02214FF43C4000F07CFB67
:1031B00000214BF6014000F077FB00214BF6024066
:1031C00000F072FBD0214FF4494000F06DFB02216A
:1031D0004CF6011000F068FB50214CF6021000F094
:1031E00063FB50214CF6031000F05EFB50214CF6BF
:1031F000041000F059FB00214FF4545000F054FB30
:1032000055214FF4685000F04FFB4FF4885000F008
:1032100034FB782000F00AFE4FF4245000F02DFB20
:10322000B9E04045FCD1E22000F027FB1D2000F072
:1032300018FB022000F015FB042000F012FB6420B4
:1032400000F0F4FDE02000F018FB012000F009FB85
:103250000A2000F0CFFDE02000F00FFB032000F07B
:1032600000FB0C2000F0C6FD012000F006FB0A2048
:1032700000F0C0FDE62000F000FB2F2000F0F1FA86
:10328000FF2000F0EEFAFF2000F0EBFAB02000F093
:10329000F4FA202000F0E5FA002000F0E2FA032022
:1032A00000F0DFFA40F21F3000F0DBFA012000F0FE
:1032B000D8FA40F2DF1000F0D4FA002000F0D1FA82
:1032C000B42000F0DAFA042000F0CBFA40F21F40FC
:1032D00000F0C7FA002000F0C4FA2E2000F0C1FA76
:1032E000002000F0BEFA002000F0BBFA002000F041
:1032F000B8FA002000F0B5FAB62000F0BEFA0220BD
:1033000000F0AFFA4FF4037000F0ABFA002000F0C9
:10331000A8FA172000F0A5FA152000F0A2FA002064
:1033200000F09FFA002000F09CFAF02000F0A5FACF
:10333000032000F096FA292000F09FFAD02000F038
:103340009CFA002000F08DFABE2000F096FA0520CD
:1033500000F087FAFE2000F084FA012000F081FAE4
:10336000002000F07EFA002000F07BFA002000F040
:1033700078FAB82000F081FA032000F072FA0120F8
:1033800000F06FFABA2000F078FA012000F069FA34
:10339000642000F023F80020FDF71AFB0549012006
:1033A000C1F8BC024FF6FF70FDF7FAFA21B0BDE894
:1033B000F08F0000008040420346012000E05843A7
:1033C000491EC9B2FBD2704708B54FF0D840B0F8DB
:1033D0008000ADF80000BDF8000008BD10B5024641
:1033E000BE2000F04AFA052000F03BFA104602F039
:1033F00074FD9FED0C1B53EC112B02F081FD02F0CC
:103400003FFD80B200F02DFA012000F02AFAFF20E3
:1034100000F027FA002000F024FABDE81040002058
:1034200000F01FBA666666666666044070B5664C54
:1034300000232146A279898841F66315012A01D02B
:103440001AB11BE0A94202D118E0A94216D10828FE
:1034500014D2DFE800F00406080A0C0E1012062051
:103460000CE007200AE0042008E0052006E0012027
:1034700004E0002002E0032000E00220082812D22D
:10348000DFE800F0110406080A0C0E1080230AE0A1
:10349000402308E0C02306E0202304E0602302E08C
:1034A000A02300E0E02345F21056B14202D14FF4D0
:1034B000585000E03620A1F51342413A03D0A1F55F
:1034C000EE42893A01D143F00803194600F0ECF9C5
:1034D000A288AA420AD098062088618802D588422C
:1034E00002D303E0884201D9218060806089B24222
:1034F00040D100F0C2F9002000F0B3F96089401C0F
:1035000080B200F0BAF9002000F0ABF96089801CAD
:1035100080B200F0B2F92088401EC0F30F2000F006
:10352000A0F96089C01C80B200F0A7F92078401E85
:10353000C0B200F096F9A08900F09FF9002000F0D9
:1035400090F9A089401C80B200F097F9002000F0AB
:1035500088F9A089801C80B200F08FF96088401E35
:10356000C0F30F2000F07DF9A089C01C80B200F0EC
:1035700084F921E000F081F9002000F072F90020C8
:1035800000F06FF92088401EC0F30F2000F069F9A9
:103590002078401EC0B200F064F9A08900F06DF9F7
:1035A000002000F05EF9002000F05BF96088401E0A
:1035B000C0F30F2000F055F9A078BDE87040401E20
:1035C000C0B200F04EB90000D00E0020F0B53A4D68
:1035D0000C460246060AA9882846270A4089A1F512
:1035E000C853633B16D0A1F5AA43103B4BD000F063
:1035F00044F9304600F035F9D0B200F032F9A8892C
:1036000000F03BF9384600F02CF9E0B2BDE8F0409C
:1036100000F027B9A97929B300F02FF9304600F05E
:1036200020F9D0B200F01DF92888401EC0F30F2009
:1036300000F017F92878401EC0B200F012F9A889EE
:1036400000F01BF9384600F00CF9E0B200F009F97F
:103650006888401EC0F30F2000F003F9A878401ED0
:10366000C0B2D3E72988891A491E8AB200F005F949
:10367000002000F0F6F8002000F0F3F8100A00F047
:10368000F0F8D0B2D9E700F0F8F8304600F0E9F8E9
:103690006889401C80B200F0F0F8D0B200F0E1F888
:1036A000A88900F0EAF8384600F0DBF8A889401C49
:1036B00080B200F0E2F8A8E7D00E00202DE9F84F24
:1036C00082461F460C468B46580700D0012000EB6F
:1036D000D700790810FB01F0203AC0B202F0FF09D0
:1036E0000026009041E00C2F10D0102F12D0182F80
:1036F0003ED1204909EBC90001EB80004FF00008E2
:10370000855D28060AD51C4802880BE009EB4900B4
:103710001A49F1E71A4901EB0910EFE70A9828B9AD
:103720001548428821465046FDF724FA6806050EE2
:103730001448641CA4B24088A04219D9A4EB0B0021
:10374000B84209D10AF101001FFA80FA0D485C461F
:10375000018851450CD906E008F1010000F0FF088E
:10376000B8F1080FCDD3761CF6B200988642BAD3D2
:10377000BDE8F88F6A6B0008580000200661000859
:103780007A650008D00E00202DE9F84F044600F0BD
:10379000FF0810190D46DDE90A761FFA80FA58195C
:1037A0001FFA80F94FF0000B11E0544502D3E819DD
:1037B000444685B24D450FD23B4629462046CDF8BA
:1037C00000B0FFF77BFF04EB570084B2761C327821
:1037D000A2F120005E28E8D9BDE8F88F2DE9FF4F5F
:1037E00081B08046DDF83CA00E984FF000091F46DE
:1037F00093464C460AF0010546082BE0381B401E54
:10380000C1B20A20FFF7D8FDBBFBF0F00A21B0FBE4
:10381000F1F201FB1200B9F1000F05D1791E8C42C3
:1038200002DA48B14FF001093030C2B206FB048021
:1038300080B200950E9B08E05FEA0A6006FB0480F8
:103840000E9B80B200950AD530220299FFF736FF11
:10385000641CE4B2BC42D1D305B0BDE8F08F202295
:10386000F3E701B5BDF80000ADF80000BDF80000B9
:103870004FF0D841A1F8800008BD01B5BDF80000A7
:10388000ADF80000BDF800004FF0D841A1F87E006F
:1038900008BD000003484FF0D8410089A1F87E0020
:1038A00070470000D00E00204FF0D84222F87E0F63
:1038B000518070477CB50121202000F059F801208B
:1038C0008DF8040000228DF8062003218DF80510E4
:1038D000074D4FF4C0648DF80700009469462846F0
:1038E000FDF70EF821462846FDF756F87CBD00008E
:1038F00000140240FEE7704730B50F23C27801780C
:103900000125FAB1144A126801F1E02102F4E062E3
:10391000C2F5E062C2F30722C2F10404D340427848
:10392000A24084781C401443220181F800240078CE
:1039300000F01F018D404009800000F1E020C0F838
:10394000005130BD01F01F0085404809800000F1A2
:10395000E020C0F8805130BD0CED00E00249084382
:1039600002490860704700000000FA050CED00E015
:10397000044A0029116801D0014300E0814311602D
:103980007047000030380240044A0029116801D015
:10399000014300E081431160704700003838024065
:1039A000044A0029116801D0014300E081431160FD
:1039B000704700004438024070B5204B1968204C15
:1039C00011F00C0104D06610042903D0082903D09B
:1039D00004601BE0066019E0184A121F1168C1F369
:1039E0008055116801F03F0115B1B6FBF1F101E01E
:1039F000B4FBF1F114681268C4F388146143C2F394
:103A00000142521C5200B1FBF2F1016019680F2211
:103A100002EA11110B4A545C0168E14041601C68E4
:103A2000072505EA9424145D21FA04F484601B68D8
:103A300005EA5333D25CD140C16070BD0838024002
:103A40000024F400680000200CB5002227490092F1
:103A50000192086840F4803008604FF4A043086881
:103A600000F4003001900098401C0090019810B9BB
:103A700000989842F3D10868800334D50120019062
:103A80001A484030026842F08052026018480268CA
:103A900042F4404202601548083002680260026841
:103AA00042F400420260026842F4A0520260031F26
:103AB000104A1A600A6842F080720A600A6892012D
:103AC000FCD50D4940F205720A60016821F003013E
:103AD0000160016841F0020101600168C1F38101E8
:103AE0000229FAD10CBD01920CBD00000038024041
:103AF0000070004008544007003C02404FF0E021B5
:103B00000428086903D020F004000861704740F0E1
:103B10000400FAE710B501F087FF012803D0BDE8E3
:103B2000104001F053BC10BD124810B5016841F4BB
:103B3000700101601048016841F0010101600E4A06
:103B400000210832116002680C4B1A400260031D0C
:103B50000B4A1A60026822F48022026006480C3088
:103B60000160FFF771FF03494FF000608039086082
:103B700010BD000088ED00E000380240FFFFF6FEB7
:103B80001030002410B5084C0121204600F039F80F
:103B9000012802D105A0FCF7CFFB2046BDE810406C
:103BA000012100F02BB800000004004054494D33BF
:103BB000CAE4B3F62E2E2E2E2E2E2E0D0A00000055
:103BC00010B5084C0121204600F01BF8012802D155
:103BD00005A0FCF7B1FB2046BDE81040012100F034
:103BE0000DB80000000C004054494D35CAE4B3F64E
:103BF0002E2E2E2E2E2E2E0D0A000000C9430182DD
:103C0000704702460020138A92890B4202EA0102A1
:103C100002D0002A00D001207047000070B5154C7A
:103C200040F22551204600F035F800280ED02046FD
:103C300000F0BEF8104AC1B21088030406D4440450
:103C40004FF0000306D50A2901D0138070BD40F45F
:103C500000400DE00D2909D0C0F30D04074D401CB4
:103C600080B229551080C728EFD870BD40F480403D
:103C7000108070BD0010014060000020DE0E0020AA
:103C80000029818902D041F4005101E021F4005162
:103C90008181704770B501F01F0501260024C1F332
:103CA000421306FA05F2012B0FD0022B0FD0838AA4
:103CB0004FEA11210088134206FA01F600EA0600D5
:103CC00001D000B10124204670BD8389F0E7038A4A
:103CD000EEE710B5C1F3421301F01F040121A1402A
:103CE000012B07D0022B07D01430002A026805D020
:103CF0000A4304E00C30F8E71030F6E78A4302602C
:103D000010BD00007FB50446008A0D46C98820F426
:103D1000405001432182A08941F20C618843A98867
:103D20002A8911436A8902431143A181A08A20F4A0
:103D30004071A8890843A0826846FFF73DFE1A48F3
:103D4000844202D01948844201D1039800E00298CD
:103D5000A189090400EBC00101EB0010296801D51D
:103D6000490000E08900B0FBF1F06422B0FBF2F101
:103D700009010B096FF018056B4300EB8300A38961
:103D80001D044FF0320306D503EBC000B0FBF2F088
:103D900000F0070005E003EB0010B0FBF2F000F0CC
:103DA0000F00084320817FBD001001400014014036
:103DB0008088C0F308007047FEE7704710B50446DE
:103DC0000420FFF79BFE0A484FF47A71047014FB3D
:103DD00001F1012242804FF0E020026942F002022C
:103DE00002614161016941F00101016110BD000002
:103DF0005C00002070B5044601F016FE01280CD0CE
:103E0000094D6888844203D3B4FBF0F001F058F800
:103E10006888B4FBF0F100FB11444FF47A70604302
:103E2000BDE8704000F002B85C00002070B54FF0B3
:103E3000E02500216C69094AAB6912785043AA69F0
:103E40009A42FCD002D2A3EB020302E0A4EB0206EA
:103E50003344194413468142F1D370BD5C00002005
:103E600003490A885206FCD5C2B28A807047000016
:103E7000001001403EB54FF44070FFF76FFDA820E1
:103E8000FFF79CFF4FF4E13000F024FEFFF712FD36
:103E9000FCF7FAFE21494FF478401024088020A056
:103EA000CDE900402346C8220A211E20FFF76CFC02
:103EB00020A0CDE900401E211023C8220846FFF7AC
:103EC00063FC21A0CDE900401023C82232211E202E
:103ED000FFF75AFC21A0CDE900401023C82246215B
:103EE0001E20FFF751FC21A0CDE900401023C8227D
:103EF0005A211E20FFF748FC1F4A0120A2F500713D
:103F00008DE80700002380221CA11F4801F046FD18
:103F10001E49086001F034F900203EBD5800002021
:103F200041544B2053544D3332463130332F3430CB
:103F3000370000004672656552544F532045786142
:103F40006D7020362D3200005461736B2043726512
:103F5000617420616E642044656C000041544F4DD3
:103F600040414C49454E54454B00000032303136FB
:103F70002F31312F32350000BC090020737461727B
:103F8000745F7461736B00008948000800000020B2
:103F90002DE9F041184E0F460446F5683068001DC3
:103FA00000F0EEFD38B9306890F82C100120884000
:103FB000316981433161601C07D137B13168BDE897
:103FC000F0410E48091D00F029BE30682C44AC4277
:103FD0004460316805D2B06BBDE8F041091D00F0C6
:103FE00005BE706B091D00F001FEB06A844200D26C
:103FF000B462BDE8F081000078000020B812002013
:104000002DE9F041054600F015FE2D4EB068401C2C
:10401000B06030682B4F10B1706930B32BE0356061
:10402000B068012827D1002404EB840007EB80004E
:1040300000F0CEFD641C202CF6D3234800F0C8FD10
:104040002148143000F0C4FD1F48283000F0C0FDA6
:104050001D483C3000F0BCFD1B48503000F0B8FD5E
:10406000194870631430B06305E03068E96AC06ACB
:10407000884200D83560706A0121401C7062686413
:10408000E86A326981401143316100EB800007EB3F
:104090008000291D00F0C2FD00F008FE70690028B4
:1040A0000CD03068E96AC06A884207D207494FF0ED
:1040B00080500860BFF34F8FBFF36F8FBDE8F08172
:1040C00078000020E80F00206812002004ED00E0D6
:1040D00038B500F0AFFD104C2068C8B90F4800F0AB
:1040E00077FD0E48143000F073FD0C48E06014308A
:1040F00020610A4B0020A43B009003F154021021E0
:10410000052001F079F9206010B105A100F0A4FEAE
:10411000BDE8384000F0CABDB40000207013002094
:10412000546D72510000000070B5124E124D1CE02B
:1041300001F07CF8306820B1002401F0A3FDA4B99F
:1041400001E00124F9E700F075FDF068C468201D66
:1041500000F016FDA868401EA8606868401E6860F0
:1041600000F0A4FD204600F053F868680028DFD175
:1041700070BD0000A41200207800002030B4026C52
:104180000B46002A0BD0C1681144C1604468A142AB
:1041900001D30168C16030BC1846FCF79FB930BC40
:1041A00070472DE9F041856B174604460026026CE6
:1041B00082B1C7B1E068FCF791F9E168206C091A97
:1041C000E1602268914202D26168081AE060022F21
:1041D00016D017E02068A8B9606801F0ADFC06466B
:1041E000002060600EE0A068FCF778F9216CA06800
:1041F0000844A0606168884204D32068A06001E0A0
:1042000005B16D1E6D1CA5633046BDE8F081000050
:1042100010B5044690F8590058B101280CD0022876
:104220000FD0BDE8104040F6296206A10AA0FCF7B5
:1042300083B8206B00F06CFD2046BDE8104000F014
:1042400067BD10BD2E2E5C4672656552544F535C9F
:104250007461736B732E63004572726F723A2573CB
:104260002C25640D0A000000074E4FF08054074DC6
:10427000FFF75AFF30680128FAD92C60BFF34F8F3F
:10428000BFF36F8FF4E70000E80F002004ED00E0BB
:1042900070B51D46049C59B12260C4E90F0101218B
:1042A000204601F0AFF984F850500020A06470BDA2
:1042B0002460F2E72DE9F047DDE909840E46174650
:1042C000824691009946089DA522206BFCF74BF988
:1042D0006FF00301206B01EB8701084420F0070712
:1042E000780705D040F22B3219A11EA0FCF724F864
:1042F00000202218315C82F83410315C11B1401C6E
:104300001028F6D3002684F84360202D00D31F2503
:10431000E562C4E91356201D00F065FC04F11800A5
:1043200000F061FC2461C5F120006462A061666553
:1043300084F858604A465146384600F08FFA2060AB
:10434000B8F1000F01D0C8F80040BDE8F0870000C8
:104350002E2E5C4672656552544F535C7461736BCC
:10436000732E63004572726F723A25732C25640DAB
:104370000A00000030B5114900E011460A68824287
:10438000FBD34B685C18844203D1406818444860F2
:10439000084643681C18944209D1084C103C246814
:1043A000A24209D052681A4442600A681268026048
:1043B000814200D0086030BD0460F9E7E4000020CD
:1043C00070B5002441600B4D0061914206D8D11AAE
:1043D0008269914206D2011D286907E09A4203D200
:1043E000994201D3012403E0011DE86800F0FEFBBF
:1043F000204670BDB400002010B5044600F01AFC41
:10440000A06B20B1002400F051FC204610BD012417
:10441000F9E700002DE9F34100980F460026846C6F
:104420002CB940F6CE1216A11AA0FBF785FFA06B9F
:10443000E16B884205D340F6CF1211A115A0FBF71E
:104440007BFFA06BE16B88420CD294F945503A4651
:1044500069462046FFF7A5FE0646681C05D06D1C80
:1044600084F845503046BDE8FC81606A0028F9D0E8
:1044700004F1240001F0BAFB0028F3D00126F1E793
:104480002E2E5C4672656552544F535C717565758E
:10449000652E63004572726F723A25732C25640D88
:1044A0000A000000F8B5054614480E46C068C0680A
:1044B000C468201D00F064FBE069012817D1A069E1
:1044C0002B46411932462046FFF77AFF78B100208B
:1044D0000346014600902A46204601F089FC30B987
:1044E00007494FF4027201F11800FBF725FF616ADA
:1044F00001B02046BDE8F04008470000B4000020AD
:104500001847000870B586B0314E56E00198002873
:1045100006DADDE90301029A9047019800284CDB96
:10452000039C606910B1201D00F02AFB05A800F073
:10453000ABF8054601980A283FD2DFE800F00505F0
:10454000053E273805053E270298A1690346014428
:104550002A462046FFF734FF00282ED0616A204605
:104560008847E069012828D1002000900298A169BD
:10457000002342181946204601F03AFCE8B940F2FF
:10458000213214A119A0FBF7D7FE16E00298A06112
:1045900028B94FF44E720FA114A0FBF7CDFEA0690D
:1045A0002B4641191A462046FFF70AFF05E094F80A
:1045B0002C0010B9204600F0ABFB00231A4601A9DD
:1045C000306800F05DFF0028A0D106B070BD00008B
:1045D000B40000202E2E5C4672656552544F535C29
:1045E00074696D6572732E63000000004572726F0E
:1045F000723A25732C25640D0A000000F8B50D46AB
:10460000064600F013FE684600F03EF804460098A7
:1046100010B101F037FBF8BD1148ADB1016909686F
:10462000D9B10025311B2A46006800F027FC01F0B3
:1046300029FB0028EFD10B494FF080500860BFF3F1
:104640004F8FBFF36F8FF8BDA642EBD801F01AFB76
:1046500021463046FFF726FFF8BD0125E2E70000BE
:10466000B400002004ED00E00648416B096829B160
:10467000416BC968C9684968816270474FF0FF3172
:10468000FAE700007800002070B5054601F0DAF97D
:10469000064E0446B068844203D200F009F80120B7
:1046A00000E0002028602046B46070BDB400002007
:1046B000F8B5184E25E0C068C4680568201D00F0F4
:1046C0005FFA616A20468847E069012819D1A0692C
:1046D0002844A84206D924616060211DF06800F0DA
:1046E00085FA0EE000200346014600902A46204647
:1046F00001F07EFB28B940F2923207A10CA0FBF733
:104700001BFEF06801680029D5D13169C6E90310A4
:10471000F8BD0000B40000202E2E5C467265655284
:10472000544F535C74696D6572732E630000000012
:104730004572726F723A25732C25640D0A000000D1
:1047400008484068401C05D040F20F1206A111A095
:10475000FBF7F2FD502080F31188BFF34F8FBFF3BA
:104760006F8FFEE7C80000202E2E5C4672656552F2
:10477000544F535C706F727461626C655C52564446
:10478000535C41524D5F434D34465C706F72742EE2
:10479000630000004572726F723A25732C25640D18
:1047A0000A000000084CE068016839B1002139B105
:1047B0000020FFF723FFFFF7A5FEF4E70121F6E74E
:1047C000C0680068F5E70000B40000202DE9F04162
:1047D000044600F02FFA94F9455004F1240610E045
:1047E000A06C20B100212046FFF714FE04E0606AAF
:1047F00048B1304601F0FAF908B100F0FDFB6D1E3A
:104800006DB2002DECDC4FF0FF3684F8456000F00F
:104810004DFA00F00FFA94F9445004F1100709E042
:10482000206948B1384601F0E1F908B100F0E4FB35
:104830006D1E6DB2002DF3DC84F84460BDE8F041DC
:1048400000F034BA0449086818B10868026D521CB7
:1048500002650868704700007800002010B5031F4B
:104860004FF080741C601B1F21F001011960191F9B
:10487000044B0B6014390A60091F6FF002024438C0
:104880000A6010BD414700083EB500F0D3F9114A57
:104890000220A2F500718DE80700002380220EA1FE
:1048A000104801F07BF8104C104A00236060A2F51C
:1048B000007103208DE8070080220DA10F4801F050
:1048C0006DF8A060206800F031FBBDE83E4000F0CC
:1048D000EDB90000180C00207461736B315F7461D6
:1048E000736B00000149000800000020740E0020D6
:1048F0007461736B325F7461736B0000FD49000873
:104900001CB52C4D00244FF49D732C8073226E2116
:104910000520FCF713F98223732219460520FCF7C2
:10492000B3F81F202880102623A0CDE9006033466D
:104930006E226F210620FEF727FF234DDFF88C80C3
:104940000E2740F2391A4FF080094FF47A7B641C2D
:10495000D5F8A402E4B248B10020C5F8A40221466B
:104960001BA0FBF7E9FC052C02D009E00120F4E7CD
:1049700016480C38806800F0D9FA1BA0FBF7DCFC65
:10498000B4FBF7F007FB1041534638F821007222C0
:1049900080B2009083210620FCF754F9CDE900692C
:1049A000032322466F215620FEF718FF584600F0D9
:1049B00087FACCE7580000205461736B31205275A0
:1049C0006E3A303030000000008042420C0000207F
:1049D000C8CECEF131D2D1BEADD6B4D0D0A3BA2597
:1049E00064B4CE0D0A000000C8CECEF131C9BEB30A
:1049F000FDC1CBC8CECEF132210D0A001CB5284D29
:104A000000244FF49D732C80EA226E217D20FCF758
:104A100095F88223EA2219467D20FCF735F81F20FD
:104A2000288010251FA0CDE900502B466E226F2153
:104A30007E20FEF7A9FE1F4EDFF87C9080274FF006
:104A40000E0840F2391A4FF47A7B641CD6F8A8029B
:104A5000E4B210B30020C6F8A802214617A0FBF765
:104A60006BFCCDE90057032322466F21CE20FEF7D1
:104A7000B5FEB4FBF8F108FB1140C0F10D0153463F
:104A800039F82100E92280B2009083217E20FCF7D2
:104A9000D9F8584600F014FAD7E70120DBE7000008
:104AA000580000205461736B322052756E3A3030DA
:104AB00030000000008042420C000020C8CECEF141
:104AC00032D2D1BEADD6B4D0D0A3BA2564B4CE0D07
:104AD0000A000000F0B50646012187B00846FEF73F
:104AE00047FF01211020FEF75BFF234D072209211C
:104AF0002846FBF741FF07220A212846FBF73CFF27
:104B000002218DF814108DF815104FF4C0600024A8
:104B100004908DF8164001278DF8177004A92846D7
:104B2000FBF7EEFEADF80440ADF80640ADF80840E6
:104B3000ADF80C400C20114CADF80A000096694607
:104B40002046FFF7DFF801212046FFF799F8012200
:104B500040F225512046FFF7BCF825208DF81800BB
:104B600003208DF819008DF81A008DF81B7006A827
:104B7000FEF7C2FE07B0F0BD000002400010014089
:104B8000D0E9013201699A60D0E901235A604A688C
:104B9000824201D182684A60002202610868401E98
:104BA00008607047034B0360A3F502700860822021
:104BB00010607047F4020020044B0360A3F582608C
:104BC00008604FF48270106070470000600700209A
:104BD00000F108014FF0FF32C0E90112C16001612C
:104BE00000210160704700210161704730B50C68F9
:104BF000621C02D000F1080202E0026904E01A46D9
:104C000053681D68A542FAD953684B6099608A6061
:104C1000516008610168491C016030BD42684A600A
:104C200093688B6093685960916008610168491CC2
:104C300001607047502080F31188BFF34F8FBFF39E
:104C40006F8F09494868401C486001280AD107480D
:104C5000006810F0FF0F05D040F2B91204A10FA0B8
:104C6000FBF76ABB70470000C800002004ED00E0BD
:104C70002E2E5C4672656552544F535C706F727491
:104C800061626C655C525644535C41524D5F434DCA
:104C900034465C706F72742E630000004572726F50
:104CA000723A25732C25640D0A00000010B5084CDB
:104CB000606828B94FF4E07206A111A0FBF73CFB35
:104CC0006068401E606001D180F3118810BD000053
:104CD000C80000202E2E5C4672656552544F535C0E
:104CE000706F727461626C655C525644535C4152E1
:104CF0004D5F434D34465C706F72742E630000004C
:104D00004572726F723A25732C25640D0A000000FB
:104D100070B500282AD0164DA0F108046068E96833
:104D2000084205D14FF4A07212A11CA0FBF704FBAE
:104D3000206828B140F241120EA118A0FBF7FCFA3E
:104D40006068E968084211D02268002A0ED18843C1
:104D5000606000F06BFA606869680844686020462B
:104D6000FFF708FBBDE8704000F08CBF70BD00008D
:104D7000D40000202E2E5C4672656552544F535C61
:104D8000706F727461626C655C4D656D4D616E67CC
:104D90005C686561705F342E630000004572726F5D
:104DA000723A25732C25640D0A00000006484FF462
:104DB0007A710068B0FBF1F14FF0E020491E4161CB
:104DC00007210161704700004400002010B5FBF787
:104DD0008DFA104C10280CD300F1E02090F8F0036D
:104DE0002178884205D24FF440720BA115A0FBF741
:104DF000A3FA18480068A16800F4E060884207D967
:104E0000BDE810404FF4447203A10EA0FBF794BA22
:104E100010BD0000C80000202E2E5C467265655251
:104E2000544F535C706F727461626C655C5256448F
:104E3000535C41524D5F434D34465C706F72742E2B
:104E4000630000004572726F723A25732C25640D61
:104E50000A0000000CED00E010B5074B002253F8EB
:104E600032401CB1521C082AF9D310BD43F832104D
:104E700003EBC201486010BDA80F002070B51546B5
:104E80000E460446FFF7D6FE94F944100020491C54
:104E900001D184F8440094F94510491C01D184F8EB
:104EA0004500FFF703FFA06B28B92A46314604F1FD
:104EB000240000F0D1F82046BDE87040FFF786BC22
:104EC00010B5040012D00E49096B29B140F2CF424F
:104ED0000CA111A0FBF730FA00F0A8F90021204640
:104EE000FFF756F800F0CEFE002807D10E494FF02C
:104EF00080500860BFF34F8FBFF36F8F10BD00006D
:104F0000780000202E2E5C4672656552544F535C2B
:104F10007461736B732E63004572726F723A2573FE
:104F20002C25640D0A00000004ED00E070B5044675
:104F3000FFF780FE234D04B92C68201DFFF720FEEB
:104F400058B9E06A204A00EB800152F8211021B9DB
:104F500001218140286988432861A06A18B104F1C1
:104F60001800FFF70DFE686A401C686228688442DA
:104F700007D1211D1548FFF751FE6868401C686085
:104F800007E0A868401EA8602046FFF741F9FFF738
:104F90006BFBFFF78BFE6869002812D028688442FB
:104FA0000FD1286B28B140F2654209A10DA0FBF793
:104FB000C3F910494FF080500860BFF34F8FBFF323
:104FC0006F8F70BD78000020E80F0020A412002031
:104FD0002E2E5C4672656552544F535C7461736B40
:104FE000732E63004572726F723A25732C25640D1F
:104FF0000A00000004ED00E001490120C86170478B
:105000007800002070B50D46040005D140F6063248
:1050100007A10CA0FBF790F90E4801682046183153
:10502000FFF7E4FD2846BDE870400121FEF7B0BF60
:105030002E2E5C4672656552544F535C7461736BDF
:10504000732E63004572726F723A25732C25640DBE
:105050000A0000007800002070B514460E460500D6
:1050600005D140F6313209A10DA0FBF765F91048D2
:10507000016828461831FFF7D1FD0CB14FF0FF361B
:1050800021463046BDE87040FEF782BF2E2E5C46BA
:1050900072656552544F535C7461736B732E630079
:1050A0004572726F723A25732C25640D0A00000058
:1050B0007800002070B5040039D01D4DE06A2968E1
:1050C000C96A884233D2A069002804DB2868C06A14
:1050D000C0F12000A061E06A164E00EB800061691B
:1050E00006EB800081421FD1201DFFF749FD012101
:1050F00050B9E06A00EB800256F8222022B92A69F2
:1051000001FA00F082432A612868C06AE0622A69D5
:1051100081401143296100EB800006EB8000211DD6
:10512000BDE87040FFF77ABD2868C06AE06270BDD4
:1051300078000020E80F002010B5040005D140F6EB
:10514000C13205A109A0FBF7F7F80C48016A2160FC
:10515000C068606010BD00002E2E5C46726565520E
:10516000544F535C7461736B732E63004572726F9E
:10517000723A25732C25640D0A0000007800002087
:1051800030B587B00025039505AA04A903A80495A6
:10519000FFF708FDDDE903010095CDE901100023CB
:1051A00015A11748059A00F0F9FB164CE06218B1FA
:1051B00000F0DAFD01280AD0401C1AD107B040F2F5
:1051C0008472BDE8304010A114A0FBF7B5B85020A0
:1051D00080F31188BFF34F8FBFF36F8F4FF0FF3015
:1051E000A06201206061E56007B0BDE8304000F0DA
:1051F00063B807B030BD000049444C4500000000D2
:1052000069420008780000202E2E5C4672656552C7
:10521000544F535C7461736B732E63004572726FED
:10522000723A25732C25640D0A0000000248016BB8
:10523000491C0163704700007800002070B5134DD1
:10524000286B10B10120E86170BD0020E861286979
:105250000F4EB0FA80F0C0F11F0000EB800456F84A
:10526000240028B940F6F6220AA10FA0FBF764F843
:1052700006EB840000F108024168496841609142F0
:1052800001D149684160C868286070BD780000207D
:10529000E80F00202E2E5C4672656552544F535C19
:1052A0007461736B732E63004572726F723A25736B
:1052B0002C25640D0A0000001CB5304C20683049D4
:1052C000884205D140F259122EA139A0FBF734F8DB
:1052D00020682B49491E884205D14FF4AD7229A19F
:1052E00033A0FBF729F8364C20780190FF2020707E
:1052F00020788DF800009DF800009DF8001000F067
:10530000F000884205D040F273121EA128A0FBF7DE
:1053100013F89DF800002B4A00F050001070072091
:10532000906007E09068401E90609DF8000040008B
:105330008DF800009DF800000006F3D4107A0002FA
:1053400000F4E0609060019820700C482030016803
:1053500041F470010160016841F070410160FFF7A4
:1053600025FD00205060FAF789FF1748016841F0D9
:1053700040410160FAF772FF00201CBD00ED00E023
:1053800071C20F412E2E5C4672656552544F535CBC
:10539000706F727461626C655C525644535C41522A
:1053A0004D5F434D34465C706F72742E6300000095
:1053B0004572726F723A25732C25640D0A00000045
:1053C00000E400E0C800002034EF00E010B55020F9
:1053D00080F31188BFF34F8FBFF36F8F00F038FB5E
:1053E00018B104494FF080500860002080F3118804
:1053F00010BD000004ED00E02DE9F843DDF8208049
:105400001C4616460D46070005D14FF4A97213A19C
:1054100017A0FAF791FF2CB94FF4AB720FA114A0AB
:10542000FAF78AFF1EB14DB94FF4AD7202E02DB10B
:1054300040F25B1209A10EA0FAF77EFF5420009003
:105440004CB1012084F8460043463246294638468E
:105450000094FEF71DFF2046BDE8F8832E2E5C4623
:1054600072656552544F535C71756575652E6300A6
:105470004572726F723A25732C25640D0A00000084
:105480002DE9FF4F83B09B468A4604004FF000068B
:1054900005D140F2DC4251A155A0FAF74DFFBAF117
:1054A000000F07D1206C28B140F2DD424BA150A083
:1054B000FAF742FF00F0B8FA38B9059828B14FF46E
:1054C0009C6246A14AA0FAF737FF4FF000094FF05F
:1054D0008057DFF82C81FFF7ADFBA56B45B3514634
:1054E0002046E668FEF74AFEBBF1000F13D0E660E7
:1054F000606A50B104F1240000F078FB28B1C8F8CC
:105500000070BFF34F8FBFF36F8FFFF7CFFB01200A
:1055100007B0BDE8F08F6D1EA563206810B9FFF7D6
:1055200091F9606020690028EFD004F11000E3E7F2
:10553000059808B11EB106E0FFF7B8FB27E0684602
:10554000FFF7FAFD0126FFF7B1FBFFF76FFEFFF74C
:1055500071FB94F94400401C01D184F8449094F903
:105560004500401C01D184F84590FFF79FFB05A939
:10557000684600F0CFF9002820460AD0FFF726F948
:1055800000F080FB2046FEF737FF0028A3D0002064
:10559000BEE7FEF731FFD8B1206830B9FFF74AFB0C
:1055A0006068FFF787FDFFF781FB04F12400059990
:1055B000FFF728FD2046FFF709F900F063FB0028FC
:1055C00089D1C8F80070BFF34F8FBFF36F8F82E7A8
:1055D0002046FFF7FBF800F055FB7CE72E2E5C46DB
:1055E00072656552544F535C71756575652E630025
:1055F0004572726F723A25732C25640D0A00000003
:1056000004ED00E070B50D46040005D140F21B1218
:105610001CA121A0FAF790FEFFF70CFBD4E90F20A4
:10562000216802FB001161600021A1632168A16073
:105630000A46D4E90F01401E00FB0121E16021462A
:105640004FF0FF3001F8440F487004F110004DB1E5
:10565000FFF7BEFA04F12400FFF7BAFAFFF726FBC2
:10566000012070BD21690029F8D000F0BFFA0028A0
:10567000F4D00D494FF080500860BFF34F8FBFF357
:105680006F8FEBE72E2E5C4672656552544F535C6C
:1056900071756575652E63004572726F723A257378
:1056A0002C25640D0A00000004ED00E02DE9FF4FF9
:1056B00083B099468B4604004FF0000605D140F2B6
:1056C000D92252A156A0FAF737FEBBF1000F07D13D
:1056D000206C28B140F2DA224CA151A0FAF72CFE3E
:1056E000B9F1020F08D1E06B012805D040F2DB22AE
:1056F00046A14BA0FAF720FE00F096F938B90598BC
:1057000028B140F2DE2241A145A0FAF715FE4FF084
:10571000000A4FF08057DFF81881FFF78BFAA06B73
:10572000E16B884206D3B9F1020F03D0059800B3AC
:1057300016B325E04A4659462046FEF732FDA16CD5
:1057400021B149462046FEF765FE05E0616A19B1C0
:1057500004F1240000F04AFA28B1C8F80070BFF341
:105760004F8FBFF36F8FFFF7A1FA012007B0BDE89D
:10577000F08FFFF79BFA21E06846FFF7DDFC01267A
:10578000FFF794FAFFF752FDFFF754FA94F944003B
:10579000401C01D184F844A094F94500401C01D17B
:1057A00084F845A0FFF782FA05A9684600F0B2F830
:1057B00030B12046FFF70AF800F064FA0020D5E780
:1057C000FFF738FAA06BE16B884201D1012500E0B8
:1057D0000025FFF76BFA95B104F110000599FFF76A
:1057E00011FC2046FEF7F2FF00F04CFA002894D19D
:1057F000C8F80070BFF34F8FBFF36F8F8DE720465F
:10580000FEF7E4FF00F03EFA87E700002E2E5C462C
:1058100072656552544F535C71756575652E6300F2
:105820004572726F723A25732C25640D0A000000D0
:1058300004ED00E02DE9F04798461546894604003E
:1058400005D140F29F322AA12EA0FAF775FDB9F1D9
:10585000000F07D1206C28B14FF4687224A129A051
:10586000FAF76AFDB8F1020F08D1E06B012805D004
:1058700040F2A1321EA123A0FAF75EFDFFF7A6FABF
:105880005020EFF3118780F31188BFF34F8FBFF3E0
:105890006F8FA06BE16B884207D3B8F1020F04D081
:1058A000002087F31188BDE8F08794F945604246EF
:1058B00049462046FEF775FC701C04D0761C84F81F
:1058C00045600120EDE7A06C012620B1414620464D
:1058D000FEF7A0FD06E0606A0028F2D004F1240083
:1058E00000F084F90028ECD0002DEAD02E60E8E723
:1058F0002E2E5C4672656552544F535C717565750A
:10590000652E63004572726F723A25732C25640D03
:105910000A00000070B50D46040005D140F6CB32F8
:1059200014A119A0FAF708FD2DB940F6CC3211A147
:1059300015A0FAF701FDFFF77DF9174AD06829682D
:105940004B1C0FD02368126A934202D062688242D5
:105950000AD96268801A884206D2081A286020464E
:10596000FFF7EAFB002400E00124FFF79FF920463F
:1059700070BD00002E2E5C4672656552544F535C1C
:105980007461736B732E63004572726F723A257384
:105990002C25640D0A000000780000202DE9F04F4E
:1059A00085B09846DDE90F540E9F91468A4683469E
:1059B0002DB940F2552213A117A0FAF7BDFC00261D
:1059C000A4B1CDB10220256384F859000DF1040C77
:1059D00004A800978CE8510043464A465146584671
:1059E000FEF768FC2046FEF70BFB06E040F256226D
:1059F00004A109A0FAF7A0FC0496049805B0BDE83C
:105A0000F08F00002E2E5C4672656552544F535C39
:105A10007461736B732E63004572726F723A2573F3
:105A20002C25640D0A0000000548416919B1006B7E
:105A300018B1002070470120704702207047000015
:105A4000780000200148C0687047000078000020FE
:105A50002DE9F0412D4F0026386B40B1B869401C4C
:105A6000B861F86900B101263046BDE8F081FD68F3
:105A70006D1CFD6011D1786B006828B140F6D91219
:105A800023A128A0FAF758FC786BB96B7963B86347
:105A9000386A401C3862FEF7E7FDB86ADFF8948088
:105AA000854209D3786B006880B1786BC068C468A0
:105AB000606885420DD2B8623868C06A00EB800128
:105AC00058F821000128CCD90126CAE74FF0FF3051
:105AD000F1E7201DFFF754F8A06A18B104F118008F
