:020000040800F2
:10000000D03900204103000875240008EB1C0008CB
:1000100071240008A90B0008A92E000800000000A8
:10002000000000000000000000000000890200083D
:10003000610D000800000000DD020008392A0008F8
:100040005B0300085B0300085B0300085B03000818
:100050005B0300085B0300085B0300085B03000808
:100060005B0300085B0300085B0300085B030008F8
:100070005B0300085B0300085B0300085B030008E8
:100080005B0300085B0300085B0300085B030008D8
:100090005B0300085B0300085B0300085B030008C8
:1000A0005B0300085B0300085B0300085B030008B8
:1000B0005B030008AD2A0008BD2A00085B030008A6
:1000C0005B0300085B0300085B0300085B03000898
:1000D0005B030008092E00085B0300085B030008AF
:1000E0005B0300085B0300085B0300085B03000878
:1000F0005B0300085B0300085B0300085B03000868
:100100005B0300085B0300085B0300085B03000857
:100110005B0300085B0300085B0300085B03000847
:100120005B0300085B0300085B0300085B03000837
:100130005B0300085B0300085B0300085B03000827
:100140005B0300085B0300085B0300085B03000817
:100150005B0300085B0300085B0300085B03000807
:100160005B0300085B0300085B0300085B030008F7
:100170005B0300085B0300085B030008000000004D
:100180005B0300085B03000800F002F800F06DF864
:100190000AA090E8000C82448344AAF10107DA45E2
:1001A00001D100F062F8AFF2090EBAE80F0013F0C7
:1001B000010F18BFFB1A43F001031847B8CD000028
:1001C000D8CD00000A444FF0000C10F8013B13F0AA
:1001D000070408BF10F8014B1D1108BF10F8015BA0
:1001E000641E05D010F8016B641E01F8016BF9D193
:1001F00013F0080F1EBF10F8014BAD1C0C1B09D1EA
:100200006D1E58BF01F801CBFAD505E014F8016B5B
:1002100001F8016B6D1EF9D59142D6D370470000ED
:100220000023002400250026103A28BF78C1FBD8FF
:10023000520728BF30C148BF0B607047642900F0E7
:10024000AB81752900F0A881782900F0E18163294C
:1002500000F0FD83732900F00284002070471FB571
:100260000AF03DF81FBD10B510BD00F06FFC11463F
:10027000FFF7F5FF04F0A5FD00F08DFC03B4FFF7D8
:10028000F2FF03BC03F013FB2A4B19680868B0E8BF
:10029000F04F80F30988BFF36F8F4FF0000080F3B9
:1002A000118870470000000006480068006880F36D
:1002B000088862B661B6BFF34F8FBFF36F8F00DF60
:1002C00000BF00BF08ED00E0DFF80C00016841F45A
:1002D00070010160704700BF88ED00E0EFF3098016
:1002E000BFF36F8F134B1A681EF0100F08BF20ED7D
:1002F000108A20E9F04F106008B44FF0500080F3EE
:100300001188BFF34F8FBFF36F8F08F053FB4FF08F
:10031000000080F3118808BC19680868B0E8F04F45
:100320001EF0100F08BFB0EC108A80F30988BFF3ED
:100330006F8F704720000020EFF3058070470000AA
:100340000948804709480047FEE7FEE7FEE7FEE769
:10035000FEE7FEE7FEE7FEE7FEE7FEE704480549A5
:10036000054A064B70470000492A00088901000829
:10037000D0330020D0390020D0350020D0350020E7
:10038000704753EA020C00F069802DE9F04B4FF002
:100390000006002B1FBFB3FA83F503FA05F424FA15
:1003A00005F65E4012BF1643B2FA82F502FA05F472
:1003B000C5F120051EBF22FA05FC44EA0C042035D5
:1003C00056EA044C4FEA144418BF641C4FF000086E
:1003D0004FF00009904271EB030C39D3002919BF8B
:1003E000B1FA81F701FA07F6B0FA80F700FA07F6DA
:1003F000C7F120071EBF20FA07FC46EA0C0620378B
:10040000B6FBF4FCA7EB0507103F07F01F0BCBF181
:1004100020060CFA0BFB2CFA06F644BFB346002666
:10042000202FA4BF5E464FF0000B5BEA060C08BF0E
:100430004FF0010B19EB0B09ABFB027C48EB0608F4
:10044000C01B06FB02CC0BFB03CC71EB0C01C1E71C
:100450000B46024641464846BDE8F08B13B54FF0C7
:1004600000004FF00001AFF30080BDE81C40704772
:1004700010B54C1084EA530404D54042C1F1000188
:1004800038BF491E1B4204D55242C3F1000338BF96
:100490005B1EFFF776FF14F0804F04D04042C1F19D
:1004A000000138BF491E14F0004F04D05242C3F17E
:1004B000000338BF5B1E10BD0FB4044910B503AA7A
:1004C000029800F0D1FA10BC5DF814FB9C000020EB
:1004D0000FB41CB5074B06AA7B44694600900598EB
:1004E00000F093FA0020694600F0A2FA1CBC5DF807
:1004F00014FB00005505000070B5044685690068CE
:10050000C10601D5302600E02026C00707D070BD07
:10051000D4E9012130469047206A401C20626D1EBC
:10052000F6D570BD70B5044685690078C00707D15F
:1005300070BDD4E9012120209047206A401C206230
:100540006D1EF6D570BD70B50C460546012A05D066
:100550002878800600D5EA69002302E0012305E03F
:100560005B1C934202D2E05C0028F9D1A869E6182E
:10057000C01AA861286A184428622846FFF7BCFF01
:1005800004E0D5E9012114F8010B9047B442F8D3F7
:100590002846FFF7C7FF70BD2DE9F041064600244D
:1005A00010687529314616A510D0AFF300800028D9
:1005B00002DA404213A507E031688A0701D512A587
:1005C00002E0490704D511A5012401E0AFF3008042
:1005D00000210A2206F1240709E0B0FBF2FCB0FB7F
:1005E000F2F302FB1C00303078541846491C0028F6
:1005F000F3D123462A463046BDE8F04100F0A7B9C2
:10060000000000002D0000002B0000002000000072
:1006100070B504460D4621461068AFF3008021886E
:10062000090502D50F4A7A4402E00E4A7A440E3296
:10063000002104F1240305E000F00F060009965D97
:100640005E54491C0028F7D120780023000704D508
:10065000702D02D009B1022311322046BDE870404E
:1006600000F075B938C700002DE9F05F89460446EF
:100670004FF0000ADFF874B1FB44C0F820A0204618
:10068000E1688847002874D0252806D0D4E90121E4
:100690009047206A401C2062F1E700265F46204612
:1006A000E16888472028054607DB312D05D27819F7
:1006B00010F8200C08B10643F1E7B00701D526F089
:1006C0000406C4F81CA00027C4F818A02A2D09D0DD
:1006D000284603F0E5F838B304EB8708303DC8F846
:1006E000185019E059F8041B204604EB8702916169
:1006F000E1688847012F054618D1E069002820DA13
:1007000026F020061DE0D8F8180000EB800005EB6D
:1007100040003038C8F818002046E1688847054690
:1007200003F0BEF80028EED1012F0AD02E2D08D1FB
:100730002046E16888477F1C0546022F46F02006C8
:10074000C4DBA069002803DA404246F00106A0613C
:10075000F00701D026F010066C2D0BD0682D09D0C3
:100760004C2D39D06A2D35D0742D35D07A2D33D01B
:1007700016E038E0E1682F4620468847B842054633
:1007800009D16C2F26D04FF48060E16806432046E3
:100790008847054604E06C2F1AD04FF4807006435A
:1007A0000DB3A5F14100192802D8203546F40066A2
:1007B0004A462946204626604E46FFF73FFD80B157
:1007C00001280BD0F61D26F0070000F1080956E7B6
:1007D0004020E4E78020D8E70020D6E706F10409AE
:1007E0004DE7284652E7206ABDE8F09F0EC700009B
:1007F00040EA010310B59B070FD1042A0DD310C89E
:1008000008C9121F9C42F8D020BA19BA884201D9EF
:10081000012010BD4FF0FF3010BD1AB1D30703D037
:10082000521C07E0002010BD10F8013B11F8014BED
:100830001B1B07D110F8013B11F8014B1B1B01D109
:10084000921EF1D1184610BD032A40F2308010F0FC
:10085000030C00F0158011F8013BBCF1020F62445B
:1008600098BF11F801CB00F8013B38BF11F8013BEC
:10087000A2F1040298BF00F801CB38BF00F8013B99
:1008800011F0030300F00281083AC0F0088051F82B
:10089000043B083A51F804CBA0E80810F5E7121D14
:1008A0005CBF51F8043B40F8043BAFF30080D20733
:1008B00024BF11F8013B11F801CB48BF11F8012BFF
:1008C00024BF00F8013B00F801CB48BF00F8012B22
:1008D000704702F0FF0343EA032242EA024200F0BB
:1008E00009B94FF0000200B51346944696462039E8
:1008F00022BFA0E80C50A0E80C50B1F12001BFF4D9
:10090000F7AF090728BFA0E80C5048BF0CC05DF83E
:1009100004EB890028BF40F8042B08BF704748BF8C
:1009200020F8022B11F0804F18BF00F8012B704700
:10093000704770477047704710B500F0FBF80068CB
:1009400010BD10B5044600F0F5F8046010BD2DE9A7
:10095000F0470D4699469246044600F12408016886
:10096000880604D5E06921F01001216000E0012033
:10097000A84201DD471B00E00027A1697A1902EBBC
:100980000900081AA0612078C00602D42046FFF7AB
:10099000B3FD002608E0D4E901211AF806009047CB
:1009A000206A401C761C20624E45F4DB2078C0068D
:1009B0000AD52046FFF7A0FD06E0D4E9012130204A
:1009C0009047206A401C2062381EA7F10107F4DC22
:1009D00007E0D4E9012118F805009047206A401C7F
:1009E0002062281EA5F10105F3DC2046FFF79AFDE1
:1009F0002078000602D50220BDE8F0870120FBE741
:100A000001694A1C02610878704700B58FB0CDE9D2
:100A100001310021059105497944CDE903101146C2
:100A20006846FFF721FE0FB000BD0000E5FFFFFFA5
:100A30000A6802F8010B0A60704710B5436913B1E8
:100A4000AFF3008001E0FFF77EFD012010BD1278BA
:100A500000F124010A7000224A700122EDE71168BA
:100A60004FF0FF32E9E70000074B70B50D467B44BD
:100A7000FFF7CBFF0446284600F060F810B14FF0B6
:100A8000FF3070BD204670BD333C000010B5203AE9
:100A9000C0F00B80B1E81850203AA0E81850B1E837
:100AA0001850A0E81850BFF4F5AF5FEA027C24BFED
:100AB000B1E81850A0E8185044BF18C918C0BDE8E4
:100AC00010405FEA827C24BF51F8043B40F8043BAD
:100AD00008BF7047D20728BF31F8023B48BF11F862
:100AE000012B28BF20F8023B48BF00F8012B7047BC
:100AF0004FF000020429C0F0128010F0030C3FF404
:100B0000F2AECCF1040CBCF1020F18BF00F8012BBF
:100B1000A8BF20F8022BA1EB0C01FFF7E4BE5FEAAF
:100B2000C17C24BF00F8012B00F8012B48BF00F85E
:100B3000012B70470048704770330020007B00F0A5
:100B40008000704700487047703300207546FFF7FB
:100B5000F9FFAE4605006946534620F0070085467A
:100B600018B020B5FFF7FAFBBDE820404FF00006B3
:100B70004FF000074FF000084FF0000B21F0070185
:100B8000AC46ACE8C009ACE8C009ACE8C009ACE8C8
:100B9000C0098D46704710B50446AFF3008020466B
:100BA000BDE81040FFF76ABB00BFFEE710B50024A8
:100BB0001448006820F44020124908600846006884
:100BC000086004E0601CC4B2012002F051FF0E482E
:100BD000006808B1642CF5DB642C01DB012010BD3A
:100BE000002404E0601CC4B2012002F041FF06486A
:100BF000006808B9642CF5DB642C01DB0120EEE70A
:100C00000020ECE7001802402402434200B587B000
:100C100000BF002001900F48006840F040000D49DF
:100C200008600846006800F04000019000BF00BF67
:100C3000481502900120039004900320059002A91A
:100C4000054800F0A3F800F06BF8FFF7AFFF07B01E
:100C500000BD0000303802400018024010B50024EA
:100C600004E0601CC4B2012002F002FF0D480068DD
:100C700008B1642CF5DB002404E0601CC4B2012040
:100C800002F0F6FE0748006808B9642CF5DB28205E
:100C900002F0EEFE0348006808B1012010BD0020FC
:100CA000FCE700002402434270B50024002506E062
:100CB0006006040EFFF7D2FF0443681CC5B2082D7E
:100CC000F6DB204670BD7CB505460E4600F028F8E0
:100CD000FFF76CFFF8B9002405E0FFF7E5FF0DF81A
:100CE0000400601CC4B2052CF7DB9DF800009DF8E1
:100CF000011008449DF8021008449DF803100844B0
:100D00009DF80410884208D19DF8000030709DF8CD
:100D10000200287001E001207CBD0020FCE70000FB
:100D200010B50C48006820F440200A4908600846C5
:100D3000006840F480200860002007490860142003
:100D400002F074FE01200549C1F8A4021E2002F041
:100D50008FFE10BD00180240A4024342000043422F
:100D60007047014691F83500022803D0802048657D
:100D700001207047052081F835000868006820F0E0
:100D800001000A6810600020F3E70000F8B5024691
:100D90000B460025002400200021DCE0012606FA95
:100DA00001F51E6806EA0504AC4273D15E68022EA6
:100DB00002D05E68122E13D1CF0802F1200656F839
:100DC00027004E07F70E0F26BE40B0434F07FF0E19
:100DD0001E69BE403043CF0802F1200646F82700C6
:100DE00010684F000326BE40B0431E7906F003068C
:100DF0004F00BE40304310605E68012E08D05E6830
:100E0000022E05D05E68112E02D05E68122E13D11C
:100E100090684F000326BE40B0434F00DE68BE40DE
:100E200030439060506801268E40B0431E79C6F36F
:100E300000168E4030435060D0684F000326BE40FD
:100E4000B0434F009E68BE403043D0605E6806F0FD
:100E50008056B6F1805F7DD100BF00260096404EDF
:100E6000366846F480463E4F3E603E46366806F49D
:100E70008046009600BF00BF3A4E8F0856F8270004
:100E80008E07370F0F26BE40B043374EB24202D115
:100E9000002624E05EE0354EB24201D101261EE07C
:100EA000334EB24201D1022619E0324EB24201D194
:100EB000032614E0304EB24201D104260FE02F4E3B
:100EC000B24201D105260AE02D4EB24201D10626DA
:100ED00005E02C4EB24201D1072600E008268F071C
:100EE0003F0FBE4030431F4E8F0846F82700264E66
:100EF0003068A0435E6806F48036B6F5803F00D1C6
:100F00002043214E3060361D3068A0435E6806F4F1
:100F10000036B6F5003F00D120431B4E361D306031
:100F2000361D3068A0435E6806F48016B6F5801F53
:100F300000D12043144E08363060361D3068A0437F
:100F40005E6806F40016B6F5001F00D120430E4E71
:100F50000C363060491C1029FFF420AFF8BD0000AA
:100F600044380240083801400000024000040240BA
:100F700000080240000C0240001002400014024031
:100F800000180240001C0240003C01400AB181618F
:100F900001E00B048361704701480068000C704752
:100FA000002004E0014800687047000014000020A1
:100FB00010B50A48006840F4007008490860084607
:100FC000006840F480600860052000F07FF80F2082
:100FD00000F006F800F02AF8002010BD003C0240A6
:100FE00070B504460E4800784FF47A71B1FBF0F00A
:100FF0000C490968B1FBF0F5284600F0CBFB08B1BD
:10100000012070BD102C07D200222146501E00F096
:101010001EF80548046001E00120F2E70020F0E737
:101020001C0000200000002018000020704701462E
:101030000846002809DB00F01F0301229A404309FB
:101040009B0003F1E023C3F8002100BF70472DE9A6
:10105000F05F80460D461646002701F03FFF074629
:1010600039462A46334601F00700C0F1070ABAF1B3
:10107000040F02D94FF0040A01E0C0F1070AD1467B
:1010800000F1040ABAF1070F02D24FF0000A01E0A2
:10109000A0F1030AD4464FF0010A0AFA09FAAAF1AC
:1010A000010A0AEA020A0AFA0CFA4FF0010B0BFADB
:1010B0000CFBABF1010B0BEA030B4AEA0B042146D4
:1010C000404601F013FFBDE8F09F000000BF00F0B4
:1010D0000702064B19684FF6FF031940044B0B43F8
:1010E00043EA0221014B196000BF70470CED00E09C
:1010F0000000FA0570B504460D460CB9012070BD1C
:101100005848006800F00F00A84209D255490D70F8
:101110000846006800F00F00A84201D00120EEE769
:10112000207800F0020002281DD1207800F0040091
:10113000042805D14C48006840F4E0504A49086052
:10114000207800F00800082805D14748006840F4DE
:101150006040454908604448006820F0F000A168FC
:10116000084341490860207800F00100A8B3606896
:10117000012807D13C4808380068C0F34040B8B99E
:101180000120BCE76068022802D06068032807D10C
:10119000354808380068C0F3406048B90120AEE720
:1011A000314808380068C0F3400008B90120A6E7BC
:1011B0002D48006820F00300616808432A49086050
:1011C000FFF7F0FE064609E0FFF7ECFE801B41F258
:1011D0008831884202D9032091E707E0224800685D
:1011E00000F00C006168B0EB810FEDD11D48006884
:1011F00000F00F00A84209D91A490D70084600688E
:1012000000F00F00A84201D0012078E7207800F01C
:101210000400042807D11448006820F4E050E16875
:10122000084311490860207800F00800082808D118
:101230000D48006820F46040216940EAC1000A4975
:10124000086000F017F808490968C1F30311074A5C
:10125000515CC840064908600F20FFF7C1FE00201E
:101260004DE70000003C024008380240F2A20008AE
:10127000000000202DE9F047002400250026A146AB
:101280002548006800F00C0020B1042805D008288B
:101290003AD105E0DFF8849039E0DFF8849036E059
:1012A0001D48001F006800F03F041B48001F006835
:1012B00000F4800078B11A481749091F0968C1F382
:1012C0008811A0FB01700146224600233846FFF733
:1012D00058F805460EE011480F49091F0968C1F387
:1012E0008811A0FB01700146224600233846FFF713
:1012F00048F805460848001F0068C0F30140401C3C
:101300004600B5FBF6F902E0DFF8109000BF00BF21
:101310004846BDE8F0870000083802400024F40089
:1013200000127A00F8B504460CB90120F8BD207807
:1013300000F00100002874D0F948006800F00C00AB
:1013400004280DD0F648006800F00C00082813D1DE
:10135000F348001F006800F48000B0F5800F0BD147
:10136000EF4808380068C0F34040002859D0606852
:10137000002856D10120D9E700BF6068B0F5803F52
:1013800008D1E7480838006840F48030E44908395B
:1013900008601EE06068B0F5A02F0DD1E048083865
:1013A000006840F48020DE4908390860084600687B
:1013B00040F4803008600CE0D9480838006820F418
:1013C0008030D749083908600846006820F480203A
:1013D000086000BF606890B1FFF7E4FD054606E0D5
:1013E000FFF7E0FD401B642801D903209EE7CC48AD
:1013F00008380068C0F340400028F1D011E0FFF742
:10140000D1FD054606E0FFF7CDFD401B642801D95C
:1014100003208BE7C24808380068C0F3404000282A
:10142000F1D1207800F0020002285FD1BC480068AA
:1014300000F00C0058B1BA48006800F00C00082811
:101440001CD1B748001F006800F48000B0B9B44850
:1014500008380068C0F3400020B1E068012801D0DE
:10146000012063E7AE480838006820F0F8002169E1
:1014700040EAC100AA490839086037E0E06800B3D3
:101480000120A8490860FFF78DFD054606E0FFF73B
:1014900089FD401B022801D9032047E7A0480838EE
:1014A0000068C0F340000028F1D09D48083800686B
:1014B00020F0F800216940EAC10099490839086024
:1014C00014E0002097490860FFF76CFD054606E030
:1014D000FFF768FD401B022801D9032026E790484A
:1014E00008380068C0F340000028F1D1207800F0EF
:1014F000080008282CD16069A8B101208A49086039
:10150000FFF750FD054606E0FFF74CFD401B0228A3
:1015100001D903200AE782486C300068C0F340001C
:101520000028F1D014E000207F490860FFF73AFD61
:10153000054606E0FFF736FD401B022801D90320CF
:10154000F4E677486C300068C0F340000028F1D121
:10155000207800F00400042870D10026704838304C
:10156000006800F0805090B900BF002000906C48E7
:101570003830006840F080506949383108600846CA
:10158000006800F08050009000BF00BF012667484F
:10159000006800F48070B0B96448006840F480705E
:1015A00062490860FFF7FEFC054606E0FFF7FAFC1B
:1015B000401B022801D90320B8E65C48006800F40B
:1015C00080700028F2D000BFA068012808D15448DC
:1015D0006830006840F001005149683108601DE042
:1015E000A06805280DD14E486830006840F004001E
:1015F0004B49683108600846006840F00100086007
:101600000CE047486830006820F001004449683128
:1016100008600846006820F00400086000BFA06869
:10162000A8B1FFF7BFFC054609E0FFF7BBFC401B74
:1016300041F28831884202D9032077E626E0384813
:1016400068300068C0F340000028EED013E0FFF7D8
:10165000A9FC054608E0FFF7A5FC401B41F28831D4
:10166000884201D9032061E62D4868300068C0F344
:1016700040000028EFD1012E07D1294838300068FA
:1016800020F0805026493831086000BFA069B8B307
:101690002348006800F00C0008285ED0A0690228EA
:1016A00046D100201F490866FFF77CFC054606E08E
:1016B000FFF778FC401B022801D9032036E61848C2
:1016C00008380068C0F340600028F1D1D4E9070170
:1016D0000843616A40EA81110122A06AC2EB50000E
:1016E00041EA00412C20005D41EA00600C49091FDD
:1016F000086001200B490866FFF754FC054607E027
:101700002DE0FFF74FFC401B022801D903200DE616
:10171000034808380068C0F340600028F1D01EE09C
:101720000838024000004742800E474200700040E7
:1017300000200C490866FFF735FC054606E0FFF778
:1017400031FC401B022801D90320EFE50648006860
:10175000C0F340600028F2D101E00120E6E500205E
:10176000E4E500000000474200380240042808D1A8
:101770004FF0E021096941F004014FF0E0221161CE
:1017800007E04FF0E021096921F004014FF0E02269
:101790001161704770B504462546681EB0F1807F20
:1017A00001D301200FE0681E4FF0E02148610F21B6
:1017B0004FF0FF3001F09AFB00204FF0E0218861EC
:1017C00007200861002070BD7047704710B50446BF
:1017D0000CB9012010BD94F83D0028B9002084F810
:1017E0003C00204600F00CF8022084F83D00211D4A
:1017F000206801F085F9012084F83D000020E9E728
:1018000038B504460E492068884217D100BF002031
:1018100000900C48006840F002000A490860084641
:10182000006800F00200009000BF00BF0322012109
:101830001D20FFF70CFC1D20FFF7F9FB38BD000051
:10184000000400404038024001460868C06840F08B
:1018500001000B68D8600868806800F00702062A5B
:1018600005D00868006840F001000B68186000208F
:101870007047704710B5044620680069C0F3400007
:10188000D8B12068C068C0F34000B0B16FF002006A
:1018900021680861012020772068806900F003003A
:1018A00018B12046FFF7E5FF05E0204600F0ADF84F
:1018B000204600F0ABF80020207720680069C0F3D4
:1018C0008000D8B12068C068C0F38000B0B16FF06C
:1018D000040021680861022020772068806900F4F4
:1018E000407018B12046FFF7C4FF05E0204600F025
:1018F0008CF8204600F08AF80020207720680069E4
:10190000C0F3C000D8B12068C068C0F3C000B0B157
:101910006FF0080021680861042020772068C06902
:1019200000F0030018B12046FFF7A3FF05E02046B2
:1019300000F06BF8204600F069F80020207720685E
:101940000069C0F30010D8B12068C068C0F300106F
:10195000B0B16FF01000216808610820207720687E
:10196000C06900F4407018B12046FFF782FF05E01F
:10197000204600F04AF8204600F048F80020207782
:101980002068006900F0010058B12068C06800F0CC
:10199000010030B16FF0010021680861204600F0BD
:1019A00037F820680069C0F3C01058B12068C068DB
:1019B000C0F3C01030B16FF080002168086120468C
:1019C000FFF702FF20680069C0F3801058B120685B
:1019D000C068C0F3801030B16FF04000216808612A
:1019E000204600F025F820680069C0F3401058B187
:1019F0002068C068C0F3401030B16FF0200021684B
:101A000008612046FFF7E1FE10BD704770470000F7
:101A10000549884207D10549096809B9012100E053
:101A20000021024A11607047602E0020A8824242C5
:101A3000704770472DE9F047044620680568206824
:101A4000C668206847694FF00008C14605F00F08D6
:101A5000B8F1000F0AD105F0200038B106F02000DF
:101A600020B1204601F012F9BDE8F087B8F1000F6F
:101A70006ED007F0010018B906F49070002867D006
:101A800005F0010030B106F4807018B1E06B40F051
:101A90000100E06305F0040030B107F0010018B167
:101AA000E06B40F00200E06305F0020030B107F0A7
:101AB000010018B1E06B40F00400E06305F008009D
:101AC00030B107F0010018B1E06B40F00800E063AE
:101AD000E06B70B305F0200028B106F0200010B1D3
:101AE000204601F0D3F820684069C0F38019E06B0C
:101AF00000F0080010B9B9F1000F23D0204601F022
:101B0000A5F82068406900F04000402816D1206800
:101B1000406920F0400021684861606B50B117486F
:101B2000616B0865606BFFF71CF910B1606B016DAC
:101B300088470CE02046FFF77CFF08E02046FFF7CF
:101B400078FF04E02046FFF774FF0020E0638BE796
:101B500005F0800030B106F0800018B1204601F099
:101B6000E8F881E705F0400030B106F0400018B118
:101B7000204601F07BF877E700BF75E7392C0008B5
:101B80002DE9F84304460D4616461F464FF000095E
:101B900094F83A00202860D105B116B90120BDE8BB
:101BA000F88300BF94F83800012801D10220F6E73D
:101BB000012084F8380000BF0020E063222084F870
:101BC0003A00FFF7EFF98146A685E68539E0E08D1A
:101BD000401EE085A068B0F5805F1BD14B46002217
:101BE00020212046009701F0D8F808B10320D6E75D
:101BF000A846206938B920684068C0F30800A8F8F2
:101C00000000AD1C1DE020684068C0B2A8F80000CC
:101C10006D1C16E04B46002220212046009701F063
:101C2000BCF808B10320BAE7206920B920684068F1
:101C300005F8010B05E02068406800F07F0005F81A
:101C4000010BE08D0028C2D1202084F83A0000BFAB
:101C5000002084F8380000BFA1E702209FE70000C1
:101C60001D4A0168914236D11C49098801F400419E
:101C700089BB1A49098801F4804171B11849097872
:101C80000A2903D00021154A118024E0134909884C
:101C900041F40041114A11801DE0114909780D29D4
:101CA00006D10E49098841F480410C4A118012E0A6
:101CB0000B490978094A1288C2F30D02094B99545D
:101CC00006490988491C054A118011460988C72917
:101CD00001DD00211180704700100140A0000020AC
:101CE000A2000020582D0020704700BFFEE7000032
:101CF00010B5012280210C48FFF748F9012240214C
:101D00000948FFF743F900F0A5F9002280210648B1
:101D1000FFF73CF900F09EF9002240210248FFF74E
:101D200035F900F097F910BD0004024010B500220B
:101D300080210848FFF72AF9012240210548FFF7D2
:101D400025F900F087F9012280210248FFF71EF9EA
:101D500010BD00000004024010B5012280210A4895
:101D6000FFF714F900F076F9012240210648FFF749
:101D70000DF900F06FF9002240210348FFF706F942
:101D800000F068F910BD00000004024010B500200A
:101D90000F4908600F48006820F440200D49086092
:101DA0000846006840F48020086000200A49C1F815
:101DB000A402022001F05CFE012005490860022017
:101DC00001F056FE00200449C1F8A00210BD000039
:101DD000A0824042000402400080404200B587B02B
:101DE00000BF002001901048006840F002000E493A
:101DF00008600846006800F00200019000BF00BFC4
:101E00004FF440700290012003900490022005904E
:101E100002A90648FEF7BAFF0120054908600549F6
:101E2000C1F8A00207B000BD3038024000040240F3
:101E3000A48240420080404210B500200F49086053
:101E40000F48006820F440200D49086008460068EB
:101E500040F48020086001200A49C1F8A402022051
:101E600001F006FE012005490860022001F000FE95
:101E700000200449C1F8A00210BD0000A082404229
:101E8000000402400080404270B505460024164818
:101E9000006820F440201449086008460068086083
:101EA000002616E0002011490860022001F0E0FD44
:101EB00001200F49C1F8A0026006040E0B487C38CF
:101EC000006808B1601CC4B2012001F0D1FD701C93
:101ED000C6B2082EE6DB15B9FFF7AEFF01E0FFF74B
:101EE00055FF204670BD000000040240A082404221
:101EF0000080404270B504461548006820F4402038
:101F0000134908600846006840F4802008600020FB
:101F100010490860002517E0E0090E49091D086016
:101F20006006040E022001F0A3FD01200A49C1F859
:101F3000A002022001F09CFD00200649086002205A
:101F400001F096FD681CC5B2082DE5DB70BD0000F0
:101F500000040240A08240420080404210B50F4879
:101F6000006820F440200D4908600846006840F4ED
:101F70008020086001200A4908600A49C1F8A002CF
:101F8000042001F075FD002005490860042001F0DF
:101F90006FFD00200349C1F8A00210BD00040240FB
:101FA000A48240420080404210B50F48006820F4EF
:101FB00040200D4908600846006840F48020086011
:101FC00000200A4908600A49C1F8A402042001F06F
:101FD0004FFD0120054908600549C1F8A40204200D
:101FE00001F046FD10BD000000040240A082404206
:101FF0000080404210B500241348006820F44020BF
:102000001149086008460068086001200F4908600F
:1020100001F02EFD01200E49C1F8A00201F028FDBB
:1020200007E0601CC4B2FA2C03DDFFF7BDFF0120FE
:1020300010BD0648803800680028F2D10349091F06
:10204000086000BFF4E7000000040240A4824042A0
:1020500000804042032000BF011EA0F10102D0B267
:10206000FAD1704700B587B000BF002001901B482F
:10207000006840F00100194908600846006800F057
:102080000100019000BF00BF00BF00200190084682
:10209000006840F0100008600846006800F010007A
:1020A000019000BF00BF0120029000200390022099
:1020B00004900320059002A90948FEF767FE1C2042
:1020C000029000200390012004900320059002A9B3
:1020D0000448FEF75BFE07B000BD00003038024048
:1020E000000002400010024010B501229102084891
:1020F000FEF74CFF642001F099FC00224FF4806150
:102100000348FEF743FF642001F090FC10BD00007F
:102110000014024000B587B000BF002001901248B3
:10212000006840F02000104908600846006800F090
:102130002000019000BF00BF4FF4C060029001205A
:10214000039004900320059002A90848FEF71EFEA4
:10215000012251020548FEF719FF012291020348AE
:10216000FEF714FF07B000BD3038024000140240F3
:102170002DE9FC4104460D4616466B4606223B21DE
:10218000682000F09FF80746BFB99DF801009DF850
:10219000001040EA012000B220809DF803009DF865
:1021A000021040EA012000B228809DF805009DF849
:1021B000041040EA012000B230803846BDE8FC81BE
:1021C0002DE9FC4104460D4616466B460622432186
:1021D000682000F077F80746BFB99DF801009DF828
:1021E000001040EA012000B220809DF803009DF815
:1021F000021040EA012000B228809DF805009DF8F9
:10220000041040EA012000B230803846BDE8FC816D
:1022100010B5FFF7E3FD80216B2000F0D7F86420B4
:1022200001F004FC00216B2000F0D0F8032000F046
:102230008BF8002000F080F8322000F0AAF800218E
:10224000382000F0C3F800216A2000F0BFF8002118
:10225000232000F0BBF88021372000F0B7F875206C
:1022600000F013F80446682C0BD101216B2000F01C
:10227000ADF800216C2000F0A9F8322000F089F8B8
:1022800001E0012010BD0020FCE770B50446FFF717
:1022900065FED020FFF72EFEFFF7ACFE2046FFF7CD
:1022A00029FEFFF7A7FEFFF759FED120FFF722FE18
:1022B000FFF7A0FE0020FFF7E7FD0546FFF774FEDD
:1022C000284670BD2DE9F04106460F4614461D46CE
:1022D000FFF744FE002141EA4601C8B2FFF70AFEBB
:1022E000FFF788FE20B1FFF75FFE0120BDE8F08117
:1022F0003846FFF7FFFDFFF77DFEFFF72FFE0121B8
:1023000001EB4601C8B2FFF7F5FDFFF773FE0DE0E4
:10231000012C04D10020FFF7B7FD287003E0012055
:10232000FFF7B2FD2870601EC4B26D1C002CEFD107
:10233000FFF73AFE0020D9E710B50446E006010E8B
:102340001C2000F043F810BD10B50446E006010E55
:102350001B2000F03BF810BD70B504460025BC2CD6
:1023600001DB012510E0622C01DB02250CE02A2CA8
:1023700001DB032508E0142C01DB042504E00A2C12
:1023800001DB052500E0062529461A2000F01EF88D
:1023900070BD70B50446B4F57A7F01DD4FF47A74F0
:1023A000042C00DA04244FF47A7090FBF4F0401E01
:1023B000C5B22946192000F009F80546264604EB67
:1023C000D671C1F34F00FFF7C7FF70BD70B505466A
:1023D0000C46FFF7C3FDD020FFF78CFDFFF70AFE88
:1023E00018B1FFF7E1FD012070BD2846FFF782FD1F
:1023F000FFF700FE2046FFF77DFDFFF7FBFD18B15C
:10240000FFF7D2FD0120EFE7FFF7CEFD0020EBE75D
:102410002DE9F04105460E4617469846FFF79EFD0A
:10242000002141EA4501C8B2FFF764FDFFF7E2FD74
:1024300020B1FFF7B9FD0120BDE8F0813046FFF77C
:1024400059FDFFF7D7FD00240CE018F80400FFF752
:1024500051FDFFF7CFFD18B1FFF7A6FD0120EBE717
:10246000601CC4B2BC42F0DBFFF79EFD0020E3E736
:1024700000BFFEE77047000070B500240CE00025A7
:1024800006E00020074901EBC5010855681CC5B2EC
:10249000802DF6DB601CC4B2082CF0DB00F0E2F803
:1024A00070BD0000A02E0020F0B514460B46CF17DB
:1024B00001EB5777C7F3C702CF1701EB5777FF1030
:1024C000A1EBC707FEB20123B340DDB24CB1134B01
:1024D00003EBC0039B5C2B43104F07EBC007BB54BF
:1024E0001AE00E4B03EBC0039B5CDB430B4F07EB87
:1024F000C007BB54094B03EBC0039B5C2B43074F46
:1025000007EBC007BB54054B03EBC0039B5CDB43ED
:10251000024F07EBC007BB54F0BD0000A02E002007
:1025200000B587B0142102A8FEF7DBF900BF002038
:1025300001904448006840F00200424908600846A3
:10254000006800F00200019000BF00BFC0200290B0
:102550000120039000200490059002A93A48FEF75C
:1025600015FC0122C0213848FEF710FD0021AE20E5
:1025700000F0B5F90021084600F0B1F90021102063
:1025800000F0ADF90021402000F0A9F900218120E0
:1025900000F0A5F90021CF2000F0A1F90021A12031
:1025A00000F09DF90021C82000F099F90021A62033
:1025B00000F095F90021A82000F091F900213F20BA
:1025C00000F08DF90021D32000F089F900210846A0
:1025D00000F085F90021D52000F081F9002180204C
:1025E00000F07DF90021D92000F079F90021F120D7
:1025F00000F075F90021DA2000F071F900211220B5
:1026000000F06DF90021DB2000F069F90021302095
:1026100000F065F90021202000F061F9002102207E
:1026200000F05DF900218D2000F059F900211420FF
:1026300000F055F9FFF720FF0021AF2000F04FF91F
:1026400007B000BD303802400004024010B5024619
:10265000012000E050430B1EA1F10104E1B2F9D1C9
:1026600010BD000070B500242BE004F1B001C8B229
:10267000002100F034F90021084600F030F9002173
:10268000102000F02CF9FFF733FB782000F044F91C
:10269000FFF762FB402000F03FF9FFF75DFB0025EC
:1026A00009E0094901EBC501085D00F035F9FFF7C4
:1026B00053FB681CC5B2802DF3DBFFF737FB601CB2
:1026C000C4B2082CD1DB70BDA02E00202DE9FE4F36
:1026D0000746884692461C460197CDF80080082C94
:1026E00002D14FF006091FE02046E31704EB5373B5
:1026F000DB1021464FEAE47C04EB5C7C4FEAEC0CF7
:10270000A4EBCC0CBCF1000F02D04FF0010C01E0A7
:102710004FF0000C6344224604EBD27C4FEA6C0C71
:1027200003FB0CF303F0FF09AAF12000C6B2002559
:102730005EE0082C07D106EB46002F4901EB400074
:1027400010F805B01DE00C2C07D106EB46002B4914
:1027500001EB800010F805B013E0102C05D12848DB
:1027600000EB061010F805B00BE0182C07D106EBB3
:10277000C600244901EB800010F805B001E0BDE877
:10278000FE8F002002901CE00BF0010028B14146B2
:1027900038460C9AFFF788FE09E00C9808B901202A
:1027A00000E00020024641463846FFF77DFE4FEA32
:1027B0006B0B08F1010000F0FF080298401CC0B24A
:1027C000029002980828DFDB781CC7B2082C0BD0D7
:1027D00004EBD4714A100199791A8A4204D1019FFD
:1027E00000980830C0B20090DDF80080681CC5B2C7
:1027F0004D459EDB00BFC2E70AA3000832A50008D2
:10280000A6A9000896AF00082DE9FF4F82B0064642
:1028100091461F46DDE90F4A4FF0000B082C01D10D
:102820004FF0020B002530E0781B401EC1B20A2099
:10283000FFF70CFFB9FBF0F00A21B0FBF1F201FB4E
:102840001208B8F1000F0ED104EBD4710BEB61014B
:1028500001FB0561C8B223463022CDE900A40399EB
:10286000FFF734FF0FE004EBD4710BEB610101FBC8
:102870000561C8B208F13001CAB22346CDE900A40F
:102880000399FFF723FF681CC5B2BD42CCDB06B03D
:10289000BDE8F08F2DE9F84106460F4614461D4667
:1028A000DDF81C8013E0CDF8008022782B463946F5
:1028B0003046FFF70BFF082D02D1B01DC6B205E070
:1028C000284605EBD07106EB6101CEB2641C20787E
:1028D000202802DB20787E28E5DDBDE8F88170B590
:1028E00005460C46FFF704FA782000F015F8FFF7CC
:1028F00033FA1CB1402000F00FF802E0002000F095
:102900000BF8FFF729FA284600F006F8FFF724FA3B
:10291000FFF70CFA70BD000070B5044600251FE0FB
:1029200004F0800028B1012280210F48FEF72EFB21
:1029300004E0002280210C48FEF728FBFFF78AFB09
:10294000012240210848FEF721FBFFF783FB00220C
:1029500040210548FEF71AFB6006040E681CC5B24C
:10296000082DDDDB70BD0000000402402DE9F041C0
:1029700092B00446884615461E46002700BF002038
:1029800000902A48006840F08050284908600846B6
:10299000006800F08050009000BF00BF00BF002022
:1029A00000902348006840F48040214908600846B0
:1029B000006800F48040009000BF00BF0120069036
:1029C0000004079002200C9041050D91CDF838804D
:1029D0000F941095119606A8FEF7A4FC07460FB1B8
:1029E00000BFFEE70F20019002200290002003901C
:1029F0004FF4A05004904FF480500590052101A899
:102A0000FEF778FB07460FB100BFFEE7FEF7C4FAFA
:102A100041F20101884205D10648006840F4807007
:102A20000449086012B0BDE8F0810000403802405F
:102A300000700040003C024010B506F039FC01284F
:102A400001D006F0BBF810BD1448006840F47000D7
:102A5000124908601248006840F0010010490860FF
:102A600000200F49083108600D4800680D490840F2
:102A70000B4908600C48091D0860081F006820F415
:102A80008020091F0860002005490C3108604FF0C4
:102A900000600249803908607047000088ED00E05E
:102AA00000380240FFFFF6FE1030002410B5024847
:102AB000FEF7E0FE10BD0000602E002010B50E48AD
:102AC0000068C06800F0010078B10C4908698047CF
:102AD000002009490968486200BF64200649096866
:102AE000C86264210448C16000BF6FF00100024960
:102AF0000968086110BD0000303300201801002073
:102B000010B50268294B98420ED0B0F1804F0BD01F
:102B1000274B984208D0274B984205D0264B984225
:102B200002D0264B984203D122F070024B681A4320
:102B30001E4B984220D0B0F1804F1DD01C4B9842C4
:102B40001AD01C4B984217D01B4B984214D01B4BE9
:102B5000984211D01A4B98420ED01A4B98420BD083
:102B6000194B984208D0194B984205D0184B9842FF
:102B700002D0184B984203D122F44072CB681A431A
:102B800022F080034C6943EA040202608B68C3624E
:102B90000B688362054B984202D0084B984201D1E2
:102BA0000B6903630123436110BD00000000014075
:102BB0000004004000080040000C004000040140F8
:102BC000004001400044014000480140001800401E
:102BD000001C00400020004038B505460C4600BFF0
:102BE000002000901148006840F004000F49086080
:102BF0000846006800F00400009000BF00BF0322F8
:102C000011461E20FEF723FA1E20FEF710FA084890
:102C1000084908600846446000218160C560016180
:102C2000FEF7D4FD0348FEF70FFE38BD40380240E2
:102C3000000800403033002070B50546AC6B002022
:102C4000E085E0842046FEF7F4FE70BD0168C968A7
:102C500021F490710268D1600168496921F0010195
:102C600002685161202180F83A10704710B504467F
:102C70002068C06820F040002168C860202084F8E7
:102C800039002046FFF730F8002010BD70B504462B
:102C900094F83A0022284AD1A068B0F5805F13D199
:102CA000A56A206940B920684068C0F30800288000
:102CB000A06A801CA06219E020684068C0B2288029
:102CC000A06A401CA06211E0206938B92068406801
:102CD000C1B2A26A501CA062117007E0206840686F
:102CE00000F07F01A26A501CA0621170E08D401EAE
:102CF00080B2E085C8B92068C06820F02000216853
:102D0000C8602068C06820F480702168C8602068AE
:102D1000406920F0010021684861202084F83A00D1
:102D20002046FEF79DFF002070BD0020FCE702203A
:102D3000FAE7014691F8390021282CD18868B0F5CE
:102D4000805F0FD10A6A1088C0F308000B685860D2
:102D5000086918B9086A801C086209E0086A401C02
:102D6000086205E00B6A581C086218780B68586006
:102D7000C88C401E80B2C88458B90868C06820F06A
:102D800080000B68D8600868C06840F040000B689D
:102D9000D860002070470220FCE72DE9F04104468E
:102DA0000D4617469846069E21E0701CF8B12EB1DC
:102DB000FEF7F8F8A0EB0800B04218D92068C06808
:102DC00020F4D0702168C8602068406920F00100BC
:102DD00021684861202084F8390084F83A0000BF57
:102DE000002084F8380000BF0320BDE8F08120688F
:102DF00000682840A84201D1012000E00020B8422C
:102E0000D3D00020F1E7000008B52448006800682E
:102E1000C0F3401048B34FF47A73012269461F484B
:102E2000FEF7AEFE1E48008800F40040E8B91C48DA
:102E3000008800F4804070B19DF800000A2803D09B
:102E400000201749088024E01548008840F400401D
:102E5000134908801DE09DF800000D2806D1104898
:102E6000008840F480400E49088012E09DF8000080
:102E70000B490988C1F30D010A4A505408480088DB
:102E8000401C0749088008460088C72801DD00204B
:102E900008800248FEF7CEFD08BD0000202E00206D
:102EA000A0000020582D002000BFFEE703B40198C9
:102EB0004100009850EAC12018BF04204A0D18BFF5
:102EC00040F0010040F2FF72B2EB515F08BF40F0EA
:102ED0000200012808BF052002B0704702480068C0
:102EE000C0F30220704700000CED00E010B5002890
:102EF00004DB0A07130E054A135406E00A07140EF2
:102F0000034A00F00F031B1FD45410BD00E400E07F
:102F100018ED00E00000000070B5C1482DED020B77
:102F20002DED0E8B82B0119D25F000449FEDBEDB90
:102F30009FEDBFEB84423EDBA4F140511098A1F11C
:102F40007F6108430FD0BC48844202DC28D110982E
:102F500030B39DED100B02B0BDEC0E8B02B0BDE89E
:102F6000704000F069BC9DED100B53EC1D2B51EC33
:102F7000100B06F083FE9DED100B41EC180B53EC8B
:102F80001E2B51EC100B06F079FE53EC182B06F0BB
:102F900075FC41EC100B02B0BDEC0E8B02B070BDA5
:102FA0000120FDF7CEFC02B0BDEC0E8B02B0BDE8F7
:102FB000704000F055BCA1489FEDA18B844256DAC9
:102FC0009DED100BB4F1795F0ADA51EC100BFFF7AD
:102FD0006DFF042808BF00F053FC9DED100BDAE7ED
:102FE00053EC102B51EC100B06F048FE41EC190B82
:102FF00095480621B0EE490AF0EE690A784400F0DF
:103000009FFB53EC192B51EC100B06F037FE41ECF3
:103010001A0B8E48B0EE490AF0EE690A0421784492
:1030200000F08EFB53EC192B51EC100B06F026FE32
:1030300053EC182B06F022FC41EC100B51EC1A0B50
:1030400053EC102B06F0C2FCCDE900019DED000B06
:1030500053EC102B9DED100B51EC100B06F00EFEF7
:103060009DED101B53EC112B06F008FCD2E09DEDFA
:10307000100B51EC100B01F009FB53EC182B06F070
:10308000FBFE9FED730BCDE9000153EC102B9DED82
:10309000000B51EC100B06F0F1FD41EC190B6E48E2
:1030A0000621B0EE490AF0EE690A784400F048FBC8
:1030B00053EC192B51EC100B06F0E0FD41EC1B0B0F
:1030C0006648B0EE490AF0EE690A0421784400F03F
:1030D00037FB53EC192B51EC100B06F0CFFD53ECE2
:1030E000182B06F0CBFB41EC1C0B51EC190B03F039
:1030F000AFFE41EC180B5A489FED5BABA04222DCBF
:1031000053EC1C2B51EC1B0B06F060FCCDE90001CD
:103110009DED000B51EC180B53EC102B06F0AEFD9F
:1031200053EC182B06F0AAFB53EC1A2B06F0A6FD65
:1031300053EC1D2B06F078FF53EC1E2B06F09CFE83
:1031400041EC100B5FE08DED008B002000909DEDB9
:10315000000B51EC180B53EC102B06F08FFB9DED80
:10316000000B41EC1E0B53EC102B51EC100B06F036
:1031700085FD53EC192B06F07FFE53EC1E2B06F059
:1031800025FC41EC190B53EC1C2B51EC1B0B06F0EE
:103190001DFC41EC1B0B53EC1A2B51EC190B06F0E8
:1031A0006DFD53EC1D2B06F067FE41EC190B53EC43
:1031B0001A2B51EC180B06F061FD53EC1B2B06F09B
:1031C0005DFD53EC192B06F02FFF9DED000B41EC3C
:1031D000180B53EC1A2B51EC100B06F04FFD9FED22
:1031E000249B53EC192B06F047FE41EC100B51ECDD
:1031F000180B53EC102B06F017FF53EC192B06F0AD
:103200003BFE41EC100B002D3FF7C5AE51EC100B0F
:1032100006F0F6FA41EC100BBDE6000000000000DD
:103220000000F03F00000000075C143326A6913C2C
:10323000182D4454FB21F93F0000F07F0000E03FCF
:10324000000000000000F03FA09D0000AE9D0000C7
:10325000000000000000E03FF29C0000009D000024
:103260003333EF3F0000000000000000000000408A
:10327000182D4454FB21E93F70B59B482DED020BFE
:103280002DED068B079D25F00044A04218DC9748E1
:10329000844202DC0AD1069840B19DED060BBDECDC
:1032A000068B02B0BDE8704000F0C6BA002DCCBF5E
:1032B0009FED8F0B9FED900BBDEC068B02B070BDA8
:1032C0008F48A04215DD8F48A042D8BF4FF0FF3491
:1032D00058DD9DED060B51EC100BFFF7E7FD0428C0
:1032E00008BF00F0CDFA9DED060BBDEC068B02B0D9
:1032F00070BD9DED060B51EC100B01F0C7F9CDE947
:10330000060181489FED828BA0423CDD8248A042AD
:103310001FDD00249FED82AB9DED060B53EC1A2BB5
:1033200051EC100B06F0AAFA9DED060B41EC190BBF
:1033300053EC1A2B51EC100B06F0A0FC53EC182B9D
:1033400006F072FE53EC192B06F040FBCDE90601A6
:1033500049E09DED060B012453EC182B51EC100BAA
:1033600006F08CFA9DED060B41EC190B53EC182B73
:1033700051EC100B06F058FE53EC192B06F026FB0F
:10338000CDE906012FE06848A0421FDD02249FED31
:10339000689B9DED060B53EC192B51EC100B06F0BE
:1033A0006DFC53EC182B06F069FA9DED060B41EC11
:1033B000180B53EC192B51EC100B06F035FE53ECA7
:1033C000182B06F003FBCDE906010CE09DED060B82
:1033D000032453EC102B9FED580B51EC100B06F00F
:1033E000F5FACDE906019DED060B53EC102B51ECDF
:1033F000100B06F043FC41EC180B53EC182B06F0B5
:103400003DFC41EC190B4E480621B0EE490AF0EEA6
:10341000690A784400F094F953EC182B51EC100B26
:1034200006F02CFC41EC180B4648B0EE490AF0EED1
:10343000690A0521784400F083F953EC192B51EC0B
:10344000100B06F01BFC41EC100B51EC180B53EC6D
:10345000102B002C0EDA06F011FA9DED061B53EC32
:10346000112B06F00BFC9DED061B53EC112B06F007
:1034700003FD35E006F002FA9DED061B53EC112B1F
:1034800006F0FCFB41EC100B2F48784400EBC40025
:1034900090ED001B51EC100B53EC112B06F0C4FD0A
:1034A0009DED061B53EC112B06F0BEFD41EC100BFD
:1034B0002648784400EBC40090ED001B51EC100B43
:1034C00053EC112B06F0D8FC41EC100B002DA2BFE1
:1034D000BDEC068B02B070BD51EC100B06F090F9FC
:1034E00041EC100B01E70000000010440000F07FE9
:1034F000182D4454FB21F93F182D4454FB21F9BFEA
:103500000000DC3F0000203E0000F33F0000000010
:10351000000000000000F03F0000E63F0000000057
:103520000000000000000040008003400000000098
:10353000000000000000F83F000000000000F0BFA5
:10354000429A0000F8990000829900003A99000020
:1035500070B56B4E2DED040B2DED028B82B0DDF8B6
:103560001CC0DDE905235C422CF000411C4341EA0C
:10357000D474049D22F00040B44205D86C422C4320
:1035800040EAD474B4420BD99DED061B9DED040BAB
:1035900002B0BDEC028B04B0BDE8704000F056B93B
:1035A000ACF14054A4F17F641C430BD0022404EA24
:1035B000AC7444EAD27405439FED538B9FED542BBA
:1035C00007D015E09DED040B51EC100B00F0D2F983
:1035D00042E0002C11BF012C9DED040B02B0BDECAC
:1035E000028B04BF04B070BD022C38D0032C3BD03A
:1035F0000B439FED491B9FED4A0B0AD0B14218D1F6
:10360000B04209D121F0804120F08040079105901F
:103610000FE0002A15DA10E0434B7B44002C08BF72
:1036200093ED000B0DD0012C10D0022C17D0032CE1
:103630001AD0B0421DD1002A03DAB0EE410AF0EEF2
:10364000610A02B0BDEC028B04B070BD93ED000BBB
:1036500051EC100B06F0D4F841EC100BF1E7B0EE92
:10366000480AF0EE680AECE7B0EE420AF0EE620AB1
:10367000E7E7401A00153C28C8BF8DED000B19DCA8
:10368000BCF1000FBEBF10F13C0F9FED290B8DED7B
:10369000000B0FDB9DED060B53EC102B9DED040B87
:1036A00051EC100B06F092F900F0F0FF00F062F917
:1036B000CDE90001002C08BF9DED000BC1D0012C0D
:1036C00010D0022C9FED1C0B53EC102B9DED000B2A
:1036D00051EC100B0DD006F0A7FC53EC182B06F0A4
:1036E000A3FCB9E7019880F0004001909DED000B2C
:1036F000A7E706F099FC53EC182B06F0BDFBABE7EF
:103700000000F07F00000000182D4454FB21094008
:10371000182D4454FB2109C0182D4454FB21F9BF36
:10372000182D4454FB21F93F6A9800000000000066
:103730000000000000000000075C143326A6A13C36
:1037400070B504462DED028B4D1E00EBC500B0EEAA
:10375000408AF0EE608A90ED000B35F0060017D03D
:1037600053EC182B51EC100B06F088FA41EC100BBF
:103770006D1E04EBC50090ED001B51EC100B53ECDB
:10378000112B06F07BF841EC100B35F00600E7D169
:10379000022D36D0042D1CD0062D1CBFBDEC028B93
:1037A00070BD53EC182B51EC100B06F067FA94ED3A
:1037B0000A1B53EC112B06F061F853EC182B06F0A2
:1037C0005DFA94ED081B53EC112B06F057F841EC11
:1037D000100B53EC182B51EC100B06F04FFA94ED34
:1037E000061B53EC112B06F049F853EC182B06F08E
:1037F00045FA94ED040B53EC102B06F03FF841EC26
:10380000100B53EC182B51EC100B06F037FA94ED1B
:10381000021B53EC112B06F031F853EC182B06F079
:103820002DFA94ED001B53EC112B06F027F8BDEC9C
:10383000028B41EC100B70BD10B553EC102B51EC0A
:10384000100B06F01BF841EC100B10BD10B553EC3B
:10385000112B51EC100B06F011F841EC100B10BDC0
:103860009FED050B10B553EC102B51EC100B06F02F
:10387000ADF841EC100B10BD00000000000000008E
:103880009FED050B10B553EC102B51EC100B06F00F
:10389000F5F941EC100B10BD000000000000001015
:1038A00030380A2801D2012070470020704700BF3D
:1038B00070470000F0B52DED028B83B006460F4631
:1038C0000025684600F014FF002447E056F8241055
:1038D00057F82420881A002801DB014600E0414205
:1038E00000EE101AB8EEC00ADFED200A80EE208A42
:1038F000684600EB840090ED000AB5EEC00AF1EED8
:1039000010FA18D0684600EB8400D0ED000A88EE6B
:10391000200AF7EE000A70EE608AB0EEE80A14485A
:10392000D0ED090AB4EEE00AF1EE10FA15DD01203F
:10393000A040054311E00E4890ED070AB4EEC80A16
:10394000F1EE10FA06DC90ED080AB4EEC80AF1EECA
:1039500010FA02D20120A0400543641C032CB5DB01
:10396000284603B0BDEC028BF0BD0000000080478C
:1039700044C1000810B541EC100BFFF77DFC51EC81
:10398000100B10BD2DE9F0410446E07800F0C006B0
:10399000E07800F03F05607800F0010098B1EF108A
:1039A0002846E91705EB5171C910A5EBC101491C67
:1039B00001F0FF080B48006820B10A484146026840
:1039C0003846904700BF607800F0080030B10548E5
:1039D000406818B1B011034A516888470020BDE81B
:1039E000F08100002033002070B504460420FDF76C
:1039F000BDFE0C48046025464FF47A704543012013
:103A0000094908804FF0E020006940F002004FF0C3
:103A1000E021086108464561006940F00100086145
:103A200070BD0000940000209800002070B504468E
:103A300005F03EFC012811D00C480088844206DBCA
:103A40000A48008894FBF0F5284604F0B9FD0748C1
:103A5000008894FBF0F100FB114084B24FF47A71BE
:103A600004FB01F000F004F870BD00009800002095
:103A700070B5034600224FF0E02675690D4E36689A
:103A800003FB06F44FF0E026B16910E04FF0E026AA
:103A9000B06988420BD0884202D20E1A324402E04A
:103AA0002E1A0E4432440146A24200D300E0EDE754
:103AB00000BF70BD9400002038B5044664B12020DA
:103AC0008DF8000028208DF8010030208DF80200CC
:103AD00038208DF8030004E0A32204216846FCF797
:103AE000F8FE6A46042140F69E2002F08DFA01F0AD
:103AF00077FE38BD3EB5044602208DF80000CA208E
:103B00008DF80100E3208DF8020009208DF80300F4
:103B10006A460421682002F077FAA3208DF800009D
:103B200004F0400048B1C0208DF80100C8208DF895
:103B30000200C2208DF8030006E0A3208DF80100EA
:103B40008DF802008DF8030004F4C07048B1C42061
:103B50008DF80400CC208DF80500C6208DF80600F5
:103B600006E0A3208DF804008DF805008DF806000E
:103B7000A3208DF807008DF808008DF809006A462B
:103B80000A2140F6A72002F03FFA04F0030018B122
:103B900020208DF8000002E0D8208DF800006A4651
:103BA000012140F6B62002F02FFA04F0200018B1EF
:103BB000012000F0ADF802E0002000F0A9F804F4C4
:103BC000C07008B304F4807060B1B2208DF80000BA
:103BD0008B208DF80100B6208DF802009B208DF817
:103BE00003000BE0B0208DF8000080208DF801006C
:103BF000B4208DF8020090208DF803006A4604215D
:103C000040F6A22002F000FA04F0010020B3F820F0
:103C10008DF800006A4601214FF40B6002F0F4F9C0
:103C2000FA21072000F02CFC072000F0F3FB012014
:103C300000F013FC642000F003FD4FF4FA7000F074
:103C400012FDC821304800F0A3FB282000F0BCFB87
:103C50000A2000F0CCFB08E0D8208DF800006A466E
:103C600001214FF40B6002F0CFF904F0020018B10B
:103C7000D9208DF8000002E0D8208DF800006A46B7
:103C8000012140F23D7002F0BFF904F0040018B1C8
:103C9000012000F069F802E0002000F065F804F06F
:103CA000100018B10120FFF707FF02E00020FFF726
:103CB00003FF44F008001549488101F091FD002000
:103CC0001249887304F0400018B10846807B801DBB
:103CD000887304F4C07020B10C48807B801D0B49B0
:103CE000887304F0140020B10848807B1030074925
:103CF000887304F0030020B10448807B001D034951
:103D0000887300203EBD000009E3CA022033002072
:103D10003EB504466CB10EA1D1E900208968CDE919
:103D2000002002916A4609214FF4976002F06CF975
:103D30003EBD0AA2D2E900109268CDE901020091CD
:103D40006A4609214FF4976002F05EF9F0E700003F
:103D5000B8AAB38DB4980D355D000000B8AAAAAA20
:103D6000B088C3C5C700000038B5044664B1C020A0
:103D70008DF80000C2208DF80100C4208DF80200EB
:103D8000C6208DF8030004E08B2204216846FCF76E
:103D9000A0FD6A46042140F6982002F035F901F0B2
:103DA0001FFD38BD10B5C8234FF48062024940F6AC
:103DB000F63001F0A9FB10BD6CC100082DE9F04FF1
:103DC0008DB00746884615469946DDE9166B0024F6
:103DD000002030806B49887B5A4605A901F060FCC1
:103DE00018B1601E0DB0BDE8F08F6648807A00F013
:103DF0001400002867D09DF8140000069DF81510E7
:103E000040EA01409DF8161040EA01209DF8171085
:103E1000084328609DF8180000069DF8191040EA34
:103E200001409DF81A1040EA01209DF81B1008433C
:103E300068609DF81C0000069DF81D1040EA0140D6
:103E40009DF81E1040EA01209DF81F100843A8604D
:103E50009DF8200000069DF8211040EA01409DF8E1
:103E6000221040EA01209DF823100843E86004F185
:103E70001000C4B228680014019068680014029011
:103E8000A86800140390E868001404900198404367
:103E9000029901FB0100039901FB0100049901FB58
:103EA000010ABAF1706F02DBBAF1885F05DD01F03B
:103EB00097FC00203080401E94E7B6F9000040F4E3
:103EC0008070308000BF2F48807A00F0400020B31F
:103ED00005A9601C085C095D40EA012000B2A8F851
:103EE000000005A9E01C095C05AAA01C105C41EAC1
:103EF000002000B2A8F8020005A9601D095C201D81
:103F0000105C41EA002000B2A8F80400A01DC4B271
:103F1000B6F9000040F0080030801A48408900F4EB
:103F2000C07008B305A9601C085C095D40EA012067
:103F300000B2388005A9E01C095C05AAA01C105C31
:103F400041EA002000B2788005A9601D095C201DAF
:103F5000105C41EA002000B2B880A01DC4B2B6F9DE
:103F6000000040F0700030800648807A00F00300C6
:103F700018B105A90819FFF705FD484600F03BFFF9
:103F800000202FE72033002070B588B0064601A836
:103F900001F006F9BDF804000021C90341EA5045CB
:103FA000C4034448007A00F0030056F8200005904E
:103FB0004048007A00F0040010B105984042059096
:103FC0003C48007AC0F3C10056F8200006903948FA
:103FD000007A00F0200010B1069840420690354863
:103FE000007AC0F3811056F820000790314800890C
:103FF00000F4807010B10798404207900598C117EF
:10400000A0FB042301FB043100FB0510810041EA01
:10401000927005900698C117A0FB042301FB0431A0
:1040200000FB0510810041EA927006900798C117C5
:10403000A0FB042301FB043100FB0510810041EAD1
:10404000927007900598000E8DF808000598000CF6
:104050008DF809000598000A8DF80A000598C0B28D
:104060008DF80B000698000E8DF80C000698000CD9
:104070008DF80D000698000A8DF80E000698C0B263
:104080008DF80F000798000E8DF810000798000CAF
:104090008DF811000798000A8DF812000798C0B239
:1040A0008DF8130002AA0C214FF4257001F0ACFF2B
:1040B00008B070BD2033002030B585B0044616A28C
:1040C00007CA02AB07C3C82C03DD4FF0FF3005B0B1
:1040D00030BDC82090FBF4F0401E85B2280A8DF850
:1040E0000000E8B28DF801006A46022140F2162075
:1040F00001F08AFF10B14FF0FF30E8E702AA0C216F
:1041000040F6C12001F080FF10B14FF0FF30DEE734
:10411000044884810020DAE7FEF2ABC4AAF1DFDFB5
:10412000BBAFDFDF203300201FB504464848007ACC
:1041300000F0030054F8200001904548007A00F098
:10414000040010B10198404201904148007AC0F348
:10415000C10054F8200002903D48007A00F0200091
:1041600010B10298404202903948007AC0F38110A1
:1041700054F8200003903648008900F4807010B194
:104180000398404203903349019880FB0101800F5E
:1041900040EA810001902F49029880FB01108200C3
:1041A00042EA917002902B49039880FB0110820033
:1041B00042EA917003900198000E8DF8000001987A
:1041C000000C8DF801000198000A8DF8020001989A
:1041D000C0B28DF803006A4604214FF4747001F0F8
:1041E00013FF18B14FF0FF3004B010BD0298000E5D
:1041F0008DF800000298000C8DF801000298000A6A
:104200008DF802000298C0B28DF803006A460421BE
:104210004FF4757001F0F8FE10B14FF0FF30E3E796
:104220000398000E8DF800000398000C8DF8010033
:104230000398000A8DF802000398C0B28DF80300BD
:104240006A4604214FF4767001F0DEFECCE70000F0
:104250002033002009E3CA0210B586B0044647A007
:104260000068039046A00068029046A00068019094
:1042700045A00068009004F0030003A9085C8DF8D5
:10428000140003A8C4F3C101405C8DF8150003A815
:10429000C4F38111405C8DF8160004F0030002A9FC
:1042A000085C8DF8100002A8C4F3C101405C8DF8D1
:1042B000110002A8C4F38111405C8DF8120005AA18
:1042C000032140F2264001F09FFE18B14FF0FF306D
:1042D00006B010BD04AA032140F22A4001F094FE6A
:1042E00010B14FF0FF30F3E701980590009804906B
:1042F00004F0040058B19DF8140040F001008DF85E
:1043000014009DF8100040F001008DF8100004F03A
:10431000200058B19DF8150040F001008DF81500FF
:104320009DF8110040F001008DF8110004F4807038
:1043300058B19DF8160040F001008DF816009DF868
:10434000120040F001008DF8120005AA03214FF47D
:10435000886001F059FE10B14FF0FF30B8E704AAB1
:10436000032140F2314001F04FFE10B14FF0FF3019
:10437000AEE7064804810020AAE700004CCD6C009F
:104380000CC92C00365676002646660020330020E5
:10439000F8B505460E464FF47A7095FBF0F000FB39
:1043A00006F4200E8DF80000200C8DF80100200A84
:1043B0008DF80200E0B28DF803006A4604214FF444
:1043C000AE7001F021FEF8BD38B50446052094FB1F
:1043D000F0F084B220128DF80000E0B28DF80100F8
:1043E0006A4602214FF4AD7001F00EFE38BD38B5BB
:1043F0000446052094FBF0F084B220128DF80000F2
:10440000E0B28DF801006A4602214FF4AC7001F071
:10441000FBFD38BD38B504460020009004F00100D3
:1044200020B19DF8000040F03000009004F0020040
:1044300020B19DF8000040F00C00009004F0040052
:1044400020B19DF8000040F0030000906A46012171
:104450004FF4A47001F0D8FD38BD38B50446012CE6
:1044600001DA012402E0042C00DD0424601EC0B245
:1044700000906A46012140F24F1001F0C5FD38BDA1
:10448000F0B52DED028B83B006460F4606F007000F
:1044900010B1B7F5C86F05DD4FF0FF3003B0BDECCC
:1044A000028BF0BD00EE107AB8EE400ADFED5B0A39
:1044B00080EE208A01A800F04DFE9DF8040002283D
:1044C00006D0042817D0082828D010284CD138E06E
:1044D0009FED530A28EE000ABCEEC00A10EE100A47
:1044E00084B29FED500A28EE000ABCEEC00A10EE1E
:1044F000100A85B23BE09FED4C0A28EE000ABCEEA4
:10450000C00A10EE100A84B29FED480A28EE000A95
:10451000BCEEC00A10EE100A85B228E09FED440AF6
:1045200028EE000ABCEEC00A10EE100A84B29FED1D
:10453000410A28EE000ABCEEC00A10EE100A85B24D
:1045400015E09FED3D0A28EE000ABCEEC00A10EE11
:10455000100A84B29FED390A28EE000ABCEEC00AA8
:1045600010EE100A85B202E04FF0FF3096E700BF70
:1045700020128DF80800E0B28DF8090028128DF89D
:104580000A00E8B28DF80B0006F00100A0B102AA03
:1045900002214FF4EA7001F037FD10B14FF0FF3007
:1045A0007CE70DF10A0202214FF4927001F02CFD1C
:1045B00010B14FF0FF3071E706F00200A0B102AA7F
:1045C00002214FF4EC7001F01FFD10B14FF0FF30ED
:1045D00064E70DF10A0202214FF4947001F014FD1A
:1045E00010B14FF0FF3059E706F00400A0B102AA65
:1045F00002214FF4EE7001F007FD10B14FF0FF30D3
:104600004CE70DF10A0202214FF4967001F0FCFC18
:1046100010B14FF0FF3041E700203FE70000484372
:104620000000804600004046000000460000C045F3
:104630000000804500004045000000450000C044E7
:1046400038B50446052094FBF0F085B228128DF8A9
:104650000000E8B28DF801006A4602214FF4EF70C5
:1046600001F0D2FC38BD38B50446052094FBF0F0CB
:1046700085B228128DF80000E8B28DF801006A4674
:1046800002214FF4ED7001F0BFFC38BD82B0CDE9DE
:10469000000121F0004001909DED000B02B051ECB3
:1046A000100B704700BF054A126802F04002002A52
:1046B000F9D0C2B2014B5A607047000000100140AF
:1046C0001CB50648012100238022CDE9001004A179
:1046D000064804F0BDFD04F00FF91CBD04000020E5
:1046E00073746172745F7461736B0000C16E000853
:1046F0007CB505462E494968087801AB04220D2196
:10470000FDF7E0FD08B107207CBD9DF80700C0F370
:1047100001109DF8041001F0E00140EAE1008DF87D
:1047200000009DF80700C0F381009DF8051001F01E
:10473000E00140EAE1008DF801009DF8070000F07B
:1047400003009DF8061001F0E00140EAE1008DF859
:104750000200002427E01DF8040030B99FED150A7F
:1047600005EB840080ED000A1BE09FED130A05EBCA
:10477000840080ED000A0BE005EB840090ED000A58
:10478000DFED0E0A20EE200A05EB840080ED000A22
:104790001DF80400401EC0B20DF804000028EBD143
:1047A00000BF601CC4B2032CD5DB0020ACE70000C6
:1047B000A4000020000000007B14AE3E1D5A843F80
:1047C0002DE9F04F87B005460C46914601208DF843
:1047D000100000208DF81100FE4A1268917CFD4AFD
:1047E0005268107804AB0222FDF712FE20B14FF0A0
:1047F000FF3007B0BDE8F08FC820FFF717F90020A1
:104800008DF81000F34A1268D17BF24A5268107892
:1048100004AB0122FDF7FCFD10B14FF0FF30E8E7DB
:10482000EC4A12685179EB4A5268107804AB0122C5
:10483000FDF7EEFD10B14FF0FF30DAE7E54A126800
:10484000917CE44A5268107804AB0122FDF7E0FD48
:1048500010B14FF0FF30CCE7DE4A1268D17DDD4A5F
:104860005268107804AB0122FDF7D2FD10B14FF071
:10487000FF30BEE7D74A12681179D64A52681078DD
:1048800004AB0122FDF7C4FD10B14FF0FF30B0E7DB
:104890000C208DF81000CF4A12681179CD4A526869
:1048A000107804AB0122FDF7B3FD10B14FF0FF30DB
:1048B0009FE70F20FFF7BAF8C648806A407A8DF864
:1048C0001000C44A12689178C24A5268107804AB4A
:1048D0000122FDF79DFD10B14FF0FF3089E7BD4883
:1048E000806A007A8DF81000BA4A12685178B94A85
:1048F0005268107804AB0122FDF78AFD10B14FF029
:10490000FF3076E7B9F1000F07D0B248806A807AAD
:1049100040F0E0008DF8100004E0AE48806A807A34
:104920008DF81000AB4A12689179AA4A5268107843
:1049300004AB0122FDF76CFD10B14FF0FF3058E7DA
:10494000B9F1000F07D0A348806AC07A40F0E000B8
:104950008DF8100003E0A048C07A8DF810009D4A41
:104960001268D1799B4A5268107804AB0122FDF796
:104970004FFD10B14FF0FF303BE7B9F1000F02D00F
:10498000C820FFF753F840208DF81000914A1268B4
:104990001179904A5268107804AB0122FDF738FD76
:1049A00010B14FF0FF3024E778208DF81000894ACD
:1049B00012685179874A5268107804AB0122FDF7DA
:1049C00027FD10B14FF0FF3013E783498889FFF7C7
:1049D0002DF800208DF810007E4A126851797D4A2A
:1049E0005268107804AB0122FDF712FD10B14FF0B0
:1049F000FF30FEE6774A1268917A764A526810785C
:104A000004AB0222FDF75EFC10B14FF0FF30F0E680
:104A10009DF811009DF8101040EA012B0C209BFB23
:104A2000F0F0C6B20020A86068602860A0606060F6
:104A30002060824665E0674A1268D17A654A52680A
:104A4000107804AB0C22FDF73DFC10B14FF0FF30A5
:104A5000CFE69DF811009DF8101040EA012000B249
:104A6000ADF808009DF813009DF8121040EA0120EF
:104A700000B2ADF80A009DF815009DF8141040EA48
:104A8000012000B2ADF80C00BDF908102068084400
:104A90002060BDF90A10606808446060BDF90C1020
:104AA000A0680844A0609DF817009DF8161040EA21
:104AB000012000B2ADF800009DF819009DF8181013
:104AC00040EA012000B2ADF802009DF81B009DF8FD
:104AD0001A1040EA012000B2ADF80400BDF9001040
:104AE000286808442860BDF90210686808446860B6
:104AF000BDF90410A8680844A8600AF1010000F09C
:104B0000FF0AB24597DB3448D0F800C02868C117C7
:104B1000090441EA10410704624600233846FBF7C6
:104B2000A7FC32460023CDE90201FBF7A1FC286077
:104B30002948D0F800C06868C117090441EA10414B
:104B40000704624600233846FBF792FC32460023F6
:104B5000CDE90201FBF78CFC68601F48D0F800C06B
:104B6000A868C117090441EA1041070462460023FE
:104B70003846FBF77DFC32460023CDE90201FBF706
:104B800077FCA8601448D0F804C02168C817000456
:104B900040EA11480F046246002338464146FBF7BD
:104BA00067FC32460023CDE90201FBF761FC20607F
:104BB0000948D0F804C06068C117090441EA1041EF
:104BC0000704624600233846FBF752FC32460023B6
:104BD00004E00000A400002044C10008CDE9020167
:104BE000FBF746FC60601148D0F804C0A068C1170C
:104BF000090441EA10410704624600233846FBF7E6
:104C000037FC32460023CDE90201FBF731FCA060FE
:104C1000A068002804DDA068A0F58030A06003E053
:104C2000A06800F58030A0600020E2E544C10008E3
:104C3000F0B52DED048B81B006460F4600253E49A8
:104C4000496808786B4603220D21FDF73BFB20B134
:104C5000072001B0BDEC048BF0BD9DF8000000F012
:104C60001F008DF800009DF8010000F01F008DF876
:104C700001009DF8020000F01F008DF802000024E2
:104C800055E056F8241057F82420881A002801DB34
:104C9000014600E0414200EE101AB8EEC00ADFED16
:104CA000270A80EE208A1DF8040068B3244890ED9E
:104CB000000AB8EE400ADFED230A80EE801AF0EE1B
:104CC000418A05E09FED200A28EE800AF0EE408A36
:104CD0001DF80400401EC0B20DF804000028F1D1F8
:104CE00088EE280AF7EE000A30EE609AB0EEC90AA4
:104CF0001348D0ED060AB4EEE00AF1EE10FA15DD25
:104D00000120A040054311E00D4890ED040AB4EEE7
:104D1000C80AF1EE10FA06DC90ED050AB4EEC80AF6
:104D2000F1EE10FA02D20120A0400543641C032CCE
:104D3000A7DB28468DE70000A40000200000804784
:104D400044C1000800B04C4554E3853F10B504460B
:104D5000204600F00FF80346E01C00F00BF843EA91
:104D6000C00083B2A01D00F005F843EA801083B2B2
:104D7000184610BD014691F90020002A01DD0020EF
:104D80001EE091F90020002A01DA042018E091F9D0
:104D90000120002A01DD012012E091F90120002A02
:104DA00001DA05200CE091F90220002A01DD022041
:104DB00006E091F90220002A01DA062000E007202F
:104DC0007047FCF7F5F80723022208214FF4A8707A
:104DD000FDF7CCFDA820FEF707FEFDF79BF9FDF7D8
:104DE00041F9FDF715FAFDF79BFBFDF745FB01E0E7
:104DF000FFF766FCFCE7704770B50446002624F018
:104E00000104184890F8240008B1002070BD15482E
:104E1000807A10B94FF0FF30F8E71248057C807AAD
:104E20002040104908740846007CA04202D04FF090
:104E3000FF3600E0002614B90A48007D18B10120B1
:104E400001F0BEFF02E0002001F0BAFF3CB100F02B
:104E5000C7FC20B1034805744FF0FF30D6E7304659
:104E6000D4E70000A400002070B52DED0E8B8EB0AD
:104E700004460D461646B7EE000AF0EE409A9FED46
:104E8000880AB0EE408A9FED860AF0EE408A9FEDD8
:104E9000840AB0EE409A07A808A90DAB03AACDE991
:104EA000001009A90BA8FEF789FF20B101200EB060
:104EB000BDEC0E8B70BDBDF8200000F480700028A2
:104EC0007DD09DED030AB8EEC00ADFED760A80EED4
:104ED000201AF0EE419A9DED040AB8EEC00ADFED0B
:104EE000710A80EE201AB0EE418A9DED050AB8EEF7
:104EF000C00ADFED6C0A80EE201AF0EE418A9DEDCB
:104F0000060AB8EEC00ADFED670A80EE201AB0EE9E
:104F1000419AB8EE000A28EE000A20EE090AF0EEE7
:104F2000000A69EEA00A00EEA80A10EE101A084660
:104F300005F064F941EC1D0BB0EE4D0AF0EE6D0A80
:104F4000FDF7EAFFB0EE40CAF0EE60CA9FED560BE7
:104F500053EC102B51EC1C0B04F090FE41EC1B0B9E
:104F60009FED530B53EC102B04F088FE41EC1A0B11
:104F700004F052FC2060B8EE000A28EE000A20EE91
:104F8000080AF0EE000A68EEA00A00EEE80AF7EE62
:104F9000000A30EE200A10EE101A084605F02EF92D
:104FA00041EC1D0BB0EE000A28EE800A20EE090A43
:104FB000F0EE000A69EEA00A00EE880A00E06BE05D
:104FC00010EE101A084605F019F941EC1E0BB0EE70
:104FD0004D1AF0EE6D1AB0EE4E0AF0EE6E0AFEF7C4
:104FE000B7FAB0EE40CAF0EE60CA9FED2F0B53EC5B
:104FF000102B51EC1C0B04F041FE41EC1B0B9FED00
:105000002C0B53EC102B04F039FE41EC1A0B04F07E
:1050100003FC286029EEA90A08EE080A08EEE80A4F
:1050200009EE490A10EE101A084605F0E7F841ECBF
:105030001C0B28EE280A09EE890AF0EE000A20EE81
:10504000200A10EE101A084605F0D8F841EC1D0BA6
:10505000B0EE4C1AF0EE6C1AB0EE4D0AF0EE6D0A9E
:10506000FEF776FAB0EE40EAF0EE60EA9FED0E0B46
:1050700053EC102B51EC1E0B04F000FE41EC1B0B0B
:105080009FED0B0B53EC102B04F0F8FD41EC1A0BC9
:1050900004F0C2FB306001E0022008E7002006E7D0
:1050A000000000000000804E6666666666A64C4002
:1050B000000000000000594070B50024FCF78EFE8F
:1050C00000F02AF9002840D1782000F035FFC4B262
:1050D0000CB1012070BD7820FFF78EFEC4B20CB178
:1050E0000220F7E7642000F0D9FEC4B20CB103201F
:1050F000F0E7FEF757FEC4B20CB10420EAE714480B
:10510000FFF724FE0546FFF7A7F8C4B20CB105204F
:10511000E0E740F27310FEF7EDFCC4B20CB10620DC
:10512000D8E76420FEF7C8FFC4B20CB10720D1E76E
:1051300001F0F9FD04460CB10820CBE7012000F096
:10514000A9FDC4B20CB10920C4E70020C2E70000E9
:10515000D000002001461148407A30B1012807D024
:10516000022808D003280CD108E0022008700BE0C8
:105170000420087008E00820087005E0102008707E
:1051800002E04FF0FF30704700BF0448C07C18B108
:1051900008784006000E08700020F4E7A400002004
:1051A00001461348407A30B1012808D002280AD0BD
:1051B000032810D10BE04FF4804008800EE041F648
:1051C0009C7008800AE04FF48050088006E04FF49D
:1051D0000060088002E04FF0FF30704700BF0448D5
:1051E000C07C10B10888401008800020F5E700005E
:1051F000A400002001460248007C0870002070478F
:10520000A400002001460F48007A30B1012807D0E1
:10521000022809D003280FD10AE0FA2008800EE006
:105220004FF4FA7008800AE04FF47A70088006E0C4
:105230004FF4FA60088002E00020088000BF00BF41
:1052400000207047A400002001461248007A30B1C7
:10525000012809D002280CD0032814D10EE09FEDBC
:105260000E0A81ED000A11E09FED0C0A81ED000AA3
:105270000CE09FED0B0A81ED000A07E09FED090AA3
:1052800081ED000A02E04FF0FF30704700BF0020C0
:10529000FBE70000A400002000000343000083425D
:1052A000333303423333834101461248C07A08281E
:1052B00017D2DFE800F01704070A0D101318BC20FE
:1052C000088013E06220088010E02A2008800DE0AA
:1052D000142008800AE00A20088007E005200880E2
:1052E00004E000BF00BF0020088000BF00BF002016
:1052F00070470000A40000200146064890F82400F2
:1053000010B14FF0FF3070470248C089088000207C
:10531000F9E70000A40000201CB580208DF80000F3
:10532000654A1268917C644A526810786B46012283
:10533000FDF76EF810B14FF0FF301CBD6420FEF792
:1053400075FB00208DF800005B4A1268917C5A4A78
:10535000526810786B460122FDF75AF810B14FF0F1
:10536000FF30EAE7544A1268917D534A5268107838
:105370006B460622FCF7A6FF10B14FF0FF30DCE7CA
:105380009DF80500C007400F9DF8031001F00101D2
:1053900040EA41009DF8011001F0010140EA0104DA
:1053A00094B1012C03D101214348C17431E0022C96
:1053B00003D100214048C1742BE021463FA0FBF7F8
:1053C0007BF84FF0FF30B8E73B4A1268D1783A4A91
:1053D000526810786B460122FCF774FF10B14FF051
:1053E000FF30AAE79DF8000000F00F042CB93D48FB
:1053F000FBF762F84FF0FF309FE7042C06D13AA08C
:10540000FBF75AF801212C48C17402E000212A4818
:10541000C174FF2128488172FF2027490872FF21AB
:1054200025484172C1724FF6FF71C181FF2101749D
:1054300081740121017380F82210002180F823106B
:10544000417501751630016041608160163880F841
:10545000241080F82510C1844FF4FA6000F062FC3B
:1054600010B14FF0FF3068E7022000F02BFB10B1C5
:105470004FF0FF3061E72A2000F0CEFC10B14FF072
:10548000FF305AE7322000F009FD10B14FF0FF3035
:1054900053E70020FFF7B0FC10B14FF0FF304CE7AE
:1054A000002000F051FB10B14FF0FF3045E7002025
:1054B00000F042FD002040E7A4000020556E737507
:1054C00070706F7274656420736F66747761726553
:1054D0002070726F64756374207265762025642E67
:1054E0000A00000090CE000848616C662073656E6B
:1054F0007369746976697479207061727420666F5B
:10550000756E642E0A0000002DE9F04385B0054653
:105510000E4690469946294890F8250020B14FF054
:10552000FF3005B0BDE8F08316B94FF0FF30F8E763
:10553000002423E0281B102801DD102000E0281B98
:1055400087B232193946204600F05EFD10B14FF0A7
:10555000FF30E6E701AA3946204600F001F910B114
:105560004FF0FF30DDE730193A4601A9FBF740F96B
:1055700010B16FF00100D4E7E01984B2AC42D9DB7E
:105580004FEA28208DF8000008F0FF008DF8010098
:105590000A4A1268917E094A526810786B460222C4
:1055A000FCF736FF10B14FF0FF30BAE70121034896
:1055B00080F82510A0F826900020B2E7A400002073
:1055C00038B50446282C02DD4FF0FF3038BDDCB979
:1055D000002000F0EBFB00208DF8000007208DF884
:1055E00001002E4A1268917C2C4A526810786B4652
:1055F0000222FCF70DFF10B14FF0FF30E6E700216B
:10560000264801750020E1E7012000F0CFFB2020B3
:105610008DF80000012C06D100208DF80100052036
:1056200000F0FAFB17E0052C06DC01208DF80100E4
:10563000052000F0F1FB0EE0142C06DC02208DF8B2
:1056400001000A2000F0E8FB05E003208DF80100CE
:10565000142000F0E1FB9DF80100072101EB801010
:10566000C0B28DF801000D4A1268917C0B4A526855
:1056700010786B460222FCF7CBFE10B14FF0FF30E2
:10568000A4E70821054881720021017301210175F9
:105690000020FFF7B1FB002098E70000A4000020E5
:1056A000F8B504460F4616462C4890F8240010B969
:1056B0004FF0FF30F8BD2948807A10B94FF0FF3025
:1056C000F8E7264A1268917A244A526810786B46A5
:1056D0000222FCF7F7FD10B14FF0FF30EAE79DF82A
:1056E00001009DF8001040EA0125A54203DA0020E0
:1056F0003070401EDEE7194840684088B5EB600F07
:1057000017DD164A1268517C144A526810786B46AD
:105710000122FCF7D7FD10B14FF0FF30CAE79DF82A
:10572000000000F0100020B100F05AF86FF0010006
:10573000C0E7E2B2094B1B68D97A084B5B6818785E
:105740003B46FCF7BFFD10B14FF0FF30B2E795FBD1
:10575000F4F0401E30700020ACE70000A4000020F0
:10576000F8B504460D46164616B94FF0FF30F8BDA1
:105770001A48807A10B94FF0FF30F8E720128DF800
:105780000000E0B28DF801009DF8010028441349A3
:1057900049684989884202DD4FF0FF30E7E70F4A48
:1057A0001268117E0D4A526810786B460222FCF78F
:1057B0002FFE10B14FF0FF30D9E7EAB2074B1B685C
:1057C000597D064B5B6818783346FCF77BFD10B1BA
:1057D0004FF0FF30CBE70020C9E70000A400002015
:1057E00008B57048807A10B94FF0FF3008BD00202E
:1057F00000906C4A1268D17B6A4A526810786B46F6
:105800000122FCF705FE10B14FF0FF30EEE7654ACC
:1058100012685179634A526810786B460122FCF78E
:10582000F7FD10B14FF0FF30E0E75E4A12681179E2
:105830005C4A526810786B460122FCF7E9FD10B112
:105840004FF0FF30D2E7574890F82400002853D09B
:105850000C200090534A12681179524A526810780D
:105860006B460122FCF7D4FD10B14FF0FF30BDE7CD
:105870003220FEF7DBF8C02000904A48807A00F022
:10588000010020B19DF8000040F020000090454A42
:1058900012681179434A526810786B460122FCF76E
:1058A000B7FD10B14FF0FF30A0E73E48407C10B18B
:1058B0000220009001E0002000903A4A1268D17B5B
:1058C000384A526810786B460122FCF7A1FD10B1EE
:1058D0004FF0FF308AE700200090324A1268517979
:1058E000304A526810786B460122FCF791FD00287F
:1058F00055D04FF0FF3079E704200090294A126814
:105900001179284A526810786B460122FCF780FD15
:1059100010B14FF0FF3069E72248807C20B9214860
:10592000807A00F0010010B94020009001E0602072
:1059300000901C4A126811791A4A526810786B4616
:105940000122FCF765FD10B14FF0FF304EE7322029
:10595000FEF76CF81348407C10B10120009001E084
:10596000002000900F4A1268D17B0E4A52681078CE
:105970006B460122FCF74CFD10B14FF0FF3035E7CC
:10598000084A12685179074A52681078054B10335B
:105990000122FCF73DFD10B14FF0FF3026E700205B
:1059A00024E70000A40000202DE9F04F8DB08346CD
:1059B0000F4602200C90424890F8240020B10020AD
:1059C00000F068F9012600E0002603A8FFF71AFCA2
:1059D00005A8FFF7BFFB01A8FFF766FC02A8FFF7C9
:1059E0008BFC374890F80AA004A8FFF703FC0024BA
:1059F00007E0002239465846FEF7E2FE00B902E011
:105A0000641C022CF5DB00BF022C01D1002528E02C
:105A1000002407E0012206A909A8FEF7D1FE00B97B
:105A200002E0641C022CF5DB00BF022C01D1002532
:105A300017E006A93846FDF73DFF00F0FF0809A969
:105A40005846FFF7F5F800F0FF090025B9F1000FFF
:105A500001D145F00105B8F1000F01D145F0020573
:105A600000BFFF2016490872FF2115484172C1721C
:105A70004FF6FF71C181FF21817201740121017311
:105A8000BDF80C0000F04EF99DF8140000F01AF873
:105A9000BDF8040000F0C0F9BDF8080000F0FEF900
:105AA000504600F049FA9DF81000FFF7A5F916B12D
:105AB000012000F0EFF828460DB0BDE8F08F00009F
:105AC000A400002038B504461E48807A10B94FF073
:105AD000FF3038BD022C06D0042C07D0082C08D08B
